:020000040000fa
:080000000002040000000000f2
:020000040000fa
:100008009402000094020000940200009402000090
:100018009402000094020000940200009402000080
:100028009402000094020000940200009402000070
:100038009402000094020000940200009402000060
:1000480008060000940200004e050000940200001b
:1000580094020000da0400009402000094020000f8
:1000680094020000de0700009402000094020000e1
:100078009402000094020000940200009402000020
:100088009402000094020000940200009402000010
:100098009402000094020000940200009402000000
:1000a80094020000940200009402000094020000f0
:1000b80094020000940200009402000094020000e0
:1000c80094020000940200009402000094020000d0
:1000d80094020000940200009402000094020000c0
:1000e80094020000940200009402000094020000b0
:1000f80094020000940200009402000094020000a0
:10010800940200009402000094020000940200008f
:10011800940200009402000094020000940200007f
:10012800940200009402000094020000940200006f
:10013800940200009402000094020000940200005f
:10014800940200009402000094020000940200004f
:10015800940200009402000094020000940200003f
:10016800940200009402000094020000940200002f
:10017800940200009402000094020000940200001f
:10018800940200009402000094020000940200000f
:1001980094020000940200009402000094020000ff
:1001a80094020000940200009402000094020000ef
:1001b80094020000940200009402000094020000df
:1001c80094020000940200009402000094020000cf
:1001d80094020000940200009402000094020000bf
:1001e80094020000940200009402000094020000af
:0801f8009402000094020000d3
:020000040000fa
:10020800940200009402000094020000940200008e
:10021800940200009402000094020000940200007e
:10022800940200009402000094020000940200006e
:10023800940200009402000094020000940200005e
:1002480008060000940200004e0500009402000019
:1002580094020000da0400009402000094020000f6
:1002680094020000de0700009402000094020000df
:10027800940200009402000094020000940200001e
:10028800940200009402000094020000940200000e
:1002980094020000940200009402000094020000fe
:1002a80094020000940200009402000094020000ee
:1002b80094020000940200009402000094020000de
:1002c80094020000940200009402000094020000ce
:1002d80094020000940200009402000094020000be
:1002e80094020000940200009402000094020000ae
:1002f800940200009402000094020000940200009e
:10030800940200009402000094020000940200008d
:10031800940200009402000094020000940200007d
:10032800940200009402000094020000940200006d
:10033800940200009402000094020000940200005d
:10034800940200009402000094020000940200004d
:10035800940200009402000094020000940200003d
:10036800940200009402000094020000940200002d
:10037800940200009402000094020000940200001d
:10038800940200009402000094020000940200000d
:1003980094020000940200009402000094020000fd
:1003a80094020000940200009402000094020000ed
:1003b80094020000940200009402000094020000dd
:1003c80094020000940200009402000094020000cd
:1003d80094020000940200009402000094020000bd
:1003e80094020000940200009402000094020000ad
:0803f8009402000094020000d1
:020000040000fa
:10040000ef8e20000edf20000e01880000000000ab
:1004100000012000200288000c000700c0ac200072
:100420000100200011000700000020000000e00093
:10043000020032000000020000000000fe06020080
:10044000000000000040da000000fe004440a90067
:10045000000020000000e000030032000000200047
:10046000a00188004440a800000006009101880017
:10047000800078000000eb0015003700e2804000ab
:1004800032a0b4009101ba00e280400032a0b40072
:100490009102ba00e280400032a0b4000002eb00fa
:1004a000472bde00f507b200602ce10004003a00a3
:1004b0000059eb008301e900fdff3e000400370016
:1004c0006128e100010032000082eb000400070017
:1004d0001101ba000200e000e8ff3a000000060047
:1004e0003159ba008301e9000c0032002159ba00e9
:1004f0008301e900080032000400e00003003a0034
:10050000e280400032a0b400f5ff370011d9ba00f4
:100510008301e900faff3a008100e800e180400031
:1005200032a0b400000006000040da000000fe0027
:020000040000fa
:10053000a445800084024200668b200066837a0016
:1005400005f02f008502630078003200840242002b
:10055000668b200066837a0005e02f0005036300a8
:1005600005002a00850f5300080032008402420073
:10057000668b200066837a0005e02f000503630088
:1005800005002300850f530057003a00258c2000fa
:1005900095427800e38262004e003a00e20f52007a
:1005a00024003c0020c0b300c2e8b70004034200ae
:1005b000658b2000e5037b00c83bde000740780028
:1005c000c3e8b700e5037b0007407800c4e8b70044
:1005d0008403e8008783430065807b004800de00d9
:1005e000c5e8b700e5837b0007407800c9e8b7009d
:1005f0008483e8008783430065807b004800de0039
:10060000c8e8b700e5837b0007407800c7e8b7007b
:10061000630242000402420065027a004822de00c2
:1006200004407800c6e8b70086824200800aeb00ea
:100630000000060010c0b300c2e8b7008402420008
:10064000668b2000e6837a00c83bde000740780016
:10065000c3e8b700e6827a0005407800c4e8b70036
:10066000e40f520015003c008402e800858242003d
:10067000e6837a00c83bde0007407800c5e8b70093
:10068000e6827a0005407800c9e8b700e30f52001f
:100690000a003c000482e80004024200860278005e
:1006a00065037a004833de0006407800c8e8b700ea
:1006b00065027a0004407800c7e8b700a4458000ce
:1006c0000402420006e02f00658b200086327a008b
:1006d0000000060004024200658b200004824200f4
:1006e000000aeb000000060004024200658b2000b7
:1006f000e5027a0004f02f0084826200848f5200a9
:100700002f003a0000c0b300c2e8b700c3e8b7004a
:10071000c4e8b700c5e8b700c6e8b700c7e8b70047
:10072000c8e8b700c9e8b70000000600258c200023
:1007300095427800e3826200e18f520020003a0087
:1007400020c0b300c2e8b700e30252008582420035
:10075000668b2000e6827a00c82ade000540780019
:10076000c6e8b700e30f520015003400e40252005f
:1007700085824200e6837a0007407800c7e8b70028
:10078000e6827a00c82ade0005407800c8e8b70093
:10079000e40f52000a0034006502520004024200d5
:1007a0008602780065037a0006407800c9e8b70041
:1007b00065027a004822de0004407800c5e8b700f0
:1007c00000000600889fbe00248c200014427800a0
:1007d00063026200e20f52006d003a009500a8002b
:1007e000358c200095427800e50fb200040a200005
:1007f000848f520043003a00348c20001442780069
:10080000610262008004eb00890f52001a003a0076
:10081000428c200012417800548c20001442780051
:10082000318c2000914078004811dd000482fb00eb
:1008300004014100030020008180fb008100d10001
:1008400045002000648c200010002000c902070031
:100850008004780018002000318c2000914078003e
:100860008180fb008100d10008007800b6020700fb
:10087000e00f5000f8ff3a00428c2000124178004f
:10088000548c200014427800318c20009140780074
:100890004811dd000482fb00040141000300200038
:1008a0008180fb008100d10045002000648c200085
:1008b00010002000e50207008904700030003a00b3
:1008c000958c200095427800848c2000144278009a
:1008d000c82add000482fb000482420064468800ce
:1008e000758c200095427800648c200014427800ba
:1008f000c82add000482fb0004824200744688009e
:1009000018003700358c200095427800e50fb200c2
:1009100004032000848f520012003a00c3c8bf00b5
:100920000080fb000000d1008001eb0022002000cd
:10093000618c20006b020700e00f500010003a00ad
:10094000cc28ef00658c200095427800748c200044
:1009500014427800c82add000482fb0004824200b1
:10096000744688009500a900c268ef00348c20000e
:10097000144278000482fb005446880004003700cb
:100980009500a900c268ef00f40f200054468800cb
:100990004f04be000000060084468000e10f5200b4
:1009a00002003a00cce2a80000000600cce2a90058
:1009b00000000600849fbe00869fbe0085a0a9009f
:1009c00004188000944688000203f800d408f90057
:1009d0000403f800d608f9000603f800d808f90067
:1009e0000803f800da08f900cfa2de00064780000d
:1009f000174780000403430085834b0006478800a7
:100a0000174788002547800004802000848f52000b
:100a100004003a00c4c2a9000402e8002447880088
:100a2000130037008502e8002547880004002100f4
:100a3000848f52000e003a00e00f5300e08f5b00fd
:100a400002003d00f603b0000780b0004a3add0026
:100a50004633de0006037200c6bbde00e6468800b1
:100a6000f7468800e028ef00e228ef00e428ef00d6
:100a7000dc08f800d208f900844580009545800024
:100a800061024200e0824a00844588009545880062
:100a90004f03be004f02be0000400600809fbe0014
:100aa000829fbe00849fbe00869fbe00889fbe00be
:100ab0000200fa008540a900a045800051002000f6
:100ac000e00f5000010032008000e90086468000ff
:100ad0000002eb00678b200052a52a000104e80009
:100ae0001300200045128000f5bf9f0084024200e1
:100af000ffbc970089b37a00e00f530006003a006c
:100b0000ffba9700828f52000a003a000400e80002
:100b10000303780007003700810f520005003a00f8
:100b2000ffbc9700828f540002003a000800780052
:100b3000030378000402e800e60f5200e9ff3a00e0
:100b400086468800a0458800e60f500001003a0064
:100b5000b428ef0054a52a0044128800d208f800f7
:100b60004802f90017168000c23bde00161680000e
:100b70005516800054468000e1836300ca3bdd00c7
:100b80004633dd000620b2000683730004037300c1
:100b9000c62add000510b2008502730045128800e8
:100ba000e00f520004003a004822ef003400200019
:100bb0004412880008003700cc08f8004802f90009
:100bc000ce08f8004802f9000002eb005446880005
:100bd0006446880074468800258c20009542780081
:100be0008582fb00a44580004822dd00048242008b
:100bf000441288000080fa004f04be004f03be007c
:100c00004f02be004f01be004f00be000040060074
:100c10003600f800809fbe00829fbe00849fbe0009
:100c2000869fbe003400f80000002000a00188006c
:100c3000a20007008500a9003400f9004f03be00a0
:100c40004f02be004f01be004f00be003600f9004b
:100c5000004006007007a900000e20002023b70006
:100c6000f0ff21002223b6002343a80034ff2f0009
:100c700015198000050262000440a0000450a10084
:100c80001419880025e3a900f40f2e00251980000f
:100c90000502620004a0a0002419880004fc2f00b3
:100ca00025198000050262003400b3002419880071
:100cb00028e3a900140020008419880021e3a8007b
:100cc000540580000440a1000450a0000460a1006d
:100cd0005405880085a0a90095a0a8002043a8007d
:100ce000000006007067a90041e2a90044058000e9
:100cf0000430b30004a0a100440588008540a90089
:100d00009540a800c00120004222b700300020001a
:100d10004222b7004322a90042c2a8004302a90010
:100d200042e2a90042a2a9004342a8004402a8004e
:100d3000041280000420a1008401b3000412880082
:100d400040c2a90041e2a8008540a80000000600ba
:100d50000200fa0054002000f4bf9f00b45d2000a0
:100d60007408880013e1a800440580000400a00076
:100d70000410a1000420a100440588008500a900fa
:100d80009500a9008001eb0063108800f4032000a7
:100d900024108800040429003410880064058000b1
:100da0000440a0000450a1000460a1006405880074
:100db0008620a9009620a8009500a8001200200017
:100dc0008f80e90080c1b300360107009500a900bb
:100dd0000080fa0000000600f08f2f004427b600c4
:100de000e4ff2f0064198800c0c2a800c8e2a9006f
:100df00098ff0700bbff0700d5ff37000400fa008b
:100e00006022b800e4bf9f00f5bf9f0040002000b3
:100e100001002000278d20000003eb000b003700ad
:100e20006fba9700ffba97000402420004824300a1
:100e3000060a78006fba9700ffba97006102420075
:100e4000e0824a00e4bf9f00f5bf9f006fba9700a1
:100e5000ffba9700800f5200818f5a00f0ff3400d4
:100e6000cce2a900dcff0700cbfe0700844680002f
:100e7000e00f5200fcff3200adfd070051fe0700fd
:100e8000f9ff37000002eb00058020006033b80056
:100e90004220dd00008042000688be00740042004f
:100ea0004200dd00008042000688be000402e80027
:100eb000f40f5200f6ff3a0000000600744580006f
:100ec000e00f520003003a0014002000744588002f
:100ed000ecff0700648e200014427800e14f5200be
:100ee0000a003a000862ab0006003a00ac28ed00a8
:100ef00064458000e00f520004003a00e668ef000d
:100f000002003700a400200064458800648e2000a1
:100f100014427800e34f520004003200648e200037
:100f200014427800e74f520023003a00e828ec0012
:100f30004547800044062000848f5200080034009a
:100f4000e828ef00644280007542800061024200a0
:100f5000e0824a0064428800754288000642a80088
:100f60000862ab000300320064478000e00f5200cb
:100f700011003200e828ef00648e2000144278004f
:100f8000e34f520003003a0040c0b300e6e8b70068
:100f90000200370080c0b300e6e8b7006447800075
:100fa000e00f520003003200ec28ef000622a800f8
:100fb000000006000602a80000000600801f78005e
:100fc000849fbe00869fbe003400f8000000200011
:100fd000a00188000200fa008620a9000440200039
:100fe0004010800000026200e00f52002800320032
:100ff00007e2a90007e2a800648e200014427800ee
:101000000482fb004222dd000580200004824200b1
:101010001600200007002000140a430054924b00e1
:10102000aa08f800a408f900a808f800a208f90026
:10103000648e2000144278000482fb00050020002a
:1010400064025200e0825a00e80f5200e08f5a001a
:101050000f003e0004600100080037000700370061
:10106000060037000a003700070037000600370087
:1010700005003700040037000300370030c0b3001c
:10108000e6e8b7000200370070c0b300e6e8b7003a
:10109000648e2000144278000482fb0005002000ca
:1010a00062025200e0825a00ea0f5200e08f5a00ba
:1010b00076003e00046001007000370073003700c6
:1010c00008003700150037005a0037006f0037005e
:1010d00028003700300037003f003700420037005b
:1010e0005b003700048a2000144278000482fb0071
:1010f000040242001410880014458000e00f5200e2
:101100000300320050c0b300e6e8b7005f003700cc
:1011100060c0b300e6e8b7005c00370004002800b8
:101120004510800005026200e00f52000500320009
:101130000642a800a6a8ef0020c0b300e6e8b7006a
:101140005200370024458000344378008682fb003b
:101150001510880024458800a228ed001445800061
:10116000e00f520049003a0060c0b300e6e8b70063
:1011700046003700048a2000144278000482fb00f5
:10118000040242000400a0001410880090c0b300c4
:10119000e6e8b7003d003700040028004510800055
:1011a00005026200e00f5200050032000642a8006e
:1011b000a6a8ef0020c0b300e6e8b7003300370070
:1011c00004108000f4bf9f000662a800b0c0b30006
:1011d000e6e8b7002d0037000662a800b0c0b300f3
:1011e000e6e8b700290037000822ab00040032000f
:1011f0000510800024458000055a780024458800a9
:10120000a228ed0014458000e00f520004003a00cf
:1012100006a2a800c0c0b300e6e8b700030037008c
:1012200006a2a900a0c0b300e6e8b7000682a800a5
:1012300016003700040028004510800005026200f7
:10124000e00f520002003200a6a8ef00ea28ef00eb
:1012500054478000e00f520004003a000642a80004
:1012600020c0b300e6e8b7000800370014002000f3
:1012700064478800e668ef00040037000002eb00d6
:101280006447880004407800e6e8b7000080fa0070
:101290003400f9004f03be004f02be004f0078003b
:1012a00000400600a628ef00a0e8b700124588001d
:1012b000a208f800a808f9002145880051458800d7
:1012c0005347880030c0b300e6e8b700648e2000c2
:1012d00014427800e04f5200fcff3a003045800095
:1012e00000000600a628ef00a0e8b700124588001d
:1012f000a208f800a808f900214588005145880097
:101300005347880070c0b300e6e8b700648e200041
:1013100014427800e04f5200fcff3a003045800054
:1013200000000600a40020006445880010c0b3003f
:10133000e6e8b700648e200014427800e04f5200c7
:10134000fcff3a0000000600e10f500008003a00e0
:10135000014078000074a1008001eb0003017800d7
:1013600083007800cfff07003045800000000600b2
:10137000000005002400fa00889fbe008a1f780044
:1013800006022000868f5200010036008602780097
:10139000481bde0007002000e6d79f00401cde004f
:1013a00009002000f8d79f00c81bde00481ddd00a3
:1013b0004813de000603750086df9f0092df9f0062
:1013c000e08f52000600320096fd2f000f0343000d
:1013d00085034300346b7800870f5300fdff3a000c
:1013e000010378000608b2004400200004003a001f
:1013f000610264004222dd0084807000240020002d
:10140000e10f50000c003a00050142006402120096
:1014100065fd2f008f824200048242000140780067
:101420000074a1008001eb00840078009dff07009c
:1014300030458000010037000000eb004f057800c8
:101440004f04be000080fa0000000600e687470057
:10145000889fbe008a9fbe008c9fbe008e1f7800b2
:1014600000077800810678000205be0004067800b7
:10147000850478006113b80009034300e0834b0042
:101480000400200015002000840f5300858f5b00ae
:10149000130036000a04ea00880278000c02780083
:1014a0000a01be008d0078000e007800e7ff0700fb
:1014b00008054500e0854d00080646008884540074
:1014c000614ab8000a024200e0824a000600200099
:1014d00017002000860f5200878f5a00edff3e0054
:1014e000485ade0005002000e4ef9f00405ade006d
:1014f0000500200004437800f4ef9f00c85bdd0086
:101500004852de0004827300c85ade0084f79f0050
:101510009af79f000d0278000408b20042002000f4
:1015200004003a00610363004233dd0086867600e2
:10153000220020000000eb00e10f570010003a00ed
:10154000e400110072825700810042000d407800d3
:101550000074a1001300200052ff070034458000f2
:10156000e00f520005003a008001eb00090178000d
:101570008c0078000d4078005aff0700304580004d
:101580004f0778004f06be004f05be004f04be0057
:081590006f00b100000006002d
:020000040000fa
:10159800b008000022000000020000000000000067
:1015a8000000000000000000000000000000000033
:1015b8000000000000000000000000000000000023
:1015c800000000000000000000000000d208000039
:1015d8001400000000000000e608000008000000f9
:1015e80002000000000000000000000000000000f1
:1015f80000080000b000000000000000000000002b
:020000040000fa
:020000040040ba
:080000000000000003000000f5
:020000040000fa
:0200000401f009
:04000000ffff0000fe
:020000040000fa
:0200000401f009
:04000800ffff0000f6
:020000040000fa
:0200000401f009
:04000c0079ff000078
:020000040000fa
:0200000401f009
:04001000bbff000032
:020000040000fa
:0200000401f009
:040014007fff00006a
:020000040000fa
:0200000401f009
:04001800ffff0000e6
:020000040000fa
:0200000401f009
:04001c00fdff0000e4
:020000040000fa
:0200000401f009
:040020007fff00005e
:00000001FF
