:020000040000fa
:08000000c0160400000000001e
:020000040000fa
:100400003400f800881f780008c0b300a8018800f5
:100410004f0478008020a900ffff37003400f80067
:10042000881f780008c0b300a80188004f04780036
:100430008060a900ffff37003400f800881f7800b3
:1004400008c0b300a80188004f0478008040a900cc
:10045000ffff37003400f800881f780008c0b300a1
:10046000a80188004f0478008080a900ffff3700b2
:100470003400f800881f780008c0b300a801880085
:100480004f04780080a0a900ffff37003400f80077
:10049000881f780008c0b300a80188004f047800c6
:1004a0008020a900ffff37003400f800881f780083
:1004b00008c0b300a80188004f0478008060a9003c
:1004c000ffff37003400f800881f780008c0b30031
:1004d000a80188004f0478008040a900ffff370082
:1004e0003400f800881f780008c0b300a801880015
:1004f0004f0478008080a900ffff37003400f80027
:10050000881f780008c0b300a80188004f04780055
:1005100080a0a900ffff370005c8b30002c8620031
:1005200011409800224098004811de0032409800a7
:1005300043409800c819de0053409800644098007a
:100540004822de0074409800000006000301780095
:100550000004e00006003a00840178000001eb008e
:10056000820078000080eb00600207000400370082
:10057000840178008000eb00010078005b02070036
:10058000000006000001eb00260121006022b800f7
:10059000230621004210dd00860040008488be0052
:1005a000030040000488be000201e800f40f51007f
:1005b000f8ff3a00000006003600f800809fbe00f9
:1005c000829fbe00849fbe00869fbe003400f8005c
:1005d00000c0b300a00188000810e20003003a0048
:1005e0001000200040808800e6ff070052d1bf00c5
:1005f000e14f50000a003a0008c2bf0068406000a6
:1006000005003a00be30ed00be10e20004003a00e2
:1006100052f1b70002003700a0002000f0858800ea
:100620005ad1bf00e14f50000a003a0018c2bf0083
:100630006840600005003a00c430ed00c410e200dc
:1006400004003a005af1b70002003700a000200071
:100650002086880052d1bf00e34f500003003200d3
:1006600052d1bf00e74f500021003a005431ec0056
:10067000a18a800040062000808f500008003400ce
:100680005431ef00f082800001838000610040005f
:10069000e0804800f0828800018388000642a800bc
:1006a00008c2bf000038a300020032005811e20067
:1006b0000f0032005431ef0052d1bf00e34f500021
:1006c00003003a0040c0b30052f1b7000200370007
:1006d00080c0b30052f1b7005811e20003003200ad
:1006e0005831ef000622a800010037000602a800da
:1006f0005ad1bf00e34f5000030032005ad1bf006f
:10070000e74f500021003a005c31ec00e18a8000a4
:1007100040062000808f5000080034005c31ef005c
:10072000708580008185800061004000e080480085
:1007300070858800818588001642a80018c2bf0015
:100740000038a300020032006011e2000f00320006
:100750005c31ef005ad1bf00e34f500003003a0074
:1007600040c0b3005af1b7000200370080c0b300a8
:100770005af1b7006011e200030032006031ef006f
:100780001622a800010037001602a8008a80a900de
:100790003400f9004f03be004f02be004f01be00ff
:1007a0004f00be003600f90000400600809fbe00ea
:1007b000829fbe003400f80000c0b300a001880092
:1007c0000200fa0009c2bf000028a3001c0032008a
:1007d0000942a90052d1bf000080fb004200dd00a9
:1007e0002101210001004000120020000300200030
:1007f0001008410050904900e38580007380880014
:10080000d08580006080880052d1bf00e44f500046
:100810000b003900e64f50000400360068405000dd
:10082000e44f500006003e000300370030c0b30024
:1008300052f1b7000200370070c0b30052f1b700a8
:1008400052d1bf00e84f5000310032000b003e0093
:10085000e44f50001100320003003e00e24f500010
:1008600067003a0063003700e54f50001700320080
:10087000e64f500062003a0051003700ea4f500046
:10088000380032002a003900eb4f500039003200a6
:10089000ec4f50005a003a004c0037000ad0bf001d
:1008a0000080fb0000004000101088000c10e200e7
:1008b0000300320050c0b30052f1b70050003700bf
:1008c00060c0b30052f1b7004d0037000942e200aa
:1008d00005003d000642a80010b0ef0020c0b300a4
:1008e00052f1b7004600370070808000b080fb00f6
:1008f00011108800708088000c30ed000c10e200b0
:100900003f003a0060c0b30052f1b7003c0037002e
:100910000ad0bf000080fb00000040000000a000e3
:100920001010880090c0b30052f1b70034003700b7
:100930000942e20005003d000642a80010b0ef00a9
:1009400020c0b30052f1b7002d0037000210800024
:10095000f2bf9f000662a800b0c0b30052f1b7001a
:10096000270037000662a800b0c0b30052f1b700fc
:100970002300370008c2bf000018a30004003200a3
:10098000708080000110800001587800708088001d
:100990000c30ed000c10e20004003a0006a2a800a2
:1009a000c0c0b30052f1b7000300370006a2a9008f
:1009b000a0c0b30052f1b7000682a80010003700b3
:1009c0000942e20001003d0010b0ef005611e200c4
:1009d00004003a000642a80020c0b30052f1b7005c
:1009e0000700370010002000c08a88005271ef0015
:1009f000030037000000eb00c08a880052f1b70006
:100a00008620a9000080fa003400f9004f01be00e2
:100a10004f00be0000400600809fbe00829fbe00c7
:100a20003400f80000c0b300a00188000200fa0002
:100a300019c2bf000028a3001c0032001942a900ff
:100a40005ad1bf000080fb004200dd0021062100da
:100a500081004000120020000300200091084100a6
:100a6000d190490013868000b385880000868000fd
:100a7000a08588005ad1bf00e44f50000b00390018
:100a8000e64f50000400360068405000e44f50002c
:100a900006003e000300370030c0b3005af1b70033
:100aa0000200370070c0b3005af1b7005ad1bf003e
:100ab000e84f5000310032000b003e00e44f500080
:100ac0001100320003003e00e24f500067003a0080
:100ad00063003700e54f500017003200e64f50002a
:100ae00062003a0051003700ea4f500038003200ef
:100af0002a003900eb4f500039003200ec4f500013
:100b00005a003a004c003700b2d0bf000080fb0012
:100b10000000400090108800b410e2000300320092
:100b200050c0b3005af1b7005000370060c0b300a6
:100b30005af1b7004d0037001942e20005003d00b0
:100b40001642a800b8b0ef0020c0b3005af1b700b9
:100b500046003700b0858000b080fb00911088000f
:100b6000b0858800b430ed00b410e2003f003a00d8
:100b700060c0b3005af1b7003c003700b2d0bf00ec
:100b80000080fb00000040000000a00090108800e2
:100b900090c0b3005af1b700340037001942e200a8
:100ba00005003d001642a800b8b0ef0020c0b30019
:100bb0005af1b7002d00370082108000f2bf9f006d
:100bc0001662a800b0c0b3005af1b7002700370082
:100bd0001662a800b0c0b3005af1b7002300370076
:100be00018c2bf000018a30004003200b0858000c6
:100bf0008110800001587800b0858800b430ed0085
:100c0000b410e20004003a0016a2a800c0c0b3006d
:100c10005af1b7000300370016a2a900a0c0b30024
:100c20005af1b7001682a800100037001942e200fe
:100c300001003d00b8b0ef005e11e20004003a0090
:100c40001642a80020c0b3005af1b70007003700d1
:100c500010002000008b88005a71ef00030037005d
:100c60000000eb00008b88005af1b7008a40a90011
:100c70000080fa003400f9004f01be004f00be00b2
:100c8000004006001030ef000af0b70062808800d4
:100c900060808000d085880071808800e1858800b0
:100ca000b38a880030c0b30052f1b7005251e2005d
:100cb000feff3a00000006001030ef000af0b70017
:100cc0006280880060808000d08588007180880004
:100cd000e1858800b38a880070c0b30052f1b70084
:100ce0005251e200feff3a0000000600b830ef006b
:100cf000b2f0b700a2858800a08580000086880039
:100d0000b185880011868800f38a880030c0b3005e
:100d10005af1b7005a51e200feff3a000000060007
:100d2000b830ef00b2f0b700a2858800a08580003f
:100d300000868800b185880011868800f38a8800c3
:100d400070c0b3005af1b7005a51e200feff3a00fa
:100d500000000600a0002000f085880010c0b3004d
:100d600052f1b7005251e200feff3a0000000600c7
:100d7000a00020002086880010c0b3005af1b70000
:100d80005a51e200feff3a00000006003600f8006b
:100d9000809fbe00829fbe00849fbe00869fbe00d3
:100da0003400f80000c0b300a001880008c2bf00f2
:100db0000028a3000700320007c2bf000048a300bc
:100dc00011003a00212020000000eb005300070032
:100dd0000d00370008c2bf000018a3000a0032004f
:100de0000110800008c2bf000058a30003003200b9
:100df0000000eb006a000700030037008080eb0072
:100e00000000eb006600070008c2bf000068a300f6
:100e10000100320008c2a9000782a8008600a900cc
:100e20003400f9004f03be004f02be004f01be0068
:100e30004f00be003600f900004006003600f80002
:100e4000809fbe00829fbe00849fbe00869fbe0022
:100e50003400f80000c0b300a001880018c2bf0031
:100e60000028a3000700320017c2bf000048a300fb
:100e700011003a0021212000100020002700070067
:100e80000d00370018c2bf000018a3000a0032008e
:100e90008110800018c2bf000058a3000300320078
:100ea000100020003e000700030037008080eb00a8
:100eb000100020003a00070018c2bf000068a3001d
:100ec0000100320018c2a9001782a8008a20a900d8
:100ed0003400f9004f03be004f02be004f01be00b8
:100ee0004f00be003600f900004006000202780004
:100ef000a216210080717900038141002013210096
:100f00000131780005002000c219dd002016210003
:100f1000808141008489be00000006000001780045
:100f200001027800a116210060c07800e24f400065
:100f30000600320062c078000000fb00000a780062
:100f4000e0cfb30000f1780014003700c210dd00dc
:100f500020162100808140001300be00e00f5000e9
:100f6000e08f58000c0032000080eb008080eb0026
:100f700093094000d3914800020141002013210051
:100f80000001410012007800b080fb00010a7800e7
:100f90000009780001003700000aeb00000006009d
:100fa000889fbe008a1f78000003be00e18f4000ca
:100fb00008003a0000014000a10c21000000eb00f5
:100fc00000b17800610c21008000200000b17800a1
:100fd0004200370000024000a20c21000201420042
:100fe00092017800e80c21002003200000b0b90035
:100ff000800278000300400007707c008301e80055
:1010000003097800600c2100000142001202e9008f
:1010100004097800e88f51000b003a0065407c001d
:101020000004e0000800350066804200e0407c00db
:101030008180fb006780420060407c004800dd004a
:10104000808040000109420006004300610c21003d
:10105000010040001000e00020003a00e50c2100f3
:101060002803200008b4b9006600440060c57a0077
:101070000a85fb006700440060c27a004822dd0058
:1010800064004400e0c37a008783fb0065004400ed
:10109000e0c17a00c819dd000880e80060c17a006c
:1010a0000281fb006300440060c07a004800dd005c
:1010b00000014100e8c07a0000c8b30080c06000b1
:1010c0000800e80060c07a00650d21008502440038
:1010d00004024500838143006f0507004f05780037
:1010e0004f04be00000006004000fa00889fbe00ca
:1010f0008a9fbe008c9fbe00000478000782a80073
:101100009600a9000c052000010646005c1088002e
:101110000042eb00844678006055b800c9ff2f00fc
:1011200086c0bf000008a3002f0032008600a9007f
:10113000d1c2bf004600de00610060000004a200d2
:101140004600dd00112d2000914078000164a100cf
:1011500080c0700001007800d1e2b70008c2bf0073
:101160000018a300200032000010800080407800aa
:1011700008c2bf000058a3000b003a0014c0b3001f
:101180006055b800c9ff2f000d04e00015003200c3
:10119000320307000000fe0014c0b3006055b80021
:1011a000c9ff2f000f0037000900e00009003d00d3
:1011b0004859dd00c851de00830171004851dd004f
:1011c0000180fb0001002000000571008185710095
:1011d0000300370040fb2f000900400001f07f00b2
:1011e0008904e8000782a8000404e00044003200fb
:1011f00008c2bf000048a300410032000900e0001f
:1012000021003500e10f4500e08f4d001e003a003f
:101210000a22ef000800e00003003200e10f540052
:1012200015003a000700370043fb2f008f81410073
:10123000090178000080eb008080eb00910107003d
:101240000d0037008902780044fb2f000f02420096
:101250000081eb008081eb00310d20002000200098
:10126000f9030700310d200020002000df030700f4
:101270000000e000fbff3a005c1088000042eb0039
:101280001dc0b3001e0037000042eb000900e00063
:101290001b0034000a22ef000800e00003003200c7
:1012a000e10f540014003a00070037008b00d10012
:1012b0000a80d30043fb2f008f8141000901780091
:1012c000270107000c0037008902780044fb2f003b
:1012d0000f0242000a01be00310d20002000200054
:1012e000d9030700310d200020002000bf030700b4
:1012f0000000e000fbff3a005c1088000042eb00b9
:1013000008c2bf000068a30085ff320008c2a90020
:1013100083ff37004000fa00889fbe008a9fbe000e
:101320008c9fbe00000478001782a8009a20a900b4
:101330000c05200001064600dc1088000042eb008e
:10134000844678006055b800c9ff2f008ac0bf00ee
:101350000018a3002f0032008a20a900d1c2bf00cc
:101360004600de00610060000004a2004600dd00cf
:10137000112d2000914078000164a10080c0700010
:1013800001007800d1e2b70018c2bf000018a30026
:1013900020003200801080008040780018c2bf001a
:1013a0000058a3000b003a0014c0b3006055b80009
:1013b000c9ff2f000d04e00015003200a70207004e
:1013c0000000fe0014c0b3006055b800c9ff2f0034
:1013d0000f0037000900e00009003d004859dd001a
:1013e000c851de00830171004851dd000180fb001f
:1013f00001002000000571008185710003003700a5
:1014000040fb2f000900400001f07f008904e80044
:101410001782a8000404e0004400320018c2bf0094
:101420000048a300410032000900e000210035001f
:10143000e10f4500e08f4d001e003a001a22ef0038
:101440000800e00003003200e10f540015003a00ec
:101450000700370043fb2f008f814100090178000e
:101460000080eb008080eb00060107000d003700d4
:101470008902780044fb2f000f0242000081eb003c
:101480008081eb00310d2000100020006e0307006a
:10149000310d200010002000540307000000e00080
:1014a000fbff3a00dc1088000042eb001dc0b300d7
:1014b0001e0037000042eb000900e0001b00340072
:1014c0001a22ef000800e00003003200e10f540090
:1014d00014003a00070037008b00d1000a80d300c7
:1014e00043fb2f008f814100090178009c00070019
:1014f0000c0037008902780044fb2f000f024200e5
:101500000a01be00310d2000100020004e0307002c
:10151000310d200010002000340307000000e0001f
:10152000fbff3a00dc1088000042eb0018c2bf004d
:101530000068a30085ff320018c2a90083ff3700ae
:10154000804078007f406000ef4f50000200340080
:101550006fc0600001003700694040000000fb00e0
:1015600000000600889fbe0000047800104078004c
:10157000f3ff07000000fb00c404dd0018409000ea
:10158000efff07000000fb00008044004f04be0096
:10159000000006008f03b000889fbe008a9fbe0037
:1015a0008c9fbe008e1f780000067800edff0700bc
:1015b00080047800804678000c80e800e9ff07008e
:1015c00000c444000080fb0001002000480ddd0045
:1015d000c805de008b0575004805dd006400460087
:1015e000e0ff0700004444000080fb0001002000f1
:1015f0000005750081857500fab79f008bbf9f00bd
:1016000066004600d7ff0700004778000045440009
:101610000904e0000c003200e80446000044eb003e
:10162000cbfb2f008f85450009007800cdff070018
:10163000805d7800004545000844e8008984e800a2
:1016400088cf5600f8ff3a000d80fb0000004000f4
:101650000000460068004000c2ff0700004045004f
:101660008000eb001f003a000e04e000040032008e
:1016700011002000e44f57001a003a000e00370016
:101680000d81fb0000408000114080007fb2970078
:101690008fba970000007200818072008100d10033
:1016a0000080d300c3fb2f008f8141002c00070076
:1016b000110020000b0037004f799700c811dd00a2
:1016c000020020005f7897008080fb00000020006f
:1016d00002004000838048000040880011408800dc
:1016e00011002000010078004f0778004f06be006f
:1016f0004f05be004f04be008f03b100000006007e
:1017000002034000e0834800860f5000878f580096
:10171000120031000002be004028de00010020005f
:1017200032e0b7001400ba009480ba008049780013
:101730004800de0090419800a1419800c808de00f2
:10174000b1419800e481410062024200e0824a0017
:10175000860f5200878f5a00efff39000000060005
:10176000889fbe008a9fbe000003be0082057800ed
:10177000030578000000200001002000c000dd000b
:101780000000200002c0290002044000e08448005c
:1017900004002000850f2000078062000100200067
:1017a000c000dd0000002000840f5000858f58002d
:1017b00004003a000b0178000600be00cf000700cd
:1017c0000e003700860f5400878f5c000200360041
:1017d0000603440087834c000800440089804c00c5
:1017e000800f5300818f5b00040031008a01780074
:1017f0000b0178000600be00030007004f05be0085
:101800004f04be0000000600889fbe008a9fbe00f5
:101810008c9fbe000005be000206be000200e00074
:10182000140032008004eb008a007800f13fb2001f
:101830000040200001005000000440000900560054
:10184000800f540001003600000478008d814400b0
:10185000080178000a00be000a0007000800d10055
:1018600000054500e0854d0088844400890f56003e
:10187000edff3e004f06be004f05be004f04be0008
:1018800000000600889fbe008a9fbe008c9fbe009d
:101890008e1f78000006be008204780003077800df
:1018a00000c02f000c0060006169b800c015dd00a9
:1018b0000a0020006101b8000205750083857500eb
:1018c000b0898000c1898000800f5500818f5d0044
:1018d0001f003200e00f5000e08f58000400350078
:1018e0000630ec004380200042c020003900070091
:1018f000e00f5500e08f5d00130035000430ec0070
:1019000040d8de00cf80de0032e0b7000a02be0021
:101910008001eb0048c02000478020000620200006
:101920009400ba001481ba000380410001307c00a9
:1019300002b07b008301e80062024200e0824a00bc
:10194000868f5100f6ff3a00ba898800cb8988005b
:101950000c007800f03fb2000000d1000900e00068
:10196000170032000e0278008002eb00f61f200004
:1019700047c020004880200006016000820141002d
:10198000144090004800dd009480fb0001004000fe
:1019900080b17b00b4409000c808dd002440900076
:1019a0000080fb008080400081317c00e4824200a6
:1019b0000200e80064024200858f5400eeff3e0002
:1019c0004f0778004f06be004f05be004f04be0013
:1019d00000000600889fbe008a9fbe008c1f780012
:1019e0000004be0082057800030678004008de008f
:1019f0000045780032e0b700880078000003eb0073
:101a00008602780088037800f30f2000022020006f
:101a10001100ba001182ba00e10f400003003a0041
:101a200003006200830f5000010032001600200006
:101a30008502e8008180e800828f5200f4ff3a00be
:101a40000600e0000d00320020042400003b880066
:101a50000a00780032e0b700080cbb000700fc0069
:101a600050052000303b8800a00a2000303b880051
:101a700061e7a80000000000000000008001eb000a
:101a80000204200018002400094020000a00780009
:101a900032e0b70003834500830246000002eb00fa
:101aa000b600780035007800810bbb00809bbb003e
:101ab0000402e800820f5200f9ff3a00083b880058
:101ac0000700fc0050052000303b8800a00a2000e1
:101ad000303b880061e7a800000000000000000023
:101ae0000308b000898f5100e8ff3a004f067800e4
:101af0004f05be004f04be0000000600889fbe00d8
:101b00008a9fbe008c9fbe000002be006115b80017
:101b10000200e0002c0032006033b800ac1321005a
:101b20000d002400134090004800dd009380fb006e
:101b3000810440004028de000100200032e0b700b0
:101b40001404ba008500d1000480d300eb4f50008c
:101b500015003e000080fb000000400060017e0098
:101b60008200640002806400808f50000e0032000a
:101b7000d1a2a800d1a2a9000d3b88008280ea0072
:101b800081807400010abb000700fc0050052000a2
:101b9000303b8800a00a2000303b880061e7a800a5
:101ba000000000000000000064034300e0834b00dd
:101bb000e481410062024200e0824a008a0f530041
:101bc0008b8f5b00d7ff39004f06be004f05be006c
:101bd0004f04be00000006000200200003002000a9
:101be000c011dd000200200000c0290000004100fb
:101bf000e08049004009de00030020000001fd00f4
:101c000032e0b7000001fd009001ba001081ba0077
:101c1000e18f410003003a006000b800e14f41004d
:101c20000200320010002000010020000000060029
:101c30000200200003002000c011dd00020020008f
:101c400000c0290000004100e08049000000400081
:101c50008180480062005000e08058004009de00aa
:101c6000030020000001fd0032e0b7000001fd008c
:101c70001001ba001080ba0001002000c000dd0091
:101c80000000200002014000e08148000380fb00ca
:101c90006102b800c020dd00000020006112b80021
:101ca000040070008580700000000600889fbe0060
:101cb0008a9fbe008c9fbe00000020000100200013
:101cc000c000dd000000200002c029000201400029
:101cd000e081480002004100838049006206500014
:101ce000e08658006055b8008c0f51008d8f590068
:101cf000170031000203be006055b800f80f200045
:101d0000090020004038de000100200032e0b7006a
:101d10001601ba001682ba000800610000004500f2
:101d2000e0804d004811de0002014000e0814800e3
:101d30000802620004054100e08549006203430097
:101d4000e0834b008c0f53008d8f5b00edff39005b
:101d50000b80fb006101b800c010dd000000200016
:101d60006151b80002007000838070004f06be0011
:101d70004f05be004f04be0000000600889fbe0055
:101d80008a9fbe008c9fbe00000020000100200042
:101d9000c000dd000000200002c029000205400054
:101da000e0854800290032006044b8000a06be0001
:101db000f50f20000803460089834e0040b8de007e
:101dc000cf80de0032e0b7000601be000420200014
:101dd0001200ba009280ba00e10f400009003a00f8
:101de00005806000850f500006003a000402e900fb
:101df00062014100e08149000400e0000c00320073
:101e0000f3ff370020042400003b8800060bbb00d2
:101e10000700fc0050052000303b8800a00a20008d
:101e2000303b880061e7a8000000000000000000cf
:101e30000040200001002000080440008984480080
:101e4000880f5500898f5d00daff3e004f06be0007
:101e50004f05be004f04be0000000600f287470099
:101e6000889fbe008a9fbe008c9fbe008e1f780098
:101e70008eff07000004be006dff0700800f5400b6
:101e8000818f5c0002003200bcff0700d1003700e8
:101e90000000200001002000c000dd000000200044
:101ea00004c0290004024000e08248000200200033
:101eb00003002000c011dd00020020000080290086
:101ec00000004100e08049000002520081825a0077
:101ed00094b79f00a5b79f00e00f5200e08f5a0013
:101ee000bc0032006000b800b0b79f00c1b79f00cf
:101ef0000200be000280290002004000e08048008d
:101f0000d0b79f00e1b79f00000020000100200033
:101f1000c000dd000000200002c0290002004000d7
:101f2000e0804800f0b79f0081bf9f00d1c2bf0092
:101f30004600de00610060000004a2004600dd00f3
:101f4000112d2000914078000164a10080c0700034
:101f500001007800d1e2b7003fb19700cfb1970000
:101f60005fb29700efb297000200420083804a0000
:101f70007fb197008fb99700000541008185490026
:101f80000004be006022b800405bde0007002000b5
:101f9000400ede000d0020000600780032e0b700a1
:101fa0000a0042008b804a001001ba009081ba00fa
:101fb0000c00780032e0b7000800420089804a0037
:101fc0001007ba009080ba008e0f51000a003a0044
:101fd000818f510008003a0062024200e0824a000c
:101fe0000040200001002000800f5200818f5a0025
:101ff00033003200e8ff370020042400003b880053
:102000000c00780032e0b700080cbb000700fc00b1
:1020100050052000303b8800a00a2000303b88009b
:1020200061e7a80000000000000000000006eb00cf
:102030001e0024000d4020000c037800070420003f
:102040006132b9000a0042008b804a004009de007c
:10205000030020000001fd0032e0b7000001fd0098
:102060009001ba001081ba000802420089824a0039
:102070004028de000100200032e0b700030abb0068
:10208000028abb000683e8008703e900ecff3a0000
:102090000e3b88000700fc0050052000303b880004
:1020a000a00a2000303b880061e7a8000000000083
:1020b000000000000c08b0008d0f5600deff3a0053
:1020c0003fb19700cfb197000440200005002000e9
:1020d0000201420083814a00b2b79f00c3b79f004c
:1020e0001fb09700afb09700820f5000838f580049
:1020f0008eff3e006044b800000020000100200078
:10210000c000dd0000002000028029000205400020
:10211000e08548000000200001002000c000dd0034
:102120000000200002c0290002064000e0864800ae
:102130000800450089804d000003460081834e0061
:102140004038de000100200032e0b7000601be008a
:10215000042020001200ba009280ba00e10f400073
:1021600008003a00e18f400006003a000402e9004e
:1021700062014100e08149000400e0000c003200ef
:10218000f4ff370020042400003b8800060bbb004e
:102190000700fc0050052000303b8800a00a20000a
:1021a000303b880061e7a80000000000000000004c
:1021b00000402000010020000804400089844800fd
:1021c0001fb19700afb19700880f5100898f590058
:1021d000d7ff3e004f0778004f06be004f05be00f8
:1021e0004f04be002f01b10000000600e10f5000b7
:1021f000040032000001eb00e20f500010003a0032
:1022000008003700014078000074a1008001eb0055
:1022100003017800830078009afa0700828080002a
:1022200007003700014078000074a1008001eb0036
:102230000301780083007800acfa0700c2858000b3
:1022400002007800000006002400fa00889fbe000b
:102250008a1f7800800478000104780000022000c2
:10226000808f520001003600800278004818de009e
:1022700001002000e0d79f00401bde000700200087
:10228000f6d79f00481ddd004810de0000007500f5
:10229000c818de0080df9f0092df9f000500e0008d
:1022a00006003200a0fd2f008f0040000580400096
:1022b000b4587800808f5000fdff3a0043002000a2
:1022c0000878a30004003a00610063004200dd00ca
:1022d0000004740023002000e18f54000400320049
:1022e0000000eb00e28f540016003a000b003700ac
:1022f000038142006afd2f000f0545008300550051
:10230000e4804000084078000074a1008001eb00e8
:102310005cfa0700808080000a00370003814200d9
:1023200060fd2f000f00400083005000e48040005b
:10233000084078000074a1008001eb006bfa0700f0
:10234000c08580004f0578004f04be000080fa0071
:1023500000000600e6874700889fbe008a9fbe00f7
:102360008c9fbe008e1f78000007780081067800e1
:102370000205be0004067800850478006128b800d4
:1023800002004000e080480002002000130020000e
:10239000820f5000838f5800130036000a04ea00b1
:1023a000880278000c0278000a01be008d007800d7
:1023b0000e007800e7ff070008054500e0854d00a6
:1023c00008064600888454006150b80009004000a7
:1023d000e08048000200200013002000820f50001f
:1023e000838f5800edff3e004858de0001002000ba
:1023f000e0ef9f004058de0001002000f0ef9f005a
:10240000c859dd004850de0000807100c858de0069
:1024100080f79f009af79f00420020000d78a300ec
:1024200005003a007fe89700610060004200dd008f
:102430008086760022002000e10f57000400320061
:102440000000eb00e20f570022003a0011003700b5
:102450007280570082005000e48040000d407800f8
:102460000074a1001300200006fa0700808080009d
:102470000000e00005003a008001780009017800c2
:102480008c0078000d4078000bfa070080808000f7
:1024900010003700f281570082805100e480400034
:1024a0000d4078000074a100130020000ffa07000f
:1024b000c08580000000e00005003a00800178003f
:1024c000090178008c0078000d40780014fa0700ac
:1024d000c08580004f0778004f06be004f05be0044
:1024e0004f04be006f00b10000000600700107003d
:1024f000b9fd0700e00f5000e08f580004003200e3
:1025000000ceb3004260b700009802000000000057
:1025100010fa0700e5000700b18b80001140900021
:102520000040a1000050a1000060a1000070a100c7
:1025300090409800ffff37000041780003027800c8
:1025400020082000808f50002400320007003e0049
:1025500000022000808f50000b0032001008200085
:10256000808f50003f003a0014003700000920001f
:10257000808f5000220032000000e800808f500061
:1025800038003a00270037000500e0000300320061
:10259000e18f52003f003a00040037003100200074
:1025a0000000eb00d0fa07003a00370031002000ad
:1025b0000000eb0057fb070036003700201020001a
:1025c000608b88006e31ef000401be00c11621004f
:1025d0000000eb0045fa07002e003700201f8000a6
:1025e00001002000608b8800718b88000401be0010
:1025f000c11621000000eb003cfa0700250037005f
:10260000b0002000608b880010002000708b8800d4
:102610000401be00c11621000000eb0033fa0700e0
:102620001c0037000200200003002000c011dd0064
:102630000200200000c0290000004100e0804900a5
:102640000000400081804800608b8800718b88000a
:102650000401be00c11621000000eb0023fa0700b0
:102660000c0037000204e00006003a008501780003
:102670000001eb00820078000080eb001bfa0700ed
:10268000040037000401be008000eb000080eb0076
:1026900016fa070000000600889fbe008a1f780017
:1026a0008043780001457800020478000301780037
:1026b00084047800850078000602780060c5b300c5
:1026c00080cf5300380032000a003c0065405000c3
:1026d00080cf53004100320000c0e80080cf53009b
:1026e0003e0032007040500080cf53005f003a003f
:1026f0004b00370090c5b30080cf53002a00320052
:1027000004003c0000c0e90080cf530057003a00ad
:102710002c00370020c6b30080cf530004003200e5
:102720000040e80080cf530050003a000d00370011
:102730000600e00003003200e10f530058003a00a9
:1027400004003700310020000000eb0066fa0700ab
:1027500053003700310020000000eb00edfa0700c5
:102760004f0037000200200003002000c011dd00f0
:102770000200200000c0290000004100e080490064
:102780000000400081804800808b8800918b880089
:102790008601780009017800011721000000eb0094
:1027a000d2f907003e003700840278000102780069
:1027b00089017800880078000a4078005eff0700f1
:1027c000370037004841de008901780088407800f2
:1027d0000a4078005df7070031003700300820001c
:1027e000800f540008003a007031ef007231ef00a2
:1027f0008401780009017800011721000000eb0036
:10280000baf9070026003700840178000901780032
:102810008000eb000080eb00b4f9070020003700d7
:1028200030082000808f51000a003a00b0002000dc
:10283000808b880010002000908b88008601780033
:1028400009017800011721000000eb00a7f907003b
:102850001300370086017800090178008000eb0042
:102860000080eb00a1f907000d0037000a04e0002a
:1028700006003a00840178000001eb008200780035
:102880000080eb0099f9070005003700840178000b
:10289000090178008000eb000080eb0093f907004d
:1028a0004f0578004f04be0000000600cba2a9002f
:1028b000cbc2a800cba2a800cba2a900cba2a800a3
:1028c000cba2a900cba2a800cba2a900cba2a800b2
:1028d000cba2a900cba2a800cba2a900cba2a800a2
:1028e000cba2a900cba2a800cba2a900cba2a80092
:1028f000cba2a90000000600d1c2bf004600de0046
:10290000610060000004a2004600dd00112d2000df
:10291000914078000164a10080c07000010078003f
:10292000d1e2b70014002000840278008001eb009f
:10293000cba2a800cba2a900cba2a800cba2a90041
:10294000a3168800a3168800a3168800a316880083
:10295000d4a2ef00b28b800012409000c428dd00aa
:102960006f4060000140700010419800c620dd00fb
:10297000cbc2bf000064a10001407000cbe2b700f1
:10298000ca02a900cba2a800cba2a900ca02a80033
:10299000ca02a800ca22a900cba2a800cba2a90003
:1029a000ca22a800ca22a800cbc2a800cba2a800b5
:1029b000cba2a900cba2a800cba2a9008502e80067
:1029c00003027800ea8f5200d9ff3a00b18b8000f1
:1029d000114090000040a1000050a1000060a10043
:1029e0000070a10090409800000006003600f8003a
:1029f000809fbe00829fbe00849fbe00869fbe0057
:102a00003400f80000c0b300a0018800baff07003e
:102a10004217210012417800e1406100c608dd0044
:102a2000d1c2bf000064a10001407000d1e2b70034
:102a300010c0b3000240500074f1b7008400a90038
:102a40003400f9004f03be004f02be004f01be002c
:102a50004f00be003600f90000400600809fbe0017
:102a6000821f78003400f80000c0b300a001880085
:102a70005217210012417800e1406100c508dd00d5
:102a8000d1c2bf000054a10001407000d1e2b700e4
:102a900010c0b3000240500075f1b70089e0a900f2
:102aa0003400f9004f0178004f00be0000400600de
:102ab0000800070018000700470007006b00070028
:102ac00075000700570007005f0007007c00070043
:102ad000000006000000eb0040038800500388005f
:102ae000caa2ef00301688008016880060168800a1
:102af000f10f2000b116880090168800101788008a
:102b000001ff2000f116880040178800c003200054
:102b100020178800000006000200fa0044c7bf002a
:102b200001ceb300014060000024a00044e7b700dc
:102b300060022000303a88000000eb00f0bf9f00e8
:102b4000703e2000ffb89700808f500010003c00be
:102b5000e3cfb30000017800812e2000914078007f
:102b6000e1c060000104a200e8c2bf0003406000b1
:102b700001407000e8e2b7007fb897000000e8006d
:102b8000f0bf9f00ffb89700828f5000f2ff340023
:102b9000f0c3b3004467b6003074200081c7b300af
:102ba000a2c9b30033c0b3000148780002487800de
:102bb000034878002074200061c4b30072c5b300dc
:102bc00013c0b30001487800024878000348780039
:102bd0000080fa000000060071e7a80071c7a80095
:102be00071a7a8007187a8007167a8007107a800e5
:102bf00070e7a80070c7a80070a7a8007087a80099
:102c00007067a8007007a80072a7ef0075e7a8001a
:102c100075c7a80075a7a8007587a8007427a80025
:102c20000000060070e7a900600120005010880035
:102c30000c22ef00f003200020108800000429007f
:102c400030108800000006007427a90070012000e1
:102c5000d01088001c22ef00f0032000a010880094
:102c600000042900b0108800000006007587a90044
:102c70002c61a9002c21a90000c3b3002c61b7006e
:102c80002cc1a9002da1a80090d0230040098800e4
:102c90002de1a8000000060075e7a9003c21a9006d
:102ca000f0ccb3003c61b6003cc1a9003da1a90035
:102cb000f0f92000c00988003de1a80000000600ee
:102cc0000000eb000004880081e0a90010048800e7
:102cd00020048800300488004004880050048800e4
:102ce00060048800bbc0bf00f1c8b30001406000b1
:102cf0000044a000bbe0b70099e0a800bec0bf0040
:102d000082cfb300024060005040b300bee0b70085
:102d10009a80a800acc0bf00024060000014a00070
:102d2000ace0b700acc0bf00014060000045b3009c
:102d3000ace0b7009600a8009620a800bcc0bf0079
:102d4000014060000054a000bce0b700bdc0bf005f
:102d5000024060005040b300bde0b7009a20a800d8
:102d60009a40a8008200a9009400a800a4c0bf0057
:102d7000024060006040b300a4e0b700000006001d
:020000040000fa
:020000040001f9
:10300000ea874700889fbe008a9fbe008c9fbe0053
:103010008e1f78000000200001002000c000dd00ad
:10302000000020000280290002004000e0804800eb
:10303000d0b79f00e1b79f00e00f5000e08f58002d
:10304000a00032006055b800000020000100200000
:10305000c000dd000000200002c029000200400086
:10306000e0804800f0b79f0081bf9f00d1c2bf0041
:103070004600de00610060000004a2004600dd00a2
:10308000112d2000914078000164a10080c07000e3
:1030900001007800d1e2b7007fb097008fb89700a9
:1030a0000a0440008b8448006022b800404bde00d8
:1030b00007002000405ede000d00200006007800c2
:1030c00032e0b7000800420089804a001001ba00cf
:1030d0009081ba000c00780032e0b7000a0042008c
:1030e0008b804a001007ba009080ba008e0f510002
:1030f0000a003a00818f510008003a006202420043
:10310000e0824a000040200001002000800f5200b1
:10311000818f5a0033003200e8ff3700200424007a
:10312000003b88000c00780032e0b7000a0dbb00bd
:103130000700fc0050052000303b8800a00a20005a
:10314000303b880061e7a80000000000000000009c
:103150000006eb001e0024000d4020000c03780048
:10316000070420006132b9000800420089804a004b
:103170004009de00030020000001fd0032e0b7003e
:103180000001fd009001ba001081ba000a0242005d
:103190008b824a004028de000100200032e0b700a8
:1031a000030abb00028abb000683e8008703e9002c
:1031b000ecff3a000e3b88000700fc0050052000a1
:1031c000303b8800a00a2000303b880061e7a8005f
:1031d00000000000000000000c08b0008d0f560039
:1031e000deff3a0000402000010020000a054000f8
:1031f0008b8548005fb09700efb097008a0f5000b2
:103200008b8f580099ff3e006044b80000002000fa
:1032100001002000c000dd000000200002c02900e5
:1032200002054000e08548000803450089834d0001
:103230004038de000100200032e0b7000601be0089
:10324000042020001200ba009280ba00e10f400072
:1032500008003a00e18f400006003a000402e9004d
:1032600062014100e08149000400e0000c003200ee
:10327000f4ff370020042400003b8800060bbb004d
:103280000700fc0050052000303b8800a00a200009
:10329000303b880061e7a80000000000000000004b
:1032a00000402000010020000804400089844800fc
:1032b0005fb09700efb09700880f5000898f5800db
:1032c000d9ff3e000000fe004f0778004f06be0009
:1032d0004f05be004f04be00af00b1000000060065
:020000040000fa
:020000040040ba
:08000000010000000b000000ec
:020000040000fa
:0200000401f009
:04000c0078ff000079
:020000040000fa
:0200000401f009
:040010007cff000071
:020000040000fa
:0200000401f009
:040014007fff00006a
:020000040000fa
:0200000401f009
:04001800f8ff0000ed
:020000040000fa
:100008009c170000000200000e0200001c02000005
:100018002a020000380200009c1700009c1700000c
:10002800f61400009c1700009c1700009c170000a5
:100038009c1700009c1700009c1700009c170000ec
:100048009c1700009c1700009c1700009c170000dc
:100058009c1700009c1700009c1700009c170000cc
:10006800c6060000d60300009c1700009c1700007d
:100078009c1700009c1700009c1700009c170000ac
:100088009c1700009c1700009c1700009c1700009c
:100098009c1700009c1700009c1700009c1700008c
:1000a8009c1700009c1700009c1700009c1700007c
:1000b8009c1700009c1700009c1700009c1700006c
:1000c8009c1700009c1700009c1700009c1700005c
:1000d8009c1700009c1700009c1700002e150000bc
:1000e8009c1700001e0700000c0500009c1700006c
:1000f800dc0200009c1700009c1700009c17000001
:100108009c1700009c1700009c1700009c1700001b
:100118009c1700009c1700009c1700009c1700000b
:100128009c1700009c1700009c1700009c170000fb
:100138009c1700009c1700009c1700009c170000eb
:100148009c1700009c1700009c1700009c170000db
:100158009c1700009c1700009c1700009c170000cb
:100168009c1700009c1700009c1700009c170000bb
:100178009c1700009c1700009c1700009c170000ab
:100188009c1700009c1700009c1700009c1700009b
:100198009c1700009c1700009c1700009c1700008b
:1001a8009c1700009c1700009c1700009c1700007b
:1001b8009c1700009c1700009c1700009c1700006b
:1001c8009c1700009c1700009c1700009c1700005b
:1001d8009c1700009c1700009c1700009c1700004b
:1001e8009c1700009c1700009c1700009c1700003b
:0801f8009c1700009c17000099
:020000040000fa
:100208009c17000046020000540200006202000031
:10021800700200007e0200009c1700009c1700007e
:10022800f61400009c1700009c1700009c170000a3
:100238009c1700009c1700009c1700009c170000ea
:100248009c1700009c1700009c1700009c170000da
:100258009c1700009c1700009c1700009c170000ca
:10026800c6060000d60300009c1700009c1700007b
:100278009c1700009c1700009c1700009c170000aa
:100288009c1700009c1700009c1700009c1700009a
:100298009c1700009c1700009c1700009c1700008a
:1002a8009c1700009c1700009c1700009c1700007a
:1002b8009c1700009c1700009c1700009c1700006a
:1002c8009c1700009c1700009c1700009c1700005a
:1002d8009c1700009c1700009c1700002e150000ba
:1002e8009c1700001e0700000c0500009c1700006a
:1002f800dc0200009c1700009c1700009c170000ff
:100308009c1700009c1700009c1700009c17000019
:100318009c1700009c1700009c1700009c17000009
:100328009c1700009c1700009c1700009c170000f9
:100338009c1700009c1700009c1700009c170000e9
:100348009c1700009c1700009c1700009c170000d9
:100358009c1700009c1700009c1700009c170000c9
:100368009c1700009c1700009c1700009c170000b9
:100378009c1700009c1700009c1700009c170000a9
:100388009c1700009c1700009c1700009c17000099
:100398009c1700009c1700009c1700009c17000089
:1003a8009c1700009c1700009c1700009c17000079
:1003b8009c1700009c1700009c1700009c17000069
:1003c8009c1700009c1700009c1700009c17000059
:1003d8009c1700009c1700009c1700009c17000049
:1003e8009c1700009c1700009c1700009c17000039
:0803f8009c1700009c17000097
:020000040000fa
:102d80008f172100807f24000001880000000000d0
:102d9000050007000c00070076120200000000008a
:102da0000040da000000fe004440a90000002000be
:102db0000000e0000300320000002000a0018800b5
:102dc0004440a8000000060000742100010020001b
:102dd0001600370062004000e08048009101880042
:102de0009001ba0062004000e08048009101880034
:102df0009002ba0062004000e08048000002eb0050
:102e00006028e10005003a008301e9000700330073
:102e1000038009000059eb00040037006128e1003d
:102e2000010032000082eb000500070091018800dc
:102e30001001ba000200e000e6ff3a0000000500c1
:102e4000910188008002780062004000e080480024
:102e50003559ba008301e900080032002559ba004b
:102e60008301e900050032000400e000f4ff3200b5
:102e700015d9ba008301e900f1ff3a00000006000d
:020000040000fa
:102e800052110000100000000200000000000000cd
:102e90000000000000000000000000000000000032
:102ea0000000000008100000be000000000000004c
:102eb000621100000a000000020000000000000093
:102ec000000000000000fe00fe000000c610000030
:102ed000700000000000000000080000080800006a
:102ee00000000000361100001c000000020000007d
:102ef000ffffff00ffcf0000cf00070000a700008a
:102f0000c700df0000e700000000ff0000ff000036
:102f1000ff00ff000000000076110000020000002a
:102f200002000000e80200006c1100000a0000002e
:082f3000000000000000000099
:020000040000fa
:042f38000000fe0097
:00000001FF
