:020000040000fa
:080000000002040000000000f2
:020000040000fa
:10040000ef2422000eff27000e01880000000000ec
:100410000c00070060572100010020000f000700ba
:10042000000020000000e000020032000000020096
:1004300000000000920a0200000000000040da0004
:100440000000fe00600120000000e0000200320019
:10045000002020009001880000000600a102880012
:10046000800078000000eb001a003700e2804000b6
:1004700054a0b4009101ba00e280400054a0b4003e
:100480009102ba00e280400054a0b4000002eb00e8
:10049000472bde00f507b200a6018800602ce100c2
:1004a00008003a000049eb000201e80002003900b0
:1004b0003420ec0002f0a0008301e900f9ff3e00c7
:1004c000040037006128e100010032000082eb00e7
:1004d000040007001101ba000200e000e3ff3a0047
:1004e0000000060004d0a300e20f49001c00390000
:1004f000810278003549ba000201e80002003900a3
:100500003420ec0002f0a0008301e9000f0032006b
:100510002549ba000201e800020039003420ec004d
:1005200002f0a0008301e900080032000400e000ae
:100530000600320015c9ba000201e80002003900c5
:100540003420ec0002f0a0008301e9008180e80083
:1005500054a0b4000300e000e2ff3a0000000600ef
:100560009102ba00055978008301e900f7ff3200d3
:10057000c82ade00055978008301e900f3ff320044
:100580000400e000f1ff320011d9ba00eeff37009d
:100590000040da000000fe00020ab900001bb900aa
:1005a0000200b80081004200810043000000060004
:1005b000839f68000100e00002003d006000100021
:1005c000e08018000300e00002003d00600111001f
:1005d000e0811900050007004f00e00002003b0029
:1005e00060001000e0801800000006006022b800e3
:1005f000060220000000d0008180d2000482d200d8
:100600008582d2000000a0000202520083825a00bc
:10061000030031000202420083824a000000a10070
:0c0620000603e900f3ff3a0000000600aa
:020000040000fa
:020000040002f8
:048ffc000000fe0073
:020000040000fa
:020000040002f8
:10900000fa874700889fbe008a9fbe008c9fbe00e3
:109010008e1f7800121020000281fb000300200048
:10902000c011dd000200200000002500000041000a
:10903000e08049004009de0003002000a202880011
:109040009001ba001081ba0000202000808f5100ea
:1090500002003a00e44f5100010032000000fe001f
:10906000f30f20001010200003006000010020001a
:10907000c000dd00000020000200250002024000c8
:10908000e082480010102000030060000100200072
:10909000c000dd000000200002802400020040002b
:1090a000e0804800800f5200818f5a000300310099
:1090b00084b79f0095b79f000200370080b79f00dc
:1090c00091b79f006044b80010102000f0b79f00d7
:1090d0000100250081bf9f006101b800b2b79f0069
:1090e000c3b79f008280fb00000020000fb99700eb
:1090f00002004000e0804800d0b79f00e1b79f0029
:10910000620037005fb09700efb09700080640009c
:10911000898648008c017800f8af9f00080178002c
:109120004fb79700406dde000b002000404bde0083
:1091300007002000a6b79f00aa0288009300ba008b
:109140009382ba00a60288001200ba001282ba0006
:10915000808f500009003a00848f520007003a00c7
:109160000e87e8008381e8000281e800018020008a
:10917000810f570041003200efff3700300024001c
:10918000403988002fb19700623988000000000044
:109190000000000000000000ffa99700533988007c
:1091a0000700fc005005200070398800a00a20004c
:1091b0007039880029e7a8000000000000000000c6
:1091c0002947e200feff35000802be006055b800e6
:1091d0002e0024000a0378004028de000100200051
:1091e00060398800543988008003eb006130b90091
:1091f0000c0040008d8048004009de000300200084
:10920000a20288001001ba001080ba00a30f20004b
:10921000a3028800820bbb00808bbb000683e800a2
:109220008783e80000102000808f5300efff3a0092
:109230004e3988000700fc00500520007039880076
:10924000a00a20007039880029e7a800000000006b
:10925000000000002947e200feff35000410b000c6
:109260000580b0000a10b0000b80b0000180200023
:10927000810f5500e08f5d00d6ff3a00008020008e
:109280000100200008044000898448000fb19700c5
:109290009fb19700820f5400838f5c0099ff3900c3
:1092a000efe997000380fb0001002000c000dd0013
:1092b000000020000fb9970002004000e080480045
:1092c000d0af9f00e1af9f006044b80010102000b5
:1092d0006105b8008a80fb00000020000200250024
:1092e00002064000e08648002700370008024600da
:1092f00089824e004028de000100200080037800b3
:10930000a00288000401be000b0378000e8020003c
:109310001200ba009280ba00e10f400008003a0043
:10932000e18f400006003a000683e8006201410038
:10933000e08149008e0f53000f003200f4ff370028
:109340003300240043398800673988005439880085
:109350000700fc005005200070398800a00a20009a
:109360007039880029e7a800000000000000000014
:109370002947e200feff35000080200001002000a8
:1093800008044000898448005fa99700efa997006e
:10939000820f5400838f5c00d4ff39000000fe0070
:1093a0004f0778004f06be004f05be004f04be00b9
:0893b000af01b100000006004e
:020000040000fa
:020000040040ba
:08000000010000000a000000ed
:020000040000fa
:0200000401f009
:04000800cfff000026
:020000040000fa
:0200000401f009
:04000c0078ff000079
:020000040000fa
:0200000401f009
:040010005eff00008f
:020000040000fa
:0200000401f009
:040014007fff00006a
:020000040000fa
:0200000401f009
:04001800e9ff0000fc
:020000040000fa
:0200000401f009
:04001c00dfff000002
:020000040000fa
:0200000401f009
:04002000cfff00000e
:020000040000fa
:0200000401f009
:0400240000000000d8
:020000040000fa
:10000800c8020000c8020000c8020000c8020000c0
:10001800c8020000c8020000c8020000c8020000b0
:10002800c8020000c8020000c8020000280800003a
:10003800c8020000c8020000c8020000c802000090
:100048003c060000c8020000c80200007406000058
:1000580022070000c8020000c8020000c802000011
:10006800c802000062110000c8020000c8020000b7
:10007800c8020000c8020000c8020000c802000050
:10008800c8020000c8020000c8020000c802000040
:1000980066100000c8020000c8020000c802000084
:1000a800c802000060050000c8020000c802000085
:1000b800c8020000c8020000c8020000c802000010
:1000c800c8020000c8020000c8020000c802000000
:1000d800c8020000c8020000c8020000c8020000f0
:1000e800c8020000c80200006e120000c80200002a
:1000f800c8020000c8020000c8020000c8020000d0
:10010800c8020000c8020000c8020000c8020000bf
:10011800c8020000c8020000c8020000c8020000af
:10012800c802000060060000c8020000c802000003
:10013800c8020000c8020000c8020000c80200008f
:10014800c8020000c8020000c8020000c80200007f
:10015800c8020000c8020000c8020000c80200006f
:10016800c8020000c8020000c8020000c80200005f
:10017800c8020000c8020000c8020000c80200004f
:10018800c8020000c8020000c8020000c80200003f
:10019800c8020000c8020000c8020000c80200002f
:1001a800c8020000c8020000c8020000c80200001f
:1001b800c8020000c8020000c8020000c80200000f
:1001c800c8020000c8020000c8020000c8020000ff
:1001d800c8020000c8020000c8020000c8020000ef
:1001e800c8020000c8020000c8020000c8020000df
:1001f800c8020000c8020000c8020000c8020000cf
:10020800c8020000c8020000c8020000c8020000be
:10021800c8020000c8020000c8020000c8020000ae
:10022800c8020000c8020000c8020000c80200009e
:10023800c8020000c8020000c8020000c80200008e
:10024800c8020000c8020000c8020000c80200007e
:0c025800c8020000c8020000c80200003c
:020000040000fa
:10062c0000000000000000000000000000000000be
:10063c00000000000000000030b0000030b80000e6
:0c064c0030b1000030b9000030b20000f6
:020000040000fa
:100658000200fa00f1bf9f002388a8006101b900d9
:10066800250020000f82e900010520000500780020
:100678007b08070001052000200020006108070012
:100688000000e000fbff3a002388a9000080fa0080
:10069800000006000200fa002388a8006101b900e2
:1006a800250020000f82e9000105200005007800e0
:1006b800ae0807002388a9007fb897000080fa00d9
:1006c800000006000400fa00e2bf9f00f3bf9f008d
:1006d8002388a8006101b900450020006482570002
:1006e80001052000200020005d080700010520000a
:1006f80020002000430807000000e000fbff3a004c
:100708002388a9000080fa00000006000400fa000f
:100718002388a8006101b9004500200064825700c1
:100728000105200020002000900807002388a90068
:100738006fb89700ffb897000080fa000000060025
:10074800800078000000eb00c1ff37000000eb00dc
:10075800d0ff37000001be0080002000d9ff37001d
:1007680080002000e9ff37000000400070004000d2
:10077800b7ff37000000400070004000c5ff370099
:1007880044c7bf0001ceb3000140600044e7b70092
:10079800a0032000303a880044c7bf00f043b200ed
:1007a80044e7b7003074200081c7b300a2c9b30082
:1007b80033c0b30001487800024878000348780045
:1007c8002074200061c4b30072c5b30013c0b30025
:1007d80001487800024878000348780070c0b300e8
:1007e8005a67b70058c7bf0081cfb3000140600007
:1007f8000004a00058e7b70058c7bf007f4060005a
:1008080001ccb3000140700058e7b7005927a90090
:100818005947a80059a7a80059e7a80059c7bf0019
:100828000068a300fdff32001e2eef002e2eef0001
:100838003e2eef004e2eef006e2eef00546ea800f5
:10084800506ea90044eea80040eea90004c1bf0004
:10085800f1ccb300014060000044a00004e1b700ff
:10086800d02e20001008880005e1a80041c8bf006c
:10087800f3c8b300034060000044a00041e8b7009b
:100888000068a9002068a80012c1bf0001406000ec
:100898000044a00012e1b700b0d42100700888001d
:1008a80013e1a80044c8bf0084cfb300044060002f
:1008b8000024a00044e8b7000108a9002108a80006
:1008c800b05d2000e008880021e1a8004ec8bf0004
:1008d800044060006040b3004ee8b7000388a900f8
:1008e8002388a9008ac6bf0005ccb3000540600074
:1008f8000004a0008ae6b700c4c6bf0001c8b30060
:10090800014060003045b300c4e6b7008bc6bf00a5
:10091800054060000014a0008be6b7002162a80023
:1009280021c2bf00c6cfb300064060000004a0008b
:1009380021e2b7002062a80021e2a8002342a80013
:10094800270020004711880045c8bf000340600009
:100958000045b30045e8b7000168a8002168a80071
:1009680060c8bf00034060000045b30060e8b700fe
:100978002828a80046c8bf00044060005040b300c3
:1009880046e8b7000c22ef00020a20002210880077
:10099800010429003110880048c8bf0003406000e6
:1009a8000046b30048e8b7000228a9002228a8009a
:1009b8001c22ef00a2108800b110880059c8bf009f
:1009c800044060006040b30059e8b7000648a90039
:1009d8002648a80060c2bf0031ceb30001406000c5
:1009e8008041b30060e2b7006342a8006322a90017
:1009f8006302a80062c2a90062a2a80062c2bf0086
:100a0800014060008041b30062e2b70062c2bf00eb
:100a1800064060000014a00062e2b7006402a8006b
:100a280050c8bf00034060000044a00050e8b70071
:100a38000428a9002428a80081c6bf00054060003a
:100a48000044a00081e6b700c0c1b3000169b70047
:100a5800f0c1b3000269b700700720002048880081
:100a6800b00320003048880000c9bf00044060007f
:100a78005040b30000e9b70080c6bf0005406000e1
:100a88001041b30080e6b700c0c1b3000b69b700de
:100a9800f0c1b3000c69b70050002000704888000e
:100aa800874888000ac9bf00044060005040b3006e
:100ab8000ae9b700000006003600f800809fbe0073
:100ac800829fbe00849fbe00869fbe00881f78005c
:100ad8000428a9004113800060c2bf000058a30089
:100ae800fdff3a004213800044eea80018908000f1
:100af8000800e0004b00350003002300038060007d
:100b080003003a00010021000001780004003700ca
:100b1800830f500002003a00f1ff20000081eb0033
:100b2800f0ff21000080600001002000c000dd000f
:100b38000000200002004000e08048004309dd007a
:100b4800cd00de00810071004300dd00480add00b1
:100b58004800de0000007200c888de00d2072000ce
:100b6800030020008afe0700ca89de00c60bdd00ec
:100b78004a01de0002817300f0ff2700800f510058
:100b8800e08f590002003400f2ff27000300200024
:100b980060001100e080190004002800840f500054
:100ba800e08f58000200340002002800f3ff2f00f5
:100bb80000ceb3004260b7004243dd00801a210036
:100bc800000043000288be004019210000034300d2
:100bd8001602be004c18dd00c410de008100700053
:100be8004c10dd00cc2bdd004421de0002817300b7
:100bf800c4a9de000200500083805800001b420098
:100c080001934a000185200091407800c408de0065
:100c1800c508dd0042c0bf007f4060000140700091
:100c280042e0b7000632ec000412ec002090880085
:100c3800e40f5000010034000432ef000800e8001f
:100c480010908800e40f5000010034000232ef00d9
:100c580061e2a9004f0478004f03be004f02be00b6
:100c68004f01be004f00be003600f90000400600ec
:100c7800801f78000108a900008a80000000e000b9
:100c8800050032000000e900008a880002003a00ee
:100c9800a090880042f1b700fe11e2000400320083
:100ca800fe31ed00fe11e20001003a000000fe00f6
:100cb8004f007800004006003200f800881f7800d6
:100cc8000820200098018800000000004f047800e8
:100cd8000828a9002222a9003200f90000400600d5
:100ce800809fbe00829fbe00849fbe003200f80035
:100cf8000020200090018800000000000168a90081
:100d0800018a8000e39080002414210014427800b6
:100d1800a2908000959080003b0037003011800041
:100d2800c11b21008100410080487800e0032000b9
:100d3800800f510001003c000201e800e20f510061
:100d480011003a00bcd1bf000080fb000068a3007e
:100d5800050032004500de000000a200614260008c
:100d680083002000080037000058a300020032006a
:100d78008201780004003700bdd1bf006300600025
:100d8800000040008081e8000404e0000f00320009
:100d9800830f51000d003a00bcd1ab0006003200b1
:100da800201c210010007800630040004280de0013
:100db8004200dd0003003700bdd1bf0063006000c2
:100dc80000004000800141000042eb00830f510009
:100dd8000c003500bcd1bf008080fb006f80600034
:100de800850f500005003a0010c0b3000168a30049
:100df80001003a0020c0b3001af2b7000042eb002d
:100e08000001eb00a100200022c2bf000008a300df
:100e1800c2ff3a00018a8800e39088000400780045
:100e280042f1b700a29088003200f9004f02be00dc
:100e38004f01be004f00be0000400600809fbe006c
:100e48003200f80000202000900188000000000017
:100e58000188a9000e003700408c8000b000fb001c
:100e680021118800408c8800fc11ed00e08f88007b
:100e780007003a002188a9000188a9000052e20071
:100e88000d00320020002000f08f88000a00370093
:100e980023c2bf000000d1001182200091407800d9
:100ea800c408de00610060000080ea008080600005
:100eb8000108a300e8ff3a003200f9004f00be0025
:100ec80000400600000178003314210021c8bf004b
:100ed8000048a300fdff3a00e18f880002003700b8
:100ee800b25978008100e9000100e000fcff3c00f5
:100ef80030142100408c88000188a8002188a800af
:100f08000000060080017800010278000200e0007d
:100f180004003200e20f510002003200e40f5100d9
:100f280010003a0000c8b300c0f0b7004218dd0056
:100f38008200d10001404000c1f0b700210c21001f
:100f48000000eb0002003700b45878000000e80009
:100f5800820f5000fcff39008280e800000c21005d
:100f6800d8ff0700000006001400fa00904078003f
:100f780002c2b30082c160001040900063006000ac
:100f8800000040007081600006003a000304e000a1
:100f98000100320000017800f480570010002000a2
:100fa800d8ff07000080fa000000060010c0b30058
:100fb80000f2b700000006000200fa00889fbe0099
:100fc8008a1f780001057800f844400050c0b3003b
:100fd80080ff9f002388a8001300200003017800e9
:100fe800e880570009407800c00507000004780031
:100ff8000000e00005003a0080017800220020008f
:10100800e880570009407800c60507002388a90032
:101018008ff897000180fb004800dd009ff89700db
:101028008180fb00010040004300dd004380de00ba
:10103800000d7800080078004f0578004f04be00c6
:101048000080fa00000006003600f800809fbe000d
:10105800829fbe00849fbe00869fbe000068a900d4
:10106800318c800080382100808f500002003a00c7
:10107800546ea8000f00370000712200808f5000c6
:101088000c003a00546ea9008631ef00208c8000d5
:1010980080004000a218210082804000c6ff07009f
:1010a8008411ec00208c8800e50f500001003a0004
:1010b8008431ef008631ec000612e20004003a00a9
:1010c8000432ef0002b2ef001000200030908800d8
:1010d80030908000e10f50000e003a0044eea90065
:1010e80061e2a80021908000818040002032280021
:1010f800008040001000780040138800603128000c
:1011080080804000110078004013880020002000f3
:101118003090880030908000e30f500006003a00bd
:1011280044eea900624ee2000200350010002000e3
:101138003090880044eea8004f03be004f02be0066
:101148004f01be004f00be003600f9000040060007
:101158000400fa00889fbe000003780000c2b300b4
:101168001642600096029000a6009000f0ff210051
:1011780080806000b60490006801430096419000aa
:1011880010c5b30080cf51004a00320007003e006e
:101198006e40500080cf5100490032006d40400041
:1011a80080cf5100d6003a001900370030c6b3008e
:1011b80080cf5100070032006340400080cf5100cb
:1011c800420032007340500080cf5100cc003a00fa
:1011d8003800370014102000050020008481fb002f
:1011e800020020000000250000004100e0804900c6
:1011f8000000400081804800c0bf9f00d1bf9f0011
:1012080009017800e880570005007800bf00370022
:101218006128b800c000dd0000002000120178003d
:1012280002024000e08248000981e900ea01430027
:10123800e10f4200e08f4a000c003a002804200029
:10124800184478000884fb004544de0000ceb30053
:101258004260b7000400be008a010700db020700f5
:1012680010c0b30000f2b7000900370028042000be
:10127800184478000884fb004544de0000ceb30023
:101288004260b7008500d1000480d300f001070058
:101298004544dd0042c0bf007f4060000840700048
:1012a80042e0b7000001eb008000eb000000eb001b
:1012b8009600370010c0b30000f2b700f9ff3700fe
:1012c800a0002000110020003000370036409000b8
:1012d80000047800080fb20000022000800f5400bc
:1012e8000600320000082000800f54007a00320007
:1012f8000800e0006800320081003700f58f5000d8
:1013080009003e00f18f500029003100e18f5000a4
:101318007b003900e58f50000e003600f08f50003a
:1013280077003a001500370018022000888f500017
:101338007300390050022000808f500022003600d0
:10134800f0fc2f0000804000e40f50006c003e00cd
:101358004100370001804000811821000100400051
:1013680010007800ea00b8004400de00c0bf9f000b
:1013780009017800e8805700ccff37000404e0003a
:1013880005003200b0908000c1908000c0bf9f006f
:10139800d1bf9f00f6ff37001200be00b090880052
:1013a800c19088001200be00eafc0700bdff3700ac
:1013b8004208dd004004b10041192100010040004d
:1013c80010009000e9ff3700088450004240dd001b
:1013d80041192100010040001000be004088de00d5
:1013e800cf80de000804440082202100020144006e
:1013f80012017800cf91de0002005000838058006f
:10140800027122000300200061fc0700b2908000f6
:10141800c3908000611ab9004f2ade000500200041
:1014280004024100858249008582d1000482d300ec
:101438000000420081804a005bfc0700a2182100de
:101448000204440018017800ea11b8004411de00d3
:1014580000004100c5ff3700882021000404e00097
:1014680005003200018040002006b100080040005d
:1014780010007800bdff3700f0fc2f00008040000e
:101488008000400088804000920878009200780030
:10149800b5fc070083ff3700e78f500018003a00bb
:1014a8000404e00006003200a8fc0700c0bf9f004b
:1014b80009017800e8805700080078001300370019
:1014c800120078009efc0700080178008800780068
:1014d800080078000d003700e78f500008003a0038
:1014e8000404e0000300320091908000c1bf9f0017
:1014f8009fff3700120178009290880069ff37003b
:1015080009017800e88057000080eb007dfe0700a5
:101518004f04be000080fa0000000600889fbe004d
:1015280097fc070000020700e00f5000e08f58000a
:101538000400320000ceb3004260b7000048020049
:101548000100000081fc0700e10f400001003200ab
:101558009090880082fc0700e10f4000e08f48006f
:1015680002003200b0908800c19088000004eb00af
:1015780089202100080078007efc0700e10f400068
:1015880001003200800c78000804e8008984e80033
:10159800e50f5400f7ff3a001ad2bf00e14f5000a0
:1015a80003003200e24f5000fbff3a00040037000e
:1015b8001a72ef00c01b2100e5fe0700f6ff370096
:1015c8001a72ef00c01b210067fe0700f2ff370008
:1015d8000002be0002034000e08348000e0037000e
:1015e8004028de0001002000a00288001400ba0094
:1015f8009480ba00804978004800de009041980045
:10160800a1419800c808de00b1419800e48141007a
:1016180062024200e0824a00860f5200878f5a0019
:10162800efff390000000600889fbe008a9fbe00b9
:101638008c9fbe008e1f78000002be0083037800d6
:101648006055b8006116b8000007eb002d003700a0
:10165800174090004800dd009780fb00810440009f
:101668004029de0003002000a20288001404ba000a
:101678008500d1000480d300eb4f50001c003e00d1
:101688000080fb0000004000e12121000100400033
:10169800100378008600640006806400808f500084
:1016a8001300320062398800543988000000240091
:1016b80040398800a00f2000a00288008680ea0038
:1016c80081807400010fbb000700fc00500520005a
:1016d80070398800a00a20007039880029e7a8001e
:1016e80000000000000000002947e200feff35006e
:1016f80064054500e0854d00e48343006202420032
:10170800e0824a008c0f55008d8f5d00d0ff3900b4
:101718004f0778004f06be004f05be004f04be00bd
:1017280000000600889fbe008a9fbe008c9fbe00f6
:101738008e1f78000003be00020778008306780039
:101748004008de0000017800a00288000602780048
:101758000004eb008802780086047800fa0f200065
:10176800034020001400ba009480ba00e10f400042
:1017780003003a00f10fb2008a8f500001003200d6
:10178800180020008502e8000482e800838f5200d8
:10179800f4ff3a000800e0000e0032003000240098
:1017a8004039880062398800593988000700fc00f0
:1017b8005005200070398800a00a20007039880080
:1017c80029e7a80000000000000000002947e20007
:1017d800feff35006011b800ac0f20000b08200098
:1017e8002a0024004038de0001002000603988000b
:1017f80056398800ac0288008e0441000d0441006f
:101808000002eb0084027800b90078003800780004
:10181800010abb00009abb008502e8008b8f5200ca
:10182800f9ff3a004a3988000700fc0050052000fb
:1018380070398800a00a20007039880029e7a800bc
:1018480000000000000000002947e200feff35000c
:101858000610b0000780b0000210b0000380b0008e
:1018680000802000800f5100e08f5900ddff3a0012
:101878004f0778004f06be004f05be004f04be005c
:1018880000000600e4874700889fbe008a9fbe00cc
:101898008c9fbe008e1f78000005be0082bf9f008f
:1018a8000307780000802f000a0060008b01780091
:1018b800000178000204be00b0918000c191800050
:1018c800880f5000898f580021003200e00f500027
:1018d800e08f5800040035004c32ec00e32421006e
:1018e800e2a421008fff0700e00f5400e08f5c00a6
:1018f800150035004a32ec0040c8de00cf80de001b
:10190800a00288000802be000003eb00eda421003d
:10191800ec242100074020001401ba009481ba0089
:10192800060043008d004000820878000c0040004b
:10193800030878000603e80062024200e0824a00d9
:10194800870f5300f4ff3a00b8918800c9918800c6
:101958004550dd004600de008e0278000003eb00f3
:10196800e8a42100e7242100110037008001780055
:10197800f33fb20003814100080241001540900086
:101988004800dd009580fb00010a40000701410086
:10199800b5409000c808dd00254090000080fb009d
:1019a80000894000640343000300e800e482420029
:1019b8008fb89700810f5300ecff39004f0778006c
:1019c8004f06be004f05be004f04be004f00b100d9
:1019d80000000600889fbe008a9fbe008c9fbe0044
:1019e8000005be000206be008004eb0012003700ae
:1019f800f17f200081006500008020000100500078
:101a0800000040000004780009005600880f5000cc
:101a1800010031000004780089814600080178003f
:101a28000a00be0097ff07000800d1000005450026
:101a3800e0854d00888444008c8f5400ecff390009
:101a48004f06be004f05be004f04be000000060052
:101a5800889fbe008a9fbe008c9fbe000004be0007
:101a68000206be00101020000080fb0001002000cc
:101a7800c000dd0000002000020025000205400033
:101a8800e085480004002000850f200009806200de
:101a980001002000c000dd0000002000840f50007d
:101aa800858f580003003a000c0178000800be003a
:101ab800ddfe07008a0f54008b8f5c0002003100a6
:101ac8000804450089844d000a0045008b804d00bc
:101ad800800f5400818f5c00030031000c01be00b0
:101ae8000800be00bbff07004f06be004f05be0042
:101af8004f04be0000000600889fbe008a9fbe00fb
:101b0800101020000080fb0001002000c000dd0054
:101b1800000020000200250002014000e08148008a
:101b2800020041008380490062055000e0855800aa
:101b38000203be006044b800100037004038de00e1
:101b480001002000a00288001601ba001682ba001f
:101b58000280fb0000004400e0804c004811de00d9
:101b680002014000e08148000482fb0004044100b7
:101b7800e084490062034300e0834b008a0f53006e
:101b88008b8f5b00edff39000980fb008001780036
:101b9800080178000200be004f05be004f04be00d9
:101ba80000000600f40f200012102000040161005c
:101bb80003002000c011dd00020020000000250005
:101bc80000004100e080490000004000818048009a
:101bd80062005000e08058004009de000300200049
:101be800a20288001001ba001080ba00010020008b
:101bf800c000dd000000200002014000e081480034
:101c08000302620084027800020278000400be0029
:101c180000000600889fbe008a9fbe008c9fbe0001
:101c28008e1f7800101020000081fb0003002000a8
:101c3800c011dd000200200004002500050020007e
:101c48000206420083864a006044b800f00fb200e2
:101c580001002000c000dd00000020000005420057
:101c680081854a00280037000803450089834d0014
:101c780040b8de00cf80de0080017800a002880036
:101c88000602be0002402000fe0f20001400ba0029
:101c98009480ba00e10f400009003a00f10fb20049
:101ca8008e8f500006003a000201e90062024200ed
:101cb800e0824a000200e0000f003200f3ff370024
:101cc800300024004039880063398800563988007c
:101cd8000700fc005005200070398800a00a200089
:101ce8007039880029e7a800000000000000000003
:101cf8002947e200feff3500008020000100200097
:101d080008044000898448008c0f54008d8f5c00c3
:101d1800d5ff39004f0778004f06be004f05be00bb
:101d28004f04be0000000600889fbe00f40f20008c
:101d3800101020000400600001002000c000dd0039
:101d4800000020000200250002014000e081480058
:101d58004018de0001002000a00288001200ba002e
:101d68009280ba0000017800e10f400005003a00b7
:101d7800f10fb2006011b800848f500010003200db
:101d88000d00370000202000800f51000a003a00a3
:101d9800e4cf500008003a0057ff07000004be00d7
:101da80080ff07001200200003002000800f54006d
:101db800818f5c000200320096ff07006011b800b6
:101dc8000200be004f04be0000000600fa8747006c
:101dd800889fbe008a9fbe008c9fbe008e1f780021
:101de80045ff07000004be006eff0700800f540087
:101df800818f5c000200320086ff0700a0003700d8
:101e080018102000f20f20000202640005002000d4
:101e1800c022dd00040020000c0025000d00200079
:101e28000402460085824e001a1020000b00200094
:101e38000a0078000201650003002000c011dd00df
:101e48000200200006802400070020000201430051
:101e580083814b000202520083825a00d4af9f0054
:101e6800e5af9f006011b800f2af9f0083b79f00f5
:101e78009ab79f00abb79f00f00fb2000100200097
:101e8800c000dd00000020000000430081804b00fe
:101e9800b0b79f00c1b79f00f80fb200090020003b
:101ea800c044dd00080020000804460089844e0074
:101eb800d8b79f00e9b79f006a0037007faa97004c
:101ec8008fb297003fb19700cfb19700040041004f
:101ed800858049005fb29700efb297000005420085
:101ee80081854a000003be008a017800000178005d
:101ef800afb297004058de0001002000f0b79f0005
:101f080081bf9f00403cde000900200008077800e0
:101f180086067800ffb09700a10288009300ba00f7
:101f28001382ba00a80288001200ba001286ba000a
:101f3800808f500009003a008c0f520007003a00c9
:101f48008582e8008381e8000281e800048020009f
:101f5800848f52003b003200eeff3700300024002f
:101f6800403988006e3988005d3988000700fc0018
:101f78005005200070398800a00a200070398800b8
:101f880029e7a80000000000000000002947e2003f
:101f9800feff35006044b800ae0f20000d10200091
:101fa80025002400080678004038de0001002000e3
:101fb80060398800563988000002eb006160b9007a
:101fc8000a0040008b8048004009de000300200022
:101fd800a20288001001ba001080ba00ae02880080
:101fe800020abb00008abb000c86e8000482e800f5
:101ff8008d0f5200f1ff3a00453988000700fc00b8
:102008005005200070398800a00a20007039880027
:1020180029e7a80000000000000000002947e200ae
:10202800feff35000610b0000780b0000810b000b1
:102038000980b00003802000830f5400e08f5c000b
:10204800d8ff3a0000802000010020007faa9700f6
:102058008fb297000402400085824800f4af9f00c9
:1020680085b79f007fa897008fb097005fa997005a
:10207800efa99700820f5000838f58008fff35001b
:102088004f0778004f06be004f05be004f04be0044
:10209800af01b100000006000000eb00e2062100dd
:1020a800e10121008018eb008018eb000019eb001b
:1020b8000019eb000000e800f40f5000f9ff3a00a7
:1020c800000006003600f800809fbe00829fbe0018
:1020d800849fbe00869fbe003200f80000202000ca
:1020e80090018800000000000010e20003003a00a0
:1020f8001000200000808800e7ff070048d2bf00da
:10210800e14f50000b003a0008c2bf000038a3009e
:1021180006003a000830ed00408080000000e00032
:1021280004003a0048f2b70002003700a00020007f
:102138004080880040d2bf00e14f50000b003a00b9
:1021480018c2bf000038a30006003a000230ed00b4
:10215800108080000000e00004003a0040f2b70060
:1021680002003700a00020001080880048d2bf007d
:10217800e34f50000300320048d2bf00e74f500041
:1021880020003a004632ec003192800040062000e0
:10219800808f5000080034004632ef0050838000e2
:1021a8006183800061004000e0804800508388001f
:1021b800618388000642a80008c2bf000038a30057
:1021c800020032004212e2000e0032004632ef00f6
:1021d80048d2bf00e34f500002003a0040c0b300ad
:1021e8000100370080c0b30048f2b7004212e20095
:1021f800030032004232ef000622a8000100370037
:102208000602a80040d2bf00e34f5000030032008e
:1022180040d2bf00e74f500020003a003e32ec00a9
:10222800f191800040062000808f500008003400a3
:102238003e32ef00d0858000e185800061004000db
:10224800e0804800d0858800e18588001642a80013
:1022580018c2bf000038a300020032003a12e200a0
:102268000e0032003e32ef0040d2bf00e34f500074
:1022780002003a0040c0b3000100370080c0b3003c
:1022880040f2b7003a12e200030032003a32ef009f
:102298001622a800010037001602a8000388a9002a
:1022a8003200f9004f03be004f02be004f01be00ce
:1022b8004f00be003600f90000400600809fbe00b7
:1022c800829fbe003200f8000020200090018800a4
:1022d800000000000200fa000228a90009c2bf009d
:1022e8000028a3001b0032000942a90048d2bf0001
:1022f8000080fb004200dd00e101210001004000f8
:1023080012002000030020001008410050904900ee
:1023180053808000c380880060808000d08088005f
:1023280048d2bf00e44f50000a003900e64f500081
:102338000400360068405000e44f500005003e009d
:102348000200370030c0b3000100370070c0b3008e
:1023580048f2b70048d2bf00e84f500028003200ca
:102368000b003e00e44f50001100320003003e0015
:10237800e24f500052003a004f003700e54f50003e
:1023880015003200e64f50004d003a003f0037007c
:10239800ea4f50002800320020003900eb4f50006f
:1023a80028003200ec4f500045003a003a00370050
:1023b8001cd0bf000080fb00000040001010880007
:1023c80050c0b3001a10e20001003a0060c0b30028
:1023d80048f2b7003a0037000942e2001100350020
:1023e800c0808000b080fb0011108800c080880089
:1023f8001a30ed001a10e20031003a00f3ff3700fe
:102408001cd0bf000080fb00000040000000a000be
:102418001010880090c0b300edff37000942e200b9
:1024280003003d000642a80016b0ef001d0037006b
:1024380000108000f0bf9f000662a800b0c0b30083
:10244800e3ff370008c2bf000018a30004003200f1
:10245800c08080000110800001587800c08088008a
:102468001a30ed001a10e20003003a0006a2a80094
:10247800c0c0b3000200370006a2a900a0c0b30084
:1024880048f2b7000682a8000d0037000942e200b2
:1024980001003d0016b0ef004412e20003003a00cc
:1024a8000642a80020c0b300c9ff37001000200072
:1024b80010928800010037004232ef004872ef00a6
:1024c8000080fa003200f9004f01be004f00be0044
:1024d80000400600809fbe00829fbe003200f800c8
:1024e8000020200090018800000000000200fa008f
:1024f8000648a90019c2bf000028a3001b0032002b
:102508001942a90040d2bf000080fb004200dd0054
:10251800e106210001004000120020000300200015
:102528001008410050904900238080008380880073
:10253800308080009080880040d2bf00e44f500077
:102548000a003900e64f5000040036006840500089
:10255800e44f500005003e000200370030c0b300d1
:102568000100370070c0b30040f2b70040d2bf008e
:10257800e84f5000280032000b003e00e44f5000a6
:102588001100320003003e00e24f500052003a00b2
:102598004f003700e54f500015003200e64f50005d
:1025a8004d003a003f003700ea4f50002800320043
:1025b80020003900eb4f500028003200ec4f50004b
:1025c80045003a003a00370014d0bf000080fb00f5
:1025d800000040009010880050c0b3001210e200c4
:1025e80001003a0060c0b30040f2b7003a0037007b
:1025f8001942e2001100350080808000b080fb00a5
:1026080091108800808088001230ed001210e200de
:1026180031003a00f3ff370014d0bf000080fb0000
:10262800000040000000a0009010880090c0b30097
:10263800edff37001942e20003003d001642a800f2
:102648000eb0ef001d00370080108000f0bf9f0023
:102658001662a800b0c0b300e3ff370018c2bf007d
:102668000018a300040032008080800081108000e0
:1026780001587800808088001230ed001210e200c6
:1026880003003a0016a2a800c0c0b3000200370039
:1026980016a2a900a0c0b30040f2b7001682a80095
:1026a8000d0037001942e20001003d000eb0ef00b6
:1026b8003c12e20003003a001642a80020c0b30012
:1026c800c9ff370010002000d091880001003700b2
:1026d8003a32ef004072ef000080fa003200f90051
:1026e8004f01be004f00be00004006001630ef004c
:1026f8001cf0b700d2808800d080800060808800fd
:10270800c1808800518088002392880030c0b300bf
:1027180048f2b7004852e200feff3a00b08080005d
:10272800000006001630ef001cf0b700d2808800c9
:10273800d080800060808800c18088005180880037
:102748002392880070c0b30048f2b7004852e200f4
:10275800feff3a00b080800000000600a0002000c4
:102768004080880010c0b30048f2b7004852e20029
:10277800feff3a00000006000e30ef0014f0b7002c
:102788009280880090808000308088008180880056
:1027980021808800e391880030c0b30040f2b70080
:1027a8004052e200feff3a00708080000000060000
:1027b8000e30ef0014f0b7009280880090808000ff
:1027c800308088008180880021808800e39188001b
:1027d80070c0b30040f2b7004052e200feff3a007a
:1027e8007080800000000600a00020001080880093
:1027f80010c0b30040f2b7004052e200feff3a00ba
:102808000000060000017800e10f500004003200cb
:102818000000eb00e20f510010003a0008003700fa
:10282800014078000074a1008001eb0003017800ea
:1028380083007800adff0700b0808000000006002c
:10284800014078000074a1008001eb0003017800ca
:1028580083007800c8ff0700708080000000060031
:102868002400fa00889fbe008a1f78008004780040
:102878000104780000022000808f52000100360019
:10288800800278004818de0001002000e0d79f0091
:10289800401bde0007002000f6d79f00481ddd0022
:1028a8004810de0000007500c818de0080df9f00b9
:1028b80092df9f000000eb00a2fd2f0082804700fe
:1028c80002003700b45878000000e800850f500077
:1028d800fcff3900410020000878a30004003a00fa
:1028e800610063004200dd00000474002100200044
:1028f800e18f5400040032000000eb00e28f540026
:1029080016003a000b003700018142006afd2f00d3
:102918000f05450081005500e4804000084078001c
:102928000074a1008001eb0070ff0700b0808000f8
:102938000a0037000181420060fd2f000f004000af
:1029480081005000e4804000084078000074a10035
:102958008001eb0088ff0700708080004f05780039
:102968004f04be000080fa0000000600e68747001a
:10297800889fbe008a9fbe008c9fbe008e1f780075
:1029880000067800810478000205be00040778007c
:10299800850678000b0037000a04ea0088027800f0
:1029a8000e0278000a01be00890078000c00780049
:1029b800eeff070008054500e0854d0008074700c1
:1029c800888656006168b8000a004000e080480028
:1029d8000200200013002000820f5000838f58004f
:1029e800edff3e004858de0001002000e0ef9f00a8
:1029f800405ade0005002000f4ef9f004859dd0032
:102a08004850de0000007100c858de0080f79f00c3
:102a18009af79f00420020000978a30004003a00ba
:102a2800610062004200dd00808474002200200002
:102a3800e10f5600040032000000eb00e20f5600e0
:102a480022003a00110037007280570082005000bf
:102a5800e4804000094078000074a1008c017800ef
:102a680022ff0700b08080000000e00005003a0067
:102a7800800178000d0178008e0078000940780008
:102a880028ff0700b08080001000370072805700d0
:102a980082005000e4804000094078000074a100e2
:102aa8001300200034ff0700708080000000e00061
:102ab80005003a00800178000d0178008e0078004a
:102ac800094078003aff0700708080004f077800bf
:102ad8004f06be004f05be004f04be006f00b10098
:042ae80000000600e4
:020000040000fa
:102aec00fc11000022000000820000000000000029
:102afc0000000000ffff00000000000000000000cc
:102b0c000000000000000000000e00000000f800b3
:102b1c00a7000000000002000000000040110000af
:102b2c007c00000080000000bc1100004000000090
:102b3c0080000000c0100000800000008000000039
:102b4c004e12000000100000800000001e12000059
:102b5c001c00000082000000000000000033000098
:102b6c008700e70000ff00003f00f7000033000083
:102b7c00ff00000000000000ffffff00ff0000004e
:102b8c004a12000004000000800000003a1200000d
:102b9c001000000082000000000000000000000097
:102bac000000000000000000000000000000000019
:102bbc0000100000be0000008000000000000000bb
:00000001FF
