:020000040000fa
:080000000002040000000000f2
:020000040000fa
:100400006f6622000eff27000e018800000000002a
:100410000c00070020792100010020000f000700d8
:10042000000020000000e000020032000000020096
:1004300000000000e00b0200000000000040da00b5
:100440000000fe00800020000000e00002003200fa
:10045000002020009001880000000600a102880012
:10046000800078000000eb001a003700e2804000b6
:1004700054a0b4009101ba00e280400054a0b4003e
:100480009102ba00e280400054a0b4000002eb00e8
:10049000472bde00f507b200a6018800602ce100c2
:1004a00008003a000049eb000201e80002003900b0
:1004b0003420ec0002f0a0008301e900f9ff3e00c7
:1004c000040037006128e100010032000082eb00e7
:1004d000040007001101ba000200e000e3ff3a0047
:1004e0000000060004d0a300e20f49001c00390000
:1004f000810278003549ba000201e80002003900a3
:100500003420ec0002f0a0008301e9000f0032006b
:100510002549ba000201e800020039003420ec004d
:1005200002f0a0008301e900080032000400e000ae
:100530000600320015c9ba000201e80002003900c5
:100540003420ec0002f0a0008301e9008180e80083
:1005500054a0b4000300e000e2ff3a0000000600ef
:100560009102ba00055978008301e900f7ff3200d3
:10057000c82ade00055978008301e900f3ff320044
:100580000400e000f1ff320011d9ba00eeff37009d
:100590000040da000000fe00839f68000100e000d8
:1005a00002003d0060001000e08018000300e00041
:1005b00002003d0060011100e08119000500070004
:1005c0004f00e00002003b0060001000e0801800d7
:1005d000000006006022b800060220000000d000e3
:1005e0008180d2000482d2008582d2000000a00067
:1005f0000202520083825a000300310002024200cc
:1006000083824a000000a1000603e900f3ff3a00dc
:1006100000000600020ab900001bb9000200b80081
:0c06200081004200810043000000060041
:020000040000fa
:020000040002f8
:040ffc000000fe00f3
:020000040000fa
:020000040002f8
:10100000fa874700889fbe008a9fbe008c9fbe0063
:101010008e1f7800121020000281fb0003002000c8
:10102000c011dd000200200000002100000041008e
:10103000e08049004009de0003002000a202880091
:101040009001ba001081ba0000202000808f51006a
:1010500002003a00e44f5100010032000000fe009f
:10106000f30f20001010200003006000010020009a
:10107000c000dd000000200002002100020240004c
:10108000e0824800101020000300600001002000f2
:10109000c000dd00000020000280200002004000af
:1010a000e0804800800f5200818f5a000300310019
:1010b00084b79f0095b79f000200370080b79f005c
:1010c00091b79f006044b80010102000f0b79f0057
:1010d0000100210081bf9f006101b800b2b79f00ed
:1010e000c3b79f008280fb00000020000fb997006b
:1010f00002004000e0804800d0b79f00e1b79f00a9
:10110000730037005fb09700efb09700080640000b
:10111000898648008c017800f8af9f0008017800ac
:101120004fb79700406dde000b002000404bde0003
:1011300007002000a6b79f00aa0288009300ba000b
:101140009382ba00a60288001200ba001282ba0086
:10115000808f500009003a00848f520007003a0047
:101160000e87e8008381e8000281e800018020000a
:10117000810f570052003200efff3700300024008b
:10118000403988002fb1970062398800ffa9970085
:101190005339880042c0bf000080fb00c500de005c
:1011a00000ceb3004260b7000700fc0050052000ed
:1011b00070398800a00a20007039880029e7a8004b
:1011c00000000000000000002947e200feff35009b
:1011d000c508dd0042c0bf007f40600001407000d4
:1011e00042e0b7000802be006055b8002e0024009f
:1011f0000a0378004028de000100200060398800e2
:10120000543988008003eb006130b9000c004000c5
:101210008d8048004009de0003002000a202880003
:101220001001ba001080ba00a30f2000a3028800aa
:10123000820bbb00808bbb000683e8008783e8003d
:1012400000102000808f5300efff3a004e398800d5
:1012500042c0bf000080fb00c500de0000ceb3002e
:101260004260b7000700fc0050052000703988007c
:10127000a00a20007039880029e7a80000000000bb
:10128000000000002947e200feff3500c508dd0030
:1012900042c0bf007f4060000140700042e0b700e4
:1012a0000410b0000580b0000a10b0000b80b00040
:1012b00001802000810f5500e08f5d00ccff3a00d7
:1012c00000802000010020000804400089844800bc
:1012d0000fb197009fb19700820f5400838f5c007d
:1012e00088ff3900efe997000380fb000100200030
:1012f000c000dd00000020000fb997000200400090
:10130000e0804800d0af9f00e1af9f006044b8008c
:10131000101020006105b8008a80fb00000020004a
:101320000200210002064000e0864800310037003c
:101330000802460089824e004028de00010020009d
:1013400080037800a00288000401be000b0378002f
:101350000e8020001200ba009280ba00e10f400017
:1013600008003a00e18f400006003a000683e800da
:1013700062014100e08149008e0f530019003200e4
:10138000f4ff3700300024004039880067398800b6
:101390005439880042c0bf000080fb00c500de0059
:1013a00000ceb3004260b7000700fc0050052000eb
:1013b00070398800a00a20007039880029e7a80049
:1013c00000000000000000002947e200feff350099
:1013d000c508dd0042c0bf007f40600001407000d2
:1013e00042e0b70000802000010020000804400017
:1013f000898448005fa89700efa89700800f5400e9
:10140000818f5c00caff39000000fe004f077800a2
:101410004f06be004f05be004f04be00af01b10035
:0414200000000600c2
:020000040000fa
:020000040040ba
:080000000000000009000000ef
:020000040000fa
:0200000401f009
:04000800cfff000026
:020000040000fa
:0200000401f009
:04000c0078ff000079
:020000040000fa
:0200000401f009
:040010005aff000093
:020000040000fa
:0200000401f009
:040014007fff00006a
:020000040000fa
:0200000401f009
:04001800e9ff0000fc
:020000040000fa
:0200000401f009
:04001c00dfff000002
:020000040000fa
:0200000401f009
:04002000cfff00000e
:020000040000fa
:0200000401f009
:0400240000000000d8
:020000040000fa
:10000800c8020000c8020000c8020000c8020000c0
:10001800c8020000c8020000c8020000c8020000b0
:10002800c8020000c8020000c8020000da0a000086
:10003800380b0000c8020000c8020000140b0000c2
:10004800c8020000c8020000c802000066140000d0
:1000580046150000c8020000c8020000c8020000df
:10006800c80200008e0f0000c8020000c80200008d
:10007800c8020000c8020000c8020000c802000050
:10008800c8020000c8020000c80200004a0e0000b2
:10009800920e0000c8020000c8020000c80200005a
:1000a800c8020000c8020000c8020000c802000020
:1000b800c8020000c8020000c8020000c802000010
:1000c800c8020000c8020000c8020000c802000000
:1000d800c8020000c8020000c8020000c8020000f0
:1000e800c8020000c80200009a100000c802000000
:1000f800c8020000c8020000c8020000c8020000d0
:10010800c8020000c8020000c8020000c8020000bf
:10011800c8020000c8020000c8020000c8020000af
:10012800c802000052140000c8020000c802000003
:10013800c8020000c8020000c8020000c80200008f
:10014800c8020000c8020000c8020000c80200007f
:10015800c8020000c8020000c8020000c80200006f
:10016800c8020000c8020000c8020000c80200005f
:10017800c8020000c8020000c8020000c80200004f
:10018800c8020000c8020000c8020000c80200003f
:10019800c8020000c8020000c8020000c80200002f
:1001a800c8020000c8020000c8020000c80200001f
:1001b800c8020000c8020000c8020000c80200000f
:1001c800c8020000c8020000c8020000c8020000ff
:1001d800c8020000c8020000c8020000c8020000ef
:1001e800c8020000c8020000c8020000c8020000df
:1001f800c8020000c8020000c8020000c8020000cf
:10020800c8020000c8020000c8020000c8020000be
:10021800c8020000c8020000c8020000c8020000ae
:10022800c8020000c8020000c8020000c80200009e
:10023800c8020000c8020000c8020000c80200008e
:10024800c8020000c8020000c8020000c80200007e
:10025800c8020000c8020000c8020000c80200006e
:020000040000fa
:10062c00ffff0000ffff0000ffff0000ffff0000c6
:020000040000fa
:10063c000002be0002034000e08348000e003700b9
:10064c004028de0001002000a00288001400ba003f
:10065c009480ba00804978004800de0090419800f0
:10066c00a1419800c808de00b1419800e481410026
:10067c0062024200e0824a00860f5200878f5a00c5
:10068c00efff390000000600889fbe008a9fbe0065
:10069c008c9fbe000002be000206780003047800a6
:1006ac006055b8008006eb0037003700184090000a
:1006bc004800dd009880fb00810440004029de00ea
:1006cc0003002000a20288009403ba008500d10028
:1006dc000480d300eb4f500026003e000080fb004e
:1006ec0000004000816021000100400010037800f0
:1006fc008680630006806400808f50001d003200ed
:10070c006239880054398800000024004039880080
:10071c00a00f2000a002880042c0bf000080fb0098
:10072c00c503de0000ceb3004260b7008680ea004d
:10073c0081807400810ebb000700fc005005200076
:10074c0070398800a00a20007039880029e7a800b9
:10075c0000000000000000002947e200feff350009
:10076c00c538dd0042c0bf007f4060000140700012
:10077c0042e0b70064054500e0854d006404440088
:10078c0062024200e0824a006160b800800f5500ae
:10079c00818f5d00c5ff39004f06be004f05be00be
:1007ac004f04be0000000600889fbe008a9fbe005a
:1007bc008c1f78000003be000206780083057800c9
:1007cc004008de0000017800a002880006027800d4
:1007dc000004eb008802780086047800fa0f2000f1
:1007ec00034020001400ba009480ba00e10f4000ce
:1007fc0003003a00f10fb2008a8f50000100320062
:10080c00180020008502e8000482e800838f520063
:10081c00f4ff3a000800e000180032003000240019
:10082c0040398800623988005939880042c0bf00bd
:10083c000080fb00c500de0000ceb3004260b700b4
:10084c000700fc005005200070398800a00a200029
:10085c007039880029e7a8000000000000000000a3
:10086c002947e200feff3500c508dd0042c0bf008d
:10087c007f4060000140700042e0b7006044b80067
:10088c000a0820004038de00010020006039880092
:10089c0056398800a00f2000a00288008c0144006b
:1008ac000b0144000002eb0084027800b3007800d6
:1008bc0032007800010abb00009abb008502e800f8
:1008cc008a8f5200f9ff3a0020002400403988003a
:1008dc0042c0bf000080fb00c500de0000ceb300ac
:1008ec004260b7000700fc005005200070398800fa
:1008fc00a00a20007039880029e7a8000000000039
:10090c00000000002947e200feff3500c508dd00ad
:10091c0042c0bf007f4060000140700042e0b70061
:10092c000610b0000780b0000810b0000980b000bd
:10093c0000802000800f5400e08f5c00d1ff3a0053
:10094c004f0678004f05be004f04be0000000600a5
:10095c00e4874700889fbe008a9fbe008c9fbe0024
:10096c008e1f78000005be0082bf9f000307780031
:10097c0000802f000a0060008b01780000017800d5
:10098c000204be0000b1800011b18000880f50003d
:10099c00898f580021003200e00f5000e08f580082
:1009ac00040035006436ec006366210062e6210029
:1009bc007dff0700e00f5400e08f5c001500350050
:1009cc006236ec0040c8de00cf80de00a00288005a
:1009dc000802be000003eb006de621006c662100ee
:1009ec00074020001401ba009481ba0006004300ad
:1009fc008d004000820878000c004000030878004d
:100a0c000603e80062024200e0824a00870f5300ae
:100a1c00f4ff3a0008b1880019b188004550dd0098
:100a2c004600de008e0278000003eb0068e6210031
:100a3c00676621001100370080017800f33fb20097
:100a4c000381410008024100154090004800dd0080
:100a5c009580fb00010a400007014100b540900061
:100a6c00c808dd00254090000080fb000089400094
:100a7c00640343000300e800e48242008fb897004f
:100a8c00810f5300ecff39004f0778004f06be0072
:100a9c004f05be004f04be004f00b1000000060021
:100aac00889fbe008a9fbe008c9fbe000005be00c2
:100abc000206be008004eb0012003700f17f20001c
:100acc008100650000802000010050000000400003
:100adc000004780009005600880f50000100310016
:100aec000004780089814600080178000a00be00e5
:100afc0097ff07000800d10000054500e0854d0078
:100b0c00888444008c8f5400ecff39004f06be00e3
:100b1c004f05be004f04be0000000600889fbe00bb
:100b2c008a9fbe008c9fbe000004be000206be0061
:100b3c00101020000080fb0001002000c000dd0030
:100b4c00000020000200210002054000e085480062
:100b5c0004002000850f20000980620001002000a5
:100b6c00c000dd0000002000840f5000858f58006d
:100b7c0003003a000c0178000800be00c2fe07001a
:100b8c008a0f54008b8f5c00020031000804450072
:100b9c0089844d000a0045008b804d00800f540065
:100bac00818f5c00030031000c01be000800be0008
:100bbc00bbff07004f06be004f05be004f04be0032
:100bcc0000000600889fbe008a9fbe001010200007
:100bdc000080fb0001002000c000dd0000002000b0
:100bec000200210002014000e081480002004100a7
:100bfc008380490062055000e08558000203be0066
:100c0c006044b800100037004038de0001002000be
:100c1c00a00288001601ba001682ba000280fb00fe
:100c2c0000004400e0804c004811de00020140004e
:100c3c00e08148000482fb0004044100e084490088
:100c4c0062034300e0834b008a0f53008b8f5b00e1
:100c5c00edff39000980fb00800178000801780065
:100c6c000200be004f05be004f04be00000006008f
:100c7c00f40f20001210200004016100030020007a
:100c8c00c011dd0002002000000021000000410026
:100c9c00e080490000004000818048006200500064
:100cac00e08058004009de0003002000a20288000a
:100cbc001001ba001080ba0001002000c000dd0055
:100ccc000000200002014000e081480003026200a5
:100cdc0084027800020278000400be0000000600c6
:100cec00889fbe008a9fbe008c9fbe008e1f78001e
:100cfc00101020000081fb0003002000c011dd005b
:100d0c000200200004002100050020000206420021
:100d1c0083864a006044b800f00fb2000100200046
:100d2c00c000dd00000020000005420081854a0063
:100d3c00320037000803450089834d0040b8de00bf
:100d4c00cf80de0080017800a00288000602be0081
:100d5c0002402000fe0f20001400ba009480ba005c
:100d6c00e10f400009003a00f10fb2008e8f5000e5
:100d7c0006003a000201e90062024200e0824a00e9
:100d8c000200e00019003200f3ff370030002400ad
:100d9c0040398800633988005639880042c0bf004a
:100dac000080fb00c500de0000ceb3004260b7003f
:100dbc000700fc005005200070398800a00a2000b4
:100dcc007039880029e7a80000000000000000002e
:100ddc002947e200feff3500c508dd0042c0bf0018
:100dec007f4060000140700042e0b70000802000ae
:100dfc000100200008044000898448008c0f540036
:100e0c008d8f5c00cbff39004f0778004f06be007a
:100e1c004f05be004f04be0000000600889fbe00b8
:100e2c00f40f2000101020000400600001002000ce
:100e3c00c000dd0000002000020021000201400083
:100e4c00e08148004018de0001002000a00288006c
:100e5c001200ba009280ba0000017800e10f400045
:100e6c0005003a00f10fb2006011b800848f5000f9
:100e7c00100032000d00370000202000800f5100c0
:100e8c000a003a00e4cf500008003a004dff07007a
:100e9c000004be0076ff07001200200003002000b3
:100eac00800f5400818f5c00020032008cff070021
:100ebc006011b8000200be004f04be000000060026
:100ecc00fa874700889fbe008a9fbe008c9fbe0099
:100edc008e1f78003bff07000004be0064ff070074
:100eec00800f5400818f5c00020032007cff0700f1
:100efc00b700370016102000f00f2000000263002e
:100f0c0005002000c022dd00040020000c002100a0
:100f1c000d0020000402460085824e001a102000ad
:100f2c000b0020000a017800000065000100200081
:100f3c00c000dd0000002000088020000900200017
:100f4c000000440081804c000002520081825a0053
:100f5c00d4af9f00e5af9f006000b80090b79f0032
:100f6c00a1b79f00bab79f00cbb79f00f20fb2009a
:100f7c0003002000f60fb200c011dd0002002000bb
:100f8c000201440083814c00d2b79f00e3b79f005d
:100f9c0007002000c033dd000600200006034600d9
:100fac0087834e00f6b79f0087bf9f0081003700f4
:100fbc001fb19700afb197005fb29700efb29700e7
:100fcc000200420083804a007fb197008fb99700de
:100fdc000001410081814900f2af9f0083b79f005f
:100fec000002be008201780000017800cfb49700a7
:100ffc007fa897008fb09700400dde000b002000fb
:10100c00402bde00070020000607780084067800dd
:10101c00aa0288009300ba001386ba00a6028800c0
:10102c001200ba001284ba00808f500009003a00f6
:10103c00880f560007003a008984e8008381e80095
:10104c000281e80001802000818f540051003200a1
:10105c00efff370030002400403988006e398800db
:10106c005d39880042c0bf000080fb00c500de0077
:10107c0000ceb3004260b7000700fc005005200012
:10108c0070398800a00a20007039880029e7a80070
:10109c0000000000000000002947e200feff3500c0
:1010ac00c508dd0042c0bf007f40600001407000f9
:1010bc0042e0b7006033b800ab0f20000a102000ec
:1010cc0029002400060478004028de0001002000de
:1010dc0060398800543988000006eb006140b90083
:1010ec007fa997008fb197000200400083804800d1
:1010fc004009de0003002000a20288009001ba0023
:10110c001080ba00ab028800030ebb00008ebb003f
:10111c000884e8000c86e8008a0f5600efff3a00be
:10112c004939880042c0bf000080fb00c500de00ca
:10113c0000ceb3004260b7000700fc005005200051
:10114c0070398800a00a20007039880029e7a800af
:10115c0000000000000000002947e200feff3500ff
:10116c00c508dd0042c0bf007f4060000140700038
:10117c0042e0b7000410b0000580b0000610b000cb
:10118c000780b00001802000810f5300e08f5b00ce
:10119c00ccff3a0000802000010020001fb1970016
:1011ac00afb19700020140008381480092b79f00c5
:1011bc00a3b79f001fb29700afb297005fa897002c
:1011cc00efa89700800f5200818f5a0078ff3500ee
:1011dc004f0778004f06be004f05be004f04be00ff
:1011ec00af01b100000006006101b9000040eb0046
:1011fc00de06370022002000030020000040eb0038
:10120c00cf0637000001be0080c0b300d706370000
:10121c00827f2a000300200080c0b300c80637007c
:10122c006109b90070404000d006370070404000a2
:10123c006011b800c206370044c7bf0001ceb3002e
:10124c00014060000024a00044e7b700a003200088
:10125c00303a880044c7bf00f043b20044e7b700ff
:10126c003074200081c7b300a2c9b30033c0b300ef
:10127c000148780002487800034878002074200068
:10128c0061c4b30072c5b30013c0b3000148780049
:10129c00024878000348780042c7bf000058a300fa
:1012ac00fdff320021e3a9002183a8002143a800ff
:1012bc002083a90020c3bf007f4060000064a00011
:1012cc0020e3b7002043a80023c3bf007f40600089
:1012dc000054a00023e3b7002343a80022c3bf009f
:1012ec0031c8b300014060000044a00022e3b70005
:1012fc0025e3a90025c3bf0001ceb3000140600067
:10130c0025e3b70060c0b30024e3b7003303a800a3
:10131c0032c3bf0082cfb3000240600032e3b7009b
:10132c00f0032000f07088002e2eef003e2eef0010
:10133c004e2eef006e2eef002e23ef000000e90082
:10134c008019880021e3a80001eba90001cba900ba
:10135c0001aba900018ba900016ba90000cbbf0058
:10136c00f1c050000140600000ebb70000cbbf00a3
:10137c00c3cfb3000340600000ebb7000030200087
:10138c0060588800f0042000705888006003210029
:10139c0020588800062bef00d00020001058880041
:1013ac0001eba800546ea900506ea90005e1a8003d
:1013bc00f0a52e001008880011e1a800f17621009c
:1013cc006108880013e1a8007007200070088800ed
:1013dc001fe1a800d1088800b05d2000e00888005b
:1013ec0021e1a800c4c6bf00f1c04000014060006c
:1013fc003045b300c4e6b7008ac6bf0001ccb300c9
:10140c00014060000004a0008ae6b7008bc6bf0054
:10141c00014060000014a0008be6b7002162a80018
:10142c0021c2bf00034060000004a00021e2b7000d
:10143c002062a80021e2a8002342a800200020007e
:10144c00401188000c22ef00000a200020108800b8
:10145c00000429003010880080c6bf0001406000e5
:10146c000044a00080e6b700c0c1b3000169b7001a
:10147c00f0c1b3000269b700b00320002048880017
:10148c00d00120003048880000c9bf000240600035
:10149c005040b30000e9b70092c6bf0001406000a5
:1014ac001041b30092e6b700c0c1b3000b69b7009e
:1014bc00f0c1b3000c69b700f057220070488800e7
:1014cc00f02b2100804888000ac9bf000240600050
:1014dc005040b3000ae9b70041c8bf00f1c8b300df
:1014ec00014060000044a00041e8b7000068a9007a
:1014fc002068a80043c8bf00014060000045b3004d
:10150c0043e8b70000e8a90020e8a8004dc8bf00d8
:10151c00014060000054a0004de8b7000368a9002a
:10152c002368a8004ec8bf00024060000004a00061
:10153c004ee8b7000388a9002388a90045c8bf005e
:10154c00014060000046b30045e8b7000168a900ff
:10155c002168a80046c8bf00024060006040b3008c
:10156c0046e8b70060c8bf00014060000046b30009
:10157c0060e8b7002828a80048c8bf0001406000f8
:10158c000044a00048e8b7000228a9002228a800bf
:10159c0042c8bf00024060000024a00042e8b7002f
:1015ac002088a80000000600809fbe000068a900eb
:1015bc00018080008100e80001808800803e2000ce
:1015cc00808f500003003a00546ea9000030ef00e9
:1015dc0004003700401f2000808f500003003a00a9
:1015ec00546ea8001000200040b2880050b2800059
:1015fc000000e000070032000000e90050b2880053
:10160c0004003a0040c7bf000068a30001003a0084
:10161c000000fe004f00be00004006003600f8003f
:10162c00809fbe00829fbe00849fbe00869fbe002e
:10163c0000e8a9000210ec0010808800ea0f5000ae
:10164c0002003a000230ef00370507004f03be00de
:10165c004f02be004f01be004f00be003600f90025
:10166c0000400600809fbe00829fbe00849fbe008b
:10167c00869fbe00889fbe008a1f78003200f8004b
:10168c000020200090018800000000000088a900c4
:10169c004600200028022100e700210069032100f8
:1016ac0006004300090040008000eb0001017800b7
:1016bc00908040000201e8006a004000f00f5100e9
:1016cc00fbff3a006108b800009cbe001702be0088
:1016dc00482ddd004821de0002017500c8a9de009e
:1016ec000200500083805800801b4200819b4a00fe
:1016fc000603e900e10f4300e9ff3a003200f9006c
:10170c004f0578004f04be004f03be004f02be00d1
:10171c004f01be004f00be00004006000200fa0060
:10172c00889fbe008a1f78008004eb004a002100cd
:10173c0078c4440050c0b30080ff9f002388a800e9
:10174c001300200003017800e8805700084078005f
:10175c00fb0207000000e00005003a008001780061
:10176c0022002000e88057000840780002030700a0
:10177c002388a9008ff897000180fb004800dd004a
:10178c009ff897008180fb00010040004300dd00c2
:10179c004380de00001d78008904e800e58f5400ca
:1017ac00e3ff3a004f0578004f04be000080fa00ba
:1017bc000000060010002000f0b28800221020006b
:1017cc000281fb0003002000c011dd00020020009c
:1017dc000000220000004100e080490002002200cd
:1017ec00030020002d05070082fe0700e0b28800f0
:1017fc0091fe070089fd0700e00f5000e08f5800b4
:10180c000400320000ceb3004260b70000080200b2
:10181c00010000004816e200feff32004836ef00df
:10182c00beff0700fbff37001400fa009040780061
:10183c0002c2b30082c160001040900063006000df
:10184c00000040007081600009003a000304e000d1
:10185c0003003200630d2100000178000100370005
:10186c00630d2100f480570010002000dd030700f9
:10187c000080fa00000006000400fa00889fbe00f9
:10188c000003780000c2b30016426000960290007c
:10189c00a6009000f0ff210080806000b60490004c
:1018ac00680143009641900010c5b30080cf5100f1
:1018bc004b00320007003e006e40500080cf5100bc
:1018cc00490032006d40400080cf5100e6003a00e4
:1018dc001a00370030c6b30080cf51000700320029
:1018ec006340400080cf51004200320073405000f2
:1018fc0080cf5100dc003a00390037001410200072
:10190c00050020008481fb00020020000000210063
:10191c0000004100e0804900000040008180480048
:10192c00c0bf9f00d1bf9f00630d2100090178004b
:10193c00e880570005007800cf0037006128b80018
:10194c00c000dd00000020001201780002024000ff
:10195c00e08248000981e900ea014300e10f4200fe
:10196c00e08f4a000b003a0028042000184478004d
:10197c000884fb004544de0000ceb3004260b70093
:10198c000400be00f2fb07004dfd0700be0307007c
:10199c000900370028042000184478000884fb0054
:1019ac004544de0000ceb3004260b7008500d10094
:1019bc000480d30059fc07004544dd0042c0bf0041
:1019cc007f4060000840700042e0b700630d2100ca
:1019dc000001eb008000eb000000eb00a6003700dc
:1019ec00a9030700f9ff3700900020000100200038
:1019fc00310037003640900000047800080fb20028
:101a0c0000022000800f5400060032000008200065
:101a1c00800f54008b0032000800e0007700320089
:101a2c0091003700f58f500009003e00f18f5000f7
:101a3c002a003100e18f50008b003900e58f5000f7
:101a4c000e003600f08f500087003a001600370069
:101a5c0018022000888f50008300390050022000ab
:101a6c00808f50002b003600f0fc2f0000804000cf
:101a7c00e40f50007c003e00500037000180400015
:101a8c00210021000100400010007800ea00b8009d
:101a9c004400de00c0bf9f00630d210009017800e7
:101aac00e8805700ccff37000404e000050032004a
:101abc0020b2800031b28000c0bf9f00d1bf9f0018
:101acc00f5ff37001200be0020b2880031b288004a
:101adc001200be00cbfd0700bcff37004208dd0042
:101aec004004b100e1002100010040001000be00e4
:101afc004809dd004800de0000007100c888de00e7
:101b0c00c2cf2900f3ff2f0000014100c2bf9f008c
:101b1c00e1ff3700088450004240dd00e100210065
:101b2c00010040001000be004809dd004800de0046
:101b3c0000007100c888de00c2cf2900f3ff2f001f
:101b4c00000041008180490008044400a263210088
:101b5c000201440012017800cf91de000200500017
:101b6c00838058000271220003002000a6fa0700af
:101b7c0022b2800033b28000611ab9004f2ade0015
:101b8c000500200004024100858249008582d100b5
:101b9c000482d3000000420081804a007bfa0700d7
:101bac00420021000204440018017800ea11b80038
:101bbc004411de0000004100b6ff3700a86321008d
:101bcc000404e00005003200018040002006b10052
:101bdc000800400010007800aeff3700f0fc2f002a
:101bec00008040008000400088804000920878000f
:101bfc00920078008afd070074ff3700e78f5000d1
:101c0c0019003a000404e0000700320079fd0700d7
:101c1c00c0bf9f00630d210009017800e8805700c8
:101c2c000800780014003700120078006efd0700e1
:101c3c00630d210008017800880078000800780006
:101c4c000d003700e78f500007003a000404e00055
:101c5c0002003200e0b280008eff370012017800e3
:101c6c00e2b2880059ff3700630d210009017800aa
:101c7c00e88057000080eb00da0207004f04be003a
:101c8c000080fa00000006003600f800809fbe00bd
:101c9c00829fbe00849fbe00869fbe000368a90081
:101cac0060d6bf00e14f500003003200e24f5000fd
:101cbc0008003a00040037006076ef00e6010700e8
:101ccc00edfe0700030037006076ef00e20107002d
:101cdc00d5fe07004f03be004f02be004f01be00f1
:101cec004f00be003600f900004006000000eb007b
:101cfc00e2562100e15121008018eb008018eb0026
:101d0c000019eb000019eb000000e800f40f500084
:101d1c00f9ff3a00000006003600f800809fbe0074
:101d2c00829fbe00849fbe00869fbe003200f800da
:101d3c000020200090018800000000000015e20047
:101d4c0003003a001000200000a88800e7ff0700fd
:101d5c005ad6bf00e14f50000b003a0008c2bf003a
:101d6c000038a30006003a000835ed0040a88000ba
:101d7c000000e00004003a005af6b70002003700f9
:101d8c00a000200040a8880052d6bf00e14f5000b0
:101d9c000b003a0018c2bf000038a30006003a003e
:101dac000235ed0010a880000000e00004003a00ad
:101dbc0052f6b70002003700a000200010a88800df
:101dcc005ad6bf00e34f5000030032005ad6bf0072
:101ddc00e74f500020003a005836ec00c1b28000aa
:101dec0040062000808f5000080034005836ef0069
:101dfc0050ab800061ab800061004000e080480087
:101e0c0050ab880061ab88000642a80008c2bf0036
:101e1c000038a300020032005416e2000e0032001b
:101e2c005836ef005ad6bf00e34f500002003a007c
:101e3c0040c0b3000100370080c0b3005af6b700b1
:101e4c005416e200030032005436ef000622a800bc
:101e5c00010037000602a80052d6bf00e34f500025
:101e6c000300320052d6bf00e74f500020003a006a
:101e7c005036ec0081b2800040062000808f50006c
:101e8c00080034005036ef00d0ad8000e1ad80008a
:101e9c0061004000e0804800d0ad8800e1ad8800d2
:101eac001642a80018c2bf000038a300020032007e
:101ebc004c16e2000e0032005036ef0052d6bf0036
:101ecc00e34f500002003a0040c0b300010037005d
:101edc0080c0b30052f6b7004c16e200030032008b
:101eec004c36ef001622a800010037001602a8009d
:101efc000388a9003200f9004f03be004f02be0058
:101f0c004f01be004f00be003600f9000040060035
:101f1c00809fbe00829fbe003200f800002020008f
:101f2c0090018800000000000200fa000228a900bd
:101f3c0009c2bf000028a3001b0032000942a900ff
:101f4c005ad6bf000080fb004200dd00e1512100a9
:101f5c000100400012002000030020001008410086
:101f6c005090490053a88000c3a8880060a8800046
:101f7c00d0a888005ad6bf00e44f50000a003900a0
:101f8c00e64f50000400360068405000e44f50000b
:101f9c0005003e000200370030c0b30001003700de
:101fac0070c0b3005af6b7005ad6bf00e84f5000c5
:101fbc00280032000b003e00e44f500011003200ac
:101fcc0003003e00e24f500052003a004f00370031
:101fdc00e54f500015003200e64f50004d003a001e
:101fec003f003700ea4f5000280032002000390033
:101ffc00eb4f500028003200ec4f500045003a00e7
:10200c003a0037001cd5bf000080fb0000004000e8
:10201c001010880050c0b3001a15e20001003a00fd
:10202c0060c0b3005af6b7003a0037000942e2002c
:10203c0011003500c0a88000b080fb001110880092
:10204c00c0a888001a35ed001a15e20031003a00dc
:10205c00f3ff37001cd5bf000080fb0000004000e0
:10206c000000a0001010880090c0b300edff3700f6
:10207c000942e20003003d000642a80016b5ef003d
:10208c001d00370000108000f0bf9f000662a80002
:10209c00b0c0b300e3ff370008c2bf000018a300b4
:1020ac0004003200c0a880000110800001587800a4
:1020bc00c0a888001a35ed001a15e20003003a009a
:1020cc0006a2a800c0c0b3000200370006a2a900f7
:1020dc00a0c0b3005af6b7000682a8000d00370066
:1020ec000942e20001003d0016b5ef005616e20071
:1020fc0003003a000642a80020c0b300c9ff370015
:10210c0010002000a0b28800010037005436ef0008
:10211c005a76ef000080fa003200f9004f01be0041
:10212c004f00be0000400600809fbe00829fbe0094
:10213c003200f80000202000900188000000000010
:10214c000200fa000648a90019c2bf000028a3002b
:10215c001b0032001942a90052d6bf000080fb00c0
:10216c004200dd00e1562100010040001200200079
:10217c0003002000100841005090490023a8800063
:10218c0083a8880030a8800090a8880052d6bf0091
:10219c00e44f50000a003900e64f500004003600ae
:1021ac0068405000e44f500005003e00020037002c
:1021bc0030c0b3000100370070c0b30052f6b70056
:1021cc0052d6bf00e84f5000280032000b003e00f2
:1021dc00e44f50001100320003003e00e24f50006b
:1021ec0052003a004f003700e54f50001500320006
:1021fc00e64f50004d003a003f003700ea4f5000c8
:10220c002800320020003900eb4f5000280032002b
:10221c00ec4f500045003a003a00370014d5bf008f
:10222c000080fb00000040009010880050c0b300fc
:10223c001215e20001003a0060c0b30052f6b7007c
:10224c003a0037001942e2001100350080a88000e6
:10225c00b080fb009110880080a888001235ed003a
:10226c001215e20031003a00f3ff370014d5bf001d
:10227c000080fb00000040000000a00090108800cf
:10228c0090c0b300edff37001942e20003003d009f
:10229c001642a8000eb5ef001d003700801080001c
:1022ac00f0bf9f001662a800b0c0b300e3ff370078
:1022bc0018c2bf000018a3000400320080a88000e0
:1022cc00811080000158780080a888001235ed003c
:1022dc001215e20003003a0016a2a800c0c0b30019
:1022ec000200370016a2a900a0c0b30052f6b70036
:1022fc001682a8000d0037001942e20001003d00d3
:10230c000eb5ef004e16e20003003a001642a8008c
:10231c0020c0b300c9ff37001000200060b2880055
:10232c00010037004c36ef005276ef000080fa00c7
:10233c003200f9004f01be004f00be000040060005
:10234c001635ef001cf5b700d2a88800d0a8800085
:10235c0060a88800c1a8880051a88800b3b2880082
:10236c0030c0b3005af6b7005a56e200feff3a00ee
:10237c00b0a88000000006001635ef001cf5b70071
:10238c00d2a88800d0a8800060a88800c1a88800c6
:10239c0051a88800b3b2880070c0b3005af6b700d9
:1023ac005a56e200feff3a00b0a88000000006007a
:1023bc00a000200040a8880010c0b3005af6b70057
:1023cc005a56e200feff3a00000006000e35ef0000
:1023dc0014f5b70092a8880090a8800030a8880057
:1023ec0081a8880021a8880073b2880030c0b3008f
:1023fc0052f6b7005256e200feff3a0070a8800079
:10240c00000006000e35ef0014f5b70092a8880006
:10241c0090a8800030a8880081a8880021a8880096
:10242c0073b2880070c0b30052f6b7005256e20087
:10243c00feff3a0070a8800000000600a0002000fb
:10244c0010a8880010c0b30052f6b7005256e20034
:10245c00feff3a0000000600005c210000000600b0
:10246c00800278002e16e20002003a002816e200e4
:10247c00fcff3c00420020002816e200170032004e
:10248c00c1d5bf00c0d5ab000300320000427800bc
:10249c0082002000030037000080fb004202de00b7
:1024ac0022002000005c2100800141000500780022
:1024bc000001eb0002003700335878000201e800fd
:1024cc00810f5100fcff3900c0d5bf006f006000c8
:1024dc005200200001003a000481fb000200780049
:1024ec000000060061b18800a0b188000188a80036
:1024fc002188a80021c8bf000048a300fdff3a00b6
:10250c0000000600889fbe008a1f78000005780036
:10251c0081047800010078000030b2004704de002e
:10252c000a027800010078000070a000001a780000
:10253c00010078000002b2002100200009003a00de
:10254c00800078000300370001004100105a780029
:10255c008100e800888f5000fbff35008880e80080
:10256c000004eb0043b188002e36ef003636ef0046
:10257c003836ef000a007800daff07000000eb00a5
:10258c000948a30004003a00880078000a0078008b
:10259c00b3ff07000080fb004f0578004f04be001e
:1025ac00000006004800dd00ca08dd0001007000d4
:1025bc004711dd0002007000c519dd00030070003a
:1025cc00840070008601780005017800070078000f
:1025dc00ccff07000080fb0000000600889fbe00b7
:1025ec008a1f780000457800810478000304780085
:1025fc00ef406000610061004500dd0080c04000dc
:10260c0000ccb30080cc4000134090009044980064
:10261c00a34090008180fb00334090004800dd0017
:10262c000100700090049800c34090008180fb0072
:10263c00534090004800dd0001007000a004980099
:10264c00e34090008180fb00734090004800dd0067
:10265c0001007000b00498006883440080002000e2
:10266c008001eb000204e000040032000b00370094
:10267c0003804200105b78008301e800e840900082
:10268c008180fb00784090004800dd000100700064
:10269c00808f5100f6ff39006800400044b188007b
:1026ac002e36ef003636ef003836ef00e3004000f0
:1026bc00c288de00c208dd000900780089ff07002f
:1026cc000000eb00ef4f550008003200684090000e
:1026dc000080fb00f8409000c808dd00808070008e
:1026ec00090078005eff07000080fb004f057800b2
:1026fc004f04be00000006000000fa00889fbe00d8
:10270c008a9fbe0003057800840478008505780054
:10271c000fbc97006fc26200e1c16400c519dd00f7
:10272c000342420003ccb300034c420063c6b30027
:10273c00134498004800dd004a11dd0002007000cf
:10274c004751dd00020070004549dd0002007000b9
:10275c0005007000000cb3001004980021049800d0
:10276c003a04980068014400800020000900e00051
:10277c0008003a008900780003003700010043008c
:10278c00105978008100e8008a8f5000fbff390057
:10279c006800450047b188002e36ef003636ef0052
:1027ac003836ef00e3004000c288de00c208dd00ce
:1027bc00080078004bff07000000eb00ef8f55007e
:1027cc00040032008a0078000800780024ff07001b
:1027dc000080fb004f05be004f04be000080fa00d5
:1027ec000000060080027800010278000200e00080
:1027fc0004003200e20f510002003200e40f5100dd
:10280c000f003a0000c8b300804978004228dd0070
:10281c008200d10001404000904198008380e80084
:10282c000000eb0002003700b45878000000e8000c
:10283c00820f5000fcff39008280e8001000370046
:10284c0000ccb30080497800954198000000eb0063
:10285c0090019800a0019800b2019800e880410016
:10286c0002003700b45878000000e800820f5000d6
:10287c00fcff3a00eb004100c288de00c208dd001c
:10288c000300780017ff37001000200050b18800bb
:10289c0000000600000005003200f800881f7800d8
:1028ac000820200098018800000000004f047800e8
:1028bc000828a9002222a9003200f90000400600d5
:1028cc00809fbe00829fbe00849fbe00869fbe007c
:1028dc00889fbe008a1f78003200f800002020007c
:1028ec0090018800000000000168a90037b1800049
:1028fc00056321009542780094b18000b2b180004c
:10290c00c3b18000f9b28000eab280001800200048
:10291c004a00370031118000005c210000004100aa
:10292c000148780070042000800f5100e08f59009e
:10293c0002003e0061014100e0814900065c21007b
:10294c00164378000604e00038003d00e10f51000a
:10295c00e08f59000b003a000680fb008400200039
:10296c000068a30001003a00240020004500de00ae
:10297c000000a200e14260000900e000010032000a
:10298c00a70020000504e000110032006120b9000e
:10299c00800f5100818f59000d003a000668a3008a
:1029ac0006003200605c21001000780063004000db
:1029bc004280de004200dd0003003700c1d5bf00bd
:1029cc006300600000004000000242008042eb0007
:1029dc006120b900800f5100818f59001700390018
:1029ec000900e0000f0032008680fb006f80600061
:1029fc008a0f500006003a0010c0b3000168a30013
:102a0c0001003a0020c0b30060f6b70001003700a7
:102a1c0078b188008003eb00874278006011b80021
:102a2c000600370078b1880004003700ed8f5000a5
:102a3c0001003a0078b18800a700200022c2bf0034
:102a4c000008a300b3ff3a0037b1880005007800f6
:102a5c0030f6b70094b18800b2b18800c3b18800d9
:102a6c003200f9004f0578004f04be004f03be0042
:102a7c004f02be004f01be004f00be0000400600da
:102a8c00809fbe00829fbe00849fbe003200f80073
:102a9c000020200090018800000000000188a9009f
:102aac0023b18000a2b18000f5b2800054b1800047
:102abc000c0037003280fb00201188002c36ed0012
:102acc002c16e20007003a002188a9000188a90011
:102adc000500e000030032000400e00001003200b9
:102aec002300200023c2bf000000d100118220006f
:102afc0091407800c408de00610060000080ea00ac
:102b0c00808060000108a300eaff3a0023b188002e
:102b1c00a2b188003200f9004f02be004f01be0086
:102b2c004f00be00004006002816e20001003200f3
:102b3c002836ed002168a90000000000000000000c
:102b4c00000000000000000030b180000000e00038
:102b5c00050032000000e90030b1880002003a00a4
:102b6c003636ef003836ef002168a80020b180001f
:102b7c000000e000040032000000e90020b18800f1
:102b8c0001003a000000fe0000000600e2a78000f1
:102b9c00f3a78000401ade0005002000a402880084
:102bac004200dd006102b9000201420083814a004b
:102bbc001202ba001280ba0062014100e0814900a1
:102bcc009202ba001283ba006129b800c011dd006c
:102bdc000200200004024100e08249008488be000b
:102bec000080fb00000006004200dd006103b9001c
:102bfc00e4a78000f5a780000603420087834a0003
:102c0c00403ade00050020006439880056398800ff
:102c1c00a00f2000a00288008180fb000110b100f1
:102c2c000000eb000208bb000188bb004019de006d
:102c3c008080eb00200020000208bb000188bb0054
:102c4c00100024004039880042c0bf000080fb0007
:102c5c00c500de0000ceb3004260b7000700fc00e8
:102c6c005005200070398800a00a200070398800b7
:102c7c0029e7a80000000000000000002947e2003e
:102c8c00feff3500c508dd0042c0bf007f4060007c
:102c9c000140700042e0b70000000600881f780079
:102cac00e0a78800f1a78800c2a78800d3a78800f6
:102cbc00604c2100814f21000058eb00810f500027
:102ccc00fdff3a000004eb0014003700613f2100c7
:102cdc0008007800adff0700e14f400015003200fe
:102cec000004e0000c0032000080fb000000e90052
:102cfc00614c21008100400012c0b3008248780072
:102d0c004200dd00e13f210001004000b29f800045
:102d1c00c39f80000288be000804e8006141b9002e
:102d2c00c0a78000d1a78000800f5100818f59006f
:102d3c00e6ff3900080078004f0478000000060018
:102d4c008080fb00604c2100008040001004e000fb
:102d5c00040032004208dd00e13f21000100400088
:102d6c001001be000200be0000000600ea8747000a
:102d7c00889fbe008a9fbe008c9fbe008e1f78006d
:102d8c00004778000205be000086fb00604c210065
:102d9c00000146001204e000060032004260dd0033
:102dac00e13f210001004000b00f1500a08f1d0075
:102dbc00530032004260dd00e13f21000100400081
:102dcc000a88be0010c0b300004978008006eb00f2
:102ddc000e003700a13f21000d0078006bff0700ab
:102dec00e14f40000f0032008080fb000c00e80037
:102dfc00808f500004003a006011b8008040eb0056
:102e0c000d00780078ff07008d06e800616cb900b2
:102e1c00c0a78000d1a78000800f5400818f5c0078
:102e2c00ecff3900c0a78000d1a78000800f5400b0
:102e3c00818f5c002e003a007680570061312800ab
:102e4c0007000900315878008000b1000004eb0045
:102e5c000a0037004240dd00cf80de00e2a7800090
:102e6c00f3a780000000410081804900f6815700e3
:102e7c0082002000b6f607000804e8006141b900a2
:102e8c00c0a78000d1a78000800f5100818f59000e
:102e9c00f0ff3900f68157000001eb000080eb00d9
:102eac008080eb00aaf607008005eb0018002000dc
:102ebc006a4c2100e93f21001a04e00005003200b1
:102ecc001901be00884078000b00780046ff07000f
:102edc008b05e8000804e8000a05e800e4844400d7
:102eec0030032000800f540005003200f2ff370041
:102efc008e40e8000a01be000d0078003aff070082
:102f0c004f0778004f06be004f05be004f04be00b1
:082f1c00af00b1000000060047
:020000040000fa
:102f24003a160000120000008200000000000000b9
:102f3400000000000000000000f8a70000000000ee
:102f44000032000000100000f603000080000000c2
:102f54006616000000100000800000000816000043
:102f64001c0000008200000000000000003300008c
:102f74008700e70000ff00003f00f7000033000077
:102f8400ff00000000000000ffffff00ff00000042
:102f94006216000004000000800000005c160000bf
:102fa40006000000820000000e0000000000000087
:102fb400241600001600000080000000c015000068
:102fc40048000000800000004c16000010000000c3
:102fd400820000000000000000000000000000006b
:102fe40000000000000000000000000000150000c8
:102ff400be00000080000000f61300000a0100007b
:08300400800000000000000044
:00000001FF
