:020000040000fa
:080000000002040000000000f2
:020000040000fa
:100400006f5022000eff27000e0188000000000040
:100410000c00070080222300010020000f000700cd
:10042000000020000000e000020032000000020096
:100430000000000086110200000000000040da0009
:100440000000fe00401020000000e000020032002a
:10045000002020009001880000000600a102880012
:10046000800078000000eb001a003700e2804000b6
:1004700054a0b4009101ba00e280400054a0b4003e
:100480009102ba00e280400054a0b4000002eb00e8
:10049000472bde00f507b200a6018800602ce100c2
:1004a00008003a000049eb000201e80002003900b0
:1004b0003420ec0002f0a0008301e900f9ff3e00c7
:1004c000040037006128e100010032000082eb00e7
:1004d000040007001101ba000200e000e3ff3a0047
:1004e0000000060004d0a300e20f49001c00390000
:1004f000810278003549ba000201e80002003900a3
:100500003420ec0002f0a0008301e9000f0032006b
:100510002549ba000201e800020039003420ec004d
:1005200002f0a0008301e900080032000400e000ae
:100530000600320015c9ba000201e80002003900c5
:100540003420ec0002f0a0008301e9008180e80083
:1005500054a0b4000300e000e2ff3a0000000600ef
:100560009102ba00055978008301e900f7ff3200d3
:10057000c82ade00055978008301e900f3ff320044
:100580000400e000f1ff320011d9ba00eeff37009d
:1005900054090400000000009a0904000000000053
:1005a0009e09040000000000c209040000000000d1
:1005b0003c090400000000004a090400000000009b
:1005c00046090400000000000e26040000000000a0
:1005d000f82504000000000072260400000000005e
:0805e0000040da000000fe00fb
:020000040000fa
:020000040002f8
:10900000fa874700889fbe008a9fbe008c9fbe00e3
:109010008e1f7800f30f2000101020000300600066
:1090200001002000c000dd0000002000020025003b
:1090300002024000e082480010102000030060009f
:1090400001002000c000dd0000002000028024009c
:1090500002004000e0804800800f5200818f5a00db
:109060000300310084b79f0095b79f0002003700ce
:1090700080b79f0091b79f006044b8001010200097
:10908000f0b79f000100250081bf9f000100200074
:10909000b0b79f00c1b79f006fe197008280fb00cf
:1090a000000020000fb9970002004000e080480057
:1090b000d0b79f00e1b79f00740037005fb0970002
:1090c000efb0970008064000898648008c017800c0
:1090d000f8af9f00080178004fb79700406dde00a1
:1090e0000b002000404bde0007002000a6b79f00c9
:1090f000aa0288009300ba009382ba00a6028800f0
:109100001200ba001282ba00808f500009003a00a3
:10911000848f520007003a000e87e8008381e80040
:109120000281e80001802000810f570053003200c7
:10913000efff370030002400403988002fb197003e
:10914000623988007fa897005039880042c0bf006c
:109150000080fb00c500de0000ceb3004260b70017
:109160000700fc005005200070398800a00a20008c
:109170007039880029e7a800000000000000000006
:109180002947e200feff3500c508dd0042c0bf00f0
:109190007f4060000140700042e0b7000802be005e
:1091a0006055b8002e0024000a0378004028de0035
:1091b0000100200060398800543988008003eb00ea
:1091c0006130b9000c0040008d8048004009de008d
:1091d00003002000a20288001001ba001080ba002b
:1091e00082007800a20f2000a2028800810bbb0041
:1091f000808bbb000683e8008783e8000010200016
:10920000808f5300eeff3a004e39880042c0bf0005
:109210000080fb00c500de0000ceb3004260b70056
:109220000700fc005005200070398800a00a2000cb
:109230007039880029e7a800000000000000000045
:109240002947e200feff3500c508dd0042c0bf002f
:109250007f4060000140700042e0b7000410b000a1
:109260000580b0000a10b0000b80b0000180200023
:10927000810f5500e08f5d00cbff3a000080200099
:109280000100200008044000898448000fb09700c6
:109290009fb09700800f5400818f5c0087ff3900da
:1092a000efe897000180fb0001002000c000dd0016
:1092b000000020000fb9970002004000e080480045
:1092c000d0af9f00e1af9f006044b80010102000b5
:1092d0006105b8008a80fb00000020000200250024
:1092e00002064000e08648003100370008024600d0
:1092f00089824e004028de000100200080037800b3
:10930000a00288000401be000b0378000e8020003c
:109310001200ba009280ba00e10f400008003a0043
:10932000e18f400006003a000683e8006201410038
:10933000e08149008e0f530019003200f4ff37001e
:10934000300024004039880067398800543988008b
:1093500042c0bf000080fb00c500de0000ceb300ad
:109360004260b7000700fc005005200070398800fb
:10937000a00a20007039880029e7a800000000003a
:10938000000000002947e200feff3500c508dd00af
:1093900042c0bf007f4060000140700042e0b70063
:1093a000008020000100200008044000898448005b
:1093b0005fa89700efa89700800f5400818f5c0092
:1093c000caff39000000fe004f0778004f06be00bc
:1093d0004f05be004f04be00af01b1000000060003
:020000040000fa
:020000040040ba
:080000000100000007000000f0
:020000040000fa
:0200000401f009
:04000800cfff000026
:020000040000fa
:0200000401f009
:04000c0078ff000079
:020000040000fa
:0200000401f009
:040010005eff00008f
:020000040000fa
:0200000401f009
:040014007fff00006a
:020000040000fa
:0200000401f009
:04001800c9ff00001c
:020000040000fa
:0200000401f009
:04001c00dfff000002
:020000040000fa
:0200000401f009
:04002000cfff00000e
:020000040000fa
:0200000401f009
:0400240000000000d8
:020000040000fa
:10000800f0020000f0020000f0020000f002000020
:10001800f0020000f0020000f0020000f002000010
:10002800f0020000f0020000f0020000d207000019
:10003800f0020000f0020000f0020000f0020000f0
:10004800f2070000f0020000f00200005e2f00003e
:1000580042300000f0020000f0020000f002000050
:10006800f0020000722a0000f0020000f002000016
:10007800f0020000f0020000f0020000f0020000b0
:10008800f0020000f0020000f0020000f0020000a0
:1000980076290000f0020000f0020000f0020000e3
:1000a800f0020000f0020000f0020000f002000080
:1000b800f0020000f0020000f0020000f002000070
:1000c800f0020000f0020000f0020000f002000060
:1000d800f0020000f0020000f0020000f002000050
:1000e800f0020000f00200007e2b0000f002000089
:1000f800f0020000f0020000f0020000f002000030
:10010800f0020000f0020000f0020000f00200001f
:10011800f0020000f0020000f0020000f00200000f
:10012800f00200004a2f0000f0020000f002000078
:10013800f0020000f0020000f0020000f0020000ef
:10014800f0020000f0020000f0020000f0020000df
:10015800f0020000f0020000f0020000f0020000cf
:10016800f0020000f0020000f0020000f0020000bf
:10017800f0020000f0020000fe1c0000f002000087
:10018800f0020000f0020000f0020000f00200009f
:10019800f0020000f0020000f0020000f00200008f
:1001a800f0020000f0020000f0020000f00200007f
:1001b800f0020000f0020000f0020000f00200006f
:1001c800f0020000f0020000f0020000f00200005f
:1001d800f0020000f0020000f0020000f00200004f
:1001e800f0020000f0020000f0020000f00200003f
:1001f800f0020000f0020000f0020000f00200002f
:10020800f0020000f0020000f0020000f00200001e
:10021800f0020000f0020000f0020000f00200000e
:10022800f0020000f0020000f0020000f0020000fe
:10023800f0020000f0020000f0020000f0020000ee
:10024800f0020000f0020000f0020000f0020000de
:0c025800f0020000f0020000f0020000c4
:020000040000fa
:1005e8004d63000073420000757300003000000086
:1005f80042750000733100004d6300007342000033
:10060800757300003000000042750000733200006e
:100618004d63000073420000757300003000000055
:100628004d63000073420000757300003100000044
:100638004d63000073420000757300003200000033
:1006480042750000733100004d63000073420000e2
:10065800757300003200000042750000733200001c
:100668004d63000073420000757300003200000003
:100678004d630000734200007573000033000000f2
:100688004d630000734200007573000034000000e1
:1006980042750000733100004d6300007342000092
:1006a80075730000340000004275000073320000ca
:1006b8004d630000734200007573000034000000b1
:1006c8004d630000734200007573000035000000a0
:1006d8004d6300007342000075730000360000008f
:1006e80042750000733100004d6300007342000042
:1006f8007573000036000000427500007332000078
:100708004d6300007342000075730000360000005e
:100718004d6300007342000075730000370000004d
:10072800dc8300009e830000e0110000d41100006b
:10073800e08300003e0300004d000000750000004b
:100748006c00000074000000690000002000000038
:100758004300000068000000610000006e00000017
:100768006e000000650000006c0000002000000022
:1007780053000000790000007300000074000000be
:10078800650000006d0000007300000020000000fc
:100798004d0000004300000053000000200000004e
:1007a800470000006d0000006200000048000000e3
:1007b80004030000090400000902000019000000f9
:1007c8000101000000c00000320900000400000020
:1007d800000000000000000000000000526500005a
:0807e800762000003000000043
:020000040000fa
:1007f000889fbe000104780082047800531407002b
:100800001880fb001630b700880078000000eb006d
:100810000300370011417800f2f89f000000e80063
:100820008100e800890f5000faff3900b080800095
:100830004f04be00000006000200fa00f0bf9f0057
:10084000250020000f82e9006011b800010520009a
:10085000050078005d16070001052000200020003b
:10086000431607000000e000fbff3a000080fa009a
:10087000000006000200fa00250020000f82e900b7
:100880006011b800010520000500780092160700ed
:100890007fb897000080fa00000006006131210057
:1008a00091407800f143b20082c6bf0003ccb30090
:1008b000034060000140700082e6b70018d3bf001b
:1008c000f043b2003268200092c0610000c970009d
:1008d000a131210091407800f143b20084c6bf00ed
:1008e000034060000140700084e6b7001cd3bf00e5
:1008f000f043b2005268200092c0610000c970004d
:10090000e131210091407800f143b20086c6bf007a
:10091000034060000140700086e6b70020d3bf00ae
:10092000f043b2007268200092c0610000c97000fc
:100930002132210091407800f143b2008ec6bf0001
:1009400003406000014070008ee6b70024d3bf0072
:10095000f043b200f268200092c0610000c970004c
:100960006132210091407800f143b2009ac6bf0085
:1009700003406000014070009ae6b70028d3bf0032
:10098000f043b2009269200092c0610000c970007b
:10099000a132210091407800f143b2009ec6bf0011
:1009a00003406000014070009ee6b7002cd3bf00fa
:1009b000f043b2009268200092c0610000c970004c
:1009c0002ed3bf00f043b200d269200092c0610074
:1009d00000c9700030d3bf00f043b200f2692000bc
:1009e00092c0610000c9700021332100914078005d
:1009f000f143b2008cc6bf000340600001407000ac
:100a00008ce6b70034d3bf00f043b200d2682000b8
:100a100092c0610000c9700036d3bf00f043b2003d
:100a2000b269200092c0610000c9700081332100ca
:100a300091407800f143b20098c6bf0003406000c7
:100a40000140700098e6b7003ad3bf00f043b2000f
:100a50007269200092c0610000c97000c13321009a
:100a600091407800f143b20088c6bf0003406000a7
:100a70000140700088e6b700e13321009140780022
:100a8000f143b20092c6bf00034060000140700015
:100a900092e6b70040d3bf00f043b20032692000b5
:100aa00092c0610000c9700042d3bf00f043b200a1
:100ab0001269200092c0610000c970004134210019
:100ac00091407800f143b20090c6bf00034060003f
:100ad0000140700090e6b7000000060044c7bf0068
:100ae00001ceb3000140600044e7b700a00320003e
:100af000303a880044c7bf00f043b20044e7b70073
:100b00003074200081c7b300a2c9b30033c0b30062
:100b100001487800024878000348780020742000db
:100b200061c4b30072c5b30013c0b30001487800bc
:100b3000024878000348780070c0b3005a67b700d5
:100b400058c7bf0081cfb300014060000004a0007f
:100b500058e7b70058c7bf007f40600001ccb30022
:100b60000140700058e7b7005927a9005947a8006d
:100b700059a7a80059e7a80059c7bf000068a300fb
:100b8000fdff32000e2eef001e2eef002e2eef0086
:100b90003e2eef004e2eef006e2eef0025cea90068
:100ba00021cea900356ea900316ea900356ea800ce
:100bb0004acea800344ea900346ea900348ea90094
:100bc00034aea90034cea90034eea900540ea90019
:100bd000542ea900640ea900642ea900440ea90099
:100be00065aea90065cea90065eea90044aea900d6
:100bf00044eea90064cea90055aea900558ea90007
:100c000035eea900548ea90054aea900544ea90097
:100c1000546ea900304ea900306ea900308ea90094
:100c200030aea90030cea90030eea900500ea900c8
:100c3000502ea900600ea900602ea900400ea90048
:100c400061aea90061cea90061eea90040aea90085
:100c500040eea90060cea90051aea900518ea900b6
:100c600031eea900508ea90050aea900504ea90047
:100c7000506ea90004c1bf00f2ccb3000240600076
:100c80000044a00004e1b700b1d42100110888009d
:100c900005e1a80041c8bf00f4c8b30004406000eb
:100ca0000044a00041e8b7000068a9002068a8003f
:100cb00012c1bf00024060000044a00012e1b70072
:100cc0007108880013e1a80044c8bf0083cfb300b7
:100cd000034060006040b30044e8b7000108a90089
:100ce0002108a800b05d2000e008880021e1a800ec
:100cf0004ec8bf00034060006040b3004ee8b7003c
:100d00000388a9002388a800c4c6bf0001c8b30097
:100d1000014060003045b300c4e6b7008ac6bf009a
:100d20006f415100024060000004a0008ae6b70055
:100d30008bc6bf00024060000014a0008be6b70025
:100d40002162a80021c2bf00c1cfb30001406000f2
:100d50000004a00021e2b7002062a80020002000cb
:100d60004011880021e2a8002342a80000c7b30078
:100d70004568b7000168a8002168a80070c0b300ea
:100d80004668b70000c7b3006068b7002828a8000d
:100d900070c0b3000069b700c0c1b3000169b700fb
:100da000f0c1b3000269b7000389a800d0bf2000da
:100db00030488800c1c120002148880070c0b300bd
:100dc0000a69b700c0c1b3000b69b700f0c1b30036
:100dd0000c69b7000d89a800009b2000804888009e
:100de0007148880081c6bf00024060002041b30006
:100df00081e6b70070c0b3001469b700c0c1b3008a
:100e00001569b700f0c1b3001669b70030032000c0
:100e1000d048880060062000c04888000c22ef00ff
:100e2000020a2000221088000104290031108800e5
:100e300048c8bf00044060000046b30048e8b7005f
:100e40000228a9002228a8001c22ef00a210880076
:100e5000b110880059c8bf00034060006040b30073
:100e600059e8b7000648a9002648a8000000060077
:100e70000200fa00e0ff9f00f1ff9f008001eb00fd
:100e8000220020008f80e90010c2b300c4120700c6
:100e90000080fa00000006000400fa00c0ff9f0076
:100ea000d1ff9f00c808de00e1ff9f008001eb003a
:100eb00032002000e480570010c2b300b8120700cf
:100ec0000080fa00000006000200fa00881f780087
:100ed00001047800c0ff9f00130020000301780088
:100ee000e480570010c2b300ad1207008001eb0090
:100ef00012002000e480570010c2b300b6120700b1
:100f00004ff89700004c78004f0478000080fa00fa
:100f1000000006000200fa00881f78000104780033
:100f2000c0ff9f001300200003017800e4805700f9
:100f300010c2b3009a1207008001eb0022002000cb
:100f4000e480570010c2b300a31207004ff89700c7
:100f50008080fb005ff897004800dd00008c4000b7
:100f60004f0478000080fa0000000600d18f800056
:100f700020c1b300c8ff3700e0a78000f10f2000b8
:100f8000e20f5000010032008000eb000040eb0057
:100f9000c1ff0700f5ff3700a11f210020c1b300ea
:100fa000dcff3700809fbe000068a9002197800009
:100fb000401f2000808f500002003a0025cea8007c
:100fc00005003700803e2000808f500002003a006c
:100fd00025cea900e432ef00e432ec004f00be0061
:100fe000004006003600f800809fbe00829fbe00d1
:100ff000849fbe00869fbe000108a900612e2100cb
:10100000623121004706200006012000350620003d
:10101000140120006331210011007800870f500077
:1010200003003a0006097800850878000b003700b5
:10103000e10f5000020034008008e900070037008b
:10104000e10f500002003a00040978000300370065
:101050000000e00001003a00000978008180e8000b
:101060000281e800838f5000ebff3a000bfe07007f
:101070002b1407004f03be004f02be004f01be00fd
:101080004f00be003600f90000400600881f7800bf
:10109000004478008000eb0002402100e30f2100b3
:1010a00003804000105978008100e800e88f50006c
:1010b000fbff3a000001eb004415210083402100b2
:1010c00002003700b45978000201e8004110210005
:1010d000914078008180fb0005d1bf004800dd0011
:1010e00001007000800f5100f6ff390004d1bf00ed
:1010f0000080fb0052102100124178004811dd00f1
:10110000000171006801410013002000014021002e
:1011100008407800ff110700cf80de00e08f8800d4
:10112000f18f8800e08f8000f18f8000e00f500089
:10113000e08f58000e003a008001eb001200200002
:101140000140210008407800a9fd0700cf80de00a3
:10115000e08f8800f18f8800e08f8000f18f8000a1
:10116000e00f5000e08f580001003a0040f1a80065
:101170004f04780000000600889fbe008a9fbe00d2
:101180000003eb00632e21001a0020000b0020005a
:101190000004780081037800490620002108a90096
:1011a0000a00be00060178000201e90003003300d6
:1011b0000000400081804800fbff37000001640010
:1011c0000180630080027800020278000400be0003
:1011d000e00f5000e08f5800040032001300e000e0
:1011e00005003a0089097800030037001300e00089
:1011f000010032008009eb002108a8000603e80086
:101200008381e800f80f5300e4ff3a004f05be0069
:101210004f04be0000000600881f78006011b8006f
:101220000002eb00652e21001600200007002000c0
:101230001500e000090032000600be00040478003a
:101240000804e900030033000000400081804800ea
:10125000fbff370000017100818171000402e8008a
:101260008582e800f80f5200f1ff3a000200be004c
:101270004f04780000000600a08a8000b18a800038
:10128000bdff070040f1a8000000060080c3b300c6
:101290007eff3700a08a8000d08f880033ff0700d0
:1012a00040f1a8000000060002d1bf000080fb0052
:1012b0003110210091407800c808dd008080700066
:1012c000f0162000808f500002003a0080c3b30067
:1012d00004003700f0262000808f500002003a0002
:1012e00060c1b30069ff37002110210091407800f0
:1012f00003d1bf0010cab300014040000041eb0021
:1013000001402100331207000080fb000100200093
:10131000e08f8800f18f8800e08f8000f18f8000df
:10132000e00f5000e08f580001003a0040f1a800a3
:101330000000060060c1b30054ff370000d1bf00b9
:1013400011102100914078006f4060000041eb00d7
:10135000014021001f1207000080fb000100200057
:10136000e08f8800f18f8800e08f8000f18f80008f
:10137000e00f5000e08f580001003a0040f1a80053
:101380000000060000d1bf000080fb00111021000a
:1013900091407800c808dd0080807000421521006f
:1013a00000402100d51107000080fb000100200053
:1013b000e08f8800f18f8800e08f8000f18f80003f
:1013c000e00f5000e08f580001003a0040f1a80003
:1013d00000000600881f78000044780013002000f9
:1013e00082002000e10f21004a110700cf80de00bb
:1013f000e08f8800f18f8800e08f8000f18f8000ff
:101400000001eb00e00f5000e08f580015003a009b
:1014100004d1bf000080fb0052102100124178006f
:101420004811dd00000171000201e8008001eb00bd
:101430000140210008407800edfc0700cf80de006d
:10144000e08f8800f18f8800e08f8000f18f8000ae
:10145000010070000001ea00000171004f11de0080
:1014600061011100020078004f04780000000600be
:1014700002d1bf000080fb003110210091407800b4
:10148000c808dd0080807000f0162000808f5000ba
:1014900002003a0080c3b30004003700f0262000a9
:1014a000808f500002003a0060c1b300c9ff3700ce
:1014b000211021009140780003d1bf0010cab30071
:1014c0000140400012c0b30001402100c1110700db
:1014d0000080fb0001002000e08f8800f18f880071
:1014e000e08f8000f18f8000010070000001ea00b1
:1014f000000171004f10de006100100000000600c6
:10150000fe50e2001b003d00d9ff07000000e00094
:101510003e00320000402100c114210091407800bb
:101520004cf1b7004800de00d11421009140780052
:101530004df1b7004e11a8004110210091407800f4
:101540008180fb0005d1bf004800dd000100700074
:10155000f1142100914078004ff1b7004800de00ff
:10156000011521009140780050f1b7004ef1a8001c
:101570000000060041102100914078008180fb00ae
:1015800005d1bf004800dd000100700001003a00f5
:1015900045ff370040152100e113210091407800fc
:1015a0003ef1b7004800de00f113210091407800c1
:1015b0003ff1b70041102100914078008180fb008d
:1015c00005d1bf004800dd000100700011142100aa
:1015d0009140780041f1b7004800de00211421005d
:1015e0009140780042f1b70040f1a80040952000fa
:1015f000311421009140780043f1b7004800de002b
:10160000411421009140780044f1b7000000060029
:1016100060c1b3006fff3700fe50e2001b003d00c9
:10162000fbff07000000e0003e0032000040210008
:10163000c1142100914078004cf1b7004800de0051
:10164000d1142100914078004df1b7004e11a8004f
:1016500041102100914078008180fb0005d1bf003e
:101660004800dd0001007000f11421009140780075
:101670004ff1b7004800de000115210091407800cd
:1016800050f1b7004ef1a800000006004110210003
:10169000914078008180fb0005d1bf004800dd004b
:1016a0000100700001003a0022ff370040152100c0
:1016b000e1132100914078003ef1b7004800de00c0
:1016c000f1132100914078003ff1b7004110210053
:1016d000914078008180fb0005d1bf004800dd000b
:1016e00001007000111421009140780041f1b70011
:1016f0004800de00211421009140780042f1b7003b
:1017000040f1a800a09920003114210091407800f8
:1017100043f1b7004800de004114210091407800f9
:1017200044f1b70000000600fe50e20028003d0032
:1017300000d1bf0011102100914078006f4060007f
:1017400012c0b30001402100221107000080fb00fd
:1017500001002000e08f8800f18f8800e08f80007a
:10176000f18f8000e00f5000e08f58003e003a00fb
:1017700000402100c1142100914078004cf1b700d5
:101780004800de00d1142100914078004df1b700ef
:101790004e11a80041102100914078008180fb008b
:1017a00005d1bf004800dd0001007000f1142100e8
:1017b000914078004ff1b7004800de00011521008c
:1017c0009140780050f1b7004ef1a80000000600eb
:1017d00041102100914078008180fb0005d1bf00bd
:1017e0004800dd000100700001003a00d3fe370020
:1017f00040152100e1132100914078003ef1b7002f
:101800004800de00f1132100914078003ff1b7005d
:1018100041102100914078008180fb0005d1bf007c
:101820004800dd0001007000111421009140780093
:1018300041f1b7004800de002114210091407800fa
:1018400042f1b70040f1a800e099200031142100d6
:101850009140780043f1b7004800de0041142100b8
:101860009140780044f1b70000000600fe50e2000d
:101870002a003d0000d1bf000080fb0011102100b4
:1018800091407800c808dd0080807000421521007a
:1018900000402100991007000080fb00010020009b
:1018a000e08f8800f18f8800e08f8000f18f80004a
:1018b000e00f5000e08f58003e003a000040210049
:1018c000c1142100914078004cf1b7004800de00bf
:1018d000d1142100914078004df1b7004e11a800bd
:1018e00041102100914078008180fb0005d1bf00ac
:1018f0004800dd0001007000f114210091407800e3
:101900004ff1b7004800de0001152100914078003a
:1019100050f1b7004ef1a800000006004110210070
:10192000914078008180fb0005d1bf004800dd00b8
:101930000100700001003a0092fe370040152100be
:10194000e1132100914078003ef1b7004800de002d
:10195000f1132100914078003ff1b70041102100c0
:10196000914078008180fb0005d1bf004800dd0078
:1019700001007000111421009140780041f1b7007e
:101980004800de00211421009140780042f1b700a8
:1019900040f1a800209c20003114210091407800e3
:1019a00043f1b7004800de00411421009140780067
:1019b00044f1b7000000060021102100914078009a
:1019c0008180fb0003d1bf004800dd0001007000f2
:1019d000f1ff210001016000f10f2100914078002a
:1019e00010c5b30080cf50000b003e000040e9005e
:1019f00080cf5000140031006c40500080cf500068
:101a00000f0032006a40400080cf50000f003200cb
:101a10006b4050000700370030c6b30080cf500045
:101a2000090032006340400080cf50001a003200ad
:101a30007340500080cf5000af003a0002003700e2
:101a4000203f2800990b3700adfe370000d1bf00c2
:101a50000080fb001110210091407800c808dd00d3
:101a60008080700010302000808f5000a2003a006b
:101a7000e08f8000f18f80000200200013012a0017
:101a80000200700083807000760b0700fc31ef00cd
:101a9000fe31ef000000060000d1bf001110210050
:101aa000914078006f0060008c003a0000d1bf00c8
:101ab00011102100914078000068a30086003200d8
:101ac00000d1bf0001d1bf00000fb200010420000f
:101ad000810f500080003a00e30f510024003200d3
:101ae00003003e00e10f510083003a00040037007c
:101af00065005100e40f50007f003e0039003700c0
:101b0000fe50e20002003d00c3fd0700550b370008
:101b100040152100e1132100914078003ef1b7000b
:101b20004800de00f1132100914078003ff1b7003a
:101b300041102100914078008180fb0005d1bf0059
:101b40004800dd0001007000111421009140780070
:101b500041f1b7004800de002114210091407800d7
:101b600042f1b70040f1a800c093200052003700b6
:101b7000fe50e20003003d0007fd0700d08f80000b
:101b8000270b370040152100e11321009140780018
:101b90003ef1b7004800de00f113210091407800cb
:101ba0003ff1b70041102100914078008180fb0097
:101bb00005d1bf004800dd000100700011142100b4
:101bc0009140780041f1b7004800de002114210067
:101bd0009140780042f1b70040f1a800a0942000a5
:101be00035003700fe50e2001c003d0080c3b3000a
:101bf000f8fd07000000e0003f0032000040210037
:101c0000c1142100914078004cf1b7004800de007b
:101c1000d1142100914078004df1b7004e11a80079
:101c200041102100914078008180fb0005d1bf0068
:101c30004800dd0001007000f1142100914078009f
:101c40004ff1b7004800de000115210091407800f7
:101c500050f1b7004ef1a800000006004015210029
:101c6000e1132100914078003ef1b7004800de000a
:101c7000f1132100914078003ff1b700411021009d
:101c8000914078008180fb0005d1bf004800dd0055
:101c900001007000111421009140780041f1b7005b
:101ca0004800de00211421009140780042f1b70085
:101cb00040f1a80060942000311421009140780088
:101cc00043f1b7004800de00411421009140780044
:101cd00044f1b700000006004ffe370000d1bf00fe
:101ce00011102100914078000068a300010032002b
:101cf0008dfe3700ddfe0700000006000000060034
:101d0000889fbe00014478008244780002c2b3007c
:101d10009040610002c8b30001003a000141780020
:101d20000248780030019000680141001300200053
:101d30008000780008407800f60e0700cf80de00b3
:101d4000e08f8800f18f8800e08f8000f18f8000a5
:101d5000e00f5000e08f580008003a008001eb00cf
:101d6000120020000140210008407800a0fa07007e
:101d7000cf80de00e08f8800f18f88000904e0004a
:101d800006003200e48f8000f58f80000001eb0038
:101d90008000eb0004007800121007004f04be0022
:101da00000000600881f78000003780020009000e3
:101db00001f02f008100600000102000808f500093
:101dc00003003a0012c0b30081c3b300050037001e
:101dd00000202000808f500005003a0012c0b300a0
:101de00061c1b30006007800c5ff07003a00370064
:101df0006801430096009000b60390009641900061
:101e000010c5b30080cf51002d00320000c0e800a3
:101e100080cf51002a0032006340500080cf510033
:101e200029003a006108b800c000dd000000200071
:101e30001201780002024000e08248000781e900b8
:101e4000ea014300e10f4200e08f4a000b003a0034
:101e500028042000184478000884fb004544de0074
:101e600000ceb3004260b7000400be004608070081
:101e7000a10907000410070009003700280420000a
:101e8000184478000884fb004544de0000ceb3000f
:101e90004260b7008500d1000480d300ad08070080
:101ea0004544dd0042c0bf007f4060000840700034
:101eb00042e0b7000001eb006000b8000500370009
:101ec000f10f0700fbff37000001eb008000eb0083
:101ed0000080eb00c30f07004f04780000000600ed
:101ee000889fbe008a1f7800014478000245780070
:101ef000b0049000130020008200200080007800d1
:101f000008407800830e0700cf80de00e08f880055
:101f1000f18f8800e08f8000f18f8000e00f50008b
:101f2000e08f580008003a000901e8008001eb004a
:101f300001402100084078002dfa0700cf80de0024
:101f4000e08f8800f18f88000a04e000060032006c
:101f5000e48f8000f58f80000901780001402100a6
:101f6000040078009f0f07004f0578004f04be0063
:101f7000000006000400fa008001780020009000b4
:101f800001f02f008100600000102000808f5000c1
:101f900003003a0012c0b30081c3b300050037004c
:101fa00000202000808f500005003a0012c0b300ce
:101fb00061c1b30003007800c9ff070023003700a8
:101fc000330390009340900030c4b30080cf5000a2
:101fd0001200320030c6b30080cf500017003a0024
:101fe00014102000050020008481fb000200200066
:101ff0000000250000004100e08049000000400092
:1020000081804800e0bf9f00f1bf9f00060178007b
:10201000e4805700050078000b00370070002000b6
:1020200011002000e0bf9f00f1bf9f000601780073
:10203000e48057000000eb00030037000601780041
:10204000e48057000080eb00660f07000080fa0074
:10205000000006008000780002c2b300104061005a
:102060000200320001007800c2ff37000100780052
:102070004cff3700800178000141780001c2b300b5
:1020800010c060000300320061c1b300030078009b
:1020900093ff370061c1b3000300780018ff3700d9
:1020a0000001780010407800120378000202e80076
:1020b0009480fb00e3806000818240008080fb0010
:1020c000c408de000100a200e1c060000058a300c7
:1020d00009003a000280e8008001eb0004003700ac
:1020e00090437800674098008301e8000000e80012
:1020f000858f5100faff390060c6b300004a7800ae
:10210000160198000000eb002001980035019800ae
:1021100002007800d7ff37000400fa00889fbe0055
:102120000002780000c2b300144360001401900064
:1021300024009000f1ff210081026000b4049000af
:10214000e80042009441900010c5b30080cf5100d8
:1021500005003e000040e90080cf51000b00310037
:102160006d4050000700370030c6b30080cf5100eb
:10217000060032006340400080cf5100060032006c
:102180007340500080cf510059003a00040078009d
:10219000b0ff07005a0037004814de00080fb200f5
:1021a00000042000800f54000600320000082000c8
:1021b000800f5400410032000800e0002f00320080
:1021c00047003700e38f52001400320003003e0046
:1021d000e18f52004a003a00040037006580520047
:1021e000e40f500046003e00180037000604e000ef
:1021f0000400320008fc0700c0bf9f00d1bf9f0051
:102200000b0037001100be00dbfb07000001eb00f4
:102210008000eb000000eb00380037000604e0000f
:10222000060032005cfb0700d08f8000c0bf9f001b
:1022300009017800e8805700f6ff37009100780028
:10224000d18f880049fb0700f0ff37000604e0004b
:102250000500320012c0b30081c3b300040078004f
:102260001fff07002600370012c0b30081c3b30070
:1022700004007800a2fe070021003700e78f52001b
:1022800017003a000604e0000600320079f9070062
:10229000c0bf9f0009017800e8805700080078005f
:1022a000160037001100780063f907000801780074
:1022b000880078000800780010003700e78f52008f
:1022c00007003a000604e00002003200e0a78000a8
:1022d000d6ff370091007800e1a78800cbff3700d8
:1022e00011c0b3000400780062ff0700040037004b
:1022f00009017800e88057000080eb00b90e070064
:102300004f04be000080fa0000000600603121008a
:10231000612e2100623421000018eb008018eb00d0
:10232000820f5000fcff3a005cf90700ebf9070050
:10233000a109070047080700e00f5000e08f580090
:102340000400320000ceb3004260b7000048020033
:102350000100000042cebf000068a30003003a0065
:1023600017000700f00307000600370010002000e8
:10237000f0a788003ff90700e10f4000010032009c
:10238000e0a78800fcfa070000d5bf00e14f50002d
:1023900003003200e24f5000fbff3a000400370018
:1023a0000075ef00a10d07005bff0700f6ff370087
:1023b0000075ef009d0d070039ff0700f2ff3700a1
:1023c000f00f20002026880000268800dc24ef0083
:1023d000f009200030268800102688009004a8000c
:1023e000012021004808de0070268800ca24a800c9
:1023f000cc24ef00e224ef00e424ef00e624ef0019
:10240000ca24a9000000eb006022b8006033b800c5
:102410008498be008698be000000e800f00f5000cf
:10242000fbff3a00d0002000002788008200200037
:102430000100370002268800c0c4bf00e8406000e9
:10244000fcff3a008000fd004ef1b70040f1b700fc
:102450008000fd0041d1bf000100780041f1b700cc
:1024600042d1bf000100780042f1b700caa4a90020
:1024700000212100708988003631ef002231ef0001
:10248000801321000413210042122100c1112100f8
:10249000e31321000018eb00001aeb000019eb0019
:1024a0008018eb00830f5000faff3a004671ef00ee
:1024b0004831ef00000006000001eb008000eb0057
:1024c00040072000670b07008a84a9000001200054
:1024d00040248800000006008a84a8000001200033
:1024e000002688000001eb008000eb005007200070
:1024f0005c0b3700e0c4bf000018a30018003200d6
:10250000628980001280fb0092409000c808dd00c4
:102510008080700000082000808f50000f003a007b
:10252000708980009080fb00104090004800dd0022
:102530000100700041082000810f500007003a00a0
:102540001240780060496000c0c8b30012497000b2
:10255000124090000040eb0010419800e024a900d8
:102560000008200000268800000006000080fb0014
:10257000000040008180fb0001004000000040009e
:102580000281fb00020040004300dd000120210029
:1025900001004000000006000040eb0018f1b70009
:1025a00071898000114178008048610011419000dc
:1025b000904098000130a200804878009040980038
:1025c0004051e2000f003d0031142100914078009d
:1025d0008180fb0044d1bf004800dd000100700095
:1025e0000700320031142100914078008180fb0007
:1025f00044d1bf004800dd00010070000000010070
:1026000040f1a900000006004fd1bf000080fb0090
:102610000115210091407800c808dd00808070001d
:1026200005042000f0032000808f50000e003e00c3
:10263000f1142100914078008180fb0050d1bf004f
:102640004800dd008102700010c0b3001951e200a3
:102650000400320019d1bf00e14f500002003a00df
:1026600020c0b30019f1b700718980001181fb000f
:10267000114090004800dd00020070004829de0093
:102680000200700011417800e0486100914870003c
:102690004800de0011419000904098000580fb004a
:1026a00021419000a040980031409000c2cfb3007b
:1026b00002406000b0409800f11421009140780081
:1026c0008180fb0050d1bf004800dd000100700098
:1026d00005005000f1142100914078004ff1b7003f
:1026e0004800de00011521009140780050f1b7004c
:1026f000e00b2100b08888004ed1bf000002eb0043
:102700008001eb000008a300120032002500370012
:10271000b2888000c1142100914078008180fb00c4
:102720004dd1bf004800dd00010070003059780035
:10273000b2888800c1142100914078004cf1b700a4
:102740004800de00d1142100914078004df1b7001f
:102750008301e800858f5100edff3a00000006007c
:10276000b2888000c1142100914078008180fb0074
:102770004dd1bf004800dd000100700030597800e5
:10278000b2888800c1142100914078004cf1b70054
:102790004800de00d1142100914078004df1b700cf
:1027a0000402e800850f5200edff3a000000060029
:1027b000881f7800708980001080fb004600de00d2
:1027c000614460002e71aa00408a8000e80f50002a
:1027d00008003a0000d1bf000080fb00602688009e
:1027e00000012000cc04e20001003a00400020007b
:1027f000408a880018d1bf00e14f500026003a00ff
:1028000071898000e00b210041419000c040980098
:102810004800de0051419000d04098007aff070048
:1028200019d1bf00e24f500009003a0070898000c2
:102830009040780060c8600041c8b30010c87000c4
:10284000904090008040eb0011409800130037004a
:10285000718980000804e00007003a001140780008
:10286000e048600080ccb3009148700011409000b7
:10287000984098000900370011407800e048600057
:1028800080c8b30091487000114090000040eb00f8
:1028900090409800010037003fff07004f04780088
:1028a00000000600e10f21009140780000c8b3004d
:1028b00080cf500050003a0000ccb3004ef1b7007a
:1028c00001d1bf00e24f50000f003200e34f500033
:1028d00029003200e14f500046003a00801e2100de
:1028e000c1142100914078004cf1b7004800de008f
:1028f000d1142100914078004df1b7004fd1bf00b5
:1029000020c1b3003500370000d1bf000080fb00bc
:1029100000004000c139280001004000100078008c
:10292000c1142100914078004cf1b7004800de004e
:10293000d1142100914078004df1b700c11421005d
:10294000914078008180fb004dd1bf004800dd0040
:102950000100700010009000f114210091407800f7
:102960004ff1b7004800de000115210091407800ca
:1029700050f1b7000000060000d1bf00e34f500047
:102980001a003e0000d1bf000080fb0000004000a4
:10299000413928000100400010007800c1142100d6
:1029a000914078004cf1b7004800de00d1142100be
:1029b000914078004df1b700c1142100914078009a
:1029c0008180fb004dd1bf004800dd000100700098
:1029d0001080fb00f1142100914078004ff1b70006
:1029e00050d1bf005071ef00000006004e71ef00a3
:1029f000000006004e71ef00000006004ef1a80036
:102a0000e224ef00e424ef00e624ef004571ef003c
:102a100000d1bf0046f1b7004651e20003003a0082
:102a200000012000408a880000000600000220000b
:102a3000408a88001200200061142100100020004c
:102a4000080a3700be70ef00bf70ef00fed0bf0075
:102a50007f006000e10f50000b003200e20f5000d9
:102a60000b0032000000e0001c003a004ef1a8000c
:102a7000be10a800508a8000e10f500017003a00f5
:102a8000be30a800150037004ef1a8001300370033
:102a90004ef1a8000251e2000500350002d1bf004e
:102aa0006f00600000004000611321000400370047
:102ab00002d1bf006f00600000004000e112210061
:102ac00001004000100078001080fb000028a300e7
:102ad0000200320010c0b300bef0b7004e51e20059
:102ae0000b003d00e00b2100c11421009140780053
:102af0004cf1b7004800de00d1142100914078006d
:102b00004df1b7004e11a80020c0b3004ff1b7003f
:102b1000000006000200fa0000d1bf00e14f5000a3
:102b20000b003a00fed0bf007f40600008003a0072
:102b30004ef1a800ffd0bf00e34f500003003a0061
:102b400010002000508a8800010037004a31ef0051
:102b50000051e2003e003a00fed0bf007f4060001e
:102b6000e24f50003a003a0002d1bf006f406000cf
:102b7000370032004ef1a8000251e2000500350096
:102b800002d1bf006f00600000004000611321000f
:102b90000400370002d1bf006f0060000000400059
:102ba000e11221000100400010007800f0bf9f00fa
:102bb000ffd0bf00e34f500006003a007fb89700f7
:102bc00041c8b300014878008040eb0011409800f4
:102bd0001f00370002d1bf006f00600000004000fe
:102be000014e2000010040001010a100ffb9970025
:102bf000211021009140780000c8b30000c160009e
:102c0000090032008049eb000041eb00924198003e
:102c10006ff897000034a200e0ff9f00ffb8970014
:102c200000c4b3000800370080c8b30080497800b2
:102c3000924198006ff897000034a200e0ff9f00d7
:102c4000ffb8970080ccb30080487800924098008d
:102c50000080fa0000000600fed0bf000046b2006f
:102c600039003a00ffd0bf000080fb0001002000c7
:102c7000eb0f5000e08f580033003e0000060100cb
:102c800013003700130037002f0037001100370002
:102c90002d003700060037000900370026003700f6
:102ca00009003700070037000b0037001a00370013
:102cb0004ef1a80080002000408a88000000060035
:102cc000f8fe37004dff3700601421000600370082
:102cd0005cff37008fff370002d1bf000080fb0090
:102ce0005114210001004000c114210091407800de
:102cf0004cf1b7004800de00d1142100914078006b
:102d00004df1b7004e11a80010c0b3004ff1b7004d
:102d10004ef1a800000006004ef1a80002d1bf004d
:102d20000080fb005114210001004000011021002f
:102d300011487800000006000001eb008000eb0065
:102d4000200020004709070000000600708980006d
:102d5000a04090008041eb0023409800b0409000dc
:102d6000c2cfb30082c0600031409800904078002c
:102d700003c8600081ccb30010c870009040900080
:102d80001340980000000600518980002140900007
:102d900000c4b300a040980031409000c2cfb300ff
:102da00002406000b0409800e00f210041419000d7
:102db000c04098004800de0051419000d04098008b
:102dc00011407800e0486000c0c8b300914870002e
:102dd000114090000041eb00924098007089800003
:102de0009040780002c8600041c8b30010c870006d
:102df0009040900012409800000006000200fa0087
:102e00000080fb00800140000180fb000080410049
:102e10004400dd000220210002014000f2bf9f00bb
:102e20000104e00006003a006013210080804100a8
:102e3000201221001100e00006003a000d003700ca
:102e4000e0122100808041001100e0000900320002
:102e5000a011210000804100100078000000e00077
:102e6000010032008008780091007800f1bf9f00d7
:102e700001003700820878007fb897001074a10025
:102e80001064a1006ff897000034a200e0ff9f00db
:102e90007fb897001074a1001064a0000080fa00b1
:102ea00000000600889fbe00004478000080fb0000
:102eb00000004000024e200002004000014878005f
:102ec0008184fb000938a300030032008040eb003e
:102ed00008407800c9ff07000928a300030032005a
:102ee00011c0b30008407800c4ff07004f04be00c3
:102ef0000000060080417800014078000304e000f3
:102f00001c003a00518980002140900000c4b300a9
:102f1000a040980031409000c2cfb3000240600052
:102f2000b0409800e00f210041419000c04098005f
:102f30004800de0051419000d040980011407800d8
:102f4000e0486000c0c8b300914870001140900094
:102f500093409800708980009040780060c86000bd
:102f600041c8b30010c87000904090001340980012
:102f7000000006008380fb00818040000080fb0091
:102f800080804000c408dd00022021000281400052
:102f90009281fb00124090004800dd0003007000a9
:102fa0004008b300004978004800de001041980056
:102fb00080202100808040001181fb0011409000a2
:102fc0004800dd00020070004008b300804878002f
:102fd0004800de0090409800000006000080fb00e2
:102fe0000104e0000300320000004000e112210073
:102ff0000200370000004000611321000100400082
:10300000100078009080fb00104090004800dd0028
:10301000010070004700de000000a20061006000b7
:1030200000000600004378008082fb0081437800a6
:103030000104e0000300320005804200e11221009b
:1030400002003700058042006113210001004000aa
:10305000100278008682fb004440900042429800b3
:103060004810de00d4409000504298001480fb00cd
:10307000944090000004b2009440780060ca600060
:10308000144a70004800de009440900010429800fe
:1030900003017800f23fb2002440900023429800e0
:1030a0004811de0034409000c1cfb3000140600001
:1030b00002407000304298009480fb001440900061
:1030c0004800dd00010070008008b30094407800e3
:1030d00060ca6000144a70004800de00944090000e
:1030e000104298000704e00003003200058042000f
:1030f000e112210002003700058042006113210027
:10310000010040001034a200040078000000060016
:10311000889fbe008a9fbe0080407800cac4bf005e
:103120000058a300780032008183fb0087834300ae
:10313000e012210080834300970278001583fb0092
:10314000154290004822dd000600720025439000e1
:103150000683fb00354290004822dd0086007200a5
:10316000454390000683fb00554290004822dd0055
:1031700006017200654390000683fb0075429000d3
:103180004822dd00860172000804200009002000aa
:103190006055b80000006400818064000201650091
:1031a0008381650015427800e04a6200954a70000c
:1031b0004802de001543900094429800254290009a
:1031c000a1429800480ade0035439000b4429800be
:1031d00045429000c24298004812de0055439000dc
:1031e000d442980065429000e34298004818de00ff
:1031f000f5409000f0429800970278001583fb009c
:10320000154290004822dd00060072002543900020
:103210000683fb00354290004822dd0086007200e4
:10322000454390000683fb00554290004822dd0094
:1032300006017200654390000683fb007542900012
:103240004822dd008601720000006c0081806c0065
:1032500002016d0083816d0015427800e04a620032
:10326000954a70004802de00154390009442980091
:1032700025429000a1429800480ade0035439000a4
:10328000b442980045429000c24298004812de00c5
:1032900055439000d442980065429000e342980064
:1032a0004818de00f5409000f04298001734a20064
:1032b000170078009080fb00104190000104b200dc
:1032c000104178006048610010c87000c808de0036
:1032d0001041900011409800970078001181fb0088
:1032e000114090004800dd00020070000060a20064
:1032f00011427800e0486200914870004800de000a
:1033000011419000904098004f05be004f04be0050
:10331000000006000000eb00502688001026880000
:10332000408a880000000600408a80000000e0001b
:1033300013003a005026880010268800e0268800f6
:10334000f009200030268800102688006bc8bf00d6
:1033500081cfb300014060000024a0006be8b700fb
:103360002ac8a80001003700ca04a800cac4bf00c8
:103370000008a300fcff320010002000408a8800f3
:1033800000000600881f7800caa4a9004ed1bf0023
:1033900001c8b3000142600004003a004051e2005d
:1033a0005c00350078fe07008400370040d1bf0084
:1033b0000144600081003a00fed0bf00014260007d
:1033c0005400320004d1bf000080fb0052102100e5
:1033d000124178004811dd0000017100f114210054
:1033e000914078008180fb0050d1bf004800dd0093
:1033f00001007000800f51000d00310041102100cc
:10340000914078008180fb0005d1bf004800dd00bd
:1034100001007000f1142100914078004ff1b700d5
:103420004800de00011521009140780050f1b700fe
:1034300075fc070010c0b30018f1b7005189800077
:103440002140900005c4b300a54098003140900091
:10345000c4cfb30004406000b0409800e20f2100e8
:1034600082017800f30fb20041409000c340980001
:103470004811de0051409000d24098001140780081
:10348000e04860001174a00011409000984098003e
:103490001231ef006189800021409000a540980022
:1034a0003140900004406000b040980041409000de
:1034b000c340980051409000d240980011407800dd
:1034c000e048600040c8b30091487000114090008f
:1034d0009840980010002000908888007089800033
:1034e000e10b21004041900041409800c808de00f7
:1034f00050419000514098009040780060c86000b2
:1035000081ccb30010c87000904090001840980023
:103510002a00370020c0b30018f1b7004110210085
:10352000914078008180fb0005d1bf004800dd009c
:10353000810170000d003a0070898000a040900069
:1035400023409800b0409000c2cfb30082c060001a
:10355000314098009040780060c8600081ccb30092
:1035600010c870009040900013409800518980006e
:103570002140900000c4b300a0409800314090006a
:10358000c2cfb30002406000b0409800e00b2100c1
:1035900041419000c04098004800de005141900039
:1035a000d040980011407800e048600080ccb30023
:1035b0009148700011409000944098004f047800aa
:1035c00000000600718980001104e00005003d0044
:1035d00011407800e0486000114090000040eb008e
:1035e000904098001971ef001871ef004fd1bf00a3
:1035f0004f71ef0050d1bf005071ef004e71ef00de
:1036000041d1bf004171ef0042d1bf004271ef00d4
:103610004071ef0043d1bf004371ef0044d1bf00c0
:103620004471ef008cfd07000001eb008000eb000f
:10363000300020000b07070040d1bf000058a30056
:1036400004003a004ed1bf000058a30001003a0028
:103650004cff0700000006004051e2000100350069
:10366000c9fd370070898000a04090008041eb00c8
:1036700023409800b0409000c2cfb30082c06000e9
:10368000314098009040780003c8600081ccb300be
:1036900010c87000904090001340980040f1a900bd
:1036a0000000060060898000a0409000304090003b
:1036b000814178000181fb001114210091407800c4
:1036c0008180fb0042d1bf004800dd000100700096
:1036d000800f51000500360041d1bf0021142100a8
:1036e00091407800804178000e00370011142100cd
:1036f000914078008180fb0042d1bf004800dd008e
:103700000100700002005000111421009140780067
:1037100041f1b7004800de002114210091407800fb
:1037200042f1b7000002eb00e50b21001100370069
:103730003ed1bf000080fb00f113210091407800d2
:10374000c808dd00808070000280fb00050040009a
:10375000905878003ed1bf00010078003ef1b700dc
:10376000c808de003fd1bf00010078003ff1b7007c
:103770000402e80004417800834f5200ecff390056
:103780005289800011142100914078008180fb0053
:1037900042d1bf004800dd008101700020003200ee
:1037a0002240900000c4b3002041980032409000b5
:1037b000c1cfb3000140600030419800e00b210010
:1037c000c2409000404198004800de00d240900086
:1037d000504198006089800003c4b30090c061002c
:1037e00007003a00124078006049600080ccb300c6
:1037f000124970001240900011419800000006002c
:103800009241780060c9610080c8b300124970001d
:10381000124090000040eb001041980000000600ac
:103820002240900000c4b300204198003240900034
:10383000c1cfb3000140600030419800e00f21008b
:10384000c2409000404198004800de00d240900005
:1038500050419800124078006049600040c8b300b1
:1038600012497000124090001341980040f1a900e5
:1038700040b1a90031142100914078008180fb0003
:1038800044d1bf004800dd00010070000700320095
:1038900031142100914078008180fb0044d1bf00a9
:1038a0004800dd00010070000000010040d1bf00b1
:1038b0000058a30001003a0067ff0700000006005f
:1038c00018d1bf00e24f500001003a0075ff3700e9
:1038d00031fb0700938880000300e00015003a00e8
:1038e000518980002140900000c4b300a04098009e
:1038f00031409000c2cfb30002406000b040980059
:10390000e00f210041419000c04098004800de00d7
:1039100051419000d040980011407800e04860008c
:10392000c0c8b300914870001140900093409800c7
:10393000000006001231ef000000060014d1bf00a5
:1039400080027800b50fb20026003a0014d1bf0003
:10395000c00fb2000000d000012021008101400012
:1039600063898800538988002a71aa00c0c3b30004
:10397000934060006840500080cf500018003a002b
:10398000434090000080fb00d3409000c808dd0059
:1039900000827000e00b2100800f52000f003a00ff
:1039a000e00f2100c3409000c0419800c800de0035
:1039b00053419000d14198000501780080027800c1
:1039c00084017800850041000300410090487800a0
:1039d0000201e800e80f5100faff3a00f9fe370053
:1039e000b7ff370014d1bf00b00fb200e80f50008e
:1039f00001003a006efb0700000006003600f800e8
:103a0000809fbe00829fbe00849fbe00869fbe0036
:103a1000889fbe008a1f78003200f8000020200036
:103a20009001880000000000408a8000e10f5000f3
:103a300006003a00f00f200000268800c204a8000b
:103a4000c284a80020002000408a880088c4bf00eb
:103a50000048a300060032008ac4bf000048a3004b
:103a600003003200000120004024880092fa070081
:103a700090c4bf000018a30071003a00c0c4bf008a
:103a80000008a30013003200c2c4bf000008a30056
:103a9000100032004afa070040002000408a8800e7
:103aa000e00f2100209088001090800001c02f00be
:103ab000010060000060a0001090880030f02f002e
:103ac0000032b600c00820000032b700100020000d
:103ad00000268800c0c4bf000048a30006003200d2
:103ae000c2c4bf000048a300030032007afa0700f6
:103af0000001200000268800c0c4bf000028a300e9
:103b000009003200c2c4bf000028a3000600320032
:103b1000120020008000eb0030072000d1050700d4
:103b20004000200000268800c044e20003003d0061
:103b3000c244e20001003d006efa0700c0c4bf00ad
:103b40000018a3000b003200c2c4bf000018a3007d
:103b500008003200120020008000eb00f0ff270078
:103b6000c0050700f00f200020268800200020005c
:103b700000268800408a8000e30f500030003600a5
:103b8000c2c4bf000038a3002d0032004ac0b300f9
:103b9000c0c4bf000038a3002900320040268000c6
:103ba00014f1b700800020000026880014d1bf0067
:103bb000000fb20002003a0060ff07001e0037004d
:103bc00014d1bf00000fb2004480de0080447800b2
:103bd00048112100184478006804640043c4de00e2
:103be0004211210012417800640161004291de001f
:103bf0000204a200884078005cfa07000001780007
:103c00000980fb000804e00003003a0000004000c7
:103c1000211221000200370000004000a111210004
:103c200001004000020878000001eb004111210072
:103c3000200720008b0507000a45e900d4ff3a0061
:103c40000ac8a9003200f9004f0578004f04be00f1
:103c50004f03be004f02be004f01be004f00be002a
:103c60003600f900004006000002be0002034000da
:103c7000e08348000e0037004028de0001002000ed
:103c8000a00288001400ba009480ba00804978002d
:103c90004800de0090419800a1419800c808de006d
:103ca000b1419800e481410062024200e0824a0092
:103cb000860f5200878f5a00efff39000000060080
:103cc000889fbe008a9fbe008c9fbe000002be007f
:103cd00002067800030478006055b8008006eb0007
:103ce00037003700184090004800dd009880fb0046
:103cf000810440004029de0003002000a202880069
:103d00009403ba008500d1000480d300eb4f50002b
:103d100026003e000080fb0000004000014d210015
:103d20000100400010037800868063000680640074
:103d3000808f50001d00320062398800543988009d
:103d40000000240040398800a00f2000a002880055
:103d500042c0bf000080fb00c503de0000ceb30000
:103d60004260b7008680ea0081807400810ebb004b
:103d70000700fc005005200070398800a00a2000d0
:103d80007039880029e7a80000000000000000004a
:103d90002947e200feff3500c538dd0042c0bf0004
:103da0007f4060000140700042e0b70064054500bc
:103db000e0854d006404440062024200e0824a0053
:103dc0006160b800800f5500818f5d00c5ff39002c
:103dd0004f06be004f05be004f04be0000000600a7
:103de000889fbe008a9fbe008c1f78000003be0023
:103df00002067800830578004008de0000017800a4
:103e0000a0028800060278000004eb008802780017
:103e100086047800fa0f2000034020001400ba0046
:103e20009480ba00e10f400003003a00f10fb200a5
:103e30008a8f500001003200180020008502e8003f
:103e40000482e800838f5200f4ff3a000800e0008b
:103e500018003200300024004039880062398800a0
:103e60005939880042c0bf000080fb00c500de0059
:103e700000ceb3004260b7000700fc0050052000f0
:103e800070398800a00a20007039880029e7a8004e
:103e900000000000000000002947e200feff35009e
:103ea000c508dd0042c0bf007f40600001407000d7
:103eb00042e0b7006044b8000a0820004038de0045
:103ec000010020006039880056398800a00f2000ca
:103ed000a00288008c0144000b0144000002eb00aa
:103ee00084027800b300780032007800010abb0039
:103ef000009abb008502e8008a8f5200f9ff3a0061
:103f0000200024004039880042c0bf000080fb0030
:103f1000c500de0000ceb3004260b7000700fc0021
:103f20005005200070398800a00a200070398800f0
:103f300029e7a80000000000000000002947e20077
:103f4000feff3500c508dd0042c0bf007f406000b5
:103f50000140700042e0b7000610b0000780b000da
:103f60000810b0000980b00000802000800f5400cd
:103f7000e08f5c00d1ff3a004f0678004f05be008d
:103f80004f04be0000000600e4874700889fbe0083
:103f90008a9fbe008c9fbe008e1f78000005be0069
:103fa00082bf9f000307780000802f000a00600096
:103fb0008b017800000178000204be0040a7800059
:103fc00051a78000880f5000898f580021003200cf
:103fd000e00f5000e08f5800040035000435ec007d
:103fe0006350210062d021007dff0700e00f5400e4
:103ff000e08f5c00150035000235ec0040c8de00a3
:10400000cf80de00a00288000802be000003eb00a3
:104010006dd021006c502100074020001401ba002f
:104020009481ba00060043008d00400082087800a9
:104030000c004000030878000603e800620242001a
:10404000e0824a00870f5300f4ff3a0048a7880037
:1040500059a788004550dd004600de008e0278003a
:104060000003eb0068d021006750210011003700e9
:1040700080017800f33fb200038141000802410053
:10408000154090004800dd009580fb00010a4000cb
:1040900007014100b5409000c808dd0025409000b0
:1040a0000080fb0000894000640343000300e80037
:1040b000e48242008fb89700810f5300ecff390073
:1040c0004f0778004f06be004f05be004f04be00ec
:1040d0004f00b10000000600889fbe008a9fbe000e
:1040e0008c9fbe000005be000206be008004eb00ef
:1040f00012003700f17f2000810065000080200061
:104100000100500000004000000478000900560043
:10411000880f5000010031000004780089814600ba
:10412000080178000a00be0097ff07000800d100d0
:1041300000054500e0854d00888444008c8f5400c4
:10414000ecff39004f06be004f05be004f04be0015
:1041500000000600889fbe008a9fbe008c9fbe00a4
:104160000004be000206be00101020000080fb000c
:1041700001002000c000dd0000002000020025003a
:1041800002054000e085480004002000850f200063
:104190000980620001002000c000dd000000200056
:1041a000840f5000858f580003003a000c017800fe
:1041b0000800be00c2fe07008a0f54008b8f5c000f
:1041c000020031000804450089844d000a004500c2
:1041d0008b804d00800f5400818f5c000300310004
:1041e0000c01be000800be00bbff07004f06be006a
:1041f0004f05be004f04be0000000600889fbe00b1
:104200008a9fbe00101020000080fb0001002000eb
:10421000c000dd0000002000020025000201400077
:10422000e08148000200410083804900620550009f
:10423000e08558000203be006044b800100037005b
:104240004038de0001002000a00288001601ba00fc
:104250001682ba000280fb0000004400e0804c009f
:104260004811de0002014000e08148000482fb00aa
:1042700004044100e084490062034300e0834b00f2
:104280008a0f53008b8f5b00edff39000980fb0024
:1042900080017800080178000200be004f05be00d2
:1042a0004f04be0000000600f40f20001210200092
:1042b0000401610003002000c011dd0002002000a5
:1042c0000000250000004100e0804900000040009f
:1042d0008180480062005000e08058004009de0004
:1042e00003002000a20288001001ba001080ba006a
:1042f00001002000c000dd0000002000020140009d
:10430000e081480003026200840278000202780023
:104310000400be0000000600889fbe008a9fbe0009
:104320008c9fbe008e1f7800101020000081fb00c3
:1043300003002000c011dd00020020000400250061
:10434000050020000206420083864a006044b8004f
:10435000f00fb20001002000c000dd0000002000ce
:104360000005420081854a003200370008034500fd
:1043700089834d0040b8de00cf80de0080017800e8
:10438000a00288000602be0002402000fe0f2000ae
:104390001400ba009480ba00e10f400009003a000e
:1043a000f10fb2008e8f500006003a000201e900c2
:1043b00062024200e0824a000200e000190032007e
:1043c000f3ff37003000240040398800633988004b
:1043d0005639880042c0bf000080fb00c500de00e7
:1043e00000ceb3004260b7000700fc00500520007b
:1043f00070398800a00a20007039880029e7a800d9
:1044000000000000000000002947e200feff350028
:10441000c508dd0042c0bf007f4060000140700061
:1044200042e0b700008020000100200008044000a6
:10443000898448008c0f54008d8f5c00cbff3900bd
:104440004f0778004f06be004f05be004f04be0068
:1044500000000600889fbe00f40f2000101020000e
:104460000400600001002000c000dd00000020000a
:104470000200250002014000e08148004018de00f3
:1044800001002000a00288001200ba009280ba0049
:1044900000017800e10f400005003a00f10fb20082
:1044a0006011b800848f5000100032000d003700fa
:1044b00000202000800f51000a003a00e4cf500095
:1044c00008003a004dff07000004be0076ff070019
:1044d0001200200003002000800f5400818f5c0038
:1044e000020032008cff07006011b8000200be001d
:1044f0004f04be0000000600fa874700889fbe00f8
:104500008a9fbe008c9fbe008e1f78003bff070075
:104510000004be0064ff0700800f5400818f5c0020
:10452000020032007cff0700b700370016102000a1
:10453000f00f20000002630005002000c022dd0013
:10454000040020000c0025000d002000040246009d
:1045500085824e001a1020000b0020000a0178000e
:104560000000650001002000c000dd000000200008
:1045700008802400090020000000440081804c00d5
:104580000002520081825a00d4af9f00e5af9f0025
:104590006000b80090b79f00a1b79f00bab79f0016
:1045a000cbb79f00f20fb20003002000f60fb2005d
:1045b000c011dd00020020000201440083814c0094
:1045c000d2b79f00e3b79f0007002000c033dd0093
:1045d000060020000603460087834e00f6b79f00c2
:1045e00087bf9f00810037001fb19700afb19700d0
:1045f0005fb29700efb297000200420083804a004a
:104600007fb197008fb99700000141008181490077
:10461000f2af9f0083b79f000002be0082017800c6
:1046200000017800cfb497007fa897008fb0970063
:10463000400dde000b002000402bde0007002000b4
:104640000607780084067800aa0288009300ba0062
:104650001386ba00a60288001200ba001284ba00bb
:10466000808f500009003a00880f560007003a007a
:104670008984e8008381e8000281e800018020004d
:10468000818f540051003200efff370030002400ca
:10469000403988006e3988005d39880042c0bf000b
:1046a0000080fb00c500de0000ceb3004260b70012
:1046b0000700fc005005200070398800a00a200087
:1046c0007039880029e7a800000000000000000001
:1046d0002947e200feff3500c508dd0042c0bf00eb
:1046e0007f4060000140700042e0b7006033b800d6
:1046f000ab0f20000a1020002900240006047800d7
:104700004028de000100200060398800543988000c
:104710000006eb006140b9007fa997008fb19700b8
:1047200002004000838048004009de0003002000b2
:10473000a20288009001ba001080ba00ab02880083
:10474000030ebb00008ebb000884e8000c86e80066
:104750008a0f5600efff3a004939880042c0bf0077
:104760000080fb00c500de0000ceb3004260b70051
:104770000700fc005005200070398800a00a2000c6
:104780007039880029e7a800000000000000000040
:104790002947e200feff3500c508dd0042c0bf002a
:1047a0007f4060000140700042e0b7000410b0009c
:1047b0000580b0000610b0000780b0000180200026
:1047c000810f5300e08f5b00ccff3a000080200097
:1047d000010020001fb19700afb197000201400017
:1047e0008381480092b79f00a3b79f001fb2970034
:1047f000afb297005fa89700efa89700800f520014
:10480000818f5a0078ff35004f0778004f06be00b1
:104810004f05be004f04be00af01b100000006000e
:104820000149210080a488004cd1bf00010078001c
:104830004cf1b700c808de004dd1bf000100780080
:104840004df1b7004e11a8004fd1bf0020c0b300fa
:104850004ff1b70050d1bf005071ef004ef1a800ea
:10486000000006000249210080a4880091a488006d
:104870004cd1bf00020078004cf1b7004811de00b7
:104880004dd1bf00020078004df1b7004e11a800d5
:104890004fd1bf0040c0b3004ff1b70050d1bf00af
:1048a0005071ef004ef1a800000006000001eb007f
:1048b00003492100f40320000300370081597800e8
:1048c0000201e8000000e800904078000104e000e8
:1048d00002003200840f5100f8ff3a000149210024
:1048e000010041000048eb000200e800c214210072
:1048f000124178008000fd004cf1b7008000fd00ff
:10490000c808de00d2142100124178008000fd00aa
:104910004df1b7008000fd004e11a800f1142100f8
:10492000914078004ff1b7004800de0001152100ea
:104930009140780050f1b7004ef1a8000000060049
:104940000101780001042000810f510001003600b0
:10495000010178008000eb000349210002003700cc
:10496000b05978008100e800828f5000fcff3900c8
:1049700000492100c1142100914078004cf1b7009a
:104980004800de00d1142100914078004df1b700bd
:104990004e11a8004fd1bf00020078004ff1b700c0
:1049a0004810de00011521009140780050f1b70059
:1049b0004ef1a800000006001400fa0022102000aa
:1049c0000281fb0003002000c011dd000200200076
:1049d00000002a0000004100e0804900f4815700f7
:1049e000a2002000a0fc070010002000f480570067
:1049f0000f0178008081eb00918f110001003200df
:104a00000000eb00e4804000828f5000f9ff3a0084
:104a10000000e0000600320074805700820720008a
:104a20000208780064004000810f5000fcff3a004b
:104a3000621d210074805700101978006400400046
:104a4000810f5000fcff3a000080fa0000000600d1
:104a50001400fa00201020000080fb00010020005c
:104a6000c000dd000000200002002a00020040001b
:104a7000e0804800641d2100748157008082eb00b3
:104a80008f01780034097800150198006401410015
:104a9000830f5100fbff3a00f481570042012000d0
:104aa0008dfd0700f48157000001eb000080eb0052
:104ab0008080eb0034fd07000080fa000000060053
:104ac000621d2100540020008281e8000100e00006
:104ad0000200340030097800010037000009eb00c3
:104ae000030178008180e9000402e900f6ff3a0042
:104af000d7ff37001000fa00881f78008002780086
:104b000001027800221020000281fb000300200037
:104b1000c011dd000200200000002a00000041005a
:104b2000e0804900040478004329dd007001410061
:104b3000cf91de000000410081804900f2815700e2
:104b40008200200048fc0700728057008f80e90037
:104b5000101c780064004000810f5000fcff3a00f8
:104b60004f0478000080fa00000006001000fa00f0
:104b700000037800221020000281fb0003002000c7
:104b8000c011dd000200200000002a0000014100e9
:104b9000e0814900708057008082eb000f027800ae
:104ba000310878001500980064004000840f500020
:104bb000fbff3a004330dd0070004000cf80de0094
:104bc0000200400083804800f0815700020120006d
:104bd00041fd0700f08157000001eb000080eb0071
:104be0008080eb00e8fc07000080fa00000006006f
:104bf00004d1bf000080fb005110210091407800db
:104c0000c808dd00808070008100d10000492100cb
:104c1000abff070040f1a80000000600881f7800e5
:104c200002102100124178000281fb0001d1bf0077
:104c30004800dd000200700001002000c000dd001f
:104c40000000200082a4800002024000e0824800b0
:104c500041102100914078008180fb0005d1bf0008
:104c60004800dd00010070000081e900e10f420012
:104c7000e08f4a0009003a0000ceb3004260b7005e
:104c8000cac4bf00234921000400be00befc0700c7
:104c900019fe07000000fe000f0037002804200066
:104ca000184478000884fb004544de0000ceb300c1
:104cb0004260b7008500d1000480d3002349210061
:104cc00024fd07004544dd0042c0bf007f40600076
:104cd0000840700042e0b70040f1a8004f0478009f
:104ce0000000060021102100914078008180fb0027
:104cf00003d1bf004800dd00010070000149210020
:104d00009aff070040f1a80000000600000006001e
:104d1000000006005231ec00000006000000060012
:104d2000fed0bf000046b20001c4b300814f500066
:104d300036013a00f10f21009140780000c5b30020
:104d400080cf50007c0032000f003e006d405000cc
:104d500080cf5000a400320004003e0000c0e900f3
:104d600080cf500028013a003700370070c4b300ec
:104d700080cf5000cb0032006740400080cf500011
:104d800021013a00a400370050c5b30080cf500085
:104d9000ac00320007003e006440500080cf50005d
:104da0008600320000c0e80080cf500016013a00b3
:104db0008200370020c6b30080cf500004003200cc
:104dc0000040e80080cf50000f013a000a00370091
:104dd00002d1bf000080fb0031102100914078001b
:104de000c808dd0080807000f0062000808f500031
:104df000d60032009200370002d1bf000080fb00d5
:104e00003110210091407800c808dd0080807000da
:104e1000f0062000808f500089003a001210200018
:104e20000281fb0003002000c011dd000200200011
:104e30000000250000004100e08049000000400023
:104e4000818048007d0037000110210091407800ea
:104e50008180fb0001d1bf004800dd00010070002f
:104e6000e10f50000900320005003900e20f500048
:104e700014003200e30f5000e4003a001c00370039
:104e8000309a8000cf80de006c00370002d1bf0076
:104e90000080fb003110210091407800c808dd003f
:104ea00080807000309a8000808f5000d7003100e1
:104eb0004208dd0081362100010040001000be00e4
:104ec0005e00370002d1bf000080fb0031102100de
:104ed00091407800c808dd0080807000309a800022
:104ee000808f5000c900310001804000c2003700af
:104ef00002d1bf000080fb003110210091407800fa
:104f0000c808dd0080807000349a80000000eb004b
:104f1000853621006109b80004003700b50f510043
:104f2000b58f5900b30032000000e800840f500034
:104f3000faff39000000060002d1bf000080fb002c
:104f40003110210091407800c808dd008080700099
:104f5000f0062000808f500039003a0000492100ff
:104f6000e1132100914078003ef1b7004800de00d7
:104f7000f1132100914078003ff1b700411021006a
:104f8000914078008180fb0005d1bf004800dd0022
:104f900001007000111421009140780041f1b70028
:104fa0004800de00211421009140780042f1b70052
:104fb00040f1a800e06022008600370002d1bf0067
:104fc0000080fb003110210091407800c808dd000e
:104fd00080807000f0062000808f500018003a009a
:104fe0000000fe000000060002d1bf000080fb00b0
:104ff0003110210091407800c808dd0080807000e9
:10500000f0062000808f50000d003a007000200054
:1050100011002000090037000110210091407800a4
:105020008180fb0001d1bf004800dd00010070005d
:10503000f40f500002003a006000b80009fe37008b
:105040005df2370000492100e11321009140780012
:105050003ef1b7004800de00f113210091407800d6
:105060003ff1b70041102100914078008180fb00a2
:1050700005d1bf004800dd000100700011142100bf
:105080009140780041f1b7004800de002114210072
:105090009140780042f1b70040f1a800805f220003
:1050a0004c00370001102100914078008180fb0006
:1050b00001d1bf004800dd0001007000e10f500089
:1050c00003003200e20f500050003a002100370088
:1050d00002d1bf000080fb00311021009140780018
:1050e000c808dd0080807000d0072000808f50004d
:1050f00046003e0021102100914078008180fb0095
:1051000003d1bf004800dd0001007000014921000b
:1051100078fe070000492100c11421009140780069
:105120004cf1b7004800de00d11421009140780016
:105130004df1b7004e11a8004fd1bf0080c0b300a1
:105140004ff1b70050d1bf005071ef004ef1a800f1
:105150000000060002d1bf000080fb0031102100da
:1051600091407800c808dd0080807000d0072000e2
:10517000808f500025003e0000492100e1132100ee
:10518000914078003ef1b7004800de00f1132100a5
:10519000914078003ff1b700411021009140780024
:1051a0008180fb0005d1bf004800dd0001007000d8
:1051b000111421009140780041f1b7004800de0051
:1051c000211421009140780042f1b70040f1a8007d
:1051d00020672200311421009140780043f1b7008c
:1051e0004800de00411421009140780044f1b700ee
:1051f0000000060000004000813421000100400052
:1052000010007800a9fd3700ebf107000000060050
:1052100000000600889fbe008a1f78000080fb0007
:10522000c404de006804600043c4de006400600063
:105230004285de000a417800884078000940780005
:10524000caf40700800178000a417800884078009d
:1052500009407800a9f207004f0578004f04be000e
:105260000000060000017800e30f50000d0032003e
:1052700003003e00e10f500010003a000700370025
:1052800020072000800f51000a0032000000e800d3
:10529000800f510009003a0004003700e9040700bc
:1052a000060037009efe0700040037005231ec0074
:1052b0000200370011407800d6ff070010000500fb
:1052c0000000eb00e2062100e10121008018eb0064
:1052d0008018eb000019eb000019eb000000e8005b
:1052e000f40f5000f9ff3a00000006003600f80005
:1052f000809fbe00829fbe00849fbe00869fbe002e
:105300003200f8000020200090018800000000001a
:105310000010e20003003a00100020000080880026
:10532000e7ff0700fad4bf00e14f50000b003a003e
:1053300008c2bf000038a30006003a000830ed00a4
:10534000408080000000e00004003a00faf4b7005a
:1053500002003700a000200040808800f2d4bf0087
:10536000e14f50000b003a0018c2bf000038a30004
:1053700006003a000230ed00108080000000e000de
:1053800004003a00f2f4b70002003700a000200049
:1053900010808800fad4bf00e34f500003003200b1
:1053a000fad4bf00e74f500020003a00f834ec0078
:1053b000c1a7800040062000808f50000800340004
:1053c000f834ef005083800061838000610040006a
:1053d000e080480050838800618388000642a8006e
:1053e00008c2bf000038a30002003200f414e2003b
:1053f0000e003200f834ef00fad4bf00e34f500043
:1054000002003a0040c0b3000100370080c0b30082
:10541000faf4b700f414e20003003200f434ef00b1
:105420000622a800010037000602a800f2d4bf003f
:10543000e34f500003003200f2d4bf00e74f5000aa
:1054400020003a00f034ec0081a7800040062000e4
:10545000808f500008003400f034ef00d0858000c9
:10546000e185800061004000e0804800d085880030
:10547000e18588001642a80018c2bf000038a300ca
:1054800002003200ec14e2000e003200f034ef00b3
:10549000f2d4bf00e34f500002003a0040c0b30016
:1054a0000100370080c0b300f2f4b700ec14e20052
:1054b00003003200ec34ef001622a8000100370090
:1054c0001602a8000388a9003200f9004f03be00ad
:1054d0004f02be004f01be004f00be003600f90073
:1054e00000400600809fbe00829fbe003200f80090
:1054f0000020200090018800000000000200fa0057
:105500000228a90009c2bf000028a3001b00320026
:105510000942a900fad4bf000080fb004200dd0070
:10552000e1012100010040001200200003002000e2
:10553000100841005090490053808000c3808800cb
:1055400060808000d0808800fad4bf00e44f500013
:105550000a003900e64f5000040036006840500051
:10556000e44f500005003e000200370030c0b30099
:105570000100370070c0b300faf4b700fad4bf00de
:10558000e84f5000280032000b003e00e44f50006e
:105590001100320003003e00e24f500052003a007a
:1055a0004f003700e54f500015003200e64f500025
:1055b0004d003a003f003700ea4f5000280032000b
:1055c00020003900eb4f500028003200ec4f500013
:1055d00045003a003a0037001cd0bf000080fb00b5
:1055e000000040001010880050c0b3001a10e20004
:1055f00001003a0060c0b300faf4b7003a00370087
:105600000942e20011003500c0808000b080fb003c
:1056100011108800c08088001a30ed001a10e200d6
:1056200031003a00f3ff37001cd0bf000080fb00c0
:10563000000040000000a0001010880090c0b300df
:10564000edff37000942e20003003d000642a800da
:1056500016b0ef001d00370000108000f0bf9f0063
:105660000662a800b0c0b300e3ff370008c2bf0065
:105670000018a30004003200c080800001108000e8
:1056800001587800c08088001a30ed001a10e2003e
:1056900003003a0006a2a800c0c0b3000200370011
:1056a00006a2a900a0c0b300faf4b7000682a800c1
:1056b0000d0037000942e20001003d0016b0ef0086
:1056c000f614e20003003a000642a80020c0b3002e
:1056d000c9ff370010002000a0a788000100370094
:1056e000f434ef00fa74ef000080fa003200f900a1
:1056f0004f01be004f00be0000400600809fbe006c
:10570000829fbe003200f800002020009001880037
:10571000000000000200fa000648a90019c2bf00fc
:105720000028a3001b0032001942a900f2d4bf00d8
:105730000080fb004200dd00e10621000100400086
:105740001200200003002000100841005090490082
:1057500023808000838088003080800090808800d3
:10576000f2d4bf00e44f50000a003900e64f500069
:105770000400360068405000e44f500005003e0031
:105780000200370030c0b3000100370070c0b30022
:10579000f2f4b700f2d4bf00e84f50002800320006
:1057a0000b003e00e44f50001100320003003e00a9
:1057b000e24f500052003a004f003700e54f5000d2
