:020000040000fa
:080000000002040000000000f2
:020000040000fa
:10000800a8020000a8020000a8020000a802000040
:10001800a8020000a8020000a8020000a802000030
:10002800a8020000a8020000a8020000981300001f
:10003800a8020000a8020000a8020000d0140000d6
:10004800a8020000a8020000a8020000a802000000
:10005800a8020000a8020000a8020000a8020000f0
:10006800a8020000a8020000a8020000a8020000e0
:1000780002150000a8020000a8020000a802000063
:10008800a8020000a8020000a8020000a8020000c0
:10009800a8020000a8020000a8020000a8020000b0
:1000a800a8020000a8020000a8020000a8020000a0
:1000b800a8020000a8020000a8020000a802000090
:1000c800a8020000a8020000a8020000a802000080
:1000d800a8020000a8020000a8020000a802000070
:1000e800a8020000a8020000a8020000a802000060
:1000f800a8020000a8020000a8020000a802000050
:10010800a8020000a8020000a8020000a80200003f
:10011800a8020000a8020000a8020000a80200002f
:10012800a8020000a8020000a8020000a80200001f
:10013800a8020000a8020000a8020000a80200000f
:10014800a8020000a8020000a8020000a8020000ff
:10015800a8020000a8020000a8020000a8020000ef
:10016800a8020000a8020000a8020000a8020000df
:10017800a8020000a8020000de0b0000a802000090
:10018800a8020000a8020000a8020000a8020000bf
:10019800a8020000a8020000a8020000a8020000af
:1001a800a8020000a8020000a8020000a80200009f
:1001b800a8020000a8020000a8020000a80200008f
:1001c800a8020000a8020000a8020000a80200007f
:1001d800a8020000a8020000a8020000a80200006f
:1001e800a8020000a8020000a8020000a80200005f
:0801f800a8020000a8020000ab
:020000040000fa
:10020800a8020000a8020000a8020000a80200003e
:10021800a8020000a8020000a8020000a80200002e
:10022800a8020000a8020000a8020000981300001d
:10023800a8020000a8020000a8020000d0140000d4
:10024800a8020000a8020000a8020000a8020000fe
:10025800a8020000a8020000a8020000a8020000ee
:10026800a8020000a8020000a8020000a8020000de
:1002780002150000a8020000a8020000a802000061
:10028800a8020000a8020000a8020000a8020000be
:10029800a8020000a8020000a8020000a8020000ae
:1002a800a8020000a8020000a8020000a80200009e
:1002b800a8020000a8020000a8020000a80200008e
:1002c800a8020000a8020000a8020000a80200007e
:1002d800a8020000a8020000a8020000a80200006e
:1002e800a8020000a8020000a8020000a80200005e
:1002f800a8020000a8020000a8020000a80200004e
:10030800a8020000a8020000a8020000a80200003d
:10031800a8020000a8020000a8020000a80200002d
:10032800a8020000a8020000a8020000a80200001d
:10033800a8020000a8020000a8020000a80200000d
:10034800a8020000a8020000a8020000a8020000fd
:10035800a8020000a8020000a8020000a8020000ed
:10036800a8020000a8020000a8020000a8020000dd
:10037800a8020000a8020000de0b0000a80200008e
:10038800a8020000a8020000a8020000a8020000bd
:10039800a8020000a8020000a8020000a8020000ad
:1003a800a8020000a8020000a8020000a80200009d
:1003b800a8020000a8020000a8020000a80200008d
:1003c800a8020000a8020000a8020000a80200007d
:1003d800a8020000a8020000a8020000a80200006d
:1003e800a8020000a8020000a8020000a80200005d
:0803f800a8020000a8020000a9
:020000040000fa
:10040000cf7621000e7f22000e0188000000000040
:100410000c00070020d92100010020001100070076
:10042000000020000000e000020032000000020096
:10043000000000007e130200000000000040da000f
:100440000000fe004440a900800820000000e000f9
:100450000300320000002000a00188004440a800f2
:100460000000060091018800800078000000eb0089
:1004700015003700e280400032a0b4009101ba00bc
:10048000e280400032a0b4009102ba00e280400055
:1004900032a0b4000002eb00472bde00f507b200eb
:1004a000602ce10004003a000059eb008301e900f0
:1004b000fdff3e00040037006128e100010032002a
:1004c0000082eb00040007001101ba000200e00006
:1004d000e8ff3a00000006003159ba008301e90044
:1004e0000c0032002159ba008301e90008003200f3
:1004f0000400e00003003a00e280400032a0b400b3
:10050000f5ff370011d9ba008301e900faff3a007c
:100510008100e800e180400032a0b4000000060045
:1005200000000000000000000000000000000000cb
:1005300000000000000000000000000000000000bb
:1005400000000000000000000000000000000000ab
:100550000040da000000fe00800178000200370051
:1005600081597800040178000202e900e00f51008f
:08057000fbff3a000000060049
:020000040000fa
:1005780009020000290000000101000000c000007d
:100588003209000004000000000100000000000023
:1005980000000000070500008201000000000000c4
:1005a8000109000004000000010100000000000033
:1005b8000000000007050000820100008000000024
:1005c8000100000004030000090400003e030000cd
:1005d8004d000000750000006c0000007400000071
:1005e80069000000200000004300000068000000cf
:1005f800610000006e0000006e0000006500000051
:100608006c0000002000000053000000790000008a
:100618007300000074000000650000006d00000019
:1006280073000000200000004d000000430000009f
:100638005300000020000000470000006d0000008b
:100648006200000048000000bc820000e682000052
:10065800ea8200001a0b00002e0b0000504900002f
:1006680043000000504900004332000000500000e1
:10067800494300003300000061620000630000008d
:020000040000fa
:10068800881f7800f00f200070248800502488000c
:100698002000200030258800a824ef00f009200061
:1006a80080248800602488008804a80008a020000e
:1006b8004840de00c02488009424a8009624ef0057
:1006c800620020008000eb00c04a2000a0ff070065
:1006d8009424a9000040eb008080fb00c208dd00e4
:1006e800810044008008eb00b11078000040e80069
:1006f800ef4f5000f8ff3600d0002000502588004a
:100708008100200001003700512488005024800017
:1007180068006000fcff3a0006e9b70012e9b7007c
:10072800319120009140780013e9b70041912000f1
:100738009140780014e9b70094a4a90081a0200092
:10074800c1488800204988006049880010c0b3006b
:100758004592200084912000c392200042932000fb
:100768008080fb008180400001834200000beb0089
:1007780001034200000beb0001834100000beb007a
:10078800810041008008eb000040e800e34f500082
:10079800f3ff36000e69ef000c29ef004f047800d4
:1007a80000000600aa24ab000d00320002498000b8
:1007b8009240900000c8b30080cf500007003a0074
:1007c800c04880009040900040c8b30080cf5000df
:1007d80002003a006840400010419800aa24a9008d
:1007e8000008200050248800000006008284a80029
:1007f80000012000502488000001eb008000eb007d
:10080800500720003a0737000001eb008000eb009a
:1008180040072000360707008284a9000001200055
:1008280000248800000006000040eb003de9b70006
:10083800c1488000904098000120a2009040980094
:1008480012c9bf000f003b0015c9bf000080fb00a4
:100858006191200091407800c808dd000080700098
:100868000700320015c9bf000080fb00619120001d
:1008780091407800c808dd00008070000000010089
:1008880012e9a900000006000200fa0052c9bf00e0
:10089800e14f50000b003a0050c9bf007f40600094
:1008a80008003a0006e9a80051c9bf00e34f50000c
:1008b80003003a001000200050488800010037006b
:1008c8000a29ef0052c9bf0032003a0050c9bf00e0
:1008d8007f406000e24f50002e003a0054c9bf002c
:1008e8006f4060002b00320006e9a80054c9bf0021
:1008f8000500330054c9bf006f00600000004000cd
:10090800419220000400370054c9bf006f00600006
:10091800000040008191200061007800f0bf9f0036
:1009280051c9bf00e34f500002003a0040c8b3006d
:100938001600370054c9bf006f0060000000400077
:10094800a14a2000010040001010a10054c9bf00b6
:10095800ffb8970007003b000040eb00904098006c
:100968006ff897000024a200e0ff9f0000c4b300c6
:100978000600370080c8b300904098006ff89700d1
:100988000024a200e0ff9f0080ccb300ffb89700ce
:10099800904098000080fa000000060001952000b1
:1009a8009140780000c8b30080cf50004f003a0053
:1009b80000ccb30006e9b70053c9bf00e24f5000ae
:1009c8000f003200e34f500028003200e14f500082
:1009d80045003a0080b02000419020009140780006
:1009e80004e9b7004800de005190200091407800eb
:1009f80005e9b70007c9bf0020c1b30034003700bc
:100a080052c9bf000080fb0000004000813228006e
:100a180061007800419020009140780004e9b70017
:100a28004800de00519020009140780005e9b700a9
:100a380004c9bf000080fb0051902000914078005d
:100a4800c808dd0000807000100090007190200040
:100a58009140780007e9b7004800de008190200047
:100a68009140780008e9b7000000060052c9bf00ad
:100a7800e34f50001a003e0052c9bf000080fb003f
:100a880000004000a1322800610078004190200059
:100a98009140780004e9b7004800de00519020003a
:100aa8009140780005e9b70004c9bf000080fb0049
:100ab8005190200091407800c808dd000080700047
:100ac800104078000080fb00719020009140780071
:100ad80007e9b70008c9bf000869ef000000060071
:100ae8000669ef00000006000669ef000000060036
:100af8005869ef005969ef0050c9bf007f006000d6
:100b0800e10f50000b003200e20f50000b003200e2
:100b1800e00f50001b003a0006e9a8005809a80099
:100b280050488000e10f500016003a005829a800ec
:100b38001400370006e9a8001200370006e9a800eb
:100b480054c9bf000500330054c9bf006f006000de
:100b580000004000419220000400370054c9bf0043
:100b68006f00600000004000819120006100780063
:100b780010409000640060000200320010c0b30012
:100b880058e9b70006c9bf000b003b00809520005c
:100b9800419020009140780004e9b7004800de0049
:100ba800519020009140780005e9b7000609a80097
:100bb80020c0b30007e9b7000000060000c4b30076
:100bc8001149800080487800114980000095200074
:100bd80090009800c0c8b30090409800684050004a
:100be800c14880009040980000000600c14880007d
:100bf8008048eb0080ccb3009040980000000600cd
:100c080007c9bf000080fb00819020009140780058
:100c1800c808dd008080700000042000f203200076
:100c2800828f500014003e0007c9bf000080fb00ff
:100c38008190200091407800c808dd000080700095
:100c4800c193200091407800e0cf500002003a00a4
:100c580011c0b30005003700c1932000914078000f
:100c6800e1cf500004003a0021c0b3008000fd002d
:100c78003ce9b7008000fd00c148800011419000a8
:100c8800c801de0003417100924098008048780056
:100c980071902000914078008180fb0082902000b4
:100ca800124178004811dd008100710080805000f9
:100cb80072902000124178008000fd0007e9b7001b
:100cc8008000fd00c808de008290200012417800f4
:100cd8008000fd0008e9b7008000fd008195200034
:100ce800f14988006190200091407800e1c06000df
:100cf800170032002f003700419020009140780003
:100d08008180fb0052902000124178004811dd00dc
:100d180081007100f249800031597800f249880059
:100d280042902000124178008000fd0004e9b700dd
:100d38008000fd00c808de005290200012417800b3
:100d48008000fd0005e9b7008000fd000000e90013
:100d5800e00f5000e8ff3a00000006004190200034
:100d6800914078008180fb00529020001241780069
:100d78004811dd0081007100f24980003159780086
:100d8800f249880042902000124178008000fd005e
:100d980004e9b7008000fd00c808de00529020007a
:100da800124178008000fd0005e9b7008000fd00d1
:100db8000000e900e00f5000e8ff3a0000000600dc
:100dc80094a4a90006c9bf001200330012c9bf00cd
:100dd8000f003b0020c0b3003de9b70056c9bf0073
:100de8000080fb007195200091407800c808dd0064
:100df8000080700001003a007cff070000c4b300c7
:100e0800114980008048780011498000350037007a
:100e18006aff370012c9bf004900330050c9bf003c
:100e280035003b0056c9bf000080fb0071952000cb
:100e3800914078004809dd000001710007c9bf0032
:100e48000080fb008190200091407800c808dd00f8
:100e580000807000800f51000d00310056c9bf009e
:100e68000080fb007195200091407800c808dd00e3
:100e780000807000719020009140780007e9b70069
:100e88004800de00819020009140780008e9b70012
:100e98005bff070010c0b3003de9b70000c4b30012
:100ea800114980008048780013498000029520008d
:100eb8009201980001c8b300914198004229ef00bf
:100ec800014980008048780001498000920098001c
:100ed80040c8b3009040980010002000104a8800d5
:100ee800c1488000809520009000980080ccb30015
:100ef800904098000000060020c0b3003de9b7000c
:100f080056c9bf000080fb00719520009140780011
:100f1800c808dd000080700001003a0033ff0700b8
:100f280000c4b3001149800080487800114980004e
:100f3800809520009000980080ccb30090409800e5
:100f480000000600881f7800c04880001004780060
:100f58004e44de00614464001849aa0060488000dd
:100f6800e80f50000a003a0052c9bf000080fb0099
:100f7800b0248800b0248000e00f50000200320046
:100f88000001200001003700400020006048880070
:100f98003dc9bf00e14f500010003a008095200085
:100fa800c14880009000980015ff07003cc9bf00a9
:100fb800e24f500002003a0040c8b3000400370076
:100fc80080ccb300e04f54000100320080c8b30069
:100fd800c1488000904098000100370012fe0700c9
:100fe8004f0478000000060012c9bf00010033005a
:100ff800f2fe3700fdfe070012e9a9000000060016
:1010080000498000904078008181fb0032912000e7
:10101800124178000281fb0014c9bf004800dd00be
:1010280002007000808f51000400360031912000ca
:101038009140780014c9bf000f003700329120009a
:10104800124178000281fb0044912000144278008c
:101058004820dd000200700003005000329120009b
:101068001241780013e9b7004800de0042912000e1
:101078001241780014e9b7000040eb001600370071
:1010880002912000124178000281fb001391200098
:1010980093417800c819dd000082fb0002817100cd
:1010a8008395200063597a000391200093417800ca
:1010b8000001fd0010e9b7000001fd004811de0045
:1010c80013912000934178000001fd0011e9b70059
:1010d8000001fd000040e800814f5000e8ff3900a2
:1010e80013c9bf000080fb004191200091407800a7
:1010f8004809dd00000171001149800000c4b300f7
:101108000d00320080487800104980008195200049
:1011180011009800010024000249800092806000bc
:1011280002003a0081ccb3000100370081c8b30047
:10113800114098000000060080487800114980009e
:10114800009520009000980040c8b3009040980097
:1011580012e9a90012a9a90015c9bf000080fb0067
:101168006191200091407800c808dd00008070007f
:101178000700320015c9bf000080fb006191200004
:1011880091407800c808dd00008070000000010070
:1011980012c9bf000042b20001003a0092ff0700e6
:1011a800000006003dc9bf00e24f500001003a00b0
:1011b80093ff37009cfd0700104a8000e00f5000a5
:1011c80009003a0000c4b300114980008048780043
:1011d800114980000095200090009800c0c8b30015
:1011e80090409800000006004229ef000000060029
:1011f80006e9a800620020008000eb00c04a200039
:10120800d3fc07000f69ef0052c9bf000ee9b70011
:101218000ec9bf0003003a000001200060488800a2
:10122800000006000002200060488800120020002c
:10123800e190200010002000ad04370050c9bf0025
:101248000046b2003a003a0051c9bf000080fb00d6
:1012580001002000eb0f5000e08f580034003e00e2
:10126800006001001300370013003700300037001a
:10127800110037002e00370006003700090037003c
:101288002700370009003700070037000b00370038
:101298001a00370006e9a80080002000604888008e
:1012a80000000600bdfd3700d1ff3700e0902000a8
:1012b800060037000efe370073fd370054c9bf0023
:1012c8000080fb00f19020000100400041902000c8
:1012d8009140780004e9b7004800de0051902000f2
:1012e8009140780005e9b7000609a80010c0b300ce
:1012f80007e9b70006e9a8000000060006e9a8000b
:1013080054c9bf000080fb00f1902000821f7800c4
:1013180022952000927078004f01780000000600a6
:101328000001eb008000eb002000200070040700a3
:1013380000000600c14880000000eb00910f10007b
:1013480001003d00904098003c69ef003d69ef00c6
:1013580007c9bf000769ef0008c9bf000869ef00a7
:101368000669ef0013c9bf001369ef0014c9bf0075
:101378001469ef001269ef0015c9bf001569ef0085
:1013880016c9bf001669ef00acff07000001eb00ab
:101398008000eb00300020005504070012c9bf0090
:1013a8000042b20004003a0006c9bf000042b20081
:1013b80001003a0082fe07000000060040c9bf0095
:1013c800b00fb2001f003a0001942000914078004d
:1013d800c10fb20002a020008281400003498800aa
:1013e800134988002249aa006282780003c02300ba
:1013f8000302620003402300830f520010003a00ea
:101408008181e800e281790082952000828f510075
:101418000a003a000395200022a0200003b17800ba
:101428008080fb00029520008395200063f17800fe
:101438000040e800e74f5000f9ff3600bdff3700d5
:1014480058ff370040c9bf00b00fb200e80f500086
:1014580001003a00bbfe0700000006000200fa0087
:101468000080fb008181fb00000140008281410077
:10147800c319dd0004a0200084814100f3bf9f0050
:10148800e0cf50000d003a004192200082804000d9
:101498000002eb00910f120017003200c3922000e7
:1014a80063017900840f510001003200820878003e
:1014b80000004000419220000c003700819120007c
:1014c800828040000002eb00910f12000a003200f7
:1014d8004393200063017900840f5100010032001a
:1014e80082087800000040008191200061007800a7
:1014f800f0bf9f0001003700830878007fb897008d
:1015080010f0a10010e0a1006ff897000024a200dd
:10151800e0ff9f007fb8970010f0a10010e0a00046
:101528000080fa0000000600889fbe000044780092
:101538000880fb0000004000a24a200001717800ea
:101548008184fb0068806400030032008040eb0067
:1015580008407800c1ff0700e484640003003200fb
:1015680011c0b30008407800bcff07004f04be005c
:1015780000000600e04f50000c003a0000c4b30021
:1015880011498000804878001149800000952000aa
:1015980090009800c0c8b300904098006840500080
:1015a800c148800090409800000006008180fb0040
:1015b8000080fb0000004000008040004300dd0088
:1015c80004a02000040140009241900041c8b300eb
:1015d80081c171001341980064004000040040007c
:1015e80010419000814071001140980000000600f1
:1015f8000080fb00e0cf50000300320000004000f4
:101608008191200002003700000040004192200034
:10161800610078001040900000c0ea000080fb00e4
:101628004700de0000000600804278000582fb00cb
:10163800e0cf5000030032000402420080912000f5
:1016480002003700040242004092200060007a0045
:1016580012009800104190000244b2001240980015
:10166800f33fb20002c02f001001610003087100af
:101678009041900082c8b30002c1710012409800e6
:101688000581fb00e0cf5000050032000201410057
:1016980081912000010141001224a20000000600ef
:1016a8000201410041922000010141001224a200e0
:1016b8000000060094a4ab00150032000080fb0077
:1016c80000004000819120008080400011007800d7
:1016d8001001be0004042000020162000300200083
:1016e8000288be00020420000300200010186900d0
:1016f800109069001124a200904090000144b200ab
:10170800114098009040900084c0680011409800f3
:10171800000006000000eb00a02488006024880078
:10172800604888000000060060488000e00f500014
:1017380014003a00a02488006024880021002000ba
:101748003125880040258800f00920008024880081
:101758006024880071068000f08f2f0000806000f0
:101768000090a000700688009ec0a8000100370005
:101778009404a8009404ab00fdff32001000200080
:1017880060488800000006008180fb000080fb00a4
:101798000000400080804000818040000281fb0002
:1017a800028040004200dd0003a02000030040004a
:1017b800000006003600f800809fbe00829fbe0031
:1017c800849fbe00869fbe00889fbe008a9fbe0081
:1017d8008c1f78003400f80000002000a001880069
:1017e80060488000e10f500008003a0094c4ab0044
:1017f80006003a00f00f2000502488008c04a8004e
:101808008c84a80020002000604888008084ab00f9
:10181800050032008284ab00030032000001200082
:1018280000248800f8fb07008824ab0065003a0014
:101838008a04ab00100032008c04ab000e003200aa
:101848008ffb0700400020006048880000952000ba
:101858001050880000c4b30000eab70001cabf00f6
:101868006340600001eab700c0c8b300016ab7006e
:1018780010002000502488008a84ab000500320044
:101888008c84ab0003003200d8fb07000001200065
:10189800502488008a44ab00080032008c44ab0016
:1018a80006003200120020008000eb003007200004
:1018b8000f03070040002000502488008ae4ab0092
:1018c800030032008ce4ab0001003200b5fb0700d6
:1018d8008a24ab000a0032008c24ab0008003200d6
:1018e800120020008000eb00f0ff27000003070033
:1018f800f00f200070248800200020005024880069
:1019080060488000e30f50002e0036008c64ab0066
:101918002c0032000044eb008c0020004b93200088
:101928008a64ab00270032009024800040e9b700a9
:101938005c24880040c9bf00000fb20002003a00d2
:101948009efe07001c00370040c9bf000080fb0056
:101958004400de00004578000194200091407800a2
:10196800e8806000c388de0081447800029420008b
:1019780012417800640161004291de000204a20075
:1019880081ff07008a80fb00e0cf540004003a0082
:1019980081804000c292200000b178000200370028
:1019a8008180400080b578000001eb0001942000a0
:1019b80020072000ce0207000844e800e34f540047
:1019c800d7ff36008ec0a9003400f9004f06780012
:1019d8004f05be004f04be004f03be004f02be00bd
:1019e8004f01be004f00be003600f900004006005f
:1019f800881f780052c9bf000080fb003195200085
:101a080091407800c808dd000080700001002000c7
:101a1800c000dd00000020004256800002024000a5
:101a2800e082480062952000124178000281fb00a4
:101a38007395200093417800c819dd000281710078
:101a48000281e900e10f4200e08f4a0009003a00f4
:101a5800000e20004220b700a3248000a3ac200081
:101a68000400be0045050700830607000000fe00cd
:101a780010003700180280004544de006744640007
:101a8800000e20004220b7008500d1000480d3005a
:101a9800a3ac2000a4050700670064004500dd0032
:101aa80018028000f1f12f000104640000047400a2
:101ab8001802880012e9a8004f0478000000060008
:101ac800c8eab70080ac200041902000914078001f
:101ad80004e9b7004800de005190200091407800ea
:101ae80005e9b7000609a80007c9bf0010c0b30080
:101af80007e9b70008c9bf000869ef0006e9a800b0
:101b0800000006004056880080ac2000419020006c
:101b18009140780004e9b7004800de0051902000a9
:101b28009140780005e9b7000609a80007c9bf0079
:101b380020c0b30007e9b70008c9bf000869ef0073
:101b480006e9a800000006004056880051568800a3
:101b580080ac2000419020009140780004e9b70053
:101b68004800de00519020009140780005e9b70058
:101b78000609a80007c9bf0040c0b30007e9b700bd
:101b880008c9bf000869ef0006e9a80000000600c0
:101b98008000eb00e30320000400370084ac200041
:101ba80002f278008100e8000000e80010417800a7
:101bb800e04f510002003200838f5000f7ff3600db
:101bc80080ac20000041eb0002f078008100e800c2
:101bd800429020001241780004e9b7004800de0076
:101be800529020001241780005e9b7000609a800c4
:101bf80007c9bf000100780007e9b700c808de0080
:101c080008c9bf000100780008e9b70006e9a80084
:101c18000000060002042000828f500001003600f8
:101c2800820078008001eb00030037003042780022
:101c380004f179008301e80082ac2000818f510013
:101c4800faff390004c9bf000200780004e9b700b0
:101c58004811de0005c9bf000200780005e9b70099
:101c68000609a80007c9bf000100780007e9b70006
:101c7800c808de0008c9bf000100780008e9b700fd
:101c880006e9a800000006001400fa00889fbe00bc
:101c9800f80f200009002000000020000800600064
:101ca80001002000c000dd000000200002002a0022
:101cb80002004000e0804800f8815700a2002000a0
:101cc80055040700110020000900780000014000b9
:101cd80002014100f881570063017900e10f4100da
:101ce800010032008000eb000000e800e40f500023
:101cf800f6ff3400e08f5000060032008007200015
:101d0800c0b79f00e0b79f0080bf9f00a0bf9f00a3
:101d1800c0bf9f0001b320000000eb00000140009d
:101d280002014100f88157006301790082187800a8
:101d38000000e800e40f5000f8ff34004f04be0034
:101d48000080fa00000006001400fa00f20f2000dc
:101d580003002000000020000200600001002000b5
:101d6800c000dd000000200004002a00040040003c
:101d7800e080480004b3200003017800820141009c
:101d880083824100b40378007483570007b37a0054
:101d98008301e80083814100830143008089eb00cf
:101da8000201e800e40f5100f4ff340086017800d6
:101db80042012000bb040700f48157000001eb003a
:101dc8000080eb008080eb006c0407000080fa00c4
:101dd8000000060002b320008001eb000282e80048
:101de800e08f50000200340030097800010037000d
:101df8000009eb00040178008301e800e48f51003a
:101e080002003c008180e900f4ff3700ceff370074
:101e180061952000914078008180fb0057c9bf0080
:101e28004800dd00810070008100d10080ac2000f6
:101e3800e8ff070012e9a800000006001000fa00f9
:101e4800889fbe008a1f7800010578000080e8009e
:101e58004300dd00cf80de0002002a0002004000bf
:101e6800e0804800f80f2000090020000200200050
:101e78000801610003002000c011dd0002002000fd
:101e88000000410081804900f6815700820020004f
:101e9800e1030700090078008000400081804000cd
:101ea80076815700e2807800011d78000000e80084
:101eb800e30f5000f8ff34004f0578004f04be00d0
:101ec8000080fa00000006001000fa00889fbe009b
:101ed80011017800e2b79f000081eb00f2b79f0084
:101ee800d101780083bf9f0092bf9f00d101780085
:101ef800a3bf9f00b2bf9f0091009000c1bf9f0089
:101f0800d2bf9f000080e8004300dd00cf80de00e4
:101f180002002a0002004000e0804800f80f20007c
:101f280009002000020020000801610003002000d1
:101f3800c011dd000200200000004100818049003e
:101f4800f48157000201200056040700f48157006d
:101f5800090178000080eb008080eb00070407008f
:101f68004f04be000080fa000000060054c9bf00fc
:101f78000080fb005195200091407800c808dd00e2
:101f88000080700081ac2000cfff070012e9a80094
:101f9800000006000000060000000600c62aec004b
:101fa800000006000000060001952000914078001e
:101fb8000146b20000c4b30080cf500036013a0099
:101fc80051c9bf0001c5b300814f500082003200e3
:101fd8000f003e00edc05000814f5000aa003200b3
:101fe80004003e0081c0e900814f500029013a00f9
:101ff8003700370071c4b300814f5000d100320060
:10200800e7c04000814f500022013a00aa00370083
:1020180051c5b300814f5000b200320007003e00a6
:10202800e4c05000814f50008c00320081c0e800ad
:10203800814f500017013a008800370021c6b300cd
:10204800814f5000040032008140e800814f500069
:1020580010013a000a00370054c9bf000080fb0095
:102068005195200091407800c808dd00008070007c
:1020780022082000820f500099003a00db00370048
:1020880054c9bf000080fb005195200091407800a2
:10209800c808dd000080700022082000820f500070
:1020a8008f003a00000020000080fb0001002000a3
:1020b800c000dd00000020000200250002004000f2
:1020c800e08048000000400081804800830037001d
:1020d80052c9bf000080fb00319520009140780074
:1020e800c808dd000080700001002000e30f5000e8
:1020f800e08f5800e8003e00006001000300370050
:1021080005003700120037001b003700305b8000e5
:10211800cf80de007100370054c9bf000080fb008b
:102128005195200091407800c808dd0000807000bb
:10213800315b8000810f5000d70031004200dd0084
:1021480041b52000008040001000be006300370049
:1021580054c9bf000080fb005195200091407800d1
:10216800c808dd0000807000315b8000810f5000de
:10217800c90031000f003700429520001241780055
:102188000281fb0055c9bf004800dd000201700054
:102198000000eb000300200041b520000a003700d2
:1021a8004202dd0004824000b40f5100a48f5900a0
:1021b80004003a000000400001b6200061007800e9
:1021c80073fe37000000e800345b8000840f500085
:1021d800f3ff39000000060054c9bf000080fb006f
:1021e8005195200091407800c808dd0000807000fb
:1021f80022082000820f500039003a0080ac2000ed
:10220800019120009140780010e9b7004800de00f5
:10221800119120009140780011e9b70056c9bf001c
:102228000080fb007195200091407800c808dd000f
:1022380000807000319120009140780013e9b700c8
:102248004800de00419120009140780014e9b70071
:1022580012e9a800c0cf20008600370054c9bf008b
:102268000080fb005195200091407800c808dd00ef
:102278000080700022082000820f500018003a00e9
:102288000000fe000000060054c9bf000080fb00eb
:102298005195200091407800c808dd00008070004a
:1022a80022082000820f50000d003a004000200054
:1022b800010020000900370052c9bf000080fb0060
:1022c8003195200091407800c808dd00008070003a
:1022d800f40f500002003a006000b8001afe370000
:1022e800fd01370080ac200001912000914078006a
:1022f80010e9b7004800de001191200091407800f5
:1023080011e9b70056c9bf000080fb007195200095
:1023180091407800c808dd000080700031912000ed
:102328009140780013e9b7004800de004191200091
:102338009140780014e9b70012e9a800c0f0200025
:102348004c00370052c9bf000080fb0031952000c7
:1023580091407800c808dd0000807000e10f50004f
:1023680003003200e20f50004b003a002100370012
:1023780054c9bf000080fb005195200091407800af
:10238800c808dd0000807000d2072000820f5000ce
:1023980041003e0054c9bf000080fb005195200059
:1023a80091407800c808dd000080700081ac2000f2
:1023b800a2fe070080ac20004190200091407800e8
:1023c80004e9b7004800de005190200091407800f1
:1023d80005e9b7000609a80007c9bf0080c0b30017
:1023e80007e9b70008c9bf000869ef0006e9a800b7
:1023f8000000060054c9bf000080fb005195200072
:1024080091407800c808dd0000807000d2072000e5
:10241800820f500020003e0080ac20000191200077
:102428009140780010e9b7004800de0011912000c3
:102438009140780011e9b70056c9bf000080fb0041
:102448007195200091407800c808dd000080700078
:10245800319120009140780013e9b7004800de0070
:10246800419120009140780014e9b70012e9a800d2
:10247800a0fb2000519120009140780015e9b70099
:102488004800de00619120009140780016e9b7000d
:10249800000006009001070000000600000006008a
:1024a800889fbe008a1f78000081fb004414de006c
:1024b800e8046100c3ccde00640161004295de00df
:1024c8000a4178008940780008407800aefc07008f
:1024d800800178000a417800894078000840780037
:1024e8004c0207004f0578004f04be0000000600ac
:1024f800e30f50000d00320003003e00e10f5000d2
:1025080010003a000700370022072000820f500011
:102518000a00320031072000810f500009003a00fc
:1025280004003700cc050700060037009efe0700b0
:102538000400370099fe07000200370011407800b8
:10254800d7ff0700100005000fc9bf00e14f50007a
:102558000f003a0000082000005a8800005a800046
:1025680022002000811f7800110009000200d80015
:10257800cf007800105a88003e2bef003c2bef006c
:102588003a2bef0010002000205a880012e9a8001a
:1025980000000600205a8000e00f500001003200c1
:1025a800442bef0012e9a8000000060052c9bf0042
:1025b8000080fb003195200091407800c808dd00bc
:1025c8000080700002202000820f500005003a00b1
:1025d80000c8bf0050ebb70001c8bf0051ebb700ff
:1025e80012e9a800000006002ca3ef00cde2a80025
:1025f800c9e2a900cc02a900c802a900cd02a8001e
:10260800c902a900cd22a900c922a900413580002c
:1026180000fe2f00808060003100b3004135880043
:1026280021368000008060007000b30020368800ea
:1026380031368000f30f2e008380600001b0a000c7
:10264800313688004302a80042c2a9004402a8000b
:1026580042a2a8001212800031fe2f008100610002
:102668008101b30011128800300020004222b70017
:1026780041e2a80001348000038060000090a000bf
:10268800003488008220a8008680a9009680a800cf
:102698007105800080ff2f00008060005000b300ab
:1026a8007005880005e1a80000e8230010088800ec
:1026b80021058000f0ff28008080600001c0a00094
:1026c800210588008460a9009460a80011e1a80091
:1026d80001642000610888003105800000806000e6
:1026e80000d0a0003005880084e0a90094e0a8008c
:1026f800000006003b030700e00f5000e08f580081
:1027080004003200000e20004220b700004c0200f6
:1027180000000000b4ff0700d9f7070002fc07001b
:102728000140fe00feff37003600f800809fbe0023
:10273800829fbe00849fbe00869fbe008460a90061
:10274800f809ec00c04f8800813e2000810f50003e
:1027580003003a00cde2a800f829ef000400370092
:10276800411f2000810f500001003a00cde2a9006e
:102778004c2bec00605a8000ea0f500006003a002b
:1027880033c0b30052c5b30011c0b3000140780094
:10279800760407000c003700605a8000f40f5000e0
:1027a80009003a000001eb008000eb000040eb005c
:1027b800590407006000b8004c04070010c0b300bb
:1027c80039040700cd22a800605a8000fe0f50008f
:1027d80002003a00d0012000605a88004f03be0072
:1027e8004f02be004f01be004f00be003600f90088
:1027f800004006003e2bec00f1598000105a800082
:10280800808f5000060035003e2bef003c2bec007b
:10281800e0598000e80f500001003a003c2bef001f
:10282800d1598000e0598000808f5000120032009a
:1028380011c0b30020c0b3006dfb0700e04f50008b
:102848000d003200035a8000d25980004711dd0084
:10285800c03621000001410011c0b30020c0b30000
:1028680071fb07003a2bec00d0598000e80f5000ac
:1028780001003a003a2bef0000000600889fbe00d6
:102888008a9fbe00800578008004eb00c8362100ce
:10289800faee2f00205a8000e00f5000310032007d
:1028a800e1598000f0598000c608dd0080804000b2
:1028b80081804000098044006b00780000b47800f3
:1028c800ccff0700505a8000ff0f500025003a0047
:1028d800e1598000f0598000c608dd008080400082
:1028e800818040000ab47800c2ff0700e1598000e7
:1028f800f0598000c608dd008080400081804000db
:10290800405a800000b47800baff0700e1598000ff
:10291800f0598000c608dd008080400081804000ba
:10292800305a800000b47800b2ff0700e1598000f7
:10293800f0598000c608dd0080804000818040009a
:102948000011200000b47800aaff0700305a800068
:10295800415a800061004000e0804800305a8800f9
:10296800415a8800515a80008100e800515a880075
:1029780000022000808f500001003a004a2bef002f
:102988008904e800ff8f5400c2ff34004f05be00e1
:102998004f04be00000006003600f800809fbe000d
:1029a800829fbe00849fbe00869fbe0084e0a9006f
:1029b8009680a90000000000705a8000e00f5000c7
:1029c800070032000000e900705a880004003a004d
:1029d8009680a800809b2000a8ff0700cc02a900d1
:1029e8009680a8004f03be004f02be004f01be00f4
:1029f8004f00be003600f900004006003600f8001f
:102a0800809fbe00829fbe00849fbe00869fbe003e
:102a1800881f78008680a900940307000044780086
:102a280001c7b30070c0b300870307000884fb0028
:102a3800080078000004b20019003200705a8000c3
:102a4800e00f50000f00320001022000809d20009e
:102a580026040700cd22a9000040eb0092030700de
:102a6800cd22a80050cbbf0098e9b70051cbbf00da
:102a780099e9b70021002000809920001804070078
:102a88000300370001022000809b20001704070084
:102a980040002000705a8800cc02a80006003700c9
:102aa8000802b20004003200cd22a90010c0b30011
:102ab8007d030700cd22a800cd22a8004f0478008e
:102ac8004f03be004f02be004f01be004f00be00c4
:102ad8003600f9000040060051c9bf0041c4b300e8
:102ae800814f50001000320005003e00f84f5000a2
:102af8000f003200f94f5000c5003a00240037009b
:102b080081c5b300814f500091003200f8c04000e9
:102b1800814f5000a0003200e1c4b300814f500043
:102b2800bb003a00390037000034280018fc370091
:102b380000802000019120009140780010e9b70042
:102b48004800de00119120009140780011e9b7009b
:102b580056c9bf000080fb007195200091407800a5
:102b6800c808dd0000807000319120009140780095
:102b780013e9b7004800de00419120009140780039
:102b880014e9b70012e9a800802a210017003700cd
:102b980000802000019120009140780010e9b700e2
:102ba8004800de00119120009140780011e9b7003b
:102bb80056c9bf000080fb00719520009140780045
:102bc800c808dd0000807000319120009140780035
:102bd80013e9b7004800de004191200091407800d9
:102be80014e9b70012e9a800e02c21005191200057
:102bf8009140780015e9b7004800de006191200097
:102c08009140780016e9b7000000060052c9bf00dd
:102c18000080fb003195200091407800c808dd0055
:102c28000080700031102000810f50002600320013
:102c380010003e0001022000810f50003b003200ce
:102c480005003e00f00f50001c003200f60f500047
:102c58006f003a001f00370011102000810f50004c
:102c6800160032008100e800810f500068003a0029
:102c78001800370001132000810f50001a0032009d
:102c880007003e0041102000810f50001100320063
:102c9800eb804000810f50005d003a000f003700c4
:102ca80011132000810f500019003200313020002c
:102cb800810f500056003a00220037000002200021
:102cc8000100200021003700400020000100200002
:102cd8001e0037006000b8001c00370040022000ca
:102ce800010020001900370054c9bf000080fb0014
:102cf8005195200091407800c808dd0000807000e0
:102d08000d003a00c05d2000010020000f003700d0
:102d180054c9bf000080fb00519520009140780005
:102d2800c808dd000080700003003a00803e2000e3
:102d380001002000050037000080eb008080eb00d8
:102d48000200370010002000010020007efb370041
:102d580052c9bf000080fb003195200091407800e7
:102d6800c808dd0000807000f10f500028003a000c
:102d780054c9bf000080fb005195200091407800a5
:102d8800c808dd0000807000e20f500020003a0003
:102d980012e9a800b003370000802000019120004c
:102da8009140780010e9b7004800de00119120003a
:102db8009140780011e9b70056c9bf000080fb00b8
:102dc8007195200091407800c808dd0000807000ef
:102dd800319120009140780013e9b7004800de00e7
:102de800419120009140780014e9b70012e9a80049
:102df800a02d2100519120009140780015e9b700dd
:102e08004800de00619120009140780016e9b70083
:102e1800000006000000060002024000e0824800b0
:102e28000b003700910188001003ba001081ba0026
:102e3800865978004833de00865978008259780030
:102e48004811de008259780062004000e0804800a6
:102e5800840f5000858f5800f2ff390000000600eb
:102e6800889fbe008a9fbe008c1f78000002be00ab
:102e78004008de0000037800900188008000eb0025
:102e88000100780004047800fa0f2000f91f2000e0
:102e98008803780080054000888545001b06ba0035
:102ea8009b85ba00e10f460003003a00fb0fb20011
:102eb8008a8f550001003200110020000000e80050
:102ec800890f5000f2ff3600e08f50000c003200ee
:102ed80020042400003b880096018800040abb00f7
:102ee8000700fc0050052000303b8800a00a2000a5
:102ef800303b880061e7a8000000000000000000e7
:102f08000002eb0084007800f90320001800240078
:102f1800960188000000eb008182400062857a00fb
:102f2800e3827a008a0bbb00859bbb000000e800a7
:102f38008100e800890f5000f7ff3600083b880041
:102f48000700fc0050052000303b8800a00a200044
:102f5800303b880061e7a800000000000000000086
:102f68000402e800e70f5200e9ff36004f06780038
:102f78004f05be004f04be0000000600889fbe003b
:102f88008a9fbe008c9fbe000004be0082067800a7
:102f98000306780002c02f00000161008900780054
:102fa800020078000005be00d44f8000e54f800085
:102fb8008a0f52008b8f5a001d003200e00f52001a
:102fc800e08f5a00050035006a2bec00c3b62000dc
:102fd800c2f620000400be00a1ff0700e00f550064
:102fe800e08f5d0010003500682bec009b01880025
:102ff8000000eb00c6f62000c3b62000f21f200038
:103008008000400001024500e0824d009403ba00b0
:103018001482ba0007b3780084b178000000e80091
:10302800820f5000f6ff3600da4f8800eb4f880019
:10303800f83fb2000804d1000000eb00c5f62000fc
:10304800c4b6200011003700f81fb2008801440000
:10305800038142008000460091439000c83bdd0098
:103068006c4378000683fb00068943008301420015
:10307800314190004811dd00a14090008180fb00a3
:1030880081094100640040000804e8008d0f5000e9
:10309800edff39004f06be004f05be004f04be00cd
:1030a80000000600889fbe008a9fbe008c9fbe005d
:1030b8008e1f78000004be0002067800030778001f
:1030c8000005eb000d40200010003700880578004f
:1030d800fb3fb2008b8556000a0056008b854500e1
:1030e800808f550001003600800578008a0147006e
:1030f8000b0178000800be00a0ff07000b00d100fc
:1031080000044400e0844c000b0545008c0f55007a
:10311800eeff39004f0778004f06be004f05be008e
:103128004f04be0000000600040020000482fb00db
:1031380005002000c022dd00040020000600250054
:1031480006024200e0824a00840f5000858f580032
:10315800020031000000420081804a00e6bf2a00d8
:103168000700200062034300e0834b0004002000b6
:103178000482fb0005002000c022dd0004002000be
:103188000602420087824a00840f5000858f58004b
:1031980001003100c3ff070000000600f20f200005
:1031a800000020000200600001002000c000dd00d7
:1031b800000020000300250003004000e0804800d4
:1031c800000040008180480062005000e080580004
:1031d800910188001002ba001080ba000100200096
:1031e800c000dd000000200004024000e08248002a
:1031f8000501610082017800040178000200be0028
:1032080000000600889fbe008a9fbe00f40f2000c1
:1032180005002000000020000400600001002000dc
:10322800c000dd0000002000020025000200400070
:10323800e08048006011b800000340008183480026
:1032480062035300e0835b000f00370091018800a0
:103258009002ba001085ba0084856200482cde000e
:10326800090020000b044400e0844c0008014100e0
:10327800898149008402650005014100e081490017
:1032880062004000e0804800860f5000878f580099
:10329800eeff39000382fb00840278000202780006
:1032a8000400be004f05be004f04be00000006002b
:1032b800e6874700889fbe008a9fbe008c9fbe009d
:1032c8008e1f7800000020000080fb000100200015
:1032d800c000dd00000020000400250005002000db
:1032e8000005420081854a006011b8000404be0050
:1032f8000006be00320037000802410089824900fa
:103308000402460085824e00950188008003eb0088
:10331800fe0f2000f63f2000fcb79f008dbf9f00e6
:103328000806be000204be006138b9000000420071
:1033380081804a009001ba001080ba00e18f4100f4
:103348000c003a0080007800f10fb2008e8f500018
:1033580008003a008783e800868f5300f2ff3400a4
:103368000801be000c04be007fb697008fbe970010
:103378000f0037000801be000c04be007fb697009e
:103388008fbe970020042400003b8800040abb007d
:103398000700fc0050052000303b8800a00a2000f0
:1033a800303b880061e7a800000000000000000032
:1033b80000402000010020000201400083814800f5
:1033c8008a0f51008b8f5900cbff39004f077800c7
:1033d8004f06be004f05be004f04be006f00b1008f
:1033e80000000600889fbe00f30f200000002000a8
:1033f8000300600001002000c000dd000000200084
:103408000200250002004000e08048009101880089
:103418001001ba001080ba00e10f410004003a0020
:10342800f00fb200830f50000e003a000e00370074
:1034380001202000810f51000a003a00e44f50009b
:1034480008003a006fff07000004be0053ff0700a2
:103458001200200003002000800f5400818f5c00c0
:103468000200320092ff07006011b8000200be009f
:103478004f04be0000000600f2874700889fbe0088
:103488008a9fbe008c9fbe008e1f78005dff0700dc
:103498000004be0041ff0700800f5400818f5c00cc
:1034a8000200320082ff070087003700060025006f
:1034b8000700200000c0240000035300e0835b00e5
:1034c8000200200003002000f40f20000500200067
:1034d800040078000204600009002000c044dd00f8
:1034e800080020000603440087834c0001002000e8
:1034f8000080600001002000c000dd000000200006
:103508000004530081845b00d8b79f00e9b79f008f
:103518006044b800f0b79f0081bf9f0092b79f003a
:10352800a3b79f006300370000c0240001002000fb
:103538000200250002014000e08148000201440029
:1035480083814c007fb397008fbb97000202430032
:1035580083824b00f70f20009fb19700038163001f
:1035680003002000c011dd00020020000406410015
:10357800858649000000440081804c007fb2970096
:103588008fba97000005420081854a000000eb00d1
:10359800406bde0007002000b6b79f00c7b79f004a
:1035a8000b017800f43f2000bfb397009701880013
:1035b8008c0040001103ba009182ba009201880081
:1035c8008a0040009101ba009180ba00830f53002d
:1035d80006003a00818f520004003a000080e8009b
:1035e800840f5000f0ff34002e003700210424001f
:1035f800013b8800920188000a0dbb000700fc000f
:1036080050052000303b8800a00a2000303b88008d
:1036180061e7a80000000000000000000002eb00c5
:10362800840378001e0024001c0037006138b900ac
:103638000001460081814e00930188009202ba0081
:103648001281ba000000450081804d009101880078
:103658000508bb000288bb000603e8008783e80072
:10366800f0032000800f5300f0ff34000e3b880069
:103678000700fc0050052000303b8800a00a20000d
:10368800303b880061e7a80000000000000000004f
:103698000402e800e70f520002003c000003eb00c0
:1036a800e2ff37000040200001002000080440002d
:1036b800898448005fb19700efb19700820f5400ea
:1036c800838f5c0098ff35004f0778004f06be00d7
:1036d8004f05be004f04be002f01b10000000600d8
:1036e800cd02a90066415000801f78003140780063
:1036f80048e2b7004f007800801f7800314078001a
:1037080048e2b7004f007800801f78003140780009
:1037180048e2b7004f007800801f780031407800f9
:1037280048e2b7004f007800801f780031407800e9
:1037380048e2b7004f007800801f780031407800d9
:1037480048e2b7004f007800e04f51000c0032000b
:103758004022ab00feff3a00801f7800314078001d
:1037680048e2b7004f0078000241e90040a2ab00f0
:10377800f5ff3a00431280000040e900f2ff3700ed
:10378800e04f50000500320040a2ab00feff3a00b7
:10379800411280000040e900f9ff3700cd02a8007f
:1037a80000000600cd02a9000142e8000080fb00ed
:1037b8004012880015c0b3000040eb00e0cf500075
:1037c800130032004022ab00feff3a00b2437800fb
:1037d8000783fb00461288008140e900061280003a
:1037e8000602b200f5ff3a000442e900e0cf5200b9
:1037f800030032004012800086427800efff370055
:103808004612800086597800ecff37008042eb00b2
:10381800e04f52000a00320040a2ab00feff3a001f
:103828000442e900e0cf520002003200401280005a
:10383800f6ff37004112800081597800f3ff370006
:10384800cd02a800000006000200fa00e1ff9f0078
:103858000054a00053ac20000f81e90011c0b30050
:10386800d0ff07000080fa000000060033ac2000fb
:1038780042ac200011c0b30000c0eb00c9ff370004
:103888008101780022ac200011c0b300c5ff3700c9
:1038980023aa2000c3ff37008201780022a8200055
:1038a800c0ff370000000600ee4040000040eb007b
:1038b800e5ff3700e08f500003003a007c487100b4
:1038c80071c8b300050037007c487100ef806000c4
:1038d800c308dd0072c8b30082c0700011409800b0
:1038e80071ceb30021409800000006000600fa00df
:1038f800010178008000780066805700edff07001e
:103908006681570031c0b30000c3b300e0ff070071
:103918000080fa00000006000600fa00881f780000
:103928000044780068805700e2ff0700ea4044003e
:10393800e14f540005003e00014078000054a0000b
:103948006881570031c0b300040037000140780097
:103958000054a0006881570011c0b300ccff0700d5
:103968004f0478000080fa00000006000200fa0008
:10397800889fbe008a1f78000044780002457800be
:10398800834478000840440081404000ecc0400077
:103998000040eb00acff0700e04f54004400320049
:1039a8008040eb0010c0b300a7ff070011c0b300b0
:1039b80020c0b300a4ff070011c0b30030c0b3009b
:1039c800a1ff07008040eb0040c0b3009eff070046
:1039d8008a40780050c0b3009bff070089c44400a8
:1039e800e8c0440060c0b30097ff070001c7b300f8
:1039f80070c0b30094ff070031ccb300c0c0b3005f
:103a080091ff070041ccb300d0c0b3008eff070080
:103a180051ccb300e0c0b3008bff070061ccb3000a
:103a2800f0c0b30088ff070001c2b30010c1b300a3
:103a380085ff07008040eb0020c1b30082ff07002c
:103a48008040eb0030c1b3007fff07008040eb00ef
:103a580040c1b3007cff07008040eb0050c1b300b9
:103a680079ff07008040eb0060c1b30076ff0700d4
:103a78008040eb00c0c1b30073ff07008040eb003b
:103a8800d0c1b30070ff0700e78157006881570075
:103a980011c0b30010ceb30042ff0700e781570002
:103aa8006881570011c0b30020ceb3003dff070066
:103ab8004f0578004f04be000080fa0000000600a1
:103ac8000200fa008f01e9000f81e90011c0b3007c
:103ad80020ceb30033ff07000080fa000000060084
:103ae8000001780000cab30069ff370000017800c0
:103af80010c6b30068ff3700800178000100780025
:103b080012a6200083007800f5fe37000001780037
:0c3b18000100780001a42000f1fe37003d
:020000040000fa
:103b24003a0b00001a000000020000000000000030
:103b34000000000000000000000000000000000081
:103b44000000000000000000000100000000000070
:103b54006c1300000004000000000000980900003d
:103b640062000000000000000008000004010000e2
:103b740000000000400a0000860000000000000071
:103b8400c60a00000200000002000000000000005d
:103b9400c80a000040000000000000000409000002
:103ba4009400000000000000000a00004000000033
:103bb400000000006c0b0000000800000000000082
:103bc400fa0900000400000002000000ffffff00eb
:103bd400ff000000680b000004000000000000006b
:103be400540b0000140000000200000082000000da
:103bf40000830000000084000000000032833600cf
:103c0400833b830003000000080b00003200000027
:103c1400020000001201100001ff00000040260015
:103c24001e00c60000050100020301001403490040
:103c3400004d000033003200005300003700420002
:103c44000055000041000c00037800007800780063
:0c3c540000780000780000000000000074
:020000040000fa
:0c3c600041c1b30020c0b30031f63700b2
:020000040000fa
:0497fc000000fe006b
:020000040000fa
:10980000ee874700889fbe008a9fbe008c9fbe00e7
:109810008e1f780003002000040025000380fb0059
:1098200001002000c000dd00000020000400400016
:10983000e0804800910188001001ba001080ba0051
:1098400001202000810f510002003a00e44f500037
:10985000010032000000fe00f10f200001816100d4
:1098600003002000c011dd000200200004014100bf
:10987000e08149000000200001006000010020009c
:10988000c000dd000000200004c0240004004000ef
:10989000e0804800800f5100818f590003003100a3
:1098a000f2b79f0083bf9f0002003700f0b79f0010
:1098b00081bf9f006055b8000d0020000e002500fc
:1098c0006170b800d0b79f00e1b79f000d82fb0028
:1098d00005002000c021dd0002002000b2b79f007b
:1098e000c3b79f004f0037005fb19700efb19700fb
:1098f0000200450083804d003fb19700cfb1970033
:1099000000034100818349000000eb00403cde0081
:10991000090020008b027800fc3f2000980188009d
:10992000860040001102ba009181ba0095018800ba
:109930008a0040001101ba009180ba00820f5200e3
:1099400006003a00818f510004003a000080e800d0
:109950008c0f5000f1ff34002e0037002304240048
:10996000033b8800950188000a0dbb000700fc003e
:1099700050052000303b8800a00a2000303b8800c2
:1099800061e7a80000000000000000000004eb00f8
:1099900088047800fc0320001c0037006148b900ef
:1099a0000001430081814b00930188001202ba003c
:1099b0001281ba000000450081804d0091018800ad
:1099c0000408bb000288bb008502e8008984e80027
:1099d0008c8f5200f1ff340010002400003b8800ff
:1099e0000700fc0050052000303b8800a00a200042
:1099f000303b880061e7a800000000000000000084
:109a00000804e800e70f540002003c008002eb006d
:109a1000e2ff370000402000010020000a0540005e
:109a20008b8548007fb197008fb99700820f550052
:109a3000838f5d00acff3900f00f200000856600c9
:109a40000b002000c055dd000a0020000e05450077
:109a5000e0854d006011b8000800250009002000d5
:109a6000060020000003630007002000c033dd0073
:109a7000060020000606be00230037000802410051
:109a8000898249000402460085824e0095018800c3
:109a90008003eb00f63f20006138b900000042006f
:109aa00081804a001007ba001080ba00e10f470019
:109ab00006003a00e10f400004003a008783e80006
:109ac000868f5300f4ff34000b003700200424007d
:109ad000003b8800040abb000700fc005005200082
:109ae000303b8800a00a2000303b880061e7a800d6
:109af00000000000000000000040200001002000e5
:109b000002014000838148008a0f51008b8f590069
:109b1000daff39000000fe004f0778004f06be0054
:109b20004f05be004f04be00ef00b100000006006c
:020000040000fa
:020000040001f9
:0457f000ffff0000b7
:020000040000fa
:020000040001f9
:0457f400fffc0000b6
:020000040000fa
:020000040001f9
:0457f8006e3b000004
:020000040000fa
:020000040001f9
:0457fc00743f0000f6
:020000040000fa
:020000040040ba
:080000000000000004000000f4
:00000001FF
