:020000040000fa
:080000000002040000000000f2
:020000040000fa
:100400004f9e20000eff20000e018800000000001b
:100410000c00070020162100010020001100070039
:10042000000020000000e000020032000000020096
:1004300000000000d00c0200000000000040da00c4
:100440000000fe004440a900000020000000e00081
:100450000300320000002000a00188004440a800f2
:100460000000060091018800800078000000eb0089
:1004700015003700e280400032a0b4009101ba00bc
:10048000e280400032a0b4009102ba00e280400055
:1004900032a0b4000002eb00472bde00f507b200eb
:1004a000602ce10004003a000059eb008301e900f0
:1004b000fdff3e00040037006128e100010032002a
:1004c0000082eb00040007001101ba000200e00006
:1004d000e8ff3a00000006003159ba008301e90044
:1004e0000c0032002159ba008301e90008003200f3
:1004f0000400e00003003a00e280400032a0b400b3
:10050000f5ff370011d9ba008301e900faff3a007c
:100510008100e800e180400032a0b4000000060045
:10052000839f68000100e00002003d0060001000b1
:10053000e08018000300e00002003d0060011100af
:10054000e0811900050007004f00e00002003b00b9
:1005500060001000e0801800000006006022b80073
:10056000060220000000d0008180d2000482d20068
:100570008582d2000000a0000202520083825a004d
:10058000030031000202420083824a000000a10001
:0c0590000603e900f3ff3a00000006003b
:020000040000fa
:0447fc000000fe00bb
:020000040000fa
:10480000f8874700889fbe008a9fbe008c9fbe002d
:104810008e1f7800020020000281fb0003002000b0
:10482000c011dd00020020000080220000004100d5
:10483000e08049004009de00030020000001fd0087
:1048400032e0b7000001fd009001ba001081ba000b
:1048500000202000808f510002003a00e44f5100f8
:10486000010032000000fe00f30f200000002000d5
:104870000300600001002000c000dd0000002000f7
:104880000280220002024000e08248000000200076
:104890000300600001002000c000dd0000002000d7
:1048a0000240220002004000e0804800800f5200d9
:1048b000818f5a000300310084b79f0095b79f0095
:1048c0000200370080b79f0091b79f006055b80085
:1048d00000002000f0b79f000180220081bf9f00f0
:1048e0006101b800b2b79f00c3b79f008280fb0090
:1048f000000020000fb9970002004000e08048004f
:10490000d0b79f00e1b79f00510037005fb097001c
:10491000efb097000a0340008b83480086017800bf
:104920000a0178004fb79700403ede000d002000de
:10493000405cde0009002000c8e79f000c00780002
:1049400032e0b7009300ba009382ba000800780002
:1049500032e0b7001200ba001282ba00808f500015
:1049600009003a00848f520007003a000e87e800e1
:104970008381e8000281e80000042000800f5700d6
:1049800031003200edff37000060fe00800524009a
:10499000003b88004fe0970032e0b7000a0dbb00f3
:1049a0000700fc0050052000303b8800a00a2000d2
:1049b000303b880061e7a800000000000000000014
:1049c0006044b8004038de000100200032e0b7004b
:1049d0009602ba001682ba000800450089804d0090
:1049e0004009de00030020000001fd0032e0b700b6
:1049f0000001fd000508bb000488bb006203430002
:104a0000e0834b0062044400e0844c000104200079
:104a1000810f5400e08f5c00eaff3a000060fe0066
:104a200040002400003b88000700fc0050052000e7
:104a3000303b8800a00a2000303b880061e7a800d6
:104a400000000000000000000a04b0000b80b0006d
:104a50000fb197009fb19700820f5500838f5d00c3
:104a6000aaff3900efe997000380fb000100200056
:104a7000c000dd00000020000fb9970002004000d8
:104a8000e0804800e0af9f00f1af9f006033b800c6
:104a9000000020006105b8008a80fb0000002000b3
:104aa0000280220002064000e08648002200370013
:104ab0000602460087824e004028de0001002000ea
:104ac00032e0b7000401be000b04780009042000a6
:104ad0001200ba009280ba00e10f400008003a00cc
:104ae000e18f400006003a000884e80062014100be
:104af000e0814900890f54000d003200f4ff3700b7
:104b00000060fe0080052400003b8800040abb0012
:104b10000700fc0050052000303b8800a00a200060
:104b2000303b880061e7a8000000000000000000a2
:104b30000604b0000780b0006fa89700ffa8970098
:104b4000800f5300818f5b00d9ff39000000fe0009
:104b50004f0778004f06be004f05be004f04be0051
:084b60008f01b1000000060006
:020000040000fa
:020000040040ba
:08000000000000000c000000ec
:020000040000fa
:0200000401f009
:04000000ffff0000fe
:020000040000fa
:0200000401f009
:04000800ffff0000f6
:020000040000fa
:0200000401f009
:04000c0058ff000099
:020000040000fa
:0200000401f009
:04001000bbff000032
:020000040000fa
:0200000401f009
:04001400eaff0000ff
:020000040000fa
:0200000401f009
:04001800f7ff0000ee
:020000040000fa
:0200000401f009
:04001c00ffff0000e2
:020000040000fa
:0200000401f009
:04002000ffff0000de
:020000040000fa
:10000800c4040000c4040000c4040000c4040000c8
:10001800c4040000c4040000c4040000c4040000b8
:10002800c4040000c4040000c4040000dc04000090
:10003800c4040000c4040000c4040000c404000098
:100048005e050000c4040000c4040000980c000011
:10005800c4040000c8040000c4040000c404000074
:10006800c4040000c4040000c4040000c404000068
:10007800c4040000c4040000c4040000c404000058
:10008800c4040000c4040000c4040000c404000048
:1000980070080000c4040000c4040000c404000088
:1000a800c4040000c4040000c4040000c404000028
:1000b800c4040000c4040000c4040000c404000018
:1000c800c4040000c4040000c4040000c404000008
:1000d800c4040000c4040000c4040000c4040000f8
:1000e800c4040000c4040000c4040000c4040000e8
:1000f800c4040000c4040000c4040000c4040000d8
:10010800c4040000c4040000c4040000c4040000c7
:10011800c4040000c4040000c4040000c4040000b7
:10012800c4040000c4040000c4040000c4040000a7
:10013800c4040000c4040000c4040000c404000097
:10014800c4040000c4040000c4040000c404000087
:10015800c4040000c4040000c4040000c404000077
:10016800c4040000c4040000c4040000c404000067
:10017800c4040000c4040000c4040000c404000057
:10018800c4040000c4040000c4040000c404000047
:10019800c4040000c4040000c4040000c404000037
:1001a800c4040000c4040000c4040000c404000027
:1001b800c4040000c4040000c4040000c404000017
:1001c800c4040000c4040000c4040000c404000007
:1001d800c4040000c4040000c4040000c4040000f7
:1001e800c4040000c4040000c4040000c4040000e7
:0801f800c4040000c40400006f
:020000040000fa
:10020800c4040000c4040000c4040000c4040000c6
:10021800c4040000c4040000c4040000c4040000b6
:10022800c4040000c4040000c4040000dc0400008e
:10023800c4040000c4040000c4040000c404000096
:100248005e050000c4040000c4040000980c00000f
:10025800c4040000c8040000c4040000c404000072
:10026800c4040000c4040000c4040000c404000066
:10027800c4040000c4040000c4040000c404000056
:10028800c4040000c4040000c4040000c404000046
:1002980070080000c4040000c4040000c404000086
:1002a800c4040000c4040000c4040000c404000026
:1002b800c4040000c4040000c4040000c404000016
:1002c800c4040000c4040000c4040000c404000006
:1002d800c4040000c4040000c4040000c4040000f6
:1002e800c4040000c4040000c4040000c4040000e6
:1002f800c4040000c4040000c4040000c4040000d6
:10030800c4040000c4040000c4040000c4040000c5
:10031800c4040000c4040000c4040000c4040000b5
:10032800c4040000c4040000c4040000c4040000a5
:10033800c4040000c4040000c4040000c404000095
:10034800c4040000c4040000c4040000c404000085
:10035800c4040000c4040000c4040000c404000075
:10036800c4040000c4040000c4040000c404000065
:10037800c4040000c4040000c4040000c404000055
:10038800c4040000c4040000c4040000c404000045
:10039800c4040000c4040000c4040000c404000035
:1003a800c4040000c4040000c4040000c404000025
:1003b800c4040000c4040000c4040000c404000015
:1003c800c4040000c4040000c4040000c404000005
:1003d800c4040000c4040000c4040000c4040000f5
:1003e800c4040000c4040000c4040000c4040000e5
:0803f800c4040000c40400006d
:020000040000fa
:10059c0080cfb30032e0b700400020009000ba00da
:1005ac00010078000000a20061006000000006005d
:1005bc00c1002000012788000001eb0012278800f1
:1005cc000080eb00803b8800903b8800a03b8800bb
:1005dc0045c7bf00f3c8b3000340600004c3b300b9
:1005ec000440700045e7b700221688000116880009
:1005fc0000242e006016880040c820004016880099
:10060c007007a9007007a90040c3bf006f406000cd
:10061c000047b30040e3b70043c3bf00f043b20050
:10062c0043e3b70043a3a9004343a80042c3bf0060
:10063c0031c8b300014060000034a00042e3b700b1
:10064c0045e3a90045c3bf0001ceb30001406000e3
:10065c000014a00045e3b70020c0b30044e3b7008a
:10066c005583a80048c3bf007f40600048e3b70033
:10067c0000402000701a880000002600801a8800b4
:10068c0041e3a8007167a9007167a90002088800fe
:10069c00001920001008880005e1a80071a7a90026
:1006ac0071a7a90012c1bf00f1c050000140600049
:1006bc000044a00012e1b7005208880080382100e5
:1006cc007008880013e1a80071c7a90071c7a900c0
:1006dc0071e7a90071e7a9001fe1a8001e61a8003d
:1006ec0070a7a900021188002062a9002100200037
:1006fc00411188001211880023a2a80023e2a9004e
:10070c0022c2bf00f043b20022e2b70023c2a8000d
:10071c0021e2a8002342a80070c7a900821188001a
:10072c009211880031e2a8003062a900c111880042
:10073c003342a8007227a900c0c1b3009b61b70067
:10074c00f0c1b3009c61b700301f2000f00c880092
:10075c00504c8000000d88009ac1bf0081cfb300bf
:10076c00014060006040b3009ae1b7007247a900f5
:10077c00c0c1b300a561b700f0c1b300a661b7005a
:10078c0030062000400d8800604c8000500d880021
:10079c00a4c1bf00014060006040b300a4e1b700f9
:1007ac0074e7a90074e7a900000028000032880053
:1007bc0070702000103288007000200020328800f9
:1007cc00a5c0bf00034060000044a000a5e0b70036
:1007dc009460a800a8c0bf00014060000024a000e5
:1007ec00a8e0b7009500a800b2c0bf0001406000af
:1007fc000004a000b2e0b7009780a800a9c0bf0019
:10080c000340600004407000a9e0b7009560a800a8
:10081c00aac0bf00034060000054a000aae0b700cb
:10082c0085a0a90095a0a800000006008000780013
:10083c00000028000032880020012000603288006f
:10084c001180fb0040328800114090000080fb00ba
:10085c00403288004086a80040c6bf000068a30054
:10086c00fdff32004086a90060328000a040980055
:10087c00000006000001780000002800003288000b
:10088c0020012000603288001280fb00403288007a
:10089c00124090000080fb00403288004086a80087
:1008ac0040c6bf000068a300fdff32004086a900cf
:1008bc00613280008001eb0022409000814f50009b
:1008cc0001003a001300200003007800000006002d
:1008dc006e09e20016003a0000ceb3004260b70089
:1008ec0080cfb30032e0b700410020001100ba0005
:1008fc001181ba000000a1008008bb008288bb00f7
:10090c0040002400003b880050052000303b88004c
:10091c00a00a2000303b880061e7a800000000001e
:10092c00000000006147e200feff35000000fe0001
:10093c0000000600f1c7b3008000fd0032e0b700f4
:10094c008000fd00000040000020b1009000ba00c3
:10095c000100780000000600000278006cc9bf009e
:10096c0032e0b700524b80001200ba009281ba00fc
:10097c00000a780083087800000006000000fe00e2
:10098c0000400600801f780085a0a9000018800098
:10099c00604d880010188000704d88002018800071
:1009ac00804d88004f00780000400600809fbe00fc
:1009bc00829fbe008460a900aa09ec00504d8800fb
:1009cc00ea0f500037003a00aa29ef00414b800093
:1009dc000100e000330032008101e900434b880044
:1009ec0076004000808f510003003a006629ef002a
:1009fc006429ef006229ef0063805000fd0f500066
:100a0c001c003e00214b80000100e00003003a0076
:100a1c00500520002011880010003700e98f50008d
:100a2c000e003200324b8000c09d20006209b400e1
:100a3c001080fb000280de000008a30002003200e0
:100a4c0050052000201188000200e800304b88007f
:100a5c00e70f5000010034006629ef000100e800a8
:100a6c00204b8800e90f5000020034006429ef008d
:100a7c006229ec000300e0000a003a002222a900df
:100a8c003011800030118000301180003011800056
:100a9c009560a8002062a900200020004011880069
:100aac009500a8004f01be004f00be00004006009c
:100abc00809fbe00829fbe00849fbe00861f780070
:100acc008500a900a609e2007d013200a04b800040
:100adc00e000500002003a00cda2a900af003700a0
:100aec00e100500001003a00ac003700e200500079
:100afc0024003a00cda2a800000000000000000075
:100b0c0000000000000000000000000000000000d9
:100b1c0000000000000000000000000000000000c9
:100b2c0000000000000000000000000000000000b9
:100b3c0000000000000000000000000000000000a9
:100b4c0000000000000000000224260003242e00f8
:100b5c0004302e00053024008e29af000530200013
:100b6c00c12c200082087800000000008308780067
:100b7c008408780000000000000000008508780060
:100b8c0086003700e300500024003a00cda2a800f4
:100b9c000000000000000000000000000000000049
:100bac000000000000000000000000000000000039
:100bbc000000000000000000000000000000000029
:100bcc000000000000000000000000000000000019
:100bdc000000000000000000000000000000000009
:100bec000224260003242e0004302e00053026009b
:100bfc008e29af0005302200c12c2000820878001d
:100c0c0000000000830878008408780000000000d1
:100c1c00000000008508780060003700e4005000f8
:100c2c0003003a00c12c200011e0a0005b0037004b
:100c3c00e500500006003a00053026008e49af0052
:100c4c0005302200c12c20008508780053003700a5
:100c5c00e600500003003a00c12c200011e0a00077
:100c6c004e003700e700500025003a00000000005d
:100c7c000000000000000000000000000000000068
:100c8c000000000000000000000000000000000058
:100c9c000000000000000000000000000000000048
:100cac000000000000000000000000000000000038
:100cbc000000000000000000000000000000000028
:100ccc00000000000224260003242e0004062e003f
:100cdc00050626008e09af0005062200c12c200057
:100cec0082087800000000008308780084087800ef
:100cfc000000000000000000850878002700370085
:100d0c00e800500003003a00c12c200011e0a000c4
:100d1c0022003700ea00500020003a0000000000da
:100d2c0000000000000000000000000000000000b7
:100d3c0000000000000000000000000000000000a7
:100d4c000000000000000000000000000000000097
:100d5c000000000000000000000000000000000087
:100d6c000000000000000000000000000000000077
:100d7c00000000000224260003242e0004062e008e
:100d8c0005062600c12c2000840878000000000015
:100d9c000000000085087800000037000000e0002b
:100dac0033003a00b14c8000424c8000640051008a
:100dbc00808f500002003e00f14b8800010037008c
:100dcc00f04b8800a04c8000e6005100810f5000d1
:100ddc0003003e000080e900e04b88000100370072
:100dec00e14b88007a29ef007829ef00e04b800076
:100dfc000000510064005000404e8800f44b80000d
:100e0c00040051000000400064005000a04d880018
:100e1c00829c20008001eb00017d20000300370044
:100e2c000109500071b99f008301e800320078007d
:100e3c00810f5000faff3e00d34b8800429b2000ec
:100e4c008001eb00017d20000300370001095000f8
:100e5c0071b99f008301e80032007800810f5000c7
:100e6c00faff3e00c34b88002000200034003700fe
:100e7c00e10f500037003a00b14c8000424c80002a
:100e8c0064005100808f500002003e00f14b88003e
:100e9c0001003700f04b8800a04c8000e6005100a8
:100eac00810f500003003e000080e900e04b8800f9
:100ebc0001003700e14b88007a29ef007829ef0018
:100ecc00e04b80000000510064005000404e880050
:100edc00f44b8000040051000000400064005000fe
:100eec00a04d8800829c20008001eb00017d200039
:100efc00030037000109500071b99f008301e8001d
:100f0c0032007800810f5000faff3e00d34b88006e
:100f1c00429b20008001eb00017d20000300370084
:100f2c000109500071b99f008301e800320078007c
:100f3c00810f5000faff3e00c34b880030002000a8
:100f4c00a04b88007920b9000000e90070088800e7
:100f5c005b003700e20f500002003200e30f50003c
:100f6c0005003a00500020007c09e2003e003200ef
:100f7c00400020003c003700e40f500005003a0010
:100f8c0050002000a04b8800e04b80007900b90095
:100f9c00edff3700e50f500004003a006000200020
:100fac00a04b8800100320001a003700e60f5000f9
:100fbc000c003a00924d800082004100809c200081
:100fcc00610078007900b9000000e9007008880021
:100fdc00d04b8000800f510032003900700020008f
:100fec001c003700e70f50001e003200e80f5000c5
:100ffc000b003a00b0002000a04b8800904d800000
:10100c0000004000419b2000608078007900b9000e
:10101c000000e90070088800b229ef0028003700b2
:10102c00e90f50000d003a00924d80008200410003
:10103c00809c2000610078007900b9000000e90074
:10104c0070088800d04b8000800f510015003900cb
:10105c00a0002000a04b880019003700ea0f5000b8
:10106c0004003a0080002000a04b880010032000f0
:10107c00b6ff3700eb0f500011003a00924d800084
:10108c00c04b8000800f510009003e0082004100df
:10109c00409b2000610078007900b9000000e90055
:1010ac00700888000200e800904d880004003700aa
:1010bc00c0002000a04b880000242e006016880081
:1010cc004f0378004f02be004f01be004f00be0020
:1010dc00004006008780a9007629ef00004006003a
:1010ec00e10f50000900320003003c000000e0005a
:1010fc000900320000000600e20f5000050032002b
:10110c00e30f500008003a000500370000012000f2
:10111c00010037000008200020168800000006009f
:10112c00000920002016880000000600c09d200049
:10113c00befd07009500a9009560a9002062a800db
:10114c00300620004011880020022000404b88000f
:10115c0000000600024b80005488200014427800e6
:10116c0031448000534480008448e20003003d0079
:10117c00e80f51001d003a00030037006880410061
:10118c00800f510019003a0000c5b300804f520087
:10119c0016003a006108b800c000dd000000200015
:1011ac006244800002024000e08248000381e900b2
:1011bc00e10f4200e08f4a0008003a0000ceb30075
:1011cc004260b700e38820000400be006002070004
:1011dc00950307000000fe00000006008500d1000a
:1011ec000480d300e3882000c7020700000006003b
:1011fc00010178000000400001e02f008100400058
:10120c00f3c7b3000300780032e0b7001100ba0056
:10121c00800f51001c0032000300780032e0b70050
:10122c00f00f20008208bb008088bb0080052400e2
:10123c00003b88000600fc0050052000303b880075
:10124c00a00a2000303b880061e7a8006147e2005b
:10125c00feff3500f00f20008208bb008088bb0029
:10126c0040002400003b88000600fc0050052000d4
:10127c00303b8800a00a2000303b880061e7a800c2
:10128c006147e200feff3500000006000800fa008e
:10129c00889fbe008a9fbe00c08f200075fd07008e
:1012ac000000e00096013200c48f20001442780048
:1012bc00db8f20009b457800e1478000f0ff200089
:1012cc008081600001017800f23fb2000b80fb00ce
:1012dc00c400de000185fb004300de00e10260007b
:1012ec006600650072003a00a8088000b90880000a
:1012fc00b0088800a00888008780a900b04b800047
:10130c00820f500007003a00880cb0000980b00032
:10131c0002192000030020000800be007dfc07001d
:10132c0002003700b24b88006a10b9000001780047
:10133c009500a9000000000000000000404c88004f
:10134c00a04b8000eb0f50000c003a004258de001e
:10135c0067006000704c88000a38a300020032005d
:10136c007429ef000200370010002000a04b880009
:10137c000a21ef008500a8004b003700ec0f50004d
:10138c0049003a00404d8000e003b200e103200028
:10139c00810f500044003a008e29ef00b14c8000c0
:1013ac0064005100808f500002003e00f14b880019
:1013bc0001003700f04b8800a04c8000e600510083
:1013cc00810f500003003e000080e900e04b8800d4
:1013dc0001003700e14b88007a29ef007829ef00f3
:1013ec00e64b80000600510064005000404e88001f
:1013fc00f54b8000050051000000400064005000d7
:10140c00a04d8800829c20000002eb00017d200092
:10141c00030037000109500071b99f000402e80075
:10142c0032007800810f5000faff3e00d44b880048
:10143c00429b20008001eb00017d2000030037005f
:10144c000109500071b99f008301e8003200780057
:10145c00810f5000faff3e00c34b880012002000a1
:10146c00324d8800b229ef000a21ef00404e800077
:10147c0000004300050040007900b9001003b000e3
:10148c00700888000400e000040032009000200086
:10149c00a04b8800924d880002003700a00020006d
:1014ac00a04b88008500a9009500a800f700370024
:1014bc000180fb000100200063005000e080580018
:1014cc00eb0f5000e08f5800f0003e000060010070
:1014dc00cc003700c7003700c1003700b000370020
:1014ec0081003700e9003700e80037006c00370056
:1014fc00470037002200370011003700000037008a
:10150c00803e2000800f5100020034000001780062
:10151c0003003700e10f510001003c0022002000c5
:10152c00104d8000800f510003003a00b24c88002f
:10153c00a829a800d5003700124d8800d300370029
:10154c00803e2000800f5100020034000001780022
:10155c0003003700e10f510001003c002200200085
:10156c00004d8000800f510003003a00a24c88000f
:10157c00a849a800c5003700024d8800c3003700f9
:10158c000500e0000d003200304c8000800f51004f
:10159c0008003a00104c8000820f5000bb00320053
:1015ac00124c8800a021ef004210de00f00c8800e5
:1015bc00b6003700324c8800b4003700104c800065
:1015cc00800f51000100360000017800d04c8000e3
:1015dc00800f51000c003a00524c88004210de0083
:1015ec00000d8800e340610081c040009dc1bf0038
:1015fc0092cfb30002406000014070009de1b70043
:10160c00a869a800a1003700d24c88009f003700c1
:10161c000500e0000d003200204c8000800f5100ce
:10162c0008003a00004c8000820f500097003200f6
:10163c00024c8800aa21ef004290de00400d880089
:10164c0092003700224c880090003700004c80003c
:10165c00800f51000100360000017800e04c800042
:10166c00800f51000c003a00624c88004210de00e2
:10167c00500d8800e340610081c04000a7c1bf004d
:10168c0092cfb3000240600001407000a7e1b700a8
:10169c00a889a8007d003700e24c88007b00370049
:1016ac00f04c8000808f51000d003a00934c880064
:1016bc004418de00e3006000804c8000808f5000f6
:1016cc0005003200814c8800a021ef00aa21ef0018
:1016dc008229ef008029ef00a8a9a8006b00370031
:1016ec00f34c8800690037004898de0006003a0089
:1016fc00c0c0b300dce9b700704b80006500b900d6
:10170c00dde9b7000d003700e10f50000d003a0085
:10171c00000020000080fb0001002000c000dd0064
:10172c00000020000280220002014000e0814800fd
:10173c000201410083814900e24e88007bfe0700d4
:10174c0052003700e20f500006003a00f0c7b30019
:10175c0032e0b70000e02f009000ba0001007800e2
:10176c000d003700e30f500005003a00f0805700e1
:10177c006e80570078fc07001fb99700eeff37000a
:10178c00e40f500041003a00ee8057007080570083
:10179c0071fc07001fb89700e04e8800e7ff370088
:1017ac00c898de00e18f500001003a006029ef007c
:1017bc00024b800070072000800f510004003c0099
:1017cc0040882000047178000200e800004b88007b
:1017dc00e28f50002d003a005efe07002b00370010
:1017ec0040032000808f510028003a0038fc07008d
:1017fc0026003700830078000000eb007cfe070019
:10180c00220037004898de0005003a00504b80005b
:10181c0001f02f00010060008480fb0019003700ec
:10182c00e10f500019003a000480fb004400de0078
:10183c00e84f500004003a006f40620000c2e9001b
:10184c00f007200004003700e94f500004003a0074
:10185c006f426200800f2000604b8800060037004a
:10186c00ea4f500003003a006f426200f00f200074
:10187c00f9ff37006c29ef00504b8000f00fb200dd
:10188c00c820dd0001007000504b88007029ef006b
:10189c004023a800604d8000ae09b5000100200077
:1018ac004a09dd00c600de00810071004a00dd003f
:1018bc00824d80000300200025fb07006c8457003c
:1018cc00004c78004800de006f4060000044b0001f
:1018dc00d0f79f0008007800d4fb07001880fb00ad
:1018ec00a01188005ff097000080fb00a011880019
:1018fc006ff097000080fb00a011880005003700f6
:10190c00fdc8bf00fce8b700fec8bf00fde8b7008b
:10191c007029ed004f05be004f04be000080fa0098
:10192c00000006003600f800809fbe00829fbe00bb
:10193c00849fbe00869fbe008560a9000c00370006
:10194c00321180000280fb00a0118800804b8000c7
:10195c00c18f200002f078000000e800804b880066
:10196c007229ef00e30f500001003a0047fe070018
:10197c0022c2bf000008a300f1ff3a004f03be00d3
:10198c004f02be004f01be004f00be003600f900f2
:10199c000040060080cfb30032e0b70040002000ca
:1019ac009000ba00010078000000a2006100600005
:1019bc00704b880008003a0072010700e00f5000dd
:1019cc00e08f58000400320000ceb3004260b70034
:1019dc000024020000000000f5fa07000140fe00a0
:1019ec00feff37000002be0002034000e083480007
:1019fc000e0037004028de000100200032e0b70066
:101a0c001400ba009480ba00804978004800de00c7
:101a1c0090419800a1419800c808de00b14198009f
:101a2c00e481410062024200e0824a00860f5200cb
:101a3c00878f5a00efff390000000600889fbe0018
:101a4c008a9fbe008c1f78000002be000206780040
:101a5c00830578004008de000044780032e0b700cf
:101a6c00040378008001eb00030178008403780004
:101a7c00fa0f2000090220001600ba009680ba0066
:101a8c00e10f400003003a00f10fb2008a8f5000c2
:101a9c0001003200130020000201e8000683e80078
:101aac00890f5100f4ff3a000300e0000e003200f1
:101abc000060fe0080052400003b880008007800d0
:101acc0032e0b700040abb000700fc005005200000
:101adc00303b8800a00a2000303b880061e7a8005a
:101aec0000000000000000000800780032e0b700a1
:101afc000002eb0005042000ec007a006b007a0079
:101b0c00810bbb00809bbb000482e800850f520058
:101b1c00f9ff3a000060fe0040002400003b880002
:101b2c000700fc0050052000303b8800a00a200074
:101b3c00303b880061e7a8000000000000000000b6
:101b4c004f0678004f05be004f04be000000060093
:101b5c00889fbe008a9fbe008c9fbe008e1f78009f
:101b6c000005be00020778008306780000fc2f00f9
:101b7c000a0060008b017800000178000204be00ae
:101b8c00004f8000114f8000880f5000898f580043
:101b9c001f003200e00f5000e08f580004003500a9
:101bac008228ec000380200002842000a3ff0700a1
:101bbc00e00f5400e08f5c00130035008028ec002f
:101bcc0040c8de00cf80de0032e0b7000802be0065
:101bdc008001eb000c84200007802000060220000e
:101bec009400ba001481ba000380410001307e00d9
:101bfc0002b07b008301e80062024200e0824a00ee
:101c0c00868f5100f6ff3a00084f8800194f880064
:101c1c000a007800f003b2000000d1000d02780039
:101c2c008002eb00078420000680200010003700a3
:101c3c007f01600082014100144090004800dd00eb
:101c4c009480fb000100400080b17b00b440900008
:101c5c00c808dd00244090000080fb00808040001c
:101c6c0081317b00e48242000200e8006402420001
:101c7c008e8f5200eeff39004f0778004f06be00e2
:101c8c004f05be004f04be0000000600889fbe003a
:101c9c008a9fbe008c9fbe000005be000206be00df
:101cac008004eb00120037008a007800f103b200c8
:101cbc0000042000010050000000400000047800e7
:101ccc0009005600880f5000010031000004780014
:101cdc0089814600080178000a00be009cff0700bd
:101cec000800d10000054500e0854d0088844400c3
:101cfc008c8f5400ecff39004f06be004f05be0020
:101d0c004f04be00000006000002be000203780073
:101d1c00000020000080fb0001002000c000dd005e
:101d2c00000020000280220002004000e0804800f9
:101d3c00800f5200818f5a000200310004024000d3
:101d4c00858248000000400081804800800f5200ce
:101d5c00818f5a0003003100060178000400be0098
:101d6c00caff070000000600889fbe008a9fbe00c5
:101d7c00000020000080fb0001002000c000dd00fe
:101d8c00000020000280220002014000e081480097
:101d9c00020041008380490062055000e085580034
:101dac000203be006044b800100037004038de006b
:101dbc000100200032e0b7001601ba001682ba000a
:101dcc000280fb0000004400e0804c004811de0063
:101ddc0002014000e08148000482fb000404410041
:101dec00e084490062034300e0834b008a0f5300f8
:101dfc008b8f5b00edff39000980fb0080017800c0
:101e0c00080178000200be004f05be004f04be0062
:101e1c0000000600f40f2000020020000401610005
:101e2c0003002000c011dd00020020000080220011
:101e3c0000004100e0804900000040008180480023
:101e4c0062005000e08058004009de0003002000d2
:101e5c000001fd0032e0b7000001fd001001ba00e6
:101e6c001080ba0001002000c000dd00000020003e
:101e7c0002014000e0814800030262008402780005
:101e8c00020278000400be0000000600889fbe001d
:101e9c008a9fbe008c9fbe00000020000081fb00ca
:101eac0003002000c011dd0002002000048022008d
:101ebc00050020000206420083864a006011b8002b
:101ecc00f00fb20001002000c000dd000000200077
:101edc000005420081854a002300370002034500bb
:101eec0083834d0040b8de00cf80de0032e0b700c7
:101efc000602be0008022000f90f20001400ba00f0
:101f0c009480ba00e10f400009003a00f10fb200d2
:101f1c00898f500006003a000804e9006202420072
:101f2c00e0824a000800e0000d003200f3ff3700a9
:101f3c000060fe0080052400003b8800060bbb00ff
:101f4c000700fc0050052000303b8800a00a200050
:101f5c00303b880061e7a800000000000000000092
:101f6c000204b0000380b0008c0f51008d8f59001b
:101f7c00daff39004f06be004f05be004f04be000d
:101f8c0000000600889fbe00f40f20000000200017
:101f9c000400600001002000c000dd0000002000f3
:101fac000280220002014000e08148004018de005f
:101fbc000100200032e0b7001200ba009280ba0093
:101fcc0000017800e10f400005003a00f10fb2006b
:101fdc006011b800848f5000100032000d003700e3
:101fec0000202000800f51000a003a00e4cf50007e
:101ffc0008003a005cff07000004be0085ff0700e4
:10200c001200200003002000800f5400818f5c0020
:10201c00020032009dff07006011b8000200be00f4
:10202c004f04be0000000600f8874700889fbe00e2
:10203c008a9fbe008c9fbe008e1f78004aff07004f
:10204c000004be0073ff0700800f5400818f5c00fa
:10205c00020032008dff07009100370008002000bd
:10206c00f20f20000202640005002000c022dd00f7
:10207c00040020000c8022000d0020000402460009
:10208c0085824e000a0020000b0020000a00780018
:10209c000201650003002000c011dd0002002000d9
:1020ac0006402200070020000201430083814b0000
:1020bc000202520083825a00e4af9f00f5af9f00ea
:1020cc006011b80082b79f0093b79f00bab79f000a
:1020dc00cbb79f00f00fb20001002000c000dd0064
:1020ec00000020000000430081804b00d0b79f000f
:1020fc00e1b79f00f80fb20009002000c044dd00da
:10210c00080020000804460089844e00f8b79f00a0
:10211c0089bf9f005b0037000fb097009fb09700fe
:10212c005fb19700efb19700000541008185490030
:10213c007fb097008fb897000a0340008b8348004c
:10214c00860178000a0178004fb79700403ede0008
:10215c000d002000405cde0009002000c8e79f0055
:10216c000c00780032e0b7009300ba009382ba00fa
:10217c000800780032e0b7001200ba001282ba00f0
:10218c00808f500009003a00848f520007003a00fb
:10219c000e87e8008381e8000281e800000420003b
:1021ac00800f570031003200edff37000060fe0059
:1021bc0080052400003b88004fe0970032e0b70018
:1021cc000a0dbb000700fc0050052000303b8800c6
:1021dc00a00a2000303b880061e7a8000000000046
:1021ec00000000006044b8004038de000100200010
:1021fc0032e0b7009602ba001682ba000800450019
:10220c0089804d004009de00030020000001fd0024
:10221c0032e0b7000001fd000508bb000488bb00dc
:10222c0062034300e0834b0062044400e0844c00f2
:10223c0001042000810f5400e08f5c00eaff3a009b
:10224c000060fe0040002400003b88000700fc00fa
:10225c0050052000303b8800a00a2000303b88004d
:10226c0061e7a80000000000000000000fb197001b
:10227c009fb197000204b0000380b00082b79f00aa
:10228c0093b79f000fb097009fb097006fa997006e
:10229c00ffa99700820f5000838f58009eff3500d6
:1022ac004f0778004f06be004f05be004f04be001e
:0822bc008f01b10000000600d3
:020000040000fa
:1022c400600900004a000000020000000000000055
:1022d40000000000000000000000000000000000fa
:1022e4000000000000000c000000000000000000de
:1022f400000000000000000000000000ffffff00dd
:10230400ffc8000000000000000000000000000002
:10231400000800000800ff00ffffff00ffffff00b0
:10232400ffffff00ffff00000000000000000000ae
:10233400dc090000040000000200000055aa12009d
:1023440000000000aa0900003200000000000000a4
:10235400840800007800000000000000fc08000071
:102364006400000000000000e00900000400000018
:1023740002000000ffffff00ff0000000008000053
:0c238400840000000000000000000000c9
:00000001FF
