:020000040000fa
:080000000002040000000000f2
:020000040000fa
:100400000f482100007f220000018800000000004a
:100410000c000700a0ba2200010020001100070014
:10042000000020000000e000020032000000020096
:10043000000000005e230200000000000040da001f
:100440000000fe004440a900a00a20000000e000d7
:100450000300320000002000a00188004440a800f2
:100460000000060091018800800078000000eb0089
:1004700015003700e280400032a0b4009101ba00bc
:10048000e280400032a0b4009102ba00e280400055
:1004900032a0b4000002eb00472bde00f507b200eb
:1004a000602ce10004003a000059eb008301e900f0
:1004b000fdff3e00040037006128e100010032002a
:1004c0000082eb00040007001101ba000200e00006
:1004d000e8ff3a00000006003159ba008301e90044
:1004e0000c0032002159ba008301e90008003200f3
:1004f0000400e00003003a00e280400032a0b400b3
:10050000f5ff370011d9ba008301e900faff3a007c
:100510008100e800e180400032a0b4000000060045
:1005200000000000000000000000000000000000cb
:1005300000000000000000000000000000000000bb
:100540006022b800060220000000d0008180d200a6
:100550000482d2008582d2000000a0000202520074
:1005600083825a00030031000202420083824a0063
:100570000000a1000603e900f3ff3a0000000600b6
:0c058000efff07000400be0000000600b2
:020000040000fa
:10a000002e00fa000000200001002000c001dd0049
:10a010000200200000402500010020000202400054
:10a02000838248000000200001002000c001dd0004
:10a030000200200000002500010020000200400076
:10a0400083804800800f5200818f5a000b0031003e
:10a050000000200001002000c001dd0002002000ff
:10a0600000402500010020000201400083814800db
:10a0700052179800631798000a003700000020006c
:10a0800001002000c001dd000200200000002500ca
:10a09000010020000201400083814800521798000f
:10a0a000631798005e109000ee1090001017980053
:10a0b000211798006000b8003017980041179800e9
:10a0c000ad0037000000eb00100f980000002000ea
:10a0d00001002000c001dd0002002000004025003a
:10a0e0000100200002014000838148003e109000e2
:10a0f000ce1090000200400083804800400f98007e
:10a10000510f98003e109000ce109000200f980044
:10a11000310f98000000eb00001798002c0037006a
:10a120004e089000de0890004008de00010020008c
:10a1300090018800ce0890000e1090000080400032
:10a14000400798004e0090001001ba009080ba00bd
:10a1500002007800000f9800710798002e08900008
:10a16000be0890004008de00010020009001880039
:10a17000ae0890000e10900000804000300798005c
:10a180003e0090001001ba009080ba0002007800f2
:10a1900060079800510798008e0890006e009000ac
:10a1a000808f500004003a00fe0090005e00900096
:10a1b000808f50000300320010002000100f980024
:10a1c000070037000e1090000080e800001798008c
:10a1d0008e109000f03f2000808f5000d0ff3400a0
:10a1e0001e0890000000e0005b0032002004240004
:10a1f000003b88002e089000be0890004008de005a
:10a2000001002000900188002e099000be099000f6
:10a210000209bb000700fc0050052000303b88000d
:10a22000a00a2000303b880061e7a8000000000081
:10a23000000000000000eb00001798000000eb0099
:10a24000700f9800410037000000eb00600f98008d
:10a250002d0037000e1090006101b9004e089000eb
:10a26000de08900002004000838048004008de00c5
:10a2700001002000900188000e1090006101b900db
:10a280004e089000de0890000200400083804800e5
:10a290001001ba009080ba0002007800000f980008
:10a2a000710798000e1090006101b9002e0890000f
:10a2b000be08900002004000838048004008de0095
:10a2c00001002000900188000e1090006101b9008b
:10a2d0002e089000be0890000201400083814800d3
:10a2e0008e0890007e0090000109bb000089bb0031
:10a2f0006e0890000000e800600f98000e109000bb
:10a300000080e80000179800ee089000f00320009d
:10a31000808f5000cfff340010002400003b8800e5
:10a320000700fc0050052000303b8800a00a2000f8
:10a33000303b880061e7a80000000000000000003a
:10a340007e0890000000e800700f98007e089000e2
:10a35000e70f5000bcff34003e109000ce1090007c
:10a3600002402000030020000000410081804900dd
:10a3700030179800411798003e119000ce119000c0
:10a380001e109000ae109000800f5100818f590078
:10a390004cff39000000200001002000c001dd005a
:10a3a00002002000004025000100200002004000c3
:10a3b0008380480010179800211798006000b800ab
:10a3c00030179800411798004b0037000000eb0051
:10a3d000200798000000200001002000c001dd00df
:10a3e0000200200000402500010020000201400082
:10a3f000838148003e109000ce1090000200400083
:10a4000083804800400f9800510f98004e0890003c
:10a41000de0890004008de00010020009001880066
:10a420000000eb0000179800170037000e10900096
:10a430006101b9004e089000de0890000200400063
:10a44000838048001001ba009080ba0002007800b2
:10a4500010079800010f78001e009000e10f4000e7
:10a4600003003a000080eb009e0f10000300320052
:10a470001000200020079800070037000e10900001
:10a480000080e800001798008e109000f03f200038
:10a49000808f5000e5ff34002e0090000000e000a7
:10a4a0000d00320020042400003b88004e0990007b
:10a4b000de0990000209bb000700fc0050052000e7
:10a4c000303b8800a00a2000303b880061e7a800ec
:10a4d00000000000000000003e109000ce10900030
:10a4e000024020000300200000004100818049005c
:10a4f00030179800411798003e119000ce1190003f
:10a500001e109000ae109000800f5100818f5900f6
:10a51000aeff39000000fe000080fa0000000600d7
:020000040000fa
:020000040040ba
:080000000100000002000000f5
:020000040000fa
:020000040001f9
:0457f00015ff0000a1
:020000040000fa
:020000040001f9
:0457f400fffc0000b6
:020000040000fa
:020000040001f9
:0457f800ae3b0000c4
:020000040000fa
:020000040001f9
:0457fc00743f0000f6
:020000040000fa
:100008002a2c00002a2c00002a2c00002a2c000090
:100018002a2c00002a2c00002a2c00002a2c000080
:100028002a2c00002a2c00002a2c0000ba250000e7
:100038002a2c00002a2c00002a2c0000ce250000c3
:10004800282700002a2c00002a2c00004e26000039
:10005800942600002a2c00002a2c00002a2c0000dc
:100068002a2c00002a2c00002a2c00002a2c000030
:100078002a2c00002a2c00002a2c00002a2c000020
:100088002a2c00002a2c00002a2c00002a2c000010
:100098002a2c00002a2c00004827000060270000b6
:1000a8002a2c00002a2c00002a2c00002a2c0000f0
:1000b8002a2c00002a2c00002a2c00002a2c0000e0
:1000c8002a2c00002a2c00002a2c00002a2c0000d0
:1000d8002a2c00002a2c00002a2c00002a2c0000c0
:1000e8002a2c00002a2c00002a2c00002a2c0000b0
:1000f8002a2c00002a2c00002a2c00002a2c0000a0
:100108002a2c00002a2c00002a2c00002a2c00008f
:100118002a2c00002a2c00002a2c00002a2c00007f
:100128002a2c0000382600002a2c00002a2c000067
:100138002a2c00002a2c00002a2c00002a2c00005f
:100148002a2c00002a2c00002a2c00002a2c00004f
:100158002a2c00002a2c00002a2c00002a2c00003f
:100168002a2c00002a2c00002a2c00002a2c00002f
:100178002a2c00002a2c00003a0400002a2c000037
:100188002a2c00002a2c00002a2c00002a2c00000f
:100198002a2c00002a2c00002a2c00002a2c0000ff
:1001a8002a2c00002a2c00002a2c00002a2c0000ef
:1001b8002a2c00002a2c00002a2c00002a2c0000df
:1001c8002a2c00002a2c00002a2c00002a2c0000cf
:1001d8002a2c00002a2c00002a2c00002a2c0000bf
:1001e8002a2c00002a2c00002a2c00002a2c0000af
:0801f8002a2c00002a2c000053
:020000040000fa
:100208002a2c00002a2c00002a2c00002a2c00008e
:100218002a2c00002a2c00002a2c00002a2c00007e
:100228002a2c00002a2c00002a2c0000ba250000e5
:100238002a2c00002a2c00002a2c0000ce250000c1
:10024800282700002a2c00002a2c00004e26000037
:10025800942600002a2c00002a2c00002a2c0000da
:100268002a2c00002a2c00002a2c00002a2c00002e
:100278002a2c00002a2c00002a2c00002a2c00001e
:100288002a2c00002a2c00002a2c00002a2c00000e
:100298002a2c00002a2c00004827000060270000b4
:1002a8002a2c00002a2c00002a2c00002a2c0000ee
:1002b8002a2c00002a2c00002a2c00002a2c0000de
:1002c8002a2c00002a2c00002a2c00002a2c0000ce
:1002d8002a2c00002a2c00002a2c00002a2c0000be
:1002e8002a2c00002a2c00002a2c00002a2c0000ae
:1002f8002a2c00002a2c00002a2c00002a2c00009e
:100308002a2c00002a2c00002a2c00002a2c00008d
:100318002a2c00002a2c00002a2c00002a2c00007d
:100328002a2c0000382600002a2c00002a2c000065
:100338002a2c00002a2c00002a2c00002a2c00005d
:100348002a2c00002a2c00002a2c00002a2c00004d
:100358002a2c00002a2c00002a2c00002a2c00003d
:100368002a2c00002a2c00002a2c00002a2c00002d
:100378002a2c00002a2c00003a0400002a2c000035
:100388002a2c00002a2c00002a2c00002a2c00000d
:100398002a2c00002a2c00002a2c00002a2c0000fd
:1003a8002a2c00002a2c00002a2c00002a2c0000ed
:1003b8002a2c00002a2c00002a2c00002a2c0000dd
:1003c8002a2c00002a2c00002a2c00002a2c0000cd
:1003d8002a2c00002a2c00002a2c00002a2c0000bd
:1003e8002a2c00002a2c00002a2c00002a2c0000ad
:0803f8002a2c00002a2c000051
:020000040000fa
:10058c0012010000100100000000000000400000fb
:10059c00261e000003c9000000000000010200003c
:1005ac00030100000902000012000000010100001c
:1005bc0000c0000032090000040000000000000030
:1005cc00000000000000000004030000090400000b
:1005dc003e0300004d000000750000006c000000a0
:1005ec0074000000690000002000000043000000bf
:1005fc0068000000610000006e0000006e0000004a
:10060c00650000006c00000020000000530000009a
:10061c007900000073000000740000006500000009
:10062c006d00000073000000200000004d00000071
:10063c0043000000530000002000000047000000b1
:10064c006d0000006200000048000000180300006c
:10065c004d0000004300000053000000200000008b
:10066c00490000005300000033000000320000007d
:10067c004b0000005200000041000000d882000036
:10068c00ea820000ee8200002c830000ec130000d4
:10069c00626f00006f7400000d0a0000006900001a
:1006ac006e6900007420000055530000420d0000dc
:1006bc000a00000032300000313000004100000020
:1006cc005049000043000000504900004332000034
:0406dc00000000001a
:020000040000fa
:1006e0000200fa00f00f200070248800f00f2000b4
:1006f0005024880020002000302588000000eb00f6
:1007000040258800f009200080248800f00920009e
:10071000602488008804a800004021004800de0012
:10072000c02488009424a8000000eb00b0248800b6
:100730006000b80060258800712588000000eb008b
:10074000802588009424a9000040eb00004f780029
:10075000070037001e80fb00c200dd0000402100c2
:10076000008140006000b8000089be001e4fe80014
:10077000f0c0b3009e4f1000f6ff3600d0002000fe
:100780005025880002003700800020005024880097
:100790008ac4bf00684060000004e000faff3a002d
:1007a0000040eb003cf3b7000040eb0048f3b7001b
:1007b00049d3bf006040600049f3b7004ad3bf008f
:1007c000604060004af3b70094a4a9008140210072
:1007d000e034210001087800a13521000000eb0081
:1007e00080087800213621000000eb0080087800a6
:1007f00010c0b300004f7800150037001e80fb00ca
:10080000a2352100800040000000eb00803079001c
:100810001e80fb00e2342100800040000000eb005d
:10082000803079001e80fb002236210080004000cd
:100830000000eb00803079001e80fb00a236210012
:10084000800040000000eb00803079001e4fe8007f
:1008500030c0b3009e4f1000e8ff36000040eb00b0
:1008600044f3b7000000eb00109a88000080fa0003
:10087000000006003600f800809fbe00829fbe0088
:10088000849fbe00869fbe003400f8000000200058
:10089000a00188000600fa00109a8000e10f5000c5
:1008a0000a003a0094c4bf000044b2000004e00013
:1008b00006003a00f00f2000502488008c04a800a5
:1008c0008c84a80020002000109a880080c4bf00fb
:1008d000704060000004e0000700320082c4bf00e6
:1008e000704060000004e0000300320000012000be
:1008f00000248800cd00070088c4bf00624060006b
:100900000004e000020032008ec0a9009d00370004
:100910008ac4bf00614060000004e000170032009c
:100920008cc4bf00614060000004e000130032008e
:100930006bff070040002000109a880060382100fb
:1009400010a0880000c4b30000f4b70011402100db
:100950009140780030c0b30000c0600001f4b700df
:100960001140210091407800c0c8b30000c0700061
:1009700001f4b70010002000502488008ac4bf0092
:10098000704060000004e000070032008cc4bf002b
:10099000704060000004e00003003200990007008e
:1009a00000012000502488008ac4bf006440600019
:1009b0000004e0000a0032008cc4bf006440600004
:1009c0000004e00006003200120020008000eb006e
:1009d00030072000d30a0700400020005024880080
:1009e0008ac4bf0001c8b300014060000004e000f9
:1009f000060032008cc4bf0001c8b3000140600093
:100a00000004e00001003200660007008ac4bf0055
:100a1000624060000004e0000c0032008cc4bf00a3
:100a2000624060000004e000080032001200200074
:100a30008000eb000080eb00ba0a0700f00f2000f6
:100a4000702488002000200050248800109a800024
:100a5000e30f500002003e008ec0a900490037009d
:100a60008cc4bf00684060000004e0004400320015
:100a70000040eb00504798003e0037008ac4bf009a
:100a8000684060000004e0003d00320090248000d7
:100a900076f3b700800020005024880076d3bf0092
:100aa0008080fb00000f2000008060000000e0005c
:100ab00002003a00670007002b00370076d3bf0022
:100ac0008080fb00000f2000008060004480de007a
:100ad0004047980076d3bf000080fb0068006000ac
:100ae0004380de003047980076d3bf000080fb00d3
:100af000640060004280de00204798002e40900095
:100b0000004178000204a200be4090004e409000d8
:100b100073060700000f78003e4090000004e000dc
:100b200007003a004e4090000080fb001e01780054
:100b3000213621000000400002b078000600370096
:100b40004e4090000080fb001e017800a13621007d
:100b50000000400002b07800613721000001eb0086
:100b6000200720006f0a07005e4090000040e80068
:100b7000504798005e409000e34f5000bfff3600a2
:100b80008ec0a9000080fa003400f9004f03be00b7
:100b90004f02be004f01be004f00be003600f900fc
:100ba000004006000000fa00aac4bf0062406000d6
:100bb0000004e0000f003200b09a800090409000e6
:100bc00000c8b30080cf500009003a00e034210093
:100bd000100078009040900040c8b30080cf5000d3
:100be00003003a00b19a8000c0c8b300904098005a
:100bf000aa24a90000082000502488000080fa00e0
:100c0000000006000000fa008284a8000001200015
:100c1000502488000001eb008000eb00500720000a
:100c2000400a07000080fa00000006000000fa00f9
:100c30000001eb008000eb0040072000390a0700ac
:100c40008284a90000012000002488000080fa00ae
:100c5000000006000200fa0076d3bf008080fb008f
:100c6000b0ff2f00008060000000e00035003a0077
:100c700076d3bf008080fb00c00f200000806000a2
:100c80004280de004200dd0080007800004021004c
:100c900000804000b09a8800b09a8000c09a880016
:100ca0008135210080352100104078000024a20009
:100cb00080487800b09a800010409000c2c3b30012
:100cc0008240600040c3b30080cf50001b003a0058
:100cd000b09a800090009000e0382100808f500092
:100ce00014003a00b09a8000613821001100980089
:100cf0000040eb00004f78000b0037001e80fb0027
:100d00008000780060382100008140001e80fb00d8
:100d100080007800e038210000804000104078001a
:100d2000004978001e4fe80070c0b3009e4f1000cd
:100d3000f2ff36000c000700090037003c000700f6
:100d40000700370076d3bf008080fb00b0ff2f0084
:100d500000806000e80f500001003a004c000700de
:100d60000080fa00000006000000fa00e0342100d4
:100d7000100078009040900000c8b30000c06000f0
:100d80000004e00004003200e0342100900078000c
:100d90000040eb00904098000040eb0072f3b70079
:100da0000040eb0073f3b7003dd3bf00604060002c
:100db0003df3b7003ed3bf00604060003ef3b70094
:100dc0000040eb003cf3b70049d3bf006040600037
:100dd00049f3b7004ad3bf00604060004af3b70050
:100de0000040eb0048f3b7004bd3bf006040600009
:100df0004bf3b7004cd3bf00604060004cf3b7002a
:100e0000830007000001eb008000eb0030002000b1
:100e1000c409070048d3bf000042b2000004e0004c
:100e200001003a00110207000080fa0000000600ed
:100e30000000fa0073d3bf00e24f500002003a00f6
:100e400031030700100037004b000700c09b8000f3
:100e50000000e0000a003a00c19a800000c4b3001c
:100e600080487800c19a8000603821009000980086
:100e7000c19a8000c0c8b3009040980002003700bb
:100e80000000eb00c09b88000080fa000000060014
:100e90000200fa00e03421001000780010409000b9
:100ea0000080fb004600de0061406000004f7800db
:100eb000e1342100e0342100104078000024a20039
:100ec00080487800109a8000e80f50000b003a002c
:100ed00088d3bf000080fb00b0248800b0248000cd
:100ee0000000e0000300320000012000109a88009a
:100ef0000200370040002000109a880073d3bf0022
:100f0000e14f500019003a00e034210090007800d1
:100f1000e0382100900098007502070072d3bf00ee
:100f2000e24f500005003a00e034210090007800c4
:100f300040c8b300904098000d0037001e04e00048
:100f400005003a00e03421009000780080ccb30026
:100f50009040980006003700e034210090007800af
:100f600080c8b300904098000100370002000700dd
:100f70000080fa00000006000200fa000040eb00ca
:100f800073f3b700e0342100900078000040eb00dc
:100f900090409800e0342100100078000020a2006a
:100fa000000f78009e0078000040eb009040980011
:100fb000813421009140780000c8b30000c0600077
:100fc0000004e000100032004bd3bf008080fb0023
:100fd0004cd3bf000080fb004800dd000100700022
:100fe0000000e000070032004bd3bf008080fb0010
:100ff0004cd3bf000080fb004800dd000100700002
:101000000000010048f3a9000080fa00000006007b
:101010000400fa0086d3bf000046b2000004e000de
:1010200058003a0087d3bf000080fb006101b9007f
:10103000028fbe00b0002000010020001e01be0093
:10104000800f5100818f59004e003e001e00be00ef
:1010500000600100240037002500370049003700f8
:10106000230037004700370006003700090037002b
:10107000400037000b003700080037001e00370023
:10108000330037003cf3a80080002000109a88004d
:101090003c003700a20007003a0037002c0307008d
:1010a0003800370042342100f00f2000800061003a
:1010b0003ad3bf0060406000014070003af3b700cf
:1010c000c810de003bd3bf006040600001407000ec
:1010d0003bf3b7003c13a80010c0b3003df3b700ca
:1010e0003cf3a800270037000c010700250037005b
:1010f00026000700230037008ad3bf000080fb00d2
:101100008000780050342100008040000001780009
:10111000f00f2000800061003ad3bf006040600003
:10112000014070003af3b700c810de003bd3bf00a7
:1011300060406000014070003bf3b7003c13a80022
:1011400010c0b3003df3b7003cf3a8000d0037001a
:101150003cf3a8008ad3bf008080fb0082382100c6
:10116000124178005034210000804000024878008d
:10117000040037000001eb008000eb00200020009d
:10118000e80807000080fa00000006000400fa00ea
:1011900088d3bf00e14f50000d003a0086d3bf0056
:1011a0007f4060000004e00009003a003cf3a80022
:1011b00087d3bf00e34f500003003a001000200027
:1011c000009a8800020037000000eb00009a8800b7
:1011d00088d3bf000004e0004f003a0086d3bf0070
:1011e0007f406000e24f50004b003a008ad3bf00be
:1011f0006f4060000004e000470032003cf3a800ac
:101200008ad3bf0001c8b300014060000004e000c1
:1012100008003a008ad3bf006f4060000080fb00e6
:10122000a135210000004000608078001007980080
:10123000070037008ad3bf006f4060000080fb00ca
:10124000e134210000004000608078001007980021
:1012500087d3bf00e34f500004003a009e00900087
:1012600040c8b300904098002b0037008ad3bf00dd
:101270006f4060000080fb000000400080007800ac
:10128000a04a200000804000000f78001e00780077
:1012900090007800d0ff2f00808060001e00780052
:1012a00001087800a13821009140780000c8b300ff
:1012b00000c060000004e0000c0032009e009000be
:1012c0000040eb00904098008e80e8000e80e8001f
:1012d000104078000024a200804878009e00900012
:1012e00000c4b300904098000b0037009e009000af
:1012f00080c8b300904098008e80e8000e80e8001f
:10130000104078000024a200804878009e009000e1
:1013100080ccb300904098000080fa0000000600e6
:101320000200fa00613821009140780000c8b30043
:1013300080cf500077003a0000ccb3003cf3b700f8
:1013400089d3bf000080fb00000f78001e007800ea
:10135000e20f50001b0032001e007800e30f500027
:101360003e0032001e007800e10f50000100320004
:1013700066003700622c2800f00f2000800061001a
:101380003ad3bf0060406000014070003af3b700fc
:10139000c810de003bd3bf00604060000140700019
:1013a0003bf3b7003dd3bf00604060002041b30075
:1013b0003df3b7003ed3bf00604060003ef3b7008e
:1013c0005400370088d3bf000080fb0000004000bd
:1013d0008000780040342800008040001001780030
:1013e000f00f2000800061003ad3bf006040600031
:1013f000014070003af3b700c810de003bd3bf00d5
:1014000060406000014070003bf3b7003ad3bf007a
:101410008080fb003bd3bf000080fb004800dd0064
:10142000010070006200400010017800f00f200001
:10143000800061003dd3bf0060406000014070004b
:101440003df3b700c810de003ed3bf00604060002f
:10145000014070003ef3b7002e00370088d3bf0074
:10146000e34f500026003e0088d3bf000080fb0001
:1014700000004000800078006034280000804000b8
:1014800010017800f00f2000800061003ad3bf0007
:1014900060406000014070003af3b700c810de0001
:1014a0003bd3bf0060406000014070003bf3b700d9
:1014b0003ad3bf008080fb003bd3bf000080fb001d
:1014c0004800dd0001007000104078000081fb0042
:1014d000f00f2000800061003dd3bf00604060003d
:1014e000014070003df3b700c810de003ed3bf00de
:1014f00060406000014070003ef3b7000500370017
:101500000040eb003cf3b700020037000040eb0066
:101510003cf3b7000080fa00000006000400fa0067
:101520000040eb008ef3b7000040eb008ff3b700f4
:1015300086d3bf007f4060000080fb00100798004a
:101540001e009000e10f5000120032001e009000bb
:10155000e20f5000110032001e0090000000e00079
:10156000010032002b0037003cf3a8008ed3bf00ef
:101570000004a0008ef3b700009a8000e10f500035
:1015800024003a008ed3bf000014a0008ef3b700f1
:10159000200037003cf3a8001e0037003cf3a800f1
:1015a0008ad3bf0001c8b300014060000004e0001e
:1015b00008003a008ad3bf006f4060000080fb0043
:1015c000a13521000000400060807800000f780005
:1015d000070037008ad3bf006f4060000080fb0027
:1015e000e13421000000400060807800000f7800a6
:1015f0001e007800104090000080fb004200de00da
:10160000610060000004e0000200320010c0b3007e
:101610008ef3b7003cd3bf0001c8b30001406000a7
:101620000004e0000f003200e2382100f00f20003b
:10163000800061003ad3bf0060406000014070004c
:101640003af3b700c810de003bd3bf006040600033
:10165000014070003bf3b7003c13a80020c0b3006a
:101660003df3b7000080fa00000006000000fa0019
:1016700094a4a9003cd3bf0001c8b300014060009e
:101680000004e0001c003a0048d3bf0001c8b300ca
:10169000014060000004e0001500320020c0b300eb
:1016a00073f3b7008cd3bf008080fb008dd3bf00e5
:1016b0000080fb004800dd00010070000000e00039
:1016c00001003a007f000700c19a800000c4b30007
:1016d00080487800c19a8000e0382100900098008e
:1016e000c19a800080ccb30090409800630037001e
:1016f000640007006100370048d3bf0001c8b30091
:10170000014060000004e0005c003a0086d3bf00a6
:1017100001c8b300014060000004e0004300320053
:101720008cd3bf008080fb008dd3bf000080fb0006
:101730004800dd0001007000000178003dd3bf00cb
:101740008080fb003ed3bf000080fb004800dd002e
:1017500001007000800f5100120031008cd3bf00d7
:101760008080fb008dd3bf000080fb004800dd00bf
:101770000100700000017800f00f2000800061007f
:101780003dd3bf0060406000014070003df3b700f2
:10179000c810de003ed3bf00604060000140700012
:1017a0003ef3b7005200070010c0b30073f3b70058
:1017b000c19a800000c4b30080487800c19a8000bc
:1017c0006038210090009800c19a800000c8b300e2
:1017d000904098000000eb00c09b8800b19a800008
:1017e00000c4b30080487800b19a800060382100be
:1017f00090009800b19a800040c8b30090409800d3
:1018000010002000c09b8800e03421009000780088
:10181000e038210090009800e0342100900078002a
:1018200080ccb300904098001400370020c0b30073
:1018300073f3b7008cd3bf008080fb008dd3bf0053
:101840000080fb004800dd00010070000000e000a7
:1018500001003a001b000700c19a800000c4b300d9
:1018600080487800c19a8000e038210090009800fc
:10187000c19a800080ccb300904098000080fa00ac
:10188000000006000000fa00c19a800000c4b30006
:1018900080487800c19a800060382100900098004c
:1018a000c19a8000c0c8b30090409800e034210085
:1018b0009000780040c8b300904098000080fa0083
:1018c000000006000000fa00e034210090007800db
:1018d0000040eb0080487800e03421009000780060
:1018e00080ccb300904098000080fa000000060011
:1018f0000200fa003dd3bf008080fb003ed3bf0052
:101900000080fb004800dd000100700080007800ce
:10191000f0032000808f500013003e003dd3bf0035
:101920008080fb003ed3bf000080fb004800dd004c
:1019300001007000000f780072d3bf000004e000c7
:1019400003003a0010c0b30072f3b700080037007c
:1019500072d3bf00e14f500005003a0020c0b30031
:1019600072f3b7000200370000042000000f780077
:10197000e034210010017800e034210010007800ec
:10198000904090001e40900000c0700010419800f0
:10199000e0342100900078001e40780080487800f4
:1019a0003dd3bf008080fb003ed3bf000080fb0022
:1019b0004800dd0001007000800078001e00780003
:1019c00000815000f00f2000800061003dd3bf0077
:1019d00060406000014070003df3b700c810de00b9
:1019e0003ed3bf0060406000014070003ef3b7008e
:1019f000e0382100a09b88003cd3bf00614060001c
:101a00000004e0003b003a001b003700a29b80006e
:101a10003ad3bf008080fb003bd3bf000080fb00b7
:101a20004800dd000100700080007800114078005f
:101a3000004978000200e800a09b88006181400016
:101a4000f00f2000800061003ad3bf0060406000ca
:101a5000014070003af3b700c810de003bd3bf006e
:101a600060406000014070003bf3b7001e0078004a
:101a70000000e900000f78001e0078000000e00080
:101a8000e2ff3a001e003700a29b80003ad3bf005d
:101a90008080fb003bd3bf000080fb004800dd00de
:101aa0000100700080007800114078000049780043
:101ab0000200e800a09b88000101e800f00f200070
:101ac000800061003ad3bf006040600001407000b8
:101ad0003af3b700c810de003bd3bf00604060009f
:101ae000014070003bf3b7001e0078000000e900e1
:101af000000f78001e0078000000e000e2ff3a00ce
:101b00000080fa00000006000200fa00b09a80008f
:101b100090407800114798001e4090000081fb0023
:101b200049d3bf008080fb004ad3bf000080fb0088
:101b30004800dd0001007000800f510008003600f1
:101b400049d3bf008080fb004ad3bf000080fb0068
:101b50004800dd00010070001047980015003700b4
:101b600049d3bf008080fb004ad3bf000080fb0048
:101b70004800dd0001007000800078001e409000e9
:101b80000080fb0000815000f00f20008000610009
:101b900049d3bf00604060000140700049f3b700c6
:101ba000c810de004ad3bf006040600001407000f2
:101bb0004af3b7000040eb00004f780019003700ef
:101bc00046d3bf008080fb0047d3bf000080fb00ee
:101bd0004800dd0001007000000178009e80fb00dd
:101be000e038210000804000104078000049780073
:101bf0000201e800f00f20008000610046d3bf0022
:101c0000604060000140700046f3b700c810de007d
:101c100047d3bf00604060000140700047f3b70049
:101c20001e4fe8001e4090009e4f1000e4ff390058
:101c300049d3bf008080fb004ad3bf000080fb0077
:101c40004800dd00010070000000e00013003200d9
:101c5000c19a800000c4b30080487800c19a800017
:101c6000e038210090009800b09a80001040900069
:101c70000044b2000004e00004003a00c19a800071
:101c800080ccb3009040980023003700c19a8000b8
:101c900080c8b300904098001f003700c19a8000b0
:101ca00000c4b30080487800c19a800060382100e9
:101cb00090009800c19a800040c8b30090409800fe
:101cc00048f3a90048b3a9004bd3bf008080fb00b4
:101cd0004cd3bf000080fb004800dd000100700015
:101ce0000000e000070032004bd3bf008080fb0003
:101cf0004cd3bf000080fb004800dd0001007000f5
:101d00000000010048d3bf000042b2000004e00020
:101d100001003a00020007000080fa0000000600ff
:101d20000000fa0048d3bf0001c8b30001406000c2
:101d30000004e00002003a00d2fe07000200370073
:101d4000e0fe070048f3a9000080fa00000006004a
:101d50000000fa003cf3a8006000b800602588008d
:101d6000712588000000eb00802588000040eb0012
:101d700045f3b70088d3bf0044f3b70044d3bf0096
:101d80000004e00003003a0000012000109a8800df
:101d90000600370000022000109a88001200200080
:101da0004134210010002000de0507000080fa0009
:101db000000006000400fa00204798003147980010
:101dc00000402100000f78002e4090000080fb00b2
:101dd00000004000800078003e4090000080fb0042
:101de000008040004300dd004200de004200dd00d4
:101df000800078001e00780000804000000f78000e
:101e00003e4090000004e00026003a002e40900082
:101e10000080fb00a13521000000400060807800b8
:101e20000000e000180032002e4090000080fb000f
:101e30002136210000004000608078000000e000b2
:101e40000a0032002e4090008081fb002e4090005e
:101e50000080fb00213621000000400060817800f6
:101e6000a13521000380410002b078002e4090008f
:101e70000080fb00a1352100000040006080780058
:101e8000000f78002c0037002e4090000080fb00ef
:101e90001e017800a13521000000400002b078004a
:101ea000250037002e4090000080fb00e134210027
:101eb00000004000608078000000e0001800320060
:101ec0002e4090000080fb00a13621000000400061
:101ed000608078000000e0000a0032002e40900090
:101ee0008081fb002e4090000080fb00a136210085
:101ef0000000400060817800e1342100038041004f
:101f000002b078002e4090000080fb00e1342100f8
:101f10000000400060807800000f78000600370065
:101f20002e4090000080fb001e017800e13421006b
:101f30000000400002b078009e0078001140900040
:101f40000070a100904098009e0078001140900021
:101f50000060a100904098008e0078000e0078008c
:101f6000104078000024a200804878009e0078008d
:101f7000114090000070a100904098009e007800f1
:101f8000114090000060a000904098000080fa008e
:101f9000000006000400fa0020479800314798002e
:101fa0002e4090000080fb00000040008000780080
:101fb000a04a200000804000000f78001e0078003a
:101fc000be409000014878003e4090000080fb0039
:101fd0004300de00610060000004e0000300320006
:101fe0008040eb002e40900072ff07003e409000c2
:101ff0000080fb004200de00610060000004e000a1
:102000000300320011c0b3002e40900069ff0700aa
:102010000080fa00000006000400fa002047980043
:10202000314798002e4090000004e0000e003a0076
:10203000c19a800000c4b30080487800c19a800033
:102040006038210090009800c19a8000c0c8b30099
:1020500090409800e03421009000780040c8b30020
:1020600090409800230037002e4090000080fb0035
:1020700000004000800078003e4090000080fb009f
:10208000008040004300dd00800078000040210017
:1020900000804000000f78001e0078009040900003
:1020a00040c8b30080c070001e0078001140980046
:1020b0002e4090000080fb0000004000800078006f
:1020c0003e4090000080fb00008040004300dd00a7
:1020d0008000780040402100008f40001e00780002
:1020e0009040900040c8b30080c070001e0078008f
:1020f000114098000080fa00000006000600fa0077
:1021000020479800314798003e4090000004e000ce
:10211000060032002e4090000080fb00e1342100d8
:1021200000004000608f7800050037002e409000ce
:102130000080fb00a135210000004000608f780086
:102140001e007800104090008000eb0021079800ee
:102150000004e00002003500100020002007980075
:102160002e0090000080fa00000006000800fa002f
:1021700020479800314798002207980033079800bd
:102180003e4090000004e000060032002e40900027
:102190000080fb00e134210000004000608f7800e7
:1021a000050037002e4090000080fb00a135210083
:1021b00000004000608f78001e007800ae009000a4
:1021c000110098001e0078001040900002c4b30077
:1021d000824060001e00780011409800be00900010
:1021e000f03f2000008160009e017800130078001d
:1021f000f13f20000101610001c02f0001006000db
:1022000002007000800978001e0078009040900065
:1022100080c8b30080c070001e0078001140980094
:102220003e4090000004e000110032002e4090007b
:102230000080fb000000400080007800e0342100b6
:1022400000804000000178002e4090000080fb00dc
:102250000000400080007800e03421000080400051
:10226000104078000024a2000049780010003700d8
:102270002e4090000080fb000000400080007800ad
:10228000a035210000804000000178002e40900021
:102290000080fb000000400080007800a035210095
:1022a00000804000104078000024a200004978001f
:1022b0001e0078000080fa00000006000600fa0008
:1022c000004f780094c4bf000042b2000004e00058
:1022d000570032001e80fb00e13421000000400066
:1022e000608378001e80fb00e13421000000400084
:1022f000608078001000be0002042000030020006f
:1023000000027800810278000200780083007800e3
:1023100000016200018062006102b80014079800a9
:10232000250798001e009000ae009000c000dd0060
:102330000000200010079800210798001e00900060
:10234000ae0090006112b8001407980025079800ad
:102350001e019000ae0190000200700083807000aa
:10236000008bbe001e80fb00e13421000000400015
:10237000608278001e80fb00e134210000004000f4
:10238000608078001001be000004200001002000e1
:102390000000690081806900008abe001e80fb0089
:1023a0000000400080007800e03421000080400000
:1023b000000178001e80fb000000400080007800d3
:1023c000e034210000804000104078000024a2008a
:1023d000004978001e80fb00e1342100000040002d
:1023e000608178001e80fb00e13421000000400085
:1023f00060807800104090000044b20010419800c6
:102400001e80fb00e1342100000040006081780064
:102410001e80fb00e1342100000040006080780055
:102420009040900000c4b30000c0680010419800c4
:102430000080fa00000006000000fa000000eb0037
:10244000a02488000000eb00602488000000eb005e
:10245000109a88000080fa00000006000000fa00d0
:10246000109a80000000e0001b003a000000eb0022
:10247000a02488000000eb006024880020002000d9
:10248000302588000000eb0040258800f00920007e
:1024900080248800f009200060248800f10c2000ce
:1024a0009140780080cfb30000c060000024a000fd
:1024b000cfe0b7009ec0a800010037009404a80038
:1024c00094c4bf00614060000004e000fbff3200e4
:1024d00010002000109a88000080fa00000006001a
:1024e0000600fa00204798003147980042479800bc
:1024f00000402100000f78002e4090000080fb007b
:1025000000004000800078003e4090000080fb000a
:102510000080400000004000800078004e409000a5
:102520000080fb00008040004200dd001e0f4000e4
:102530001e0078000080fa00000006000200fa0089
:10254000000f7800004421001e087800024421009a
:10255000f00f2000800061003ad3bf0060406000af
:10256000014070003af3b700c810de003bd3bf0053
:1025700060406000014070003bf3b7003c13a800ce
:102580003dd3bf00604060000014a0003df3b700e1
:102590003ed3bf00604060003ef3b7003cf3a800ac
:1025a0000080fa00000006000400fa00008fbe0060
:1025b000004421001e01be000288be00024421002a
:1025c000f00f2000800061003ad3bf00604060003f
:1025d000014070003af3b700c810de003bd3bf00e3
:1025e00060406000014070003bf3b7003c13a8005e
:1025f0003dd3bf00604060000024a0003df3b70061
:102600003ed3bf00604060003ef3b7003cf3a8003b
:102610000080fa00000006000400fa00100798008d
:102620000000eb00000f78000a0037009e007800e1
:1026300000442100808040001e009000104078007f
:10264000804878001e0fe8001e0090000000e8009f
:10265000100798001e009000104078000004e00071
:1026600003003200e00320009e0f1000efff360051
:102670009e00780000442100808040000040eb0074
:10268000804878001e0fe80002442100f00f20006f
:10269000800061003ad3bf006040600001407000dc
:1026a0003af3b700c810de003bd3bf0060406000c3
:1026b000014070003bf3b7003c13a800f00f20006e
:1026c0009e0060003dd3bf0060406000014070008c
:1026d0003df3b7001e007800c800de003ed3bf0007
:1026e00060406000014070003ef3b7003cf3a8007a
:1026f0000080fa00000006000800fa002007980099
:10270000310798002e009000000f7800be00900066
:1027100000042000808f50000200360000042000da
:10272000300798000000eb00100798000a003700ff
:102730009e00900000442100808040001e00780030
:1027400010407800804878001e0fe8001e009000be
:102750000000e800100798009e0090003e009000e6
:10276000808f5000f2ff390002442100f00f20005a
:10277000800061003ad3bf006040600001407000fb
:102780003af3b700c810de003bd3bf0060406000e2
:10279000014070003bf3b7003c13a800be0090005e
:1027a000f00f2000808060003dd3bf0060406000db
:1027b000014070003df3b7003e009000c800de000d
:1027c0003ed3bf0060406000014070003ef3b700a0
:1027d0003cf3a8000080fa00000006001c00fa008c
:1027e0000000200001002000c001dd0002002000e8
:1027f00000802a0001002000020040008380480081
:1028000010079800210798006800470080017800b1
:10281000a20020001e009000ae0090007d03070083
:10282000c03e2100000f78001e8fe8000000eb0082
:10283000300798000b0037003e0090000000400079
:10284000e800470000004000e08078001e007800ab
:10285000010878001e8fe8003e0090000000e800ac
:10286000300798003e009000e40f5000f2ff340063
:102870000080fa00000006001c00fa0000002000a2
:1028800001002000c001dd000200200000802a00bd
:1028900001002000020040008380480010079800db
:1028a00021079800c03e2100000f78001e8fe8002d
:1028b0000000eb0030079800130037003e00900046
:1028c00000004000000178001e00780090017800b0
:1028d000e80047000200410003b078001e8fe800c6
:1028e0003e009000000040000000e8006801470042
:1028f000800040000080eb00803079003e009000b6
:102900000000e800300798003e009000e40f5000ff
:10291000eaff34006800470080017800420120008f
:102920001e009000ae009000b00307006800470052
:10293000800178000001eb000080eb008080eb005c
:10294000dd0307000080fa00000006000a00fa001c
:1029500030079800410798003e009000100798004b
:10296000c03e2100000f78001e8fe8000000eb0041
:1029700020079800160037004e0090000000e0008d
:10298000090034001e009000900078001e007800be
:10299000010878001e8fe8001e0090000080e8000b
:1029a00010079800040037009e0078000000eb003c
:1029b000800878001e8fe8004e0090000080e9003b
:1029c000400798002e0090000000e80020079800c3
:1029d0002e009000e40f5000e7ff3400a6ff070030
:1029e0000080fa00000006001c00fa00400f98006a
:1029f000510f98000000200001002000c001dd0000
:102a00000200200000802a00010020000200400097
:102a10008380480010079800210798005e08900006
:102a2000000f78004e0890004300dd007000400069
:102a30006101b9001e009000ae009000000041004e
:102a4000818049001007980021079800680047001e
:102a500080017800820020001e009000ae009000ef
:102a6000ec0207000000eb00300798000b00370075
:102a70003e00900000004000e800470000004000d9
:102a8000e08078001e007800010878001e8fe800c2
:102a90003e0090000000e800300798003e009000e3
:102aa000e30f5000f2ff34000080fa00000006003f
:102ab0001c00fa00400f9800510f98000000200001
:102ac00001002000c001dd000200200000802a007b
:102ad0000100200002004000838048001007980099
:102ae000210798005e089000000f78000000eb00be
:102af00030079800130037003e00900000004000af
:102b0000000178001e00780090017800e80047007e
:102b10000200410003b078001e8fe8003e009000e4
:102b2000000040000000e80068014700800040000d
:102b30000080eb00803079003e0090000000e8004b
:102b4000300798003e009000e30f5000eaff340089
:102b50004e0890004300dd00700040006101b900a4
:102b60001e009000ae0090000000410081804900ee
:102b7000100798002107980068004700800178003e
:102b8000020120001e009000ae0090001703070015
:102b900068004700800178000001eb000080eb0036
:102ba0008080eb00440307000080fa00000006006c
:102bb0000000fa008cd3bf008080fb008dd3bf00e3
:102bc0000080fb004800dd00010070000000d10023
:102bd00080007800004421005cff070048f3a80053
:102be0000080fa00000006000800fa0088d3bf0049
:102bf0008080fb0089d3bf000080fb004800dd001f
:102c000001007000010020002007980031079800a3
:102c10002e009000be009000c000dd0000002000eb
:102c20002007980031079800004421001000780028
:102c30006101b8002e009000be009000000041002d
:102c40008180490020079800310798008cd3bf008d
:102c50008080fb008dd3bf000080fb004800dd00ba
:102c6000010070000080e900100798002e0190001c
:102c7000be0190000080eb008080eb00800f5100cf
:102c8000818f59000f003a00210420009140780004
:102c900000ceb30000c0700042e0b70094c4bf0093
:102ca00020442100800178001e0190000080eb008c
:102cb0008080eb0000030700900507000000fe0085
:102cc0001900370042c0bf000080fb004500de0055
:102cd0000080fb00000f7800210420009140780064
:102ce00000ceb30000c0700042e0b70022442100d3
:102cf0002e009000be0090008100d1000080d30023
:102d0000820178001e019000890207001e007800f1
:102d100067406000c500dd0042c0bf007f4060002a
:102d20000140700042e0b70048f3a8000080fa00bc
:102d3000000006000000fa008ad3bf008080fb007c
:102d40008bd3bf000080fb004800dd000100700055
:102d50000144210056ff070048f3a8000080fa0054
:102d6000000006000000fa000080fa0000000600e3
:102d70000000fa000080fa00000006000000fa00df
:102d8000e09f80000000e800e09f88000080fa00db
:102d9000000006000000fa000080fa0000000600b3
:102da0001000fa000080eb008080eb002007980004
:102db0003107980086d3bf0002c6b300824060008e
:102dc00000c4b30080cf5000b3013a0087d3bf00e6
:102dd0000080fb006101b900f0fb2f00f1ff2f0024
:102de0000201400083814800620798007307980041
:102df00020022000010020006e019000fe019000e2
:102e0000800f5100818f5900a2013e006e0090009a
:102e1000fe00900000600100410037009d01370076
:102e2000e50037009b0137009a0137009901370010
:102e30002c013700970137009601370095013700c4
:102e4000940137009301370092013700eb003700ff
:102e50009001370090003700c80037008d0137001f
:102e6000c60037008b013700f200370089013700b8
:102e70008801370087013700860137008501370058
:102e80008401370083013700820137008101370058
:102e9000800137007f0137007e01370001003700d5
:102ea000020037003cf3a8007b0137008ad3bf0043
:102eb0008080fb008bd3bf000080fb004800dd005a
:102ec000010070008000780020082000808f5000f2
:102ed0000100320010003700000020000100200037
:102ee000c001dd000200200000402500010020009c
:102ef00002004000838048000000400081804800bc
:102f000020079800310798002e009000be00900026
:102f1000a5fd070060013700ce0607005e013700ff
:102f200088d3bf008080fb0089d3bf000080fb00f6
:102f30004800dd000100700050079800de0090009e
:102f4000e18f50000e0032005e019000e10f510051
:102f500007003900de019000e28f51001b003200b3
:102f60005e009000e30f50002b0032004a01370052
:102f7000509f8000cf80de008bfd070046013700a8
:102f80008ad3bf008080fb008bd3bf000080fb0092
:102f90004800dd000100700010079800509f80007d
:102fa000800078001e009000808f50003a013600ab
:102fb0001e009000c200dd00e03d210000804000c6
:102fc0001000be0078fd0700330137008ad3bf0030
:102fd0008080fb008bd3bf000080fb004800dd0039
:102fe0000100700010079800509f8000800078005a
:102ff0001e009000808f5000270136001e009000b8
:1030000080004000603e21000080400010007800f9
:1030100081fd0700200137008ad3bf008080fb00bc
:103020008bd3bf000080fb004800dd000100700072
:10303000100798000000eb00000f78001200370026
:103040001e0090006101b8001e007800c200dd0083
:10305000e03d2100008040001000be00800f5100c4
:10306000818f590007003a001e0078008000400060
:10307000603e2100008040001000780066fd0700df
:10308000050137001e0fe800509f80009e0f500082
:10309000ebff3e00000137008ad3bf008080fb00b9
:1030a0008bd3bf000080fb004800dd0001007000f2
:1030b0008000780020082000808f5000010032003e
:1030c0002c00370002442100f00f20008000610036
:1030d00046d3bf00604060000140700046f3b70077
:1030e000c810de0047d3bf006040600001407000a0
:1030f00047f3b7008cd3bf008080fb008dd3bf00a7
:103100000080fb004800dd00010070000001780035
:10311000f00f20008000610049d3bf0060406000d4
:103120000140700049f3b700c810de004ad3bf0069
:1031300060406000014070004af3b70048f3a80007
:10314000425f2100f00f2000800061004bd3bf00e0
:1031500060406000014070004bf3b700c810de0013
:103160004cd3bf0060406000014070004cf3b700da
:10317000c900370037060700c70037008ad3bf00f1
:103180008080fb008bd3bf000080fb004800dd0087
:10319000010070008000780020082000808f50001f
:1031a00001003200020037000000fe00ba003700c4
:1031b00028060700b80037008ad3bf008080fb00d4
:1031c0008bd3bf000080fb004800dd0001007000d1
:1031d0008000780020082000808f5000010032001d
:1031e000040037002000200011002000eefc070042
:1031f000a900370017060700a700370088d3bf00d3
:103200008080fb0089d3bf000080fb004800dd0008
:1032100001007000f40f500001003200030037007d
:103220006000b800e0fc07009b00370009060700bb
:103230009900370002442100f00f20008000610057
:1032400046d3bf00604060000140700046f3b70005
:10325000c810de0047d3bf0060406000014070002e
:1032600047f3b7008cd3bf008080fb008dd3bf0035
:103270000080fb004800dd000100700000017800c4
:10328000f00f20008000610049d3bf006040600063
:103290000140700049f3b700c810de004ad3bf00f8
:1032a00060406000014070004af3b70048f3a80096
:1032b000825d2100f00f2000800061004bd3bf0031
:1032c00060406000014070004bf3b700c810de00a2
:1032d0004cd3bf0060406000014070004cf3b70069
:1032e0006d00370088d3bf008080fb0089d3bf000a
:1032f0000080fb004800dd000100700040079800de
:10330000ce009000e18f5000040032004e0190008a
:10331000e20f5100290032005f0037008ad3bf005e
:103320008080fb008bd3bf000080fb004800dd00e5
:103330000100700080007800d0072000808f5000ce
:1033400055003e008ad3bf008080fb008bd3bf00b6
:103350000080fb004800dd000100700001442100f6
:10336000a1fd070002442100f00f20008000610051
:103370003ad3bf0060406000014070003af3b700ec
:10338000c810de003bd3bf00604060000140700009
:103390003bf3b7003c13a8003dd3bf006040600082
:1033a0000034a0003df3b7003ed3bf006040600092
:1033b0003ef3b7003cf3a800370037008ad3bf00c4
:1033c0008080fb008bd3bf000080fb004800dd0045
:1033d0000100700080007800d0072000808f50002e
:1033e0002d003e0002442100f00f2000800061000b
:1033f00046d3bf00604060000140700046f3b70054
:10340000c810de0047d3bf0060406000014070007c
:1034100047f3b7008cd3bf008080fb008dd3bf0083
:103420000080fb004800dd00010070000001780012
:10343000f00f20008000610049d3bf0060406000b1
:103440000140700049f3b700c810de004ad3bf0046
:1034500060406000014070004af3b70048f3a800e4
:10346000a2692100f00f2000800061004bd3bf0053
:1034700060406000014070004bf3b700c810de00f0
:103480004cd3bf0060406000014070004cf3b700b7
:10349000010037006f0507000080fa0000000600f9
:1034a0000000fa000080fa00000006000800fa00a0
:1034b000604798006e4090008080fb00000f200065
:1034c000008060004480de00404798006e4090001d
:1034d0000080fb00680060004380de0030479800f9
:1034e0006e4090000080fb00640060004280de00bf
:1034f000204798002e419000be4090004e40900022
:10350000f7fb0700000f78009e0178002e41900025
:10351000be4090004e4090008d0507000080fa00ec
:10352000000006000800fa00000f7800110798005c
:10353000220798001e00780030079800200720001e
:10354000be009000808f50002c0032002007200029
:10355000be009000808f50000a003e003e009000a8
:10356000e20f500019003200be009000e38f5000bf
:10357000180032003e009000e10f500011003200b0
:103580002100370040072000be009000808f5000cf
:103590001600320040072000be009000808f5000cf
:1035a0000e00390050072000be009000808f5000b0
:1035b0000c0032003e009000e10f40000d00320090
:1035c000110037009d0807000f003700b4ff070007
:1035d0000d003700f2fd07000b003700e7fd070084
:1035e00009003700dffd070007003700e0fd070096
:1035f00005003700e7fd0700030037001e009000bc
:1036000010407800a9ff0700100020000080fa0099
:10361000000006001000fa004007980051079800cb
:1036200062079800730798004e009000de0090003b
:103630002007980031079800300037002e009000d6
:10364000be0090004008de000100200090018800cc
:103650002e009000be0090001001ba009080ba00c9
:103660000200780010079800010f78001e009000fb
:10367000804078007e009000014878007e00900035
:103680000000e800700798001e0090004800de006f
:10369000804078007e009000014878007e00900015
:1036a0000000e800700798001e0078008040780055
:1036b0007e009000014878007e0090000000e80045
:1036c000700798001e0078004800de0080407800f7
:1036d0007e009000014878007e0090000000e80025
:1036e000700798002e009000be009000620040001d
:1036f000e080480020079800310798006e00900095
:103700006101b8004e009000de0090000201400010
:10371000838148002e009000be009000800f510071
:10372000818f5900c5ff3e000080fa0000000600ae
:103730000c00fa0020079800310798004207980013
:10374000530798000000200001002000c001dd00a8
:10375000020020000040250001002000001f410061
:10376000019749002e009000be009000be0f50004f
:10377000ae8f5800070031002e009000be00900070
:103780003e014000ae8148000200be0020079800c4
:10379000310798000000200001002000c001dd007a
:1037a00002002000e0bf2a000100200002004000cb
:1037b0008380480062014000e08148002e009000b4
:1037c000be009000800f5100818f59000500360027
:1037d000de0190004e0190002e009000be0090008f
:1037e000020007000080fa00000006000c00fa004a
:1037f0002007980031079800420798005307980067
:103800000000eb00000f7800260037000040200089
:1038100010079800ae009000f03f2000808060000c
:103820001e00900001005000100798001e0090003c
:1038300000004000100798004e0090009e005000cd
:103840001e009000808f5000030031004e00900059
:103850001e005000100798009e0078005e00900047
:1038600000804000800178001e0190002e00900032
:10387000be009000100007001e0090000000d10064
:103880006101b8002e009000be00900000004100d1
:103890008180490020079800310798001e009000a1
:1038a0001e0f40004e0090009e0f1000d7ff390001
:1038b0000080fa00000006001400fa00400798009b
:1038c0005107980062079800730798004e00900017
:1038d000de00900002c02f00f3ff2f0000027800ee
:1038e0008102780002007800830078000001620005
:1038f000018062006102b800040f9800150f980063
:103900000e0890009e089000c000dd00000020001e
:10391000000f9800110f98000e0890009e0890006c
:103920006112b800040f9800150f98000e0990005e
:103930009e099000020070008380700020079800ac
:1039400031079800c29f8000d39f80002e00900016
:10395000be009000800f5100818f59003800320066
:10396000c09f8000d19f8000e00f5000e08f580082
:1039700008003500108080000000e80010808800fa
:10398000c09f8000d19f80000380200002c02000e3
:10399000670007002e009000be009000e00f50006e
:1039a000e08f580022003500008080000000e80011
:1039b000008088002e009000be0090004088de004d
:1039c000cf80de00900188000000eb00000f78003f
:1039d000140037001e0278009e0278001e00780056
:1039e000000040006101b8002e009000be00900071
:1039f00002004000838048001001ba009081ba00a4
:103a00008400420000c020000080400002087800ce
:103a1000858042000080200000804000030878007c
:103a20001e0fe800f01f20009e0f1000e9ff360077
:103a30002e029000be029000c49f8800d59f88008f
:103a4000ce009000f03f2000008f60001e00780044
:103a50000000d100000f78000000eb001007980074
:103a60002d003700f01f20001e0f60009e0178001f
:103a70009e0090007e009000008040000000e80062
:103a8000104078000080fb004801dd009e0090009f
:103a90007e00900000804000104078000080fb0015
:103aa00000004100000178008380410000c0200038
:103ab00000804000020878009e0178009e0090007f
:103ac0007e009000008040006300400010407800bd
:103ad0000080fb004801dd009e0090007e00900009
:103ae000008040000080e800104078000080fb006b
:103af0000000410000017800838041000080200028
:103b000000804000020878001e0090006400400021
:103b1000100798001e0fe8009e0090006e009000b5
:103b2000808f5000cfff39000080fa0000000600af
:103b30001800fa00000f9800110f9800220f98004b
:103b4000330f98000e0890009e0890004008de0099
:103b500001002000200798002e00900090018800ae
:103b60000000eb00400798000000eb0060079800a1
:103b7000190037006e0090000000400080007800bf
:103b80000e08900000804000500798005e009000f2
:103b90001001ba009080ba00020078001007980067
:103ba000010f78001e009000e10f400005003a0070
:103bb000f00f20009e006000f00f2000808f50006a
:103bc0000200320010002000400798006e009000b4
:103bd0000000e80060079800ee009000f01f200051
:103be000808f5000e3ff36004e0090000000e000a0
:103bf0000f00320020042400003b88002e009000bb
:103c0000900188000e0990009e0990000209bb00f7
:103c10000700fc0050052000303b8800a00a20006f
:103c2000303b880061e7a8000000000000000000b1
:103c30000e099000520798000000eb006007980002
:103c40000000eb00300798002c0037002e00900099
:103c5000900188000000eb00700798001600370004
:103c60006e00900000004000800078002e08900058
:103c700000804000100178006e00900000004000bd
:103c8000800078003e08900000804000900078009e
:103c90005e0090000208bb000198bb00500798002e
:103ca0007e0090000000e800700798006e00900011
:103cb0000000e80060079800fe009000f00320007c
:103cc000808f5000e6ff360010002400003b880083
:103cd0000700fc0050052000303b8800a00a2000af
:103ce000303b880061e7a8000000000000000000f1
:103cf0003e0090000000e800300798003e00900071
:103d0000e70f5000d1ff36000080fa0000000600e7
:103d10000c00fa00889fbe00000020000100200077
:103d2000c001dd000200200000402500010020004d
:103d30000200400083804800200798003107980067
:103d40002e009000be0090004008de000100200020
:103d5000900188002e009000be0090001001ba0073
:103d60009080ba000200780010079800010f7800d8
:103d70001e009000e10f400005003a00f00f200007
:103d80009e006000f00f2000808f50001000320075
:103d90005a0007000004be0015000700800f540001
:103da000818f5c0005003200ef0007006000b80062
:103db00040079800510798000800370010002000c5
:103dc00001002000400798005107980003003700c9
:103dd0006000b80040079800510798004e0090001e
:103de000de0090004f04be000080fa0000000600d4
:103df0001000fa000000200001002000c001dd00da
:103e000002002000004025000100200002004000c8
:103e1000838048000000400081804800620050001c
:103e2000e080580040079800510798004e0090002d
:103e3000de0090004008de000100200090018800b4
:103e40004e009000de0090001001ba009080ba0091
:103e50000200780010079800010f78001e0078001b
:103e600001002000c001dd00020020001e009000c3
:103e700001002000020040008380480020079800d5
:103e8000310798002e009000be009000f2ff2f0036
:103e9000f30f200000027800810278000200780011
:103ea0008300780000016200018062006102b800b6
:103eb00064079800750798006e009000fe0090005f
:103ec000c000dd0000002000600798007107980026
:103ed0006e009000fe0090006112b8006407980028
:103ee000750798006e019000fe01900002007000be
:103ef000838070000080fa00000006001c00fa00b9
:103f00000000200001002000c001dd0002002000b0
:103f1000004025000100200002004000838048008e
:103f200060079800710798006000b800400798008b
:103f3000510798006e009000fe0090002007980046
:103f4000310798005f0037002e009000be009000ff
:103f50004008de0001002000900188002e00900043
:103f6000be0090001001ba009080ba0002007800f4
:103f700010079800010f78001e009000010020003b
:103f8000f20f200003002000000278008102780078
:103f90000200780083007800000162000180620066
:103fa0006102b800040f9800150f98000e089000e9
:103fb0009e089000c000dd0000002000000f980067
:103fc000110f98000e0890009e0890006112b80032
:103fd000040f9800150f98000e0990009e0990009c
:103fe00002007000838070004e019000de0190009e
:103ff0000200400083804800400798005107980065
:104000001e0090004800de006101b8004e009000e4
:10401000de009000000041008180490040079800c8
:10402000510798001e00780001002000f20f2000c8
:10403000030020000002780081027800020078006e
:104040008300780000016200018062006102b80014
:10405000240f9800350f98002e089000be0890009d
:10406000c000dd0000002000200f9800310f9800f4
:104070002e089000be0890006112b800240f98002e
:10408000350f98002e099000be09900002007000c4
:10409000838070004e019000de019000020040001d
:1040a0008380480040079800510798002e00900038
:1040b000be00900062004000e080480020079800a9
:1040c000310798006e009000fe0090000000400054
:1040d0008180480062015000e08158002e0090006d
:1040e000be009000800f5100818f590096ff3e0066
:1040f0004e009000de009000f2ff2f00f30f200032
:1041000000027800810278000200780083007800c5
:1041100000016200018062006102b800440f980053
:10412000550f98004e089000de089000c000dd009a
:1041300000002000400f9800510f98004e0890009a
:10414000de0890006112b800440f9800550f9800e7
:104150004e099000de09900002007000838070001c
:104160000080fa00000006001400fa0000002000a1
:1041700001002000c001dd000200200000402500f9
:104180000100200002004000838048006007980082
:10419000710798006000b800000f9800110f980098
:1041a0004d0037000000eb004007980000002000a1
:1041b00001002000c001dd000200200000402500b9
:1041c0000100200002014000838148000e08900099
:1041d0009e0890000200400083804800200798005d
:1041e000310798002e009000be0090004088de004d
:1041f000cf80de00900188000000eb00500798009f
:10420000190037005e0090006101b9002e00900097
:10421000be00900002004000838048001001ba00f8
:104220009080ba000200780010079800010f780013
:104230001e009000e10f400005003a00f00f200042
:104240009e006000f00f2000808f500003003200bd
:104250001000200040079800070037005e00900023
:104260000080e80050079800de009000f03f20003a
:10427000808f5000e3ff34004e0090000000e0000b
:104280000d00320020042400003b88002e01900025
:10429000be0190000209bb000700fc005005200091
:1042a000303b8800a00a2000303b880061e7a8006e
:1042b00000000000000000000e0890009e08900022
:1042c00002402000030020000000410081804900de
:1042d000000f9800110f98000e0990009e099000a1
:1042e0006e009000fe009000800f5100818f5900f9
:1042f000acff39000080fa00000006002400fa003c
:10430000889fbe00fdfe07000004be00b8fe070047
:10431000800f5400818f5c000200320092ff070082
:10432000e30037000000200001002000c001dd0094
:104330000200200000402500010020000200400093
:1043400083804800600f9800710f98006e0a9000fb
:10435000fe0a90000000200001002000c001dd00e6
:1043600002002000000025000100200002004000a3
:10437000838048000000520081805a00600f98003e
:10438000710f98006000b80000179800111798008e
:10439000c00037000000eb0060079800000020001c
:1043a00001002000c001dd00020020000000250007
:1043b0000100200002014000838148000e1090009f
:1043c0009e109000020240008382480000002000fe
:1043d00001002000c001dd00020020000040250097
:1043e00001002000020040008380480004004000db
:1043f00085804800100f9800210f980000002000d1
:1044000001002000c001dd000200200000002500a6
:104410000100200002014000838148000e1090003e
:104420009e109000020040008380480070079800b2
:10443000010f98000000eb00500f98002b00370090
:104440001e089000ae0890004008de000100200029
:10445000900188009e0890005e0890000080400057
:10446000100798001e0090001001ba009080ba005a
:104470000200780050079800410798007e009000e5
:104480008e0890004008de000100200090018800a6
:10449000fe0090005e089000008f40001e00780033
:1044a0001001ba009080ba0002007800300798002e
:1044b00021079800de0090003e009000808f5000a1
:1044c00004003a00ce0090002e009000808f500033
:1044d000030032001000200060079800070037003a
:1044e0005e0890000080e800500f9800de08900001
:1044f000f03f2000808f5000d1ff34006e0090000c
:104500000000e0005b00320020042400003b880033
:104510007e0090008e0890004008de000100200020
:10452000900188007e0190008e0990000209bb0076
:104530000700fc0050052000303b8800a00a200046
:10454000303b880061e7a800000000000000000088
:104550000000eb00500f98000000eb00400f9800a7
:10456000410037000000eb00300f98002d003700ad
:104570005e0890006101b9001e089000ae0890002e
:1045800002004000838048004008de000100200057
:10459000900188005e0890006101b9001e0890003b
:1045a000ae08900002004000838048001001ba006d
:1045b0009080ba00020078005007980041079800e8
:1045c0005e0890006101b9007e0090008e089000a6
:1045d00002004000838048004008de000100200007
:1045e000900188005e0890006101b9007e00900093
:1045f0008e0890000201400083814800de00900098
:104600004e0090000109bb000089bb003e089000ed
:104610000000e800300f98005e0890000080e8007d
:10462000500f9800be089000f0032000808f5000cb
:10463000cfff340010002400003b88000700fc007e
:1046400050052000303b8800a00a2000303b880045
:1046500061e7a80000000000000000004e08900084
:104660000000e800400f98004e089000e70f50004f
:10467000bcff34000e1090009e10900002402000fd
:1046800003002000000041008180490000179800cd
:10469000111798000e1190009e1190006e08900066
:1046a000fe089000800f5100818f590039ff3500be
:1046b0004f04be000080fa00000006000200fa006d
:1046c000203a8000203a880044f80700c902a90077
:1046d000c9e2a900c882a9000080eb006019880027
:1046e000cde2a800cd02a8000000000000000000fc
:1046f000000000000000000000000000cc82a800c4
:1047000000000000000000000000000000000000a9
:1047100000000000cd02a900000000000000000021
:10472000000000000000000000000000cc82a90092
:10473000cd02a9001503070075fd0700e00f50002a
:10474000e08f58000600320042c0bf0001ceb30027
:104750000140700042e0b70000500200000000007d
:10476000e034280014020700a9030700c40307006f
:10477000de030700daef070038f70700503528009e
:104780000d0207000140fe00feff37000200fa00a4
:104790000000eb00000f78000d0037001e007800cd
:1047a000000040008000780040102100008140009f
:1047b0001e00780000004000800078006038210072
:1047c0000080400010007800000978001e0fe8000b
:1047d000300020009e0f1000f0ff34000000eb00be
:1047e000000f78000e0037001e0078000000400027
:1047f00080007800401021006800400000814000e7
:104800001e00780000004000800078004000210079
:104810000080400010007800000978001e0fe800ba
:104820001e0178008cd3bf008080fb008dd3bf00b9
:104830000080fb004800dd00010070000000d10096
:104840000000e800800f5100e7ff39008cd3bf0063
:104850008080fb008dd3bf000080fb004800dd009e
:1048600001007000680040008000780040102100c6
:104870004d010700100020005c0107000080fb00d4
:10488000809e8800809e80000000e00001003a00c9
:1048900048f3a8000080fa00000006000000fa00bb
:1048a00086d3bf0001c8b300014060000004e000ef
:1048b0003100320060382100810020003a010700f9
:1048c0008cd3bf008080fb008dd3bf000080fb0035
:1048d0004800dd00010070000000e800430107000f
:1048e0000080fb00809e8800809e80000000e00029
:1048f00056003a0052202100f00f20008000610095
:104900003ad3bf0060406000014070003af3b70046
:10491000c810de003bd3bf00604060000140700063
:104920003bf3b7003c13a8008cd3bf008080fb0092
:104930008dd3bf000080fb004800dd000100700047
:1049400000017800f00f2000800061003dd3bf001f
:1049500060406000014070003df3b700c810de0009
:104960003ed3bf0060406000014070003ef3b700de
:104970003cf3a800350037008cd3bf008080fb00db
:104980008dd3bf000080fb004800dd0001007000f7
:104990000000e00002003a007cff07002b00370017
:1049a00042002100f00f20008000610046d3bf00cc
:1049b000604060000140700046f3b700c810de00a0
:1049c00047d3bf00604060000140700047f3b7006c
:1049d0008cd3bf008080fb008dd3bf000080fb0024
:1049e0004800dd000100700000017800f00f200099
:1049f0008000610049d3bf0060406000014070004a
:104a000049f3b700c810de004ad3bf006040600021
:104a1000014070004af3b70048f3a800623c22004e
:104a2000f00f2000800061004bd3bf0060406000a9
:104a3000014070004bf3b700c810de004cd3bf003c
:104a400060406000014070004cf3b7000080fa0045
:104a5000000006000200fa0087d3bf000080fb00c0
:104a6000000f7800100520009e007800808f500015
:104a700011003c00000520009e007800808f50004f
:104a80001d003d00400420009e007800808f5000f3
:104a900016003200e00420009e007800808f500055
:104aa00017003200300420009e007800808f5000f4
:104ab0001100320024003700300620009e007800ec
:104ac000808f50000c003200000720009e0078000c
:104ad000808f50001b003200300520009e007800bf
:104ae000808f500004003200170037000036280085
:104af000c9f607001400370068ff070012003700ee
:104b000088d3bf008080fb0089d3bf000080fb00fa
:104b10004800dd00010070008000780010302000a7
:104b2000808f50000100320007003700809e800017
:104b3000010020009cf607000000eb00809e88002a
:104b40000100370055ff07000080fa000000060052
:104b50000800fa0020479800314798004247980023
:104b6000330798003e009000000f78000080fa00a4
:104b7000000006003400f800881f780008002000bc
:104b8000a80188004f0478000000fa008460a900a2
:104b90000080fa003400f900004006003600f800fa
:104ba000809fbe00829fbe00849fbe00869fbe0085
:104bb0003400f80000002000a00188000200fa0084
:104bc000ccd2bf0061406000c700dd00cdc2bf0095
:104bd0000074a10001407000cde2b70084e0a9009c
:104be00000c8b300cdf2b7000040eb00cef2b70032
:104bf000ccd2bf00cff2b7000040eb00d0f2b7003c
:104c00000040eb00d1f2b7000040eb00d2f2b70059
:104c10000040eb00d3f2b7000040eb00d4f2b70045
:104c200081002000d02c21005f0007001000200030
:104c30006e000700004f78001e04e0000100320003
:104c4000cde2a900ccd2bf000004a200ccf2b70094
:104c50000080fa003400f9004f03be004f02be008e
:104c60004f01be004f00be003600f90000400600b4
:104c70003400f800881f780008002000a801880090
:104c80004f0478000000fa008c20a9002222a9001d
:104c90000080fa003400f90000400600809fbe004a
:104ca0003400f80000002000a00188000200fa0093
:104cb0008560a9001400370030118000004f780093
:104cc000909e80000000e00004003200909e800072
:104cd0000000e900909e88000b003700719e800064
:104ce00040202100008040001e487800719e800016
:104cf000700c2000808f500003003e00709e8000ea
:104d00000000e800709e880022c2bf006140600081
:104d10000004e000e8ff3a000080fa003400f900e7
:104d20004f00be0000400600809fbe003400f80027
:104d300000002000a00188000000fa008580a90082
:104d40000d003700a19e8000114078000080fb001c
:104d5000201188000100e800a09e8800b09e80001d
:104d60000000e900b09e8800b09e80000000e000d6
:104d700001003a009580a90023c2bf006240600094
:104d80000004e00004003a0095c0bf0070406000dd
:104d90000004e000ebff3a000080fa003400f90064
:104da0004f00be00004006000400fa00000f78002b
:104db0001107980095c0bf00704060000004e0003b
:104dc000fcff3a001e009000b09e88001e0090007c
:104dd000909e88001e007800a09e88008580a80014
:104de0009580a8000080fa00000006000400fa0088
:104df000000f78000000eb00709e88002003200068
:104e0000c09e88009e007800709e8000808f5000b9
:104e100003003600c09e80000000e000f9ff3c0067
:104e2000c09e80000000e00003003a00f00f200068
:104e3000100798000300370004d2bf000080fb0079
:104e4000100798001e0090000080fa000000060085
:104e5000801f78003400f80000002000a0018800c6
:104e60000000fa008500a900c09e80000000e0005c
:104e700003003200c09e80000000e900c09e880050
:104e80000080fa003400f9004f007800004006006e
:104e90003400f800881f780008002000a80188006e
:104ea0004f0478000000fa0087c0a900cde2a800f6
:104eb000cde2a9000080fa003400f90000400600ad
:104ec000809fbe003400f80000002000a001880090
:104ed0000000fa00e09e80000000e800e09e8800ec
:104ee000e19e800040062000808f500002003a00c2
:104ef0000000eb00e09e8800e19e8000d09e8000d4
:104f0000808f500006003200e19e8000502d21006d
:104f100000804000104078000080fb00a011880055
:104f200087e0a9000080fa003400f9004f00be00bd
:104f3000004006000400fa00204798000000eb0043
:104f4000000f780097e0a900d19e8000e09e8000cd
:104f5000808f500002003a0010002000000f7800ff
:104f6000d19e80002e419000502d210000804000f5
:104f700002487800d09e80000000e800d09e8800a3
:104f8000d19e800040062000808f500002003a0031
:104f90000000eb00d09e88001e00e00003003200fd
:104fa0002e4090000000fb00a011880097e0a800b0
:104fb0000080fa00000006000200fa00000f7800ee
:104fc000040037001e007800104078001e0fe80033
:104fd000d8ff07001e007800104078000004e000b1
:104fe000f8ff3a000080fa00000006000200fa0014
:104ff000000f78001e00e00006003d00d0c2b300a4
:10500000ccff07009e0078000080eb000088b9000c
:10501000000f78001e0078001c0007000080fa00d6
:10502000000006000400fa00008fbe001e00be0053
:10503000e00f5000e08f580010003d00d0c2b300d8
:10504000bcff07009e0078000080eb00000ab8005b
:105050009e0078000080eb000088b9000501780010
:10506000000141009e0090000080eb000088b90024
:105070000001410082027800048fbe001e00be00c5
:105080003d0007000080fa00000006000200fa0060
:10509000000f7800f07022009e0f1000060036000e
:1050a0001e00780002712200110009000280d80061
:1050b0000043b0009fff0700703e20009e0f1000cd
:1050c0000a0036001e00780002712200110009005b
:1050d0000280d8008000fd00823e200011000900ff
:1050e0000280d8000043b00092ff07003006200085
:1050f0009e0f10000a0036001e007800823e20003d
:10510000110009000280d8008000fd004206200046
:10511000110009000280d8000043b00085ff07009d
:10512000900020009e0f10000a0036001e0078003c
:1051300042062000110009000280d8008000fd0016
:10514000a2002000110009000280d8000043b00036
:1051500078ff07001e007800a2002000110009005f
:105160000280d8008000fd000043b00071ff0700fe
:105170000080fa00000006000400fa00008fbe0064
:10518000f09f2c00a1b92300be0f1000ae8f1800b5
:10519000060036001e00be0002a02c00a3b92300aa
:1051a000e7ec07000043b00062ff0700f00f2e009d
:1051b000515f2000be0f1000ae8f180009003600ae
:1051c0001e00be0002a02c00a3b92300ecec0700d7
:1051d00002102e00535f2000d9ec07000043b000fe
:1051e00054ff0700f067290081092000be0f10005e
:1051f000ae8f1800090036001e00be0002102e00ff
:10520000535f2000deec07000268290083092000bc
:10521000cbec07000043b00046ff0700f02324005a
:10522000f1002000be0f1000ae8f180009003600fc
:105230001e00be000268290083092000d0ec070090
:1052400002242400f3002000bdec07000043b0005e
:1052500038ff0700f069280011002000be0f100081
:10526000ae8f1800090036001e00be000224240084
:10527000f3002000c2ec0700026a2800130020009f
:10528000afec07000043b0002aff0700f0702200d7
:1052900001002000be0f1000ae8f1800090036007c
:1052a0001e00be00026a280013002000b4ec0700b4
:1052b0000271220003002000a1ec07000043b000af
:1052c0001cff0700703e200001002000be0f1000f0
:1052d000ae8f1800090036001e00be0002712200c9
:1052e00003002000a6ec0700823e200003002000ff
:1052f00093ec07000043b0000eff070030062000cb
:1053000001002000be0f1000ae8f1800090036000b
:105310001e00be00823e20000300200098ec070023
:10532000420620000300200085ec07000043b00087
:1053300000ff07009000200001002000be0f1000b9
:10534000ae8f1800090036001e00be004206200085
:10535000030020008aec0700a200200003002000c8
:1053600077ec07000043b000f2fe07001e00be000d
:10537000a20020000300200081ec07000043b000e1
:10538000ecfe07000080fa00000006000000fa00b2
:1053900070a7a9001200fc00113a8000f0fb2f005a
:1053a000008160006104200070052000237420004b
:1053b000814978008049780082497800416c20005a
:1053c0009140780000ceb30000c060003040b300d0
:1053d000c4e6b700416a20009140780000ceb300d7
:1053e00000c060007040b300a4e6b7001200fc00eb
:1053f000113a800000042000008170006104200048
:1054000070052000237420008149780080497800cd
:105410008249780021e2a8002182a8002062a90028
:1054200022e2a90022c2a9002022a9002042a9004c
:105430002342a8001000200040118800a10a20008b
:105440009140780080cfb30000c060005040b300ae
:10545000aae0b7008580a9009580a900910a2000e4
:1054600091407800f0c8b30000c0600001c6b300ee
:1054700001407000a9e0b7008560a9009560a80010
:10548000410c200091407800f0c8b30000c06000db
:1054900001c6b30001407000c4e0b7008c20a90031
:1054a0009c20a8000080fa00000006000000fa001e
:1054b00070c7a9001200fc00113a8000f0fb2f0019
:1054c000008160006104200070052000237420002a
:1054d000814978008049780082497800616a20001b
:1054e0009140780000ceb30000c060007040b3006f
:1054f000a6e6b700716a20009140780000ceb300a4
:1055000000c060009040b300a7e6b700416c2000e7
:105510009140780000ceb30000c060005040b3005e
:10552000c4e6b700e16c20009140780000ceb300e3
