:020000040000fa
:080000000002040000000000f2
:020000040000fa
:100400008f0a21000e7f22000e01880000000000ec
:100410000c000700c0be20000100200011000700f2
:10042000000020000000e000020032000000020096
:10043000000000006a070200000000000040da002f
:100440000000fe004440a900000020000000e00081
:100450000300320000002000a00188004440a800f2
:100460000000060091018800800078000000eb0089
:1004700015003700e280400032a0b4009101ba00bc
:10048000e280400032a0b4009102ba00e280400055
:1004900032a0b4000002eb00472bde00f507b200eb
:1004a000602ce10004003a000059eb008301e900f0
:1004b000fdff3e00040037006128e100010032002a
:1004c0000082eb00040007001101ba000200e00006
:1004d000e8ff3a00000006003159ba008301e90044
:1004e0000c0032002159ba008301e90008003200f3
:1004f0000400e00003003a00e280400032a0b400b3
:10050000f5ff370011d9ba008301e900faff3a007c
:100510008100e800e180400032a0b4000000060045
:020000040000fa
:049ffc000000fe0063
:020000040000fa
:10a00000f8874700889fbe008a9fbe008c9fbe00d5
:10a010008e1f7800f30f2000000020000300600076
:10a0200001002000c000dd000000200002402500eb
:10a0300002024000e08248000000200003006000af
:10a0400001002000c000dd0000002000020025000b
:10a0500002004000e0804800800f5200818f5a00cb
:10a060000300310084b79f0095b79f0002003700be
:10a0700080b79f0091b79f006044b80000002000a7
:10a08000f0b79f000140250081bf9f000100200024
:10a09000b0b79f00c1b79f006fe197008280fb00bf
:10a0a000000020000fb9970002004000e080480047
:10a0b000d0b79f00e1b79f004d0037005fb0970019
:10a0c000efb0970008054000898548008a017800b4
:10a0d000080178004fb79700405ede000d002000b9
:10a0e000404bde0007002000a6b79f009c018800bf
:10a0f0009300ba009382ba00960188001200ba0059
:10a100001282ba00808f500009003a00848f5200fa
:10a1100007003a000e87e8008381e8000281e8002a
:10a1200000402000800f57002d003200efff370065
:10a1300020042400003b8800afb097009101880004
:10a14000080cbb000700fc0050052000303b8800d5
:10a15000a00a2000303b880061e7a8000000000052
:10a16000000000000006eb001e0024000d4020004f
:10a170000c037800070420006132b9000a00420095
:10a180008b804a00910188009001ba001081ba00ca
:10a190000802420089824a0095018800030abb0038
:10a1a000028abb000683e8008703e900f2ff3a0059
:10a1b0000e3b88000700fc0050052000303b880063
:10a1c000a00a2000303b880061e7a80000000000e2
:10a1d000000000000c08b0008d0f5600e4ff3a00ac
:10a1e000004020000100200008044000898448004d
:10a1f0000fb097009fb09700800f5400818f5c00d4
:10a20000aeff3900efe897000180fb00010020005d
:10a21000c000dd00000020000fb9970002004000e0
:10a22000e0804800e0af9f00f1af9f006033b800ce
:10a23000000020006105b8008a80fb0000002000bb
:10a240000240250002064000e08648002e0424005b
:10a25000200037000602460087824e0095018800e4
:10a260000401be000b047800094020001200ba006f
:10a270009280ba00e10f400008003a00e18f4000f0
:10a2800006003a000884e80062014100e0814900cc
:10a29000890f54000b003200f4ff37000e3b88009a
:10a2a000040abb000700fc0050052000303b88007a
:10a2b000a00a2000303b880061e7a80000000000f1
:10a2c00000000000004020000100200006034000c4
:10a2d000878348006fa89700ffa89700800f53005e
:10a2e000818f5b00dbff39000000fe004f07780024
:10a2f0004f06be004f05be004f04be008f01b100e7
:04a300000000060053
:020000040000fa
:020000040040ba
:080000000100000005000000f2
:020000040000fa
:020000040001f9
:0457f0003fff000077
:020000040000fa
:020000040001f9
:0457f400fffc0000b6
:020000040000fa
:020000040001f9
:0457f800af79000085
:020000040000fa
:020000040001f9
:0457fc007f3f0000eb
:020000040000fa
:100008002a0c00002a0c00002a0c00002a0c000010
:100018002a0c00002a0c00002a0c00002a0c000000
:100028002a0c00002a0c00002a0c00009a08000084
:100038002a0c00002a0c00002a0c00002a0c0000e0
:100048002a0c00002a0c00002a0c00002a0c0000d0
:100058002a0c00002a0c00002a0c00002a0c0000c0
:10006800740b00002a0c00002a0c00002a0c000067
:100078002a0c00002a0c00002a0c00002a0c0000a0
:100088002a0c00002a0c00002a0c00002a0c000090
:100098002a0c00002a0c00002a0c00002a0c000080
:1000a8002a0c00002a0c00002a0c00002a0c000070
:1000b8002a0c00002a0c00002a0c00002a0c000060
:1000c8002a0c00002a0c00002a0c00002a0c000050
:1000d8002a0c00002a0c00002a0c00002a0c000040
:1000e8002a0c0000fc0a00002a0c00002a0c000060
:1000f8002a0c00002a0c00002a0c00002a0c000020
:100108002a0c00002a0c00002a0c00002a0c00000f
:100118002a0c00002a0c00002a0c00002a0c0000ff
:100128002a0c00002a0c00002a0c00002a0c0000ef
:100138002a0c00002a0c00002a0c00002a0c0000df
:100148002a0c00002a0c00002a0c00002a0c0000cf
:100158002a0c00002a0c00002a0c00002a0c0000bf
:100168002a0c00002a0c00002a0c00002a0c0000af
:100178002a0c00002a0c00002a0c00002a0c00009f
:100188002a0c00002a0c00002a0c00002a0c00008f
:100198002a0c00002a0c00002a0c00002a0c00007f
:1001a8002a0c00002a0c00002a0c00002a0c00006f
:1001b8002a0c00002a0c00002a0c00002a0c00005f
:1001c8002a0c00002a0c00002a0c00002a0c00004f
:1001d8002a0c00002a0c00002a0c00002a0c00003f
:1001e8002a0c00002a0c00002a0c00002a0c00002f
:0801f8002a0c00002a0c000093
:020000040000fa
:100208002a0c00002a0c00002a0c00002a0c00000e
:100218002a0c00002a0c00002a0c00002a0c0000fe
:100228002a0c00002a0c00002a0c00009a08000082
:100238002a0c00002a0c00002a0c00002a0c0000de
:100248002a0c00002a0c00002a0c00002a0c0000ce
:100258002a0c00002a0c00002a0c00002a0c0000be
:10026800740b00002a0c00002a0c00002a0c000065
:100278002a0c00002a0c00002a0c00002a0c00009e
:100288002a0c00002a0c00002a0c00002a0c00008e
:100298002a0c00002a0c00002a0c00002a0c00007e
:1002a8002a0c00002a0c00002a0c00002a0c00006e
:1002b8002a0c00002a0c00002a0c00002a0c00005e
:1002c8002a0c00002a0c00002a0c00002a0c00004e
:1002d8002a0c00002a0c00002a0c00002a0c00003e
:1002e8002a0c0000fc0a00002a0c00002a0c00005e
:1002f8002a0c00002a0c00002a0c00002a0c00001e
:100308002a0c00002a0c00002a0c00002a0c00000d
:100318002a0c00002a0c00002a0c00002a0c0000fd
:100328002a0c00002a0c00002a0c00002a0c0000ed
:100338002a0c00002a0c00002a0c00002a0c0000dd
:100348002a0c00002a0c00002a0c00002a0c0000cd
:100358002a0c00002a0c00002a0c00002a0c0000bd
:100368002a0c00002a0c00002a0c00002a0c0000ad
:100378002a0c00002a0c00002a0c00002a0c00009d
:100388002a0c00002a0c00002a0c00002a0c00008d
:100398002a0c00002a0c00002a0c00002a0c00007d
:1003a8002a0c00002a0c00002a0c00002a0c00006d
:1003b8002a0c00002a0c00002a0c00002a0c00005d
:1003c8002a0c00002a0c00002a0c00002a0c00004d
:1003d8002a0c00002a0c00002a0c00002a0c00003d
:1003e8002a0c00002a0c00002a0c00002a0c00002d
:0803f8002a0c00002a0c000091
:020000040000fa
:100520000002be0002034000e08348000c003700d8
:10053000950188001400ba009480ba0080497800c0
:100540004800de0090419800a1419800c808de00f4
:10055000b1419800e481410062024200e0824a0019
:10056000860f5200878f5a00f1ff39000000060005
:10057000889fbe008a9fbe008c1f78000002be00cc
:1005800002067800830578004008de000005780048
:1005900090018800040378000001eb0082037800da
:1005a00084017800f90f2000082020001600ba000e
:1005b0009680ba00e10f400003003a00f10fb2004c
:1005c000898f500001003200120020008703e800ec
:1005d0000683e800888f5300f4ff3a000200e00031
:1005e0000c00320020042400003b88009a0188009f
:1005f000040abb000700fc0050052000303b8800c7
:10060000a00a2000303b880061e7a800000000003d
:10061000000000000003eb00020420001900240089
:10062000084020009a0188008c0343008b0243009d
:100630000002eb00b7007800350078008109bb00ac
:100640008099bb000402e800820f5200f9ff3a00d3
:10065000093b88000700fc0050052000303b880063
:10066000a00a2000303b880061e7a80000000000dd
:10067000000000000608b000880f5300e9ff3a00b0
:100680004f0678004f05be004f04be000000060074
:10069000889fbe008a9fbe008c9fbe008e1f780080
:1006a0000005be00020778008306780000c02f0016
:1006b0000a0060008b017800000178000204be008f
:1006c0002085800031858000880f5000898f580078
:1006d0001d003200e00f5000e08f5800040035008c
:1006e0000230ec000380200002c02000a0ff0700c1
:1006f000e00f5400e08f5c00110035000030ec008a
:10070000990188000802be008001eb000cc02000a7
:1007100007802000062020009400ba001481ba004f
:100720000380410001307e0002b07b008301e800bd
:1007300062024200e0824a00868f5100f6ff3a00d2
:1007400028858800398588000a007800f03fb200cb
:100750000000d1000d0278008002eb0007c02000ed
:10076000068020001100370000017800f21fb2005f
:1007700082014100144090004800dd009480fb009d
:100780000100400080b17b00b4409000c808dd004b
:10079000244090000080fb008080400081317b007d
:1007a000e48242000200e800640242008e8f5200a0
:1007b000edff39004f0778004f06be004f05be0021
:1007c0004f04be0000000600889fbe008a9fbe0046
:1007d0008c9fbe000005be000206be008004eb0038
:1007e000120037008a007800f13fb200004020007c
:1007f000010050000000400000047800090056008d
:10080000880f500001003100000478008981460003
:10081000080178000a00be009dff07000800d10013
:1008200000054500e0854d00888444008c8f54000d
:10083000ecff39004f06be004f05be004f04be005e
:1008400000000600881f78000003be000204780044
:10085000000020000080fb0001002000c000dd003f
:10086000000020000240250002004000e080480017
:10087000800f5300818f5b000200310006034000af
:100880008783480000002000f00fb2000100200024
:10089000c000dd0000002000e4bf2a000402400088
:1008a000e082480062024200e0824a00840f530066
:1008b000858f5b0003003100080178000600be0050
:1008c000c1ff07004f04780000000600889fbe00ab
:1008d0008a9fbe00000020000080fb000100200075
:1008e000c000dd00000020000240250002014000a1
:1008f000e081480002004100838049006205500009
:10090000e08558000203be006044b8000e003700c6
:10091000970188001601ba001682ba000280fb0017
:1009200000004400e0804c004811de00020140005d
:10093000e08148000482fb0004044100e084490097
:1009400062034300e0834b008a0f53008b8f5b00f0
:10095000efff39000980fb00800178000801780072
:100960000200be004f05be004f04be00000006009e
:10097000f40f2000020020000401610003002000a9
:10098000c011dd00020020000040250000004100f1
:10099000e080490000004000818048006200500073
:1009a000e0805800910188001001ba001080ba0060
:1009b00001002000c000dd00000020000201400016
:1009c000e08148000302620084027800020278009d
:1009d0000400be0000000600889fbe008a9fbe0083
:1009e0008c9fbe008e1f7800000020000081fb005d
:1009f00003002000c011dd0002002000044025009b
:100a0000050020000206420083864a006011b800fb
:100a1000f00fb20001002000c000dd000000200047
:100a20000005420081854a002e0424002100370081
:100a30000203450083834d00970188000602be0033
:100a400008202000f90f20001400ba009480ba009a
:100a5000e10f400009003a00f10fb200898f500009
:100a600006003a000804e90062024200e0824a00ff
:100a70000800e0000b003200f3ff37000e3b880057
:100a8000060bbb000700fc0050052000303b88002f
:100a9000a00a2000303b880061e7a80000000000a9
:100aa0000000000000402000010020000201400082
:100ab000838148008c0f51008d8f5900dcff390075
:100ac0004f0778004f06be004f05be004f04be0022
:100ad00000000600889fbe00f40f200000002000e8
:100ae0000400600001002000c000dd0000002000c4
:100af0000240250002014000e08148009301880087
:100b00001200ba009280ba0000017800e10f4000a4
:100b100005003a00f10fb2006011b800848f500058
:100b2000100032000d00370000202000800f51001f
:100b30000a003a00e4cf500008003a0063ff0700c3
:100b40000004be008aff07001200200003002000fe
:100b5000800f5400818f5c00020032009eff07006e
:100b60006011b8000200be004f04be000000060085
:100b7000f8874700889fbe008a9fbe008c9fbe00fa
:100b80008e1f780051ff07000004be0078ff0700a9
:100b9000800f5400818f5c00020032008eff07003e
:100ba0008d00370008002000f20f200002026400d0
:100bb00005002000c022dd00040020000c402500bc
:100bc0000d0020000402460085824e000a0020002d
:100bd0000b0020000a0078000201650003002000dd
:100be000c011dd00020020000600250007002000e3
:100bf0000201430083814b000202520083825a00ab
:100c0000e4af9f00f5af9f006011b80082b79f006e
:100c100093b79f00bab79f00cbb79f00f00fb20009
:100c200001002000c000dd000000200000004300a3
:100c300081804b00d0b79f00e1b79f00f80fb20052
:100c400009002000c044dd00080020000804460020
:100c500089844e00f8b79f0089bf9f005700370076
:100c60000fb097009fb097005fb19700efb197006a
:100c700000034100818349007fb097008fb897003f
:100c800006054000878548008a0178000601780043
:100c90004fb79700405ede000d002000403cde00b4
:100ca00009002000a8b79f009c0188009300ba00ab
:100cb0009382ba00980188001200ba001282ba002a
:100cc000808f500009003a00848f520007003a00dc
:100cd0000e87e8008381e8000281e80000402000e0
:100ce000800f57002d003200efff37002004240052
:100cf000003b8800afb0970091018800060bbb0055
:100d00000700fc0050052000303b8800a00a2000ae
:100d1000303b880061e7a8000000000000000000f0
:100d20008006eb001e002400094020000d0678001c
:100d3000080420006162b9000a0042008b804a006a
:100d4000910188009001ba001081ba0006024200a9
:100d500087824a0095018800030abb00028abb0013
:100d60000c86e8000804e900f2ff3a000e3b880018
:100d70000700fc0050052000303b8800a00a20003e
:100d8000303b880061e7a800000000000000000080
:100d90000d08b000898f5600e4ff3a0000402000a3
:100da000010020000fb197009fb1970002014000a1
:100db0008381480082b79f0093b79f000fb09700d0
:100dc0009fb097006fa99700ffa99700820f50006e
:100dd000838f5800a2ff35004f0778004f06be00f2
:100de0004f05be004f04be008f01b1000000060099
:100df00045c7bf0084cfb3000440600045e7b7009b
:100e0000e0ff2f0060198800c842a900c862a9004d
:100e1000c882a900c8a2a900c4c6bf0003ceb300ff
:100e2000034060002041b300c4e6b70070c0b300c7
:100e30009061b700c0c1b3009161b700f0c1b300c9
:100e40009261b7009381a800f0632000a00c880095
:100e50000001eb00b20c88001008880005e1a80032
:100e6000a5c0bf00f1c8b300014060000043b3005b
:100e7000a5e0b70021e3a900034078002063b70094
:100e800010c0b30024e3b70025c3bf0003406000d7
:100e90000004a00025e3b7008219880021e3a80020
:100ea0004219880007e2a8000782a80006c2a8002d
:100eb0006001200050108800acc0bf0004406000fa
:100ec0000024a000ace0b7009600a8008600a900ae
:100ed00000000600c6ff07009460a8008460a90017
:100ee000fcfe0700e00f5000e08f580004003200c5
:100ef00000ceb3004260b7000050020000000000c6
:100f00000140fe00feff37008000eb00850020005e
:100f10002023a80020c3bf000008a300fdff32006b
:100f20002003a90000188000808040008502e900ad
:100f3000f7ff3a00c308de00601320008100500074
:100f4000a083800000804000a0838800e46320002c
:100f5000840f500001003400a48388007410e20064
:100f600001003d00a58388006309b900a0838000cb
:100f70000001410002848800840f51000100340008
:100f8000048488008010e20001003d000584880090
:100f900000848000b00c880000000600800178000a
:100fa0000000e0001c003200e10f5000020032009f
:100fb000e30f50000f003a007610ec00027122009f
:100fc000110009000280d800b18388000100e00010
:100fd00003003a00cc62a800cc42a800050037000c
:100fe00080382100808f500002003a00cc62a900b6
:100ff000cc42a900e28f51000f003a007610ec00bd
:10100000027d2000110009000280d800b183880011
:101010000100e00003003a00cc62a800cc42a80026
:1010200000000600803e2000808f500002003a0041
:10103000cc62a900cc42a9000000060000037800a1
:101040009c10e200060032009c30ef004800dd00fa
:1010500001002000c0838800d18388000e00370083
:10106000c0838000d18380004231dd000300200076
:10107000c60ade00ca0bdd004602de0004827300f1
:10108000040151008581590000014100818149001e
:10109000c2838800d3838800c0838000d18380000e
:1010a0004809dd004800de0000007100c808de00cd
:1010b000800078009600a90010858000800f530002
:1010c000020031007230ef00180037000285800006
:1010d000810f530002003600010053000100370069
:1010e00006805000820f5000030036007030ef0081
:1010f00010002000908388007010ec00808388002e
:10110000f1848000810f5000050031009083800041
:10111000e30f5000050032001000200002003700ed
:101120008183880020002000908388009600a8001a
:10113000000006003600f800809fbe00829fbe00bf
:10114000849fbe00869fbe00881f78008460a9002f
:101150008230ec00f88380006bff07000001440040
:10116000f28388001184800000022000808f5000ec
:1011700005003a008230ef004510de00e083880071
:101180007e30ef00adff07009083800083ff0700f3
:101190004f0478004f03be004f02be004f01be0057
:1011a0004f00be003600f90000400600889fbe00d8
:1011b0008a9fbe008043780081457800030578004f
:1011c00084047800850178000604780010c5b30017
:1011d00080cf53003600320007003c006e405000c4
:1011e00080cf5300350032006d40400080cf530067
:1011f00094003a001a00370030c6b30080cf530085
:10120000070032006340400080cf530033003200bb
:101210007340500080cf53008a003a00240037000a
:1012200004002000050020008481fb000200200053
:101230000040250000004100e0804900000040001f
:10124000818048006083880071838800860178006f
:1012500009017800c1062100050078007d003700f3
:101260006110b800c000dd000000200033017800ec
:1012700002034000e08348000481e900e10f4300dd
:10128000e08f4b0006003a0000ceb3004260b7008a
:101290000600be00fefc070035fe07000400370014
:1012a0008700d1000680d30066fd0700600037008c
:1012b000080078008d0007005d0037005000200016
:1012c0006083880010002000708388008601780009
:1012d00004017800c1062100580037004810de00e4
:1012e000000fb200f00f500056003a00ccc2bf0011
:1012f0004300de00610060000004a2004300dd0046
:10130000c12c2000914078000134a10080c0700001
:1013100001007800cce2b7000b04e0002b003200a3
:10132000f0ff210000006500e30f500012003200c2
:1013300005003e00e10f50000b003200e20f5000ac
:1013400007003a000a003700eb0f50000e00320091
:10135000ed0f50000f003200ea0f5000080032007d
:1013600000c0eb0014003700108580000700370034
:101370000085800005003700f084800003003700fe
:1013800090838000010037008083800001002000ee
:1013900006003700c0838000d18380004809dd004b
:1013a0004800de0000007100c808de00608388008d
:1013b000718388000040eb000080fb00880178000a
:1013c00009017800c106210022003700f0ff21004a
:1013d00000006500e20f50000c00320003003e00e8
:1013e000e10f500012003a0005003700e30f5000f3
:1013f00009003200ec0f50000d003a0009003700e0
:101400009501780013858800090037009501780060
:10141000038588000600370095017800f384880072
:10142000030037007030ef00300020009083880008
:10143000880178000001eb008000eb000000eb0069
:101440000400370088017800090178008000eb0073
:101450000080eb00290007004f05be004f04be00ce
:101460000000060080017800010278006108210078
:1014700060c07800e24f40000600320063c0780090
:101480000000fb00000a7800e0cfb30080f1780094
:1014900000000600c218dd00800821000081400025
:1014a0001200be00e00f5000e08f58000c00320028
:1014b0000080eb008080eb00120940005291480050
:1014c00003814100800921000001410012007800e1
:1014d000b080fb00010a78000009780000000600d7
:1014e000f00f2000000a78000000060012c0b300d0
:1014f0004108210002f07800000006000202780096
:101500006208210080717900038141008009210077
:101510000131780005002000c219dd00800821009b
:10152000808141008489be0000000600881f780089
:101530008002780001037800000240004709210082
:1015400008092100e18f400005003a000700420031
:101550000008eb008000200000327c0024003700ef
:101560004003200000a8b900420021008001410092
:10157000870042001100780006f079000000e800c2
:1015800080087800080142001202e900040978008e
:10159000e80f500008003a001304e0000600350090
:1015a000e34090008180fb00734090004800dd0024
:1015b00080804000010942000580420001092100ad
:1015c000010040001000e00009003a001301900003
:1015d00001c8b30093c06000134090000503780079
:1015e000e882410033029000a3019000effe070063
:1015f0004f047800000006003600f800809fbe000f
:10160000829fbe00849fbe00869fbe003400f8000b
:1016100000002000a00188008a20a90018c2bf0095
:101620000028a3001600320018c2bf000018a30053
:1016300001003200801080008550e2000900320075
:1016400087d0bf00e24f400006003a00608480006f
:1016500071848000e00f5000e08f580001003a00d4
:101660000000fe0017c2bf000048a30012003a00ad
:1016700021212000100020007aff07000e00370013
:1016800018c2bf008080eb000018a30001003200e8
:101690008110800018c2bf000058a3000300320070
:1016a0000100e00004003500010037008080eb00fd
:1016b000100020009dff070018c2bf000068a300b3
:1016c0000100320018c2a9001782a8003400f900f6
:1016d0004f03be004f02be004f01be004f00be00d0
:1016e0003600f900004006003600f800809fbe007a
:1016f000829fbe00849fbe00869fbe003400f8001b
:1017000000002000a00188008600a90008c2bf00d8
:101710000028a3001600320008c2bf000018a30072
:1017200001003200001080008450e2000900320005
:1017300086d0bf00e24f400006003a00408480009f
:1017400051848000e00f5000e08f580001003a0003
:101750000000fe0007c2bf000048a30012003a00cc
:10176000212020000000eb003eff07000e003700a4
:1017700008c2bf008080eb000018a3000100320007
:101780000110800008c2bf000058a300030032000f
:101790000100e00004003500010037008080eb000c
:1017a0000000eb0061ff070008c2bf000068a30053
:1017b0000100320008c2a9000782a8003400f90025
:1017c0004f03be004f02be004f01be004f00be00df
:0817d0003600f900004006009c
:020000040000fa
:1017d8009c10000008000000020000000100350015
:1017e8000c320000580200006c10000018000000c5
:1017f80000000000841000000c000000020000003f
:101808000000fe00fe0000000000000000000000d4
:10181800901000000c000000000000000410000000
:101828006800000000000000a41000000400000090
:1018380002000000ffffff00ff000000000800009a
:0c18480004080000000000000000000088
:020000040000fa
:081854000040da000000fe0074
:00000001FF
