:020000040000FA
:100000000802040000000000081C0000081C00009A
:10001000081C0000081C0000081C0000081C000050
:10002000081C0000081C0000081C0000081C000040
:10003000081C0000081C0000081C0000081C000030
:10004000081C0000081C0000081C0000081C000020
:10005000081C000088050000081C0000081C0000A7
:10006000081C0000081C00007C110000A40D00000A
:10007000081C0000081C0000081C0000081C0000F0
:10008000081C0000081C0000081C0000081C0000E0
:10009000081C0000081C0000AA0C0000081C00003E
:1000A000081C0000081C0000081C0000081C0000C0
:1000B000081C0000081C0000081C0000081C0000B0
:1000C000081C0000081C0000081C0000081C0000A0
:1000D000081C0000081C0000081C0000081C000090
:1000E000081C0000081C0000081C0000281100006B
:1000F000AA0E0000081C0000081C0000081C0000DC
:10010000081C0000081C0000081C0000081C00005F
:10011000081C0000081C0000081C0000081C00004F
:10012000081C0000081C0000081C0000081C00003F
:10013000081C0000081C0000081C0000081C00002F
:10014000081C0000081C0000081C0000081C00001F
:10015000081C0000081C0000081C0000081C00000F
:10016000081C0000081C0000081C0000081C0000FF
:10017000081C0000081C0000081C0000081C0000EF
:10018000081C0000081C0000081C0000081C0000DF
:10019000081C0000081C0000081C0000081C0000CF
:1001A000081C0000081C0000081C0000081C0000BF
:1001B000081C0000081C0000081C0000081C0000AF
:1001C000081C0000081C0000081C0000081C00009F
:1001D000081C0000081C0000081C0000081C00008F
:1001E000081C0000081C0000081C0000081C00007F
:1001F000081C0000081C0000081C0000081C00006F
:10020000FFFFFF00FFFFFF00081C0000081C0000AC
:10021000081C0000081C0000081C0000081C00004E
:10022000081C0000081C0000081C0000081C00003E
:10023000081C0000081C0000081C0000081C00002E
:10024000081C0000081C0000081C0000081C00001E
:10025000081C000088050000081C0000081C0000A5
:10026000081C0000081C00007C110000A40D000008
:10027000081C0000081C0000081C0000081C0000EE
:10028000081C0000081C0000081C0000081C0000DE
:10029000081C0000081C0000AA0C0000081C00003C
:1002A000081C0000081C0000081C0000081C0000BE
:1002B000081C0000081C0000081C0000081C0000AE
:1002C000081C0000081C0000081C0000081C00009E
:1002D000081C0000081C0000081C0000081C00008E
:1002E000081C0000081C0000081C00002811000069
:1002F000AA0E0000081C0000081C0000081C0000DA
:10030000081C0000081C0000081C0000081C00005D
:10031000081C0000081C0000081C0000081C00004D
:10032000081C0000081C0000081C0000081C00003D
:10033000081C0000081C0000081C0000081C00002D
:10034000081C0000081C0000081C0000081C00001D
:10035000081C0000081C0000081C0000081C00000D
:10036000081C0000081C0000081C0000081C0000FD
:10037000081C0000081C0000081C0000081C0000ED
:10038000081C0000081C0000081C0000081C0000DD
:10039000081C0000081C0000081C0000081C0000CD
:1003A000081C0000081C0000081C0000081C0000BD
:1003B000081C0000081C0000081C0000081C0000AD
:1003C000081C0000081C0000081C0000081C00009D
:1003D000081C0000081C0000081C0000081C00008D
:1003E000081C0000081C0000081C0000081C00007D
:1003F000081C0000081C0000081C0000081C00006D
:10040000401B04000000000052090400000000002E
:100410008F2D2200807F2200000188000000000054
:100420000A00070011000700000020000100200062
:100430000100700001003200F1FE0700C808020050
:10044000000000000040DA000000FE004440A90067
:10045000000020000000E000030032000000200047
:10046000A00188004440A8000000060020B9210037
:10047000010020001600370062004000E0804800C4
:10048000910188009001BA0062004000E0804800BD
:10049000910188009002BA0062004000E0804800AC
:1004A0000002EB006028E10005003A008301E9004A
:1004B00007003300038009000059EB0004003700F7
:1004C0006128E100010032000082EB000500070016
:1004D000910188001001BA000200E000E6FF3A0036
:1004E0000000050091018800800278006200400051
:1004F000E08048003559BA008301E9000800320065
:100500002559BA008301E900050032000400E0002B
:10051000F4FF320015D9BA008301E900F1FF3A0077
:10052000000006008001780002003700B159780011
:100530000201E9000200E000FCFF3A0000000600B2
:10054000889FBE008004780012D180000200E00085
:1005500002003200020078000C00370040A22100A7
:1005600003003700918F5400240036000180E8001A
:10057000900078000100E000FAFF3A000F00370019
:10058000918F54001D0036000180E8009000780033
:100590000100E000FAFF3A001201780040A22100B9
:1005A00003003700918F5400140036000180E800EA
:1005B00090007800828F5000FAFF3A0008D1800046
:1005C000890F540001003100090478000800780008
:1005D0006A0007000000E00004003A00890F5400A0
:1005E000050032000804D100F5FF37000818780034
:1005F0002F000700D4FF37000000EB004F04BE00BF
:1006000000000600881F7800630440000800A10075
:10061000800F540023003600E30F540001003E0019
:100620004800200008007800C5FF0700800078001F
:100630000000E0001B0032001001780092017800F9
:1006400064805100880F50000300310012009000B8
:100650008008780007003700080041008008780013
:100660009201900013009800110078001208140005
:1006700008097800910078000100E00005003200D0
:10068000110090000000E000020032000180E8004C
:10069000010037000000EB0010D188000280E80064
:1006A000010037000000EB004F0478000000060056
:1006B0000000E000300032008080E9009102780004
:1006C000E38F52002C0036000508A3002A003A00F0
:1006D00022D180000200E00002003200828F500030
:1006E000040031000208780021D18800160037008C
:1006F00003017800920190000300E0000200320044
:10070000818F5100FAFF3900120278000400410085
:10071000808F500018003900810F500003003A000C
:100720000509420082007800070037000300E0005E
:100730000300320005804000808F51000E00390018
:100740009300980011019800110190000200E00050
:100750000900320011804000820F500006003A006C
:10076000223AEF001100900011017800900841003A
:100770001000900090009800000006000000E000CB
:100780000300340004000700E10F400001003A00BC
:100790000000EB0000000600889FBE008004780087
:1007A0002A1AE20004003A000000EB0010000700E3
:1007B0000000E0000A00350050D180000900E00090
:1007C00002003A00000478000600370000047800B8
:1007D00009004000060007000000E00001003D00A5
:1007E0000084EB00080078004F04BE000000060003
:1007F000800078000000E00004003A00C0A2210060
:1008000050D1880001017800060037000081EB001C
:10081000802D2200808F500002003E0051D18800C0
:100820000001EB0002007800000006006022B80022
:10083000060220000000D0008180D2000482D20095
:100840008582D2000000A0000202520083825A007A
:10085000030031000202420083824A000000A1002E
:100860000603E900F3FF3A00000006000200FA0068
:10087000D4C2A900D0C2A9000000EB00F0BF9F00C5
:1008800003003700FFB897008100E800F1BF9F0028
:1008900030062000FFB89700808F5000F9FF340029
:1008A000D0C2A8000080FA000000060082252000C7
:1008B000801F7800110009008280D80001017800B3
:1008C0004F007800624078000080FB0000000600C6
:1008D0000100500001003B008025B0000000060030
:1008E0000200FA00889FBE008A9FBE008005780043
:1008F0000105780082047800F0C7B30010F0B7005B
:100900000000EB00070037000004E800800045000D
:100910000B007800E5FF07000101210000F47800DA
:1009200008007800890F5000F7FF35000901E80042
:100930008001EB000101210050C1B30088050700D0
:100940008001EB0012002000EA80570050C1B30084
:1009500090050700EFF097000180FB0001032000E5
:100960008080400021118800EA00400021118800A9
:100970006D00400020118800090078004F05BE007E
:100980004F04BE000080FA0000000600889FBE00F1
:100990008A9FBE008C9FBE000006BE0082057800C4
:1009A0001A0020004D00370069407E00800078006A
:1009B000010FB200000C2000808F50001A0032009E
:1009C0000A003C0000082000808F50002C003200FC
:1009D000000A2000808F50002D0032000007200008
:1009E000808F50000A003A002F003700000E2000D0
:1009F000808F50000800320070004000808F50004F
:100A000005003200000D2000808F500006003200EB
:100A10001A0020002C00370010032000201188004D
:100A20001200200025003700E10F5400250034009B
:100A30008900E8000C0078009CFF070000004000DF
:100A40000080E800800F54001E00390020032000C1
:100A5000201188001B0478008800E8000C00780052
:100A600092FF0700000040000081E8008800780045
:100A70000C0078009AFF070000057800120037008C
:100A800030032000E10F54000A003C000D00370045
:100A9000E20F54000B0034004003200020118800B6
:100AA0003200200005003700E10F5400050034003B
:100AB0005003200020118800220020009B007800B5
:100AC000EBFF37000005EB001B00450082252000EE
:100AD000110009000280D800810D78009B04780085
:100AE000890078001D00780079FF07000004780075
:100AF0000000E000020034000A00E000AAFF3C0011
:100B00004F06BE004F05BE004F04BE0000000600A9
:100B10003600F800809FBE00821F78003400F80085
:100B200000C0B300A00188008560A9000021EF008B
:100B300084C0BF000038A300150032008460A90003
:100B40001E3AEF001C3AEF0011003700512C200034
:100B500091407800E1C060000104A200C5C2BF005E
:100B60000004A10001407000C5E2B700E0D08000A1
:100B7000321180008126210002F078000000E80098
:100B800082252000110009000280D800E1D08800F1
:100B900022C2BF000008A300ECFF3A003400F900B5
:100BA0004F0178004F00BE003600F90000400600FB
:100BB0000400FA00C0E2A900C4E2A8001C05070076
:100BC000C542A9006000B800040037006FB8970064
:100BD000FFB8970061004000E0804800E0BF9F0040
:100BE000F1BF9F006FB89700FFB89700723E2000DA
:100BF000820F5000E08F5800F4FF3400C542A80077
:100C000013020700C4E2A900C4E2A900C4E2A900DB
:100C1000C4E2A900C0E2A8000080FA0000000600BB
:100C2000881F78000001BE00CC62A900C862A9003C
:100C3000C862A900CAC2BF00684060000080FB0013
:100C40000000E9004F04DE000804E900CAC2BF004A
:100C50000038A300010032000084EB00CAC2BF00CC
:100C60000038A300010032000084EB00CAC2BF00BC
:100C70000038A300010032000084EB00C862A80025
:100C80000800E00027003A00A4C6BF0001CEB30070
:100C9000014060000014A000A4E6B700C3C6BF0076
:100CA000014060003040B300C3E6B700A9C0BF00F8
:100CB000F1C8B300014060000054A000A9E0B700F3
:100CC0009560A8002062A80000A025002126200031
:100CD000D6FE070065004000E0804800A20020002A
:100CE00003002000D1FE07000000E9004011880049
:100CF00021E2A8002342A8007167A9000421A900ED
:100D000000C3B3000461B70004C1A90005A1A90094
:100D100030422F0010088800080888008460A9006D
:100D200005E1A800080078004F04780000000600E4
:100D30000200FA00881F78008043780003037800DF
:100D40000504780002042000828F50004200320027
:100D500009003E0000022000808F50001000320089
:100D60000000E800808F500019003200E28F500030
:100D700053003A002F00370000092000808F5000F8
:100D80001B0032000000E800808F50001D00320080
:100D900070005000808F500049003A00100037006A
:100DA0000500E00003003200E18F52004F003A00DE
:100DB00003003700210020000500780006003700FE
:100DC000310020000000EB007008070047003700EA
:100DD0003100200010002000F10807004300370018
:100DE00020102000408088000A30EF0015003700F6
:100DF000C10020004180880011002000518088003F
:100E0000100037000200200003002000C011DD00A8
:100E1000020020000040250000004100E080490061
:100E20000000400081804800408088005180880098
:100E30000400370010002000D0D088000830EF00F8
:100E40000A30EF0088017800060178008100210057
:100E50000000EB00240037001400BE0070FF070004
:100E6000000278000000EB00E0BF9F0003003700A5
:100E7000EFB897008100E800E1BF9F00703E2000BE
:100E8000EFB89700808F5000F9FF3400F006200083
:100E9000201188006400500020118800D00020003C
:100EA00020118800A000200020118800880178000F
:100EB0000001EB0082007800040078000A0037008F
:100EC0000704E00004003A00880178000001EB000C
:100ED000820078000300370088017800060178005E
:100EE0008000EB000080EB007D0407004F047800D9
:100EF0000080FA0000000600889FBE008A1F78006C
:100F0000804378000145780082047800030178006E
:100F100004047800850078008602780030C5B300AC
:100F200080CF53003100320007003C007040500079
:100F300080CF53003F0032006E40400080CF53000E
:100F40004D003A002900370020C6B30080CF53007F
:100F5000070032000040E80080CF5300110032004B
:100F60006D40500080CF530043003A001900370015
:100F70000600E00003003200E10F53003E003A009B
:100F800004003700210020000600780084080700D4
:100F900039003700310020000000EB00FB0707009C
:100FA000350037000200200003002000C011DD00E2
:100FB000020020000040250000004100E0804900C0
:100FC00000004000818048006080880071808800B7
:100FD0001F0037000102780088017800890078003E
:100FE0000A40780052FF0700230037000900E000A4
:100FF0000400320020082000808F540019003A00BD
:101000000900370010002000D0D088000C30EF001D
:101010000E30EF008501780008017800C100210042
:1010200009007800130037000C30EF000E30EF009D
:101030000700370020082000808F510009003A0087
:10104000C0002000608088001000200070808800B0
:101050008501780008017800C10021000000EB0044
:101060000400370085017800080178008000EB005B
:101070000080EB001A0407004F0578004F04BE0003
:1010800000000600F0FF2100601988000009200020
:101090002016880080862F00001688000000EB00D4
:1010A00060168800A0168800F030200040168800E6
:1010B00000CF2F008016880068C0A80068E0A80054
:1010C0000000060070E7A90000002800301088002A
:1010D00060012000501088000C22EF00F00020007A
:1010E000201088000004290030108800000006004D
:1010F00071E7A9002021A900F0CCB3002061B6005F
:1011000020C1A90021A1A800F0632000E008880008
:1011100021E1A800000006000000EB0000048800A8
:1011200081E0A900100488002004880030048800B1
:10113000400488005004880060048800ACC0BF00F0
:1011400081CFB300014060000014A000ACE0B70004
:10115000ACC0BF000044A1000046B300ACE0B70043
:101160009600A8009620A800B2C0BF000140600011
:101170006040B300B2E0B7009780A800000006000E
:10118000C0FF0700CFFF0700D9FF0700E2FF3700CD
:101190000400FA0080CFB3004567B600F8FF0700EF
:1011A0000D060700E00F5000E08F580004003200E9
:1011B00000CEB3004260B700005002000000000003
:1011C000C502A8006000B800E0BF9F00F1BF9F000B
:1011D000060037006FB99700FFB997006101410021
:1011E000E0814900E2BF9F00F3BF9F00F0D32000E1
:1011F000310020006FB99700FFB99700800F5100B0
:10120000818F5900F3FF340008C2BF000048A300DB
:1012100004003A0008C2BF000038A30001003A00F1
:1012200092FD070010002000D0D08800512C200033
:1012300091407800E1C060000104A200C5C2BF0077
:101240000004A10001407000C5E2B7001A1AE200D4
:10125000020032001A3AEF0055FE0700E2A1210019
:10126000C1A1210080262100C8FD0700F7FF37003B
:101270003174200082072000A309200082487800F2
:1012800083487800804878002174200062042000A0
:101290007305200082487800834878004207A80040
:1012A00000000600889FBE008A9FBE008004780070
:1012B0008105780002057800310037009900900020
:1012C00000C02F00190060000002BE0030D1800075
:1012D00041D18000800F5200818F5A000B003200F4
:1012E00034D1880045D1880002002400030020008A
:1012F000040141008581490005402000044C210083
:10130000110520001000200010010700E10F55001A
:1013100009003A00F03F200019006000014C210054
:10132000E0CD78001000200001002000990C400062
:10133000D994480014003700F03F200019016000E4
:101340000000E800020050000A047800800F5500F9
:101350000100360000047800014C210081004100AA
:10136000080178000B0078006EFC070088854500B6
:101370006140B800990C4000D99448000805550018
:101380000A00E000CDFF3A004F05BE004F04BE004A
:101390000000060061406000442C200014427800E8
:1013A0000404A1000042720004007800C4E2B70007
:1013B000E1C0600081C04000C4C2BF000014A100B1
:1013C00001407000C4E2B700C522A900C482A90090
:1013D00062168800A2168800C482A800C522A80050
:1013E000C482A9004019DE0062168800A216880097
:1013F000C482A80000000600220020002300200074
:101400008040EB0001407800E2FF37000001BE00A1
:1014100011C0B3000040EB00DEFF3700889FBE0024
:101420000004BE0012002000130020008040EB00EA
:1014300001407800D7FF07000801BE008040EB00A4
:1014400010C0B300D3FF07004F04BE000000060029
:101450001800FA00889FBE006000B800C0BF9F005F
:10146000D1BF9F00F480570068805700150807001F
:1014700009B421000000E00001003A002995200095
:1014800042002000F08057006880570009000100EA
:101490006884570042002000F88057000800780058
:1014A0000900010042002000FC805700080078007D
:1014B000090001004FB19700DFB1970061004100C2
:1014C000E0804900E10F5000E08F5800270036000F
:1014D0000400200045002000840F5100858F590032
:1014E00024003E002FB09700BFB09700840F50003B
:1014F000858F58001F003E00C8FF07001500370009
:10150000512C200091407800E1C060000104A2004D
:10151000C5C2BF000004A10001407000C5E2B700D1
:1015200042002000EC80570068805700090001004D
:101530002FB89700BFB89700B4FF07004FB09700CF
:10154000DFB0970064005000E0805800C0B79F00F3
:10155000D1B79F004FB09700DFB09700E00F500069
:10156000E08F5800E6FF3C00C9FF37000004EB00A5
:101570000100370018002000CC0707000800E00039
:1015800001003A009CFF07004F04BE000080FA00F3
:1015900000000600889FBE008A9FBE000005BE00B6
:1015A0000204BE0012002000130020008040EB0067
:1015B0000140780077FF07000801BE008040EB0083
:1015C00010C0B30073FF07000A01BE0011C0B300D2
:1015D000014078006FFF07004F05BE004F04BE00BA
:1015E0000000060000017800E10F50000400320006
:1015F0000000EB00E20F510010003A000800370035
:10160000014078000074A1008001EB000301780024
:101610008300780052020700B0CB80000000060073
:10162000014078000074A1008001EB000301780004
:10163000830078006402070070C680000000060086
:101640002400FA00889FBE008A1F7800800478007A
:101650000104780000022000808F52000100360053
:10166000800278004818DE0001002000E0D79F00CB
:10167000401BDE0007002000F6D79F00481DDD005C
:101680004810DE0000007500C818DE0080DF9F00F3
:1016900092DF9F008000EB0004003700A2FD2F00C6
:1016A0000F00410034F078008100E800858F500081
:1016B000FAFF3900410020000878A30004003A0036
:1016C000610063004200DD0000047400210020007E
:1016D000E18F5400040032000000EB00E28F540060
:1016E00016003A000B003700018142006AFD2F000E
:1016F0000F05450081005500E48040000840780057
:101700000074A1008001EB0015020700B0CB80003F
:101710000A0037000181420060FD2F000F004000E9
:1017200081005000E4804000084078000074A1006F
:101730008001EB002402070070C680004F0578008E
:101740004F04BE000080FA0000000600E687470054
:10175000889FBE008A9FBE008C9FBE008E1F7800AF
:1017600000067800810478000205BE0004077800B6
:10177000850678000B0037000A04EA00880278002A
:101780000E0278000A01BE00890078000C00780083
:10179000EEFF070008054500E0854D0008074700FB
:1017A000888656006168B8000A004000E080480062
:1017B0000200200013002000820F5000838F580089
:1017C000EDFF3E004858DE0001002000E0EF9F00E2
:1017D000405ADE0005002000F4EF9F004859DD006C
:1017E0004850DE0000007100C858DE0080F79F00FE
:1017F0009AF79F00420020000978A30004003A00F5
:10180000610062004200DD0080847400220020003C
:10181000E10F5600040032000000EB00E20F56001A
:1018200022003A00110037007280570082005000F9
:10183000E4804000094078000074A1008C01780029
:10184000C7010700B0CB80000000E00005003A00AF
:10185000800178000D0178008E0078000940780042
:10186000CC010700B0CB8000100037007280570019
:1018700082005000E4804000094078000074A1001C
:1018800013002000D001070070C680000000E000B7
:1018900005003A00800178000D0178008E00780084
:1018A00009407800D501070070C680004F07780016
:1018B0004F06BE004F05BE004F04BE006F00B100D2
:1018C0000000060005C8B30002C86200114098007D
:1018D000224098004811DE003240980043409800B2
:1018E000C819DE0053409800644098004822DE008A
:1018F0007440980000000600030178000004E00036
:1019000005003A00840178000001EB0082007800B5
:101910000080EB0003003700840178008000EB00BA
:1019200001007800EE0137000000EB006292210018
:10193000618D21008018EB008018EB000019EB008E
:101940000019EB000000E800F30F5000F9FF34002D
:10195000000006003600F800809FBE00829FBE0097
:10196000849FBE00869FBE003400F80000C0B30014
:10197000A0018800C018E20003003A001000200017
:1019800000C68800E8FF0700FCD9BF00E14F500007
:101990000B003A0008C2BF000038A30006003A005E
:1019A000C838ED0040C680000000E00004003A00A6
:1019B000FCF9B70002003700A000200040C68800F4
:1019C000F4D9BF00E14F50000B003A0018C2BF002D
:1019D0000038A30006003A00C238ED0010C68000AF
:1019E0000000E00004003A00F4F9B70002003700FC
:1019F000A000200010C68800FCD9BF00E34F5000B3
:101A000003003200FCD9BF00E74F500020003A002D
:101A1000FA39EC00D1CF800040062000808F5000C2
:101A200008003400FA39EF0010C9800021C9800095
:101A300061004000E080480010C9880021C988008A
:101A40000642A80008C2BF000038A300020032000E
:101A5000F619E2000E003200FA39EF00FCD9BF009F
:101A6000E34F500002003A0040C0B30001003700CD
:101A700080C0B300FCF9B700F619E20003003200A1
:101A8000F639EF000622A800010037000602A80080
:101A9000F4D9BF00E34F500003003200F4D9BF0077
:101AA000E74F500020003A00F239EC0091CF80005F
:101AB00040062000808F500008003400F239EF000B
:101AC00090CB8000A1CB800061004000E080480006
:101AD00090CB8800A1CB88001642A80018C2BF0096
:101AE0000038A30002003200EE19E2000E003200BE
:101AF000F239EF00F4D9BF00E34F500002003A0082
:101B000040C0B3000100370080C0B300F4F9B70053
:101B1000EE19E20003003200EE39EF001622A800B1
:101B2000010037001602A8008780A9003400F900E0
:101B30004F03BE004F02BE004F01BE004F00BE006B
:101B40003600F90000400600809FBE00829FBE0064
:101B50003400F80000C0B300A00188000200FA00C1
:101B600009C2BF000028A3001B0032000942A900DF
:101B7000FCD9BF000080FB004200DD00618D210028
:101B80000100400012002000030020001008410066
:101B90005090490053C68000C3CB880060C68000C7
:101BA000D0CB8800FCD9BF00E44F50000A003900B8
:101BB000E64F50000400360068405000E44F5000EB
:101BC00005003E000200370030C0B30001003700BE
:101BD00070C0B300FCF9B700FCD9BF00E84F50005B
:101BE000260032000B003E00E44F5000110032008E
:101BF00003003E00E24F500050003A004D00370015
:101C0000E54F500013003200E64F50004B003A0001
:101C10003D003700EA4F5000250032001C0039001B
:101C2000EB4F500025003200EC4F500043003A00CB
:101C3000380037007C59D40002E2B70050C0B3002E
:101C40007A19E20001003A0060C0B300FCF9B70065
:101C50003A0037000942E2000F003500C1CB800096
:101C60003140780002E2B700C1CB88007A39ED003C
:101C70007A19E20031003A00F3FF37007C59D400B2
:101C80000004A00002E2B70090C0B300EFFF3700ED
:101C90000942E20003003D000642A80076B9EF00C9
:101CA0001F00370000C2BF000080FB00F0BF9F0094
:101CB0000662A800B0C0B300E4FF370008C2BF004E
:101CC0000018A30005003200C0CB800001202000D6
:101CD0009140780001587800C0CB88007A39ED0037
:101CE0007A19E20003003A0006A2A800C0C0B300BF
:101CF0000200370006A2A900A0C0B300FCF9B7009B
:101D00000682A8000D0037000942E20001003D00F4
:101D100076B9EF00F819E20003003A000642A80085
:101D200020C0B300C9FF370010002000B0CF8800EA
:101D300001003700F639EF00FC79EF008620A9009A
:101D40000080FA003400F9004F01BE004F00BE00D1
:101D500000400600809FBE00829FBE003400F80055
:101D600000C0B300A00188000200FA0019C2BF0041
:101D70000028A3001B0032001942A900F4D9BF00BB
:101D80000080FB004200DD006192210081004000E4
:101D9000120020000300200091084100D19049006A
:101DA00023C6800083C6880030C6800090C68800A5
:101DB000F4D9BF00E44F50000A003900E64F50004C
:101DC0000400360068405000E44F500005003E001B
:101DD0000200370030C0B3000100370070C0B3000C
:101DE000F4F9B700F4D9BF00E84F500026003200E4
:101DF0000B003E00E44F50001100320003003E0093
:101E0000E24F500050003A004D003700E54F5000BF
:101E100013003200E64F50004B003A003D003700FF
:101E2000EA4F5000250032001C003900EB4F5000F3
:101E300025003200EC4F500043003A0038003700D4
:101E4000D458D40012E2B70050C0B300D218E20058
:101E500001003A0060C0B300F4F9B7003A0037005F
:101E60001942E2000F00350081C680003140780041
:101E700012E2B70081C68800D238ED00D218E20025
:101E800031003A00F3FF3700D458D4000004A0001A
:101E900012E2B70090C0B300EFFF37001942E20032
:101EA00003003D001642A800CEB8EF001F00370027
:101EB00010C2BF000080FB00F0BF9F001662A800A8
:101EC000B0C0B300E4FF370018C2BF000018A30081
:101ED0000500320080C6800001212000914078007A
:101EE0000158780080C68800D238ED00D218E20090
:101EF00003003A0016A2A800C0C0B30002003700D9
:101F000016A2A900A0C0B300F4F9B7001682A80079
:101F10000D0037001942E20001003D00CEB8EF008D
:101F2000F019E20003003A001642A80020C0B300F6
:101F3000C9FF37001000200070CF88000100370073
:101F4000EE39EF00F479EF008A40A9000080FA0032
:101F50003400F9004F01BE004F00BE0000400600F3
:101F60007639EF007CF9B700D2CB8800D0CB800067
:101F700060C68800C1CB880051C68800C3CF8800E6
:101F800030C0B300FCF9B700FC59E200FEFF3A0094
:101F9000000006007639EF007CF9B700D2CB88004C
:101FA000D0CB800060C68800C1CB880051C68800B5
:101FB000C3CF880070C0B300FCF9B700FC59E20041
:101FC000FEFF3A0000000600CE38EF00D4F8B7005C
:101FD00092C6880090C6800030C6880081C68800FE
:101FE00021C6880083CF880030C0B300F4F9B70061
:101FF000F459E200FEFF3A0000000600CE38EF0080
:10200000D4F8B70092C6880090C6800030C6880019
:1020100081C6880021C6880083CF880070C0B300C5
:10202000F4F9B700F459E200FEFF3A0000000600A0
:10203000A000200040C6880010C0B300FCF9B70023
:10204000FC59E200FEFF3A0000000600A00020005C
:1020500010C6880010C0B300F4F9B700F459E200CC
:10206000FEFF3A00000006008001780001027800BF
:10207000E19F210060C07800E24F40000400320080
:1020800063CA7800E0CFB30080F17800000006005A
:10209000C218DD0000A02100008140001200BE0037
:1020A000E00F5000E08F58000B0032000080EB0082
:1020B0008080EB00120940005291480003804100EB
:1020C000A19E21000100400090007800314A780074
:1020D0000108780000000600004AEB00000006003E
:1020E00002027800E29F21008071790003814100A3
:1020F000A09E21000131780005002000C219DD00FA
:1021000000A02100808141008489BE0000000600FB
:10211000889FBE008A1F78000003780001047800C1
:102120002098210086024300EA972100E18F4000B9
:1021300005003A00008042000008EB00800020000B
:1021400080327D003F00370080814200130178001B
:10215000679821002003200000B0B9000002780039
:102160000200400008F07B000201E80082097800CC
:102170008A8142009302E90085097800E80F510046
:102180000B003A0064C07B000004E000080035004A
:1021900066004200E0C07B008180FB0067004200D7
:1021A00060C07B004800DD008080400081894200E3
:1021B00006004300E1972100010040001000E0000C
:1021C00020003A00659821002803200008B4B900D7
:1021D0006600440060C57A000A85FB006700440081
:1021E00060C27A004822DD0064004400E0C37A0047
:1021F0008783FB0065004400E0C17A00C819DD0058
:102200000880E80060C17A000281FB00630044009E
:1022100060C07A004800DD0000014100E8C07A009B
:1022200000C8B30080C060000800E80060C07A0009
:10223000E5982100850244000402450083814300A3
:102240002DFB07004F0578004F04BE00000006007C
:102250003600F800809FBE00829FBE00849FBE00B3
:10226000869FBE003400F80000C0B300A0018800C3
:1022700018C2BF000028A3000700320017C2BF0029
:102280000048A3000F003A00212120001000200088
:1022900075FF07000B00370018C2BF000018A3002D
:1022A0000800320010C2BF008080FB0018C2BF00CF
:1022B0000058A30001003A008080EB0010002000CD
:1022C00093FF070018C2BF000068A300010032009E
:1022D00018C2A9001782A8008A20A9003400F900BA
:1022E0004F03BE004F02BE004F01BE004F00BE00B4
:1022F0003600F900004006003600F800809FBE005E
:10230000829FBE00849FBE00869FBE003400F800FE
:1023100000C0B300A001880008C2BF000028A300CD
:102320000700320007C2BF000048A3000F003A00B8
:10233000212020000000EB004BFF07000B003700BE
:1023400008C2BF000018A3000800320000C2BF008E
:102350008080FB0008C2BF000058A30001003A00C3
:102360008080EB000000EB0069FF070008C2BF009F
:102370000068A3000100320008C2A9000782A8007B
:102380008600A9003400F9004F03BE004F02BE00D2
:102390004F01BE004F00BE003600F90000400600AD
:1023A000804078007F406000EF4F50000200340012
:1023B0006FC0600001003700694040000000FB0072
:1023C00000000600889FBE000004780010407800DE
:1023D000F3FF07000000FB00C404DD00184090007C
:1023E000EFFF07000000FB00008044004F04BE0028
:1023F000000006000003BE000002BE000E00370011
:102400004028DE000100200032E0B7001400BA00CE
:102410009480BA00804978004800DE00904198001E
:10242000A1419800C808DE00B1419800E481410054
:1024300062024200E0824A0002004300E0804B005A
:10244000800F5200818F5A00EDFF39000000060016
:10245000889FBE008A1F78000002BE000205780037
:102460006044B80026003700134090004800DD00AB
:102470009380FB00010140004028DE0001002000A5
:1024800032E0B7009403BA008500D1000480D30085
:10249000E14F500015003E000080FB0000004000AE
:1024A00021A121006083780086806300060061001E
:1024B000808F50000D00320000002400003B880097
:1024C0008680EA0081007100010ABB000700FC0061
:1024D00050052000303B8800A00A2000303B8800D7
:1024E00061E7A80000000000000000006404440050
:1024F000E0844C00E481410062024200E0824A0034
:102500006150B800800F5400818F5C00D6FF390005
:102510004F0578004F04BE0000000600889FBE00F3
:102520008A1F78000002BE0082047800030478004D
:102530004008DE008041780032E0B7000001EB0087
:102540000203780084037800060043000000420084
:102550001005BA009080BA00E10F450002003A0071
:10256000E1CF400001003200120020000603E80025
:10257000F01F2000800F5300F2FF36000200E00041
:102580000D00320020042400003B88000300780086
:1025900032E0B700040ABB000700FC005005200031
:1025A000303B8800A00A2000303B880061E7A8008B
:1025B00000000000000000008002EB00050378002E
:1025C0000300780032E0B7000002EB000580420013
:1025D000E0807C0060007C00810BBB00809BBB0026
:1025E0000402E8008502E800F0032000800F52009A
:1025F000F6FF360010002400003B88000700FC00B6
:1026000050052000303B8800A00A2000303B8800A5
:1026100061E7A80000000000000000000603E800D9
:10262000E70F5300E6FF36004F0578004F04BE0069
:1026300000000600889FBE008A9FBE008C9FBE00DF
:102640000005BE00820678000306780000C02F0057
:102650000A006000000478008B047800B0D080008D
:10266000C1D08000880F5000898F58001E003200B2
:10267000E00F5000E08F5800040035000230EC00FD
:102680000380200002C02000A4FF0700E00F5400D8
:10269000E08F5C00120035000030EC0040C8DE0026
:1026A000CF80DE0032E0B7000002EB000401420000
:1026B00002004400E0804C009002BA009081BA0011
:1026C00000C0200005317800008020000331780030
:1026D0000402E800F01F2000800F5200F3FF3600D4
:1026E000B8D08800C9D088000A007800F03FB20056
:1026F0000000D1008002EB00130037008001780059
:10270000F31FB20005014600038241001240900011
:102710004800DD009280FB000100400001C0200065
:1027200000B27800B2409000C808DD00224090005E
:102730000080FB0080804000008020000132780093
:10274000E48242000300E8008D8F5200EBFF390065
:102750004F06BE004F05BE004F04BE00000006003D
:10276000889FBE008A9FBE008C9FBE000005BE00F1
:102770000206BE008004EB00120037008A007800D9
:10278000F13FB20000402000010050000000400076
:102790000004780009005600880F50000100310045
:1027A0000004780089814600080178000A00BE0014
:1027B000A0FF07000800D10000054500E0854D009E
:1027C000888444008C8F5400ECFF39004F06BE0013
:1027D0004F05BE004F04BE0000000600889FBE00EB
:1027E0008A1F78000003BE00020578000000200068
:1027F00001002000C000DD00000020000240250094
:1028000002044000E084480004002000850F2000FE
:102810000780620001002000C000DD0000002000F1
:10282000840F5000858F580004003A000A01780098
:102830000600BE0006FF07000D003700880F53009A
:10284000898F5B00020031000603440087834C003F
:102850000800440089804C00800F5300818F5B008A
:10286000030031000A0178000600BE00BCFF07002B
:102870004F0578004F04BE00000006003600FA0045
:10288000889FBE008A9FBE008C9FBE008004780097
:10289000CCFE0700804678000980E800C9FE0700EA
:1028A00000C446000080FB0001002000480DDD0050
:1028B000C805DE008B0575004805DD006480440016
:1028C000C0FE0700004444000080FB00010020001F
:1028D00000057500818575008ABF9F009BBF9F0022
:1028E00066804400B7FE07000046780000454400BB
:1028F0008045EB000A0037000B84FB000800440011
:102900000080440068004000AEFE0700E1FB2F009D
:102910008880400080F07F00004545008B45E8003E
:102920008DCF5500F4FF39000D84FB0008004400F2
:102930000080440068004000A2FE070000404500FF
:102940008000EB001E003A000C04E000040032009E
:1029500011002000E44F560019003A000D00370026
:1029600020808000318080000FB997009FB99700C8
:1029700000007100818071008100D1000080D300CF
:10298000E3FB2F008F8141000801780093FF0700CF
:102990000A0037006F799700C811DD00020020009F
:1029A0007F7897008080FB0000002000020040003C
:1029B000838048002080880031808800110020003A
:1029C000010078004F06BE004F05BE004F04BE0058
:1029D0000080FA0000000600020020000300200032
:1029E000C011DD0002002000004025000000410071
:1029F000E08049004009DE00030020000001FD00E6
:102A000032E0B7000001FD009001BA001081BA0069
:102A1000E18F410003003A006000B800E14F41003F
:102A2000020032001000200001002000000006001B
:102A30000200200003002000C011DD000200200081
:102A40000040250000004100E080490000004000F7
:102A50008180480062005000E08058004009DE009C
:102A6000030020000001FD0032E0B7000001FD007E
:102A70001001BA001080BA0001002000C000DD0083
:102A80000000200002014000E08148000380FB00BC
:102A9000800078000200780000000600889FBE00D9
:102AA0008A9FBE000000200001002000C000DD0061
:102AB000000020000240250002054000E08548009B
:102AC0000A03BE006044B800110037004038DE0041
:102AD0000100200032E0B7001601BA001682BA00E9
:102AE000F50F20000500610000004400E0804C006C
:102AF0004811DE0002014000E0814800050262004A
:102B000004044100E084490062034300E0834B0079
:102B10000A0045008B804D0062005000E0805800A4
:102B2000800F5300818F5B00E8FF39000980FB00B4
:102B300080007800080078004F05BE004F04BE00FA
:102B400000000600889FBE00000020000100200059
:102B5000C000DD000000200002402500020440000B
:102B6000E08448006033B8002A00370000002000ED
:102B700001002000C000DD00000020000240250010
:102B800002014000E08148000601410087814900C0
:102B90004098DE00CF80DE0032E0B7000002EB009C
:102BA0006120B90002004000838048009002BA0012
:102BB0009080BA00E18F420007003A00E1CF400068
:102BC00005003A000482E800F03F2000800F520028
:102BD0000C003C00F2FF370020042400003B88007A
:102BE0000209BB000700FC0050052000303B8800B4
:102BF000A00A2000303B880061E7A8000000000028
:102C000000000000004020000100200006034000FA
:102C100087834800880F5300898F5B00D3FF3900FA
:102C20004F04BE00000006000800FA00889FBE00A6
:102C30008A9FBE008C1F780098FF07000004BE002A
:102C40007BFF0700800F5400818F5C000200320080
:102C5000BCFF0700C8003700000020000100200072
:102C6000C000DD00000020000440250004024000F8
:102C7000E08248000200200003002000C011DD00B7
:102C8000020020000000250000004100E080490013
:102C90000002520081825A00F4B79F0085BF9F0056
:102CA0006000B80090BF9F00A1BF9F007100370077
:102CB000512C200091407800E1C060000104A20086
:102CC000C5C2BF000004A10001407000C5E2B7000A
:102CD0000200200003002000C011DD0002002000DF
:102CE0000000250000004100E08049001FB9970066
:102CF000AFB9970002034000838348000200200020
:102D000003002000C011DD0002002000004025006B
:102D100000004100E080490006044000878448002C
:102D20008002EB004048DE000100200032E0B700E6
:102D30006129B90008004100898049001002BA00E9
:102D40001085BA004038DE00010020008045780080
:102D500032E0B70006014100878149001200BA0045
:102D60009280BA00800F520007003A00810F550090
:102D700005003A008582E800F03F2000808F520075
:102D800034003C00E7FF370020042400003B8800AB
:102D90000B00780032E0B700060BBB000700FC0018
:102DA00050052000303B8800A00A2000303B8800FE
:102DB00061E7A80000000000000000008005EB00B3
:102DC0000B0678000005EB00615AB90008004200CC
:102DD00089804A004009DE00030020000001FD0058
:102DE00032E0B7000001FD009001BA001081BA0086
:102DF0000602420087824A004028DE0001002000CF
:102E000032E0B700030ABB00028ABB000A05E800F3
:102E10008B85E800F0032000800F5500EAFF3400A6
:102E200010002400003B88000700FC005005200033
:102E3000303B8800A00A2000303B880061E7A800F2
:102E400000000000000000000C06E800E70F56003C
:102E5000DCFF340000402000010020001FB9970073
:102E6000AFB99700020140008381480092BF9F00E4
:102E7000A3BF9F001FB89700AFB897007FB197001E
:102E80008FB99700820F5000838F580088FF35005C
:102E90006033B8003300370000002000010020003C
:102EA000C000DD00000020000400250004024000F6
:102EB000E08248000602420087824A0002002000A9
:102EC00003002000C011DD000200200000402500AA
:102ED00000004100E0804900040140008581480075
:102EE0004018DE000100200032E0B7000002EB00D5
:102EF0006120B90002004000838048009002BA00BF
:102F00009080BA00E18F420007003A00E18F400054
:102F100005003A000482E800F03F2000800F5200D4
:102F20000C003C00F2FF370020042400003B880026
:102F30000209BB000700FC0050052000303B880060
:102F4000A00A2000303B880061E7A80000000000D4
:102F500000000000004020000100200006034000A7
:102F6000878348007FB097008FB89700800F530089
:102F7000818F5B00C8FF35004F0678004F05BE000B
:102F80004F04BE000080FA00000006004000FA0076
:102F9000889FBE008A9FBE008C9FBE000004780000
:102FA0001782A8009A20A900090520008184440006
:102FB000D91088000042EB00844678006055B800C4
:102FC000CCFF2F008AC0BF000018A3002B003200E6
:102FD0008A20A900C5C2BF00614060000004A200B1
:102FE000512C2000914078000104A10080C07000A5
:102FF00001007800C5E2B70018C2BF000018A300A6
:103000001E003200012120009140780018C2BF004C
:103010000058A30009003A0014C0B3006055B8007E
:10302000CCFF2F000D04E00013003200FEFE07006D
:103030000000FE0014C0B3000F0037000C00E000D9
:1030400009003D004859DD00C851DE0083017100D0
:103050004851DD000180FB000100200000057100E7
:10306000818571000300370040FB2F000C004000F9
:1030700001F07F000C06E8001782A8000404E000BD
:103080004100320018C2BF000048A3003F003200D8
:103090000C00E0003C003500E10F4500E08F4D00E2
:1030A0001D003A001A22EF000800E0000300320081
:1030B000E10F540014003A000600370043FB2F00D4
:1030C0008F8141000C0178000A00BE0059FD070005
:1030D0000D0037008C02780044FB2F000F024200E5
:1030E0000081EB008081EB00310D200008007800AA
:1030F00053F90700310D20001000200039F90700B6
:103100000000E000FBFF3A00D91088000042EB000D
:103110001DC0B3001D0037000C00E0001A00340091
:103120001A22EF000800E00003003200E10F540013
:1031300014003A00070037008B00D1000A80D3004A
:1031400043FB2F008F8141000C017800A3FD070095
:103150000C0037008C02780044FB2F000F02420065
:103160000A01BE00310D20000800780034F9070084
:10317000310D2000100020001AF907000000E000C7
:10318000FBFF3A00D91088000042EB0018C2BF00D4
:103190000068A3008BFF320018C2A90089FF370026
:1031A0004000FA00889FBE008A9FBE008C9FBE0030
:1031B000000478000782A8009600A90009052000F5
:1031C00081844400591088000042EB008446780056
:1031D0006055B800CCFF2F0086C0BF000008A300D8
:1031E0002B0032008600A900C5C2BF00614060000C
:1031F0000004A200512C2000914078000104A1009D
:1032000080C0700001007800C5E2B70008C2BF00AE
:103210000018A3001E003200012020009140780019
:1032200008C2BF000058A30009003A0014C0B30050
:103230006055B800CCFF2F000D04E00013003200F1
:1032400079FE07000000FE0014C0B3000F00370035
:103250000C00E00009003D004859DD00C851DE00C7
:10326000830171004851DD000180FB000100200056
:1032700000057100818571000300370040FB2F00BD
:103280000C00400001F07F000C06E8000782A80057
:103290000404E0004100320008C2BF000048A3005F
:1032A0003F0032000C00E0003C003500E10F45001B
:1032B000E08F4D001D003A000A22EF000800E000F8
:1032C00003003200E10F540014003A0006003700FA
:1032D00043FB2F008F8141000C0178000A00BE00E3
:1032E000D4FC07000D0037008C02780044FB2F004F
:1032F0000F0242000081EB008081EB00310D2000C5
:1033000020002000CEF80700310D20002000200012
:10331000B4F807000000E000FBFF3A0059108800F5
:103320000042EB001DC0B3001D0037000C00E000A0
:103330001A0034000A22EF000800E0000300320007
:10334000E10F540014003A00070037008B00D10051
:103350000A80D30043FB2F008F8141000C017800CD
:103360001EFD07000C0037008C02780044FB2F0084
:103370000F0242000A01BE00310D20002000200093
:10338000AFF80700310D20002000200095F807005D
:103390000000E000FBFF3A00591088000042EB00FB
:1033A00008C2BF000068A3008BFF320008C2A9005A
:1033B00089FF37000800FA006881570000A9BE00A5
:1033C0007FF8970080FF9F006FF8970090FF9F00A5
:1033D0005FF89700A0FF9F0012417800B2FF9F00A6
:1033E0004FB89700DFB897000080FA000000060091
:1033F000C309DE004D0ADD004301DE000201720058
:103400006022B80067006000020032001400200053
:10341000050020000200420083804A0000000600F0
:10342000C31ADE00CD18DD004312DE0004827000F6
:10343000040040001080FB00670161000280DE0094
:1034400061006000000006000C1AE20003003A0070
:10345000C07F20006BF4070060D0880051D080004E
:103460004208DD0062D08000020040008100E800D8
:1034700051D0880000000600881F780000447800C2
:10348000F1FF07000008EB008880FB0011009800A6
:103490004F04780000000600EBFF07008080EB007F
:1034A00001087800110098000000060040D080005C
:1034B0000000E000020032007DF40700083AEF004F
:1034C000000006001400FA00889FBE008A9FBE001C
:1034D0000005780001047800EFFF070040D0880065
:1034E00042002000FA8057000A0078006DF70700BC
:1034F0003FB09700CFB09700AEFF070062C5210034
:10350000631F2600820F5000838F58000500320091
:10351000000DEB003A157800E4FF07000000EB0017
:103520005300370042002000F68057000A00780060
:103530005CF707005FB09700EFB097009DFF0700B2
:10354000D0B79F00E1B79F004200200088007800BC
:103550000A00780053F707001800BE0095FF070027
:10356000008CBE003800370049D0800012002000D7
:10357000FB8057000A0078004AF70700120020007D
:10358000FC8057000A00780046F707004FE09700DC
:103590000080FB000100200095FF07000081FB0078
:1035A000F28057000A0078003EF707008005EB0024
:1035B000210037006159B8007280570098FF07005A
:1035C0000004E0000E00320019009000E10F4000FE
:1035D00009003A000840E9000080FB00808F550098
:1035E00003003A005FE09700A3FF070001003700E7
:1035F000A9FF070090049800990490000D0037007F
:103600000080EB00990F100009003A000840E90023
:103610000080FB00808F550003003A005FE09700B8
:1036200095FF0700010037009BFF0700800C780022
:10363000990478008B05E8004FE497000880FB00B0
:10364000808F5500DBFF39005FB09700EFB0970027
:1036500061005000E0805800D0B79F00E1B79F00A4
:10366000E10F4000E08F4800BFFF3A00100020004B
:103670004F05BE004F04BE000080FA0000000600A7
:10368000889FBE008A9FBE008C1F780000067800CD
:10369000810578008204780081D0800048D08000C5
:1036A0000005EB000100E00006003A00010578008B
:1036B00022002000E1A021000C007800F9F60700AC
:1036C0001100200072D08000010061000200320071
:1036D00018049000010037001804780001804000B1
:1036E000800078001800E00006003A0028449000AE
:1036F00008F57D000A05E80048D080008904E9004B
:10370000030032000000E000E9FF3200EDFF370067
:1037100080D088004F0678004F05BE004F04BE00E1
:10372000000006001A1A0000060000000200000057
:10373000000000000000000008100000B8040000B5
:1037400000000000261A0000040000000200000033
:10375000FFFFFF00FF000000C01400000004000095
:1037600000000000EE190000100000000200000040
:103770000000000000000000000000000000000049
:103780000000000000000000C0180000BE000000A3
:1037900000000000FE1900000A0000000200000006
:1037A000FEFE00000000000000000000000000001D
:1037B0007E1900007000000000000000121A0000D6
:1037C0000800000002000000DFFFF70087FFFF0095
:1037D000FFFF0000000800000808000000000000D3
:1037E000081A00000A00000000000000201A000073
:1037F00006000000020000000002000000000000BF
:103800002A1A000002000000000000000000000072
:103810000000FE00FFFFFF00FFFFFF00FFFFFF00B3
:10382000FFFFFF00FFFFFF00FFFFFF00FFFFFF00A4
:10383000FFFFFF00FFFFFF00FFFFFF00FFFFFF0094
:10384000FFFFFF00FFFFFF00FFFFFF00FFFFFF0084
:10385000FFFFFF00FFFFFF00FFFFFF00FFFFFF0074
:10A000000400FA00889FBE008A9FBE008C1F780063
:10A010000000200001002000C000DD000000200042
:10A020000240250002024000E082480000002000BB
:10A0300001002000C000DD0000002000020025001B
:10A0400002004000E0804800800F5200818F5A00DB
:10A050000300310094BF9F00A5BF9F00020037009E
:10A0600090BF9F00A1BF9F006033B800620037001F
:10A07000512C200091407800E1C060000104A20052
:10A08000C5C2BF000004A10001407000C5E2B700D6
:10A090000200200003002000C011DD0002002000AB
:10A0A0000040250000004100E08049000604400017
:10A0B000878448008002EB004048DE000100200059
:10A0C00032E0B7006129B9000800410089804900E9
:10A0D0001002BA001085BA004038DE0001002000EE
:10A0E0008045780032E0B7000601410087814900D1
:10A0F0001200BA009280BA00800F520007003A00A6
:10A10000810F550005003A008582E800F03F2000ED
:10A11000808F520034003C00E7FF37002004240009
:10A12000003B88000B00780032E0B700060BBB0054
:10A130000700FC0050052000303B8800A00A2000EA
:10A14000303B880061E7A80000000000000000002C
:10A150008005EB000B0678000005EB00615AB900A2
:10A160000800420089804A004009DE000300200008
:10A170000001FD0032E0B7000001FD009001BA00CF
:10A180001081BA000602420087824A004028DE00A1
:10A190000100200032E0B700030ABB00028ABB00C6
:10A1A0000A05E8008B85E800F0032000800F5500C9
:10A1B000EAFF340010002400003B88000700FC0088
:10A1C00050052000303B8800A00A2000303B88006A
:10A1D00061E7A80000000000000000000C06E80095
:10A1E000E70F5600DCFF3400004020000100200093
:10A1F00006034000878348001FB89700AFB8970058
:10A20000800F5300818F5B0099FF39006033B800E5
:10A210002A0037000000200001002000C000DD00FF
:10A22000000020000240250002014000E0814800BB
:10A2300006014100878149004018DE00010020002E
:10A2400032E0B7000002EB006120B90002004000DC
:10A25000838048009002BA009080BA00E18F4200EB
:10A2600007003A00E18F400005003A000482E80050
:10A27000F03F2000800F52000C003C00F2FF37003E
:10A2800020042400003B88000209BB000700FC00FA
:10A2900050052000303B8800A00A2000303B880099
:10A2A00061E7A8000000000000000000004020005E
:10A2B0000100200006034000878348001FB8970074
:10A2C000AFB89700800F5300818F5B00D1FF39003A
:10A2D0000000FE004F0678004F05BE004F04BE0090
:10A2E0000080FA0000000600FFFFFF00FFFFFF00F4
:10A2F000FFFFFF00FFFFFF00FFFFFF00FFFFFF006A
:10A30000FFFFFF00FFFFFF00FFFFFF00FFFFFF0059
:10A31000FFFFFF00FFFFFF00FFFFFF00FFFFFF0049
:10A32000FFFFFF00FFFFFF00FFFFFF00FFFFFF0039
:020000040001F9
:0857F8009F7900007F3F0000D3
:00000001FF
