:020000040000fa
:080000000002040000000000f2
:020000040000fa
:10000800a0020000a0020000a0020000a002000060
:10001800a0020000a0020000a0020000a002000050
:10002800a0020000a0020000a00200001c2700009f
:10003800a0020000a0020000a0020000a002000030
:10004800a0020000a0020000a0020000a002000020
:10005800a0020000a0020000a0020000a002000010
:10006800a0020000a0020000a0020000a002000000
:10007800a0020000a0020000a0020000a0020000f0
:10008800a0020000a0020000a0020000a0020000e0
:10009800a0020000a0020000a0020000a0020000d0
:1000a800a0020000a0020000a0020000a0020000c0
:1000b800a0020000a0020000a0020000a0020000b0
:1000c800a0020000a0020000a0020000a0020000a0
:1000d800a0020000a0020000a0020000a002000090
:1000e800a0020000a0020000a0020000a002000080
:1000f800a0020000a0020000a0020000a002000070
:10010800a0020000a0020000a0020000a00200005f
:10011800a0020000a0020000a0020000a00200004f
:10012800a0020000a0020000a0020000a00200003f
:10013800a0020000a0020000a0020000a00200002f
:10014800a0020000a0020000a0020000a00200001f
:10015800a0020000a0020000a0020000a00200000f
:10016800a0020000a0020000a0020000a0020000ff
:10017800a0020000a002000038040000a002000055
:10018800a0020000a0020000a0020000a0020000df
:10019800a0020000a0020000a0020000a0020000cf
:1001a800a0020000a0020000a0020000a0020000bf
:1001b800a0020000a0020000a0020000a0020000af
:1001c800a0020000a0020000a0020000a00200009f
:1001d800a0020000a0020000a0020000a00200008f
:1001e800a0020000a0020000a0020000a00200007f
:0801f800a0020000a0020000bb
:020000040000fa
:10020800a0020000a0020000a0020000a00200005e
:10021800a0020000a0020000a0020000a00200004e
:10022800a0020000a0020000a00200001c2700009d
:10023800a0020000a0020000a0020000a00200002e
:10024800a0020000a0020000a0020000a00200001e
:10025800a0020000a0020000a0020000a00200000e
:10026800a0020000a0020000a0020000a0020000fe
:10027800a0020000a0020000a0020000a0020000ee
:10028800a0020000a0020000a0020000a0020000de
:10029800a0020000a0020000a0020000a0020000ce
:1002a800a0020000a0020000a0020000a0020000be
:1002b800a0020000a0020000a0020000a0020000ae
:1002c800a0020000a0020000a0020000a00200009e
:1002d800a0020000a0020000a0020000a00200008e
:1002e800a0020000a0020000a0020000a00200007e
:1002f800a0020000a0020000a0020000a00200006e
:10030800a0020000a0020000a0020000a00200005d
:10031800a0020000a0020000a0020000a00200004d
:10032800a0020000a0020000a0020000a00200003d
:10033800a0020000a0020000a0020000a00200002d
:10034800a0020000a0020000a0020000a00200001d
:10035800a0020000a0020000a0020000a00200000d
:10036800a0020000a0020000a0020000a0020000fd
:10037800a0020000a002000038040000a002000053
:10038800a0020000a0020000a0020000a0020000dd
:10039800a0020000a0020000a0020000a0020000cd
:1003a800a0020000a0020000a0020000a0020000bd
:1003b800a0020000a0020000a0020000a0020000ad
:1003c800a0020000a0020000a0020000a00200009d
:1003d800a0020000a0020000a0020000a00200008d
:1003e800a0020000a0020000a0020000a00200007d
:0803f800a0020000a0020000b9
:020000040000fa
:10040000cf2121000e7f22000e0188000000000095
:100410000c00070040d72200010020001100070057
:10042000000020000000e000020032000000020096
:10043000000000006a250200000000000040da0011
:100440000000fe004440a900c00620000000e000bb
:100450000300320000002000a00188004440a800f2
:100460000000060091018800800078000000eb0089
:1004700015003700e280400032a0b4009101ba00bc
:10048000e280400032a0b4009102ba00e280400055
:1004900032a0b4000002eb00472bde00f507b200eb
:1004a000602ce10004003a000059eb008301e900f0
:1004b000fdff3e00040037006128e100010032002a
:1004c0000082eb00040007001101ba000200e00006
:1004d000e8ff3a00000006003159ba008301e90044
:1004e0000c0032002159ba008301e90008003200f3
:1004f0000400e00003003a00e280400032a0b400b3
:10050000f5ff370011d9ba008301e900faff3a007c
:100510008100e800e180400032a0b4000000060045
:1005200000000000000000000000000000000000cb
:1005300000000000000000000000000000000000bb
:100540000040da000000fe00839f68000100e00028
:1005500002003d0060001000e08018000300e00091
:1005600002003d0060011100e08119000500070054
:100570004f00e00002003b0060001000e080180027
:10058000000006006022b800060220000000d00033
:100590008180d2000482d2008582d2000000a000b7
:1005a0000202520083825a0003003100020242001c
:1005b00083824a000000a1000603e900f3ff3a002d
:1005c00000000600800178000200370081597800a1
:1005d000040178000202e900e00f5100fbff3a003d
:0405e0000000060011
:020000040000fa
:1005e40009020000120000000101000000c0000028
:1005f40032090000040000000000000000000000b8
:100604000000000004030000090400003e03000091
:100614004d000000750000006c0000007400000034
:100624006900000020000000430000006800000092
:10063400610000006e0000006e0000006500000014
:100644006c0000002000000053000000790000004e
:100654007300000074000000650000006d000000dd
:1006640073000000200000004d0000004300000063
:100674005300000020000000470000006d0000004f
:100684006200000048000000f282000004830000c1
:1006940008830000a6090000ba09000052650000a2
:1006a4007620000041000000504900004300000093
:0806b400ffff0000ffff000042
:020000040000fa
:1006bc000200fa00f00f200070248800f00f2000d8
:1006cc005024880020002000302588000000eb001a
:1006dc0040258800f009200080248800f0092000c3
:1006ec00602488008804a800008020004800de00f8
:1006fc00c02488009424a8000000eb00b0248800db
:10070c00620020008000eb00c04a2000aaff070016
:10071c009424a9000040eb00004f7800080037003b
:10072c009e4078000180fb00c200dd0000802000ac
:10073c00008140006000b8000089be001e4fe80038
:10074c001e407800ef4f5000f5ff3600d00020001f
:10075c0050258800020037008000200050248800bb
:10076c005024800068006000e00f5000faff3a004f
:10077c000040eb006ce8b7000040eb0071e8b700fc
:10078c0072c8bf006040600072e8b70073c8bf0059
:10079c006040600073e8b70094a4a90000852000b5
:1007ac008180200001087800808420008000eb000c
:1007bc0001087800808520008000eb00010878009b
:1007cc0010c0b300004f78001d0037009e40780029
:1007dc000180fb008184200000004000008040006c
:1007ec008000eb00010878009e4078000180fb003f
:1007fc000185200000004000008040008000eb00dc
:10080c00010878009e4078000180fb008185200063
:10081c0000004000008040008000eb0001087800e0
:10082c009e4078000180fb00018620000000400003
:10083c00008040008000eb00010878001e4fe800ab
:10084c001e407800e34f5000e0ff36000040eb0004
:10085c0042e8b7000000eb00004288000080fa007c
:10086c00000006003600f800809fbe00829fbe008c
:10087c00849fbe00869fbe003400f800000020005c
:10088c00a00188000600fa0000428000e10f500031
:10089c000b003a00a12480000004200000806000be
:1008ac00e00f500006003a00f00f200050248800a2
:1008bc008c04a8008c84a800200020000042880032
:1008cc000024800070006000e00f50000700320030
:1008dc001024800070006000e00f50000300320014
:1008ec000001200000248800cc0007004024800078
:1008fc0062006000e00f5000020032008ec0a900c0
:10090c009c0037005024800061006000e00f500014
:10091c00150032006024800061006000e00f500080
:10092c001100320062ff07004000200000428800e6
:10093c00a08820001040880000c4b30000e8b70075
:10094c0001c8bf006340600001e8b70011802000bf
:10095c0091407800c0c8b30000c0700001e8b70037
:10096c00100020005024880050248000700060008b
:10097c00e00f50000700320060248000700060001f
:10098c00e00f5000030032009a0007000001200025
:10099c00502488005024800064006000e00f500058
:1009ac000a0032006024800064006000e00f5000f8
:1009bc0006003200120020008000eb0030072000ff
:1009cc00730b070040002000502488005124800045
:1009dc000008200000806000e00f5000060032008c
:1009ec00612480000008200000806000e00f5000af
:1009fc000100320067000700502480006200600094
:100a0c00e00f50000c003200602480006200600097
:100a1c00e00f500008003200120020008000eb00b4
:100a2c00f0ff27005a0b0700f00f200070248800fd
:100a3c00200020005024880000428000e30f50006a
:100a4c0002003e008ec0a9004a00370060248000de
:100a5c0068006000e00f5000450032000040eb00e1
:100a6c00004f78003d003700502480006800600083
:100a7c00e00f50003d0032009024800000407800d0
:100a8c007ae8b70080002000502488007ac8bf00a4
:100a9c008080fb00000f200000806000e00f500001
:100aac0002003a00670007002b0037007ac8bf002d
:100abc000080fb004400de00104798007ac8bf009d
:100acc000080fb00680060004380de002047980037
:100adc007ac8bf000080fb00640060004280de002a
:100aec00304798003e4090000004a200004178007e
:100afc00ae4090001e4090008a0607002007980028
:100b0c002e409000e04f500008003a001e4090002c
:100b1c000080fb00ae0090008285200000004000a9
:100b2c000000410001087800070037001e409000cb
:100b3c000080fb00ae009000028620000000400008
:100b4c0000004100010878000001eb00a1872000a3
:100b5c00200720000e0b07001e4fe8001e407800f7
:100b6c00e34f5000c0ff36000100370000000000ca
:100b7c008ec0a9000080fa003400f9004f03be00bb
:100b8c004f02be004f01be004f00be003600f90000
:100b9c00004006000000fa00502580006200600052
:100bac00e00f50000f003200204280009040900077
:100bbc0000c8b30080cf500009003a000085200027
:100bcc00100078009040900040c8b30080cf5000d7
:100bdc0003003a0021428000c0c8b3009040980046
:100bec00aa24a90000082000502488000080fa00e4
:100bfc00000006000000fa008284a800000120001a
:100c0c00502488000001eb008000eb00500720000e
:100c1c00df0a07000080fa00000006000000fa005e
:100c2c000001eb008000eb0040072000d80a070011
:100c3c008284a90000012000002488000080fa00b2
:100c4c00000006000200fa007ac8bf008080fb009a
:100c5c00b0ff2f0000806000e00f500034003a001d
:100c6c007ac8bf000080fb004200de000040780024
:100c7c000080fb00c200dd000080200000804000ee
:100c8c00204288002042800030428800618420008d
:100c9c0060842000104078000024a2008048780076
:100cac00204280009000780000c02300808060000b
:100cbc0000402300808f50001b003a00204280002f
:100ccc009000900020892000808f500014003a0082
:100cdc0020428000a1882000110098000040eb0009
:100cec00004f78000b0037001e4078008080fb001e
:100cfc00a0882000808040001e4078000081fb000e
:100d0c0020892000000041001040780080487800c5
:100d1c001e4fe8001e407800e74f5000f2ff3600ef
:100d2c000c000700090037004000070007003700df
:100d3c007ac8bf008080fb00b0ff2f0000806000ed
:100d4c00e80f500001003a00500007000080fa0044
:100d5c00000006000000fa0000852000100078005a
:100d6c00900078000000280000806000e00f500028
:100d7c000400320000852000900078000040eb0059
:100d8c00904098000040eb0068e8b7000040eb0092
:100d9c0069e8b7006dc8bf00604060006de8b7003f
:100dac006ec8bf00604060006ee8b7000040eb000a
:100dbc006ce8b70072c8bf006040600072e8b70012
:100dcc0073c8bf006040600073e8b7000040eb00e0
:100ddc0071e8b70074c8bf006040600074e8b700e9
:100dec0075c8bf006040600075e8b7008700070059
:100dfc000001eb008000eb0030002000640a0700cb
:100e0c0071c8bf000042b200e04f500005003a002c
:100e1c006cc8bf000042b200e04f500001003a0025
:100e2c000f0207000080fa00000006000000fa0024
:100e3c0069c8bf00e24f500002003a0035030700ba
:100e4c00100037004b000700e0438000e00f50001b
:100e5c000a003a003142800000c4b3008048780098
:100e6c0030428000a188200011009800314280009f
:100e7c00c0c8b30090409800020037000000eb009f
:100e8c00e04388000080fa00000006000200fa002f
:100e9c000085200010007800100078004e00de0065
:100eac0061406000004f7800018520000085200023
:100ebc00104078000024a200804878000042800096
:100ecc00e80f50000b003a008cc8bf000080fb00fc
:100edc00b0248800b0248000e00f500003003200e2
:100eec000001200000428800020037004000200072
:100efc000042880069c8bf00e14f50001a003a0058
:100f0c000085200010007800218920001100980035
:100f1c007802070068c8bf00e24f500005003a0095
:100f2c00008520009000780040c8b30090409800e5
:100f3c000e0037001e407800e04f500005003a00cc
:100f4c00008520009000780080ccb3009040980081
:100f5c0006003700008520009000780080c8b300a0
:100f6c009040980001003700020007000080fa0052
:100f7c00000006000200fa000040eb0069e8b70030
:100f8c0000852000900078000040eb009040980015
:100f9c0000852000100078000020a200000f7800cf
:100fac009e0078000040eb009040980011872000d4
:100fbc009140780000c8b30000c06000e04f5000c2
:100fcc001000320074c8bf008080fb0075c8bf00e1
:100fdc000080fb004800dd0001007000e00f5000b5
:100fec000700320074c8bf008080fb0075c8bf00ca
:100ffc000080fb004800dd000100700000000100d3
:10100c0071e8a9000080fa00000006000000fa0058
:10101c008ac8bf000046b200e04f500053003a00af
:10102c008bc8bf000080fb00cf80de00b200200028
:10103c0003002000820f5000838f58004d003e00ab
:10104c000060010024003700250037004b003700fa
:10105c00230037004900370006003700090037002d
:10106c003d0037000b003700080037001e0037002a
:10107c00310037006ce8a800800020000042880096
:10108c003f003700a70007003d003700370307007b
:10109c003b00370021842000f00f2000008160000d
:1010ac006ac8bf0060406000024070006ae8b70088
:1010bc00c808de006bc8bf006040600001407000d3
:1010cc006be8b7006c08a80010c0b3006de8b7005f
:1010dc006ce8a8002a0037000d0107002800370033
:1010ec0029000700260037008ec8bf008080fb0057
:1010fc003084200080804000f00f200000816000d0
:10110c006ac8bf0060406000024070006ae8b70027
:10111c00c808de006bc8bf00604060000140700072
:10112c006be8b7006c08a80010c0b3006de8b700fe
:10113c006ce8a800120037006ce8a8008ec8bf004d
:10114c000081fb008cc8bf0031842000810041006d
:10115c00804878000a0037000001eb008000eb00ab
:10116c00200020008a09070005003700000000005d
:10117c0003003700000000000100370000000000f1
:10118c000080fa00000006000400fa008cc8bf00c2
:10119c00e14f50000d003a008ac8bf007f4060004c
:1011ac00e04f500009003a006ce8a8008bc8bf0063
:1011bc00e34f500003003a0010002000c0438800a9
:1011cc00020037000000eb00c04388008cc8bf0051
:1011dc00e04f500051003a008ac8bf007f406000c9
:1011ec00e24f50004d003a008ec8bf006f406000c7
:1011fc00e04f5000490032006ce8a800e188200064
:10120c009140780000c8b30000c06000e04f50006f
:10121c0009003a008ec8bf006f4060000080fb00e0
:10122c008184200000004000008040001000780005
:10123c0010079800080037008ec8bf006f40600090
:10124c000080fb0001852000000040000080400071
:10125c0010007800100798008bc8bf00e34f5000b7
:10126c0004003a009e00900040c8b30090409800e3
:10127c002a0037008ec8bf006f4060000080fb0062
:10128c000000400080007800a04a2000008f400041
:10129c001e00780090007800d0ff2f008080600046
:1012ac001e00780001087800e18820009140780049
:1012bc0000c8b30000c06000e04f50000c003200ca
:1012cc009e0090000040eb00904098008e80e8005b
:1012dc000e80e800104078000024a20080487800be
:1012ec009e00900000c4b300904098000b003700a3
:1012fc009e00900080c8b300904098008e80e8005b
:10130c000e80e800104078000024a200804878008d
:10131c009e00900080ccb300904098000080fa00b2
:10132c00000006000000fa00a1882000914078001f
:10133c0000c8b30080cf500073003a0000ccb3005b
:10134c006ce8b7008dc8bf000080fb00e20f5000b6
:10135c0018003200e30f50003c003200e10f500047
:10136c0066003a0041992000f00f200000816000d7
:10137c006ac8bf0060406000024070006ae8b700b5
:10138c00c808de006bc8bf00604060000140700000
:10139c006be8b7006dc8bf00604060002041b3002f
:1013ac006de8b7006ec8bf00604060006ee8b70023
:1013bc00550037008cc8bf000080fb0000004000c7
:1013cc008000780060342800008040009000780095
:1013dc00f00f2000008160006ac8bf006040600010
:1013ec00024070006ae8b700c808de006bc8bf0096
:1013fc0060406000014070006be8b7006ac8bf0035
:10140c008080fb006bc8bf000080fb004800dd0043
:10141c00010070000080e80090007800f00f2000c0
:10142c00008160006dc8bf00604060000240700029
:10143c006de8b700c808de006ec8bf0060406000f1
:10144c00014070006ee8b7002f0037008cc8bf0059
:10145c00e34f500026003e008cc8bf000080fb000c
:10146c00000040008000780080342800008040009c
:10147c0090007800f00f2000008160006ac8bf0067
:10148c0060406000024070006ae8b700c808de00e7
:10149c006bc8bf0060406000014070006be8b70093
:1014ac006ac8bf008080fb006bc8bf000080fb00d7
:1014bc004800dd0001007000104078008080fb00c7
:1014cc00f00f2000008160006dc8bf00604060001c
:1014dc00024070006de8b700c808de006ec8bf009f
:1014ec0060406000014070006ee8b70006003700f5
:1014fc000040eb006ce8b700030037000040eb0045
:10150c006ce8b700000000000080fa000000060044
:10151c000200fa000040eb0092e8b7000040eb003c
:10152c0093e8b7008ac8bf007f4060000080fb00d2
:10153c00e10f50000f003200e20f50000f0032009c
:10154c00e00f50002f003a006ce8a80092c8bf00d2
:10155c000004a00092e8b700c0438000e10f5000e7
:10156c0025003a0092c8bf000014a00092e8b70012
:10157c00240037006ce8a800220037006ce8a800b3
:10158c00e18820009140780000c8b30000c06000e2
:10159c00e04f500008003a008ec8bf006f4060005a
:1015ac000080fb008184200000004000008040008f
:1015bc00100f7800070037008ec8bf006f40600026
:1015cc000080fb00018520000000400000804000ee
:1015dc00100f78001e007800104090000080fb0077
:1015ec0064006000e00f50000500320010c0b30032
:1015fc0092e8b7000300370000000000010037003c
:10160c0000000000c18620009140780000c8b300a3
:10161c0000c06000e04f50000f0032002189200014
:10162c00f00f2000008160006ac8bf0060406000bd
:10163c00024070006ae8b700c808de006bc8bf0043
:10164c0060406000014070006be8b7006c08a800b7
:10165c0020c0b3006de8b7000080fa00000006005f
:10166c000000fa0094a4a900c186200091407800e3
:10167c0000c8b30000c06000e04f50001d003a00ed
:10168c00118720009140780000c8b30000c06000b2
:10169c00e04f50001500320020c0b30069e8b700dd
:1016ac0090c8bf008080fb0091c8bf000080fb0089
:1016bc004800dd0001007000e00f500001003a000e
:1016cc00810007003142800000c4b30080487800dc
:1016dc0030428000218920001100980031428000a6
:1016ec0080ccb3009040980065003700660007007e
:1016fc0063003700118720009140780000c8b300c8
:10170c0000c06000e04f50005d003a00a18820004e
:10171c009140780000c8b30000c06000e04f50005a
:10172c004300320090c8bf008080fb0091c8bf000e
:10173c000080fb004800dd00010070008000780094
:10174c006dc8bf000081fb006ec8bf000080fb00ad
:10175c004800dd0002007000808f50001200310044
:10176c0090c8bf008080fb0091c8bf000080fb00c8
:10177c004800dd000100700080007800f00f2000b0
:10178c00008160006dc8bf006040600002407000c6
:10179c006de8b700c808de006ec8bf00604060008e
:1017ac00014070006ee8b7005200070010c0b30093
:1017bc0069e8b7003142800000c4b300804878006b
:1017cc0030428000a1882000110098003142800036
:1017dc0000c8b300904098000000eb00e043880084
:1017ec002142800000c4b300804878002042800071
:1017fc00a1882000110098002142800040c8b3004d
:10180c009040980010002000e043880000852000e4
:10181c00100078002189200011009800008520001c
:10182c009000780080ccb3009040980014003700f2
:10183c0020c0b30069e8b70090c8bf008080fb00ef
:10184c0091c8bf000080fb004800dd000100700063
:10185c00e00f500001003a001b00070031428000ed
:10186c0000c4b300804878003042800021892000f9
:10187c00110098003142800080ccb3009040980059
:10188c000080fa00000006000000fa0031428000df
:10189c0000c4b3008048780030428000a18820004a
:1018ac001100980031428000c0c8b30090409800ed
:1018bc00008520009000780040c8b300904098004c
:1018cc000080fa00000006000000fa0000852000ed
:1018dc00900078000040eb008048780000852000e4
:1018ec009000780080ccb300904098000080fa0003
:1018fc00000006000200fa006dc8bf008080fb00eb
:10190c006ec8bf000080fb004800dd0001007000c5
:10191c0080007800f0032000808f500013003e0000
:10192c006dc8bf008080fb006ec8bf000080fb004c
:10193c004800dd0001007000000f780068c8bf008f
:10194c00e04f500003003a0010c0b30068e8b70045
:10195c000800370068c8bf00e14f500005003a008e
:10196c0020c0b30068e8b700020037000004200074
:10197c00000f780000852000100178000085200001
:10198c0010007800904090001e40900000c0700045
:10199c001041980000852000900078001e407800cf
:1019ac00804878006dc8bf008080fb006ec8bf0007
:1019bc000080fb004800dd00010070008000780012
:1019cc001e00780080805000f00f20000081600025
:1019dc006dc8bf0060406000024070006de8b70049
:1019ec00c808de006ec8bf00604060000140700097
:1019fc006ee8b70020892000b04388006cc8bf0097
:101a0c0061406000e04f50003c003a001b00370082
:101a1c00b24380006ac8bf008080fb006bc8bf0067
:101a2c000080fb004800dd000100700080007800a1
:101a3c0011407800004978000200e800b0438800ab
:101a4c008100e800f00f2000008160006ac8bf0030
:101a5c0060406000024070006ae8b700c808de0011
:101a6c006bc8bf0060406000014070006be8b700bd
:101a7c001e0078000000e900000f78001e007800be
:101a8c00e00f5000e2ff3a0020003700b243800024
:101a9c006ac8bf008080fb006bc8bf000080fb00e1
:101aac004800dd00010070008000780011407800d3
:101abc00004978000200e800b04388008100e8008b
:101acc00f00f2000008160006ac8bf006040600019
:101adc00024070006ae8b700c808de006bc8bf009f
:101aec0060406000014070006be8b7001e00780099
:101afc000000e900000f7800010037000000000032
:101b0c001e007800e00f5000e0ff3a000080fa0061
:101b1c00000006000200fa0020428000104f7800fe
:101b2c001e4078008080fb0072c8bf000081fb0063
:101b3c0073c8bf000080fb004800dd00020070008d
:101b4c00808f50000800360072c8bf008080fb00f8
:101b5c0073c8bf000080fb004800dd00010070006e
:101b6c00004f78001500370072c8bf008080fb0062
:101b7c0073c8bf000080fb004800dd00010070004e
:101b8c00800078001e4178000280fb0080805000ad
:101b9c00f00f20000081600072c8bf006040600040
:101bac000240700072e8b700c808de0073c8bf00be
:101bbc00604060000140700073e8b7000040eb002b
:101bcc00104798001c0037006fc8bf008080fb00d6
:101bdc0070c8bf000080fb004800dd0001007000f1
:101bec00800078001e4090000081fb0020892000be
:101bfc000000410010407800804878008100e80027
:101c0c00f00f2000008160006fc8bf0060406000d2
:101c1c00024070006fe8b700c808de0070c8bf0053
:101c2c00604060000140700070e8b7001e409000fa
:101c3c000040e800104798001e4090009e4f500056
:101c4c00e1ff390072c8bf008080fb0073c8bf0081
:101c5c000080fb004800dd0001007000e00f500028
:101c6c00140032003142800000c4b3008048780078
:101c7c003042800021892000110098002042800011
:101c8c00900078000000240000806000e00f5000fd
:101c9c0004003a003142800080ccb30090409800a0
:101cac00230037003142800080c8b3009040980078
:101cbc001f0037003142800000c4b3008048780018
:101ccc0030428000a1882000110098003142800031
:101cdc0040c8b3009040980071e8a90071a8a90011
:101cec0074c8bf008080fb0075c8bf000080fb007b
:101cfc004800dd0001007000e00f500007003200ca
:101d0c0074c8bf008080fb0075c8bf000080fb005a
:101d1c004800dd00010070000000010071c8bf0028
:101d2c000042b200e04f500001003a0002000700f0
:101d3c000080fa00000006000000fa001187200065
:101d4c009140780000c8b30000c06000e04f500024
:101d5c0002003a00ccfe070002003700dafe070052
:101d6c0071e8a9000080fa00000006000000fa00eb
:101d7c006ce8a800620020008000eb00c04a200044
:101d8c000dfa0700120020008000eb0030842000c8
:101d9c0009fa07008cc8bf0042e8b70042c8bf0070
:101dac00e04f500003003a00000120000042880080
:101dbc0006003700000220000042880012002000bc
:101dcc002184200010002000710607000080fa001a
:101ddc00000006000400fa002047980031479800e4
:101dec0000802000000f78009e0078002e409000ac
:101dfc000080fb0000004000000178003e40900095
:101e0c000080fb00000041004300dd004200de00ca
:101e1c004200dd0000804000000f78003e40900042
:101e2c00e04f50002c003a002e4090000080fb0048
:101e3c0081842000000040000080400010007800e9
:101e4c00e00f50001c0032002e4090000080fb0080
:101e5c0081852000000040000080400010007800c8
:101e6c00e00f50000c0032002e4090008080fb00f0
:101e7c002e4090000080fb00828520000000400076
:101e8c000000410010017800838420000180400094
:101e9c0000804100020878002e4090000080fb007a
:101eac008184200000004000008040001000780079
:101ebc00000f7800330037002e4090000080fb00ac
:101ecc009e00780082842000000040000000410049
:101edc00010878002b0037002e4090000080fb009a
:101eec0001852000000040000080400010007800b8
:101efc00e00f50001c0032002e4090000080fb00d0
:101f0c000186200000004000008040001000780096
:101f1c00e00f50000c0032002e4090008080fb003f
:101f2c002e4090000080fb00028620000000400044
:101f3c000000410010017800038520000180400062
:101f4c0000804100020878002e4090000080fb00c9
:101f5c000185200000004000008040001000780047
:101f6c00000f7800070037002e4090000080fb0027
:101f7c009e00780002852000000040000000410017
:101f8c00010878001e00780010017800f1ff27008e
:101f9c0081006100010878001e00780010017800b3
:101fac00f1ff2b0081006100010878008e007800a1
:101fbc000e007800104078000024a20080487800c1
:101fcc001e00780010017800f1ff270081006100ed
:101fdc00010878001e007800100178000100240030
:101fec0081007100010878000080fa0000000600f2
:101ffc000400fa002047980031479800a14a2000bd
:10200c002e4090000080fb0000004000008f40003c
:10201c001e007800be409000014878003e409000c1
:10202c000080fb0068006000e00f500003003200ed
:10203c008040eb002e40900066ff07003e40900071
:10204c000080fb0064006000e00f500003003200d1
:10205c0011c0b3002e4090005eff07000080fa0014
:10206c00000006000400fa00204798003147980051
:10207c002e409000e04f50000e003a00314280009c
:10208c0000c4b3008048780030428000a188200052
:10209c001100980031428000c0c8b30090409800f5
:1020ac00008520009000780040c8b3009040980054
:1020bc00220037002e4090000080fb000000400002
:1020cc00800078003e4090000080fb0000804000c3
:1020dc004300dd008000780000802000008f40006d
:1020ec001e0078009040900040c8b30000c0700003
:1020fc009e007800904098002e4090000080fb00dd
:10210c0000004000800078003e4090000080fb0002
:10211c00008040004300dd00e4004000008020000f
:10212c00008f40001e0078009040900040c8b30023
:10213c0000c070009e007800904098000080fa006b
:10214c00000006000400fa00204798003147980070
:10215c003e409000e04f5000070032002e409000af
:10216c000080fb0001852000000040000080400042
:10217c00100f7800060037002e4090000080fb0006
:10218c00818420000000400000804000100f780087
:10219c001e0078001040900000c0ea000080fb0098
:1021ac004700de00004078000080fa0000000600c6
:1021bc000800fa0020479800314798002207980041
:1021cc00330798003e409000e04f5000070032006b
:1021dc002e4090000080fb00018520000000400094
:1021ec0000804000100f7800060037002e40900051
:1021fc000080fb0081842000000040000080400033
:10220c00100f78001e007800ae00900011009800ae
:10221c001e007800104090000044b2009e00780030
:10222c0090409800be009000f03f200000816000bc
:10223c001e007800f13f20008100610090017800c1
:10224c0002c02f000281610081007100010878003a
:10225c001e0078009040900080c8b30000c0700051
:10226c009e007800904098003e409000e04f500057
:10227c000e003200018520002e4090000080fb00f3
:10228c000000400080804000028520002e4090001d
:10229c000080fb000000400000004100104078006e
:1022ac000024a200804878000d00370081842000b3
:1022bc002e4090000080fb00000040008080400019
:1022cc00828420002e4090000080fb000000400023
:1022dc0000004100104078000024a20080487800e3
:1022ec001e0078000080fa00000006000200fa00d0
:1022fc00004f7800a12480000002200000806000c4
:10230c00e00f50005b0032009e4078000180fb0023
:10231c000185200000004000008040001002780081
:10232c001e4178000280fb00018520000000400067
:10233c0000804000100078001001be000004200056
:10234c0001002000820278000301780080017800ef
:10235c00010078008382620000006100010020000f
:10236c00c000dd00000020000001be006128b800a4
:10237c000001710081817100028abe009e417800cb
:10238c000380fb000185200000004000008040001d
:10239c00100278009e4078000180fb00018520002f
:1023ac000000400000804000100078001001be00ca
:1023bc0000042000010020000000690081806900f9
:1023cc00008abe00018520001e4178000280fb00bf
:1023dc000000400080804000028520009e41780073
:1023ec000380fb000000400000004100104078001a
:1023fc000024a200804878009e4078000180fb00f9
:10240c000185200000004000008040009000780012
:10241c001e4178000280fb00028520000000400075
:10242c000000410010007800104090000044b20001
:10243c00904098009e4178000380fb0001852000ad
:10244c000000400000804000100178009e407800a1
:10245c000180fb000185200000004000008040004e
:10246c00100078009040900000c4b30000c06800d9
:10247c00104198000080fa00000006000000fa00ed
:10248c000000eb00a02488000000eb006024880012
:10249c000000eb00004288000080fa0000000600fb
:1024ac000000fa0000428000e00f50001b003a00d0
:1024bc000000eb00a02488000000eb0060248800e2
:1024cc0020002000302588000000eb00402588000b
:1024dc00f009200080248800f00920006024880086
:1024ec0071068000f08f2f0080806000002020009b
:1024fc0000807000700688009ec0a80001003700a4
:10250c009404a800a024800061006000e00f50003b
:10251c00fbff320010002000004288000080fa000f
:10252c00000006000600fa0020479800314798008a
:10253c004247980000802000000f78002e40900049
:10254c000080fb0000004000800078003e409000be
:10255c000080fb00008040000000400080007800fc
:10256c004e4090000080fb00008040004200dd00e7
:10257c001e0f40001e0078000080fa0000000600cc
:10258c000200fa00004f78001e40780054e9b700b2
:10259c0041952000f00f2000008160006ac8bf0048
:1025ac0060406000024070006ae8b700c808de00b6
:1025bc006bc8bf0060406000014070006be8b70062
:1025cc006c08a8006dc8bf00604060000004a0004b
:1025dc006de8b7006ec8bf00604060006ee8b700e1
:1025ec006ce8a8000080fa00000006000200fa0067
:1025fc00000f7800409520001e08780041952000bf
:10260c00f00f2000008160006ac8bf0060406000cd
:10261c00024070006ae8b700c808de006bc8bf0053
:10262c0060406000014070006be8b7006c08a800c7
:10263c006dc8bf00604060000014a0006de8b700da
:10264c006ec8bf00604060006ee8b7006ce8a80080
:10265c000080fa00000006000400fa00008fbe00a3
:10266c00409520001e01be000288be00419520004e
:10267c00f00f2000008160006ac8bf00604060005d
:10268c00024070006ae8b700c808de006bc8bf00e3
:10269c0060406000014070006be8b7006c08a80057
:1026ac006dc8bf00604060000024a0006de8b7005a
:1026bc006ec8bf00604060006ee8b7006ce8a80010
:1026cc000080fa00000006000400fa0010079800d1
:1026dc000000eb00000f7800090037004095200047
:1026ec009e0040001e00900010407800804878004a
:1026fc001e0fe8001e0090000000e8001007980074
:10270c001e00900010407800e04f50000400320092
:10271c00e00320009e007800808f5000efff360011
:10272c00409520009e0040000040eb00804878005f
:10273c001e0fe80041952000f00f20000081600082
:10274c006ac8bf0060406000024070006ae8b700d1
:10275c00c808de006bc8bf0060406000014070001c
:10276c006be8b7006c08a800f00f20009e0060001a
:10277c006dc8bf0060406000014070006de8b7009c
:10278c001e007800c800de006ec8bf00604060000c
:10279c00014070006ee8b7006ce8a8000080fa00f9
:1027ac00000006000800fa00200798003107980086
:1027bc002e00900010079800be009000000420002e
:1027cc00808f500002003600000420003007980073
:1027dc000000eb00000f7800090037004095200046
:1027ec009e0040001e009000104078008048780049
:1027fc001e0090000000e800100798001e0fe80073
:10280c003e0090009e007800808f5000f3ff39004e
:10281c0041952000f00f2000008160006ac8bf00c5
:10282c0060406000024070006ae8b700c808de0033
:10283c006bc8bf0060406000014070006be8b700df
:10284c006c08a800be009000f00f20008080600093
:10285c006dc8bf0060406000014070006de8b700bb
:10286c003e009000c800de006ec8bf0060406000f3
:10287c00014070006ee8b7006ce8a8000080fa0018
:10288c00000006001e00fa00000020006101b800e4
:10289c00f00f2000010020000202780003017800f4
:1028ac0080017800010078000302620000006100e2
:1028bc0001002000c000dd00000020000001be006f
:1028cc006120b8000001710081817100c011dd0030
:1028dc000200200000802a000100200002004000bd
:1028ec008380480030079800410798006a00470031
:1028fc0080017800a20020003e009000ce009000e5
:10290c00d703070010002000100798000000eb0010
:10291c00000f78000a0037001e007800000040000d
:10292c00000040000000470050009000e10f400004
:10293c00020032000000eb00100798001e0fe800a8
:10294c001e007800e40f5000f3ff34001e009000ce
:10295c00e00f50000e0032000000eb00000f78007a
:10296c00080037001e007800000040000000400006
:10297c00000047006a004000810720000108780031
:10298c001e0fe8001e007800e40f5000f5ff340025
:10299c00a09b2000200798002e0090000080e800eb
:1029ac00200798000000eb00000f78000b003700a8
:1029bc001e007800000040000000400000004700ae
:1029cc00d00090002e009000010878002e0090009e
:1029dc000080e800200798001e0fe8001e00780019
:1029ec00e40f5000f2ff34000080fa0000000600f3
:1029fc001c00fa00000020006101b800f00f20005c
:102a0c0001002000020278000301780080017800a8
:102a1c000100780003026200000061000100200048
:102a2c00c000dd00000020000001be006120b800e5
:102a3c000001710081817100c011dd0002002000d5
:102a4c0000802a0001002000020040008380480022
:102a5c002007980031079800a09b200010079800d1
:102a6c001e0090000080e800100798000000eb00aa
:102a7c00000f7800140037001e00780000004000a2
:102a8c009e0090009100780000004000000047007c
:102a9c0068004000010878001e0090000080e800eb
:102aac00100798001e007800000040000000e800ad
:102abc000000400000004700680040008080eb00f0
:102acc00010878001e0fe8001e007800e40f50008b
:102adc00e9ff3400680047008001780042012000c3
:102aec002e009000be009000ec0307006800470029
:102afc00800178000001eb000080eb008080eb008f
:102b0c00190407000080fa00000006000a00fa0011
:102b1c0030079800410798003e009000100798007d
:102b2c00a09b2000200798002e0090000080e80059
:102b3c00200798000000eb00000f78001800370009
:102b4c004e009000e00f50000b0034001e0090006f
:102b5c00900078002e009000010878002e00900064
:102b6c000080e800200798001e0090000080e8001c
:102b7c0010079800060037002e0090008000eb0034
:102b8c00010878002e0090000080e80020079800d3
:102b9c004e0090000080e900400798001e0fe800ee
:102bac001e007800e40f5000e5ff340090ff070092
:102bbc000080fa00000006001c00fa00400f98008c
:102bcc00510f9800000020006101b800f00f2000a8
:102bdc0001002000020278000301780080017800d7
:102bec000100780003026200000061000100200077
:102bfc00c000dd00000020000001be006120b80014
:102c0c000001710081817100c011dd000200200003
:102c1c0000802a0001002000020040008380480050
:102c2c0020079800310798005e0890001007980064
:102c3c004e0890000080e8004300dd00cf80de00ed
:102c4c002e019000be0190000200400083804800dd
:102c5c002007980031079800680047008001780031
:102c6c00820020002e009000be009000fc020700a5
:102c7c000000eb00000f78000b0037001e007800fe
:102c8c00000040000000400000004700c000900021
:102c9c001e009000010878001e0090000080e800e3
:102cac00100798001e0fe8001e007800e30f50007c
:102cbc00f2ff34000080fa00000006001c00fa004d
:102ccc00400f9800510f9800000020006101b800df
:102cdc00f00f2000010020000202780003017800b0
:102cec00800178000100780003026200000061009e
:102cfc0001002000c000dd00000020000001be002b
:102d0c006120b8000001710081817100c011dd00eb
:102d1c000200200000802a00010020000200400078
:102d2c008380480020079800310798005e089000c7
:102d3c00100798000000eb00000f7800140037001b
:102d4c001e007800000040009e009000910078006a
:102d5c0000004000000047006800400001087800b7
:102d6c001e0090000080e800100798001e007800fc
:102d7c00000040000000e800000040000000470098
:102d8c00680040008080eb00010878001e0fe8000e
:102d9c001e007800e30f5000e9ff34004e0890004d
:102dac000080e8004300dd00cf80de002e019000a3
:102dbc00be0190000200400083804800200798006c
:102dcc00310798006800470080017800020120005c
:102ddc002e009000be0090003003070068004700f2
:102dec00800178000001eb000080eb008080eb009c
:102dfc005d0307000080fa00000006000000fa00e6
:102e0c0090c8bf008080fb0091c8bf000080fb0011
:102e1c004800dd00010070000000d1008000780047
:102e2c004095200039ff070071e8a8000080fa00e7
:102e3c00000006000800fa008cc8bf008080fb0070
:102e4c008dc8bf000080fb004800dd000100700051
:102e5c0001002000008fbe001e00be00c000dd007f
:102e6c0000002000008fbe0040952000100078006c
:102e7c00010020001e0f40005e97480090c8bf0064
:102e8c008080fb0091c8bf000080fb004800dd0083
:102e9c00010070000080e900200798001e01be00b0
:102eac000080eb008080eb00800f5100818f590077
:102ebc000d003a0011028000000e2000008070000e
:102ecc0010028800a0248000639520002e01900041
:102edc000080eb008080eb0023030700bd0507009a
:102eec000000fe001a003700100280004500de00d2
:102efc00674060000080fb003007980011028000e2
:102f0c00000e200000807000100288001e00be0021
:102f1c008100d1000080d300639520002e01900029
:102f2c00910207003e00900000407800674060006e
:102f3c000080fb00670060004500dd00120280008d
:102f4c00f1f12f00810061000080700010028800f8
:102f5c0071e8a8000080fa00000006000000fa00ea
:102f6c008ec8bf008080fb008fc8bf000080fb00b4
:102f7c004800dd0001007000419520004fff070064
:102f8c0071e8a8000080fa00000006000000fa00ba
:102f9c000080fa00000006000000fa000080fa0031
:102fac00000006000000fa00904680000000e800d7
:102fbc00904688000080fa00000006000000fa002d
:102fcc000080fa00000006000800fa000080eb0008
:102fdc008080eb0010079800210798008ac8bf007a
:102fec0002c6b3008240600000c4b30080cf500022
:102ffc00c6013a008bc8bf000080fb006101b9001c
:10300c00f0fb2f00f1ff2f000200400083804800ee
:10301c002202200003002000820f5000838f5800f2
:10302c00b9013e00006001005d003700b6013700b9
:10303c0000013700b4013700b3013700b20137008b
:10304c0047013700b0013700af013700ae01370040
:10305c00ad013700ac013700ab013700060137007a
:10306c00a9013700ab003700e3003700a601370099
:10307c00e1003700a40137000d013700a201370031
:10308c00a1013700a00137009f0137009e013700d6
:10309c009d0137009c0137009b0137009a013700d6
:1030ac00990137009801370097013700010037006c
:1030bc000f0037008ec8bf008080fb008fc8bf0098
:1030cc000080fb004800dd000100700080007800eb
:1030dc0020082000808f500003003a006ce8a80004
:1030ec0000000000890137005608070087013700ef
:1030fc008ec8bf008080fb008fc8bf000080fb0023
:10310c004800dd00010070008000780020082000dd
:10311c00808f500020003a00000020006101b800b0
:10312c00f00f20000100200002027800030178005b
:10313c008001780001007800030262000000610049
:10314c0001002000c000dd00000020000001be00d6
:10315c006120b8000001710081817100c011dd0097
:10316c0002002000000025000100200002004000a9
:10317c0083804800000040008180480010079800c0
:10318c00210798001e009000ae00900032fd070051
:10319c00000000005d0137002a0807005b013700c2
:1031ac008cc8bf008080fb008dc8bf000080fb0076
:1031bc004800dd00010070000100200032002000fa
:1031cc0003002000820f5000838f58004f003e00f8
:1031dc0000600100030037000600370018003700bc
:1031ec002a00370090508000cf80de001afd0700c7
:1031fc00470037008ec8bf008080fb008fc8bf001f
:10320c000080fb004800dd000100700030079800d2
:10321c0090508000800078003e009000808f50001d
:10322c00060036003e009000c200dd00c0a0200069
:10323c00008040001000be0007fd0700340037007e
:10324c008ec8bf008080fb008fc8bf000080fb00d1
:10325c004800dd000100700030079800905080009d
:10326c00800078003e009000808f500006003600f1
:10327c003e0090008000400000a120000080400033
:10328c001000780010fd0700210037008ec8bf0029
:10329c008080fb008fc8bf000080fb004800dd0071
:1032ac0001007000300798000000eb00000f780060
:1032bc00120037003e0090006101b8001e0078003b
:1032cc00c200dd00c0a02000008040001000be0045
:1032dc00800f5100818f590007003a001e007800c2
:1032ec008000400000a12000008040001000780009
:1032fc00f5fc0700040037001e0fe800905080001a
:10330c009e0f5000ebff3e00010037000000000054
:10331c00fe0037008ec8bf008080fb008fc8bf0046
:10332c000080fb004800dd00010070008000780088
:10333c0020082000808f50002d003a00419520007d
:10334c00f00f2000008160006fc8bf00604060007b
:10335c00024070006fe8b700c808de0070c8bf00fc
:10336c00604060000140700070e8b70090c8bf007a
:10337c008080fb0091c8bf000080fb004800dd008e
:10338c000100700080007800f00f200000816000c8
:10339c0072c8bf00604060000240700072e8b70065
:1033ac00c808de0073c8bf006040600001407000b8
:1033bc0073e8b70071e8a80001722100f00f20003b
:1033cc000081600074c8bf00604060000240700063
:1033dc0074e8b700c808de0075c8bf006040600024
:1033ec000140700075e8b70000000000c70037000e
:1033fc0094070700c50037008ec8bf008080fb0013
:10340c008fc8bf000080fb004800dd000100700089
:10341c008000780020082000808f500003003a00c4
:10342c000000fe0000000000b80037008507070010
:10343c00b60037008ec8bf008080fb008fc8bf006d
:10344c000080fb004800dd00010070008000780067
:10345c0020082000808f500005003a0070002000ea
:10346c00010020007cfc070000000000a7003700d2
:10347c0074070700a50037008cc8bf008080fb00d4
:10348c008dc8bf000080fb004800dd00010070000b
:10349c00f40f500004003a006000b8006efc070006
:1034ac0000000000990037006607070097003700fe
:1034bc0041952000f00f2000008160006fc8bf0014
:1034cc0060406000024070006fe8b700c808de0082
:1034dc0070c8bf00604060000140700070e8b70029
:1034ec0090c8bf008080fb0091c8bf000080fb002b
:1034fc004800dd000100700080007800f00f200013
:10350c000081600072c8bf00604060000240700023
:10351c0072e8b700c808de0073c8bf0060406000e6
:10352c000140700073e8b70071e8a80041702100f9
:10353c00f00f20000081600074c8bf006040600084
:10354c000240700074e8b700c808de0075c8bf0000
:10355c00604060000140700075e8b7006b003700f8
:10356c008cc8bf008080fb008dc8bf000080fb00b2
:10357c004800dd0001007000e10f50000300320034
:10358c00e20f500029003200600037008ec8bf00e7
:10359c008080fb008fc8bf000080fb004800dd006e
:1035ac000100700080007800d0072000808f500050
:1035bc001d003e008ec8bf008080fb008fc8bf007e
:1035cc000080fb004800dd000100700041952000e8
:1035dc0079fd070041952000f00f2000008160006c
:1035ec006ac8bf0060406000024070006ae8b70023
:1035fc00c808de006bc8bf0060406000014070006e
:10360c006be8b7006c08a8006dc8bf006040600094
:10361c000034a0006de8b7006ec8bf0060406000c9
:10362c006ee8b7006ce8a800360037008ec8bf0003
:10363c008080fb008fc8bf000080fb004800dd00cd
:10364c000100700080007800d0072000808f5000af
:10365c002b003e0041952000f00f200000816000ff
:10366c006fc8bf0060406000024070006fe8b70098
:10367c00c808de0070c8bf006040600001407000e8
:10368c0070e8b70090c8bf008080fb0091c8bf00f5
:10369c000080fb004800dd00010070008000780015
:1036ac00f00f20000081600072c8bf006040600015
:1036bc000240700072e8b700c808de0073c8bf0093
:1036cc00604060000140700073e8b70071e8a8002a
:1036dc00417b2100f00f20000081600074c8bf0006
:1036ec00604060000240700074e8b700c808de005b
:1036fc0075c8bf00604060000140700075e8b700fd
:10370c000000000001003700ce0607000080fa0020
:10371c00000006000000fa000080fa00000006001d
:10372c000800fa00604798006e4090000080fb0093
:10373c004400de00004f78006e4090000080fb00db
:10374c00680060004380de00104798006e409000d7
:10375c000080fb00640060004280de00204798007f
:10376c002e4190009e4090001e4078006dfb07009b
:10377c0020079800ae0190002e4190009e409000d2
:10378c001e4078006f0707000080fa00000006005a
:10379c000600fa00000f7800110798002207980025
:1037ac001e00780021072000810f500025003200f8
:1037bc0021072000810f500007003e00e20f50004f
:1037cc0014003200e30f500014003200e10f5000df
:1037dc000e0032001f00370041072000810f5000ff
:1037ec001400320041072000810f50000d003900f9
:1037fc0051072000810f50000c003200f1ff270010
:10380c00810f50000d00320012003700f60807003f
:10381c0010003700bfff07000e003700eafd07005d
:10382c000c003700dffd07000a003700d7fd07004a
:10383c0008003700d8fd070006003700dffd070041
:10384c00040037001e00900010407800b4ff070001
:10385c0000000000100020000080fa0000000600ac
:10386c001000fa00889fbe0040079800510798008e
:10387c0062079800730798004e009000de009000dd
:10388c00008fbe002c0037001e00be004008de007a
:10389c000100200000007800900188001e00be008e
:1038ac009004ba001084ba002907980038079800d1
:1038bc002e00900000407800fe00900080487800b8
:1038cc007e0090000000e800700798002e00900029
:1038dc004800de0000407800fe0090008048780030
:1038ec007e0090000000e800700798003e009000f9
:1038fc0000407800fe009000804878007e00900028
:10390c000000e800700798003e0090004800de00c0
:10391c0000407800fe009000804878007e00900007
:10392c000000e80070079800200020000100200033
:10393c001e0f40005e9748006e0090006101b800b9
:10394c004e009000de009000020040008380480092
:10395c00be0f5000ae8f5800cbff3e004f04be0090
:10396c000080fa00000006000c00fa002007980006
:10397c003107980042079800530798000000200078
:10398c006101b800f00f2000010020000202780055
:10399c0003017800800178000100780003026200c6
:1039ac000000610001002000c000dd0000002000cc
:1039bc000001be006120b80000017100818171001e
:1039cc00c011dd00020020000000250001002000d5
:1039dc00001f4100019749002e009000be0090008e
:1039ec00be0f5000ae8f5800070031002e00900023
:1039fc00be0090003e014000ae8148000200be00b7
:103a0c002007980031079800000020006101b800e1
:103a1c00f00f200001002000020278000301780062
:103a2c008001780001007800030262000000610050
:103a3c0001002000c000dd00000020000001be00dd
:103a4c006120b8000001710081817100c011dd009e
:103a5c0002002000e0bf2a0001002000020040000c
:103a6c008380480062014000e08148002e009000f5
:103a7c00be009000800f5100818f59000500360068
:103a8c00de0190004e0190002e009000be009000d0
:103a9c00020007000080fa00000006000c00fa008b
:103aac0020079800310798004207980053079800a8
:103abc000000eb00100798002500370000402000a4
:103acc00000f7800ae009000f03f200000806000f6
:103adc001e0f10001e00780000004000000f780040
:103aec00ce0090001e009000008050009e0f5000f1
:103afc0003003100ce0090001e009000008f50009b
:103b0c00de0090001e0090000080400080017800d4
:103b1c001e0178002e009000be00900012000700dd
:103b2c001e0078000000d100010020002e01900042
:103b3c00be019000020040008380480020079800de
:103b4c00310798001e0090001e00400010079800de
:103b5c009e0090004e009000808f5000d7ff3900df
:103b6c000080fa00000006001000fa0040079800e0
:103b7c005107980062079800730798004e01900057
:103b8c00de01900000c02f00f1ff2f000202780030
:103b9c0003017800800178000100780003026200c4
:103bac000000610001002000c000dd0000002000ca
:103bbc000001be006120b80000017100818171001c
:103bcc002207980033079800a2508000b350800061
:103bdc002e009000be009000800f5100818f590084
:103bec003c003200a0508000b1508000e00f50002b
:103bfc00e08f580008003500c05080000000e8003d
:103c0c00c0508800a0508000b1508000c3e120005b
:103c1c00c2a120006c0007002e009000be00900096
:103c2c00e00f5000e08f580026003500d050800087
:103c3c000000e800d05088002e009000be009000dc
:103c4c004088de00cf80de00000078009001880004
:103c5c000000eb0010079800160037001e009000c3
:103c6c00000040006101b8002e009000be009000e2
:103c7c0002004000838048001001ba009080ba0016
:103c8c001e00900080014000c0a120000080410077
:103c9c00020878001e00900000014000c0e12000e6
:103cac0000004100010878001e0090000000e800b0
:103cbc00100798009e009000f01f2000808f50008d
:103ccc00e6ff36002e009000be009000a050880049
:103cdc00b1508800ce009000f03f200000806000c2
:103cec00100798001e0090000000d10010079800eb
:103cfc000000eb00000f78002d0037009e009000b4
:103d0c00f01f200000806000100798001e00e800e3
:103d1c00fe00900000804000104078000080fb0006
:103d2c00c800dd007e0090001e00400010407800ae
:103d3c000080fb0000804000800078001e00900096
:103d4c0000014000c0a120000000410001087800e3
:103d5c009e00780063804000fe00900000804000d0
:103d6c00104078000080fb00c800dd001e80e800d9
:103d7c007e01900000004100104078000080fb00a4
:103d8c0000804000800078001e0090000001400080
:103d9c00c0e1200000004100010878001e007800fe
:103dac00640f40001e0090000000e800100798000f
:103dbc006e0090009e007800808f5000cfff39007d
:103dcc000080fa00000006001800fa00889fbe0070
:103ddc00000f9800110f9800220f9800330f9800d5
:103dec000e0890009e0890004008de0001002000a4
:103dfc00500798005e009000900188000000eb00d6
:103e0c00300798000000eb001007980019003700ed
:103e1c001e00900000004000800078000e0890000a
:103e2c0000804000200798002e0090009004ba00fb
:103e3c001084ba0069079800780798006e0090000b
:103e4c00e10f400006003a00fe009000f00f200049
:103e5c0080806000f00f2000808f50000200320044
:103e6c0010002000300798001e0090000000e800b1
:103e7c00100798009e009000f01f2000808f5000cb
:103e8c00e3ff36003e009000e00f50000f003200c0
:103e9c0020042400003b88005e0090009001880004
:103eac000e0990009e0990000209bb000700fc005f
:103ebc0050052000303b8800a00a2000303b8800d1
:103ecc0061e7a80000000000000000000e08900050
:103edc00200798000000eb00100798000000eb0092
:103eec0040079800290037005e0090009001880080
:103efc000000eb00000f7800130037001e0090004c
:103f0c0000004000ae089000008040009000780057
:103f1c001e009000000040003e099000000041008f
:103f2c00100078002e01900002047800010cbb00f8
:103f3c00009cbb00280798001e0fe8001e00900094
:103f4c000000e80010079800f00320009e007800a5
:103f5c00808f5000e9ff360010002400003b8800e1
:103f6c000700fc0050052000303b8800a00a200010
:103f7c00303b880061e7a800000000000000000052
:103f8c004e0090000000e800400798004e009000a2
:103f9c00e70f5000d4ff36004f04be000080fa003b
:103fac00000006000800fa00889fbe0000002000f8
:103fbc006101b800f00f200001002000020278001f
:103fcc000301780080017800010078000302620090
:103fdc000000610001002000c000dd000000200096
:103fec000001be006120b8000001710081817100e8
:103ffc00c011dd000200200000002500010020009f
:10400c00001f4100019749001e00be004008de0061
:10401c000100200000007800900188001e00be0006
:10402c009004ba001084ba00290798003807980049
:10403c002e009000e10f400006003a00be009000f8
:10404c00f00f200080806000f00f2000808f500067
:10405c0015003200ae00900000202000808f500030
:10406c000b003a00be009000f00f200000806000b2
:10407c00e40f500006003a00570007000004be0091
:10408c000d000700800f5400818f5c00030032008c
:10409c00cf0007006000b8000400370010002000bb
:1040ac0001002000010037006000b8004f04be0082
:1040bc000080fa00000006000c00fa00889fbe0089
:1040cc00000020006101b800f00f2000010020006a
:1040dc00020278000301780080017800010078006a
:1040ec00030262000000610001002000c000dd003e
:1040fc00000020000001be006120b800000171002a
:10410c0081817100c011dd0002002000000025003b
:10411c0001002000020040008380480000004000a5
:10412c0081804800e2ff2f00f3ff2f00021f4000a8
:10413c00039748001e00be004008de00010020006e
:10414c0000007800900188001e00be009004ba00a8
:10415c001084ba0029079800380798003e00900098
:10416c0001002000c001dd00020020002e009000a4
:10417c0001002000020040008380480040079800a6
:10418c00510798004e019000de019000f0ff2f00c7
:10419c00f10f200002027800030178008001780002
:1041ac0001007800030262000000610001002000a1
:1041bc00c000dd00000020000001be006120b8003e
:1041cc0000017100818171000200be004f04be002d
:1041dc000080fa00000006001000fa00889fbe0064
:1041ec00000020006101b800f00f20000100200049
:1041fc000202780003017800800178000100780049
:10420c00030262000000610001002000c000dd001c
:10421c00000020000001be006120b8000001710008
:10422c0081817100c011dd0002002000000025001a
:10423c0001002000020040008380480040079800e5
:10424c00510798006000b800008fbe004e0090002f
:10425c00de00900020079800310798003d003700e1
:10426c002e009000be0090004008de0001002000ef
:10427c0000007800900188002e009000be00900095
:10428c009004ba001084ba00690798007807980067
:10429c006e0090006101b800f00f200001002000ba
:1042ac000202780003017800800178000100780098
:1042bc00030262000000610001002000c000dd006c
:1042cc00000020000001be006120b8000001710058
:1042dc00818171001e0f41005e9749006e009000b5
:1042ec004800de00010020001e0f40005e974800d1
:1042fc007e0090006101b800f00f2000010020004a
:10430c000202780003017800800178000100780037
:10431c00030262000000610001002000c000dd000b
:10432c00000020000001be006120b80000017100f7
:10433c00818171001e0f41005e9749002e00900094
:10434c00be00900062004000e0804800200798000a
:10435c00310798004e009000de00900000004000f5
:10436c008180480062015000e08158002e009000ce
:10437c00be009000800f5100818f5900b8ff3e00a5
:10438c00f0ff2f00f10f20001e01be00020278008a
:10439c0003017800800178000100780003026200bc
:1043ac000000610001002000c000dd0000002000c2
:1043bc000001be006120b800000171008181710014
:1043cc000200be004f04be000080fa000000060090
:1043dc001400fa00889fbe00000020006101b800a4
:1043ec00f00f200001002000020278000301780089
:1043fc008001780001007800030262000000610077
:10440c0001002000c000dd00000020000001be0003
:10441c006120b8000001710081817100c011dd00c4
:10442c0002002000000025000100200002004000d6
:10443c008380480040079800510798006000b8003e
:10444c00008fbe005a0037000000eb0030079800c8
:10445c00000020006101b800f00f200001002000d6
:10446c0002027800030178008001780001007800d6
:10447c00030262000000610001002000c000dd00aa
:10448c00000020000001be006120b8000001710096
:10449c0081817100c011dd000200200000002500a8
:1044ac000100200002004000838048003e014000d3
:1044bc00ae8148000200be006007980071079800aa
:1044cc006e009000fe0090004088de00cf80de0081
:1044dc0000007800900188000000eb002007980095
:1044ec00190037002e0090006101b9006e00900099
:1044fc00fe00900002004000838048009004ba0047
:10450c001084ba00090f9800180f98000e0890003c
:10451c00e10f400006003a009e089000f00f2000ca
:10452c0080806000f00f2000808f5000030032006c
:10453c001000200030079800070037002e00900074
:10454c000080e80020079800ae009000f03f2000ab
:10455c00808f5000e3ff34003e009000e00f5000cd
:10456c000e00320020042400003b88006e019000f5
:10457c00fe0190000209bb000700fc005005200062
:10458c00303b8800a00a2000303b880061e7a8007f
:10459c0000000000000000000100370000000000d7
:1045ac0000402000010020001e0f40005e974800d4
:1045bc004e009000de0090001e01be00800f5100e6
:1045cc00818f5900a0ff39004f04be000080fa0013
:1045dc00000006002600fa00889fbe00fefe0700c1
:1045ec000004be00b4fe0700800f5400818f5c00f5
:1045fc000200320076ff0700300137000000200077
:10460c006101b800f00f20000100200002027800c8
:10461c000301780080017800010078000302620039
:10462c000000610001002000c000dd00000020003f
:10463c000001be006120b800000171008181710091
:10464c00c011dd0002002000000025000100200048
:10465c00020040008380480070079800010f98000a
:10466c007e0290008e0a9000000020006101b800cc
:10467c00f00f2000010020000203780003017800f5
:10468c0080017800010078000303630000006100e2
:10469c0001002000c000dd00000020000001be0071
:1046ac006130b8000001710081817100c011dd0022
:1046bc000200200000c02400010020000200400085
:1046cc00838048000000520081805a0070079800d7
:1046dc00010f98006000b800008fbe00f100370099
:1046ec000000eb0060079800000020006101b8009a
:1046fc00f00f200001002000020278000301780076
:10470c008001780001007800030262000000610063
:10471c0001002000c000dd00000020000001be00f0
:10472c006120b8000001710081817100c011dd00b1
:10473c000200200000c02400010020000201400003
:10474c00838148001e00be000202400083824800a4
:10475c00000020006101b800f00f200001002000d3
:10476c0002037800030178008001780001007800d2
:10477c00030363000000610001002000c000dd00a5
:10478c00000020000001be006130b8000001710083
:10479c0081817100c011dd000200200000002500a5
:1047ac00010020000200400083804800040040000b
:1047bc0085804800100f9800210f98000000200001
:1047cc006101b800f00f2000010020000202780007
:1047dc000301780080017800010078000302620078
:1047ec000000610001002000c000dd00000020007e
:1047fc000001be006120b8000001710081817100d0
:10480c00c011dd000200200000c0240001002000c7
:10481c0002014000838148001e00be0002004000df
:10482c0083804800300f9800410f98000000eb0087
:10483c00200798002c0037001e089000ae0890004e
:10484c004008de0001002000000078009001880084
:10485c009e0890002e00900000804000500f9800a1
:10486c005e0890009004ba001084ba00690f98009a
:10487c00780f98003e089000ce0890004008de00ab
:10488c00010020000000780090018800be08900014
:10489c002e00900000804000001798000e10900031
:1048ac009004ba001084ba001917980028179800c1
:1048bc00ee0890001e109000808f500004003a000b
:1048cc00fe0890002e109000808f500003003200e4
:1048dc001000200060079800070037002e009000a1
:1048ec000080e80020079800ae009000f03f200008
:1048fc00808f5000d0ff34006e009000e00f50000d
:10490c006300320020042400003b88003e08900025
:10491c00ce0890004008de00010020000000780066
:10492c00900188003e099000ce0990000209bb005e
:10493c000700fc0050052000303b8800a00a200036
:10494c00303b880061e7a800000000000000000078
:10495c000000eb00200798000000eb0030079800e7
:10496c000000eb0040079800450037000000eb000a
:10497c0050079800310037002e0090006101b900fb
:10498c001e089000ae089000020040008380480092
:10499c004008de0001002000000078009001880033
:1049ac002e0090006101b9001e089000ae08900026
:1049bc0002004000838048009004ba001084ba00c2
:1049cc00690f9800780f98002e0090006101b900d3
:1049dc003e089000ce089000020040008380480002
:1049ec004008de00010020000000780090018800e3
:1049fc002e0090006101b9003e089000ce08900096
:104a0c0002004000838048006e099000fe0990006f
:104a1c000208bb000388bb005e0090000000e800a9
:104a2c00500798002e0090000080e80020079800a6
:104a3c003e0090000080e80030079800de009000f7
:104a4c00f0032000808f5000cbff340010002400b6
:104a5c00003b88000700fc0050052000303b88001c
:104a6c00a00a2000303b880061e7a800000000008d
:104a7c00000000004e0090000000e8004007980085
:104a8c004e009000e70f5000b8ff340001003700d3
:104a9c000000000000402000010020001e0f40001c
:104aac005e9748007e0090008e0890001e01be00ac
:104abc00800f5100818f590009ff35004f04be0053
:104acc000080fa00000006000000fa0035fd070027
:104adc00e00f5000e08f58000600320011028000f9
:104aec00000e20000080700010028800004c0200b4
:104afc00000000003a000700000020006101b8002f
:104b0c00f00f200001002000020278000301780061
:104b1c00800178000100780003026200000061004f
:104b2c0001002000c000dd00000020000001be00dc
:104b3c006120b8000001710081817100c011dd009d
:104b4c000200200000002a000100200002004000aa
:104b5c008380480002402000030020003703070038
:104b6c00420120000300200031c0b30020c0b3007c
:104b7c00ac030700804f8800914f8800a20f2000e3
:104b8c000300200051c0b30040c0b300a5030700d0
:104b9c00a04f8800b14f880002e72f00f3ff2f00d1
:104bac0071c0b30060c0b3009e030700c04f880003
:104bbc00d14f8800825720000300200091c0b30021
:104bcc0080c0b30097030700e04f8800f14f8800c6
:104bdc00b7ee070032f607000140fe00feff37007b
:104bec000000fa000080eb0060198800cde2a800fc
:104bfc00c882a900c9e2a90061368000f00f2e001e
:104c0c00808060000070200000807000603688009a
:104c1c007136800000fe2f00008060000030a00084
:104c2c00703688004302a90042c2a9004402a800c1
:104c3c0042a2a8001112800030fe2f0000806000fc
:104c4c008001b30010128800101280003000b300f5
:104c5c001012880041e2a8001136800000fe2f00df
:104c6c00008060002001b3001036880011368000ef
:104c7c00f00f2e008080600000202100008070006a
:104c8c0010368800800c80007000b300800c880007
:104c9c00810c800000c0210000807000800c880016
:104cac00900c8000f001b300900c88009381a80058
:104cbc0050002000b00c8800a0002000a00c880040
:104ccc0005e1a800f0e7230010088800210580000a
:104cdc00f0ff28008080600000002600008070003b
:104cec00200588008460a9009460a8000080fa0068
:104cfc00000006000c00fa004007980051079800cd
:104d0c00de00900000092b000088b900000178003b
:104d1c00ce0090000080eb000088b9000000780005
:104d2c0000014100ce00900000092b000008b800e3
:104d3c000101410082007800e00f5000e08f580024
:104d4c0002003d00f03fb0000180b0004609dd00dc
:104d5c004a00de0000007100ca88de000001be00bf
:104d6c000000280001002000020040008380480061
:104d7c0010079800210798001e009000ae009000cc
:104d8c00e00f5000e08f580003003d000000eb00e6
:104d9c00000f78000c0037001e019000ae0190004f
:104dac00f0ff2f0001002000800f5100818f59006f
:104dbc00030034000080eb00000f78000200370085
:104dcc001e009000000f7800401280003007980001
:104ddc004012800030079800401280003007980085
:104dec00cde2a9001e0078004a00de0040128800c7
:104dfc001e0078004200de00401288009e00780001
:104e0c0063806000401288000000000001128000e6
:104e1c000008200000806000e00f5000fbff320013
:104e2c00cde2a8000080fa00000006003600f80071
:104e3c00809fbe00829fbe00849fbe00869fbe00e6
:104e4c000000fa008460a900a04f8000b14f8000e0
:104e5c0080007800205080000088b90000007800a5
:104e6c006101b90000508000115080000200400028
:104e7c00838048000050880011508800205080002a
:104e8c00e00f5000450032000050800011508000af
:104e9c00823e200003002000a8ed07000001be00a8
:104eac00e04f8000f14f8000800f5100818f59003e
:104ebc00100034000080eb0020508800e04f800090
:104ecc00f14f8000823e20000289b9000201780077
:104edc006002b9008401780003014100833e200088
:104eec000300b800010141008200780000508800e6
:104efc00115088000050800011508000823e20002c
:104f0c00030020008ded07000001be00c04f8000a3
:104f1c00d14f8000800f5100818f590013003d004c
:104f2c001000200020508800c04f8000d14f80001e
:104f3c00823e20000289b900020178006002b900ab
:104f4c008401780003014100833e20000300b80077
:104f5c000101410082007800005088001150880047
:104f6c00305080000000e800305088003050800045
:104f7c006101b800804f8000914f8000800f51007c
:104f8c00818f5900050039006000b800005088007e
:104f9c00115088000000eb00205088000050800069
:104fac0011508000823e20000300200063ed0700ba
:104fbc0050ff070020508000e00f50001b00320013
:104fcc00505080000000e800505088005150800084
:104fdc00a00f200000017800110009008280d80089
:104fec008000fd005050880050508000e00f5000b1
:104ffc000f003a00601680004400de006140600043
:10500c0000c0ea00614060000080fb0061006000ad
:10501c004400dd0062168000f1fe2f00810061006b
:10502c00008070006016880001003700cc82a80058
:10503c000080fa004f03be004f02be004f01be00bd
:10504c004f00be003600f900004006000800fa00d0
:10505c00408d20001001be00028fbe00408d20004c
:10506c001001be0022079800330798008cc8bf00bf
:10507c008080fb008dc8bf000080fb004800dd0075
:10508c00010070006101b800e01f2f00f1ff2f003c
:10509c000200400083804800320020000300200002
:1050ac00820f5000838f580064003e0000600100a6
:1050bc000300370015003700270037003d0037008c
:1050cc002e019000be01900080de2f000100200018
:1050dc00800f5100818f59004d003e002e00900032
:1050ec00be009000a04f8800b14f8800a04f8000f8
:1050fc00b14f80000001be0051c0b30040c0b300ee
:10510c006302070071e8a8004c0037002e019000e4
:10511c00be0190003006200001002000800f5100dd
:10512c00818f59003c003e002e019000be01900082
:10513c00824f8800934f8800804f8000914f8000f1
:10514c000001be0031c0b30020c0b3005002070004
:10515c0071e8a80039003700009c2f00f1ff2f00e8
:10516c001e01be00800f5100818f59002c003500ac
:10517c0000642000010020001e01be00800f5100c1
:10518c00818f590028003c001e00be00c04f8800d3
:10519c00d14f8800c04f8000d14f80000001be006d
:1051ac0071c0b30060c0b3003902070071e8a800f9
:1051bc0022003700009c2f00f1ff2f001e01be00c3
:1051cc00800f5100818f59001900350000642000b8
:1051dc00010020001e01be00800f5100818f59007c
:1051ec0015003c001e01be00e24f8800f34f880002
:1051fc00e04f8000f14f80000001be0091c0b30071
:10520c0080c0b3002202070071e8a8000b00370031
:10521c000000000009003700000000000700370004
:10522c0000000000050037000000000003003700fc
:10523c000000000001003700000000000080fa00b0
:10524c00000006000000fa008bc8bf000080fb00c5
:10525c0041042000810f500004003200a104200002
:10526c00810f500004003200b400370000352800d4
:10527c0015f50700b1003700a18820009140780097
:10528c0000c8b30000c06000e04f50003b0032008b
:10529c008cc8bf008080fb008dc8bf000080fb0065
:1052ac004800dd00010070006101b800f01f2f0004
:1052bc00f1ff2f00020040008380480062002000b4
:1052cc0003002000820f5000838f58009a003e008c
:1052dc0000600100060037000c0037000f0037009b
:1052ec001200370015003700180037001e00370079
:1052fc00205080008000ea00008070004f00de002b
:10530c00cf80de00d4f407001b003700a04f8000d4
:10531c00b14f8000d0f4070017003700804f800099
:10532c00914f8000ccf4070013003700c04f800071
:10533c00d14f8000c8f407000f003700e04f800009
:10534c00f14f8000c4f407000b00370000508000c0
:10535c0011508000823e20000300200077ec0700f3
:10536c00bdf407000400370030508000010020001d
:10537c00b9f4070000000000700037008cc8bf00b3
:10538c008080fb008dc8bf000080fb004800dd0062
:10539c00010070008000780010e02000808f500029
:1053ac0022003a008ec8bf008080fb008fc8bf006f
:1053bc000080fb004800dd0001007000e00f500091
:1053cc0013003200c04f8000d14f8000823e20007d
:1053dc000289b900020178006002b90084017800ea
:1053ec0003014100833e20000300b800010141008d
:1053fc008200780000508800115088000000eb00fb
:10540c003050880010002000205088000500370024
:10541c000000eb00205088006000b80000508800ad
:10542c001150880071e8a8004100370090c8bf00f7
:10543c008080fb0091c8bf000080fb004800dd00ad
:10544c0001007000e00f50003600320090c8bf0021
:10545c008080fb0091c8bf000080fb004800dd008d
:10546c00010070008000780000082000808f500040
:10547c002e003e00418d2000f00f200000816000c6
:10548c006fc8bf0060406000024070006fe8b7005a
:10549c00c808de0070c8bf006040600001407000aa
:1054ac0070e8b70090c8bf008080fb0091c8bf00b7
:1054bc000080fb004800dd000100700080007800d7
:1054cc00f00f20000081600072c8bf0060406000d7
:1054dc000240700072e8b700c808de0073c8bf0055
:1054ec00604060000140700073e8b70071e8a800ec
:1054fc00c1822200f00f20000081600074c8bf0040
:10550c00604060000240700074e8b700c808de001c
:10551c0075c8bf00604060000140700075e8b700be
:10552c0003003700000000000100370000000000fd
:10553c000000000001003700000000000080fa00ad
:10554c00000006000600fa00004f78001147980092
:10555c0022479800230798000080fa0000000600fc
:10556c000e00fa00889fbe00500798006107980053
:10557c00304e8000414e8000008fbe001e00be00e9
:10558c004008de0001002000000078009001880037
:10559c005e00900000004000cf80de003e01400025
:1055ac00ae8148000200be009004ba001084ba001c
:1055bc0029079800380798006e009000ae01900003
:1055cc00030878003e009000004f98000e489000b1
:1055dc004f04be000080fa00000006000e00fa0026
:1055ec0040079800214f980062079800304e8000c9
:1055fc00414e8000008fbe002e4890000080fb00c2
:10560c000010b10020079800ee00900031079800c0
:10561c0030002400003b88001e00be004008de0065
:10562c000100200000007800900188004e009000de
:10563c0000004000cf80de003e014000ae814800fb
:10564c000200be003e019000ae0190000208bb00bb
:10565c000388bb000700fc0050052000303b88008d
:10566c00a00a2000303b880061e7a8000000000081
:10567c00000000000080fa00000006000e00fa0096
:10568c00204f9800610798000000eb00000f780095
:10569c0013003700e19e20001e007800b0ff0700c9
:1056ac00404798004e409000e14f400014003200fb
:1056bc004e4090008080fb002e4890000080fb0044
:1056cc000000e800808f500004003a000001eb005d
:1056dc008040eb001e007800c0ff07001e0fe800a2
:1056ec001e0078006101b900504e8000614e8000b0
:1056fc00800f5100818f5900e6ff390001003700ff
:10570c00000000001e0078006101b900504e8000be
:10571c00614e8000800f5100818f59003f003a008c
:10572c000e0078005000b000a135280003000900dd
:10573c00315878000000eb00000f78000c003700a7
:10574c001e007800000040006101b900304e80005e
:10575c00414e8000020040008380480065014700f4
:10576c008201780042002000fff807001e0fe800bd
:10577c001e0078006101b900504e8000614e80001f
:10578c00800f5100818f5900edff390065004700f3
:10579c00800178000001eb000080eb008080eb00c2
:1057ac00f1f807000000eb00100798000000eb0078
:1057bc00000f780015003700e09c20001e00400010
:1057cc0010407800e04f50000f0032001e007800af
:1057dc0080004000809d20000080400090007800f8
:1057ec001e007800004078000040e80001017800bd
:1057fc00804078001e00900078ff07001e0090008b
:10580c000000e800100798001e0fe8001e0078004a
:10581c00e90f5000e8ff3400060037002e489000d6
:10582c000040e8006e019000804078001e00780077
:10583c006aff07000080fa00000006000c00fa0066
:10584c0020079800310798004207980053079800ea
:10585c002e009000be009000304e8800414e880013
:10586c004e009000de009000504e8800614e880083
:10587c000000eb00000f780005003700e09c2000d2
:10588c009e0040000040eb00804878001e0fe800ae
:10589c001e007800e90f5000f8ff34000000eb0008
:1058ac00000f78001a003700c19e20001e007800ff
:1058bc002bff0700204798002e409000e14f40003e
:1058cc001b0032002e409000e04f50000f003200c1
:1058dc002e4090000080fb008000e900e09c20003e
:1058ec008080400010c0b300804878002e409000ab
:1058fc000080fb000000e900614f800000014000c7
:10590c00809d200000004100010878001e0fe80077
:10591c001e0078006101b900504e8000614e80007d
:10592c00800f5100818f5900dfff390001003700d3
:10593c00000000001e0078000080fa000000060045
:10594c000400fa00004f7800110798001e40780000
:10595c008080fb00e09c200000804000104078001c
:10596c00e04f5000070032009e4078000180fb00a1
:10597c0080004000809d20000080400010007800d6
:10598c00010037001e0090000080fa0000000600a5
:10599c000400fa00004f7800110798001e407800b0
:1059ac008080fb00e09c20000080400010407800cc
:1059bc00e04f5000090032009e4078000180fb004f
:1059cc0080004000809d2000008040009000780006
:1059dc001e009000808f5000100032009e40780016
:1059ec000180fb0080004000809d20000080400072
:1059fc009e009000010878001e4078008080fb001b
:105a0c00e09c20008080400010c0b30080487800eb
:105a1c009e0090001e40780018ff07000080fa00de
:105a2c00000006000600fa00889fbe00004f7800b8
:105a3c001147980012079800230798001e00900049
:105a4c00ae0090004008de0001002000000078004d
:105a5c00800078001e407800b9ff0700010020008c
:105a6c00c004dd00080020001e00900080007800bb
:105a7c001e409000b2ff070001002000080040000b
:105a8c00898048004f04be000080fa000000060028
:105a9c000600fa00004f7800114798001207980092
:105aac00230798001e009000ae0090004008de0016
