:020000040000fa
:080000000002040000000000f2
:020000040000fa
:10000800542300005423000054230000542300000c
:1000180054230000542300005423000054230000fc
:10002800542300005423000054230000d615000078
:10003800542300005423000054230000a815000096
:100048008a16000054230000542300003c150000c9
:1000580054230000542300005423000054230000bc
:1000680054230000542300005423000054230000ac
:10007800542300005423000054230000542300009c
:10008800542300005423000054230000542300008c
:10009800542300005423000054230000542300007c
:1000a800542300005423000054230000542300006c
:1000b800542300005423000054230000542300005c
:1000c800542300005423000054230000542300004c
:1000d800542300005423000054230000542300003c
:1000e800542300005423000054230000542300002c
:1000f800542300005423000054230000542300001c
:10010800542300005423000054230000542300000b
:1001180054230000542300005423000054230000fb
:1001280054230000542300005423000054230000eb
:1001380054230000542300005423000054230000db
:1001480054230000542300005423000054230000cb
:1001580054230000542300005423000054230000bb
:1001680054230000542300005423000054230000ab
:1001780054230000542300004221000054230000af
:10018800542300005423000054230000542300008b
:10019800542300005423000054230000542300007b
:1001a800542300005423000054230000542300006b
:1001b800542300005423000054230000542300005b
:1001c800542300005423000054230000542300004b
:1001d800542300005423000054230000542300003b
:1001e800542300005423000054230000542300002b
:0801f800542300005423000011
:020000040000fa
:10020800542300005423000054230000542300000a
:1002180054230000542300005423000054230000fa
:10022800542300005423000054230000d615000076
:10023800542300005423000054230000a815000094
:100248008a16000054230000542300003c150000c7
:1002580054230000542300005423000054230000ba
:1002680054230000542300005423000054230000aa
:10027800542300005423000054230000542300009a
:10028800542300005423000054230000542300008a
:10029800542300005423000054230000542300007a
:1002a800542300005423000054230000542300006a
:1002b800542300005423000054230000542300005a
:1002c800542300005423000054230000542300004a
:1002d800542300005423000054230000542300003a
:1002e800542300005423000054230000542300002a
:1002f800542300005423000054230000542300001a
:100308005423000054230000542300005423000009
:1003180054230000542300005423000054230000f9
:1003280054230000542300005423000054230000e9
:1003380054230000542300005423000054230000d9
:1003480054230000542300005423000054230000c9
:1003580054230000542300005423000054230000b9
:1003680054230000542300005423000054230000a9
:1003780054230000542300004221000054230000ad
:100388005423000054230000542300005423000089
:100398005423000054230000542300005423000079
:1003a8005423000054230000542300005423000069
:1003b8005423000054230000542300005423000059
:1003c8005423000054230000542300005423000049
:1003d8005423000054230000542300005423000039
:1003e8005423000054230000542300005423000029
:0803f80054230000542300000f
:020000040000fa
:100400002fa322000e7f24000e01880000000000b0
:1004100000012000200288000c000700e02e2200ce
:100420000100200011000700000020000000e00093
:10043000020032000000020000000000c8140200a8
:10044000000000000040da000000fe004440a90067
:10045000800820000000e0000300320000002000bf
:10046000a00188004440a800000006009101880017
:10047000800078000000eb0015003700e2804000ab
:1004800032a0b4009101ba00e280400032a0b40072
:100490009102ba00e280400032a0b4000002eb00fa
:1004a000472bde00f507b200602ce10004003a00a3
:1004b0000059eb008301e900fdff3e000400370016
:1004c0006128e100010032000082eb000400070017
:1004d0001101ba000200e000e8ff3a000000060047
:1004e0003159ba008301e9000c0032002159ba00e9
:1004f0008301e900080032000400e00003003a0034
:10050000e280400032a0b400f5ff370011d9ba00f4
:100510008301e900faff3a008100e800e180400031
:1005200032a0b400000006002e0c04000000000001
:10053000520e040000000000f80e0400000000004d
:10054000841504000000000003f0a200889fbe0094
:100550008a9fbe008c1f7800f3000700fa0033006a
:100560006450e1004f0032006420e100520032008c
:1005700003826c0007003b000905d0000306d00091
:10058000820f54000c065d000200390002003200a8
:1005900089017800030678008582550004003d003b
:1005a0000003fd008103fd008502ea008b85420007
:1005b000840f720002003b0060001000e080180011
:1005c0006011b8000005eb007a28e1000a0039004c
:1005d00006007800c75ddd00f707b2008780750070
:1005e0002d003700828171000a01780061056000ea
:1005f0008180d1000080d3008502e900f9ff3b0033
:10060000060440008784480002003b006004140098
:10061000e0841c000988a300070032008a81710071
:1006200082817100610164008904d1000884d300d3
:100630008b05e800170037000978a30013003a0083
:100640000b00e000130034008b05e90008044400af
:1006500089844c000a4474000978a3000d003a0014
:100660000b00e000070034008b05e900080444009b
:1006700089844c0001003a000b0020000978a30097
:10068000f7ff32000001eb000200370082817100a9
:100690000a017800690007000cf0a70001f0a00033
:1006a000b20037006420e10002003a00838f6c0042
:1006b000b20033000801be000200be00ab003700ec
:1006c000889fbe008a9fbe008c1f7800960007009e
:1006d0009d00330003866c006450e1002e00320060
:1006e0006420e100330032006150e1002f0032004d
:1006f0006120e1003100320085855500eb07b00034
:100700000900200008042000050037000804440008
:1007100089844c000a0031000603430087834b00a4
:100720000001530081815b00f8ff33000203be002b
:100730000800a0000804440089844c00f6ff39003a
:10074000c639dd0083017300010032001300200070
:100750008904d1000884d3000998a3000500320061
:100760000800a7000300a0008904d1000884d3007a
:100770008b05e8008904d1000884d3000001eb0058
:100780000281d2002d00070001f0a1000cf0a700ab
:1007900001f0a000750037006420e100770032000e
:1007a0000801be000200be00f7ff37006120e10033
:1007b000720032006000b800f3ff37000000200034
:1007c00001f82700f0ff37000001be0041000700dc
:1007d0000470a70003f0a10003f8a30013003a007f
:1007e0006509b10010003200090035006928e100f8
:1007f0000200350001002800000005000000400054
:10080000818048008502e900fcff3a0000000600f4
:10081000f88f4200050035008100d1000080d30030
:100820008502e800fcff3a00000006008000eb00b3
:10083000000005006011b800890037008100200029
:10084000618055000b003d000b00200061fe2f0071
:100850000100e1001d00340082817100610164002b
:100860008904d1000884d3000000e800faff3a00b0
:10087000710020006100640003007000020060004d
:100880000900320061044400e0844c000988a5009e
:10089000050032008b05e8006808e10002003a001c
:1008a0008904d1000884d300f20f20000258e1002f
:1008b00005003d00c75ddd00f907b20089807500c5
:1008c00008007800000006000bf827008b00780075
:1008d00000000500c70ade00f107b200f50fb20004
:1008e00008003200e1cf4200020032000170a00097
:1008f00024000500810f700001003200040805008b
:1009000044000500810f700002003a001400050049
:100910008502e9000000400081c04800fcff3b0068
:100920000170a000240005000004be00e9ff0700dc
:100930000003be000405be000200be00e5ff070084
:10094000844f7500000006000200be006450e10004
:10095000050036006420e100020036000968a300ab
:1009600001003a000800be000160a0004f067800b8
:100970004f05be004f04be0000000600f0ff2f0030
:10098000f1ff2700f9ff3700889fbe008a9fbe0055
:100990008c1f7800e4ff0700ebff330003866c0038
:1009a0006450e100240032006420e100270032009e
:1009b0006150e100220032006120e100210032009c
:1009c0008b854200eb07b1000134b800003ab80053
:1009d0000804420089844a00013ab8000030b80097
:1009e0008880400009014a000400330000004000f4
:1009f00081804800020149008b05e900c909dd003a
:100a0000830170000100320013002000c814de00d2
:100a10004814dd004709de001200b200c808de00fd
:100a20000884700085ff070001f0a1000cf0a7000a
:100a300001f0a000cdff37006120e100cfff3200c0
:100a40000801be000200be00f7ff37006150e10060
:100a5000fcff3a00c9ff37000001eb002f00370010
:100a6000889fbe008a9fbe00008270000402710051
:100a700004827100260032000004be000200be00a5
:100a80006011b8006b092000950220000182cf00a0
:100a90000a0039000541b1000082cf00070039008b
:100aa0000541b1000982cf00040039000541b100c1
:100ab0000882cf00010039000541b1000542520013
:100ac000120032000a003b00828171006101640063
:100ad0008100d1000080d3008984d3000884d30032
:100ae0008b05e8000442e800f7ff3a0007003700f2
:100af0000804440089844c000000480081804800bc
:100b00008b05e9000442e900f9ff3a004bff0700ba
:100b10004f05be004f04be0000000600889fbe00c7
:100b20008a9fbe008c9fbe00820578000004be0034
:100b300068ff07000800be006420e10007003900dc
:100b400002003a00f1ff2700f0ff2f000160a00033
:100b50001202200082d48800550037006120e10095
:100b600003003a000b00a70001f8230050003700f3
:100b700001f0a1000200210093642400500007004e
:100b80000800be0004003500b2fd2000930c2400d4
:100b9000710007000004be000005eb000b00a6007a
:100ba0004f0dde0001f0a1000004be0032982f00be
:100bb00023ea230074ff07000001eb0003f0230089
:100bc0000b00a70003f8230060fe07003e000700ab
:100bd0000000a7000a00a2005c0007000b00e00074
:100be000030032000200200003f0230056fe07003d
:100bf00001f0a2000006be000200200093042400c1
:100c000061ff07000801be0050fe0700809fbe0084
:100c10000c00be0022a22a00d3a723005aff07001f
:100c20004f01be0049fe07000004be0001f0a10014
:100c30000200200003982300210007000800be00e6
:100c4000190035000001be004fff07000006be007e
:100c5000b2c52900e36223004bff070022222b00cc
:100c6000f3942b0039fe07000c01be0046ff07007d
:100c7000e273280083c0230034fe07000c01be008d
:100c800041ff070042aa2a00a3e22b002ffe070023
:100c90000c01be003cff07000801be003aff070040
:100ca0000801be0029fe07000a00a70001f0a2000b
:100cb0004f06be004f05be004f04be0000000600f8
:100cc00014002000750037000001be0001ff07007e
:100cd0000470a70003f0a1006509b10016003200fe
:100ce0000d0035006828e10006003500f0ff2f00f8
:100cf000f1ff27000300e00013003b000100280083
:100d00000000050000004000818048008502e900e5
:100d1000fcff3a0008003700f88f420002003c0058
:100d20008000eb00000005008100d1000080d300ae
:100d30008502e800fcff3a000300e00002003b00ef
:100d400060001000e0801800000006004f89de00ff
:100d5000820178006c00370004002000000037009a
:100d6000889fbe008a9fbe008c1f78004f26dd0042
:100d7000edfe0700f4fe33006120e1004300320085
:100d80006250e10041003e003e0039006420e10075
:100d90003c003200058255000f003b000402e800d1
:100da00038003a00800f5300818f5b00350034001b
:100db0000800be0003f0a10001f0a60003f0a000af
:100dc0000cf0a700e1fd0700e8fe37000603430032
:100dd00087834b000c4646000005530081855b006d
:100de000020033000a03be000c00a0000402e90068
:100df000f6ff3b00850578000602430087824b0022
:100e000004003a006000b80009f0a70001f0a0005b
:100e1000d6fe37000002520081825a000704e0002b
:100e2000040033000603430087834b008b05e90071
:100e3000faff3700090578000604be000203be0071
:100e40006011b8007dfe0700e00f5200e08f5a00ed
:100e50000700350002003c000c08a300040032002b
:100e60000601be0003f0a0000cf0a700b7fd0700cc
:100e70000a85680001f0a1000af0a70001f0a000b7
:100e8000bafe37000800be00b8fe3700100220008e
:100e90000cf0a60080d48800b8fe3700889fbe0002
:100ea0008a9fbe00841f78009ffe07004f007800d5
:100eb00011003300f0ff2f00838f6c0006003b0011
:100ec000040565000a00a7000800370009f0a60025
:100ed0001000200008003700820f5400838f5c0050
:100ee000030039001000200001003e000000200037
:100ef00009f0a7000000ea004f05be004f04be0045
:100f00000000e00000000600881f7800030478005d
:100f10000300e00007003d0060001000e0801800c2
:100f200060011900e081190002003b0001f02d0072
:100f300003003700cafe070008f0a70001f0a00078
:100f40004f0478000000060002034000e0834800e0
:100f50000c003700910188009002ba001082ba009c
:100f600085497800c82ade0095419800a441980080
:100f70004822de00b4419800e48141006200400054
:100f8000e0804800860f5000878f5800f1ff39003d
:100f900000000600889fbe008a9fbe008c1f78005c
:100fa0000002be004008de000003780090018800c7
:100fb0000000eb008000780004047800fb0f2000a4
:100fc0000a40200088037800880440001906ba000f
:100fd0009984ba00e10f460003003a00f90fb2000d
:100fe0008b8f540001003200110020000080e800c7
:100ff0008a0f5000f3ff3a00e08f50000c003200df
:1010000020042400003b880096018800040abb00ed
:101010000700fc0050052000303b8800a00a20009b
:10102000303b880061e7a8000000000000000000dd
:101030000282e900e13f20008280400002815100ed
:101040001500240096018800040441008401780002
:1010500000042000d304780058057800890bbb00f9
:101060008a9bbb000000e900faff3a00053b8800bc
:101070000700fc0050052000303b8800a00a20003b
:10108000303b880061e7a80000000000000000007d
:101090000408b000810f5200eaff3a004f067800c2
:1010a0004f05be004f04be0000000600889fbe0032
:1010b0008a9fbe008c9fbe008e1f78000005be0078
:1010c000820678000306780006c02f000003630044
:1010d0008b027800060278000404be00c0cf8000b6
:1010e000d1cf8000880f5000898f58001d0032003a
:1010f000e00f5000e08f5800040035007239ec001a
:101100000317210002572100a2ff0700e00f54003f
:10111000e08f5c00110035007039ec009901880007
:101120000803be000002eb00025721000117210056
:10113000002020001607ba009681ba0084024200ff
:101140000eb17a0083b07a000402e8006203430023
:10115000e0834b00800f5200f6ff3a00c8cf8800b2
:10116000d9cf8800fa3fb2000a05d1000002eb0097
:10117000075721000617210011003700fa1fb2009f
:101180008a024500058043001c4190004811dd00a3
:101190009c4178008380fb000108410085024300e8
:1011a000bc409000c808dd002c4090000080fb008f
:1011b000808a4000640242000a05e8006406460096
:1011c0008d0f5200edff39004f0778004f06be002b
:1011d0004f05be004f04be0000000600889fbe0001
:1011e0008a9fbe008c9fbe008e1f78000005be0047
:1011f00002067800030778000004eb000d40200091
:10120000100037008a047800f93fb2008984560044
:101210000802560089844400848f5400010036007f
:101220008404780088014700090178000a00be00a4
:101230009eff07000902d10004054500e0854d002e
:10124000090444008c0f5400eeff39004f0778006a
:101250004f06be004f05be004f04be000000060052
:10126000040020000482fb0005002000c022dd00f5
:101270000400200006802a0006024200e0824a00a4
:10128000840f5000858f580002003100000042009a
:1012900081804a00e67f25000700200062034300aa
:1012a000e0834b00140020000482fb0005002000b6
:1012b000c022dd00040020000602420087824a00ae
:1012c000840f5000858f580001003100c3ff0700d4
:1012d00000000600f40f2000060020000403630055
:1012e00007002000c033dd000600200005802a0032
:1012f00005034300e0834b000603430087834b0054
:1013000062035300e0835b00970188009602ba00f5
:101310001683ba0007002000c033dd00060020005d
:1013200005034300e0834b0007026200840278005b
:10133000060278000400be0000000600889fbe0080
:101340008a9fbe00f00f2000010020000400200052
:101350000002620005002000c022dd000400200021
:1013600006802a0006024200e0824a000401420090
:1013700085814a0062015100e08159006033b80064
:101380000f003700950188009400ba001484ba0059
:1013900080846000c808de00610db80009054500c2
:1013a000e0854d000a0343008b834b0080006400fe
:1013b00001034300e0834b0062024200e0824a00e6
:1013c000820f5200838f5a00eeff39000782fb0024
:1013d00084027800060278000400be004f05be00bb
:1013e0004f04be0000000600ea874700889fbe0049
:1013f0008a9fbe008c9fbe008e1f780006002000d2
:101400000683fb0007002000c033dd00060020003b
:1014100002802a000300200006044100878449005e
:101420006022b800370037000200420083804a0083
:101430000000430081804b00910188000c40200097
:101440000d0020000006460081864e00dcb79f009c
:10145000edb79f00fe0f2000f0b79f0081bf9f00f7
:101460005fb69700efb69700d6b79f00e7b79f002b
:101470000403be001002ba009082ba00e10f4200dd
:101480000c003a00f50fb2008e8f520009003a00ae
:1014900062004000e08048008c0f50008d8f5800a3
:1014a000f4ff3a000602be005fb39700efb3970067
:1014b000100037000602be007fb597008fbd970071
:1014c0005fb39700efb3970020042400003b88002f
:1014d0000a0dbb000700fc0050052000303b8800cf
:1014e000a00a2000303b880061e7a800000000004f
:1014f0000000000000402000010020000402400025
:1015000085824800880f5200898f5a00c6ff390033
:101510004f0778004f06be004f05be004f04be00c7
:10152000af00b10000000600889fbe00f70f20004a
:10153000040020000702620005002000c022dd0038
:101540000400200006802a0006024200e0824a00d1
:10155000950188001403ba001482ba00e10f430019
:1015600004003a00f40fb200870f52000e003a0058
:101570000e00370005202000850f53000a003a00b6
:10158000e44f520008003a006cff07000004be0060
:1015900050ff07001400200005002000800f5400b9
:1015a000818f5c00020032008fff07006022b800cc
:1015b0000400be004f04be0000000600f287470092
:1015c000889fbe008a9fbe008c9fbe008e1f780041
:1015d0005aff07000004be003eff0700800f5400c2
:1015e000818f5c00020032007fff0700950037000a
:1015f00008802a000900200004402a000404540046
:10160000e0845c000600200007002000f20f2000ac
:10161000030020000600610001002000c000dd0082
:1016200000002000080440008984480000002000d9
:101630000200600001002000c000dd00000020006a
:101640000002540081825c00b4b79f00c5b79f00c0
:101650006022b80002077800d0b79f00e1b79f0072
:1016600096b79f00a7b79f007100370002402a007d
:101670000300200000802a0000004100e0804900b3
:101680000000420081804a005fb39700efb39700eb
:101690000000430081804b009fb397000703670061
:1016a00007002000c033dd000600200000034300d7
:1016b00081834b000201420083814a005fb697009c
:1016c000efb697000201460083814e008300780048
:1016d0000000eb0009402000f4b79f0085bf9f0089
:1016e0000606be00070378000205be0096018800ca
:1016f0008c0340001704ba009783ba009101880058
:101700008a0240009501ba009582ba00830f540006
:1017100008003a00858f530006003a000080e80078
:10172000890f5000f1ff3a007fb297008fba9700ff
:101730003b0037007fb297008fba97000c03be00c2
:1017400020042400003b8800910188000a0dbb00a2
:101750000700fc0050052000303b8800a00a200054
:10176000303b880061e7a800000000000000000096
:1017700008402000090020000c0444008d844c0027
:101780000c0155008d815d001b0024001e003700f8
:10179000910188001002ba009082ba00020640004f
:1017a000838648009d018800040ebb00058ebb00a7
:1017b0000a05e90062004000e0804800e00f5500a3
:1017c000f3ff3a000602be007fb397008fbb97007d
:1017d0000b3b88000700fc0050052000303b8800d0
:1017e000a00a2000303b880061e7a800000000004c
:1017f000000000000608b0000780b000880f53000a
:10180000898f5b00060032000600be000a0420003b
:10181000f6b79f0087bf9f000403be00dcff3700c0
:1018200006402000070020000402430085824b0090
:101830003fb09700cfb09700800f5200818f5a00c1
:101840008aff35004f0778004f06be004f05be00e7
:101850004f04be002f01b10000000600881f780071
:10186000e4992100144278000482fb009fd9bf0054
:101870004800dd000400700001002000c000dd0011
:101880000000200084d0800004034000e083480072
:10189000249a2100144278000482fb00329a21002d
:1018a000124178004811dd00040171000281e90055
:1018b000e10f4300e08f4b0009003a00000e2000ca
:1018c0004220b700a424800023a121000600be000e
:1018d000f6fd070039ff07000000fe00100037008a
:1018e000180280004544de0067446400000e2000ba
:1018f0004220b7008700d1000680d30023a1210039
:1019000057fe0700670264004522dd00f8f12f0052
:1019100015028000050464000404740018028800a5
:1019200082f9a8004f0478000000060010fab70002
:1019300004a12100459721009542780004407800d9
:1019400074f9b7004822de005597210095427800cf
:101950000440780075f9b7007619a8007497210043
:101960001442780010c0b30077f9b70084972100c3
:10197000144278007879ef0076f9a800000006009c
:1019800080d0880004a1210045972100954278006d
:101990000440780074f9b7004822de005597210012
:1019a000954278000440780075f9b7007619a800d0
:1019b000749721001442780020c0b30077f9b70073
:1019c00084972100144278007879ef0076f9a80016
:1019d0000000060080d0880091d0880004a121007a
:1019e00045972100954278000440780074f9b700cb
:1019f0004822de0055972100954278000440780087
:101a000075f9b7007619a800749721001442780080
:101a100040c0b30077f9b7008497210014427800e2
:101a20007879ef0076f9a80000000600f5a0210003
:101a30000002eb00f703200002003700866a7800fe
:101a40000402e80030437800e04f53000200320007
:101a5000870f5200f9ff3a0005a121000043eb0077
:101a600086727a000402e800469721001643780047
:101a70000540780074f9b700c82ade0056972100a7
:101a8000164378000540780075f9b7007619a8006c
:101a900075972100954278000440780077f9b700e7
:101aa0004822de00859721009542780004407800a6
:101ab00078f9b70076f9a8000000060004042000b9
:101ac000848f50000100360084007800f5a02100ca
:101ad0000002eb0002003700b06a78000402e80060
:101ae000810f5200fcff390004a12100459721001d
:101af000954278000440780074f9b7004822de006f
:101b000055972100954278000440780075f9b70098
:101b10007619a800749721001442780001407800db
:101b200077f9b700c808de008497210014427800d6
:101b30000140780078f9b70076f9a80000000600a7
:101b40001400fa00889fbe00f80f20000900200052
:101b5000100020000800600001002000c000dd002f
:101b6000000020000400250004004000e080480040
:101b7000f8815700a2002000f3fc0700090278005a
:101b800015002000f883570067037a00e10f430037
:101b9000010032008002eb0064024200f40f5200a8
:101ba000f8ff3a00e08f5200060032008407200060
:101bb000c4b79f00e4b79f0084bf9f00a4bf9f00ed
:101bc000c4bf9f00459e21000002eb0078835700b0
:101bd00066037a00862a780064024200f40f5200fd
:101be000faff3a004f04be000080fa000000060031
:101bf000f68747008e1f7800100020000080fb0051
:101c000001002000c000dd000000200004002500cd
:101c100004004000e0804800449e21007687570081
:101c20000f83e9008082eb00540f780015079800bd
:101c300064074700860f5700fbff3a00f681570004
:101c40004201200065fd0700f68157000001eb000e
:101c50000080eb008080eb0014fd07004f07780048
:101c60006f01b10000000600849e21006a0342005b
:101c70008002eb00e08f500003003400b0037800d6
:101c800077ba9f000100370075ba9f000482e80010
:101c9000860f5200020032008180e900f5ff370014
:101ca000d3ff3700249a2100144278000482fb00fd
:101cb000319a210091407800c808dd0084807000ce
:101cc0008100d10000a12100e7ff070082f9a800f0
:101cd000000006001000fa00881f78000104780058
:101ce0000080e8004300dd00cf80de000400250016
:101cf00004004000e0804800140020000482fb0043
:101d000005002000c022dd00040020000000420089
:101d100081804a00f2815700820020008afc07007f
:101d20007fb29700040c78001fba9700042c78004b
:101d30003fba9700042c78005fba9700140498000b
:101d40004f0478000080fa00000006001000fa003e
:101d5000889fbe0011027800e4b79f000082eb006c
:101d6000f4b79f00d102780085bf9f0094bf9f0009
:101d7000d1027800a5bf9f00b4bf9f0091009000e2
:101d8000c1bf9f00d4bf9f000080e8004300dd007a
:101d9000cf80de000400250004004000e080480001
:101da000f80f200009002000140020000802620043
:101db00005002000c022dd000400200000004200d9
:101dc00081804a00f48157000201200003fd0700d2
:101dd000f4815700090178000080eb008080eb005f
:101de000b2fc07004f04be000080fa0000000600ad
:101df000049a2100144278000482fb00a1d9bf009c
:101e00004800dd000400700001a12100cfff0700a1
:101e100082f9a8000000060000000600000006008d
:101e2000fc39ec000000060000000600c599210006
:101e3000954278000546b20004c4b30084cf520036
:101e40004b013a00d49921001442780005c5b30033
:101e5000854f52007a0032000f003e00edc2520062
:101e6000854f5200a900320004003e0085c2e900ff
:101e7000854f52003d013a002d00370075c4b30074
:101e8000854f5200d7003200e7c24200854f520012
:101e900036013a00aa00370055c5b300854f5200fd
:101ea000b300320007003e00e4c25200854f5200ea
:101eb0008a00320085c2e800854f52002b013a00ab
:101ec0008600370025c6b300854f5200f50032006a
:101ed0008542e800854f520024013a00049a21000f
:101ee000144278000482fb00159a21009542780084
:101ef000c82add008482720024082000848f5200ea
:101f00009a003a00000020000080fb000100200041
:101f1000c000dd000000200004802a000400400012
:101f2000e080480000004000818048008e003700bb
:101f3000e5992100954278008582fb00f499210003
:101f4000144278004822dd000502720005002000de
:101f5000e30f5200e08f5a0005013e0004600100cb
:101f60000300370005003700130037001d0037005d
:101f7000b0cf8000cf80de007b003700059a2100c3
:101f8000954278008582fb00149a21001442780063
:101f90004822dd0005027200b5cf8000850f520097
:101fa000f30031004222dd00059f2100048242003f
:101fb0001400be006c003700059a2100954278009d
:101fc0008582fb00149a2100144278004822dd002b
:101fd00005027200b5cf8000850f5200e400310089
:101fe0000f003700049a2100144278000482fb009d
:101ff000169a2100164378004833dd00040373006d
:10200000b0cf8000059f21000002eb0007002000f8
:1020100008003700b50f5300b58f5b0004003a008d
:1020200004024200459f210065007a007ffe3700d0
:102030000402e800800f5200f6ff3900000006009d
:10204000049a2100144278000482fb00159a2100b2
:1020500095427800c82add0084827200240820009e
:10206000848f520041003a0004a12100059821000c
:10207000954278000440780080f9b7004822de00dd
:1020800015982100954278000440780081f9b70046
:10209000259a2100954278008582fb00349a210020
:1020a000144278004822dd000502720035982100b4
:1020b000954278000440780083f9b7004822de009a
:1020c00045982100954278000440780084f9b700d3
:1020d00082f9a800e4c220009a003700049a210087
:1020e000144278000482fb00159a21009542780082
:1020f000c82add008482720024082000848f5200e8
:102100001a003a000000fe0000000600049a2100b8
:10211000144278000482fb00159a21009542780051
:10212000c82add008482720024082000600120009b
:1021300011002000848f52000c003a000a00370082
:10214000e5992100954278008582fb00f4992100f1
:10215000144278004822dd0005027200f40f52009c
:1021600002003a006000b8001afe37003b03370057
:1021700004a12100059821009542780004407800d0
:1021800080f9b7004822de001598210095427800ba
:102190000440780081f9b700259a21009542780023
:1021a0008582fb00349a2100144278004822dd0029
:1021b00005027200359821009542780004407800ad
:1021c00083f9b7004822de00459821009542780047
:1021d0000440780084f9b70082f9a80024e52000c3
:1021e00058003700e5992100954278008582fb0070
:1021f000f4992100144278004822dd0005027200a3
:10220000e10f520003003200e20f520058003a0082
:1022100026003700049a2100144278000482fb0053
:10222000159a210095427800c82add008482720048
:10223000d4072000848f52004d003e00049a2100f4
:10224000144278000482fb00a1d9bf004800dd00e1
:102250000400700001a121009efe070004a12100de
:1022600045972100954278000440780074f9b70042
:102270004822de00559721009542780004407800fe
:1022800075f9b7007619a8007497210014427800f8
:1022900080c0b30077f9b70084972100144278001a
:1022a0007879ef0076f9a80000000600049a210072
:1022b000144278000482fb00159a210095427800b0
:1022c000c82add0084827200d4072000848f520067
:1022d00027003e0004a121000598210095427800c6
:1022e0000440780080f9b7004822de0015982100ec
:1022f000954278000440780081f9b700259a2100c2
:10230000954278008582fb00349a210014427800bf
:102310004822dd00050272003598210095427800c0
:102320000440780083f9b7004822de004598210078
:10233000954278000440780084f9b70082f9a8003b
:1023400084ef2000559821009542780004407800e1
:1023500085f9b7004822de00659821009542780093
:102360000440780086f9b70000000600bb020700b1
:102370000000060000000600889fbe008a1f78004b
:102380000085fb004454de00e8046500c3ccde0099
:102390006405650042d5de000a4178008940780076
:1023a00008407800ac070700800178000a417800f7
:1023b0008940780008407800330307004f05780013
:1023c0004f04be0000000600e30f50000d00320075
:1023d00003003e00e10f500010003a0007003700f4
:1023e00024072000840f50000a0032000402e80095
:1023f000840f500009003a0004003700230307004f
:102400000600370089fe07000400370084fe07003d
:102410000200370011407800d7ff070010000500c8
:10242000f0f32f004427b6002ca3ef00c902a80048
:10243000c802a900c822a900c842a900f102a90047
:10244000f0c2a900e0e2a900e0c2a900e0a2a90050
:10245000e082a900e062a900e042a900e022a90010
:10246000e002a900d8c2a900d8a2a900d882a90078
:10247000d862a900d842a900d822a900d802a90090
:10248000e8a2a900e882a900c9c2a900c9e2a9007e
:10249000d1c2a900dd02a800dd42a800d902a9002e
:1024a000d942a900c902a9006f60a8006f80a800e6
:1024b0006fa0a8006fc0a8006fe0a80074e0a8009b
:1024c0006ca0a8006cc0a8006ce0a8006d60a8001b
:1024d00005fc2f0076368000068262000430a000e2
:1024e00074368800f60f2c00e43680008403630005
:1024f0000470200004827300e436880042a2a80021
:102500004342a800141280000420a1008401b300fb
:1025100014128800300020004222b7004302a800b5
:102520004402a80041e2a800a4368000040363002e
:1025300004b0200004037300a636880066358000ce
:1025400006826200a401b3006435880062a2a8007c
:10255000141380000420a1008401b3001413880028
:102560006222b7006302a8006402a80061e2a8002a
:1025700005e1a800f0fc2f000421b600f47c200047
:10258000140888002405800004c0a10004d0a00025
:1025900004e0a0002405880011e1a8001021b60085
:1025a000f40420006408880000002700a620b7007b
:1025b00013e1a800940880000440a0000450a1008a
:1025c0009408880004e22400740888004405800010
:1025d0003400b3000420a100440588004636800082
:1025e000068262002401b300443688007000200097
:1025f0009021b70000c021009021b700f001200019
:102600009221b70024032000b40c8800a40c880099
:1026100000000600889fbe008a1f7800e9fd2000a8
:102620000004eb008a0c20006140b80081f807002c
:10263000020020008334240021f8070002fd20005e
:10264000930c2400d0f8070003f9070002f02f00d4
:10265000f36f2400ccf8070002202200138a240024
:10266000c9f8070002202200138a240014f807008a
:102670000200200003702400b4f7070052f807009e
:10268000802c78000804e8008a0f5400e6ff3a0026
:102690004f0578004f04be0000000600889fbe0072
:1026a000000478005500200004712200a7002000db
:1026b000110009000484d8008004780004c9b9001e
:1026c00002045400110009000782d80000027800bb
:1026d0002322ab00feff3a008980fb000103b0001b
:1026e000211188008502e900f1ff3a002322ab00a6
:1026f000feff3a00d4002000241188002322ab0002
:10270000feff3a00a4002000241188004f04be0000
:1027100000000600dd42a900dd42a9006100600062
:102720004900dd00f4df2f00e6168000860262001b
:1027300080827200e5168800e516800005026200be
:1027400000007200e0168800dd42a800dd42a8000b
:1027500000000600889fbe0080047800f502a800f3
:10276000d922a900dd02a900f80120000000eb0039
:10277000890f54000100320010002000e5ff07001f
:102780000804e900e10f4400f8ff3a00dd02a80068
:10279000d922a800f502a9004f04be0000000600df
:1027a000881f7800f502a800d922a900dd02a9003f
:1027b000080220000000eb00d6ff07000804e90033
:1027c000fcff3a00dd02a800d922a800f502a9000a
:1027d0004f04780000000600e1026000e4ff2f00d3
:1027e0006616800006026200050272006416880008
:1027f000e2026000d4ff2f0066168000060262002d
:10280000050272006416880064006000b4ff2f00a7
:1028100065168000050262000000720060168800e4
:1028200000000600881f7800000478004340de00a6
:10283000a47e8000e00f520002003200e20f52003e
:102840004c003a00e00f500002003a00e402a900f8
:1028500005003700e402a800e10f500002003a0032
:10286000e422a90005003700e422a800e20f50008e
:1028700002003a00e442a90005003700e442a80043
:10288000e30f500002003a00e462a900050037009f
:10289000e462a800e40f500002003a00e482a900bc
:1028a00005003700e482a800e50f500002003a005e
:1028b000e4a2a90005003700e4a2a800e60f50003a
:1028c00002003a00e4c2a90005003700e4c2a800f3
:1028d000e70f500002003a00e4e2a90005003700cb
:1028e000e4e2a800e80f500002003a00dc02a90070
:1028f00005003700dc02a800e90f500002003a0092
:10290000dc22a90005003700dc22a800ea0f5000f5
:1029100002003a00dc42a90005003700dc42a800b2
:10292000eb0f500002003a00dc62a90005003700fe
:10293000dc62a800ec0f500002003a00dc82a90023
:1029400005003700dc82a800ed0f500002003a00bd
:10295000dca2a90005003700dca2a800ee0f5000a1
:1029600002003a00dcc2a90005003700dcc2a80062
:1029700003003700e10f520001003a0075ff070025
:102980006700640094ff07004f0478000000060011
:10299000a3fe0700caa2ab0002003a001400200008
:1029a00003003700f322ab0002003a0024002000ad
:1029b000a47e8800d5c2a800eca2a80015ff0700dd
:1029c0000000eb0097ff07005dfc0700d6fa070048
:1029d000e00f5000e08f580004003200000e20008d
:1029e0004220b70000a4020000000000a801070078
:1029f0009500a8008500a900ff050700ffff37002c
:102a00000200fa00a47e8000e00f520002003200b3
:102a1000e20f520010003a00e402a900e422a900eb
:102a2000e442a900e462a900e482a900e4a2a900aa
:102a3000e4c2a900e4e2a900dc02a900dc22a900aa
:102a4000dc42a900dc62a900dc82a900dca2a900aa
:102a5000dcc2a90005003700e10f520003003a0074
:102a6000f0bf9f004eff07007fb897005aff070096
:102a70000080fa0000000600841f78003400f8008f
:102a800004002000a40188008560a90034118000a2
:102a90003400f9004f0278000040060084e424006e
:102aa000e00f500001003a0084022000f4cf8800bb
:102ab000d82fef00da2fef00dc2fef00e4a8210081
:102ac000e5a2220064024200000aeb003412780002
:102ad000850f5200fbff3a001400200004408800dc
:102ae000f4312000140888000021ef008460a90060
:102af0009460a800de2fef000621ef0084e0a9001b
:102b000094e0a8000000060080d280000419200094
:102b1000840f500009003a0084002000144088000f
:102b200010408000110009000400d8008000fd0062
:102b3000b3ff0700100020000200370039ff070034
:102b40000000eb00d5ff070082f9a8000000060096
:102b5000849fbe00861f78003400f8000400200027
:102b6000a401880084e0a900ec82a800ec82a900fe
:102b7000f47e80008402420006fe200066837a0014
:102b8000461288000402e800f47e8800850c2000cc
:102b9000850f520001003a00de2fef003400f900eb
:102ba0004f0378004f02be00004006003600f800d8
:102bb000809fbe00829fbe00849fbe00869fbe0095
:102bc000881f78003400f80000002000a001880071
:102bd0008460a900f502a800481380004613800015
:102be00047138000c47e8000f5cf8000850f52001f
:102bf0001900390045012000110009000582d800a4
:102c0000d57e8000220320000289b90002824200a2
:102c10004e40dd004633dd00000343004222dd006c
:102c200020a9210004024000c23bde00070343004c
:102c300007002000140a430054924b00f431200096
:102c4000f38f500003003a008502e800d57e88002b
:102c5000f432200014088800c57e80008502e80058
:102c6000c57e8800f4cf8000863e20000403430028
:102c7000868f520018003a00c47e8800da2fef00d9
:102c8000f4e8230014088800e47e8000e30f52007b
:102c90000f003a00e4a8210025802000e6a22200cf
:102ca0005400be00ce0bdd004200de000080730049
:102cb000c208de00802a7800860f5200f8ff3a0032
:102cc0009460a90094e0a9000028ef0002003700fa
:102cd0000402e800e47e8800f502a900000000007c
:102ce00000000000f40f2000441388004413880003
:102cf000441388003400f9004f0478004f03be00ed
:102d00004f02be004f01be004f00be003600f9006a
:102d1000004006003600f800809fbe00829fbe0083
:102d2000849fbe00869fbe003400f8000000200093
:102d3000a00188008500a900e7cb8000b47e800058
:102d40000402e800b47e8800e10f520002003a005d
:102d5000d5c2a9002200370005408000e08f520054
:102d600007003200e80f520002003a00d5c2a80066
:102d70000d003700e70f5200190034000a00370039
:102d800006022000868f530003003a00e6cf800041
:102d9000e00f530007003a00ea0f5200080032002b
:102da000f30f52000e003400fc39ef00d62fef0075
:102db0000b00370026032000860f520002003a0065
:102dc000d5c2a8000600370036062000860f520044
:102dd00003003400d5c2a900e5cf8800b57e880085
:102de00004408000e00f520015003a0014408000bb
:102df000e00f5200120035000228ed001440800060
:102e0000e00f520003003a000019200085fe070081
:102e10000900370014408000e00f52000800340021
:102e20001040800084002000110009000400d80038
:102e30008000fd00f2fe07001000200017ff0700d1
:102e40003400f9004f03be004f02be004f01be0028
:102e50004f00be003600f90000400600881f7800d1
:102e6000d49921001442780045c4b300854f520024
:102e700004003200e6c24200854f520080003a0052
:102e800003003700402e2a00e8fa07007c003700d4
:102e9000e5992100954278008582fb00f499210094
:102ea000144278004822dd0005027200050020006f
:102eb0008420b1000580b100e40f5200e08f5a0079
:102ec0006f003e0004600100040037002900370055
:102ed00031003700320037004600370004a52100da
:102ee00005982100954278000440780080f9b700e9
:102ef0004822de00159821009542780004407800b1
:102f000081f9b700259a2100954278008582fb005f
:102f1000349a2100144278004822dd000502720034
:102f200035982100954278000440780083f9b70075
:102f30004822de0045982100954278000440780040
:102f400084f9b70082f9a80044582100559821005f
:102f5000954278000440780085f9b7004822de00e9
:102f600065982100954278000440780086f9b70002
:102f70004300370004408000e00f520004003a0094
:102f80001440800010002000e00f52003b0035008c
:102f90000000eb0039003700803e2000370037008a
:102fa0004480200045972100954278000440780035
:102fb00074f9b7004822de00559721009542780049
:102fc0000440780075f9b7007619a80074972100bd
:102fd0001442780000cdb30077f9b7008497210040
:102fe0001442780070c0b30078f9b70076f9a800f1
:102ff00023003700501680004900de005316800081
:103000005216800051168000571680005617800017
:103010005516800054168000a87e80004844dd00cc
:103020006100600000004400c919de00e281610017
:10303000030040004911de0064016100020040000d
:10304000c908de00e880600001004000c93bde00e6
:10305000f0836300070040004233dd000602b20047
:1030600006034000c32add000504b20085024300c8
:103070004322dd000408b2000480420040fa070049
:103080004f04780000000600000006000000060063
:10309000f40f2000742488005424880024002000a9
:1030a00034258800a824ef00f40920008424880037
:1030b000642488008804a80004a021004822de00bf
:1030c000c42488009424a8009624ef009424a90026
:1030d000003aef00023aef00043aef00063aef0040
:1030e000083aef000a3aef000c3aef000e3aef0010
:1030f000d4002000542588008500200001003700fe
:10310000552488005424800068026200fcff3a00c5
:103110000440780076f9b70082f9b70035982100ad
:103120009542780083f9b7004598210095427800d0
:1031300084f9b70094a4a90085a0210045cc88009b
:1031400074cc880084cc88007ef9b700e4cb88007a
:1031500000000600aa24ab000d00320054cc800011
:103160001443900005c8b300854f530007003a0090
:1031700045cc80001543900045c8b300854f5300ef
:1031800002003a00e8c2420015429800aa24a900b1
:103190000408200054248800000006008284a8004f
:1031a00004012000542488000001eb008000eb00a3
:1031b0005007200084fc37000001eb008000eb008a
:1031c0004007200080fc07008284a9000401200041
:1031d00004248800000006000042eb000440780050
:1031e00095f9b70045cc8000944298000520a200d4
:1031f000944298002498210014427800804f520095
:1032000011003d0055982100954278008582fb0011
:1032100064982100144278004822dd000502720003
:103220000800320055982100954278008582fb0005
:1032300064982100144278004822dd0005027200e3
:103240000400010082f9a900000006000200fa0053
:10325000e499210014427800e14f52000d003a0039
:10326000c4992100144278007f42620009003a00ac
:1032700076f9a800d499210014427800e34f520057
:1032800003003a0014002000d4cb8800010037006e
:103290007a39ef00e499210014427800e04f52009f
:1032a0003b003a00c4992100144278007f4262003a
:1032b000e24f520036003a00049a2100144278008e
:1032c0006f4262003200320076f9a800049a2100b1
:1032d00014427800e04f520006003500049a2100a5
:1032e000144278006f02620004024200e598210057
:1032f00005003700049a2100144278006f02620032
:103300000402420085982100e5027a00f5bf9f0083
:10331000d49921001442780045c8b300e34f52000d
:1033200019003200049a2100144278006f026200f2
:1033300004024200a54a2000050242001410a10028
:10334000059a2100954278007fba9700e0cf52009d
:1033500007003d008042eb00154298006ffa97008d
:103360000424a200e4ff9f0005c4b3000600370058
:1033700085c8b300154298006ffa97000424a20094
:10338000e4ff9f0085ccb3007fba970015429800f8
:103390000080fa0000000600c599210095427800df
:1033a00004c8b30084cf520060003a0000ccb300e0
:1033b00076f9b700f499210014427800e24f5200e8
:1033c00012003200e34f520031003200e14f520050
:1033d00055003a0064262a0045972100954278005e
:1033e0000440780074f9b7004822de0055972100a8
:1033f000954278000440780075f9b7007497210071
:103400001442780024c1b3003f003700e499210042
:10341000144278000482fb0004024200a52d2a0019
:1034200065027a00459721009542780004407800b3
:1034300074f9b7004822de005597210095427800c4
:103440000440780075f9b70045972100954278004f
:103450008582fb0054972100144278004822dd0049
:1034600005027200140290007597210095427800c1
:103470000440780077f9b7004822de0085972100e4
:10348000954278000440780078f9b7000000060003
:10349000e499210014427800e34f520020003e00de
:1034a000e4992100144278000482fb0004024200e7
:1034b000c52d2a0065027a004597210095427800c3
:1034c0000440780074f9b7004822de0055972100c7
:1034d000954278000440780075f9b70045972100bf
:1034e000954278008582fb005497210014427800b1
:1034f0004822dd0005027200144278000482fb00bd
:1035000075972100954278000440780077f9b7005c
:1035100084972100144278007879ef0000000600bb
:103520007679ef00000006007679ef0000000600d3
:10353000a479ef00a579ef00c49921001442780026
:103540007f026200e10f52000b003200e20f5200d6
:103550000b003200e00f52001f003a0076f9a8007d
:10356000a419a800d4cb8000e10f52001a003a0041
:10357000a439a8001800370076f9a8001600370013
:1035800076f9a800049a210014427800e04f520016
:1035900006003500049a2100144278006f02620090
:1035a00004024200e598210005003700049a21003a
:1035b000144278006f0262000402420085982100e4
:1035c00065027a0014429000640262000200320038
:1035d00010c0b300a4f9b70064972100144278002a
:1035e000e04f52000d003d00449a21004597210014
:1035f000954278000440780074f9b7004822de0054
:1036000055972100954278000440780075f9b7007d
:103610007619a80020c0b30077f9b70000000600b3
:1036200005c4b30064cc8000054a780064cc8000f7
:10363000c599210015029800c5c8b300154298002d
:10364000e8c2520044cc80001542980000000600f9
:1036500044cc8000004aeb0085ccb30015429800b2
:103660000000060074972100144278000482fb00d9
:1036700086972100164378004833dd000403730069
:1036800004042000f5032000850f530014003e00c1
:1036900075972100954278008582fb008497210070
:1036a000144278004822dd0005027200459921008d
:1036b00095427800e0cf520002003a0015c0b300f6
:1036c000050037004599210095427800e1cf52006e
:1036d00003003a0025c0b3000540780094f9b70014
:1036e00045cc8000954390004823de0006c373005c
:1036f00096429800844a7800769721001643780015
:103700000683fb008597210095427800c82add00da
:1037100086827200848252007697210016437800d8
:103720000540780077f9b700c82ade0086972100a7
:10373000164378000540780078f9b700459a2100d3
:10374000b5cc88006597210095427800e1c26200ff
:103750002c003a00140037004697210016437800e9
:103760000683fb005597210095427800c82add00aa
:1037700086827200b6cc8000355b7800b6cc8800bb
:1037800046972100164378000540780074f9b70089
:10379000c82ade00569721001643780005407800bd
:1037a00075f9b7000402e900e00f5200eaff3a00a1
:1037b0000000060046972100164378000683fb00b0
:1037c0005597210095427800c82add008682720054
:1037d000b6cc8000355b7800b6cc880046972100d7
:1037e000164378000540780074f9b700c82ade0057
:1037f00056972100164378000540780075f9b70008
:103800000402e900e00f5200eaff3a00000006005f
:1038100094a4a9006497210014427800e04f52005c
:10382000150035002498210014427800e04f520022
:1038300010003d0020c0b30095f9b700259a210083
:10384000954278008582fb00349a2100144278006a
:103850004822dd000502720001003a007cff0700eb
:1038600005c4b30064cc8000054a780064cc8000b5
:103870003e0037006aff3700249821001442780088
:10388000e04f520051003500c499210014427800e5
:10389000e04f52003a003d00249a21001442780083
:1038a0000482fb00359a210095427800c82add0089
:1038b0008482720076972100164378000683fb000d
:1038c00084972100144278004822dd00060272002d
:1038d000848f520010003100259a21009542780013
:1038e0008582fb00349a2100144278004822dd00d2
:1038f0000502720075972100954278000440780017
:1039000077f9b7004822de008597210095427800bc
:103910000440780078f9b70052ff070010c0b300e8
:1039200095f9b70004c4b30065cc8000844a7800e0
:1039300066cc8000c59921001503980007c8b30024
:10394000174398009a39ef0056cc8000044b78005a
:1039500054cc80001502980045c8b3001542980069
:1039600014002000d4cc880044cc8000459a21006b
:103970001502980085ccb30015429800000006009f
:1039800020c0b30095f9b700259a21009542780030
:103990008582fb00349a2100144278004822dd0021
:1039a0000502720001003a0029ff070005c4b300b8
:1039b00064cc8000054a780064cc8000459a2100e0
:1039c0001502980085ccb30015429800000006004f
:1039d000881f780044cc8000140478004e44de0038
:1039e000614464008859aa00e4cb8000e80f5200cb
:1039f0000b003a00e4992100144278000482fb0095
:103a0000b4248800b4248000e00f52000200320089
:103a1000040120000100370044002000e4cb8800ae
:103a20005499210014427800e14f520011003a00ed
:103a3000459a210044cc80001502980009ff070038
:103a4000459921009542780044cc8000e2cf520095
:103a500002003a0045c8b3000400370085ccb3002b
:103a6000e04f54000100320085c8b30015429800b1
:103a700001003700d8fd07004f0478000000060061
:103a80002498210014427800e04f520001003500d4
:103a9000e3fe3700eefe070082f9a90000000600f1
:103aa00054cc8000144378008682fb0037982100b4
:103ab000974378008783fb004498210014427800e4
:103ac0004822dd0007027200848f52000500360094
:103ad000369821001643780044982100144278005b
:103ae0001100370037982100974378008783fb0047
:103af00044982100144278004822dd000702720039
:103b00000502520035982100954278000440780063
:103b100083f9b7004822de004598210095427800dd
:103b20000440780084f9b7000002eb00130037006e
:103b300007982100974378008783fb0015982100a0
:103b400095427800c82add0087827200479a2100da
:103b5000e75a7a00079821009743780005407800db
:103b600080f9b700c82ade00179821009743780033
:103b70000540780081f9b7000402e800844f530043
:103b8000ebff3e0034982100144278000482fb00d1
:103b900046982100164378004833dd000403730083
:103ba00064cc800005c4b3000d003200054a7800e3
:103bb00064cc8000459a210015029800050024007d
:103bc00056cc80009682620002003a0085ccb30099
:103bd0000100370085c8b3001542980000000600b8
:103be000054a780064cc8000c59921001502980030
:103bf00045c8b3001542980082f9a90082b9a9000e
:103c000055982100954278008582fb006498210038
:103c1000144278004822dd000502720008003200dc
:103c200055982100954278008582fb006498210018
:103c3000144278004822dd000502720004000100f1
:103c400024982100144278000442b20001003a0096
:103c50008bff0700000006005499210014427800f1
:103c6000e24f520001003a008dff37005afd070075
:103c7000d4cc8000e00f520009003a0005c4b30024
:103c800064cc8000054a780064cc8000c59921008e
:103c900015029800c5c8b300154298000000060040
:103ca0009a39ef000000060076f9a8007f79ef004e
:103cb0009ed9bf007ef9b700e49721001442780036
:103cc000e04f520003003a0004012000e4cb8800da
:103cd0000000060004022000e4cb8800120020004f
:103ce000e197210010002000b7f93700c4992100a6
:103cf000144278000446b2003e003a00d4992100f4
:103d0000144278000482fb0005002000eb0f5200f3
:103d1000e08f5a0037003e000460010013003700b6
:103d2000130037003300370011003700310037002f
:103d300006003700090037002a0037000900370065
:103d4000070037000b0037001d00370076f9a80088
:103d500084002000e4cb8800000006008efd3700c0
:103d6000d1ff3700e497210007003700f0fd37004e
:103d700036fd3700049a2100144278000482fb00cb
:103d8000f5972100050242004597210095427800f1
:103d90000440780074f9b7004822de0055972100ee
:103da000954278000440780075f9b7007619a800ac
:103db00010c0b30077f9b70076f9a800000006003c
:103dc00076f9a800049a2100144278000482fb00ce
:103dd000f5972100e69921001643780086727a0053
:103de000000006000001eb008000eb002000200036
:103df00075f907000000060044cc80008002eb004b
:103e0000948f120001003d00154298009479ef0054
:103e10009579ef0074972100144278007779ef00cc
:103e200084972100144278007879ef007679ef00ca
:103e300034982100144278008379ef0044982100df
:103e4000144278008479ef008279ef0054982100c1
:103e5000144278008579ef006498210014427800bc
:103e60008679ef00a1ff07000001eb008000eb0066
:103e70003000200054f907002498210014427800f3
:103e80000442b20005003a00649721001442780011
:103e90000442b20001003a005dfe07000000060087
:103ea0008499210014427800b40fb2001e003a0039
:103eb0008599210095427800c50fb20006a0210027
:103ec0008683420057cc880067cc88008c59aa00b2
:103ed00066807a0007c023000700600007402300c7
:103ee000870f50000f003a008583e800e6837b00cf
:103ef000469a2100868f530009003a00c799210095
:103f000026a0210007b37a00c5992100469a210016
:103f1000e6727a000402e800e80f5200faff3a0065
:103f2000b5ff37004cff3700849921001442780018
:103f3000b40fb200e80f520001003a00a4fe0700df
:103f4000000006000200fa000080fb000183fb0075
:103f500000024000040343004333dd0005a02100bc
:103f600005034300f6bf9f00e0cf50000c003a006d
:103f7000e5982100e5037a00e08f53001600320037
:103f80000699210066037a00e00f53000100320019
:103f900086327a0000004000e49821000b003700d0
:103fa00085982100e5037a00e08f53000a00320073
:103fb0002699210066037a00e00f530001003200c9
:103fc00086327a0000004000849821006402780064
:103fd000f4bf9f000100370086327a007fba970055
:103fe00014f0a10014e0a1006ffa97000424a200cd
:103ff000e4ff9f007fba970014f0a10014e0a00036
:104000000080fa0000000600889fbe00004478008f
:104010000882fb0004024200a54a200081727a0057
:104020008184fb0068826400030032008040eb0062
:1040300008407800c3ff0700e484640003003200f6
:1040400011c0b30008407800beff07004f04be0057
:1040500000000600e04f50000b003a0005c4b3001a
:1040600064cc8000054a780064cc8000c5992100aa
:1040700015029800c5c8b30015429800e8c2520066
:1040800044cc80000f0037000182fb000080fb0061
:1040900000004000000242004322dd0006a0210093
:1040a000860342001740900045c8b30005407000e9
:1040b00090439800640242000602420014439000bc
:1040c0008542730015429800000006000080fb0046
:1040d000e0cf50000300320000004000849821002f
:1040e0000200370000004000e498210064027800dc
:1040f0001440900000c0ea000080fb004700de0092
:10410000000006000082fb00e0cf500003003200f8
:104110000402420085982100020037000402420098
:10412000e598210065027a001202980094429000fe
:104130000544b20015429800f33fb20005c02f00bd
:1041400094826200038a72001443900085c8b30011
:1041500085427300154298000080fb00e0cf5000bc
:104160000300320000004000859821000200370063
:1041700000004000e5982100050040001024a20046
:10418000040078000000060094a4ab001400320084
:104190000080fb000000400081982100610278004f
:1041a0001403be00050420000683620007002000ff
:1041b000068abe001403be000660a200068abe0086
:1041c000010340001624a200144390000644b200ec
:1041d000164298001443900085426b0015429800e7
:1041e000000006000002eb00a4248800642488007c
:1041f000e4cb880000000600e4cb8000e00f520012
:1042000014003a00a42488006424880025002000bb
:104210003525880044258800f4092000842488007e
:1042200064248800f4cf2f00750680000502620028
:1042300004a0a000740688009ec0a80001003700fa
:104240009404a8009404ab00fdff32001400200089
:10425000e4cb8800000006008180fb000080fb00aa
:104260000000400080804000818040000281fb000f
:10427000028040004200dd0004a021000400400054
:10428000000006003600f800809fbe00829fbe003e
:10429000849fbe00869fbe00889fbe008a9fbe008e
:1042a0008c1f78003400f80000002000a001880076
:1042b000e4cb8000e10f520008003a0094c4ab0048
:1042c00006003a00f40f2000542488008c04a80053
:1042d0008c84a80024002000e4cb88008084ab00fc
:1042e000050032008284ab0003003200040120008c
:1042f00004248800b0fb07008824ab0068003a0063
:104300008a04ab00120032008c04ab0010003200b3
:104310005ffb070044002000e4cb8800c499210023
:1043200014d0880000c4b30000fab70014a0210024
:1043300014427800634262000440780001fab7003a
:10434000c0c8b300017ab7001400200054248800cc
:104350008a84ab00050032008c84ab00030032007d
:104360008efb070004012000542488008a44ab001f
:10437000080032008c44ab0006003200120020001e
:104380008000eb00300720000ff8070044002000f9
:10439000542488008ae4ab00030032008ce4ab00b4
:1043a000010032006bfb07008a24ab000a003200d8
:1043b0008c24ab0008003200120020008000eb00cb
:1043c000f0ff270000f80700f40f20007424880095
:1043d0002400200054248800e4cb8000e30f520026
:1043e0002f0036008c64ab002d00320048c0b300b3
:1043f0008a002000299921008a64ab00280032003d
:10440000942480000440780098f9b7005a2488006a
:104410008499210014427800040fb20002003a008f
:104420009ffe07001c00370098d9bf000080fb00ea
:104430004400de0000467800819921009140780018
:10444000e8806000c388de00814578008299210001
:1044500012417800640161004291de000204a20072
:104460007dff07000c86fb00e0cf550004003a00fa
:104470000c0646000499210000327e00020037003d
:104480000c06460080347e000001eb00819921007b
:1044900020072000ccf707000844e900d6ff3a00c7
:1044a0008ec0a9003400f9004f0678004f05be0009
:1044b0004f04be004f03be004f02be004f01be00be
:0c44c0004f00be003600f900004006006e
:020000040000fa
:1044cc00120100001001000000000000004000007c
:1044dc00261e000002c400000000000001020000c3
:1044ec00030100000902000012000000010100009d
:1044fc0000c00000320900000400000000000000b1
:10450c00000000000000000004030000090400008b
:10451c003e0300004d000000750000006c00000020
:10452c00740000006900000020000000430000003f
:10453c0068000000610000006e0000006e000000ca
:10454c00650000006c00000020000000530000001b
:10455c00790000007300000074000000650000008a
:10456c006d00000073000000200000004d000000f2
:10457c004300000053000000200000004700000032
:10458c006d00000062000000480000000e030000f7
:10459c004d00000045000000410000002d0000000f
:1045ac00490000005400000078a200008aa200001c
:1045bc008ea20000cca20000e4190000526500009d
:1045cc00764100000000000050490000430000004c
:020000040000fa
:1045dc00f81900000400000002000000ffffff00bb
:1045ec00ff00000070110000040800000000000033
:1045fc00fc19000002000000020000000000000096
:10460c00101a00004000000000000000921a000088
:10461c00a00f000000000000fe19000002000000c6
:10462c0002000000484e0000501a0000400000003c
:10463c0000000000000800007009000000000000ed
:10464c00e41900000c000000020000000c037800cc
:10465c0000780000780078000078000074190000e1
:10466c007000000000000000001a000010000000a4
:10467c0000000000f019000008000000020000001b
:10468c008200000000eaa20001000000901a000065
:0c469c0002000000000000000000000010
:020000040000fa
:0846a8000040da000000fe00f2
:020000040000fa
:020000040001f9
:10480000f8874700889fbe008a9fbe008c9fbe002d
:104810008e1f7800f60f20000200200006016100c4
:1048200003002000c011dd000200200004802a00e7
:1048300004024100e08249000200200006016100fc
:1048400003002000c011dd000200200006402a0005
:1048500006014100e0814900820f5200838f5a0017
:10486000010031000401be006022b8000a002000ef
:1048700001802a00610bb80086b79f0097b79f00a0
:104880000a83fb0007002000c034dd000800200080
:10489000e8af9f00f9af9f00720037000fb6970096
:1048a0009fb697000c0342008d834a006fac9700bf
:1048b000ffac97000603440087834c000504780092
:1048c0000000eb000406be00d2b79f00e3b79f00d4
:1048d000070278008a0278000605be00050378000a
:1048e000940188008a0340009704ba009783ba00b5
:1048f000980188008c0240009501ba009582ba00a8
:10490000838f54000b003a00858f530009003a0052
:104910000080e80005402000850f5000f0ff3a00bd
:104920000c02be005fb19700efb19700060578005a
:10493000480037000c02be005fb19700efb197004e
:10494000060078000a03be00000578002904240050
:10495000093b8800980188000c0ebb000700fc0092
:1049600050052000303b8800a00a2000303b880022
:1049700061e7a800000000000000000008402000df
:10498000090020000604440087844c0006065600f7
:1049900087865e00acb79f00bdb79f00260037003a
:1049a0009d0188001c02ba009c82ba00c5b79f0016
:1049b000d4b79f002fb39700bfb3970006024600fd
:1049c00087824e0095018800dfb397004fb39700b0
:1049d000070abb00068abb000000e9006206460029
:1049e000e0864e00e00f5000edff3a007fb29700e6
:1049f0008fba97000a03be000e0578001c00240041
:104a00000c3b88000700fc0050052000303b88006c
:104a1000a00a2000303b880061e7a80000000000e9
:104a2000000000000608b0000780b000880f5300a7
:104a3000898f5b00070032000606be0000042000dc
:104a40000a0778000605be00f4b79f0085bf9f00e7
:104a5000d3ff370006402000070020000402430077
:104a600085824b00820f5200838f5a008bff3900e2
:104a7000f60f2000060565000b002000c055dd0084
:104a80000a00200001054500e0854d006022b800c5
:104a900008802a00090020000200200006016100b1
:104aa00003002000c011dd000200200034003700a8
:104ab0000803420089834a000603410087834900b6
:104ac000970188000c4020000d00200006004600e1
:104ad00087804e00a0b79f00b1b79f000600be00c0
:104ae000d2b79f00e3b79f000601be000403be00db
:104af0001002ba009082ba00e10f42000d003a00a5
:104b0000e18f42000b003a0062004000e080480064
:104b10002fb29700bfb29700840f5000858f5800c6
:104b2000f3ff3a000602be005fb19700efb19700b5
:104b30000f0037000602be000203be005fb19700ff
:104b4000efb1970020042400003b8800060bbb0057
:104b50000700fc0050052000303b8800a00a200020
:104b6000303b880061e7a800000000000000000062
:104b700006402000070020000402430085824b000d
:104b80008a0f52008b8f5a00c9ff39000000fe00c7
:104b90004f0778004f06be004f05be004f04be0011
:084ba0008f01b10000000600c6
:020000040000fa
:020000040002f8
:04aff400ffff00005b
:020000040000fa
:020000040002f8
:04aff800ee53000014
:020000040000fa
:020000040002f8
:04affc007a3e000099
:020000040000fa
:020000040040ba
:080000000100000016000000e1
:00000001FF
