:020000040000fa
:080000000002040000000000f2
:020000040000fa
:10000800c8020000c8020000c8020000c8020000c0
:10001800c8020000c8020000c8020000c8020000b0
:10002800c8020000c8020000c8020000940a0000cc
:10003800c8020000c8020000c8020000b80a000098
:10004800c8020000c8020000120b00008e10000059
:1000580086110000c8020000c8020000c8020000a3
:10006800c8020000c8020000c8020000c802000060
:10007800c8020000c8020000c8020000c802000050
:10008800c8020000c8020000c8020000140e0000e8
:10009800d60a0000c8020000c8020000c80200001a
:1000a800c8020000c8020000c8020000c802000020
:1000b800c8020000c8020000c8020000c802000010
:1000c800c8020000c8020000c8020000c802000000
:1000d800c8020000c8020000c8020000c8020000f0
:1000e800c8020000c8020000c8020000c8020000e0
:1000f800c8020000c8020000c8020000c8020000d0
:10010800c8020000c8020000c8020000c8020000bf
:10011800c8020000c8020000c8020000c8020000af
:10012800c802000076100000c8020000c8020000e3
:10013800c8020000c8020000c8020000c80200008f
:10014800c8020000c8020000c8020000c80200007f
:10015800c8020000c8020000c8020000c80200006f
:10016800c8020000c8020000c8020000c80200005f
:10017800c8020000c8020000c8020000c80200004f
:10018800c8020000c8020000c8020000c80200003f
:10019800c8020000c8020000c8020000c80200002f
:1001a800c8020000c8020000c8020000c80200001f
:1001b800c8020000c8020000c8020000c80200000f
:1001c800c8020000c8020000c8020000c8020000ff
:1001d800c8020000c8020000c8020000c8020000ef
:1001e800c8020000c8020000c8020000c8020000df
:1001f800c8020000c8020000c8020000c8020000cf
:10020800c8020000c8020000c8020000c8020000be
:10021800c8020000c8020000c8020000c8020000ae
:10022800c8020000c8020000c8020000c80200009e
:10023800c8020000c8020000c8020000c80200008e
:10024800c8020000c8020000c8020000c80200007e
:10025800c8020000c8020000c8020000c80200006e
:020000040000fa
:10040000afca22000eff27000e0188000000000086
:100410000c00070080402100010020000f000700b1
:10042000000020000000e000020032000000020096
:1004300000000000500a0200000000000040da0046
:100440000000fe00800020000000e00002003200fa
:10045000002020009001880000000600a102880012
:10046000800078000000eb001a003700e2804000b6
:1004700054a0b4009101ba00e280400054a0b4003e
:100480009102ba00e280400054a0b4000002eb00e8
:10049000472bde00f507b200a6018800602ce100c2
:1004a00008003a000049eb000201e80002003900b0
:1004b0003420ec0002f0a0008301e900f9ff3e00c7
:1004c000040037006128e100010032000082eb00e7
:1004d000040007001101ba000200e000e3ff3a0047
:1004e0000000060004d0a300e20f49001c00390000
:1004f000810278003549ba000201e80002003900a3
:100500003420ec0002f0a0008301e9000f0032006b
:100510002549ba000201e800020039003420ec004d
:1005200002f0a0008301e900080032000400e000ae
:100530000600320015c9ba000201e80002003900c5
:100540003420ec0002f0a0008301e9008180e80083
:1005500054a0b4000300e000e2ff3a0000000600ef
:100560009102ba00055978008301e900f7ff3200d3
:10057000c82ade00055978008301e900f3ff320044
:100580000400e000f1ff320011d9ba00eeff37009d
:080590000040da000000fe004b
:020000040000fa
:10059800ffff0000ffff0000ffff0000ffff00005b
:020000040000fa
:1005a8000000fa0002024000e08248000b00370019
:1005b800a10288001003ba001081ba008659780099
:1005c8004833de0086597800825978004811de00e9
:1005d8008259780062004000e0804800840f500093
:1005e800858f5800f2ff39000080fa0000000600ed
:1005f8000000fa00889fbe008a9fbe008c9fbe0044
:100608000002be004008de0080037800a0028800d7
:100618008000eb000100780004037800f90f200047
:10062800f83f200000054000060545009a05ba007d
:100638001a85ba00e18f450003003a00fa0fb200ac
:10064800890f550001003200110020000000e80069
:10065800880f5000f3ff3600e08f50001b00320077
:1006680030002400403988006739880056398800ee
:1006780011028000c508de00e7c06000000e2000ff
:100688004220b7000700fc005005200070398800a0
:10069800a00a20007039880029e7a800000000009f
:1006a8000000000040398000e00f5000fdff3500d9
:1006b800678060004500dd0016028000f1f12f0020
:1006c8008100630080807000110288008000eb00c8
:1006d80001047800ac0f2000fb0720002a0024004a
:1006e800f9f12f00480bdd0006034200e0834a00c1
:1006f8006739880056398800ac0288000003eb008f
:100708000600780088034400870641009d067800ab
:1007180087834100970378000d0bbb00079bbb0044
:100728000000e8000804e8008b0f5000f5ff3600d1
:100738004a398800160280004533de0067436300ab
:10074800000e20004220b7000700fc0050052000e2
:1007580070398800a00a20007039880029e7a800ad
:10076800000000000000000040398000e00f500049
:10077800fdff3500670063004500dd0016028000bc
:100788000903630000037300160288008100e80073
:10079800e78f5000d3ff36004f06be004f05be005e
:1007a8004f04be000080fa00000006000000fa00b6
:1007b800889fbe008a9fbe008c9fbe000004be00ba
:1007c8000206be0002802f00000161008900780047
:1007d800020078000005be0080e3800091e38000fd
:1007e8008a0f50008b8f58001e003200e00f500017
:1007f800e08f580004003500a83cec00a3ca210093
:10080800a24a22007aff0700e00f5500e08f5d0042
:1008180012003500a63cec00ab0288000000eb009b
:10082800a64a2200a3ca2100f23f2000800040000f
:1008380001024500e0824d009403ba001482ba0018
:1008480081024300870a780081804100840878008b
:100858000000e800820f5000f4ff36008ae38800a9
:100868009be388004544dd004644de000000eb00c1
:10087800a64a2200a5ca210016003700f83fb20098
:100888000802440004014300808046008101e8001a
:10089800934178008383fb00c83bdd0091447800d6
:1008a8008981fb0003894300048242006381400080
:1008b800124178000281fb004811dd008180e800c8
:1008c800914078008180fb00010a410064004000eb
:1008d8000804e8008c0f5000e8ff39004f06be00fe
:1008e8004f05be004f04be000080fa00000006005d
:1008f8000400fa00889fbe008a9fbe008c9fbe003d
:100908000004be0002067800830278000005eb00b0
:10091800f47f20000d802000130037008405640058
:100928008b8556000a0056008b854500808f550040
:1009380001003600800578008a8142000b017800aa
:100948000800be0014079800050f780097ff0700fd
:100958000b00d10000044400e0844c000b05450066
:100968009e0278001e0290008c0f5500ebff3900a4
:100978004f06be004f05be004f04be000080fa00bf
:10098800000006000800fa00889fbe008a9fbe008b
:100998008c9fbe000002be006066b8006110b800ff
:1009a800008fbe00aa0f20008005eb00f2f12f0097
:1009b8000404be003b0037001342900093427800c5
:1009c8004048de0001002000200798003107980009
:1009d800a00288009803ba008900d1000880d300db
:1009e800eb4f50002a003e004822dd008582fb00c4
:1009f800850242008080fb008180400080c5210084
:100a0800810040001103780005806b00060060003b
:100a18001f003200ae009000613988005839880004
:100a28000000240040398800aa02880010028000d3
:100a38004500de00e7406000000e20004220b700bd
:100a48000683ea0085027300850dbb000700fc00e1
:100a58005005200070398800a00a200070398800ed
:100a680029e7a800000000000000000040398000cd
:100a7800e00f5000fdff3500e7806000c508dd008d
:100a8800100280000200600001007000100288005f
:100a980064064600e0864e00e4814100620444009a
:100aa800e0844c001e00be00800f5600818f5e005f
:100ab800c1ff39004f06be004f05be004f04be00ff
:100ac8000080fa00000006000000fa00889fbe00bf
:100ad8008a9fbe008c9fbe000004be000206be00b6
:100ae8001a1020000a85fb000b002000c055dd000d
:100af8000a0020000000210000054500e0854d00a7
:100b080004002000850f20000980620001002000f9
:100b1800c000dd0000002000840f5000858f5800c1
:100b280003003a000c0178000800be0095ff07009a
:100b38008a0f54008b8f5c000200310008044500c6
:100b480089844d000a0545008b854d008a0f5400a5
:100b58008b8f5c00030031000c01be000800be0052
:100b680063ff07004f06be004f05be004f04be00de
:100b78000080fa00000006000000fa00f20f2000d2
:100b8800101020000200600001002000c000dd00fd
:100b9800000020000300210003004000e08048001e
:100ba800000040008180480062005000e08058004a
:100bb800a10288001002ba001080ba0001002000cb
:100bc800c000dd000000200004024000e082480070
:100bd8000501610082017800040178000200be006e
:100be8000080fa00000006000000fa00889fbe009e
:100bf8008a9fbe00f40f200005002000101020007e
:100c08000400600001002000c000dd00000020009a
:100c18000200210002004000e08048006011b80096
:100c2800000340008183480062035300e0835b00b7
:100c38000f003700a10288009002ba001085ba00a0
:100c480084856200482cde00090020000b04440063
:100c5800e0844c0008014100898149008402650054
:100c680005014100e081490062004000e080480041
:100c7800860f5000878f5800eeff39000382fb0073
:100c880084027800020278000400be004f05be000e
:100c98004f04be000080fa00000006000800fa00b9
:100ca800889fbe008a1f78008c9fbe00101020000d
:100cb8000080fb0001002000c000dd0000002000d3
:100cc8000200210003002000000241008182490047
:100cd80024079800350798006033b800028fbe00db
:100ce8000006be003a0037001e01be0002004300a5
:100cf80083804b000002460081824e0040a8de003f
:100d0800cf80de0000047800a00288008000eb009d
:100d1800fa0f2000f97f2000010178006110b90066
:100d28000000420081804a009001ba001080ba0099
:100d3800e18f410007003a00f00fb2008a0f50001f
:100d480004003a000281e800890f5100f3ff3400e3
:100d58001b003700300024004039880068398800bb
:100d68005439880011028000c508de00e7c0600021
:100d7800000e20004220b7000700fc0050052000ac
:100d880070398800a00a20007039880029e7a80077
:100d9800000000000000000040398000e00f500013
:100da800fdff3500678060004500dd00120280000d
:100db800f1f12f008100610080807000110288002d
:100dc80000802000010020000603400087834800bf
:100dd8002e029000be029000840f5300858f5b00a6
:100de800c1ff39004f06be004f0578004f04be0012
:100df8000080fa00000006000000fa00889fbe008c
:100e0800f30f2000101020000300600001002000f4
:100e1800c000dd00000020000200210002004000a8
:100e2800e0804800a10288001001ba001080ba00d2
:100e3800e10f410004003a00f00fb200830f5000a8
:100e48000e003a000e00370001202000810f5100eb
:100e58000a003a00e44f500008003a0062ff070019
:100e68000004be0044ff0700120020000300200019
:100e7800800f5400818f5c000200320087ff07005a
:100e88006011b8000200be004f04be000080fa00e6
:100e9800000006001000fa00889fbe008a9fbe006e
:100ea8008c9fbe0050ff07000004be0032ff070001
:100eb800800f5400818f5c000200320077ff07002a
:100ec800ac00370006002100070020000080200049
:100ed80000035300e0835b00121020000300200091
:100ee800f40f2000050020000400780002046000d0
:100ef80009002000c044dd0008002000060344006b
:100f080087834c0011102000008060000100200041
:100f1800c000dd00000020000004530081845b0055
:100f280028079800390798006044b80040079800df
:100f380051079800028fbe0089003700008020000a
:100f4800010020000200210002014000e081480069
:100f58000201440083814c004e039000de039000a0
:100f68000202430083824b00f70f20009e017800a5
:100f78000381630003002000c011dd00020020008f
:100f880004064100858649000000440081804c0029
:100f98004e029000de0290000002420081824a0068
:100fa80064079800750798008003eb00406dde0029
:100fb8000b0020000501780004007800f47f200071
:100fc800aa0288008c8043001103ba009182ba00fb
:100fd800a2028800808043009101ba009180ba0083
:100fe800830f530006003a00818f520004003a0034
:100ff8008783e800848f5300f1ff340054003700e2
:10100800310024004139880062398800503988004d
:1010180011028000c508de00e7c06000000e200055
:101028004220b7000700fc005005200070398800f6
:10103800a00a20007039880029e7a80000000000f5
:101048000000000005002800433980008581610008
:10105800fdff3a00e7806000c508dd00150280004a
:10106800f6f12f00868262008180720011028800ea
:1010780003017800020278002b002400060578009e
:101088004810dd00cf80de006e039000fe03900064
:101098000000430081804b00613988005039880086
:1010a8008002eb00050378006120b90000004600cb
:1010b80081804e00a10288009001ba001080ba0019
:1010c800a70f2000a7028800030bbb00008bbb0002
:1010d8008502e8000482e8000683e800f0072000a3
:1010e800808f5200f0ff34004b39880010028000d6
:1010f8004500de00e7406000000e20004220b700f7
:101108000700fc005005200070398800a00a200064
:101118007039880029e7a8000000000000000000de
:1011280040398000e00f5000fdff35006780600007
:101138004500dd00110280008a8060000080700098
:10114800100288000201e800e70f5100ccff3400cc
:101158000080200001002000080440008984480025
:101168002e019000be019000820f5400838f5c0016
:1011780072ff35004f06be004f05be004f04be008b
:101188000080fa00000006000000fa00213a800002
:1011980000fe2f00008060000020a000203a880098
:1011a800a0032000303a8800f0f32f004427b6004f
:1011b8003074200081c7b300a2c9b30033c0b300a4
:1011c800014878000248780003487800207420001d
:1011d80061c4b30072c5b30013c0b30001487800fe
:1011e800024878000348780042a7ab00feff3200af
:1011f8001e2eef002e2eef003e2eef004e2eef009b
:101208006e2eef0025cea90021cea900546ea900ac
:10121800506ea900344ea800304ea900348ea800a4
:10122800308ea90005e1a800f0a52e00100888005e
:1012380011e1a800600888001fe1a800f0762100ed
:10124800d008880021e1a80001098000f0fc2f00e7
:10125800008060000040a00000098800d02e200017
:10126800e00888002136800000f82f000080600028
:101278006005b300203688006134800000fc2f0030
:10128800008060000000a0006034880061348000a5
:10129800f00f2c00808060000190a000613488006d
:1012a8002162a80002118000f1cf2f0081006100a7
:1012b8000180a000011188002062a8002100200000
:1012c8004111880021e2a8002342a80011348000bf
:1012d80080806000026020008280700011348800e5
:1012e800013480000080600001502000010070007f
:1012f800003488000112800030fe2f00008060005a
:101308004001b300001288004302a80042c2a800ae
:1013180042a2a800c00120004222b700111280009a
:10132800c0ff2f00008060000010a000101288008d
:101338004402a80041e2a8000148a900344ea900cf
:10134800f0062000401288004822ef004822ef00f3
:101358001039b0000140800080806000fdff32003d
:10136800344ea800401280004012800040128000d5
:101378000148a9000134800000fc2f0000806000b3
:101388000040a0000034880000c021000029b700f8
:101398000048800081ff2f00010060006000b3005a
:1013a800004888001248800000fe2f0000006100fd
:1013b8000000a00010488800100320003048880072
:1013c800300620002048880002428000f0ff2800f4
:1013d8000001610002c0a000024288000068a90064
:1013e8002068a80012428000000161000300230069
:1013f800030171001242880000e8a90020e8a80053
:10140800624280000001610002d0a00062428800b0
:101418000368a9002368a8007242800001016100e6
:101428006200b300724288000388a9002388a800dc
:1014380022428000000061000200250002007000c6
:10144800204288000168a8002168a8003042800076
:10145800010060005000b300304288000143800062
:10146800f0f82f00008060000005b30000438800fa
:101478002828a80021428000f08f2f0000806000fb
:1014880000a0a000204288000148a9002148a80027
:101498000080fa00000006000000fa00881f7800ab
:1014a80039ff0700f20f2000030020000304780032
:1014b800201020000200600001002000c000dd00b4
:1014c800000020000200220002004000e0804800e6
:1014d80002002200030020007204070022e58000b9
:1014e800cf91de0008407800a104070020e58800bd
:1014f8001000200010e588003ffe0700e00f5000b4
:10150800e08f580004003200000e20004220b7008f
:1015180000080200010000000140fe00feff370045
:10152800809fbe000000fa000068a9007019ec0056
:1015380080cb8800411f2000810f500003003a0033
:1015480025cea8007039ef0004003700a10f200055
:10155800810f500001003a0025cea9000080fa0052
:101568004f00be00004006003600f800809fbe0015
:10157800829fbe00849fbe00869fbe000000fa00c6
:1015880000e8a900860307000080fa004f03be00a8
:101598004f02be004f01be004f00be003600f900ea
:1015a80000400600809fbe000000fa000388a900e2
:1015b800348ea900348ea800344ea900009980000a
:1015c80041c72100910f50000a003d000000400073
:1015d8000165210000804000100078007c1cf800a4
:1015e8004802f900c800de00411288004012880055
:1015f800050037007c1cf8004802f90000082000ac
:10160800401288004822ef001000200020e48800e3
:101618000080fa004f00be0000400600809fbe0018
:10162800829fbe00849fbe00869fbe00889fbe002a
:101638008a1f78008c1f78000000fa00344ea8003a
:101648000148a9004012800040128000401280002a
:1016580021e480000000eb00e38f500026003c00ee
:10166800344ea90021e4800081804000023221002c
:10167800810041009100780022e4800002014100cd
:1016880043c7210002814100928f500010003d00a5
:1016980022e48000400620008010b800008040004e
:1016a8000000400001652100008040001000780023
:1016b80021e4800081804000c2c7210081004100f0
:1016c8009100780041128800c800de00070037004a
:1016d80021e4800081804000c2c7210081004100d0
:1016e800910078004112880001082000411288000a
:1016f80040128800190037000a32210049c721002a
:1017080088322100470620000633210000014000ee
:10171800820145009300780002824400948f5000b3
:101728000b003d00020144001202e80004097800a1
:101738008706b8008c8240008582420085024300fb
:10174800950f5200020036000009eb008109e800fd
:101758000000e800e30f5000ecff3400843cec008c
:101768000080fa004f0678004f0578004f04be004d
:101778004f03be004f02be004f01be004f00be0027
:10178800004006000000fa00889fbe008a1f78000b
:101798003b01070080017800134178001300900096
:1017a800a3029000330490006882410093409000a7
:1017b80016c5b30086cf50004f00320007003e0028
:1017c80032c4b30082cf50004d0032006d41410059
:1017d80082cf500009013a001d00370030c6b3001f
:1017e80080cf5000070032006340400080cf500097
:1017f800470032007340500080cf5000ff003a008d
:101808003d003700f40f20000500200010102000d4
:101818000400600001002000c000dd00000020007e
:101828000200210002004000e08048000000400063
:1018380081804800a0cb8800b1cb8800030021003c
:10184800080178004197210005007800ef00370073
:1018580001002000c000dd00000020001401780015
:1018680002034000e08348000881e900e10f4300db
:10187800e08f4b000b003a00180280004544de0060
:1018880067446400000e20004220b700ea8141004e
:101898000600be00c5fb07007efd07002201070009
:1018a80009003700180280004544de0067446400e0
:1018b800000e20004220b7008700d1000680d30028
:1018c800ea81410080fc0700670064004500dd00f4
:1018d80018028000f1f12f00010464000004740074
:1018e80018028800030021000001eb008000eb00d3
:1018f8000000eb00c50037000b010700f9ff3700b7
:1019080060002000a0cb88007639ef00790037000e
:101918004a9721000242b200f0ff21008082620053
:10192800b3449000090fb200f08f54000600320053
:1019380000082000808f54009f003200e08f540080
:1019480086003200a90037006128b8002003b100e2
:101958000180b100eb0f5000e08f5800a7003e0057
:10196800000601000b0037000a00370009003700a5
:1019780008003700a1003700a00037009f0037009b
:101988009e0037009d0037009c0037003800370064
:10199800430037002503b1004244de0005804200c1
:1019a800e04f51001a00320041c72100008040007a
:1019b80010017800880f51000100340008017800f8
:1019c8000000eb0048062000882cb80006332100f0
:1019d8000465210009003700c200dd0088014000cd
:1019e80083814100830243008100450095187800f7
:1019f80083014200930878000000e800820f50003d
:101a0800f5ff35004211dd00030021003b003700df
:101a180001322100808040008808780041c72100f9
:101a280000804000080878000000eb004a0620000b
:101a38008a2db8000633210003652100090037000c
:101a4800c200dd000001450002014100820243009e
:101a580081004200b10a7800028141001109780032
:101a68000000e800880f5000f5ff35009dff3700a3
:101a7800e04f510003003200861cf8007419f90089
:101a88001c00370094007800e02e20008008b80081
:101a980030e488000000e900e008880091ff370082
:101aa800e04f51001700320010002000029980001a
:101ab80041c72100910f51000d003500b1e38000ae
:101ac80012998000810f510009003500c1e38000a0
:101ad80022998000810f510005003500d1e3800074
:101ae80032998000810f5100010035000000eb00a1
:101af800a0cb88000300210008017800419721004d
:101b08007bff3700546ea8002388a900000000005e
:101b180020e48000e50f5000fdff3a002148a900ad
:101b2800000000002833ef002a33ef002c33ef00c9
:101b38002e33ef002033ef002233ef002433ef0081
:101b48002633ef001821ef000388a8002388a80097
:101b58002148a800546ea90062ff3700e78f5200a1
:101b680022003a00e04f51000a00320022e58000ce
:101b7800cf91de0009407800fd020700a0cb880065
:101b880003002100080178008a0078000900780025
:101b98001e00370014017800030020000940780077
:101ba8000103070003002100090178008200780082
:101bb8000200780015003700e78f52000b003a004a
:101bc800e04f510006003200a41cf8007419f90017
:101bd80003002100080178008a00780044ff3700dc
:101be8001402780024e588003eff37000300210036
:101bf800080178008a0078000300370003002100fc
:101c080008017800419721000080eb005a00070086
:101c18004f0578004f04be000080fa00000006005f
:101c28003600f800809fbe00829fbe00849fbe00e1
:101c3800869fbe000000fa000368a900a0dcbf0070
:101c4800e14f500003003200e24f500005003a0017
:101c580003003700a07cef00cafe07000100370030
:101c6800a07cef000080fa004f03be004f02be00c8
:101c78004f01be004f00be003600f90000400600cc
:101c88000000fa0000c121000080fa0000000600f0
:101c98000000fa00d2e48000e00f510003003a008f
:101ca80052e48000e00f5100faff3c0053e480004a
:101cb80042c0b300e08f51001800320003c1210078
:101cc800934178000304b20012c121001241780048
:101cd8000200320083002000030037000281fb006d
:101ce8004211de00230020000002eb0005c12100a4
:101cf8000400370003834200165878008301e80087
:101d08000402e800810f5200faff390010dcbf001e
:101d18006f0060000100320052c0b300024078003a
:101d28000080fa00000006000000fa001000200001
:101d3800c0e488000080fa00000006000000fa00f5
:101d48000000eb000080fa00000006000000fa0026
:101d5800b1e48800a0e488000188a8002188a800d0
:101d6800000021000141800080806000fdff3a00f2
:101d78000080fa00000006000000fa00e00f5100a1
:101d880004003200e20f510002003200e40f51005b
:101d98000f003a000302780005c8b300055a78001e
:101da8008202d100260020000600dd00055a40000e
:101db8000000eb0002003700315a78000000e8000c
:101dc800820f5000fcff39008280e80012003700c3
:101dd8000302780005ccb300055a7800005a780051
:101de800000aeb00648041000008eb00b201980093
:101df800688241000000eb0002003700315a780089
:101e08000000e800820f5000fcff39006b01410020
:101e1800c0ff2f008000610003007800cbff07009f
:101e28000080fa00000006000200fa00889fbe0049
:101e38008a9fbe004ebc9700efc4620061456200f5
:101e48005b0020008b55dd008bc5440088047800ba
:101e58000accb3008adc45006ac6b3008a5c780005
:101e68004800dd00000cb3004a11dd0002007000dc
:101e7800471ddd000a007000850270004525dd0061
:101e88008a8c720021049800330498008100200095
:101e9800e00f520008003a00010044000300370038
:101ea80084004300115878000402e800830f5200b0
:101eb800fbff3900e8804100e380400057e48800d8
:101ec8009a3cef008e3cef00903cef00c0ff2f00e3
:101ed8008080600008007800030f78009bff0700ef
:101ee8009e0078000800780069ff07004f05be00d3
:101ef8004f04be000080fa00000006000200fa004d
:101f0800881f7800010478006f40600001ccb3009e
:101f18000143400061406100510020008100dd0064
:101f28000800780001584300934090000158780059
:101f3800a34090008180fb00334390004833dd00cc
:101f480001087300c34090008180fb00534090005b
:101f58004800dd000100700020049800e340900074
:101f68008180fb00734090004800dd000100700094
:101f78003004980081002000e04f51000e003a0024
:101f8800010144000000eb0003003700808042009c
:101f9800115978000000e800634390000683fb00b5
:101fa800f3409000c808dd0086807000810f500063
:101fb800f6ff3900e8804000e380400054e48800e0
:101fc8009a3cef008e3cef00903cef00c0ff2f00e2
:101fd8008080600008007800030f78005bff07002e
:101fe8009e017800e34090008180fb0073409000e0
:101ff8004800dd00810070000800780024ff070019
:102008004f0478000080fa00000006000000fa0083
:10201800889fbe008a1f78000004780001057800b8
:102028008a0478000930b200c74cde000a00780044
:102038000070a000000c78000a0078000002b200ce
:102048002100200009003a00810044000300370005
:1020580000024100945878000000e800890f500001
:10206800fbff35008980e8008004eb0053e488001a
:102078009a3cef008e3cef00903cef00080078009f
:1020880032ff0700700565000040eb0002003a00cf
:102098000800be00fefe07004f0578004f04be0092
:1020a8000080fa00000006000000fa00ca08dd00ff
:1020b8004800dd00808070004711dd0082807000dc
:1020c800c519dd0083807000848070008601780067
:1020d8000501780007007800ccff07000080fa00af
:1020e800000006003200f800881f78000820200051
:1020f80098018800000000004f0478000000fa00f2
:102108000828a9002222a9000080fa003200f9005c
:1021180000400600809fbe00829fbe00849fbe00d4
:10212800869fbe00889fbe008a1f78003200f80094
:102138000020200090018800000000000000fa0044
:102148000168a9000ac121001200200025c0b300bf
:1021580002427800c9ff2f00a80020005e00370067
:102168003311800070e4800081e4800000034500a2
:10217800034b780076042000860f5000e08f58004b
:1021880004003e0061034000e083480076e48800d4
:1021980087e4880010dcbf004c003b0076e4800038
:1021a80087e48000e10f5300e08f5b0011003a00e4
:1021b8000080fb00800178000304b2008100200049
:1021c80001003a0021002000f1e488008000780036
:1021d8000102b20010c0b300010032000040eb0061
:1021e8009cfcb70010e58000e00f500001003200b1
:1021f80068e488009cdcbf0014003200f3e480002f
:102208006118b90076e4800087e48000800f5300ed
:10221800818f5b000d003a0010dcbf000004b200a3
:1022280004003200b0e08000630040000900600054
:102238000300370011dcbf006300600000004000ad
:1022480083014000f3e488009c7cef00f0e4800008
:10225800cf80de0076e4800087e48000800f5300a2
:10226800818f5b001c00390010e58000e00f5000f2
:102278001800320010dcbf000080fb00ef00600097
:1022880023e58000838f50000a003a000004b20062
:10229800040032000002fd00a0fcb7000002fd00af
:1022a800050037008002fd00a0fcb7008002fd0099
:1022b80001003700d2e488008e3cef00903cef002c
:1022c8008c3cef009c7cef0003003700ed8f510041
:1022d80001003a00d2e488002202ab00a0ff3a00d5
:1022e8000080fa003200f9004f0578004f04be0064
:1022f8004f03be004f02be004f01be004f00be009c
:1023080000400600809fbe00829fbe003200f80099
:102318000020200090018800000000000000fa0062
:102328000188a900210020000f003700a0e48000e8
:10233800b04178000381fb0022118800a0e48800e6
:10234800963ced00b0e48000e00f500006003a0033
:102358002188a9000188a900c0e48000e00f50008e
:102368000100320091e48800121180004911de005a
:10237800004180004c00de00610161000281ea003a
:102388006100600000006100e8ff3a000080fa0088
:102398003200f9004f01be004f00be0000400600a9
:1023a8000000fa0050e48000e00f50000100320005
:1023b8008a3ced002168a900000000000000000030
:1023c800000000000000000060e48000e00f500002
:1023d800050032000000e90060e4880002003a00cd
:1023e8008e3cef00903cef002168a80090e480004c
:1023f800e00f5000040032000000e90090e488007b
:1024080001003a000000fe000080fa00000006000b
:102418000000fa000001780014e0800025e0800048
:10242800a50288004211dd00cf91de0002014200c2
:1024380083814a001203ba001280ba006201410087
:10244800e08149001202ba001281ba00050020009a
:10245800c022dd00040020006131b800821842006b
:1024680083904a000080fa00000006000000fa008d
:10247800014278004200dd00cf80de0016e08000d7
:1024880027e080000000430081804b00613988000c
:1024980050398800a00f2000a00288000482fb00a9
:1024a8000410b1000000eb000208bb000488bb0068
:1024b800210020000080eb008308bb008088bb005f
:1024c800100024004039880011028000c508de0091
:1024d800e7c06000000e20004220b7000700fc00a3
:1024e8005005200070398800a00a20007039880043
:1024f80029e7a80000000000000000004039800023
:10250800e00f5000fdff3500678060004500dd00ea
:1025180012028000f1f12f008100610080807000bc
:10252800110288000080fa00000006000e00fa0080
:10253800889fbe008a9fbe008c9fbe00204f9800d7
:102548000204be000002eb000080fb000000e8006f
:10255800400798001100370061c02100040078008e
:1025680064079800aaff07006e029000e14f400040
:10257800100032000080fb00ce009000810f500058
:1025880005003a006011b8008040eb0004007800b4
:10259800b6ff07006e0290000402e8006126b90049
:1025a800fadf80000be080008a0f56008b8f5e00f8
:1025b800e9ff39008a0f56008b8f5e002f003a0022
:1025c800c02c280007000900305f78008e00b10099
:1025d8000004eb000a0037004240dd00cf80de0037
:1025e80012e0800023e08000000041008180490063
:1025f8008e017800820020006cf807000804e800cb
:102608006140b900f2df800003e08000820f5000d3
:10261800838f5800f0ff39008e0178000001eb002d
:102628000080eb008080eb0060f807000005eb00fd
:102638000a04780049b021001c03200008804400e7
:102648008040eb0090cf1000080032004240dd00cf
:1026580061b32100008040008840e8001001be00fe
:102668000a00780081ff07000a05e8000804e8006e
:102678008c0f5400f1ff3400050037002e489000fd
:102688008040e8000801be000400780077ff0700da
:102698004f06be004f05be004f04be000080fa0082
:1026a800000006000400fa00889fbe008a1f780018
:1026b80010e0880021e08800f2df880003e088004d
:1026c8000000eb0044b0210011032000800242000a
:1026d800804aeb000000e800810f5000fbff340047
:1026e8000004eb004ab0210019c0b30017003700fe
:1026f800a1c0210008007800020f78001307980095
:1027080043ff0700804078001e0178009e0190007a
:10271800e1cf400011003200e0cf50000a00320043
:102728008180fb008100e90001004500094878002c
:10273800c208dd0060b321008100400054e0800041
:1027480065e080008488be000804e8006140b900a4
:10275800820f5000838f5800e5ff39000800780089
:102768004f0578004f04be000080fa000000060004
:102778000000fa000080fb0041b02100808040008a
:102788000042eb00914f1200040032004200dd00cd
:1027980061b32100008040001001be000200be00ad
:1027a8000080fa00000006000000fa008080fb00ac
:1027b80044b02100010242008042eb0094cf120095
:1027c80006003200420add0065b32100048242009f
:1027d800b40f1100a48f190009003200420add006d
:1027e80065b3210004824200028abe0044b0210081
:1027f8008100420014c0b300844878004bff0700f2
:082808000080fa000000060048
:020000040000fa
:10281000741c000016000000820000000000000090
:102820000000000000001100001200001400180059
:102830000003000001000000000000000010000084
:10284000720900008000000074190000900100006f
:1028500080000000a01c00000600000082000000b4
:1028600000000000000e00008a1c0000160000009e
:1028700080000000101c00004800000080000000e4
:10288000aa1c00000010000080000000581c00007e
:102890001c00000082000000000000000033000067
:1028a0008700e70000ff00003f00f7000033000052
:1028b000ff00000000000000ffffff00ff0000001d
:1028c000a61c00000400000080000000041b0000a3
:0c28d0000a010000800000000000000071
:020000040000fa
:020000040002f8
:040ffc000000fe00f3
:020000040000fa
:020000040002f8
:101000001000fa00889fbe008a9fbe008c9fbe0021
:1010100013102000040021000380fb0001002000c9
:10102000c000dd000000200004004000e080480017
:10103000a10288001001ba001080ba00012020002f
:10104000810f510002003a00e44f500001003200cd
:101050000000fe00f10f200001816100030020006c
:10106000c011dd000200200004014100e0814900c0
:10107000101020000100600001002000c000dd0011
:10108000000020000480200004004000e0804800b0
:10109000800f5100818f59000300310062079800d2
:1010a00073079800020037006007980071079800e6
:1010b0006033b80013102000530798000a00210085
:1010c0004a0798008a0078006108b8002007980055
:1010d000310798000382fb0005002000c021dd00dd
:1010e00002002000028fbe00730037002e05900022
:1010f000be0590000a0043008b804b001e01be001d
:1011000000054100818549008002eb00405cde0063
:10111000090020000706780006007800a802880071
:101120008a8042001102ba009181ba00ac028800a4
:10113000808042001101ba009180ba00820f5200f3
:1011400007003a00818f510005003a008582e800cf
:10115000f37f2000838f5200f0ff340052003700ed
:1011600031002400413988006c39880050398800ea
:1011700011028000c508de00e7c06000000e2000fc
:101180004220b7000700fc0050052000703988009d
:10119000a00a20007039880029e7a800000000009c
:1011a00000000000030028004239800003016100b4
:1011b000fdff3a00e7806000c508dd0013028000f3
:1011c000f4f12f0084816100818071001102880098
:1011d0008202780005047800fd0720002c0024001e
:1011e000840478004828dd00cf80de000000430042
:1011f00081804b0061398800503988008001eb0004
:10120000030278006140b9000000450081804d0074
:10121000a10288001001ba001080ba00a10f2000be
:10122000a1028800020abb00008abb008301e8001b
:101230000884e8000482e8008d8f5100f1ff34003b
:101240004c398800100280004500de00e740600055
:10125000000e20004220b7000700fc0050052000cf
:1012600070398800a00a20007039880029e7a8009a
:10127000000000000000000040398000e00f500036
:10128000fdff3500678060004500dd001102800031
:101290008980600000807000100288008502e800ec
:1012a000e78f5200cfff34000080200001002000b3
:1012b00006034000878348006e019000fe01900005
:1012c000820f5300838f5b0088ff3900f00f2000ee
:1012d000de0190000084610009002000c044dd00b0
:1012e000080020004e0590000a044400e0844c00f1
:1012f0006011b80006002100070020001410200033
:101300000002620005002000c022dd000400200071
:101310000406be00420037000600410087804900f5
:101320000000460081804e00400dde000b002000d2
:101330000a027800aa0288008002eb006c0798007d
:101340007d0798000606be000203be00612db900ad
:101350000a0540008b8548009a01ba001a85ba0038
:10136000e18f41000b003a00e10f450009003a000f
:101370008582e800fb7f20008b8f5200f3ff340052
:101380000601be000c03be006e069000fe06900033
:101390001f0037000601be000c03be006e06900061
:1013a000fe06900035002400453988006439880025
:1013b0005039880011028000c508de00e7c06000d7
:1013c000000e20004220b7000700fc00500520005e
:1013d00070398800a00a20007039880029e7a80029
:1013e000000000000000000040398000e00f5000c5
:1013f000fdff3500678060004500dd0014028000bd
:10140000f1f12f00810062008080700011028800dd
:10141000008020000100200002014000838148007c
:10142000880f5100898f5900bbff39000000fe0072
:101430004f06be004f05be004f04be000080fa00fc
:0414400000000600a2
:020000040000fa
:020000040040ba
:080000000000000006000000f2
:020000040000fa
:0200000401f009
:04000800cfff000026
:020000040000fa
:0200000401f009
:04000c0078ff000079
:020000040000fa
:0200000401f009
:040010005aff000093
:020000040000fa
:0200000401f009
:040014007fff00006a
:020000040000fa
:0200000401f009
:04001800ffff0000e6
:020000040000fa
:0200000401f009
:04001c00dfff000002
:020000040000fa
:0200000401f009
:04002000cfff00000e
:020000040000fa
:0200000401f009
:0400240000000000d8
:00000001FF
