:020000040000fa
:080000000002040000000000f2
:020000040000fa
:100400000f3321000e7f22000e0188000000000043
:100410000c00070080b1210001002000110007003e
:10042000000020000000e000020032000000020096
:10043000000000006e170200000000000040da001b
:100440000000fe004440a900800620000000e000fb
:100450000300320000002000a00188004440a800f2
:100460000000060091018800800078000000eb0089
:1004700015003700e280400032a0b4009101ba00bc
:10048000e280400032a0b4009102ba00e280400055
:1004900032a0b4000002eb00472bde00f507b200eb
:1004a000602ce10004003a000059eb008301e900f0
:1004b000fdff3e00040037006128e100010032002a
:1004c0000082eb00040007001101ba000200e00006
:1004d000e8ff3a00000006003159ba008301e90044
:1004e0000c0032002159ba008301e90008003200f3
:1004f0000400e00003003a00e280400032a0b400b3
:10050000f5ff370011d9ba008301e900faff3a007c
:100510008100e800e180400032a0b4000000060045
:1005200000000000000000000000000000000000cb
:1005300000000000000000000000000000000000bb
:1005400000000000000000000000000000000000ab
:1005500000000000000000000040da000000fe0083
:020000040000fa
:0497fc000000fe006b
:020000040000fa
:10980000f8874700889fbe008a9fbe008c9fbe00dd
:109810008e1f7800020020000281fb000300200060
:10982000c011dd0002002000000025000000410002
:10983000e0804900910188009001ba001081ba00cf
:1098400000202000808f510002003a00e44f5100b8
:10985000010032000000fe00f30f20000000200095
:109860000300600001002000c000dd0000002000b7
:109870000200250002024000e082480000002000b3
:109880000300600001002000c000dd000000200097
:1098900002c0240002004000e0804800800f520017
:1098a000818f5a000300310084b79f0095b79f0055
:1098b0000200370080b79f0091b79f006044b80056
:1098c00000002000f0b79f000100250081bf9f002d
:1098d0006101b800b2b79f00c3b79f008280fb0050
:1098e000000020000fb9970002004000e08048000f
:1098f000d0b79f00e1b79f004d0037005fb09700e1
:10990000efb0970008054000898548008a0178007b
:10991000080178004fb79700405ede000d00200080
:10992000404bde0007002000a6b79f009c01880086
:109930009300ba009382ba00960188001200ba0020
:109940001282ba00808f500009003a00848f5200c2
:1099500007003a000e87e8008381e8000281e800f2
:1099600000402000800f57002d003200efff37002d
:1099700020042400003b8800afb0970091018800cc
:10998000080cbb000700fc0050052000303b88009d
:10999000a00a2000303b880061e7a800000000001a
:1099a000000000000006eb001e0024000d40200017
:1099b0000c037800070420006132b9000a0042005d
:1099c0008b804a00910188009001ba001081ba0092
:1099d0000802420089824a0095018800030abb0000
:1099e000028abb000683e8008703e900f2ff3a0021
:1099f0000e3b88000700fc0050052000303b88002b
:109a0000a00a2000303b880061e7a80000000000a9
:109a1000000000000c08b0008d0f5600e4ff3a0073
:109a20000040200001002000080440008984480014
:109a30000fb197009fb19700820f5400838f5c0095
:109a4000aeff3900efe997000380fb000100200022
:109a5000c000dd00000020000fb9970002004000a8
:109a6000e0804800e0af9f00f1af9f006033b80096
:109a7000000020006105b8008a80fb000000200083
:109a80000200250002064000e08648002e04240063
:109a9000200037000602460087824e0095018800ac
:109aa0000401be000b047800094020001200ba0037
:109ab0009280ba00e10f400008003a00e18f4000b8
:109ac00006003a000884e80062014100e081490094
:109ad000890f54000b003200f4ff37000e3b880062
:109ae000040abb000700fc0050052000303b880042
:109af000a00a2000303b880061e7a80000000000b9
:109b0000000000000040200001002000060340008b
:109b1000878348006fa99700ffa99700820f530021
:109b2000838f5b00dbff39000000fe004f077800e9
:109b30004f06be004f05be004f04be008f01b100ae
:049b4000000006001b
:020000040000fa
:020000040040ba
:080000000000000004000000f4
:020000040000fa
:020000040001f9
:0457f0007fff000037
:020000040000fa
:020000040001f9
:0457f400fffc0000b6
:020000040000fa
:020000040001f9
:0457f800ae6b000094
:020000040000fa
:020000040001f9
:0457fc00ff3f00006b
:020000040000fa
:10000800ac020000ac020000ac020000ac02000030
:10001800ac020000ac020000ac020000ac02000020
:10002800ac020000ac020000ac020000d41a0000d0
:10003800ac020000ac020000ac020000ac02000000
:10004800ac020000ac020000ac020000ac020000f0
:10005800bc170000ac020000ac020000ac020000bb
:10006800ac020000ac020000ac020000ac020000d0
:10007800ac020000ac020000ac020000ac020000c0
:10008800ac020000ac020000ac020000ac020000b0
:10009800ac020000ac02000090170000ac020000a7
:1000a800ac020000ac020000ac020000ac02000090
:1000b800ac020000ac020000ac020000ac02000080
:1000c800ac020000ac020000ac020000ac02000070
:1000d800ac020000ac020000ac020000ac02000060
:1000e800ac020000ac020000ac020000ac02000050
:1000f800ac020000ac020000ac020000ac02000040
:10010800ac020000ac020000ac020000ac0200002f
:10011800ac020000ac020000ac020000ac0200001f
:10012800ac020000ac02000086170000ac02000020
:10013800ac020000ac020000ac020000ac020000ff
:10014800ac020000ac020000ac020000ac020000ef
:10015800ac020000ac020000ac020000ac020000df
:10016800ac020000ac020000ac020000ac020000cf
:10017800ac020000ac020000aa0b0000ac020000b8
:10018800ac020000ac020000ac020000ac020000af
:10019800ac020000ac020000ac020000ac0200009f
:1001a800ac020000ac020000ac020000ac0200008f
:1001b800ac020000ac020000ac020000ac0200007f
:1001c800ac020000ac020000ac020000ac0200006f
:1001d800ac020000ac020000ac020000ac0200005f
:1001e800ac020000ac020000ac020000ac0200004f
:0801f800ac020000ac020000a3
:020000040000fa
:10020800ac020000ac020000ac020000ac0200002e
:10021800ac020000ac020000ac020000ac0200001e
:10022800ac020000ac020000ac020000d41a0000ce
:10023800ac020000ac020000ac020000ac020000fe
:10024800ac020000ac020000ac020000ac020000ee
:10025800bc170000ac020000ac020000ac020000b9
:10026800ac020000ac020000ac020000ac020000ce
:10027800ac020000ac020000ac020000ac020000be
:10028800ac020000ac020000ac020000ac020000ae
:10029800ac020000ac02000090170000ac020000a5
:1002a800ac020000ac020000ac020000ac0200008e
:1002b800ac020000ac020000ac020000ac0200007e
:1002c800ac020000ac020000ac020000ac0200006e
:1002d800ac020000ac020000ac020000ac0200005e
:1002e800ac020000ac020000ac020000ac0200004e
:1002f800ac020000ac020000ac020000ac0200003e
:10030800ac020000ac020000ac020000ac0200002d
:10031800ac020000ac020000ac020000ac0200001d
:10032800ac020000ac02000086170000ac0200001e
:10033800ac020000ac020000ac020000ac020000fd
:10034800ac020000ac020000ac020000ac020000ed
:10035800ac020000ac020000ac020000ac020000dd
:10036800ac020000ac020000ac020000ac020000cd
:10037800ac020000ac020000aa0b0000ac020000b6
:10038800ac020000ac020000ac020000ac020000ad
:10039800ac020000ac020000ac020000ac0200009d
:1003a800ac020000ac020000ac020000ac0200008d
:1003b800ac020000ac020000ac020000ac0200007d
:1003c800ac020000ac020000ac020000ac0200006d
:1003d800ac020000ac020000ac020000ac0200005d
:1003e800ac020000ac020000ac020000ac0200004d
:0803f800ac020000ac020000a1
:020000040000fa
:10056000f8820000ba820000380900002c0900005f
:10057000fc8200003e0300004d00000075000000fa
:100580006c00000074000000690000002000000002
:100590004300000068000000610000006e000000e1
:1005a0006e000000650000006c00000020000000ec
:1005b0005300000079000000730000007400000088
:1005c000650000006d0000007300000020000000c6
:1005d0004d00000043000000530000002000000018
:1005e000470000006d0000006200000048000000ad
:1005f00004030000090400000902000012000000ca
:100600000101000000c000003209000004000000e9
:100610000000000000000000000000005265000023
:100620007630000000000000504900004300000048
:020000040000fa
:10063000f00f200070248800502488002000200043
:1006400030258800a824ef00f009200080248800cd
:10065000602488008804a80001a020004808de006b
:10066000c02488009424a8009624ef00ac24ef0056
:100670009424a9000001eb00010078000018eb00b1
:100680000018eb000201e800e80f5100fbff3a0000
:10069000d000200050258800010037005224880037
:1006a0008ac4bf00e8406000fcff3a008000fd0003
:1006b000e4e9b700d6e9b7008000fd00d7c9bf0064
:1006c00001007800d7e9b700d8c9bf000100780061
:1006d000d8e9b70094a4a90080a02000804e88002b
:1006e000c829ef00c429ef00ca29ef00d229ef0082
:1006f000c629ef00c229ef0001007800dce9b7004d
:10070000de29ef00000006000001eb008000eb0096
:10071000400720004c0707008284a9000001200048
:1007200000248800000006008284a8000001200048
:10073000502488000001eb008000eb0050072000ef
:1007400041073700aac4bf000018a3000d00320003
:10075000724e80009240900000c8b30080cf5000dd
:1007600007003a00804e80009040900040c8b300df
:1007700080cf500002003a006840400010419800cd
:10078000aa24a900000820005024880000000600c8
:100790000080fb00000040008180fb000100400061
:1007a000000040000281fb00020040004200dd002a
:1007b00001a0200001004000000006008040eb0086
:1007c00001007800bee9b700804e8000114098001b
:1007d000804e80000020a20011409800d649e2001f
:1007e0000f003d00919d2000914078008180fb002a
:1007f000dac9bf004800dd000100700007003200c8
:10080000919d2000914078008180fb00dac9bf00f3
:100810004800dd000100700000000100d6e9a900d9
:1008200000000600e5c9bf000080fb00619e2000bb
:1008300091407800c808dd00808070000504200029
:10084000f0032000808f50000e003e00519e2000db
:10085000914078008180fb00e6c9bf004800dd00c0
:100860008102700010c0b300bf49e20004003200f2
:10087000bfc9bf00e14f500002003a0020c0b300e2
:10088000bfe9b700824e800012409000c828de0009
:100890000140700010419800804e800005487800ab
:1008a000519e2000914078008180fb00e6c9bf0086
:1008b0004800dd000100700005005000519e20003e
:1008c00091407800e5e9b7004800de00619e200015
:1008d00091407800e6e9b700c0962000e04d88001e
:1008e000e4c9bf000002eb008001eb000008a30098
:1008f0001200320025003700e24d8000219e2000ca
:10090000914078008180fb00e3c9bf004800dd0012
:100910000100700030597800e24d8800219e2000cf
:1009200091407800e2e9b7004800de00319e2000e7
:1009300091407800e3e9b7008301e800858f51001a
:10094000edff3a0000000600e24d8000219e2000ed
:10095000914078008180fb00e3c9bf004800dd00c2
:100960000100700030597800e24d8800219e20007f
:1009700091407800e2e9b7004800de00319e200097
:1009800091407800e3e9b7000402e800850f5200c7
:10099000edff3a0000000600881f7800804e8000be
:1009a000104090004600de0061046000d049aa00bb
:1009b000f04e8000e80f500008003a00aec9bf00ba
:1009c0000080fb00b0248800000120009604e200b3
:1009d00001003a0040002000f04e8800bec9bf0070
:1009e000e14f500012003a00c0962000814e800076
:1009f000900098008bff0700bfc9bf00e24f500076
:100a000004003a0041c8b300804e800011409800b5
:100a100008003700814e800080ccb3000804e0005d
:100a20000100320080c8b3009040980001003700f8
:100a300062ff07004f04780000000600c19a200002
:100a40009140780000c8b30080cf50004e003a00bb
:100a500000ccb300e4e9b700afc9bf00e24f5000db
:100a60000f003200e34f500028003200e14f5000e9
:100a700044003a00a0952000219e2000914078007b
:100a8000e2e9b7004800de00319e20009140780086
:100a9000e3e9b700e5c9bf0020c1b3003300370068
:100aa000aec9bf000080fb0000004000812b280081
:100ab00060807800219e200091407800e2e9b70034
:100ac0004800de00319e200091407800e3e9b70045
:100ad000219e2000914078008180fb00e3c9bf0087
:100ae0004800dd000100700010009000519e2000c1
:100af00091407800e5e9b7004800de00619e2000e3
:100b000091407800e6e9b70000000600aec9bf00da
:100b1000e34f500019003e00aec9bf000080fb004b
:100b200000004000012b280060807800219e2000fa
:100b300091407800e2e9b7004800de00319e2000d5
:100b400091407800e3e9b700219e200091407800b1
:100b50008180fb00e3c9bf004800dd000100700098
:100b60001080fb00519e200091407800e5e9b7001d
:100b7000e6c9bf00e669ef0000000600e469ef0087
:100b800000000600e469ef0000000600e4e9a800a8
:100b9000ac24ef00db69ef00aec9bf00dce9b700b1
:100ba000dc49e20003003a0000012000f04e88001a
:100bb0000000060000022000f04e88001200200015
:100bc000c19d2000100020001f0637006c69ef0057
:100bd0006d69ef00acc9bf007f006000e10f5000fd
:100be0000b003200e20f50000b0032000000e0006a
:100bf0001b003a00e4e9a8006c09a800004f80003f
:100c0000e10f500016003a006c29a80014003700cc
:100c1000e4e9a80012003700e4e9a800b049e200c6
:100c200005003500b0c9bf006f0060000000400043
:100c3000819c200004003700b0c9bf006f00600035
:100c400000004000019d200060807800104090006e
:100c50000028a3000200320010c0b3006ce9b70006
:100c6000e449e2000b003d00c0962000219e2000d8
:100c700091407800e2e9b7004800de00319e200094
:100c800091407800e3e9b700e409a80020c0b30070
:100c9000e5e9b700000006000200fa00aec9bf0097
:100ca000e14f50000b003a00acc9bf007f4060002c
:100cb00008003a00e4e9a800adc9bf00e34f5000c6
:100cc00003003a0010002000004f880001003700a8
:100cd000e029ef00ae49e20031003a00acc9bf00a4
:100ce0007f406000e24f50002d003a00b0c9bf00c5
:100cf0006f4060002a003200e4e9a800b049e20039
:100d000005003500b0c9bf006f0060000000400062
:100d1000819c200004003700b0c9bf006f00600054
:100d200000004000019d2000e0807800f1bf9f009e
:100d3000adc9bf0041c8b300e34f500016003200f8
:100d4000b0c9bf006f00600000004000a14a200051
:100d5000010040001010a100ffb89700b049e20068
:100d600007003d000040eb00904098006ff89700ae
:100d70000024a200e0ff9f0001c4b300060037007a
:100d800080c8b300904098006ff897000024a2003c
:100d9000e0ff9f0081ccb3007fb89700114098001e
:100da0000080fa0000000600acc9bf000046b20097
:100db00038003a00adc9bf000080fb0001002000f0
:100dc000eb0f5000e08f580032003e000060010041
:100dd00013003700130037002e00370011003700d2
:100de0002c003700060037000900370025003700c7
:100df00009003700070037000b0037001a003700e2
:100e0000e4e9a80080002000f04e88000000060001
:100e10000aff37005dff3700c09d20000600370045
:100e20006aff37009cff3700b0c9bf000080fb009d
:100e3000b19d200001004000219e200091407800db
:100e4000e2e9b7004800de00319e200091407800c2
:100e5000e3e9b700e409a80010c0b300e5e9b70072
:100e6000e4e9a80000000600e4e9a800b0c9bf005a
:100e70000080fb00b19d2000e29a200012f0780073
:100e8000000006000001eb008000eb0020002000c5
:100e90006d05070000000600804e80000048eb0052
:100ea00081ccb300804e8000114098000000060005
:100eb00001c4b300604e800001487800614e80009c
:100ec000c09a200090009800c0c8b30090409800dd
:100ed00041c8b300804e8000114098000000060019
:100ee0000200fa000080fb00800140000180fb004e
:100ef000008041004300dd0002a02000020140000c
:100f0000f2bf9f000104e00006003a00809c200030
:100f100080804100409c20001100e00006003a0063
:100f20000c003700009d2000808041001100e0008f
:100f300008003200009c2000630078000000e00000
:100f4000010032008008780091007800f1bf9f0016
:100f50000100370082087800ffb897001140900028
:100f60000074a10090409800ffb8970011409000d5
:100f70000064a100904098006ff897000024a20040
:100f8000e0ff9f00ffb89700114090000074a1009f
:100f900090409800ffb89700114090000064a000b6
:100fa000904098000080fa0000000600889fbe0074
:100fb000004478000080fb0000004000a24a2000ae
:100fc000017079008184fb000938a300030032001e
:100fd0008040eb0008407800c1ff07000928a3000b
:100fe0000300320011c0b30008407800bcff0700c6
:100ff0004f04be0000000600014178000004e0003c
:101000000c003a0001c4b300604e80000148780033
:10101000614e8000c09a200090009800c0c8b300c4
:101020009040980041c8b300804e80001140980065
:10103000000006008080fb00818040000280fb00f1
:1010400080804000c308dd0002a020000281400033
:101050001240900043c8b300034070001041980054
:1010600040a02000808040001140900003407000ac
:1010700090409800000006000080fb000104e000a2
:101080000300320080004000009d20000200370075
:1010900080004000809c200061007800104090009b
:1010a0000000fb000080ea004f00de0000000600a8
:1010b000004378008082fb00814378000104e00057
:1010c0000300320085804200009d200002003700ae
:1010d00085804200809c2000610278008682fb00af
:1010e00012029800144090000044b2001042980090
:1010f000f33fb20000c02f00140a6000148a710090
:101100001440900081c8b300014070001042980064
:101110000704e0000300320005804200019d20002a
:101120000200370005804200819c20000100400041
:101130001024a2000400780000000600804078001f
:1011400094c4bf000058a300180032000181fb00c6
:1011500002014100009d2000000141009201780041
:101160001300be0004042000000062000100200003
:101170008089be0092017800000420000100200058
:1011800093196800939168001224a20092007800dd
:10119000114090000044b200904098009200780006
:1011a0001140900004406800904098000000060044
:1011b0000000eb00a024880060248800f04e880026
:1011c00000000600f14e80000100e00015003a002a
:1011d000a124880061248800200020003025880098
:1011e00041258800f00920008024880060248800c0
:1011f000cfc0bf0081cfb300014060000014a00049
:10120000cfe0b7009ec0a800010037009404a800fa
:1012100094c4bf000008a300fcff320010002000af
:10122000f04e88000000060094a4a900e449e20002
:1012300023003500d649e20017003d0020c0b3006e
:10124000bee9b700219b2000914078008180fb001f
:10125000b3c9bf004800dd008100700005003a00fe
:10126000804e80000148780081ccb300804e800021
:101270001140980001c4b300604e8000014878001e
:10128000614e8000c09620009000980080ccb30092
:10129000904098000000060001c4b300604e80003a
:1012a00001487800614e8000c09a200090009800ac
:1012b000c0c8b3009040980041c8b3003700370061
:1012c000d649e2004e003500ac49e20036003d0050
:1012d000b2c9bf000080fb00329b200012417800a1
:1012e0004811dd0000017100519e200091407800fe
:1012f0008180fb00e6c9bf004800dd0001007000ee
:10130000800f51000d003100219b2000914078009a
:101310008180fb00b3c9bf004800dd000100700000
:10132000519e200091407800e5e9b7004800de00ba
:10133000619e200091407800e6e9b70039fd070082
:1013400010c0b300bee9b70003c4b300604e800014
:1013500003487800614e8000c29a200092009800f5
:1013600000c8b30090409800b829ef00704e80008c
:1013700003487800714e80009200980040c8b30086
:101380009040980010002000c04d8800c1962000b9
:10139000804e80001100980081ccb300804e800008
:1013a000114098000000060020c0b300bee9b7005d
:1013b000219b2000914078008180fb00b3c9bf00d1
:1013c0004800dd008100700005003a00804e80007a
:1013d0000148780081ccb300804e80001140980015
:1013e00001c4b300604e800001487800614e800067
:1013f000c09620009000980080ccb30090409800e8
:1014000000000600814e8000114090000004e000c2
:1014100002003d000040eb0090409800bf69ef00e3
:10142000be69ef00e5c9bf00e569ef00e6c9bf008e
:10143000e669ef00e469ef00d7c9bf00d769ef00a4
:10144000d8c9bf00d869ef00d669ef00d9c9bf007d
:10145000d969ef00dac9bf00da69ef0052fe070070
:101460000001eb008000eb0030002000f6030700d5
:10147000d6c9bf000058a30004003a00e4c9bf0069
:101480000058a30001003a0067ff070000000600b3
:10149000d649e2000c00350001c4b300604e800064
:1014a00001487800614e8000c09a200090009800aa
:1014b000c0c8b3009040980041c8b300804e80007f
:1014c0001140980000000600804e80000048eb00ac
:1014d00081ccb300804e800011409800d6e9a9006d
:1014e00000000600704e8000104278000481fb006e
:1014f000719d2000914078008180fb00d8c9bf0019
:101500004800dd0001007000800f5100050036002a
:10151000d7c9bf00819d200091407800004278002b
:101520000e003700719d2000914078008180fb0003
:10153000d8c9bf004800dd00010070000200500063
:10154000719d200091407800d7e9b7004800de0087
:10155000819d200091407800d8e9b7008001eb0020
:10156000c596200010003700419d20009140780072
:101570008180fb00d5c9bf004800dd00010070007c
:101580008280fb0061d87a00419d20009140780064
:10159000d4e9b7004800de00519d2000914078005a
:1015a000d5e9b7008301e8000341780084cf5100fa
:1015b000edff3900624e8000719d2000914078005f
:1015c0008180fb00d8c9bf004800dd000100700029
:1015d0000e00320000c4b30000497800614e800064
:1015e000c096200090009800704e8000104090003f
:1015f0000068a30002003a0080ccb300010037006d
:1016000080c8b300904098000000060000c4b300fa
:1016100000497800614e8000c09a20009000980038
:1016200040c8b30090409800d6e9a900d6a9a90007
:10163000919d2000914078008180fb00dac9bf00b5
:101640004800dd000100700007003200919d20007d
:10165000914078008180fb00dac9bf004800dd00be
:101660000100700000000100d6c9bf000058a300af
:1016700001003a0086ff070000000600bec9bf0057
:10168000e24f500001003a0096ff37004bfc070084
:10169000b809e20009003a0001c4b300604e8000be
:1016a00001487800614e8000c09a200090009800a8
:1016b000c0c8b3009040980000000600b829ef00b1
:1016c00000000600bac9bf0000027800b40fb200e3
:1016d0001a003a00bac9bf00c00fb20001a0200032
:1016e00001014000724e8800624e8800cc49aa0079
:1016f00012409000c043b20041c3b300814f50007c
:101700000d003a0092019000c0962000808f510099
:1017100008003a00c09a2000100198008400780068
:101720000301780062f078008100e800e88f500043
:10173000fcff3a0033ff3700d0ff3700bac9bf00c3
:10174000b00fb200e80f500001003a0092fc070011
:10175000000006003600f800809fbe00829fbe0099
:10176000849fbe00869fbe00889fbe008a1f7800af
:101770003400f80000002000a0018800f04e800036
:10178000e10f500009003a0094c4bf000068a300b4
:1017900006003a00f00f2000502488008c04a800b6
:1017a0008c84a80020002000f04e880080c4bf0078
:1017b0000048a3000600320082c4bf000048a30016
:1017c000030032000001200000248800cefb070047
:1017d00088c4bf000018a3006f003a008ac4bf008d
:1017e0000008a300110032008cc4bf000008a30051
:1017f0000e0032008efb070040002000f04e8800f3
:10180000c09a20001050880000c4b30000eab7005e
:1018100001cabf006340600001eab700c0c8b3005e
:10182000016ab70010002000502488008ac4bf005d
:101830000048a300060032008cc4bf000048a3008b
:1018400003003200b8fb070000012000502488008c
:101850008ac4bf000028a300090032008cc4bf0066
:101860000028a30006003200120020008000eb00d8
:1018700030072000f40207004000200050248800b8
:101880008a44e20003003d008c44e20001003d0078
:10189000acfb07008ac4bf000018a3000b00320095
:1018a0008cc4bf000018a300080032001200200002
:1018b0008000eb00f0ff2700e3020700f00f20009c
:1018c000702488002000200050248800f04e800002
:1018d000e30f5000300036008cc4bf000038a30076
:1018e0002d0032000045eb008ac4bf000038a30081
:1018f0002900320090248000bae9b700800020005f
:1019000050248800bac9bf00000fb20002003a009c
:101910006cff07001d003700bac9bf00000fb200fe
:101920004480de0080447800a89b200018447800a2
:101930006804640043c4de00a29b200012417800ca
:10194000640161004291de000204a2008840780038
:101950008ffb0700000178000980fb000804e0000d
:1019600003003a0080004000409c20000200370045
:1019700080004000009c2000823078000001eb00d5
:10198000a19b200020072000af0207000a45e800c5
:10199000e44f5500d4ff3a008ec0a9003400f9008e
:1019a0004f0578004f04be004f03be004f02be003b
:1019b0004f01be004f00be003600f9000040060097
:1019c000eceab700c0ae2000219e200091407800d4
:1019d000e2e9b7004800de00319e20009140780027
:1019e000e3e9b700e409a800e5c9bf0010c0b300ef
:1019f000e5e9b700e6c9bf00e669ef00e4e9a80041
:101a000000000600c1ae200060578800e2c9bf0098
:101a100001007800e2e9b700c808de00e3c9bf00b2
:101a200001007800e3e9b700e409a800e5c9bf00b8
:101a300020c0b300e5e9b700e6c9bf00e669ef00e2
:101a4000e4e9a80000000600c2ae2000605788004c
:101a500071578800e2c9bf0002007800e2e9b700d0
:101a60004811de00e3c9bf0002007800e3e9b700d7
:101a7000e409a800e5c9bf0040c0b300e5e9b7002c
:101a8000e6c9bf00e669ef00e4e9a800000006002f
:101a90000001eb00f4032000c3ae20000200370079
:101aa00001f179000201e800e04079000104e00062
:101ab00002003200840f5100f9ff3a00c1ae20004d
:101ac0000040eb0000f178000200e800229e2000b8
:101ad000124178008000fd00e2e9b7008000fd00bf
:101ae000c808de00329e2000124178008000fd0010
:101af000e3e9b7008000fd00e409a800519e200042
:101b000091407800e5e9b7004800de00619e2000c2
:101b100091407800e6e9b700e4e9a800000006007b
:101b20000101780001042000810f510001003600fe
:101b3000010178008000eb00c3ae200002003700f6
:101b4000e0f178008100e800828f5000fcff39004e
:101b5000e2c9bf0003007800e2e9b7004818de00e0
:101b6000319e200091407800e3e9b700e409a80025
:101b7000e5c9bf0002007800e5e9b7004810de00c3
:101b8000619e200091407800e6e9b700e4e9a800f2
:101b9000000006001400fa00020020000281fb0091
:101ba00003002000c011dd000200200000402a00d8
:101bb00000004100e0804900f4815700a2002000ad
:101bc0003802070010002000f48057000f01780051
:101bd0008081eb00918f1100010032000000eb00ca
:101be000e4804000828f5000f9ff3a000000e000de
:101bf0000600320074805700820720000208780037
:101c000064004000810f5000fcff3a00e292200087
:101c10000000eb00f480570011317800e4804000b0
:101c20000080e800ea0f5000fbff3a000080fa0055
:101c3000000006001400fa00000020000080fb00f5
:101c400001002000c000dd000000200002402a004a
:101c500002004000e0804800e492200074815700b8
:101c60008082eb008f01780034097800150198001c
:101c700064014100830f5100fbff3a00f4815700db
:101c800042012000b1020700f48157000001eb007f
:101c90000080eb008080eb005e0207000080fa000d
:101ca00000000600e2922000540020008281e8003b
:101cb0000100e00002003400300978000100370024
:101cc0000009eb00030178008180e9000402e900cb
:101cd000f6ff3a00d7ff37001000fa00889fbe00d9
:101ce0008a1f7800000278000105780008002000b3
:101cf000090020008881fb000200200000402a002b
:101d000000004100e08049004321dd0070014100f6
:101d1000cf91de000000410081804900f68157002c
:101d200082002000df01070009007800f6805700dc
:101d300011357800e48040000080e800e80f500092
:101d4000fbff3a004f0578004f04be000080fa0008
:101d5000000006001000fa000003780002002000d6
:101d60000281fb0003002000c011dd000200200002
:101d700000402a0000014100e081490070805700c6
:101d80008082eb000f02780031087800150098007f
:101d900064004000840f5000fbff3a004330dd0038
:101da00070004000cf80de000200400083804800c9
:101db000f08157000201200064020700f081570003
:101dc0000001eb000080eb008080eb0011020700b7
:101dd0000080fa0000000600b2c9bf000080fb00ce
:101de000319b200091407800c808dd0080807000a1
:101df0008100d100c0ae2000aaff0700d6e9a800ec
:101e000000000600881f7800e29a20001241780046
:101e10000281fb00afc9bf004800dd000200700076
:101e200001002000c000dd0000002000625780009b
:101e300002024000e0824800219b2000914078008f
:101e40008180fb00b3c9bf004800dd0001007000c5
:101e50000081e900e10f4200e08f4a0009003a00ea
:101e600000ceb3004260b70094c4bf00e3ae2000d0
:101e70000400be00e70107001e0307000000fe008b
:101e80000f00370028042000184478000884fb0065
:101e90004544de0000ceb3004260b7008500d100ab
:101ea0000480d300e3ae2000470207004544dd0074
:101eb00042c0bf007f4060000840700042e0b700b1
:101ec000d6e9a8004f04780000000600019b20001e
:101ed000914078008180fb00b1c9bf004800dd005f
:101ee00001007000c1ae20009aff0700d6e9a800eb
:101ef000000006000000060000000600ea2aec00d0
:101f00000000060000000600acc9bf000046b20099
:101f100001c4b300814f500035013a00d19a20002e
:101f20009140780000c5b30080cf50007c003200a3
:101f30000f003e006d40500080cf5000a4003200e2
:101f400004003e0000c0e90080cf500027013a00a5
:101f50003700370070c4b30080cf5000cb00320090
:101f60006740400080cf500020013a00a4003700b5
:101f700050c5b30080cf5000ac00320007003e00d7
:101f80006440500080cf50008600320000c0e8005e
:101f900080cf500015013a008200370020c6b30000
:101fa00080cf5000040032000040e80080cf500095
:101fb0000e013a000a003700b0c9bf000080fb00e4
:101fc000119b200091407800c808dd0080807000df
:101fd00020082000808f5000d60032009200370089
:101fe000b0c9bf000080fb00119b20009140780029
:101ff000c808dd008080700020082000808f50001d
:1020000089003a00020020000281fb00030020004a
:10201000c011dd000200200000002500000041008a
:10202000e080490000004000818048007d003700ca
:10203000e19a2000914078008180fb00afc9bf0089
:102040004800dd0001007000e10f5000090032007f
:1020500005003900e20f500014003200e30f500079
:10206000e3003a001c003700a04f8000cf80de0064
:102070006c003700b0c9bf000080fb00119b20003e
:1020800091407800c808dd0080807000a04f80007b
:10209000808f5000d60031004208dd00819f200073
:1020a000010040001000be005e003700b0c9bf0054
:1020b0000080fb00119b200091407800c808dd00e3
:1020c00080807000a04f8000808f5000c8003100d9
:1020d00001804000c2003700b0c9bf000080fb0093
:1020e000119b200091407800c808dd0080807000be
:1020f000a44f80000000eb00859f20006109b8001c
:1021000004003700b50f5100b58f5900b3003200fd
:102110000000e800840f5000faff390000000600bc
:10212000b0c9bf000080fb00119b200091407800e7
:10213000c808dd008080700020082000808f5000db
:1021400039003a00c0ae2000419d20009140780047
:10215000d4e9b7004800de00519d2000914078008e
:10216000d5e9b700219b2000914078008180fb00d9
:10217000b3c9bf004800dd0001007000719d200060
:1021800091407800d7e9b7004800de00819d20002b
:1021900091407800d8e9b700d6e9a80020f02000e7
:1021a00086003700b0c9bf000080fb00119b2000f3
:1021b00091407800c808dd00808070002008200071
:1021c000808f500018003a000000fe00000006005a
:1021d000b0c9bf000080fb00119b20009140780037
:1021e000c808dd008080700020082000808f50002b
:1021f0000d003a00400020000100200009003700d7
:10220000e19a2000914078008180fb00afc9bf00b7
:102210004800dd0001007000f40f500002003a0099
:102220006000b80008fe3700cb033700c0ae2000c6
:10223000419d200091407800d4e9b7004800de00bd
:10224000519d200091407800d5e9b700219b2000e6
:10225000914078008180fb00b3c9bf004800dd00d9
:1022600001007000719d200091407800d7e9b7000f
:102270004800de00819d200091407800d8e9b70039
:10228000d6e9a800c0ee20004c003700e19a2000fb
:10229000914078008180fb00afc9bf004800dd009d
:1022a00001007000e10f500003003200e20f500007
:1022b0004f003a0021003700b0c9bf000080fb008a
:1022c000119b200091407800c808dd0080807000dc
:1022d000d0072000808f500045003e00019b200069
:1022e000914078008180fb00b1c9bf004800dd004b
:1022f00001007000c1ae200077fe0700c0ae2000d4
:10230000219e200091407800e2e9b7004800de00fd
:10231000319e200091407800e3e9b700e409a8006d
:10232000e5c9bf0080c0b300e5e9b700e6c9bf005a
:10233000e669ef00e4e9a80000000600b0c9bf00ac
:102340000080fb00119b200091407800c808dd0050
:1023500080807000d0072000808f500024003e0055
:10236000c0ae2000419d200091407800d4e9b70024
:102370004800de00519d200091407800d5e9b7006b
:10238000219b2000914078008180fb00b3c9bf00f1
:102390004800dd0001007000719d20009140780030
:1023a000d7e9b7004800de00819d20009140780009
:1023b000d8e9b700d6e9a80060f62000919d20007a
:1023c00091407800d9e9b7004800de00a19d2000c7
:1023d00091407800dae9b7000000060000004000f4
:1023e000619f200060807800a9fd37005a03070034
:1023f0000000060000000600889fbe008a1f7800cb
:102400000080fb00c404de006804600043c4de00fa
:10241000640060004285de000a4178008840780050
:1024200009407800daf80700800178000a41780056
:1024300088407800094078007c0407004f05780048
:102440004f04be000000060000017800e30f5000ba
:102450000d00320003003e00e10f500010003a0072
:102460000700370020072000800f51000a003200cb
:102470000000e800800f510009003a000400370016
:10248000b0040700060037009ffe07000400370075
:10249000ea2aec000200370011407800d6ff07005e
:1024a000100005000002be0002034000e083480067
:1024b0000c003700950188001400ba009480ba001f
:1024c000804978004800de0090419800a1419800c2
:1024d000c808de00b1419800e48141006202420078
:1024e000e0824a00860f5200878f5a00f1ff3900c0
:1024f00000000600889fbe008a9fbe008c1f7800e7
:102500000002be0002067800830578004008de0065
:102510000005780090018800040378000001eb00ba
:102520008203780084017800f90f20000820200041
:102530001600ba009680ba00e10f400003003a008e
:10254000f10fb200898f500001003200120020000c
:102550008703e8000683e800888f5300f4ff3a0001
:102560000200e0000c00320020042400003b880040
:102570009a018800040abb000700fc0050052000f7
:10258000303b8800a00a2000303b880061e7a800ab
:1025900000000000000000000003eb000204200027
:1025a00019002400084020009a0188008c03430091
:1025b0008b0243000002eb00b70078003500780082
:1025c0008109bb008099bb000402e800820f520021
:1025d000f9ff3a00093b88000700fc005005200085
:1025e000303b8800a00a2000303b880061e7a8004b
:1025f00000000000000000000608b000880f530033
:10260000e9ff3a004f0678004f05be004f04be00b8
:1026100000000600889fbe008a9fbe008c9fbe00ff
:102620008e1f78000005be00020778008306780040
:1026300000c02f000a0060008b01780000017800c4
:102640000204be00e04f8000f14f8000880f500070
:10265000898f58001d003200e00f5000e08f5800b5
:10266000040035002e2bec0003b3200002f3200001
:10267000a0ff0700e00f5400e08f5c001100350060
:102680002c2bec00990188000802be008001eb00b1
:102690000cf3200007b32000062020009400ba00ad
:1026a0001481ba000380410001307e0002b07b003b
:1026b0008301e80062024200e0824a00868f5100f6
:1026c000f6ff3a00e84f8800f94f88000a007800ca
:1026d000f03fb2000000d1000d0278008002eb0054
:1026e00007f3200006b32000110037000001780036
:1026f000f21fb20082014100144090004800dd004a
:102700009480fb000100400080b17b00b440900049
:10271000c808dd00244090000080fb00808040005d
:1027200081317b00e48242000200e8006402420042
:102730008e8f5200edff39004f0778004f06be0024
:102740004f05be004f04be0000000600889fbe007b
:102750008a9fbe008c9fbe000005be000206be0020
:102760008004eb00120037008a007800f13fb200cd
:1027700000402000010050000000400000047800ec
:1027800009005600880f5000010031000004780055
:1027900089814600080178000a00be009dff0700fd
:1027a0000800d10000054500e0854d008884440004
:1027b0008c8f5400ecff39004f06be004f05be0061
:1027c0004f04be0000000600881f78000003be0012
:1027d00002047800000020000080fb0001002000bf
:1027e000c000dd00000020000200250002004000c3
:1027f000e0804800800f5300818f5b0002003100b1
:10280000060340008783480000002000f00fb2005c
:1028100001002000c000dd0000002000e4bf2a000d
:1028200004024000e082480062024200e0824a0066
:10283000840f5300858f5b0003003100080178008e
:102840000600be00c1ff07004f047800000006002c
:10285000889fbe008a9fbe00000020000080fb0011
:1028600001002000c000dd00000020000200250063
:1028700002014000e08148000200410083804900dd
:1028800062055000e08558000203be006044b800b5
:102890000e003700970188001601ba001682ba00b0
:1028a0000280fb0000004400e0804c004811de0084
:1028b00002014000e08148000482fb000404410062
:1028c000e084490062034300e0834b008a0f530019
:1028d0008b8f5b00efff39000980fb0080017800df
:1028e000080178000200be004f05be004f04be0084
:1028f00000000600f40f2000020020000401610027
:1029000003002000c011dd000200200000002500af
:1029100000004100e0804900000040008180480044
:1029200062005000e0805800910188001001ba0058
:102930001080ba0001002000c000dd00000020006f
:1029400002014000e0814800030262008402780036
:10295000020278000400be0000000600889fbe004e
:102960008a9fbe008c9fbe008e1f78000000200052
:102970000081fb0003002000c011dd0002002000e8
:1029800004002500050020000206420083864a005c
:102990006011b800f00fb20001002000c000dd009f
:1029a000000020000005420081854a002e0424001a
:1029b000210037000203450083834d009701880002
:1029c0000602be0008202000f90f20001400ba0003
:1029d0009480ba00e10f400009003a00f10fb20004
:1029e000898f500006003a000804e90062024200a4
:1029f000e0824a000800e0000b003200f3ff3700dd
:102a00000e3b8800060bbb000700fc0050052000b1
:102a1000303b8800a00a2000303b880061e7a80016
:102a20000000000000000000004020000100200025
:102a300002014000838148008c0f51008d8f5900a6
:102a4000dcff39004f0778004f06be004f05be007f
:102a50004f04be0000000600889fbe00f40f200057
:102a6000000020000400600001002000c000dd0024
:102a7000000020000200250002014000e081480023
:102a8000930188001200ba009280ba000001780019
:102a9000e10f400005003a00f10fb2006011b800ec
:102aa000848f5000100032000d00370000202000fd
:102ab000800f51000a003a00e4cf500008003a00ad
:102ac00063ff07000004be008aff07001200200019
:102ad00003002000800f5400818f5c000200320050
:102ae0009eff07006011b8000200be004f04be0048
:102af00000000600f8874700889fbe008a9fbe003e
:102b00008c9fbe008e1f780051ff07000004be009e
:102b100078ff0700800f5400818f5c0002003200b4
:102b20008eff07008d00370008002000f20f200004
:102b30000202640005002000c022dd000400200025
:102b40000c0025000d0020000402460085824e0086
:102b50000a0020000b0020000a0078000201650036
:102b600003002000c011dd000200200006c0240088
:102b7000070020000201430083814b000202520043
:102b800083825a00e4af9f00f5af9f006011b80048
:102b900082b79f0093b79f00bab79f00cbb79f0043
:102ba000f00fb20001002000c000dd000000200096
:102bb0000000430081804b00d0b79f00e1b79f0029
:102bc000f80fb20009002000c044dd00080020001a
:102bd0000804460089844e00f8b79f0089bf9f0013
:102be000570037000fb097009fb097005fb1970074
:102bf000efb1970000034100818349007fb0970047
:102c00008fb8970006054000878548008a01780044
:102c1000060178004fb79700405ede000d002000ef
:102c2000403cde0009002000a8b79f009c018800fe
:102c30009300ba009382ba00980188001200ba008b
:102c40001282ba00808f500009003a00848f52002f
:102c500007003a000e87e8008381e8000281e8005f
:102c600000402000800f57002d003200efff37009a
:102c700020042400003b8800afb097009101880039
:102c8000060bbb000700fc0050052000303b88000d
:102c9000a00a2000303b880061e7a8000000000087
:102ca000000000008006eb001e0024000940200008
:102cb0000d067800080420006162b9000a00420095
:102cc0008b804a00910188009001ba001081ba00ff
:102cd0000602420087824a0095018800030abb0071
:102ce000028abb000c86e8000804e900f2ff3a0003
:102cf0000e3b88000700fc0050052000303b880098
:102d0000a00a2000303b880061e7a8000000000016
:102d1000000000000d08b000898f5600e4ff3a0063
:102d200000402000010020000fb197009fb19700e4
:102d3000020140008381480082b79f0093b79f0043
:102d40000fb097009fb097006fa99700ffa9970059
:102d5000820f5000838f5800a2ff35004f07780084
:102d60004f06be004f05be004f04be008f01b100ec
:102d700000000600f0bf2f0060198800c522a900de
:102d8000c122a900c482a900c082a900d402a9005e
:102d9000d002a900cc42a900c842a900c3c6bf0006
:102da00001ceb300014060007040b300c3e6b7003d
:102db000d1c6bf00014060000034a000d1e6b700da
:102dc0004302a80042c2a90042a2a80042c2bf001a
:102dd00031ceb300014060000044a00042e2b700e1
:102de00030c0b3004262b70041e2a8004012800048
:102df000d402a900804f80004012880040c2bf006a
:102e00000008a300fdff3200d402a80025c3bf00c4
:102e100002ceb30002406000a040b30025e3b7003b
:102e200010c0b30024e3b70028c3bf000240600015
:102e3000a040b30028e3b70021e3a8002023a800a6
:102e400000e823001008880005e1a800a5c0bf0025
:102e5000f1c8b300014060000044a000a5e0b70045
:102e60008460a9009460a800d7c6bf00024060003b
:102e70003040b300d7e6b70021e2a8002062a900e5
:102e8000330320004311880023c2a8002342a80076
:102e9000aac0bf0081cfb300014060000024a000a1
:102ea000aae0b7009580a900a6c6bf000240600056
:102eb0006040b300a6e6b70031e2a8003062a90086
:102ec000c3118800c5c0bf00014060000024a000fd
:102ed000c5e0b7009c40a80000000600a5ff070061
:102ee0002cfb0700dcfe07000000e00003003200be
:102ef00000ceb3004260b700411a0700ccf50700ce
:102f0000b0f807000140fe00feff3700c482a800b1
:102f10008c40a9003222a900c482a900004006000a
:102f2000809fbe00829fbe00c482a80087c0a90007
:102f3000714f800063a82000320620000600370091
:102f4000b011800080f079008100e800828f50008d
:102f5000010034008000eb0032c2bf000008a30073
:102f6000f7ff3a00714f8800c482a9004f01be00ec
:102f70004f00be0000400600809fbe00829fbe0042
:102f8000841f78008580a900524f8000414f800047
:102f900024a220003306200009003700810f5100d1
:102fa0000a00320061407a000080fb002011880096
:102fb0008100e800838f5000010034008000eb00a6
:102fc00023c2bf000018a300f4ff3200414f880065
:102fd0004f0278004f01be004f00be0000400600c7
:102fe0000001780024a220003306200009003700e9
:102ff000504f800012707a000000e800830f5000ec
:10300000010034000000eb00504f88008100e9000f
:103010000201e8000100e000f5ff3c008580a80007
:103020009580a80000000600b2c9bf000080fb0028
:10303000319b200091407800c808dd00808070003e
:1030400000802000e6ff0700d6e9a8000000060087
:1030500002408000019b2000914078008180fb00ad
:10306000b1c9bf004800dd000100700012003a0045
:1030700042118800219b2000914078008180fb0054
:10308000b3c9bf004800dd0001007000e20f50002e
:103090001a0036002180200091407800e1c06000d5
:1030a000c308dd0020c2bf000034a1000140700051
:1030b00020e2b70011003700c2118800219b2000d8
:1030c000914078008180fb00b3c9bf004800dd005b
:1030d00001007000e20f500008003600218020003f
:1030e00091407800e1c06000c308dd0030c2bf003d
:1030f0000034a1000140700030e2b700d6e9a8001a
:10310000000006000180200091407800e1c06000ce
:10311000c208dd00ccc2bf000024a1000140700045
:10312000cce2b700d6e9a80000000600004080000d
:10313000804f880041128000d402a900401288000c
:1031400040c2bf000008a300fdff3200d402a80067
:10315000d6e9a80000000600d19a2000914078002e
:1031600040c4b30080cf50000400320000c7b30059
:1031700080cf50000b013a0002003700e0302800f9
:1031800043fa3700e19a2000914078008180fb00eb
:10319000afc9bf004800dd0001017000e20f51001f
:1031a0008000320005003e000200e000080032000e
:1031b000e10f5100fb003a0049003700e30f5100d6
:1031c0009e003200e40f5100f6003a00bc003700c8
:1031d000ac49e2002a003d00219b2000914078008c
:1031e0008180fb00b3c9bf004800dd008101700091
:1031f000614f800001007800ee09b50001003b003e
:103200004006b000808f510001003400800178003a
:10321000020078000280200065a82000340620000b
:103220000700370061c37a00067079008100e8006a
:10323000848f5000010034008000eb000000e800a3
:10324000830f5000f7ff3500614f8800e2c9bf00cf
:1032500002007800e2e9b7004810de00319e20004d
:1032600091407800e3e9b700e409a800e5c9bf0090
:1032700003007800e5e9b7004818de00a700370032
:1032800000802000419d200091407800d4e9b700e3
:103290004800de00519d200091407800d5e9b7003c
:1032a000219b2000914078008180fb00b3c9bf00c2
:1032b0004800dd0001007000719d20009140780001
:1032c000d7e9b7004800de00819d200091407800da
:1032d000d8e9b700d6e9a800408121004f003700a7
:1032e000ac49e20017003d00019b200091407800ae
:1032f0008180fb00b1c9bf004800dd000100700003
:1033000004003a00401180000040880020c2bf0045
:1033100003003700c11180000140880030c2bf00a7
:103320004300de0061006000104088000080200043
:10333000219e200091407800e2e9b7004800de00bd
:103340006800370000802000419d200091407800f7
:10335000d4e9b7004800de00519d2000914078007c
:10336000d5e9b700219b2000914078008180fb00c7
:10337000b3c9bf004800dd0001007000719d20004e
:1033800091407800d7e9b7004800de00819d200019
:1033900091407800d8e9b700d6e9a80080822100e2
:1033a0001e00370002802000ac49e20005003d000d
:1033b000ccc2bf004200de006100600000e8b70040
:1033c00044003700d4c9bf0002007800d4e9b70038
:1033d0004810de00519d200091407800d5e9b700eb
:1033e000219b2000914078008180fb00b3c9bf0081
:1033f0004800dd0001007000719d200091407800c0
:10340000d7e9b7004800de00819d20009140780098
:10341000d8e9b700d6e9a80020882100919d2000b6
:1034200091407800d9e9b7004800de00a19d200056
:1034300091407800dae9b70000000600c482a800d5
:103440002023a90020c3bf000008a300fdff320015
:10345000c482a90000802000061880000640880071
:10346000219e200091407800e2e9b7004800de008c
:10347000319e200091407800e3e9b700e409a800fc
:10348000219b2000914078008180fb00b3c9bf00e0
:103490004800dd0001007000519e2000914078003e
:1034a000e5e9b7004800de00619e20009140780009
:1034b000e6e9b700e4e9a8002023a8000000060020
:1034c00002802000ac49e20019003d00804f8000de
:1034d00000408800e2c9bf0002007800e2e9b700be
:1034e0004810de00319e200091407800e3e9b700eb
:1034f000e409a800219b2000914078008180fb0016
:10350000b3c9bf004800dd0001007000519e2000db
:1035100091407800e5e9b7004800de00619e200098
:1035200091407800e6e9b700e4e9a8000000060051
:10353000d4c9bf0002007800d4e9b7004810de000b
:10354000519d200091407800d5e9b700219b2000d3
:10355000914078008180fb00b3c9bf004800dd00c6
:1035600001007000719d200091407800d7e9b700fc
:103570004800de00819d200091407800d8e9b70026
:10358000d6e9a80060892100919d20009140780033
:10359000d9e9b7004800de00a19d200091407800e5
:1035a000dae9b70000000600809fbe008460a90031
:1035b000015180008100e80001518800401f200077
:1035c000808f500002003a00c522a8000500370095
:1035d000803e2000808f500002003a00c522a900e2
:1035e000202aef00904f80000000e0000d00320024
:1035f0000000e900904f88000a003a00b0118000f6
:10360000b0118000b0118000b0118000b3c0bf00c5
:1036100081cfb300014060000024a000b3e0b700f8
:1036200097c0a8004f00be00004006000000060042
:020000040000fa
:10363000e80900000c00000002000000000000008b
:103640000000000000001400000a0000200a000032
:10365000ca00000000000000000800002c0100006b
:1036600000000000ea0a0000020000000200000062
:1036700000000000ec0a0000400000000000000014
:103680006c0900007c00000000000000000a00003f
:103690002000000000000000300b000000080000c7
:1036a00000000000fc09000004000000020000000f
:1036b000ffffff00ff0000002c0b000004000000d3
:1036c00000000000f40900000800000002000000f3
:1036d0000100140083820000000000002c0900009b
:1036e00040000000020000000c0378000078000099
:1036f000780078000078000022034d0000430000ad
:1037000053002000005300006d00610000720000b3
:1037100074004900006d000070006c000061000042
:103720006e007400001201001001ff000000400054
:10373000261e0700c900010001020300010000006d
:043740000000000085
:020000040000fa
:04374400000006007b
:00000001FF
