:020000040000fa
:080000000002040000000000f2
:020000040000fa
:100400002f0b2100007f2100000188000000000068
:100410000c000700e0fc2000010020001100070094
:10042000000020000000e000020032000000020096
:100430000000000018060200000000000040da0082
:100440000000fe004440a900000020000000e00081
:100450000300320000002000a00188004440a800f2
:100460000000060091018800800078000000eb0089
:1004700015003700e280400032a0b4009101ba00bc
:10048000e280400032a0b4009102ba00e280400055
:1004900032a0b4000002eb00472bde00f507b200eb
:1004a000602ce10004003a000059eb008301e900f0
:1004b000fdff3e00040037006128e100010032002a
:1004c0000082eb00040007001101ba000200e00006
:1004d000e8ff3a00000006003159ba008301e90044
:1004e0000c0032002159ba008301e90008003200f3
:1004f0000400e00003003a00e280400032a0b400b3
:10050000f5ff370011d9ba008301e900faff3a007c
:100510008100e800e180400032a0b4000000060045
:100520006022b800060220000000d0008180d200c6
:100530000482d2008582d2000000a0000202520094
:1005400083825a00030031000202420083824a0083
:100550000000a1000603e900f3ff3a0000000600d6
:100560001000fa00889fbe008a9fbe008c9fbe00cc
:10057000000020000080fb0001002000c000dd0022
:100580000000200002a0220002054000e085480093
:10059000fc815700820020000a00be00da0207003a
:1005a0002fb39700bfb397004fb19700dfb197000b
:1005b0006fb49700ffb497000fbe97009fbe9700df
:1005c000f0ff2f00f10f2000800f5300818f5b00a0
:1005d000330032006130b800008588001185880042
:1005e000c2848800d384880009007800090178005b
:1005f000f207b20082017800080178000008b2001a
:1006000001002000c000dd0000002000c808dd005f
:100610000080fd00804078000040eb000001710088
:1006200081817100e2848800f38488000d007800e5
:100630000d017800f207b200820178000c01780009
:100640000008b20001002000c000dd000000200012
:10065000c808dd000080fd00804078000040eb000d
:100660000001710081817100a2848800b384880038
:100670004738de000100200061006000c083880070
:100680004638de000100200061006000b083880071
:100690004538de000100200061006000a083880072
:1006a00068054500e0854d00f0ff2f00f10f2000a8
:1006b000800f5300818f5b00b5ff3a004f06be00ec
:1006c0004f05be004f04be000080fa000000060087
:1006d0000001fa00889fbe008a1f780008002000f1
:1006e000090020008881fb000200200000a02200f9
:1006f00000004100e0804900a3ef2f008f814100fe
:10070000020820008002070089007800f2ff2f0015
:10071000f30f200004082000a0ef2f000f0040007e
:1007200000057800b00f1100a08f190007003200fb
:10073000e88040007005450070004000848f500044
:10074000f8ff3a000080eb004f0037000085800082
:1007500001002000008dbe007810e200020032008f
:100760000170a000008dbe007610e2000200320091
:100770003a68a3002a60a0007410e2000200320070
:100780003a58a3002a50a000c0848000d184800081
:100790002005980031059800e4848000f5848000ed
:1007a000f6072000068162008201780004017800cb
:1007b000070820000780620001002000c000dd0063
:1007c00000002000480add004800de000000720042
:1007d000c808de00000171008181710042059800a7
:1007e00053059800a4848000b584800006836200cd
:1007f0000401780086017800078062000100200073
:10080000c000dd0000002000480add004800de00d6
:1008100000007200c808de000001710081817100d3
:10082000620598007305980003a0220000002000d4
:1008300032e0b700a2ef2f000f014100668257009f
:1008400092007800120090008109bb008099bb00e3
:1008500064014100840f5100f9ff3a0010002400a8
:10086000003b88000700fc0050052000303b88005a
:10087000a00a2000303b880061e7a80000000000cb
:10088000000000000000eb004f0578004f04be00a0
:100890000080fa00000006004507a9004527a900ce
:1008a0004547a900c0ff210060198800c922a9009e
:1008b0006820a8006960a800c0c6bf0001ceb300d0
:1008c000014060003040b300c0e6b70021e2a8005c
:1008d0002342a800900120004011880081e0a90077
:1008e0007007a9007007a90021e3a90021a3a900ae
:1008f000c0cfb3002163b600f0c1b3002063b600df
:100900002043a8002363b6002343a90030ccb300e2
:100910002263b6002223a9002203a9002443a800d1
:100920002523a8002503a80025e3a9002423a80067
:100930003023ef0021e3a80023022000cb42e20095
:1009400001003500f3012000ccc6bf0001ceb3008a
:10095000014060003041b300cce6b700cdc6bf0017
:10096000014060003041b300cde6b700030c8800c1
:1009700084c1bf0082cfb300024060006040b3007a
:1009800084e1b700cac6bf00014060002041b30047
:10099000cae6b700cbc6bf00014060002041b300eb
:1009a000cbe6b700330c88008a61a8008ac1bf007b
:1009b000024060006040b3008ae1b700600420009c
:1009c00060088800700888000621ef0030022000cf
:1009d0005008880013e1a80011e1a80000000600fb
:1009e000cac2bf000048a30002003200a0152000c8
:1009f00001003700a03420001084880000000600a9
:100a00007427a90017e2a800cac2bf00a12c2000c9
:100a100091407800c608de00a22c20001241780028
:100a20004511de004600de0062006000e1806000eb
:100a30000100400000004000610161000200400030
:100a40000002b000d01088001c22ef000004290032
:100a5000b0108800bcc0bf000044a1000046b30035
:100a6000bce0b7008a20a9009a20a8000000060078
:100a7000000178000371220055002000a60020002c
:100a8000110009000381d8000002780003a0b9001a
:100a900000015100110009008681d8008001780012
:100aa00023c2bf000018a300fdff3a000480fb0032
:100ab0000003b000201188008502e900f0ff3a0031
:100ac00023c2bf000018a300fdff3a00d0002000a1
:100ad0002011880023c2bf000018a300fdff3a00c8
:100ae000a000200020118800000006002823ef004d
:100af00021e3a8002023a80000000000000000005f
:100b00002023a90020c3bf000008a300fdff32007e
:100b10002023a80000000000000000002023a900fe
:100b200020c3bf000008a300fdff32002184800025
:100b30008100e80021848800708480000003b400f4
:100b400070848800f08f500015003a008430ef0068
:100b50004400de0070848800b1092000810f50003d
:100b60000300360001005000708488000100370047
:100b70008e30ef006118200070848000810f5000db
:100b8000010036007184880070848000520a2000c1
:100b90000280b9004900de00508488008e30ef00ea
:100ba00000000600100020004019880021e3a80082
:100bb0002023a80000000000000000002023a9005e
:100bc00020c3bf000008a300fdff32002023a800bf
:100bd00000000000000000002023a90020c3bf0087
:100be0000008a300fdff3200318480008100e8008e
:100bf00031848800608480000003b4006084880031
:100c0000f08f500009003a008630ef004400de000b
:100c10008210bc000200be0042062000030020003b
:100c20003ffe0700408488008c30ef000000060083
:100c300019ff0700c9030700e00f5000e08f5800bc
:100c40000400320000ceb3004260b700002802006a
:100c50000000000062ff070041fe0700002424009e
:100c6000f1002000cd22a800cd22a9006100500093
:100c7000e0805800fbff3a0061ff0700818480009c
:100c80008100e80081848800e18f500002003a0072
:100c9000cd22a8000a00370000772100808f500085
:100ca00002003a00cd22a9000500370000ee220024
:100cb000808f500002003a00508480006cff0700d3
:100cc0008184800000652400808f500002003a007b
:100cd0004084800066ff07008184800000dc2500de
:100ce000808f50000c003a009084800060ff070065
:100cf00023c2bf000018a300fdff3a00d00020006f
:100d00002011880023c2bf000018a300fdff3a0095
:100d1000a0002000201188008084800062ea20006a
:100d2000110009000280d8000100e00002003a0032
:100d30006eff07009bff07008084800002a62e0044
:100d4000110009000280d80081848800cbff3700a1
:100d50000042780003017800850178001008200027
:100d6000808f500006003a0020102000d0838800b9
:100d70007c30ef00a10721000000eb0005003700e8
:100d80000404e00001003a000001eb008000eb00e9
:100d90000080eb00c90337000800fa00889fbe00fe
:100da0008a1f78008043780001457800820078002f
:100db00003017800840478000502780006047800b6
:100dc00030c5b30080cf53003e0032000a003c0023
:100dd0007040500080cf5300400032006e40400011
:100de00080cf53003700320090c2b30080cf530051
:100df000c1003a003e00370020c6b30080cf530048
:100e0000070032000040e80080cf53001800320095
:100e10006d40500080cf5300b7003a0024003700e7
:100e2000e10f5300b4003a00a12c2000914078005b
:100e3000cac2bf004600de00a22c2000124178008a
:100e40004511de00c608de00e2806000610060003f
:100e5000808040008180400061016100828040000c
:100e6000e88040000000eb00d2020700a20037003b
:100e700004002000050020008481fb000200200007
:100e80000040210000004100e080490000004000d7
:100e900081804800f0838800018488008601780002
:100ea00009017800e1072100050078009100370072
:100eb00086027800890178000a407800a4ff0700c4
:100ec0008d00370020082000808f500085003a00f8
:100ed0007e30ef008030ef007d003700b000200052
:100ee000f08388001000200000848800780037001c
:100ef000b0032000808f50004a00320012003e00f4
:100f000063005000808f50003a00320007003e001e
:100f100068005000808f5000200032000000e80080
:100f2000808f50006f003a002300370090032000ac
:100f3000808f5000370032000000e800808f5000a2
:100f400068003a002f003700100b2000808f5000ff
:100f50004300320007003e00c0032000808f500095
:100f600034003200000b2000808f50005d003a00fa
:100f700039003700100c2000808f500041003200f3
:100f80000000e800808f5000450032000080e9003a
:100f9000808f500053003a003300370000858000f6
:100fa0001185800090bf9f00a1bf9f00e08480005a
:100fb000f184800006003700c0848000d184800066
:100fc00090bf9f00a1bf9f00a0848000b1848000db
:100fd000b0bf9f00c1bf9f00e88f540001003600e2
:100fe000890020008801780009017800ee80570010
:100ff0003a0037001500be00008588001185880082
:101000002b0037001500be00c0848800d184880002
:10101000270037001500be00e0848800f1848800b6
:10102000230037001500be00a0848800b18488002a
:101030001f003700a6fd07006102b900f483880095
:1010400005848800880178000001eb008000eb0037
:101050000400780027003700508480001900370012
:1010600040848000170037000a04e00003003a00c3
:1010700015027800c48388000d003700c08380000b
:10108000100037000a04e00003003a00150278005f
:10109000b483880006003700b08380000900370061
:1010a0000a04e00006003a0015027800a4838800d4
:1010b000880178000001eb008000eb00070037009a
:1010c000a083800001002000f08388000184880054
:1010d0008801780009017800e10721000000eb0099
:1010e0000400370088017800090178008000eb00d7
:1010f0000080eb00f10207004f0578004f04be00ae
:101100000080fa00000006000002be00020340005a
:10111000e08348000e0037004028de000100200078
:1011200032e0b7001400ba009480ba008049780019
:101130004800de0090419800a1419800c808de00f8
:10114000b1419800e481410062024200e0824a001d
:10115000860f5200878f5a00efff3900000006000b
:10116000889fbe008a9fbe008c1f78000002be00d0
:1011700002067800830578004008de00004578000c
:1011800032e0b700040378000001eb00820378002e
:1011900084017800f90f2000082020001600ba0012
:1011a0009680ba00e10f400003003a00f10fb20050
:1011b000898f500001003200120020008703e800f0
:1011c0000683e800888f5300f4ff3a000200e00035
:1011d0000d00320020042400003b88000a00780043
:1011e00032e0b700040abb000700fc0050052000f5
:1011f000303b8800a00a2000303b880061e7a8004f
:1012000000000000000000000003eb0002042000ca
:1012100019002400084020000a00780032e0b700de
:101220008c0343008b0243000002eb00b700780000
:10123000350078008109bb008099bb000402e800fa
:10124000820f5200f9ff3a00093b88000700fc00ba
:1012500050052000303b8800a00a2000303b880069
:1012600061e7a80000000000000000000608b000d0
:10127000880f5300e8ff3a004f0678004f05be0084
:101280004f04be0000000600889fbe008a9fbe007b
:101290008c9fbe008e1f78000005be0002077800fc
:1012a0008306780000c02f000a0060000004780068
:1012b0008b0478007085800081858000880f500045
:1012c000898f58001f003200e00f5000e08f580057
:1012d000040035000230ec000380200002c0200032
:1012e0009fff0700e00f5400e08f5c001300350003
:1012f0000030ec0040c8de00cf80de0032e0b700f6
:101300000802be008001eb000cc020000780200016
:10131000062020009400ba001481ba000380410026
:1013200001307e0002b07b008301e80062024200cf
:10133000e0824a00868f5100f6ff3a0078858800e7
:10134000898588000a007800f03fb2000000d100d3
:101350000d0278008002eb0007c02000068020000c
:101360001100370000017800f21fb2008201410035
:10137000144090004800dd009480fb000100400014
:1013800080b17b00b4409000c808dd00244090008c
:101390000080fb008080400081317b00e4824200bd
:1013a0000200e800640242008e8f5200edff390017
:1013b0004f0778004f06be004f05be004f04be0029
:1013c00000000600889fbe008a9fbe008c9fbe0062
:1013d0000005be000206be008004eb0012003700cc
:1013e0008a007800f13fb200004020000100500068
:1013f000000040000004780009005600880f5000eb
:10140000010031000004780089814600080178005d
:101410000a00be009cff07000800d100000545003f
:10142000e0854d00888444008c8f5400ecff390027
:101430004f06be004f05be004f04be000000060070
:10144000881f78000003be0002047800000020001e
:101450000080fb0001002000c000dd000000200033
:101460000240210002004000e0804800800f53004d
:10147000818f5b0002003100060340008783480033
:1014800000002000f00fb20001002000c000dd00cd
:1014900000002000e4bf220004024000e082480077
:1014a00062024200e0824a00840f5300858f5b0095
:1014b00003003100080178000600be00c1ff0700ec
:1014c0004f04780000000600889fbe008a9fbe007f
:1014d000000020000080fb0001002000c000dd00b3
:1014e000000020000240210002014000e08148008d
:1014f000020041008380490062055000e0855800e9
:101500000203be006044b800100037004038de001f
:101510000100200032e0b7001601ba001682ba00be
:101520000280fb0000004400e0804c004811de0017
:1015300002014000e08148000482fb0004044100f5
:10154000e084490062034300e0834b008a0f5300ac
:101550008b8f5b00edff39000980fb008000780075
:10156000080078004f05be004f04be0000000600d2
:10157000f40f20000200200004016100030020009d
:10158000c011dd00020020000040210000004100e9
:10159000e080490000004000818048006200500067
:1015a000e08058004009de00030020000001fd003b
:1015b00032e0b7000001fd001001ba001080ba004f
:1015c00001002000c000dd000000200002014000fa
:1015d000e081480003026200020078008400780085
:1015e00000000600889fbe008a9fbe008c9fbe0040
:1015f0008e1f7800000020000081fb000300200007
:10160000c011dd0002002000044021000500200080
:101610000206420083864a006011b800f00fb20053
:1016200001002000c000dd00000020000005420095
:1016300081854a002e042400230037000203450060
:1016400083834d0040b8de00cf80de0032e0b7007b
:101650000602be0008202000f90f20001400ba0086
:101660009480ba00e10f400009003a00f10fb20087
:10167000898f500006003a000804e9006202420027
:10168000e0824a000800e0000b003200f3ff370060
:101690000e3b8800060bbb000700fc005005200035
:1016a000303b8800a00a2000303b880061e7a8009a
:1016b00000000000000000000040200001002000a9
:1016c00002014000838148008c0f51008d8f59002a
:1016d000daff39004f0778004f06be004f05be0005
:1016e0004f04be0000000600f8874700889fbe0038
:1016f0008a9fbe008c9fbe008e1f780072ff07007d
:101700000004be009aff0700800f5400818f5c0028
:1017100002003200b3ff0700a000370008002000dd
:10172000f20f20000202640005002000c022dd004c
:10173000040020000c4021000d002000040246009f
:1017400085824e000a0020000b0020000a0078006d
:101750000201650003002000c011dd00020020002e
:1017600006802200070020000201430083814b0015
:101770000202520083825a00e4af9f00f5af9f003f
:101780006011b80082b79f0093b79f00bab79f005f
:10179000cbb79f00f00fb20001002000c000dd00b9
:1017a000000020000000430081804b00d0b79f0064
:1017b000e1b79f00f80fb20009002000c044dd002f
:1017c000080020000804460089844e00f8b79f00f6
:1017d00089bf9f006a003700cdc2bf000000d10062
:1017e000614160000281ea008381ea006141610099
:1017f00002414100cdc2bf000014a10002407000b0
:10180000cde2b7000fb097009fb097005fb197008f
:10181000efb1970000034100818349007fb097003a
:101820008fb8970006054000878548008a01780038
:10183000060178004fb79700405ede000d002000e3
:10184000403cde0009002000c8e79f000c00780043
:1018500032e0b7009300ba009382ba000800780023
:1018600032e0b7001200ba001282ba00808f500036
:1018700009003a00848f520007003a000e87e80002
:101880008381e8000281e80000402000800f5700bb
:1018900033003200edff370020042400003b8800b5
:1018a0004fe0970032e0b700060bbb000700fc00da
:1018b00050052000303b8800a00a2000303b880003
:1018c00061e7a80000000000000000008006eb00b7
:1018d0001e002400094020000d06780008042000a6
:1018e0006162b9000a0042008b804a004009de00b4
:1018f000030020000001fd0032e0b7000001fd0000
:101900009001ba001081ba000602420087824a00a4
:101910004028de000100200032e0b700030abb00cf
:10192000028abb000c86e8000804e900ecff3a00dc
:101930000e3b88000700fc0050052000303b88006b
:10194000a00a2000303b880061e7a80000000000ea
:10195000000000000d08b000898f5600deff3a003d
:1019600000402000010020000fb197009fb19700b8
:10197000020140008381480082b79f0093b79f0017
:101980000fb097009fb097006fa99700ffa997002d
:10199000820f5000838f58008fff35004f0778006b
:1019a0004f06be004f05be004f04be008f01b100c0
:1019b000000006004000fa00889fbe008a9fbe001b
:1019c0008c9fbe00000678001782a8009a20a9000c
:1019d0000805200001044400d81088000042eb00f4
:1019e000844678006055b800c9ff2f008ac0bf0048
:1019f0000018a300300032008a20a900d22c200059
:101a0000124178000201d100614061000080ea00cb
:101a10008180ea006140600000404000d22c20003c
:101a2000124178000214a100004171000200780008
:101a3000cde2b70018c2bf000018a3001e0032009c
:101a4000012120009140780018c2bf000058a30077
:101a500009003a0014c0b3006055b800c9ff2f0058
:101a60000d04e000130032001fff07000000fe001d
:101a700014c0b3000f0037000900e00009003d006a
:101a80004859dd00c851de00830171004851dd0076
:101a90000180fb00010020000005710081857100bc
:101aa0000300370040fb2f000900400001f07f00d9
:101ab0008904e8001782a8000404e0002200320034
:101ac00018c2bf000048a3001f0032000900e00058
:101ad0000f003500e10f4500e08f4d000c003a008b
:101ae0001a22ef000c00e00005003a0043fb2f0033
:101af0008f814100090178000a00be00e2fd070065
:101b0000d81088000042eb001dc0b3000e00370063
:101b10000042eb000900e0000b0034001a22ef0045
:101b20000c00e00006003a008b00d1000a80d300d0
:101b300043fb2f008f8141000901780040fe070020
:101b4000d81088000042eb0018c2bf000068a30054
:101b5000a6ff320018c2a900a4ff3700889fbe006c
:101b6000f40f2000020020000401610003002000a7
:101b7000c011dd00020020000040210000004100f3
:101b8000e08049004009de00030020000001fd0064
:101b900032e0b7000001fd001001ba009080ba00e9
:101ba000e10f410004003a00f10fb2006011b800eb
:101bb000848f50000a00320043fe07000004be007c
:101bc0006bfe07001200200003002000800f54006d
:101bd000818f5c000200320082fe07006011b800b5
:101be0000200be004f04be0000000600014878005d
:101bf0001240980023409800c819de003340980036
:101c0000444098004822de00544098006540980007
:101c1000c82ade0075409800000006000301780025
:101c20000004e00005003a00840178000001eb00a8
:101c30008000eb000080eb00020037008401780098
:101c40006000b8001d0037008001780001027800b4
:101c5000410a210060c07800e24f400004003200d9
:101c600063ca7800e0cfb30080f17800000006007e
:101c7000c218dd00600a2100008140001200be0091
:101c8000e00f5000e08f58000a0032000080eb00a7
:101c90008080eb001209400052914800038141000e
:101ca0000107210062807800304a780000b1780096
:101cb00000000600004aeb00000006000202780067
:101cc000420a210080717900038141000007210050
:101cd0000131780005002000c219dd00600a2100f2
:101ce000808141008489be0000000600889fbe00fc
:101cf0008a1f78000003780001047800800140000a
:101d0000870021004a002100e18f400005003a00d1
:101d10000000eb0080b17b008000200080317d005e
:101d20003f00370063817b002003200000b0b90032
:101d30000002780000004100c500210008f07a0090
:101d40000201e80082b17b0063007d008003e900ae
:101d500087317d00e80f51000c003a0064c07a0022
:101d60000004e0000900350066004200e0c07a008f
:101d70008180fb006700420060c07a004800dd00ff
:101d8000808040008180430081317d000600430057
:101d900041002100608078000000e00020003a004f
:101da000c50021002803200008b4b90066004400e3
:101db00060c57a000a85fb006700440060c27a00b3
:101dc0004822dd0064004400e0c37a008783fb0002
:101dd00065004400e0c17a00c819dd000880e80011
:101de00060c17a000281fb006300440060c07a0099
:101df0004800dd0000014100e8c07a0000c8b300df
:101e000080c060000800e80060c07a004501210041
:101e1000850244000402450083814300defb070085
:101e20004f0578004f04be00000006003600f800a1
:101e3000809fbe00829fbe00849fbe00869fbe0022
:101e40003400f80000002000a001880018c2bf0084
:101e50008080eb000018a3000200320010c2bf0017
:101e60008080fb0018c2bf000028a30007003200da
:101e700017c2bf000048a3000d003a002121200036
:101e80001000200070ff07000900370018c2bf00d3
:101e90000058a300030032000100e00004003500f8
:101ea000010037008080eb00100020008fff07004a
:101eb00018c2bf000068a3000100320018c2a900c8
:101ec0001782a8008a20a9003400f9004f03be0041
:101ed0004f02be004f01be004f00be003600f900a9
:101ee000004006003600f800809fbe00829fbe00c2
:101ef000849fbe00869fbe003400f80000002000d2
:101f0000a001880008c2bf008080eb000018a30079
:101f10000200320000c2bf008080fb0008c2bf0088
:101f20000028a3000700320007c2bf000048a3003a
:101f30000d003a00212020000000eb0042ff0700c6
:101f40000900370008c2bf000058a3000300320098
:101f50000100e00004003500010037008080eb0044
:101f60000000eb0061ff070008c2bf000068a3008b
:101f70000100320008c2a9000782a8008600a9005b
:101f80003400f9004f03be004f02be004f01be00f7
:0c1f90004f00be003600f90000400600c3
:020000040000fa
:10500000f4874700889fbe008a9fbe008c9fbe0029
:105010008e1f7800f30f20000000200003006000c6
:1050200001002000c000dd0000002000024021003f
:1050300002024000e08248000000200003006000ff
:1050400001002000c000dd000000200002802200de
:1050500002004000e0804800800f5200818f5a001b
:105060000300310084b79f0095b79f00020037000e
:1050700080b79f0091b79f006044b80000002000f7
:10508000f0b79f000140210081bf9f000100200078
:10509000b0b79f00c1b79f006fe197008280fb000f
:1050a000000020000fb9970002004000e080480097
:1050b000d0b79f00e1b79f0060003700cdc2bf00ae
:1050c0000000d100614160000281ea008381ea00b2
:1050d0006141610002414100cdc2bf000014a10046
:1050e00002407000cde2b7005fb09700efb09700cc
:1050f00008054000898548008a0178000801780089
:105100004fb79700405ede000d002000404bde00f0
:1051100007002000c6e79f000c00780032e0b700cf
:105120009300ba009382ba000600780032e0b7001c
:105130001200ba001282ba00808f500009003a00b3
:10514000848f520007003a000e87e8008381e80050
:105150000281e80000402000800f57003300320039
:10516000edff370020042400003b88004fe097004b
:1051700032e0b700080cbb000700fc00500520001f
:10518000303b8800a00a2000303b880061e7a8007f
:1051900000000000000000000006eb001e002400dc
:1051a0000d4020000c037800070420006132b90094
:1051b0000a0042008b804a004009de000300200004
:1051c0000001fd0032e0b7000001fd009001ba00cf
:1051d0001081ba000802420089824a004028de009d
:1051e0000100200032e0b700030abb00028abb00c6
:1051f0000683e8008703e900ecff3a000e3b8800d5
:105200000700fc0050052000303b8800a00a200069
:10521000303b880061e7a8000000000000000000ab
:105220000c08b0008d0f5600deff3a000040200051
:105230000100200008044000898448000fb0970056
:105240009fb09700800f5400818f5c009bff390056
:10525000efe897000180fb0001002000c000dd00a6
:10526000000020000fb9970002064000e0864800c9
:105270006044b80000002000f00fb20001002000e0
:10528000c000dd00000020000240210002054000b7
:10529000e08548002704240021003700080245006b
:1052a00089824d004028de000100200032e0b70076
:1052b0000401be00062020001200ba009280ba004d
:1052c000e10f400008003a00e18f400006003a007c
:1052d0000603e90062014100e08149000600e000a8
:1052e0000b003200f4ff3700073b8800040abb00c4
:1052f0000700fc0050052000303b8800a00a200079
:10530000303b880061e7a8000000000000000000ba
:10531000004020000100200008044000898448006b
:105320008c0f54008d8f5c00dcff39000000fe0004
:105330004f0778004f06be004f05be004f04be0069
:085340004f01b100000006005e
:020000040000fa
:020000040040ba
:08000000010000000b000000ec
:020000040000fa
:0457f800bf79000075
:020000040000fa
:0457fc00763f0000f4
:020000040000fa
:100008000c1000000c1000000c1000000c10000078
:100018000c1000000c1000000c1000000c10000068
:100028000c1000000c1000000c1000000c10000058
:100038000c1000000c1000000c1000000c10000048
:100048000c1000000c1000000c1000000c10000038
:100058000c1000000c1000000c1000000c10000028
:10006800720f00000c1000000c1000000c100000b3
:100078000c1000000c1000000c1000000c10000008
:100088000c1000000c1000000c1000000c100000f8
:100098000c1000000c1000000c1000000c100000e8
:1000a8000c1000000c1000000c1000000c100000d8
:1000b8000c1000000c1000000c1000000c100000c8
:1000c8000c1000000c1000000c1000000c100000b8
:1000d8000c1000000c1000000c1000000c100000a8
:1000e8000c100000160f00000c1000000c1000008f
:1000f8000c1000000c1000000c1000000c10000088
:100108000c1000000c1000000c1000000c10000077
:100118000c1000000c1000000c1000000c10000067
:100128000c1000000c1000000c1000000c10000057
:100138000c1000000c1000000c1000000c10000047
:100148000c1000000c1000000c1000000c10000037
:100158000c1000000c1000000c1000000c10000027
:100168000c1000000c1000000c1000000c10000017
:100178000c1000000c1000000c1000000c10000007
:100188000c1000000c1000000c1000000c100000f7
:100198000c1000000c1000000c1000000c100000e7
:1001a8000c1000000c1000000c1000000c100000d7
:1001b8000c1000000c1000000c1000000c100000c7
:1001c8000c1000000c1000000c1000000c100000b7
:1001d8000c1000000c1000000c1000000c100000a7
:1001e8000c1000000c1000000c1000000c10000097
:0801f8000c1000000c100000c7
:020000040000fa
:100208000c1000000c1000000c1000000c10000076
:100218000c1000000c1000000c1000000c10000066
:100228000c1000000c1000000c1000000c10000056
:100238000c1000000c1000000c1000000c10000046
:100248000c1000000c1000000c1000000c10000036
:100258000c1000000c1000000c1000000c10000026
:10026800720f00000c1000000c1000000c100000b1
:100278000c1000000c1000000c1000000c10000006
:100288000c1000000c1000000c1000000c100000f6
:100298000c1000000c1000000c1000000c100000e6
:1002a8000c1000000c1000000c1000000c100000d6
:1002b8000c1000000c1000000c1000000c100000c6
:1002c8000c1000000c1000000c1000000c100000b6
:1002d8000c1000000c1000000c1000000c100000a6
:1002e8000c100000160f00000c1000000c1000008d
:1002f8000c1000000c1000000c1000000c10000086
:100308000c1000000c1000000c1000000c10000075
:100318000c1000000c1000000c1000000c10000065
:100328000c1000000c1000000c1000000c10000055
:100338000c1000000c1000000c1000000c10000045
:100348000c1000000c1000000c1000000c10000035
:100358000c1000000c1000000c1000000c10000025
:100368000c1000000c1000000c1000000c10000015
:100378000c1000000c1000000c1000000c10000005
:100388000c1000000c1000000c1000000c100000f5
:100398000c1000000c1000000c1000000c100000e5
:1003a8000c1000000c1000000c1000000c100000d5
:1003b8000c1000000c1000000c1000000c100000c5
:1003c8000c1000000c1000000c1000000c100000b5
:1003d8000c1000000c1000000c1000000c100000a5
:1003e8000c1000000c1000000c1000000c10000095
:0803f8000c1000000c100000c5
:020000040000fa
:101f9c0074100000200000000000000094100000ed
:101fac001000000002000000c80000000040060005
:101fbc000000010000000000401f000000000000b5
:101fcc00ae1000000400000002000000ffffff0044
:101fdc00ff000000000800000408000000000000e2
:101fec00a41000000a00000002000000fefe000029
:101ffc0000000000000000000000000004100000c1
:0c200c0070000000000000000000000058
:020000040000fa
:042018000000fe00c6
:00000001FF
