:020000040000FA
:06000000DEEF08F0120023
:060008008FEF00F0120072
:060018004AEF01F01200A6
:06002A000100D4110000EA
:08003000600000002700000041
:08003800D08EF28EF28CE3D9A8
:100040008A988A9A898489967CEC07F059DA66DA6C
:100050008994640EE66EE66A70DAE552E5528984A8
:10006000640EE66EE66A69DAE552E55208DADED930
:10007000D1800A0EE66EE66A60DAE552E552B4DA3D
:10008000CDD9F1D900000000000000000000000000
:100090000000000000000000000000000000000060
:1000A00000000000000000000000000000017B5183
:1000B0000FE000017B6B00018F51200A01E007D0A7
:1000C000D1906F986F9A899600EC0EF001D000D015
:1000D0006FBA0ED0E80EE66E030EE66E2EDAE5522B
:1000E000E55200017D517E1103E07EDAA194A084E7
:1000F00000017FC014F080C015F07F2B000E80231C
:10010000166A500E141804E1C30E151801E11650BA
:1001100004E100017F6B806B8974B4D71200DACFE1
:10012000E4FFE2CFDAFFE652C4CF8CF0C3CF8BF00E
:10013000C4CF8EF0C3CF8DF0C282010E00017D6F5F
:100140007E6B0001812B000E82230001640E811959
:1001500001E1825104E10001816B826B0400000126
:100160008D5100018B5D206E8C5100018E55216EEA
:10017000000175512118E8AE02D0213404D020507E
:10018000745D2150755903E26F986F9A899600014A
:10019000D8908C5104E6660E8B5D030E8C5906E2F6
:1001A0006F986F9A899600017D6B7E6BA498E552DB
:1001B000E5CFDAFF110000017C510CE000017C0763
:1001C00000017C51EA6A900FE96E000EEA22EF50BE
:1001D000C96E03D00900F550C96EC6881200C9CF98
:1001E0008FF000017A51020A3FE0030A38E0010A69
:1001F00001E0120000018F51900A23E0120A11E081
:10020000030A06E0010A27E10001010E7A6F1200DD
:100210008BC090F08CC091F0926B936B91AF0BD030
:1002200008D08DC090F08EC091F0926B936B91AF1F
:1002300002D0926993690001010E7A6F040E7C6FFF
:100240001200100E906F916B010E926F936B000174
:100250007A6F040E7C6F0001010E7B6F1200020E9C
:100260007A6F8FC084F012007A6B8FC083F07C515C
:1002700010E18451FE0A04E0010A06E1300E01D0CB
:10028000200EF86EF76A03D0F86A84C0F7FF83C0C7
:10029000F6FF1200D8CFE4FFE0CFE4FFE46EDACF40
:1002A000E4FFE2CFDAFFE9CFE4FFEACFE4FFF6CFE5
:1002B000E4FFF7CFE4FFF5CFE4FFF3CFE4FFF4CFA3
:1002C000E4FFFACFE4FF00EE00F0140EE80403E3CD
:1002D000EECFE4FFFBD700EE14F00C0EE80403E3CE
:1002E000EECFE4FFFBD7E6529EA614D0C7BA07D0E4
:1002F000C7A002D0C9CF8FF0C7A409D007D0C7B418
:1003000004D0C7A004D06BDF02D0C7A054DFC6BCA6
:10031000C69C9E969EAA18D0AB50020B01E0010E1F
:10032000226EAB50040B01E0010E221005E0AB98E9
:10033000AE50AE6EAB8808D062C063F061C062F0B0
:1003400060C061F0AECF60F09D50100B01E0010E77
:10035000226E9E50100B01E0010E221410E00001ED
:1003600089C0E9FF8AC0EAFF892B000E8A23EF507B
:10037000AD6E8751895D88518A5901E39D98A4A08B
:1003800007D00001762B000E772378237923A490E1
:100390009EA205D00001635101E08BD99E92A0502E
:1003A000040B08E0A150040B05E06F986F9A899642
:1003B000A094A194E55200EE1FF00C0EE80403E3B4
:1003C000E5CFEDFFFBD700EE13F0140EE80403E3D6
:1003D000E5CFEDFFFBD7E5CFFAFFE5CFF4FFE5CFA3
:1003E000F3FFE5CFF5FFE5CFF7FFE5CFF6FFE5CF6C
:1003F000EAFFE5CFE9FFE5CFDAFFE550E5CFE0FF23
:10040000E5CFD8FF1000896A030E926E8A6ACC0E7F
:10041000936EF19E8B6AF00E946E12000C0EC86EF5
:10042000360EC66E9F969E969D861200F00E7F6ECB
:100430007E9C6F6A6E6A3F0E6B6E6A6A800E6C6E8F
:10044000706A716A7C6A7D6A7A6A0E0E7B6E786A5F
:100450001E0E796E766A776E0A0E6D6EA588A49868
:10046000A3887E8E1200A094D280D282D284D296AB
:10047000D288D2AAFED7A294A194A0841200030E1F
:10048000B86EC280C29AC288C286C294C19EC19C04
:10049000C188C08EC09CC09AC098C086C094C082DB
:1004A000C0909A6A996AC2821200010EB06E370E2D
:1004B000AF6E080EAA6E040EAC6EAB6A9F989E9843
:1004C0009F9A9E9A9D8A240EAC6E900EAB6E12007F
:1004D000D76AD66AD590D592D594D596D59AD59C1B
:1004E000F194F294F29AD59E1200CF6ACE6ACD981A
:1004F000CD9ACD92CD8E9F909E909D90CD901200E2
:10050000CC6A7C0ECB6ECA82CA90CA8CCA8ACA8850
:10051000CA969F929E929D82CA841200886A876AB8
:10052000170E916E6F0E906EB796B798B792B78C04
:10053000A590A490A380B7801200D9CFE6FFE1CFA9
:10054000D9FF080EE126A39076C0DFFF010E77C029
:10055000DBFF020E78C0DBFF030E79C0DBFFA39048
:10056000040E76C0DBFF050E77C0DBFF060E78C0F9
:10057000DBFF070E79C0DBFFA380FD0EDBCF14F09D
:10058000FE0EDBCF15F0166A176A040EDBCF1CF0E7
:10059000050EDBCF1DF0060EDBCF1EF0070EDBCF06
:1005A0001FF0D9CFE9FFDACFEAFFEE501C5C186EDE
:1005B000EE501D58196EEE501E581A6EEE501F5810
:1005C0001B6E1850145C195015581A5016581B50B1
:1005D0001758C5E2080EE15C02E2E16AE552E16EFD
:1005E000E552E7CFD9FF1200D9CFE6FFE1CFD9FF1F
:1005F000E6521E0E0001746F756B0A0E6D6E6F88E9
:100600006F8A89866D6EE66EE66A97DFE552E5527F
:10061000090E6D6E0A0EE66EE66A8FDFE552E55250
:10062000080E6D6E0A0EE66EE66A87DFE552E55249
:10063000070E6D6E0A0EE66EE66A7FDFE552E55242
:10064000060E6D6E0A0EE66EE66A77DFE552E5523B
:10065000050E6D6E0A0EE66EE66A6FDFE552E55234
:10066000040E6D6E0A0EE66EE66A67DFE552E5522D
:10067000030E6D6E0A0EE66EE66A5FDFE552E55226
:10068000020E6D6E0A0EE66EE66A57DFE552E5521F
:10069000010E6D6E0A0EE66EE66A4FDFE552E55218
:1006A0000E0E0001746F756BE552E552E7CFD9FF6E
:1006B0001200D9CFE6FFE1CFD9FF060EE1260001F7
:1006C0006151000EF35000016025E66ED950040F11
:1006D000E96EDACFEAFFE552E750EE6EED6A030EFF
:1006E00060C0DBFF020E61C0DBFF010E63C0DBFFF9
:1006F00062C0DFFF0001636B0001626B0001616B90
:100700000001606B010EDB50670A37E0140A01E05C
:100710007AD0DF50660A2CE0090A26E00B0A21E0B5
:10072000550A11E0010A01E027D0040EDBCFE6FFF5
:10073000050EDBCFE6FF6EDBE552E5520001946F5C
:1007400094C086F01AD0040EDBCFE6FF050EDBCF97
:10075000E6FF60DBE552E5520001946F94C085F03E
:100760000CD085C06DFF09D06F886F8A898605D04F
:100770006F986F9A899601D000D0DF50230A39E034
:10078000570A2FE0100A1CE00E0A12E0020A08E0E5
:100790000F0A01E036D00A0EE66EEEDAE55232D0EC
:1007A0008BC0E6FF8CC0E6FF8ED8E552E5522AD01A
:1007B0008DC0E6FF8EC0E6FF86D8E552E55222D016
:1007C00000018D5100018B5D146E8C5100018E551E
:1007D000156E14C0E6FF15C0E6FF75D8E552E55268
:1007E00011D076C0E6FF77C0E6FF6DD8E552E5523E
:1007F00009D085C0E6FF86C0E6FF65D8E552E55220
:1008000001D000D056D02B0E146E010EDB50145CBC
:1008100023E1020EDB50D00F0A0DF350186E196A57
:10082000300EDF5C166E176A640E086E096A16C019
:100830000DF017C00EF09BEC08F006501824146E53
:1008400007501920156E030EDB50D00F0001142441
:10085000856F000E1520866F2D0E146E010EDB5075
:10086000145C26E1020EDB50D00F0A0DF350186E17
:10087000196A300EDF5C166E176A9C0E086E0968E6
:1008800016C00DF017C00EF09BEC08F01850065C77
:10089000146E19500758156E030EDB50D00F1A6EE8
:1008A0001B6A00011A50145C856F1B501558866F27
:1008B00000D0060EE15C02E2E16AE552E16EE5522B
:1008C000E7CFD9FF1200D9CFE6FFE1CFD9FF040E61
:1008D000E1260001640E876F000E886F87C089F0E3
:1008E0008A6FFE0EDBCF15F0800E151415E187C060
:1008F000E9FF88C0EAFF872B000E88232B0EEF6EDE
:10090000FD0EDBCF08F0FE0EDBCF09F0020E08C0B3
:10091000DBFF030E09C0DBFFFD0EDBCF14F0FE0E84
:10092000DBCF15F00001800E15141AE0000187C01E
:10093000E9FF88C0EAFF872B000E88232D0EEF6E9B
:1009400008680968FD0EDBCF0DF0FE0EDBCF0EF060
:100950009BEC08F0020E06C0DBFF030E07C0DBFFB6
:10096000D950020FE96EDACFEAFF0F0ED880EE54AD
:10097000270EED5424E3D950020FE96EDACFEAFFD7
:10098000E70ED880EE54030EED5457E3D950020F12
:10099000E96EDACFEAFF630ED880EE54000EED5414
:1009A00001E289D0D950020FE96EDACFEAFF090ED1
:1009B000D880EE54000EED5401E3EDD0B4D0100E0B
:1009C000146E270E156E020EDBCF08F0030EDBCF80
:1009D00009F014C00DF015C00EF0C8EC08F008C006
:1009E000DEFF09C0DDFFDECF14F0DDCF15F0100E05
:1009F0001502F3CF15F0270E1402F3501526100E32
:100A00001402F4501526D950020FE96EDACFEAFF2E
:100A1000F350EE5E1550ED5ADECF14F0DDCF15F039
:100A2000300E1426000E1522000187C0E9FF88C091
:100A3000EAFF872B882314C0EFFFE80E146E030E25
:100A4000156E020EDBCF08F0030EDBCF09F014C0E9
:100A50000DF015C00EF0C8EC08F008C0DEFF09C0AC
:100A6000DDFFDECF14F0DDCF15F0E80E1502F3CF79
:100A700015F0030E1402F3501526E80E1402F4507C
:100A80001526D950020FE96EDACFEAFFF350EE5E79
:100A90001550ED5ADECF14F0DDCF15F0300E1426D0
:100AA000000E1522000187C0E9FF88C0EAFF872BEE
:100AB000882314C0EFFF640E146E156A020EDBCF9C
:100AC00008F0030EDBCF09F014C00DF015C00EF0D6
:100AD000C8EC08F008C0DEFF09C0DDFFDECF14F06F
:100AE000DDCF15F0640E1502F3CF15F01402F450AB
:100AF0001526D950020FE96EDACFEAFFF350EE5E09
:100B00001550ED5ADECF14F0DDCF15F0300E14265F
:100B1000000E1522000187C0E9FF88C0EAFF872B7D
:100B2000882314C0EFFF0A0E146E156A020EDBCF85
:100B300008F0030EDBCF09F014C00DF015C00EF065
:100B4000C8EC08F008C0DEFF09C0DDFFDECF14F0FE
:100B5000DDCF15F00A0E1502F3CF15F01402F45094
:100B60001526D950020FE96EDACFEAFFF350EE5E98
:100B70001550ED5ADECF14F0DDCF15F0300E1426EF
:100B8000000E1522000187C0E9FF88C0EAFF872B0D
:100B9000882314C0EFFF300EE76E020EDBCF14F097
:100BA000030EDBCF15F0E7501426000E15220001CE
:100BB00087C0E9FF88C0EAFF872B882314C0EFFFB6
:100BC00087C0E9FF88C0EAFF872B88230A0EEF6EF3
:100BD0009D88040EE15C02E2E16AE552E16EE552B5
:100BE000E7CFD9FF1200D9CFE6FFE1CFD9FF020E40
:100BF000E1260001640E876F000E886F87C089F0C0
:100C00008A6FFE0EDBCF15F01538156A0F0B146EC8
:100C10000F0E1416000E151614C0DEFF15C0DDFFF2
:100C2000DECF14F0DDCF15F0153407E214500908BB
:100C3000000E155402E2370E01D0300EDE26000EF3
:100C4000DD2287C0E9FF88C0EAFF872B8823DFCF3A
:100C5000EFFFFD0EDBCF14F0FE0EDBCF15F015C05D
:100C600014F0156A0F0E1416000E151614C0DEFFD0
:100C700015C0DDFFDECF14F0DDCF15F0153407E22F
:100C800014500908000E155402E2370E01D0300E40
:100C9000DE26000EDD2287C0E9FF88C0EAFF872B31
:100CA0008823DFCFEFFFFD0EDBCF14F0FE0EDBCF8E
:100CB00015F0040ED89015321432E804FBE10F0E43
:100CC0001416000E151614C0DEFF15C0DDFFDECFB2
:100CD00014F0DDCF15F0153407E214500908000EAA
:100CE000155402E2370E01D0300EDE26000EDD2252
:100CF000000187C0E9FF88C0EAFF872B8823DFCF88
:100D0000EFFF0F0EE76EFD0EDBCF14F0FE0EDBCF14
:100D100015F0E7501416156A14C0DEFF15C0DDFF8C
:100D2000DECF14F0DDCF15F0153407E214500908BA
:100D3000000E155402E2370E01D0300EDE26000EF2
:100D4000DD2287C0E9FF88C0EAFF872B8823DFCF39
:100D5000EFFF87C0E9FF88C0EAFF872B88230A0ED0
:100D6000EF6E9D88020EE15C02E2E16AE552E16EFF
:100D7000E552E7CFD9FF1200D9CFE6FFE1CFD9FF87
:100D80000001640E876F000E886F87C089F08A6F3C
:100D900087C0E9FFEA6E872B000E8823FE0EDBCFAB
:100DA000EFFF9D88E552E7CFD9FF1200D9CFE6FFCC
:100DB000E1CFD9FF0001640E876F000E886FFE0E31
:100DC000DBCF15F015C014F087C0E9FF88C0EAFF3B
:100DD000872B000E882315C0EFFFFF0EE76EFD0E78
:100DE000DBCF14F0FE0EDBCF15F0E7501416156ABA
:100DF00087C0E9FF88C0EAFF872B000E882314C054
:100E0000EFFF640E896F000E8A6F9D88E552E7CF71
:100E1000D9FF1200D9CFE6FFE1CFD9FF020EE126BC
:100E2000FD0EDBCF14F0FE0EDBCF15F015340FE214
:100E30001450FF08390E15540AE2D950FD0FE96E1F
:100E4000FF0EDA20EA6E300EEE5E370E08D0D95073
:100E5000FD0FE96EFF0EDA20EA6E300EEE5EED5AFF
:100E6000FF0EE76EFD0EDBCF14F0FE0EDBCF15F0AC
:100E7000E7501416156A15340FE214500908000ED5
:100E800015540AE2D950FD0FE96EFF0EDA20EA6E22
:100E9000070EEE5E000EED5AFD0EDBCF14F0FE0ED7
:100EA000DBCF15F0040ED89015321432E804FBE1C4
:100EB000F00E1416000E151614C0DEFF15C0DDFF6F
:100EC000FF0EE76EFD0EDBCF16F0FE0EE750161696
:100ED000176ADE501610146EDD501710156E145080
:100EE000146E020EE15C02E2E16AE552E16E14501A
:100EF000E552E7CFD9FF1200D9CFE6FFE1CFD9FF06
:100F0000450EE126F29EF29CF86A180EF76EF66A1C
:100F10000800FF0EF55C03E1F28EF28CB3D0A684DC
:100F2000A68EA69CDE6ADD6ADECF14F0DDCF15F05A
:100F3000D890155004E6000E145C040E155801E319
:100F40009DD08974DECF14F0DDCF15F0000E14268D
:100F5000180E152215C014F0156A1450F76EDF50E4
:100F6000F66E020EDB6A020EDBCF14F0400EE76E67
:100F70001418E8AE02D0E73402D0E750145C17E250
:100F80000900D950050F146EDACF15F0020EDBCF31
:100F900016F0176A16BE176814501624E96E15501D
:100FA0001720EA6EF5CFEFFF020EDB2ADCD7DECF8B
:100FB00014F0DDCF15F0000E14261C0E152215C0FE
:100FC00014F0156A1450F76EDF50F66EA688550EB1
:100FD000A76EAA0EA76EA6820000040EDB6A0E00A2
:100FE000080EF36E020EF3CFDBFF020EDB502BE098
:100FF000080EF36E030EF3CFDBFF030EDB501AE097
:10100000D950050F146EDACF15F0040EDBCFF3FFC5
:10101000DB2AF350166E176A16BE17681450162492
:10102000E96E15501720EA6EEF50F56E0F00030EB3
:10103000DB06E3D7550EA76EAA0EA76EA6820000A8
:10104000020EDB06D2D7DECF14F0DDCF15F0000E96
:101050001426180E152215C014F0156A1450F76ED8
:10106000DF50F66EA688550EA76EAA0EA76EA68252
:101070000000400EDE26000EDD2256D7A694F28E2A
:10108000F28C00D0450EE15C02E2E16AE552E16ECD
:08109000E552E7CFD9FF120081
:081098002A0EF66E000EF76E41
:1010A000000EF86E00010900F5509A6F0900F55026
:1010B0009B6F03E19A6701D03DD00900F550956F11
:1010C0000900F550966F0900F550976F0900090067
:1010D000F550E96E0900F550EA6E090009000900B3
:1010E000F550986F0900F550996F09000900F6CF87
:1010F0009CF0F7CF9DF0F8CF9EF095C0F6FF96C01C
:10110000F7FF97C0F8FF0001985302E1995307E0F9
:101110000900F550EE6E9807F8E29907F9D79CC0E0
:10112000F6FF9DC0F7FF9EC0F8FF00019A07000E72
:061130009B5BBFD712001B
:0A11360009C013F008C012F00850C1
:101140000D02F4CF07F0F3CF06F009500E02F4CFF2
:1011500009F0F3CF08F00D02F3500726F4500822EF
:10116000E86A092212500E02F3500726F4500822B2
:10117000E86A09220EAEC1EF08F01250085E135063
:10118000095A13AE000C0D50085E0E50095A000C9F
:10119000056A046A100EE76ED890083609360436E0
:1011A00005360D50045C0E50055805E30D50045EE5
:0C11B0000E50055A082AE72EF0D7120056
:0411BC0012EE00F03F
:1011C00022EE00F0F86A019C4CEC08F01CEC00F0F8
:0411D000FDD7120035
:0C11D4000000000000000000000000000F
:1011E00000000000000000000E00000000000000F1
:0B11F0000001000000000000000000F3
:101C0000D9CFE6FFE1CFD9FF4A0EE126F29EF29C42
:101C10003E0EC66EA40EC86E8984480EDB6A490E5D
:101C2000DB6A480EDBCF14F0490EDBCF15F0166AE5
:101C3000D8901650000A06E6500E145CC30E1558D4
:101C4000000E165806E2480EDB2A490E01E3DB2A95
:101C5000E8D78994FC0EF36E030EF3CFDBFF9EA64C
:101C60002AD19E96C7A04CD0C9CF8FF0C7BA06D054
:101C7000FC0EF36E030EF3CFDBFF41D0030EDB50FF
:101C8000FC0803E18FC0DFFF38D0030EDB50FD08F6
:101C900003E18FC0F8FF31D0030EDB50FE0803E1F3
:101CA0008FC0F7FF2AD0030EDB50FF0810E1C00EF3
:101CB00000018F15E76E010EE7CFDBFF3F0E00013D
:101CC0008F15E76E020EE7CFDBFFC86A16D0D9503A
:101CD000080F146EDACF15F0020EDB503F0B166EB4
:101CE000176A16BE176814501624E96E155017208F
:101CF000EA6E8FC0EFFF020EDB2A030EDB2ADBD079
:101D0000030EDBCF14F0143404E2DF5002E0FF00D6
:101D1000D2D0030EDBCF14F0000EE76E1418E8AE3D
:101D200002D0143403D0E750D880145401E3C3D058
:101D3000F85005E11C0EF7141C0801E1F794300E71
:101D4000F8143DE0A68CA684020EDBCFE6FF030E5E
:101D5000DB50E552E75CE76E050EE7CFDBFF050ED3
:101D6000DBCF14F0020EDB50E76E1418E8AE02D0A1
:101D7000E73402D0E750145C21E2050EDB50F66E2A
:101D8000D950080F146EDACF15F0050EDB503F0B5B
:101D9000166E176A16BE176814501624E96E155091
:101DA0001720EA6EEF50F56E0C00550EA76EAA0EC6
:101DB000A76EA6820000050EDB2AD1D774D08974E5
:101DC000030EDBCF14F0400EE76E1418E8AE02D01D
:101DD000E73402D0E750145C23E2010EDBCFE6FFCC
:101DE000020EDB503F0BE552E724F66E0800D95097
:101DF000080F146EDACF15F0020EDB503F0B166E93
:101E0000176A16BE176814501624E96E155017206D
:101E1000EA6EF5CFEFFF030EDB2A020EDB2AD0D7E6
:101E2000010EDB50F66EA68EA69CA684A688550EE3
:101E3000A76EAA0EA76EA6820000020EDB6A0E0035
:101E4000080EF36E040EF3CFDBFF040EDB502BE025
:101E5000080EF36E050EF3CFDBFF050EDB501AE024
:101E6000D950080F146EDACF15F0020EDBCFF3FF56
:101E7000DB2AF350166E176A16BE17681450162424
:101E8000E96E15501720EA6EEF50F56E0F00050E43
:101E9000DB06E3D7550EA76EAA0EA76EA68200003A
:101EA000040EDB06D2D7A694A40EC86EFC0EF36E09
:101EB000030EF3CFDBFFC6BCC69CD1D64A0EE15C55
:101EC00002E2E16AE552E16EE552E7CFD9FF120086
:020000040020DA
:0400000000010010EB
:020000040030CA
:0100010002FC
:010002000CF1
:0100030020DC
:010004003CBF
:010005009D5D
:010006008178
:010008000FE8
:01000900C036
:01000A000FE6
:01000B00E014
:01000C000FE4
:01000D0040B2
:00000001FF
