:020000040000fa
:080000000002040000000000f2
:020000040000fa
:100008009402000094020000940200009402000090
:100018009402000094020000940200009402000080
:10002800940200009402000094020000060f0000f1
:10003800940200009402000094020000fe050000f3
:100048009805000094020000940200009402000049
:100058009402000094020000940200009402000040
:1000680094020000181a0000940200009402000094
:100078009402000094020000940200009402000020
:100088009402000094020000940200009402000010
:10009800781900000a0e0000940200009402000083
:1000a80094020000940200009402000094020000f0
:1000b80094020000940200009402000094020000e0
:1000c80094020000940200009402000094020000d0
:1000d80094020000940200009402000094020000c0
:1000e80094020000940200009402000094020000b0
:1000f80094020000940200009402000094020000a0
:10010800940200009402000094020000940200008f
:10011800940200009402000094020000940200007f
:10012800940200009402000094020000940200006f
:10013800940200009402000094020000940200005f
:10014800940200009402000094020000940200004f
:10015800940200009402000094020000940200003f
:10016800940200009402000094020000940200002f
:10017800940200009402000094020000940200001f
:10018800940200009402000094020000940200000f
:1001980094020000940200009402000094020000ff
:1001a80094020000940200009402000094020000ef
:1001b80094020000940200009402000094020000df
:1001c80094020000940200009402000094020000cf
:1001d80094020000940200009402000094020000bf
:1001e80094020000940200009402000094020000af
:0801f8009402000094020000d3
:020000040000fa
:10020800940200009402000094020000940200008e
:10021800940200009402000094020000940200007e
:10022800940200009402000094020000060f0000ef
:10023800940200009402000094020000fe050000f1
:100248009805000094020000940200009402000047
:10025800940200009402000094020000940200003e
:1002680094020000181a0000940200009402000092
:10027800940200009402000094020000940200001e
:10028800940200009402000094020000940200000e
:10029800781900000a0e0000940200009402000081
:1002a80094020000940200009402000094020000ee
:1002b80094020000940200009402000094020000de
:1002c80094020000940200009402000094020000ce
:1002d80094020000940200009402000094020000be
:1002e80094020000940200009402000094020000ae
:1002f800940200009402000094020000940200009e
:10030800940200009402000094020000940200008d
:10031800940200009402000094020000940200007d
:10032800940200009402000094020000940200006d
:10033800940200009402000094020000940200005d
:10034800940200009402000094020000940200004d
:10035800940200009402000094020000940200003d
:10036800940200009402000094020000940200002d
:10037800940200009402000094020000940200001d
:10038800940200009402000094020000940200000d
:1003980094020000940200009402000094020000fd
:1003a80094020000940200009402000094020000ed
:1003b80094020000940200009402000094020000dd
:1003c80094020000940200009402000094020000cd
:1003d80094020000940200009402000094020000bd
:1003e80094020000940200009402000094020000ad
:0803f8009402000094020000d1
:020000040000fa
:100400000f5821000e7f22000e018800000000001e
:1004100000012000200288000c000700e0d7210026
:100420000100200011000700000020000000e00093
:100430000200320000000200000000001e04020062
:10044000000000000040da000000fe004440a90067
:10045000400020000000e000030032000000200007
:10046000a00188004440a800000006009101880017
:10047000800078000000eb0015003700e2804000ab
:1004800032a0b4009101ba00e280400032a0b40072
:100490009102ba00e280400032a0b4000002eb00fa
:1004a000472bde00f507b200602ce10004003a00a3
:1004b0000059eb008301e900fdff3e000400370016
:1004c0006128e100010032000082eb000400070017
:1004d0001101ba000200e000e8ff3a000000060047
:1004e0003159ba008301e9000c0032002159ba00e9
:1004f0008301e900080032000400e00003003a0034
:10050000e280400032a0b400f5ff370011d9ba00f4
:100510008301e900faff3a008100e800e180400031
:1005200032a0b400000006000040da000000fe0027
:020000040000fa
:08053000ffff0000ffff0000c7
:020000040000fa
:10053800304c80006703b900f4ee21001100090077
:100548000403d8008000fd00304c8800000006003d
:100558008809f8007e0df900000006007067a90000
:1005680004fe2f0046358000860262007500b30045
:100578004535880055368000050262007400b300d6
:1005880054368800f40f2e005636800006026200aa
:1005980004b0a0005436880041e2a9004402a80033
:1005a8004322a9004302a80042c2a90042a2a8000f
:1005b800141280000420a1008401b30014128800e2
:1005c800300020004222b700041280000420a1005d
:1005d8008401b3000412880041e2a8008540a90004
:1005e8009540a900440580000480a0000490a10063
:1005f80004a0a000440588000000060014002000a4
:10060800744d880094e0a80000000600ae29ef00b1
:1006180084e0a80000000600544c8000e20f52005d
:1006280014003a00c082a800cd62a800c962a900df
:10063800c9c2a80004fe2f00663580008602620049
:10064800a500b30065358800263680008602620062
:10065800a500b30025368800353680000502620003
:10066800b400b30034368800cce2a800c8e2a90080
:1006780000000600c482a800c082a900c962a800c0
:10068800cdc2a900c9c2a90004fe2f0066358000aa
:10069800860262005500b30065358800f50f2e000c
:1006a800163680008682620006a0200086827200cc
:1006b800153688001536800005026200b400b300c4
:1006c80014368800c422a800c022a9000000060031
:1006d8000082eb00843b8800943b8800a43b8800a0
:1006e800b43b88007087a9007667a9007167a900e4
:1006f8007187a90071a7a90064198800c6ff0700bf
:100708004fa7a9004f87a800743a80000480a00072
:100718000490a10004a0a10004b0a100743a8800cc
:100728004fe7a8006322a9006302a80062c2a900db
:1007380062a2a800141380000420a0000430a100c5
:100748000440a00014138800300020006222b70083
:100758006402a80061e2a8008820a9009820a900e6
:10076800a40580000440a0000450a1000460a1007a
:10077800a4058800640580000440a1000450a0007e
:100788000460a100640588008620a9009620a900bd
:10079800c44e80000402e9001408880005e1a8009e
:1007a800f4ff2c00250580000502620004e0a0008b
:1007b800240588009460a800940580000403b30011
:1007c8000460a1009405880087a0a90097a0a8004c
:1007d80034422f0064088800000320001021b7006d
:1007e80011e1a8003405800004c0a00004d0a100d5
:1007f80004e0a1003405880004642000740888001f
:10080800940880000440a0000450a10094088800c7
:1008180013e1a800940580000400a1000410a000c2
:100828000420a100940588008780a9009780a9006a
:1008380000000600889fbe00000020000080fb002a
:1008480001002000c000dd000000200004402a0054
:1008580004004000e080480002202000030020003f
:100868003a0c0700b8070700e00f5000e08f580067
:1008780004003200000e20004220b700004c0200a5
:1008880000000000414c80000040eb005c0c0700b9
:10089800404c88002eff0700554c80006f82620094
:1008a800e50f520008003a00d49f2000358120004f
:1008b8000602200004034300d46a7800860f520021
:1008c800fdff3a001e003700e40f520008003a000e
:1008d800d4a1200035812000060220000403430033
:1008e800d46a7800860f5200fdff3a0014003700e2
:1008f800e30f520012003a0034002400848f5200a3
:1009080008003a00d4a52000358120000602200006
:1009180004034300d46a7800860f5200fdff3a00b2
:1009280007003700d4a320003581200006022000ec
:1009380004034300d46a7800860f5200fdff3a0092
:10094800544c80004822de00e80f520002003a00b2
:1009580034002000f45388008998200028c0b30090
:100968008840e8005901be0008407800400c0700a4
:10097800808cbe0008c4e800ea4f5400f8ff3a0033
:10098800c1a82000914078008180fb0008407800d1
:100998001b0c07008ceab700f97f20000004eb006d
:1009a8000880d100744040008000eb00140c070060
:1009b800610264004322dd000400de00806c7800e0
:1009c8000804e800f40f5400f5ff3a00444c800096
:1009d8000402e800344c88003dff07000140fe0097
:1009e800feff3700044e8000160020000433dd00af
:1009f800444e8000554e80008603e900204e80005a
:100a08000780b900840340008703d100a74188000c
:100a1800e10f530002003a000428200003003700c9
:100a28008502d1000482d3000428b000b4418800b4
:100a3800000006000400280005128000050262007c
:100a4800e00f52001a0032009460a90041e2a900a8
:100a580061e2a90040a7a800020037000040fe009c
:100a68000000e900e00f5000fcff3a0040a7a90091
:100a7800040028000100370041e2a80006128000a7
:100a880086026200e08f5200fbff3200020037004e
:100a980061e2a80001003700040028000613800066
:100aa80086026200e08f5200f9ff32001000370022
:100ab8009460a90061e2a90040a7a80002003700dd
:100ac8000040fe000000e900e00f5000fcff3a0083
:100ad80040a7a900040028000100370061e2a8002f
:100ae8000613800086026200e08f5200fbff32008e
:100af8009460a80000000600000006000000060040
:100b0800000006009c29ef004fe7a800c2a82000bb
:100b180012417800e1c0b300504c80002008070063
:100b28004fe7a900b9fe37008500a900004006007c
:100b38000200fa00881f780001047800c0ff9f00b7
:100b480070e7a9005402200024108800040429003a
:100b5800341088009620a80071e7a900743e200090
:100b6800e408880021e1a8009780a800130020006d
:100b780003017800e480570060c3b300ce0a070081
:100b8800e00f500005003a008001780022002000a4
:100b9800e480570060c3b300d70a07009780a90014
:100ba80021e1a90071e7a8009620a9000622ef001c
:100bb80070e7a800cffa97000582fb004822dd0005
:100bc800dffa97008582fb0005024200050020003d
:100bd800048cbe0044002000e00f500001003a00e1
:100be80024002000040078004f0478000080fa00f8
:100bf800000006003600f800809fbe00829fbe00fd
:100c0800849fbe00869fbe0084e0a90014002000d7
:100c180084558800144c8000e00f520006003a000a
:100c280081aa200020c0b300c1ff0700c1aa20008c
:100c380040c0b300beff0700144c80000402e80067
:100c4800144c8800f40f52000c00320064558000e8
:100c580075558000f60f2000860f5200e08f5a006d
:100c6800060036004455800055558000f61f2000c8
:100c7800860f5200e08f5a0001003e008229ef00e3
:100c8800b02aef00744d8000e00f520001003a00d6
:100c980094e0a9004f03be004f02be004f01be0002
:100ca8004f00be003600f900004006000002780040
:100cb8000408b20018003a00f4c3b300844060008e
:100cc8004600de00e6cf500003003a0061006000f5
:100cd8004300200006003700e3cf500007003a0029
:100ce8007828ef007a28ef006100600023002000d8
:100cf80082872000de070700fd00370061006000e2
:100d0800f70707000080fb0001002000c0438800af
:100d1800d1438800f6003700f00fb200340a2000f3
:100d2800840f5000a50032002d003e0074025200ce
:100d3800840f50007700320016003e006c0252000b
:100d4800840f50006800320008003e000482e90069
:100d5800840f50005500320058003e000402e9009c
:100d6800840f5000e3003a004e003700740820005a
:100d7800840f50006100320067024200840f500067
:100d88006100320068025200840f5000d9003a0016
:100d980058003700f4092000840f50006b0032001f
:100da8000a003e006b025200840f500061003200be
:100db8000402e800840f500061003200650252000e
:100dc800840f5000cb003a0055003700140a200069
:100dd800840f50006200320076003e005e0037004b
:100de800f40a2000840f5000a800320011003e00d1
:100df80064025200840f50009800320008003e0040
:100e08000482e900840f50008e00320090003e00fa
:100e180065025200840f5000b6003a006a0037009d
:100e2800d40a2000840f50009200320094003e0043
:100e38008d003700340c2000840f50000a003e005b
:100e480063025200840f5000980031006e02520075
:100e5800840f5000900032000402e800840f500014
:100e6800a4003a008e003700140e2000840f5000b2
:100e78009600320004003e000402e900840f50008e
:100e88009c003a008f003700240e2000840f500089
:100e9800900032000402e800840f500095003a00e8
:100ea8008e003700444c8000450037005503200071
:100eb800c54388007a28ef008d0037000400200021
:100ec800f40fb20005002000c022dd00040020005d
:100ed8000600250006024200e0824a0004024200a1
:100ee80085824a0080003700a4558000b5558000ef
:100ef8007d003700544c8000310037007828ef001f
:100f08007a28ef007a003700c4a82000144278003d
:100f180005003700d4a820001442780002003700ea
:100f2800e4a82000144278000482fb000500200099
:100f38006d00370044558000555580006a00370021
:100f48006455800075558000670037004454800060
:100f5800555480006400370004548000180037009e
:100f6800f49720001442780084cf50000700320024
:100f7800145480000402e8001454880005548000ca
:100f8800850f520001003600822aef0014548000b9
:100f980050002000e00f520057003500e59d20006a
:100fa800e5427a008582fb004822dd000482420087
:100fb8004c0037002454800001003700345480006e
:100fc8000500200048003700f497200014427800fc
:100fd80084cf500006003200644d80000402e8000f
:100fe800644d8800ea0f520001003400ac29ef007c
:100ff800644d800050002000e00f52003e00350094
:10100800040342000580200065417b000281fb004b
:10101800030020006120b900c000dd0000002000ae
:1010280002004000838048000603e80065437b0017
:101038004833dd00cfb3de000002430081824b005d
:1010480029003700a44d8000b54d800026003700e8
:10105800e44d8000f54d800023003700044e8000e9
:10106800154e800020003700244e8000354e800049
:101078001d003700444e8000554e80001a0037008e
:10108800644e8000754e800017003700844e800043
:10109800954e800014003700e44e8000c8ff3700ea
:1010a800844d8000954d80000f003700000cb10082
:1010b8004200dd00c4982000000042001002be007b
:1010c8000900370004558000060037001408800026
:1010d800bbff3700c44e8000020037001455800063
:1010e80044a2de00cfa2de00c4438800d5438800b6
:1010f800300005005000200000000600889fbe0058
:101108000102780002047800e54c8000e08f52006c
:1011180005003a0080037800f70fb200c60b2000e4
:10112800868f530083013a00800278000508b200d8
:1011380013003a00f5c3b300854060004600de00a6
:10114800e6cf500003003a00610060004300200031
:1011580004003700e3cf500005003a00610060004a
:1011680023002000040178001d0707006b013700e9
:1011780061006000144178008906070067013700a4
:10118800f00fb2006103b8000608b1000780b10093
:1011980025062000850f5300e08f5b0064013e00a8
:1011a8000660010062003700610137006001370006
:1011b8006500370066003700580137009000370097
:1011c8005b0137005a01370059013700a400370086
:1011d800520137005601370055013700a200370089
:1011e800a8003700aa003700510137005001370026
:1011f8004f0137004e0137004d0137004c013700d1
:101208004b0137004a0137004901370048013700d0
:1012180047013700460137004501370044013700d0
:101228009e003700a1003700a8003700b80037003b
:10123800ba003700bc0037003d0137003c013700d9
:101248003b013700d4003700da003700e0003700f0
:10125800e3003700e6003700ea003700ed0037000a
:10126800f00037003201370031013700f100370054
:10127800fc0037002e0137002d0137002c01370004
:101288002b0137002a0137002901370028013700d0
:10129800f7003700020137000e0137001001370050
:1012a80023013700130137001201370011013700fd
:1012b800100137001e0137001d0137001c013700df
:1012c8001b0137001a0137001901370018013700d0
:1012d80017013700160137001501370014013700d0
:1012e80013013700120137001101370010013700d0
:1012f8000f0137000e0137000d0137000c013700d0
:101308000b0137000a0137000901370008013700cf
:1013180007013700060137000501370004013700cf
:10132800030137000201370001013700fd003700d3
:1013380014027800444c880085fc0700414c80006a
:101348000040eb004d0037001403be0029003700b1
:1013580015002000f69720001643780086cf51002c
:10136800f4003200a6558000b7558000e10f430015
:10137800e08f4b0009003a00000e20004220b70021
:1013880084017800080178000600be00cf0307003a
:10139800120507000000fe00110037001902800046
:1013a800c54cde00e7c46400000e20004220b700f0
:1013b8008700d1000680d3008401780008017800f6
:1013c8002f040700678264004522dd00f9f12f0031
:1013d80015028000858464008484740019028800e2
:1013e800cfc4de00a6558000b75580000603440030
:1013f80087834c00a6558800b7558800c70037007a
:10140800940078006f826000e20f520004003a00f6
:10141800554c8000ef826200e28f52000d003200ce
:10142800e3025200544c8000e18f52000400360061
:101438006f03620055002000850f5300bd003a007d
:101448006f0262006302520055002000e20f520052
:10145800b8003e00514c880010c0b30007003700a8
:101468000000fe00ad0037009400780001407800cd
:101478008ceab7008180fb00a0c0b3006a090700ae
:10148800a6003700144078008deab700a3003700a3
:10149800144078008eeab700a00037001403be009d
:1014a80046548800575488009c0037001403be0037
:1014b80055002000ff0f5300e08f5b009d003e00a9
:1014c800140278000454880094003700040378005c
:1014d800564078008083fb005500200000548000af
:1014e800808f530093003e0014427800e14f420081
:1014f80002003200e59d200084f27b00164378004c
:101508000682fb000402e9001454880083003700b7
:1015180014027800245488008000370014027800f0
:10152800345488007d0037000484e80018437800ac
:1015380055002000e94f53007e003e00b442900061
:10154800e1cf42000f0032008682fb008582420014
:10155800068020009443780007f37a00184078004a
:101568008082fb00858242000603e80094439000d5
:1015780007f37a009842780074c04200940078001b
:1015880029090700184478000882fb000402e900d2
:10159800644d88006100370055002000341f20008a
:1015a800064c8000840f530062003400a554880064
:1015b8005a0037001403be00a64d8800b74d8800b6
:1015c8001403be00c64d8800d74d8800530037006d
:1015d8001403be00e64d8800f74d88004f00370021
:1015e8001403be00064e8800174e8800030037001b
:1015f8001403be00264e8800374e8800f9fc070009
:10160800460037001403be00464e8800574e880037
:10161800faff37001403be00664e8800774e880034
:101628003e0037001403be00864e8800974e88009f
:101638003a0037001403be00e00f5300e08f5b0050
:1016480003003a0054002000b454880033003700e7
:10165800610263001500200036003200e64e880063
:101668003400370015002000e554880031003700a9
:10167800e5012000154d88001440780076edb7008c
:101688001440900077edb700244290006102620098
:10169800544d880054002000845488001f003700ef
:1016a80018002000e84c8800e5012000154d88004e
:1016b80094027800f54c880024429000634262004e
:1016c80004407800a0e9b700ccfb07008802780046
:1016d8001800370034002000244d88000f00370020
:1016e80014407800a6e9b70054002000444d880053
:1016f8000a003700000cb1001401be004202dd00f0
:10170800c598200004824200028abe000040e8001a
:10171800004040008040e800e9080700150020006c
:101728000400370014027800c44e8800fbff37001d
:1017380055002000050078004f04be000000060098
:101748000200fa00889fbe008a9fbe004400200065
:10175800b4bf9f00e44c8000e00f52000b003a0039
:1017680065002000b5bf9f0080c0b300c4eab70081
:1017780004407800c5eab7008809f800c60af900ed
:101788008a09f800c80af90012003700c46aef0095
:10179800a0c9bf00c5eab7009e09f800c60af9004b
:1017a80004568000e00f52000a003200044078001e
:1017b800c4eab700e30f520006003a008400200094
:1017c800b4bf9f00c4438000d543800044568800be
:1017d80055568800c02aef00bfba97008502e90075
:1017e800b5bf9f0001cdb300504c80001006070024
:1017f80001ceb300504c80000d060700e44c800079
:101808006202620041d7200001003a0081d720001f
:10181800504c800083050700230020006a81570090
:1018280031c0b300504c80006d0507003fbb9700e6
:101838000604e800b8bf9f0004042000840f540089
:10184800010034000404780052c3b300b1c0b300ef
:10185800504c8000d20407008801780042ac200078
:1018680051c0b300504c80005d0507003fb8970099
:1018780008005000b0bf9f000b4020000a03200062
:1018880016003700504c8000e20f500005003a0067
:101898005516800005826500e00f5200fcff3200fb
:1018a80002003700ca82ab00feff32008a8f540064
:1018b800010034000903200042ac2000020144006a
:1018c8008901780051c0b300450507003fbb970068
:1018d80009035300b6bf9f0009044400bfbc97002a
:1018e800e08f5400e7ff3a0012c0b300b1c0b30064
:1018f800504c8000aa040700504c8000e20f5000b2
:1019080006003a0004402000561680008602620055
:10191800e08f5200fcff3a0002003700ca82ab0099
:10192800feff3a0001ccb300c105070001cfb300a8
:10193800504c8000be050700c1d72000504c8000e5
:101948003805070052c0b300b1c0b300504c800046
:1019580093040700504c8000081920000440200020
:10196800e20f500003003a0056168000860262001b
:101978000200370055168000f0826200e08f5200a6
:1019880004003a000804e900f5ff3a0088047800ea
:1019980043003700230020006a81570031c0b3009c
:1019a800b30407003fb897000004e8008004eb0088
:1019b80044102000840f540039003c00eb03200041
:1019c8000a4020001700370052c3b300b1c0b3006b
:1019d800504c800072040700504c8000e20f500009
:1019e80005003a005516800005026500e00f520018
:1019f800fcff320002003700ca82ab00feff320053
:101a080042ac2000028144000303200051c0b3000f
:101a1800970407003fbb97000603b100b6bf9f00bd
:101a28000903b0003fba97008b0f5200e6ff3c0055
:101a380012c0b300b1c0b300504c80005804070076
:101a4800504c8000e20f500006003a00044020008d
:101a58005616800086026200e08f5200fcff3a00b2
:101a680002003700ca82ab00feff3a0042ac2000f9
:101a7800028144003fba97008401e80051c0b300d6
:101a88007b0407008040eb00504c80009404070062
:101a98000002b20019002000010032008004eb00af
:101aa80001c8b300504c800061050700e08f540066
:101ab80051003200e4012000144d880044ac20009d
:101ac800144278000482fb00e10262001700320031
:101ad8006202620009003200e44c8000e00f52000c
:101ae8003b00320051ac2000914078003056800015
:101af8006efc070000568800090037006401540096
:101b080053ac20009341780081ac2000305680000f
:101b18007afd070000568800e00f50002c003200c4
:101b280094012000d45488002900370024558000ef
:101b3800e00f52002500320035568000050278007b
:101b480016f82f00868f520001003d00060278002b
:101b5800f6072000860f52000100340006027800c4
:101b6800165580000603420016558800077d2000a0
:101b7800870f530003003c0007832f00870f530093
:101b880001003d00175588004322dd0004558800f8
:101b980004712200848f52000b003c00048f2d003a
:101ba800848f520008003500c61220000503430048
:101bb80084252000840f530002003e000002eb0041
:101bc800010037000502780034558800c02aef006c
:101bd800c5cabf007fe9b70024558000e00f520056
:101be800050032003408f8000e01f9003608f80044
:101bf8000a01f9008500a900a42aef004f05be00dc
:101c08004f04be000080fa00000006003600f8000d
:101c1800809fbe00829fbe00849fbe00869fbe003c
:101c2800881f78000200fa0087a0a9009454800059
:101c3800e00f5200190032004fe7a8002855800035
:101c4800504c8000befe0700e00f54000700320031
:101c5800945580000402e80094558800050220008d
:101c6800850f520001003600b22aef004fe7a900a5
:101c7800d4548000e00f5200080032000402e9004a
:101c8800d4548800f40f520004003400544d8000ee
:101c9800e00f520001003a0087a0a8008454800099
:101ca800e00f52000c0032000402e900845488005e
:101cb80009003a0034002000e44c88004fe7a800ef
:101cc800d2a8200012417800e1c0b300504c800037
:101cd800b30307004fe7a900a4548000e00f5200a7
:101ce8000e0032000402e900a4548800e10f5200fb
:101cf80003003a004fe7a800922aef0007003700d8
:101d0800e00f520005003a008500ab0001003200e8
:101d18008500a9008500ab00feff3200b4548000a6
:101d2800e00f5200100032000402e900b4548800a9
:101d38000d003a0041e2a90061e2a90034108800d0
:101d48009540a9009820a9009460a90094e0a900f2
:101d58009780a9009620a9009680a90097a0a900bd
:101d68000040fe00feff3700c4548000e00f520020
:101d780007003a00144d8000e00f520004003200c2
:101d88000402e900144d880001003a005dfb0700d9
:101d9800244d8000e00f5200040032000402e900e4
:101da800244d880001003a0056fb0700404d800092
:101db800e00f50000b0032000000e900404d8800a1
:101dc80008003a004fe7a800f4ff2000f4bf9f0086
:101dd800230020000f81e90031c0b3000004070090
:101de800ffff37000080fa004f0478004f03be0061
:101df8004f02be004f01be004f00be003600f90082
:101e0800004006003600f800809fbe00829fbe009a
:101e1800849fbe00869fbe00889fbe008460a90084
:101e2800f0548000a20ab400045580000400400069
:101e38004a83de00f03fb200f054880005088000b5
:101e480074382100848f52000c003e003555800004
:101e5800c44e8000e08f5200050032000402e90001
:101e68008502520015088800a62aef0003003700f3
:101e78000402e9000602520014088800044c80009d
:101e88000402e800044c8800e20f520009003a00fe
:101e9800544c8000e20f520003003a00cd62a800c3
:101ea800c8e2a900a9003700c482a800c022a9007e
:101eb800a6003700ea0f52001c003a004fe7a800be
:101ec800504c8000ef040700c2a82000124178009f
:101ed800e1c0b300504c80003103070081d72000d7
:101ee800504c8000cf030700504c8000c703070008
:101ef80084d7200014427800904f12000900320065
:101f0800544c8000e20f520002003a0054002000b6
:101f18000100370024002000544c8800bef9070057
:101f28008029ef004fe7a90088003700eb0f520027
:101f38002d003a00e44c8000a9002000e00f520078
:101f4800180032001b0037004fe7a800504c8000f3
:101f5800fbfd07004fe7a90075f907006300600063
:101f6800b44e800004004000b2fa070000000000f0
:101f78000804e800f40f5400fcff3a00244c8000e9
:101f88000402e800244c8800e70f520003003a00de
:101f9800e4548000e00f5200110032008460a80071
:101fa800094c8800e84c8000e00f5400e6ff32003e
:101fb80066003700140020002455880087a0a80078
:101fc800244c80000402e800244c8800e70f5200eb
:101fd8005e003a00e4548000e00f52005b003a00d3
:101fe800a405200058003700a54e80006a834200ef
:101ff800860f520002003a00a40020005200370069
:10200800f6052000860f520050003200461f2000bf
:10201800860f52004d0032000603e800860f52007a
:102028001b003a00e44c8000e00f5200110032001f
:102038001400370088558000e00f540041003a0032
:102048004fe7a800504c8000bdfd07004fe7a900ee
:1020580037f9070063006000b44e800004004000b8
:1020680074fa0700000000000804e800f40f5400a8
:10207800fcff3a00e44c8000e00f5200edff320014
:10208800300037001400200024558800280037004d
:10209800d7548000e08f530027003200860f52008b
:1020a80025003400361f200005034300840f530029
:1020b80021003500554d8000e08f52001c00320091
:1020c800a64d8000b74d800005fa2000850f53000b
:1020d800e08f5b0003003a00610262001b003200df
:1020e80013003700057d2000850f5300e08f5b004b
:1020f8000400320005322000850f5300e08f5b009a
:1021080004003a0063026200e10f52000f003a0037
:102118000700370005192000850f5300e08f5b008a
:1021280003003a0055202000850f520007003a00ae
:1021380087a0a80005003700451fb000850f520092
:1021480002003a00441f2000044c88004f04be00df
:102158004f03be004f02be004f01be004f00be003d
:102168003600f9000040060002034000e083480002
:102178000c003700910188009002ba001082ba0062
:1021880085497800c82ade0095419800a441980046
:102198004822de00b4419800e4814100620040001a
:1021a800e0804800860f5000878f5800f1ff390003
:1021b80000000600889fbe008a9fbe008c1f780022
:1021c8000002be004008de0000037800900188008d
:1021d8000000eb008000780004047800fb0f20006a
:1021e8000a40200088037800880440001906ba00d5
:1021f8009984ba00e10f460003003a00f90fb200d3
:102208008b8f540001003200110020000080e8008c
:102218008a0f5000f3ff3a00e08f50000c003200a4
:1022280020042400003b880096018800040abb00b3
:102238000700fc0050052000303b8800a00a200061
:10224800303b880061e7a8000000000000000000a3
:102258000282e900e13f20008280400002815100b3
:1022680015002400960188000404410084017800c8
:1022780000042000d304780058057800890bbb00bf
:102288008a9bbb000000e900faff3a00053b880082
:102298000700fc0050052000303b8800a00a200001
:1022a800303b880061e7a800000000000000000043
:1022b8000408b000810f5200eaff3a004f06780088
:1022c8004f05be004f04be0000000600889fbe00f8
:1022d8008a9fbe008c9fbe008e1f78000005be003e
:1022e800820678000306780006c02f00000363000a
:1022f8008b027800060278000404be00506b800050
:10230800616b8000880f5000898f58001d003200d3
:10231800e00f5000e08f580004003500702dec00ed
:1023280003d8200002182100a2ff0700e00f540084
:10233800e08f5c00110035006e2dec0099018800db
:102348000803be000002eb000218210001d820009b
:10235800002020001607ba009681ba0084024200c5
:102368000eb17a0083b07a000402e80062034300e9
:10237800e0834b00800f5200f6ff3a00586b88004c
:10238800696b8800fa3fb2000a05d1000002eb0031
:102398000718210006d8200011003700fa1fb200e4
:1023a8008a024500058043001c4190004811dd0069
:1023b8009c4178008380fb000108410085024300ae
:1023c800bc409000c808dd002c4090000080fb0055
:1023d800808a4000640242000a05e800640646005c
:1023e8008d0f5200edff39004f0778004f06be00f1
:1023f8004f05be004f04be0000000600889fbe00c7
:102408008a9fbe008c9fbe008e1f78000005be000c
:1024180002067800030778000004eb000d40200056
:10242800100037008a047800f93fb200898456000a
:102438000802560089844400848f54000100360045
:102448008404780088014700090178000a00be006a
:102458009eff07000902d10004054500e0854d00f4
:10246800090444008c0f5400eeff39004f07780030
:102478004f06be004f05be004f04be000000060018
:10248800040020000482fb0005002000c022dd00bb
:10249800040020000600250006024200e0824a00ef
:1024a800840f5000858f5800020031000000420060
:1024b80081804a00e6bf2a0007002000620343002b
:1024c800e0834b00040020000482fb00050020008c
:1024d800c022dd00040020000602420087824a0074
:1024e800840f5000858f580001003100c3ff07009a
:1024f80000000600f40f200006002000040363001b
:1025080007002000c033dd0006002000050025007c
:1025180005034300e0834b000603430087834b0019
:1025280062035300e0835b00970188009602ba00bb
:102538001683ba0007002000c033dd000600200023
:1025480005034300e0834b00070262008402780021
:10255800060278000400be0000000600889fbe0046
:102568008a9fbe00f00f2000010020000400200018
:102578000002620005002000c022dd0004002000e7
:102588000600250006024200e0824a0004014200db
:1025980085814a0062015100e08159006033b8002a
:1025a8000f003700950188009400ba001484ba001f
:1025b80080846000c808de00610db8000905450088
:1025c800e0854d000a0343008b834b0080006400c4
:1025d80001034300e0834b0062024200e0824a00ac
:1025e800820f5200838f5a00eeff39000782fb00ea
:1025f80084027800060278000400be004f05be0081
:102608004f04be0000000600ea874700889fbe000e
:102618008a9fbe008c9fbe008e1f78000600200097
:102628000683fb0007002000c033dd000600200001
:1026380002002500030020000604410087844900a9
:102648006022b800370037000200420083804a0049
:102658000000430081804b00910188000c4020005d
:102668000d0020000006460081864e00dcb79f0062
:10267800edb79f00fe0f2000f0b79f0081bf9f00bd
:102688005fb69700efb69700d6b79f00e7b79f00f1
:102698000403be001002ba009082ba00e10f4200a3
:1026a8000c003a00f50fb2008e8f520009003a0074
:1026b80062004000e08048008c0f50008d8f580069
:1026c800f4ff3a000602be005fb39700efb397002d
:1026d800100037000602be007fb597008fbd970037
:1026e8005fb39700efb3970020042400003b8800f5
:1026f8000a0dbb000700fc0050052000303b880095
:10270800a00a2000303b880061e7a8000000000014
:1027180000000000004020000100200004024000ea
:1027280085824800880f5200898f5a00c6ff3900f9
:102738004f0778004f06be004f05be004f04be008d
:10274800af00b10000000600889fbe00f70f200010
:10275800040020000702620005002000c022dd00fe
:10276800040020000600250006024200e0824a001c
:10277800950188001403ba001482ba00e10f4300df
:1027880004003a00f40fb200870f52000e003a001e
:102798000e00370005202000850f53000a003a007c
:1027a800e44f520008003a006cff07000004be0026
:1027b80050ff07001400200005002000800f54007f
:1027c800818f5c00020032008fff07006022b80092
:1027d8000400be004f04be0000000600f287470058
:1027e800889fbe008a9fbe008c9fbe008e1f780007
:1027f8005aff07000004be003eff0700800f540088
:10280800818f5c00020032007fff070095003700cf
:10281800080025000900200004c024000404540016
:10282800e0845c000600200007002000f20f200072
:10283800030020000600610001002000c000dd0048
:10284800000020000804400089844800000020009f
:102858000200600001002000c000dd000000200030
:102868000002540081825c00b4b79f00c5b79f0086
:102878006022b80002077800d0b79f00e1b79f0038
:1028880096b79f00a7b79f007100370002c02400c9
:10289800030020000000250000004100e0804900fe
:1028a8000000420081804a005fb39700efb39700b1
:1028b8000000430081804b009fb397000703670027
:1028c80007002000c033dd0006002000000343009d
:1028d80081834b000201420083814a005fb6970062
:1028e800efb697000201460083814e00830078000e
:1028f8000000eb0009402000f4b79f0085bf9f004f
:102908000606be00070378000205be00960188008f
:102918008c0340001704ba009783ba00910188001d
:102928008a0240009501ba009582ba00830f5400cc
:1029380008003a00858f530006003a000080e8003e
:10294800890f5000f1ff3a007fb297008fba9700c5
:102958003b0037007fb297008fba97000c03be0088
:1029680020042400003b8800910188000a0dbb0068
:102978000700fc0050052000303b8800a00a20001a
:10298800303b880061e7a80000000000000000005c
:1029980008402000090020000c0444008d844c00ed
:1029a8000c0155008d815d001b0024001e003700be
:1029b800910188001002ba009082ba000206400015
:1029c800838648009d018800040ebb00058ebb006d
:1029d8000a05e90062004000e0804800e00f550069
:1029e800f3ff3a000602be007fb397008fbb970043
:1029f8000b3b88000700fc0050052000303b880096
:102a0800a00a2000303b880061e7a8000000000011
:102a1800000000000608b0000780b000880f5300cf
:102a2800898f5b00060032000600be000a04200001
:102a3800f6b79f0087bf9f000403be00dcff370086
:102a480006402000070020000402430085824b0056
:102a58003fb09700cfb09700800f5200818f5a0087
:102a68008aff35004f0778004f06be004f05be00ad
:102a78004f04be002f01b10000000600c422a900c7
:102a88000064a0000080fb00401388006822ef006b
:102a980060a2ab00feff3a004413800060a2ab00c6
:102aa800feff3a0040138000c422a8000000060080
:102ab800c422a9000064a0000080fb004013880025
:102ac800051380000502b200fdff3a0044138000a0
:102ad80002027800e00f51000c003200061380005b
:102ae80062036300fdff3a00461388000201e90013
:102af80060a2ab00f7ff3a004613800086f07a0028
:102b08000402e9008502e800f2ff370085804000f2
:102b1800e00f52000600320060a2ab00feff3a0050
:102b280045138000855878000402e900f8ff370053
:102b3800c422a80000000600cce2a9000080fb0027
:102b4800401388008180fb004113880060a2ab001d
:102b5800feff3a004413800060a2ab00feff3a007b
:102b680044138000cce2a80000000600c422a9009b
:102b78000080fb00401388008180fb00411388001f
:102b880060a2ab00feff3a004413800060a2ab00d5
:102b9800feff3a0044138000c422a800000006008b
:102ba800000278000140780082407800e20f52006d
:102bb80001003a00e0ff3700ecff3700889fbe00b5
:102bc8008a1f7800004578008104780002047800a4
:102bd80092c1b300b1c0b30020002000f0ff07008d
:102be800cce2a9000a64a0000a85fb004a13880009
:102bf800051380000502b200fdff3a00441380006f
:102c080008027800e00f54000c0032000613800020
:102c180062036300fdff3a00461388000804e900d8
:102c280060a2ab00f7ff3a004613800086f47a00f2
:102c38000402e9008502e800f2ff370085844400b9
:102c4800e00f52000600320060a2ab00feff3a001f
:102c580045138000855c78000402e900f8ff37001e
:102c6800cce2a8004f0578004f04be000000060023
:102c780000027800014078008200780003017800a3
:102c8800e20f520001003a00ccff370088ff3700fe
:102c9800881f78000044780092c1b300b1c0b30027
:102ca80020002000beff0700cce2a9000864a000b5
:102cb8000884fb00481388006822ef0060a2ab007c
:102cc800feff3a004413800060a2ab00feff3a000a
:102cd80040138000cce2a8004f04780000000600f2
:102ce800e20f500002003a0001407800e8ff370088
:102cf8000140780061ff3700cce2a9000080fb00aa
:102d08004013880060a2ab00feff3a004413800025
:102d180002027800e00f51000b0032006022ab0085
:102d2800feff3a00314378008682fb004513880095
:102d38000201e90060a2ab00f6ff3a0045138000eb
:102d48000402e900f3ff3700e00f520005003200eb
:102d580060a2ab00feff3a00451380000402e900c0
:102d6800f9ff3700cce2a80000000600c422a90041
:102d78000080fb004013880060a2ab00feff3a0011
:102d88004413800002027800e00f51000b0032006b
:102d98006022ab00feff3a00314378008682fb00d8
:102da800451388000201e90060a2ab00f6ff3a0073
:102db800451380000402e900f3ff3700e00f5200da
:102dc8000500320060a2ab00feff3a004513800008
:102dd8000402e900f9ff3700c422a8000000060039
:102de8000002780001407800820078000301780032
:102df800e20f520001003a00bfff3700dbff370047
:102e08000041eb008240780065ff37004300200056
:102e180022d5200061c0b30095ff070020d520000f
:102e280000000600430020000101780061c0b300e3
:102e3800ebff3700889fbe000004780081447800cb
:102e48000281fb0094d420006441790014d320004f
:102e58001441710051c3b3000800780050ff070007
:102e680089407800080078009dff07004f04be00e5
:102e780000000600889fbe008a1f780000047800c2
:102e880081447800024578008381fb0094d42000b7
:102e980064c1790014d320001441710051c3b300f8
:102ea800080078003eff07000a4178008940780052
:102eb800080078003aff07004f0578004f04be006d
:102ec80000000600889fbe008a9fbe0000047800ac
:102ed800cacf200019c0b3005a4178008940780051
:102ee800080078002eff07008944e800e5cf540069
:102ef800f9ff3a002ad0200079c0b300abc2b30072
:102f08005a417800894078000800780024ff0700bb
:102f18008944e8008bcf5400f9ff3a00bad3200067
:102f28008044eb00894178005a417800a1c2b3007f
:102f380008007800cfff07008944e800e8cf540074
:102f4800f8ff3a006ad22000b9c2b3006bc3b300dd
:102f58005a417800894078000800780010ff07007f
:102f68008944e8008bcf5400f9ff3a0032d320009f
:102f78001241780071c3b3000800780008ff070009
:102f88003ad420008044eb00894178005a41780007
:102f980081c3b30008007800b6ff07008944e80041
:102fa800e5cf5400f8ff3a004ad3200099c3b30094
:102fb800dbc3b3005a4178008940780008007800e4
:102fc800f7fe07008944e8008bcf5400f9ff3a0068
:102fd800a2d3200012417800e1c3b30008007800b2
:102fe800effe07004f05be004f04be0000000600bc
:102ff800cce2a9000080fb004013880060a2ab006f
:10300800feff3a0044138000cce2a800000006004e
:10301800c422a9000080fb004013880060a2ab0016
:10302800feff3a0044138000c422a80000000600f6
:10303800e20f500002003a0001407800ecff370030
:1030480001407800f2ff3700881f780000047800fc
:1030580001417800e1c0b30008007800d0fe070005
:10306800c2c0b30021c0b30008007800ccfe07003e
:1030780021c0b3000800780019ff07006c40600009
:10308800fbff3a0061c2b3000800780014ff070094
:103098008042780067c262000440780056edb700ad
:1030a8004328de006100600057edb70081c2b3001d
:1030b800080078000aff070058edb70091c2b30076
:1030c8000800780006ff070059edb70057cdbf008c
:1030d8000100320030c0b3004f0478000000060041
:1030e800889fbe000004780001cbb3000800780078
:1030f800cfff0700d2c1b300c1c1b30008007800f8
:10310800a7fe07008044eb0022c0b300824078008d
:1031180008007800a2fe070021c0b300080078006c
:10312800effe070062406000fbff3a0031c2b300c7
:1031380008007800eafe07006f4060005aedb7000b
:1031480064405000e44f5000030036008944e80012
:10315800eacf5400ecff3a00d2c3b300c1c1b300b8
:10316800080078008efe070012c1b30021c0b3002a
:10317800080078008afe070021c0b3000800780024
:10318800d7fe070071406000fbff3a00e1c1b300c1
:1031980008007800acff070080447800a1c5b300a0
:1031a80008007800a8ff07008944700061c9b300cf
:1031b80008007800a4ff070080c4740001c8b300a9
:1031c800080078009aff0700e0cf54002a003a0070
:1031d80031c2b30008007800c1fe070080427800c1
:1031e8006fc26200044078005aedb7004428de0040
:1031f800610060005bedb70041c2b30008007800d1
:10320800b7fe07007f4060005cedb70051c2b30015
:1032180008007800b2fe0700804278006fc26200a2
:10322800044078005dedb7007f8062004400de0056
:103238005eedb700b1c1b30008007800a8fe070032
:103248005fedb700c1c1b30008007800a4fe070015
:1032580060edb700b4d5200014427800e04f52006a
:1032680004003a00e4d5200014427800e04f5200f0
:103278000100320029c0b300094078004f04be00a5
:1032880000000600881f7800000478000800780015
:10329800dbfe0700080078000aff07000800780036
:1032a8008fff07004f047800000006000002eb00c3
:1032b80085bc20004223dd0006834200000beb00a2
:1032c80036137800740342004233dd00068342005f
:1032d800000beb00361378000402e800f40f5200ec
:1032e800f4ff3a00000006003600f800809fbe0098
:1032f800829fbe00849fbe00869fbe003400f800f7
:1033080000002000a0018800b4638000e00f520094
:1033180003003a0014002000b4638800e3ff0700ac
:1033280024d6200014427800e14f52000b003a00e6
:103338000862ab0007003a00742ced00a46380001b
:10334800e00f520005003a000440780062edb70033
:1033580002003700a4002000a463880024d62000bf
:1033680014427800e34f52000400320024d62000b3
:1033780014427800e74f520023003a00642dec0015
:10338800256b800044062000848f5200080034001a
:10339800642def00a4608000b560800061024200e7
:1033a800e0824a00a4608800b56088000642a80050
:1033b8000862ab0003003200446b8000e00f52004b
:1033c80011003200642def0024d62000144278004a
:1033d800e34f520002003a0044c0b3000100370036
:1033e80084c0b3000440780062edb700446b8000ed
:1033f800e00f520003003200682def000622a800fb
:10340800010037000602a8008780a9003400f900ef
:103418004f03be004f02be004f01be004f00be006a
:103428003600f90000400600801f7800849fbe0027
:10343800869fbe003400f80000002000a00188002c
:103448000200fa008620a9000440200040108000f5
:1034580000026200e00f5200270032000942a90072
:1034680024d62000144278000482fb004222dd00aa
:1034780085bc2000048242001600200007002000be
:10348800140a430054924b00720cf8006c0cf900bb
:10349800700cf8006a0cf90024d620001442780059
:1034a8000482fb000500200064025200e0825a00fa
:1034b800e80f5200e08f5a000f003e000460010040
:1034c8000800370007003700060037000a003700f9
:1034d80006003700050037000400370003003700f6
:1034e8000200370034c0b3000100370074c0b300d5
:1034f8000440780062edb70024d62000144278001a
:103508000482fb000500200062025200e0825a009b
:10351800ea0f5200e08f5a0061003e00046001008b
:103528005d0037005e0037000800370011003700e3
:10353800480037005a0037001e00370025003700c2
:103548002e003700300037004800370084c62000be
:10355800144278000482fb00040242001410880020
:1035680054638000e00f52001000320054c0b300d2
:10357800430037000400280045108000050262005f
:10358800e00f520018003a0064638000344378006a
:103598008682fb0015108800646388006a2ced00a1
:1035a80054638000e00f52003d003a0064c0b3004d
:1035b8003300370084c62000144278000482fb00e0
:1035c800040242000400a0001410880094c0b30054
:1035d8002b00370004002800451080000502620017
:1035e800e00f5200030032000642a8006eacef0064
:1035f8002200370004108000f4bf9f000662a80074
:10360800b4c0b3001e0037000822ab00040032002b
:103618000510800064638000055a780064638800a0
:103628006a2ced0054638000e00f520003003a005a
:1036380006a2a800c4c0b3000200370006a2a90071
:10364800a4c0b3000440780062edb7000682a80069
:1036580013003700040028004510800005026200ae
:10366800e00f5200010032006eacef00346b8000b6
:10367800e00f520005003a000642a80024c0b3003b
:103688000440780062edb700050037001400200000
:10369800446b880001003700682def00626def0071
:1036a8000080fa003400f9004f03be004f02be004c
:1036b8004f007800004006006e2cef0068ecb70061
:1036c800526388006a0cf800700cf9006163880086
:1036d80091638800336b880030c0b30062edb70097
:1036e80024d6200014427800e04f5200fcff3a0034
:1036f80070638000000006006e2cef0068ecb700d5
:10370800526388006a0cf800700cf9006163880045
:1037180091638800336b880070c0b30062edb70016
:1037280024d6200014427800e04f5200fcff3a00f3
:103738007063800000000600a4002000a4638800d5
:1037480010c0b30062edb70024d620001442780000
:10375800e04f5200fcff3a00000006000103780029
:10376800a4678000b56780009501880000004000cc
:10377800cf80de000000420081804a001002ba00bb
:103788001080ba00040b780000000600a4678000cf
:10379800b567800036002400063b88009501880044
:1037a8008180fb000110b100000040006103b900f6
:1037b8000602420087824a00020abb00018abb0057
:1037c8000700fc0050052000303b8800a00a2000bc
:1037d800303b880061e7a8000000000000000000fe
:1037e800000006000800fa00889fbe008a9fbe00fd
:1037f8008c9fbe0080447800010578000004eb002f
:103808008985fb008b05e8001100370081cf200077
:103818000800780084bf9f0095bf9f00cfff070076
:103828000fba97009fba9700e14f40000e00320090
:103838000080fb008b0f500004003a000001eb00f1
:103848008040eb0008007800d0ff07000804e8007b
:103858006142b9008c6780009d6780008c0f520020
:103868008d8f5a00e9ff39008c0f52008d8f5a0056
:103878002d003a00748257008529280003000900aa
:10388800355a78000004eb000a00370008004400ad
:10389800cf80de00a4678000b5678000000042008a
:1038a80081804a00f48157004200200087fa07000f
:1038b8000804e8006143b9008467800095678000c8
:1038c800840f5300858f5b00f0ff3900f4815700a7
:1038d8000001eb000080eb008080eb007bfa070022
:1038e8007bc720000aca2000180020008004eb00d3
:1038f8009c0220000042eb00db4f12000500320062
:103908001a01780088407800090078009fff0700b6
:103918008904e8000804e8000a85e8008c0f5400d0
:10392800f4ff3a00040037008940e8000a017800f3
:103938000800780095ff07004f06be004f05be003f
:103948004f04be000080fa00000006000400fa00e0
:10395800889fbe008a1f7800a0678800b16788002a
:10396800826788009367880074c72000850220005a
:1039780084824200006aeb00850f5200fdff3a0086
:103988000004eb001ac0b30009ca20001300370076
:10399800a1cf200008007800b2bf9f00c3bf9f00de
:1039a8006eff07003fb99700cfb99700e14f40007d
:1039b8000e003200e04f5000070032000080fb008c
:1039c8000000e90084c720000a7278000000400067
:1039d800d4678000843478000804e8006142b900a4
:1039e800820f5200838f5a00e9ff390008007800df
:1039f8004f0578004f04be000080fa000000060062
:103a08000082fb0085c72000e5427a00e0cf520023
:103a1800030032000402420005ca2000e5007a00d3
:103a280001007800000006000082fb0085c7200026
:103a3800e5427a00e0cf52000500320084024200dd
:103a480006ca2000e6827a00818f52000700320001
:103a58008402420006ca200001b37a0016c0b300ef
:103a680085c7200086727a005eff07000000060006
:103a78000400fa00889fbe000144780083007800a3
:103a8800c2bf9f00d3bf9f00ddff070080047800fe
:103a9800cfb8970008407800d9ff070000027800e7
:103aa8006148b800c000dd000000200004004000ac
:103ab800e08048004f04be000080fa0000000600c5
:103ac8000400fa00881f7800014478008300780019
:103ad800d2bf9f00e3bf9f00d3ff0700dfb8970066
:103ae80008407800d0ff07004f0478000080fa00f3
:043af80000000600c4
:020000040000fa
:103afc00800d000000080000000000006a0d0000ae
:103b0c000400000002000000ffffff00ff000000a7
:103b1c006e0d000004000000000000008809000089
:103b2c003a010000020000000000050000fc8700c4
:103b3c006400000000000000e0221f001260c800ba
:103b4c005c0000000000000000000000000000000d
:103b5c000000000000000000000000000000000059
:103b6c000000640000000000640000000000010080
:103b7c000000020000000000ee02000000b603008e
:103b8c000000000000000000030000000020000006
:103b9c00020080003e000000ab00000001020300a8
:103bac0004050600070809000a0b0c000d0e0f0097
:103bbc00101112001314150016171800191a1b00f7
:103bcc001c1d1e001f030e00020f01000c000d0037
:103bdc000609070008040b00050a1c00131d12003f
:103bec001e111f00101b14001a15190016181700af
:103bfc000403070002060100050008000f090e006f
:103c0c000a0d0b000c1c13001d121e00111f1000be
:103c1c001b141a00151916001817000001020300d6
:103c2c0004050600070809000a0b0c000d0e0f0016
:103c3c00101112001314150016171800191a1b0076
:103c4c001c1d1e001f0403000205010000060700d6
:103c5c0008090a000b0c0d000e0f100011121300b6
:103c6c0014151600171819001a1b1c001d1e1f0016
:103c7c0001001f0000000000000000000000000018
:103c8c000000640000320000000001000000000091
:103c9c000000000000000000000000000000000018
:103cac000000000000000000000000000000000008
:103cbc0000000000000000000000000000000000f8
:103ccc00000000000000000000000000740d000067
:103cdc0004000000020000003474c5008c000000d9
:103cec00780d000004000000020000003475c500cf
:103cfc008c0000007c0d000004000000020000009d
:103d0c003476c5008c00000000080000880100001b
:103d1c0000000000c40a00000401000000000000c4
:103d2c00fc0c0000560000000200000000620000c5
:103d3c003fc000000000000000020100199e0000be
:103d4c000e960000043c7800af40100040706f00ed
:103d5c00df3de70000f11700422a6000ff80d00031
:103d6c000070000000dce0003747f700f03751002e
:103d7c001515000000770000000000000000000096
:103d8c000034410000808000000000000010200082
:103d9c002420000010203000405060007000000013
:103dac00520d00001000000000000000620d000029
:103dbc0008000000020000000000000000000000ed
:103dcc0000000000c80b0000b00000000000000064
:103ddc00780c0000840000000000000000000000cf
:020000040000fa
:0497fc000000fe006b
:020000040000fa
:10980000f8874700889fbe008a9fbe008c9fbe00dd
:109810008e1f780002002000070025000282fb0056
:1098200005002000c022dd000400200007024200e5
:10983000e0824a00950188001403ba001482ba003d
:1098400005202000850f530002003a00e44f52002b
:10985000010032000000fe00f60f2000060161004a
:1098600003002000c011dd000200200007024100bb
:10987000e082490002002000060161000300200090
:10988000c011dd000200200006c0240006014100d6
:10989000e0814900820f5200838f5a00010031009d
:1098a0000401be006022b8000a002000010025006b
:1098b000610bb80086b79f0097b79f000a83fb0033
:1098c00007002000c034dd0008002000e8af9f0042
:1098d000f9af9f00720037000fb697009fb6970050
:1098e0000c0342008d834a006fac9700ffac9700d9
:1098f0000603440087834c00050478000000eb0059
:109900000406be00d2b79f00e3b79f0007027800ad
:109910008a0278000605be000503780094018800dd
:109920008a0340009704ba009783ba009801880020
:109930008c0240009501ba009582ba00838f5400d2
:109940000b003a00858f530009003a000080e800c0
:1099500005402000850f5000f0ff3a000c02be00c9
:109960005fb19700efb19700060578004800370017
:109970000c02be005fb19700efb1970006007800bf
:109980000a03be000005780029042400093b880072
:10999000980188000c0ebb000700fc005005200059
:1099a000303b8800a00a2000303b880061e7a80017
:1099b0000000000000000000084020000900200016
:1099c0000604440087844c000606560087865e0025
:1099d000acb79f00bdb79f00260037009d018800ef
:1099e0001c02ba009c82ba00c5b79f00d4b79f0082
:1099f0002fb39700bfb397000602460087824e0040
:109a000095018800dfb397004fb39700070abb00aa
:109a1000068abb000000e90062064600e0864e00b0
:109a2000e00f5000edff3a007fb297008fba970029
:109a30000a03be000e0578001c0024000c3b8800c1
:109a40000700fc0050052000303b8800a00a2000e1
:109a5000303b880061e7a800000000000000000023
:109a60000608b0000780b000880f5300898f5b00a4
:109a7000070032000606be00000420000a07780036
:109a80000605be00f4b79f0085bf9f00d3ff3700d7
:109a900006402000070020000402430085824b009e
:109aa000820f5200838f5a008bff3900f60f20007f
:109ab000060565000b002000c055dd000a002000ef
:109ac00001054500e0854d006022b8000800250032
:109ad00009002000020020000601610003002000b0
:109ae000c011dd00020020003400370008034200ee
:109af00089834a0006034100878349009701880053
:109b00000c4020000d0020000600460087804e001b
:109b1000a0b79f00b1b79f000600be00d2b79f005c
:109b2000e3b79f000601be000403be001002ba00a6
:109b30009082ba00e10f42000d003a00e18f42002e
:109b40000b003a0062004000e08048002fb297000e
:109b5000bfb29700840f5000858f5800f3ff3a0082
:109b60000602be005fb19700efb197000f0037000b
:109b70000602be000203be005fb19700efb197007e
:109b800020042400003b8800060bbb000700fc00fb
:109b900050052000303b8800a00a2000303b8800a0
:109ba00061e7a8000000000000000000064020005f
:109bb000070020000402430085824b008a0f5200f8
:109bc0008b8f5a00c9ff39000000fe004f07780054
:109bd0004f06be004f05be004f04be008f01b1000e
:049be000000006007b
:020000040000fa
:020000040001f9
:0457f0005fff000057
:020000040000fa
:020000040001f9
:0457f400fffc0000b6
:020000040000fa
:020000040001f9
:0457f800ae7a000085
:020000040000fa
:020000040001f9
:0457fc00643f000006
:020000040000fa
:020000040040ba
:080000000000000035000000c3
:00000001FF
