:020000040000fa
:080000000002040000000000f2
:020000040000fa
:100008009402000094020000940200009402000090
:100018009402000094020000940200009402000080
:100028009402000094020000940200001a200000cc
:10003800940200009402000094020000240d0000c5
:10004800cc08000094020000300c0000940200006c
:1000580094020000b40c0000940200009402000016
:1000680094020000722c0000940200009402000028
:100078009402000094020000940200009402000020
:10008800940200009402000094020000d0080000ce
:10009800d22b0000461a00009402000094020000cf
:1000a80094020000940200009402000094020000f0
:1000b80094020000940200009402000094020000e0
:1000c80094020000940200009402000094020000d0
:1000d80094020000940200009402000094020000c0
:1000e80094020000940200009402000094020000b0
:1000f80094020000940200009402000094020000a0
:10010800940200009402000094020000940200008f
:10011800940200009402000094020000940200007f
:10012800940200009402000094020000940200006f
:10013800940200009402000094020000940200005f
:10014800940200009402000094020000940200004f
:10015800940200009402000094020000940200003f
:10016800940200009402000094020000940200002f
:10017800940200009402000094020000940200001f
:10018800940200009402000094020000940200000f
:1001980094020000940200009402000094020000ff
:1001a80094020000940200009402000094020000ef
:1001b80094020000940200009402000094020000df
:1001c80094020000940200009402000094020000cf
:1001d80094020000940200009402000094020000bf
:1001e80094020000940200009402000094020000af
:0801f8009402000094020000d3
:020000040000fa
:10020800940200009402000094020000940200008e
:10021800940200009402000094020000940200007e
:100228009402000094020000940200001a200000ca
:10023800940200009402000094020000240d0000c3
:10024800cc080000940200005a0c00009402000040
:1002580094020000b40c0000940200009402000014
:1002680094020000722c0000940200009402000026
:10027800940200009402000094020000940200001e
:100288009402000094020000940200000609000095
:10029800d22b0000461a00009402000094020000cd
:1002a80094020000940200009402000094020000ee
:1002b80094020000940200009402000094020000de
:1002c80094020000940200009402000094020000ce
:1002d80094020000940200009402000094020000be
:1002e80094020000940200009402000094020000ae
:1002f800940200009402000094020000940200009e
:10030800940200009402000094020000940200008d
:10031800940200009402000094020000940200007d
:10032800940200009402000094020000940200006d
:10033800940200009402000094020000940200005d
:10034800940200009402000094020000940200004d
:10035800940200009402000094020000940200003d
:10036800940200009402000094020000940200002d
:10037800940200009402000094020000940200001d
:10038800940200009402000094020000940200000d
:1003980094020000940200009402000094020000fd
:1003a80094020000940200009402000094020000ed
:1003b80094020000940200009402000094020000dd
:1003c80094020000940200009402000094020000cd
:1003d80094020000940200009402000094020000bd
:1003e80094020000940200009402000094020000ad
:0803f8009402000094020000d1
:020000040000fa
:10040000cf6822000e7f22000e018800000000004d
:1004100000012000200288000c00070080fd22005f
:100420000100200011000700000020000000e00093
:1004300002003200000002000000000088050200f7
:10044000000000000040da000000fe004440a90067
:10045000400020000000e000030032000000200007
:10046000a00188004440a800000006009101880017
:10047000800078000000eb0015003700e2804000ab
:1004800032a0b4009101ba00e280400032a0b40072
:100490009102ba00e280400032a0b4000002eb00fa
:1004a000472bde00f507b200602ce10004003a00a3
:1004b0000059eb008301e900fdff3e000400370016
:1004c0006128e100010032000082eb000400070017
:1004d0001101ba000200e000e8ff3a000000060047
:1004e0003159ba008301e9000c0032002159ba00e9
:1004f0008301e900080032000400e00003003a0034
:10050000e280400032a0b400f5ff370011d9ba00f4
:100510008301e900faff3a008100e800e180400031
:1005200032a0b400000006000040da000000fe0027
:10053000020ab900001bb9000200b80081004200a5
:1005400081004300000006006022b800060220007f
:100550000000d0008180d2000482d2008582d200c7
:100560000000a0000202520083825a000300310002
:100570000202420083824a000000a1000603e90053
:10058000f3ff3a0000000600839f68000100e000ce
:1005900002003d0060001000e08018000300e00051
:1005a00002003d0060011100e0811900e6ff070034
:1005b0004f00e00002003b0060001000e0801800e7
:0405c0000000060031
:020000040000fa
:0805c400ffff0000ffff000033
:020000040000fa
:1005cc0020d380006703b900f4ee2100110009006c
:1005dc000403d8008000fd0020d388000000060032
:1005ec00661af8008a1ef90000000600889fbe00fb
:1005fc008a9fbe008c9fbe000004be006110b80034
:10060c000803440024b5210064027b000412b800e6
:10061c00c129dd004f22de0004827100cf2ade00ea
:10062c00e00f510009003200e7b4210067037b00a2
:10063c0006024200e0824a00e10f4200e08f5a00bd
:10064c0002003600f4ff2f0005002000c34cdd0033
:10065c000a3220000ac3b9000683440027c42000d4
:10066c000601430002814300c82ede00c829dd00cc
:10067c004826de000c8671008c057800fb0fb2005a
:10068c00f8014400c819dd00038945000603e800a1
:10069c00060343004822dd0084337b0072db8000bc
:1006ac0083db80009fff0700823e200003002000b8
:1006bc00a2ff0700920020000300200099ff070012
:1006cc0002712200030020009cff07006022b8008a
:1006dc00ea0f5000e08f5800020036006a0250000a
:1006ec00e08258000ac5b9008a8444008984e80075
:1006fc008984440026c4200004b37c004f06be004d
:10070c004f05be004f04be0000000600430bdd0089
:10071c00013220000182b90084004300e3804000d4
:10072c0081804000000040000010dd0024c4200047
:10073c0000b2780000000600430add000132200000
:10074c000180b9000000420064004000000040003d
:10075c0024c420000232780000000600430add00a9
:10076c00013220000180b90000004200e502400087
:10077c0024c420008582420003b27a00e6024000c5
:10078c008582420003b27a006700400000004000fe
:10079c000232780000000600658c21000002400047
:1007ac00e08f500008003200048242004606200010
:1007bc000683b900068040004400dd0025c42000fb
:1007cc00050a40000000060081327a000000060095
:1007dc007067a90004fe2f00463580008602620077
:1007ec000510a000453588007536800005026200b2
:1007fc007400b30074368800f40f2e007636800037
:10080c000602620004b0a0007436880041e2a90020
:10081c004322a9004302a80042c2a9004342a800f7
:10082c0042a2a800141280000420a0000430a100f1
:10083c000440a00014128800300020004222b700af
:10084c004402a800041280000420a0000430a1007f
:10085c000440a0000412880041e2a8008540a900d1
:10086c009540a900440580000480a1000490a000dc
:10087c0004a0a0004405880000000600140020001d
:10088c0064d4880094e0a800000006008c3aef00c5
:10089c0084e0a8000000060070a7ef0072a7ef002c
:1008ac0074a7ef0076a7ef007087a9007167a90005
:1008bc007187a90071a7a90044d380004822de00eb
:1008cc006f026200e50f52001f003a007007a9008a
:1008dc0034ff2f006419880021e3a900000e2000ca
:1008ec002023b7002343a800141980000420a00083
:1008fc000430a1000440a1000450a1001419880088
:10090c00f40f2e0020198000000262000490a00059
:10091c002419880010c0b30024e3b700c4002000e1
:10092c008419880021e3a800540580000440a0002d
:10093c000450a1000460a0005405880085a0a90003
:10094c0095a0a800010037002ca3ef00cd62a800f1
:10095c00cd82a800c482a800c402a900c422a900a8
:10096c00c982a900c082a900c962a900c002a9005d
:10097c00c022a900cc62a900c862a90044d380009f
:10098c004822de006f026200e50f520003003a00bd
:10099c00c802a800c822a80004003700cc02a90095
:1009ac00c802a900cc22a900c822a900cce2a80048
:1009bc00c8e2a9007667a90004102800743a8800e0
:1009cc0004fe2f006635800086026200a500b3008d
:1009dc00653588002036800080026200a500b300d7
:1009ec00253688003536800005026200b400b3005d
:1009fc00343688006322a9006302a80062c2a900f1
:100a0c0062a2a800141380000420a0000430a100ee
:100a1c000440a00014138800300020006222b700ac
:100a2c006402a80061e2a8008820a9009820a9000f
:100a3c00a40580000440a0000450a1000460a100a3
:100a4c00a4058800640580000440a1000450a000a7
:100a5c000460a100640588008620a9009620a900e6
:100a6c00f6d580000603e9001608880005e1a80009
:100a7c00f4ff2c00200580000002620004e0a000be
:100a8c00240588009460a800940580000403b3003a
:100a9c000460a1009405880087a0a90097a0a80075
:100aac0034422f0064088800000320001021b70096
:100abc0011e1a8003405800004c0a00004d0a100fe
:100acc0004e0a10034058800046420007408880048
:100adc00940880000440a0000450a10094088800f1
:100aec0013e1a800940580000400a1000410a000ec
:100afc000420a100940588008780a9009780a90094
:100b0c0000000600889fbe00000020000080fb0053
:100b1c0001002000c000dd000000200004402a007d
:100b2c0004004000e0804800022020000300200068
:100b3c00b2140700cca2a90011002000b0c0b30071
:100b4c00db140700610060004500dd0044168000e6
:100b5c000450a100000272004416880037100700f0
:100b6c00e00f5000e08f580004003200000e20000f
:100b7c004220b700004c02000000000031d380007e
:100b8c000040eb00ca14070030d3880094fe070025
:100b9c0041d3800010c0b300c514070040d38800b7
:100bac0001d68000f0c0b300c114070000d6880045
:100bbc0044d380004822de006f02620064025200bf
:100bcc00e10f520043003e0000012000d0da880003
:100bdc005c3bef0004242400f4da8800f4002000cd
:100bec0004db8800623bef00643bef00663bef00e8
:100bfc00683bef000024240050db8800f00020004c
:100c0c0060db8800841a260074db8800703bef00e0
:100c1c0001012000e0c1b300a51407000100200071
:100c2c00d0da8800e1da8800823e20000300200040
:100c3c00f0da800001db800040fe070080007800c5
:100c4c00f0c1b3009a140700843e20000400b800e1
:100c5c00f0da880001db880011db800000c2b300f1
:100c6c00931407000100200010db880021db8800b2
:100c7c0031db800010c2b3008d140700010020008e
:100c8c0030db880041db8800420620000300200096
:100c9c0050db800061db800028fe070080007800bc
:100cac0020c2b30082140700440620000400b800e0
:100cbc0050db880061db880071db800030c2b30040
:100ccc007b1407000100200070db880081db8800aa
:100cdc000c0037005a3bef005c3bef005e3bef0033
:100cec00603bef00623bef00643bef00663bef00c4
:100cfc00683bef006a3bef006c3bef006e3bef0094
:100d0c00703bef0044d380006f026200e20f520090
:100d1c0007003a001868ef0010c0b30019e8b700dc
:100d2c00044078001ae8b70030c0b3001be8b700e5
:100d3c00c638ef00c838ef0071da8000d0c0b300bd
:100d4c005b14070070da880081da8000e0c0b30021
:100d5c005714070080da880091da800000c1b300d4
:100d6c005314070090da8800a1da800010c1b30098
:100d7c004f140700a0da880051d8800020c1b300be
:100d8c004b14070050d8880061d8800030c1b300e4
:100d9c004714070060d8880069a6210028c0b3005a
:100dac008840e8005901be00084078005c14070038
:100dbc00808cbe0008c4e800ea4f5400f8ff3a00eb
:100dcc0041af2100914078008180fb000840780001
:100ddc0037140700f4fab700f97f20000004eb0089
:100dec000880d100744040008000eb0030140700f4
:100dfc00610264004322dd000400de00806c780098
:100e0c000804e800f40f5400f5ff3a0034d38000d6
:100e1c000402e80024d388009ffe07000140fe0076
:100e2c00feff370004d58000160020000433dd00df
:100e3c0044d5800055d580008603e90020d580007c
:100e4c000780b900840340008703d10027c78800be
:100e5c00e10f530002003a00042820000300370081
:100e6c008502d1000482d3000428b00034c7880066
:100e7c0000000600881f7800000478000400280099
:100e8c000512800005026200e00f5200440032009f
:100e9c009460a90041e2a90061e2a90040a7a80062
:100eac001400fc00a50920000003eb0084072000bf
:100ebc0037742000844b7800854b7800864b780083
:100ecc007505200016002000640420002774200003
:100edc00844b7800854b7800864b78004207ab003a
:100eec00feff3a000a0037000040fe0061e2a80055
:100efc0001c9b3000040eb006d11070001c8b3003d
:100f0c000040eb006a11070061e2a9000804e90047
:100f1c00e00f5400f4ff3a001400fc00a509200077
:100f2c00260020008407200037742000844b7800b2
:100f3c00854b7800864b7800750520001600200044
:100f4c006404200027742000844b7800854b7800c3
:100f5c00864b78004207ab00feff3a0040a7a90081
:100f6c00040028000100370041e2a80006128000ae
:100f7c0086026200e08f5200fbff32000200370055
:100f8c0061e2a8000100370004002800061380006d
:100f9c0086026200e08f5200f9ff32003900370000
:100fac009460a90061e2a90040a7a8001400fc000d
:100fbc00a60920008507200037742000854b780097
:100fcc00864b7800844b78007505200016002000b5
:100fdc006404200027742000844b7800854b780033
:100fec00864b78004207ab00feff3a000a00370040
:100ffc000040fe0061e2a80001c9b3000040eb0014
:10100c002b11070001c8b3000040eb0028110700aa
:10101c0061e2a9000804e900e00f5400f4ff3a0073
:10102c001400fc00a50920002600200084072000e5
:10103c0037742000844b7800854b7800864b780001
:10104c007505200016002000640420002774200081
:10105c00844b7800854b7800864b78004207ab00b8
:10106c00feff3a0040a7a900040028000100370049
:10107c0061e2a8000613800086026200e08f520035
:10108c00fbff32009460a8004f04780000000600bb
:10109c0084d680008402d100e38262000300320017
:1010ac00e28f520004003a0002003700cd82a90002
:1010bc0001003700cd82a8004322de0063026200eb
:1010cc0003003200e20f520004003a000200370025
:1010dc00c482a90000000600c482a800000006001b
:1010ec0084d68000c522de00e38262000300320059
:1010fc00e28f520004003a0002003700cd82a900b2
:10110c0001003700cd82a8004722de006302620096
:10111c0003003200e20f520004003a0002003700d4
:10112c00c482a90000000600c482a80000000600ca
:10113c00cd82a900c482a90000000600881f780097
:10114c000004eb00d8d38800c8d588002400200008
:10115c00b4d588007667a90004102800743a88007a
:10116c0042af210012417800e1c0b3000840780082
:10117c00c90f0700eeff0700783a88007667a900d0
:10118c00c2fd07004f047800000006008500a9008e
:10119c0000400600849fbe00861f780075418000c9
:1011ac001502780044128800c402a900f4d780000c
:1011bc000402e80026d78000860f5200020032009d
:1011cc008582e80008003700264180000603e9000c
:1011dc00264188000002eb0065822000840f53003a
:1011ec0001003a009760a900f4d788007541880087
:1011fc008760a9004f0378004f02be000040060034
:10120c00809fbe00829fbe00849fbe00869fbe0052
:10121c0054d7800064d78800e00f520024003a00b5
:10122c00c402a900764180001600780040128800a4
:10123c00f5d780008583d10007c7880015c78800c3
:10124c008502e80027d78000878f52000200320009
:10125c000682e8001300370035d78000e08f52007b
:10126c0007003a00264180000603e9002641880069
:10127c00648220000b003a009760a9000900370037
:10128c001500200055d78800840278006482200065
:10129c00e6d88000f7c68000868f530001003a0024
:1012ac002043a800f5d788007441880063013700fb
:1012bc00e10f520011013a00f5d78000c6d880002a
:1012cc00868f52007a003a0086d88000f7c68000dc
:1012dc00868f53002c003a0026d9800046d988000e
:1012ec002c1bf800301bf900261bf8002a1bf900f8
:1012fc002e1bf800321bf900d218f800d618f90092
:10130c0032d88000020078000a1bbc00c41bdd0030
:10131c004c11de0002817300cc19de00d2c68800ad
:10132c00e00f53000c003200243bef002c3bef008d
:10133c0036c68000e00f530006003200a4d98800a6
:10134c00ce38ef0024c4200014c68800c4d988000d
:10135c00010037003c3ba80084d98000e00f52000c
:10136c0009003200343bef002c3bef00cc62a900ab
:10137c0004802100441288004822ef00d238ef008c
:10138c00463bef003c3ba800a4d88000f6c680008a
:10139c00840f530046003a00a4d98000e00f52009d
:1013ac004300320074c68000e00f52003e003a0049
:1013bc00cc62a90016c68000360078004012880066
:1013cc008603780037027800441288000702780000
:1013dc003400780090c688003400780030da880039
:1013ec003400780070c6880014c688001400780099
:1013fc00e00f50001d0032000482e80014c6880083
:10140c00c6d98000840f530005003e000483e80019
:10141c00c6d98800000ae9001602780005003700da
:10142c0014037800e00f530007003200060ae900ad
:10143c00140290004422dd0026c420000602420063
:10144c0014c688001a003700000a7800ec834300a9
:10145c0017c6880034c68000848f53000800320001
:10146c00848f5300120036000c0037006e034300cb
:10147c0016c6880034c68000840f530005003a005d
:10148c00b4da8000e00f52000900320024c42000be
:10149c00ebff3700840f53000500360014002000ca
:1014ac0064d98800020037000402e90074c6880081
:1014bc00d4d88000848f520076003a0094d88000f3
:1014cc00f6c68000840f530026003a00d418f800aa
:1014dc00d818f90042d88000020078000c1bbc0020
:1014ec00441add004c11de0002017200cc19de0042
:1014fc00e2c6880054d98000e00f52000d00320083
:10150c00263bef002e3bef0044c68000e00f52005c
:10151c000700320014002000b4d98800d038ef0046
:10152c002428210024c68800d4d988000100370063
:10153c003c5ba80094d98000e00f520009003200f7
:10154c00363bef002e3bef00cc62a900049021004b
:10155c00441288004822ef00d438ef00483bef00db
:10156c003c5ba800b4d88000f6c68000840f530002
:10157c0048003a00b4d98000e00f52004500320018
:10158c0084c68000e00f520040003a00cc62a900f3
:10159c0026c68000b60378004712880086037800c0
:1015ac003700780040128800070278003400780079
:1015bc00a0c688003400780040da88003400780037
:1015cc0080c6880024c6880014007800e00f500004
:1015dc001f0032000482e80024c68800d6d980009f
:1015ec00840f530006003e000483e800d6d988001f
:1015fc00000ae90047062000168243000600370067
:10160c0014037800e00f530008003200060ae900ca
:10161c00140290004406b0004422dd0026c42000d1
:10162c000602420024c688001a003700000a78001f
:10163c00ec83430027c6880044c68000848f530087
:10164c0008003200848f5300120036000c00370063
:10165c006e03430026c6880044c68000840f5300e6
:10166c0005003a00c4da8000e00f52000900320095
:10167c0024282100ebff3700840f530005003600af
:10168c001400200074d98800020037000402e9001d
:10169c0084c688008502e80034d78000848f52000d
:1016ac0014003a00f4c680000402e800f4c6880076
:1016bc0075d88000850f520001003900de38ef002c
:1016cc0044d78000e00f520007003a00244180000c
:1016dc000402e9002441880001003a009760a90047
:1016ec00ea3aef00020037002400200054d78800ab
:1016fc008002eb00f5d7880050003700e20f520053
:10170c004e003a00f4d780000402e80045d7800070
:10171c00850f520048003a0014da8000e00f5200a6
:10172c003e003200f4c68000f5d88000850f5200d0
:10173c000d003a0037da800040da8000d6c680000f
:10174c008002eb00b1c68000810f53000100310014
:10175c0005022000870370004633dd00068373000a
:10176c008502730055da880005d98000850f520078
:10177c000e003a0037da800044da8000e6c68000ba
:10178c008002eb00c0c68000800f530001003100c6
:10179c0005022000048273000440a0004633dd00e3
:1017ac00060272008502720065da8800f4d98000a6
:1017bc0084024200a4618000a6b42100669a7a00db
:1017cc003e3bec00a4618800b5618000850f52009f
:1017dc0002003a0044832000a461880014da8000df
:1017ec00e10f520009003400a461800060da80002f
:1017fc00001a78003e3bef00a4618800850f520070
:10180c0002003a0044832000a4618800f4d98000cf
:10181c00e10f5200010034003e3bef0024418000f8
:10182c000402e9002441880001003a009760a900f5
:10183c00ea3aef000002eb00f4d788008760a900b9
:10184c004f03be004f02be004f01be004f00be0052
:10185c0000400600c402a800849fbe00861f7800ca
:10186c008540a90045128000c6812000f4d7800075
:10187c0066427a00e04f520008003200a4618000fa
:10188c00051a7800a4618800b5618000850f5200ac
:10189c0002003a0044832000a46188004f037800c2
:1018ac004f02be0000400600849fbe00869fbe0013
:1018bc008540a90064d78000e00f52001f003a0059
:1018cc00c402a80045128000c6812000f4d7800015
:1018dc0066427a00e04f52001d003200a461800085
:1018ec0026da8000e00f53000a00320006c78000a1
:1018fc000603430067b42100e7037b0016c7800092
:10190c00063bde00610363000500a100050a7300bd
:10191c0001003700050a7800a46180000482e80009
:10192c00a4618800b5618000850f520008003a0060
:10193c0044832000a461880005003700e10f5200a9
:10194c0003003a00cc62a8004412800044128000cc
:10195c004f03be004f02be00004006002043a9000a
:10196c0085a0a9000003f800061bf9000203f8008b
:10197c00081bf900004006000200fa00881f7800de
:10198c0001047800c0ff9f0070e7a90054022000fa
:10199c002410880004042900341088009620a80024
:1019ac0071e7a900743e2000e408880021e1a8003a
:1019bc009780a8001300200003017800e4805700f2
:1019cc0060c3b30068100700e00f500005003a0038
:1019dc008001780022002000e480570060c3b3002f
:1019ec00711007009780a90021e1a90071e7a800f8
:1019fc009620a9000622ef0070e7a800cffa970006
:101a0c000582fb004822dd00dffa97008582fb008f
:101a1c000502420005002000048cbe00440020009a
:101a2c00e00f500001003a00240020000400780070
:101a3c004f0478000080fa00000006003600f80021
:101a4c00809fbe00829fbe00849fbe00869fbe000a
:101a5c0084e0a90014002000a4dc880004d38000da
:101a6c00e00f520006003a00c1b8210020c0b300bc
:101a7c00c1ff070001b9210040c0b300beff070041
:101a8c0004d380000402e80004d38800f40f520051
:101a9c000c00320084dc800095dc8000f60f200006
:101aac00860f5200e08f5a000600360064dc80007e
:101abc0075dc8000f61f2000860f5200e08f5a0064
:101acc0001003e00603aef00943bef0064d48000cc
:101adc00e00f520001003a0094e0a9004f03be0051
:101aec004f02be004f01be004f00be003600f90091
:101afc0000400600000278000408b20016003a000c
:101b0c00f4c3b300844060004600de00e6cf500012
:101b1c0003003a00614060004300200006003700db
:101b2c00e3cf500007003a005439ef005639ef006c
:101b3c00614060002300200042952100520d0700f7
:101b4c009301370061406000560d07000080fb00d8
:101b5c00010020009c003700f00fb2006102b800b9
:101b6c000408b1000580b100f6072000860f520072
:101b7c00e08f5a0087013e00046001007f003700af
:101b8c0080003700830037008d003700810137005b
:101b9c00800137008f003700930037007d0137003c
:101bac007c0137007b0137007a013700790137005f
:101bbc00780137009000370092003700940037000e
:101bcc009600370073013700720137009900370017
:101bdc009b0037006f0137006e0137006d01370035
:101bec006c0137006b0137006a013700690137005f
:101bfc006801370067013700940037009600370002
:101c0c0097003700aa003700ab003700ac00370054
:101c1c00600137005f0137005e0137005d0137005e
:101c2c00c6003700c8003700ca003700cc003700a8
:101c3c00ce003700d0003700d2003700d400370078
:101c4c0054013700d5003700d6003700510137005a
:101c5c00500137004f0137004e0137004d0137005e
:101c6c004c0137004b0137004a013700490137005e
:101c7c00480137004701370046013700cc003700d8
:101c8c00cb003700ca003700c900370041013700cc
:101c9c00400137003f0137003e0137003d0137005e
:101cac003c0137003b0137003a013700390137005e
:101cbc00380137003701370036013700c2003700d2
:101ccc00d8003700330137003201370031013700bb
:101cdc00300137002f0137002e0137002d0137005e
:101cec002c0137002b0137002a013700290137005e
:101cfc00280137002701370026013700cc003700b8
:101d0c00cd003700ce003700cf003700d1003700b0
:101d1c00200137001f0137001e0137001d0137005d
:101d2c001c0137001b0137001a013700190137005d
:101d3c00180137001701370016013700150137005d
:101d4c001401370013013700c400370011013700ac
:101d5c0010013700cf003700d4003700d90037000e
:101d6c00db003700dd003700df003700e100370013
:101d7c00e3003700e5003700ed00370034d3800076
:101d8c001500370037052000a7ca88005639ef0028
:101d9c00ff003700040020000482fb000500200037
:101dac00c022dd00040020000600250006024200cf
:101dbc00e0824a000402420085824a000700370094
:101dcc00d0dd8000e1dd8000a0ca8800b1ca8800a7
:101ddc00ef00370044d3800005002000a4ca88001f
:101dec00b5ca8800ea00370031002000a1ca88007b
:101dfc005639ef00e600370044af2100144278005a
:101e0c000900370054af2100144278000600370057
:101e1c0064af2100144278000300370044168000a0
:101e2c004522de00614262000482fb0005002000b6
:101e3c00eaff370064dc800075dc8000e7ff3700c8
:101e4c0086dc800097dc8000cf00370080d78000d4
:101e5c0091d78000dcff3700b4d68000deff37005e
:101e6c00b4a521001442780084cf50000700320042
:101e7c00c4d680000402e800c4d68800b5d6800021
:101e8c00850f520001003600d83aef00c4d680000e
:101e9c0050002000e00f5200bf00350025ad21009e
:101eac00e5427a008582fb004822dd00760037008f
:101ebc00d4d68000c8ff3700e4d68000c6ff3700b8
:101ecc00b4a521001442780084cf500006003200e3
:101edc0054d480000402e80054d48800ea0f520065
:101eec00010034008a3aef0054d4800050002000e6
:101efc00e00f5200a80035000403420005802000ca
:101f0c0065417b000281fb00030020006120b900c9
:101f1c00c000dd000000200002004000838048006b
:101f2c000603e80065437b004833dd00cfb3de00d9
:101f3c000002430081824b00a8ff370096d480003a
:101f4c00a7d4800090003700e0d48000f1d480004a
:101f5c009dff370004d5800015d580009fff37000a
:101f6c0026d5800037d580008700370040d580000b
:101f7c0051d5800094ff370064d5800075d5800062
:101f8c0096ff370086d5800097d580007e003700fd
:101f9c00c0d48000d1d480008bff370084d6800061
:101fac008dff370074d4800085d480008bff370000
:101fbc00000cb1004200dd00a4a62100000042008c
:101fcc001003be007000370046d6800007002000ca
:101fdc00c833dd000600200034d680000500200048
:101fec00c022dd000400200004027300858273000f
:101ffc0016d680000700200006027200878272004d
:10200c0020d6800001002000480bdd00c803de0054
:10201c00870373004803dd0006027200878272009a
:10202c006eff370050d6800061d6800066ff370007
:10203c0004dc8000150037001408800066ff3700b0
:10204c00f4d580001100370014dc800044a2de00bf
:10205c000e00370004d680000c003700c4da800074
:10206c00b5da8000e2036200c23bdd0062836200ed
:10207c000603430006834300e182620085024300ad
:10208c00610262000402420004824200cfa2de0020
:10209c0052ff370086da800007002000c033dd00d5
:1020ac000600200074da80001d003700a6da8000dc
:1020bc0007002000c033dd000600200094da800009
:1020cc0017003700d4da8000e5da800043ff3700d0
:1020dc00f6da800007db80002b00370010db800075
:1020ec0021db800038ff370034db800045db8000cb
:1020fc003aff370056db800067db80002200370098
:10210c0070db800081db80002fff370066d88000f9
:10211c0007002000c033dd000600200054d88000ea
:10212c00050020000600420087804a0026ff370089
:10213c0032d88000020078000a1bbc00cc1ade00ea
:10214c00c418dd004c12de0004827000d4c6880076
:10215c0042d88000020078000c1bbc00c418dd00c3
:10216c004c11de0002817000cc19de00e2c6880042
:10217c0003002000c011dd0002002000050020003b
:10218c000203420083834a00a6ca8800b7ca8800ab
:10219c00300005005000200000000600889fbe00a3
:1021ac000102780002047800d9d38000e08f54003b
:1021bc0005003a0000037800f60fb200c50b2000b2
:1021cc00850f5300fa023a00800278000508b2002d
:1021dc0013003a00f5c3b300854060004600de00f2
:1021ec00e6cf500003003a0061406000430020003d
:1021fc0004003700e3cf500005003a006140600056
:10220c0023002000040178000b0c0700d6023700d5
:10221c0061406000144178009f0b0700d202370028
:10222c00f00fb2006103b8000608b1000780b100de
:10223c00f5072000850f5300e08f5b00db023e00aa
:10224c00066001007f003700d8023700d702370044
:10225c008200370083003700c3023700ad0037001f
:10226c00d2023700d1023700d0023700b10037005c
:10227c00bd023700cd023700cc023700af0037006b
:10228c00ba003700bc003700be003700c702370069
:10229c00c6023700c5023700c4023700c30237003c
:1022ac00c2023700c1023700c0023700bf0237003c
:1022bc00be023700bd023700bc023700bb0237003c
:1022cc00bd003700d4003700db003700eb003700cf
:1022dc00ed003700fe003700b4023700b3023700c0
:1022ec00b2023700160137001c0137004e013700cf
:1022fc005101370054013700580137005b0137009a
:10230c005e01370061013700640137006701370057
:10231c0075013700a5023700a4023700a30237006d
:10232c00a2023700a1023700a00237009f0237003b
:10233c00700137007c0137008b0137008d013700ad
:10234c009a023700900137008f0137008e01370059
:10235c008d01370095023700940237009302370045
:10236c009202370091023700900237008f0237003b
:10237c008e0237008d0237008c0237008b0237003b
:10238c008a0237008b01370097013700870237002c
:10239c00860237008502370084023700830237003b
:1023ac008202370081023700800237007f0237003b
:1023bc007e0237007d0237007c0237007b0237003b
:1023cc007a02370079023700780237008b01370028
:1023dc00760237008c013700740237007302370025
:1023ec007202370071023700700237006f0237003b
:1023fc006e0237006d0237006c0237006b0237003b
:10240c006a023700840137008e013700a2013700c1
:10241c00a6013700ad01370064023700b801370060
:10242c00c2013700cc013700d1013700da01370087
:10243c00df013700e4013700ed013700f20137000e
:10244c00fd0137001402780034d3880064f80700cb
:10245c0031d380000040eb00420037001403be0073
:10246c002900370019002000b5a5210095427800fd
:10247c0085cf51004e023200d6dd8000e7dd8000b2
:10248c00e10f4300e08f4b0009003a00000e2000e2
:10249c004220b70084017800080178000600be00d5
:1024ac00c70807000a0a07000000fe0011003700e9
:1024bc0019028000c54cde00e7c46400000e200049
:1024cc004220b7008700d1000680d3008401780039
:1024dc000801780027090700678264004522dd00a7
:1024ec00f9f12f0015028000858464008484740047
:1024fc0019028800cfc4de00d6dd8000e7dd800045
:10250c000603440087834c00d6dd8800e7dd880095
:10251c0015023700940078006f826000590020008b
:10252c00e20f520022023a0041d3880010c0b300df
:10253c000c0037000000fe000b0237001403900063
:10254c005900200045232100850f530018023a0042
:10255c009400780001407800f4fab7008180fb0009
:10256c00a0c0b3005c0e0700ff01370014407800d8
:10257c00f5fab700fc01370014407800f6fab70002
:10258c00f90137009442780061c362006103630073
:10259c004533dd00451680000550a100868272008f
:1025ac0045168800144278008480fb00e1806000ae
:1025bc00b0c0b300ebff37001402be0084d7880014
:1025cc0095d78800c82bde004828dd004823de00a4
:1025dc00060370006103630006da8800060032000f
:1025ec00ca2bde004628dd004a23de0006037000fd
:1025fc006f0363000603e80016da8800472bdd0042
:10260c004922de0004027300c92ade006102620066
:10261c0024da8800d40137001403be0059002000ce
:10262c00e30f5300e08f5b00e1013e0014027800e1
:10263c00b4d68800cc01370084027800d5437800ea
:10264c000783fb0059002000b7d68000870f53008a
:10265c00d7013e0014427800e14f420002003200e4
:10266c0027ad210084737b00954278000582fb0026
:10267c000402e900c4d68800bb01370014027800bc
:10268c00d4d68800b801370014027800e4d688004c
:10269c00de3aef00e10f52000b003200e30f520064
:1026ac0002003a002400200007003700e70f520018
:1026bc0002003a003400200003003700ef0f5200f4
:1026cc004f003a0044002000f4d688004c0037003c
:1026dc000484e8009842780059002000e9cf5200a9
:1026ec00b3013e0034439000e14f43000f00320031
:1026fc008582fb0085824200068020001440780011
:10270c0000f37a00184378008682fb008582420031
:10271c00168020009443900007f37a0098427800ca
:10272c0074c0420094007800eb0d07001844780048
:10273c000882fb000402e90054d488008a013700a7
:10274c0059002000341f2000e5d28000848f5200f5
:10275c0097013400a9db8800830137001404be0004
:10276c0098d48800a9d48800e00f5400e08f5c0056
:10277c00090032000801be0000fa20000100200010
:10278c006ef7070070d8880006192000860f5400d9
:10279c00e08f5c000e003e00103bef004400200078
:1027ac0094d8880024002000a4d88800640020005d
:1027bc00b4d8880074002000f4d88800840020006d
:1027cc0004d98800183bef001a3bef0009003700d2
:1027dc00103bef00123bef00143bef00163bef00f9
:1027ec001e3bef00203bef00183bef0014002000d5
:1027fc00d4d8880077d880008703e900e7d8880010
:10280c0094d48000a5d48000f6d680000603e9009d
:10281c00030033000402420085824a00fbff3700ac
:10282c00b4d48800500137001403be00e6d48800ed
:10283c00f7d488004c0137001403be0006d588007d
:10284c0017d58800030037001403be0026d5880076
:10285c0037d5880073f90700430137001403be0015
:10286c0046d5880057d58800faff37001403be0000
:10287c0066d5880077d588003b0137001403be006d
:10288c0086d5880097d58800370137001403be0021
:10289c00c6d48800d7d48800330137001403be0097
:1028ac00d6d78800e7d78800060037001402be0090
:1028bc00e00f5200e08f5a0005003a00d4d7880090
:1028cc00e5d7880054002000b4db880026013700cf
:1028dc0061036200190020003501320084d68800a3
:1028ec00ebf907003201370019002000e9db880002
:1028fc002f013700e501200005d488001440780032
:10290c0082feb7001440900083feb7002442900072
:10291c006102620044d48800ddf9070054002000f5
:10292c00c4d788001001370019002000d9d38800c3
:10293c00e501200005d4880094027800e5d38800d6
:10294c002442900063426200044078007efab70093
:10295c00550020000522dd00044078007ffab70006
:10296c00c6f70700120137003400200014d4880089
:10297c00fd0037001440780084fab70054002000a2
:10298c0034d48800f8003700000cb1001401be00ec
:10299c004202dd00a5a6210004824200028abe008c
:1029ac000040e800004040008040e800700d070047
:1029bc00ed003700144378008682fb0015d68800a2
:1029cc00944290008582fb0025d68800a44290009a
:1029dc008582fb0035d68800344290000482fb00cf
:1029ec0044d68800e00037001402be0054d688009c
:1029fc0065d6880075d68800db0037001402780095
:102a0c00f4d58800d80037009400780001d68800ef
:102a1c00f0c0b300d3fe3700a44090005900200052
:102a2c0035c6b30085cf5000e1003e008180fb002d
:102a3c003440900061006000140178003ef70700fc
:102a4c00c90037000484e800984078005900200041
:102a5c0035c6b30085cf5000d5003e00e3044200dc
:102a6c008180fb00994378000780fb0061006000c7
:102a7c0014017800ddf60700994478000980fb000a
:102a8c004601de00184478008880fb00610060007d
:102a9c001ef70700b400370034409000610060005e
:102aac00940078003cf70700af003700b442900068
:102abc00e18262008582420066b5210085024300f6
:102acc0014027800e10a6200a7003700a4409000cd
:102adc005900200035c6b30085cf5000b4003e002d
:102aec00940178004819de008180fb00344090008e
:102afc00610060008381fb0018f707009a00370023
:102b0c00e3024200154078000083fb006103630080
:102b1c0006034300e7b4210094337b009542780010
:102b2c0061c062006d40400041003700e30242008a
:102b3c00954378000783fb006103630006034300a1
:102b4c0027b5210094337b009542780061c0620068
:102b5c0070404000360037001403be00d6da8800ff
:102b6c00e7da880094007800e0c1b3007dfe3700fe
:102b7c001403be00f6da880007db88001400be00e0
:102b8c00823e2000030020006cf6070080007800d5
:102b9c00f0c1b30073fe37001403be0016db8800cf
:102bac0027db88009400780000c2b3006dfe37006c
:102bbc001403be0036db880047db880094007800e5
:102bcc0010c2b30067fe37001403be0056db88004a
:102bdc0067db88001400be004206200003002000c2
:102bec0056f607008000780020c2b3005dfe370067
:102bfc001403be0076db880087db88009400780025
:102c0c0030c2b30057fe3700e30242009543780010
:102c1c000783fb006103630006034300a7b0210098
:102c2c0094337b009542780061c062007240400092
:102c3c00940078004bfe3700344390000683fb0071
:102c4c000700200059002000e30f5300e08f5b00c9
:102c5c0057003e00066001000300370008003700f3
:102c6c002b003700420037007067a800c422a9006f
:102c7c00cc02a900c402a900cc62a9003a0037001a
:102c8c00c422a800cc02a800047d20000000000093
:102c9c000402e900fdff3a00c402a800cc62a800bf
:102cac00cbf60700cc62a9000480230044128800f4
:102cbc00041020004412880040a2ab00feff3a0032
:102ccc004412800040a2ab00feff3a004412800088
:102cdc00cc62a80000000000000000000000000012
:102cec0000000000cc62a9000400230044128800fc
:102cfc00043020004412880040a2ab00feff3a00d2
:102d0c004412800040a2ab00feff3a0012003700d4
:102d1c00cc62a900a4429000e1826200f8824200d9
:102d2c00c82add00144390000683fb008682420013
:102d3c0045128800144278000482fb004822dd0012
:102d4c004412880040a2ab00feff3a0044128000ff
:102d5c0040a2ab00feff3a0044128000cc62a800f7
:102d6c0084382100d4d588001900200010003700c9
:102d7c0095a0a9002043a800040022002004800094
:102d8c0080026200e08f5200fcff32002043a90059
:102d9c0085a0a9000003f800061bf9000203f80047
:102dac00081bf90095a0a800efff37005900200080
:102dbc00090078004f04be00000006000200fa0073
:102dcc00889fbe008a1f780000447800f4d28000ef
:102ddc000402e800f4d28800e50f520002003a0029
:102dec00c482a90004003700ea0f520002003a0026
:102dfc00c482a8005e3aef00f4ff2000c4bf9f001d
:102e0c0001cdb30008407800a909070001ceb3003a
:102e1c0008407800a609070001e821000840780066
:102e2c0028090700230020006881570031c0b30037
:102e3c0008407800000907004fba97008404e800a6
:102e4c00c9bf9f0004042000848f5400010034008b
:102e5c008404780052c3b300b1c0b30008407800ba
:102e6c008d08070024002000110009008404d800fc
:102e7c00259121000002eb0002003700802aeb00b4
:102e8c000402e800800f5200fcff35008901780035
:102e9c004291210051c0b30008407800e6080700b9
:102eac00cfba970089825200c5bf9f000a4020000c
:102ebc0021003700e04f540005003a005616800000
:102ecc0006026500e00f5200fcff320003003700e1
:102edc00210a0700e00f5000fdff3200cfbc970025
:102eec0004032000848f5400010034008404780013
:102efc0024002000110009008404d8002591210031
:102f0c000002eb0002003700802aeb000402e8000c
:102f1c00800f5200fcff350089017800429121009e
:102f2c0051c0b30008407800c30807004fba97009f
:102f3c0009025200c4bf9f00cfba9700e08f520025
:102f4c00dcff3a0012c0b300b1c0b30008407800f7
:102f5c0051080700e04f540006003a0004402000de
:102f6c005616800086026200e08f5200fcff3a0089
:102f7c0003003700f8090700e10f5000fdff320095
:102f8c004f0578004f04be000080fa0000000600d8
:102f9c000200fa00889fbe008a9fbe008c1f78003a
:102fac000044780044002000a4bf9f00d4d38000cc
:102fbc00e00f52000b003a0065002000a5bf9f00f7
:102fcc0080c0b300c8fbb70004407800c9fbb70051
:102fdc00661af800ca1bf900681af800cc1bf90035
:102fec0012003700c87bef007edabf00c9fbb700c8
:102ffc007c1af800ca1bf90034de8000e00f520086
:10300c000a00320004407800c8fbb700e30f5200fe
:10301c0006003a0084002000a4bf9f00a4ca8000d0
:10302c00b5ca800064de880075de8800c63bef0000
:10303c00afba97008502e900a5bf9f0001cdb30090
:10304c00084078001a09070001ceb3000840780048
:10305c0017090700d4d380006202620001e8210046
:10306c0001003a0041e8210008407800950807006b
:10307c00230020006c81570031c0b3000840780059
:10308c006d0807002fbb97008604e800a9bf9f00be
:10309c0004042000848f5400010034008404780060
:1030ac0052c3b300b1c0b30008407800fa07070060
:1030bc008901780082bc210051c0b300084078001f
:1030cc005d0807002fb8970009005000a0bf9f00b3
:1030dc000c4020000b03200018003700e04f540078
:1030ec0005003a005516800005026600e00f5200fc
:1030fc00fcff32000300370097090700e00f500077
:10310c00fdff32002fbd97008b0f550001003400de
:10311c000a03200082bc2100028144008a0178004d
:10312c0051c0b30008407800430807002fbb97003c
:10313c000a035300a6bf9f008a8444002fb897004f
:10314c00e00f5000e5ff3a0012c0b300b1c0b3006d
:10315c0008407800d0070700e04f540006003a0002
:10316c00044020005616800086026200e08f520058
:10317c00fcff3a000300370077090700e10f50000d
:10318c00fdff320001ccb30008407800c8080700ee
:10319c0001cfb30008407800c508070081e8210082
:1031ac00084078004708070052c0b300b1c0b30014
:1031bc0008407800b8070700091920000a402000d1
:1031cc00e04f540005003a005016800000026500e4
:1031dc00e00f520004003200070037005e090700c0
:1031ec00e10f5000040032008904e900f4ff3a00ba
:1031fc000905780046003700230020006c81570039
:10320c0031c0b300084078009f0707002fba970021
:10321c008404e8000005eb0044102000848f540067
:10322c003b003c00ec0320000b4020001800370052
:10323c0052c3b300b1c0b300084078009607070032
:10324c00e04f540005003a005516800005826500d9
:10325c00e00f5200fcff3200030037003e0907006c
:10326c00e00f5000fdff320082bc2100020145003e
:10327c000303200051c0b300084078008207070008
:10328c002fbb97000603b100a6bf9f000a03b00036
:10329c002fba97008c0f5200e5ff3c0012c0b30010
:1032ac00b1c0b300084078007b070700e04f540022
:1032bc0006003a0004402000561680008602620088
:1032cc00e08f5200fcff3a00030037002209070090
:1032dc00e10f5000fdff320082bc210002014500cd
:1032ec002fb897008001e80051c0b3000840780067
:1032fc00650707008040eb0008407800690707006d
:10330c000002b2001a002000010032000005eb00a0
:10331c0001c8b3000840780065080700e00f5500ad
:10332c0051003200e401200004d4880084bc210048
:10333c00144278000482fb00e102620017003200a4
:10334c006202620009003200d4d38000e00f520008
:10335c003b00320091bc21009140780050de80008f
:10336c00e4f9070030de880009003700648154005e
:10337c0093bc210093417800c1bc210050de800039
:10338c0086fb070030de8800e00f50002c00320076
:10339c0094012000d4db88002900370044dc800035
:1033ac00e00f52002500320055de80000502780047
:1033bc0016f82f00868f520001003d00060278009f
:1033cc00f6072000860f5200010034000602780038
:1033dc0016dc80000603420016dc88000780200003
:1033ec00870f530003003c0007802f00870f53000a
:1033fc0001003d0017dc88004322dd0004dc88005e
:10340c0004712200848f52000b003c00048f2d00ad
:10341c00848f520008003500c612200005034300bb
:10342c0084252000840f530002003e000002eb00b4
:10343c00010037000502780054dc8800c63bef0021
:10344c00c9dbbf005bfab70044dc8000e00f520020
:10345c0005003200e418f8000e01f900e618f80037
:10346c000a01f9008500a900883bef004f0678009f
:10347c004f05be004f04be000080fa00000006009d
:10348c003600f800809fbe00829fbe00849fbe0065
:10349c00869fbe00889fbe008a9fbe000200fa0075
:1034ac0087a0a90094db8000e00f520032003200ac
:1034bc007667a90004102800743a880048dc800064
:1034cc000040eb00b2fe0700e00f54001d0032007c
:1034dc00b5dc80008502e800b5dc880084d680006d
:1034ec0006022000868f52000c003600963bef003f
:1034fc008402d100e3826200e18f520001003a00a5
:10350c00cd82a8004322de0063026200e10f52006c
:10351c000c003a00c482a8000a0037008402d100d3
:10352c00e3826200e18f520001003a00cd82a900d3
:10353c004322de0063026200e10f520001003a00f8
:10354c00c482a9004e27ef007667a900d4db800067
:10355c00e00f5200080032000402e900d4db8800be
:10356c00f40f52000400340044d48000e00f5200e9
:10357c0001003a0087a0a800c8d78000e00f5400d3
:10358c000f0032000804e900c8d788000c003a008c
:10359c0034002000d4d388007667a90004102800da
:1035ac00743a880052af210012417800e1c0b30098
:1035bc0008407800b8060700783a88007667a900ba
:1035cc00a4db8000e00f5200020132000402e9008b
:1035dc00a4db8800e10f5200e5003a00dc1aec0095
:1035ec000100200092d48000a3d48000cdf307000a
:1035fc000001be0000902000d1032000dff3070083
:10360c0004d580000402e900030033008180d1005e
:10361c000080d300fbff370084d5800095d5800057
:10362c0061014200e0814a00c4f30700e0d5880044
:10363c007667a90004102800743a8800bad6800076
:10364c000a02e80024d78800e30f520002003a0077
:10365c004400200024d7880025d780004782200012
:10366c00140020000003eb0048102a00864178006b
:10367c0004417800140037008680e800110009002e
:10368c008500d80029ad2100e9c07800c908dd000b
:10369c0088ab40008a0f530005003e001100090062
:1036ac000502d800c981200082f47800040037009c
:1036bc00110009000502d800c981200083f47800ac
:1036cc000603e8000402e800850f5300eaff35000a
:1036dc0001d680000040eb0010080700e4d4800005
:1036ec000402e800f4bf9f00220020008f80e90054
:1036fc0030c0b3007406070009d580001800200004
:10370c000940dd000000e900cf80de0022d58000fa
:10371c0033d5800083f3070044d5800055d5800055
:10372c000005420081854a008904e900030033004a
:10373c008b05d1000a85d300fbff3700cfd5de0007
:10374c000a01be0000202e00410020008bf3070070
:10375c00c0dc880062f60700340020009441880029
:10376c0040d5800051d580000a0050008b80580055
:10377c0092d48000a3d4800070f30700b5d68000eb
:10378c008502e80014da80000482420000a2b9002d
:10379c00040242004083200000024200a461880021
:1037ac00e4d480008402420005d888004222dd0067
:1037bc0000004200b06188003068ef0004d5800042
:1037cc000444dd000844e9000840780031e8b70003
:1037dc00c422a800cc02a8000002eb00057d20004a
:1037ec00000000000402e800850f5200fcff3a00c4
:1037fc00c402a800cc62a800f5f30700cc62a900b3
:10380c000480230044128800041020004412880015
:10381c0040a2ab00feff3a004412800040a2ab0075
:10382c00feff3a0044128000cc62a80000000000a9
:10383c00000000000000000000000000cc62a900a5
:10384c000400230044128800043020004412880035
:10385c0040a2ab00feff3a0044128000041280002c
:10386c000402b200fdff3a0045128000cc62a800b1
:10387c008540a9009540a80024d8880024d5800054
:10388c004222dd00a440880045d58000c22add001c
:10389c00b540880005d02700850f520003003e007c
:1038ac0005e82300850f520002003600240020009a
:1038bc00010037001400200024dc880024dc800088
:1038cc004b22dd0034dc8800e03aef00ea3aef00ee
:1038dc00ec3aef0096d48000a7d4800004192000a5
:1038ec00840f5300e08f5b0002003e0014002000a8
:1038fc00010037002400200034d7880024d7800032
:10390c0035d78000850f52000200340005005200ac
:10391c00020037006320b9000500500040d7880032
:10392c003e3bef006082200070418800fe3aef00c1
:10393c001039ef001239ef004238dd00ce30de00d6
:10394c00810070004230dd000481420046d78000c7
:10395c0006014100cf91de00f8f207000002e900f9
:10396c0074d7880083e0a800723bef001900370081
:10397c00e00f520017003a008500ab000100320046
:10398c008500a9008500ab00feff320071c7a900bd
:10399c00ee1af8001a01f9001fe1a8008405800056
:1039ac0004c0a10004d0a00004e0a000840588009d
:1039bc008760a9009760a9000021ef00b540800046
:1039cc008502e900150888008460a9001400200015
:1039dc00c4db8800b4db8000e00f520034003200fe
:1039ec000402e900b4db880031003a0041e2a9008e
:1039fc0061e2a900c8e2a800743a88007667a900c1
:103a0c00cd62a900cd82a900c482a900341088001f
:103a1c009540a9009820a9009460a90094e0a90001
:103a2c009780a9009620a9009680a90097a0a900cc
:103a3c00d6d78000e7d78000e00f5300e08f5b0003
:103a4c001900320040a7a8001400fc00a6092000b1
:103a5c008507200037742000854b7800864b780052
:103a6c00844b7800750520001600200064042000ab
:103a7c0027742000844b7800854b7800864b7800a7
:103a8c004207ab00feff3a00d4d78000e5d7800098
:103a9c000040fe0061025200e0825a00fcff3a0036
:103aac000000fe00faff37000040fe00feff37006a
:103abc00c4db8000e00f520007003a0004d4800001
:103acc00e00f5200040032000402e90004d4880024
:103adc0001003a0099f5070014d48000e00f520061
:103aec00040032000402e90014d4880001003a00fa
:103afc0092f5070030d48000e00f50000f00320028
:103b0c000000e90030d488000c003a007667a90068
:103b1c0004102800743a8800f4ff2000f4bf9f00c2
:103b2c00230020000f81e90031c0b300c20507005b
:103b3c0084dabf00a1fc0700fdff37000080fa000b
:103b4c004f05be004f04be004f03be004f02be0027
:103b5c004f01be004f00be003600f90000400600c9
:103b6c0004802000b604800086026200e08f5200c0
:103b7c00fcff3a0040e2ab00feff32009540a9008a
:103b8c00068d21000480210007a02100cc62a90031
:103b9c00441288004822ef0040a2ab00feff3a001e
:103bac0045128000051280000502b200fdff3a00ac
:103bbc0040128000cc62a800052b780000000000a9
:103bcc0000000000000000000410b000870f52003d
:103bdc00eeff3a00000006000200fa00889fbe00cb
:103bec008a9fbe00c4b3210014427800f5a72100bf
:103bfc001542420005c8b300054242000040420095
:103c0c00c8fbb700048320001442780004407800fd
:103c1c00c9fbb7000442e8000440780030e8b70064
:103c2c00e4d480000482e800b4bf9f0000cdb30050
:103c3c001706070000ceb3001506070000e82100a8
:103c4c008c05070051c3b300b0c0b300d504070006
:103c5c0080bc2100680507003fba97000484e90086
:103c6c00b8bf9f00e4032000840f5400010034000f
:103c7c000404780088007800c06180002f050700dc
:103c8c00bfba970088825200b5bf9f000b4020003e
:103c9c000a0c20000f0037005716800007826500c1
:103cac00e00f5200fcff32008a8f540001003400f8
:103cbc00090c200008007800380cb400890078004a
:103ccc001e0507003fba970009025200b4bf9f00bf
:103cdc0009044400bfbc9700e08f5400eeff3a008b
:103cec0011c0b300b0c0b300ae0407000440200004
:103cfc005516800005046200e00f5400fcff3a00ea
:103d0c0014832000144278000783200017426200bd
:103d1c00bf003a0000ccb300dd05070000cfb300b4
:103d2c00db05070080e821005205070051c0b300f5
:103d3c00b0c0b3009b0407000ea1ef005808880028
:103d4c00f5182000044020000400370050168000b5
:103d5c0000036200e00f530005003a005608800093
:103d6c00850f5300f9ff36000004eb0034003700d8
:103d7c0022002000ea80570030c0b30096040700f0
:103d8c000004eb003fba9700e70f52002c003c00f8
:103d9c00ea032000094020001100370051c3b30092
:103dac00b0c0b3007f040700551680000582640084
:103dbc00e00f5200fcff320008007800021bb40038
:103dcc00800078000203200050c0b300820407007a
:103ddc003fba97000403b100b4bf9f000803b000c2
:103dec00bfbb97008a8f5300ecff3c0011c0b3009f
:103dfc00b0c0b3006b0407000440200050168000d4
:103e0c0080046200e08f5400fcff3a003fba970038
:103e1c000401e80008007800021bb4008000780060
:103e2c0050c0b3006c040700094078005004070030
:103e3c000002b200180020000100320009047800d2
:103e4c0000c8b30092050700e00f5400490032008f
:103e5c00043bef00e401200004d4880014d8800057
:103e6c0094429000f2cf52000b003a00441f200005
:103e7c00e4d28800be1af8000201f9000021ef001c
:103e8c008460a8009460a8001400200094db8800d3
:103e9c00783bef00470037001402fb0025dc800064
:103eac0005a3b90006007800821bb400000378005b
:103ebc0016dc880037dc8000870f530003003c00c1
:103ecc008703ea00870f530001003d0017dc8800d0
:103edc00c32add0004aab90004dc880014d88000d1
:103eec009442900024b2210094c262000582fb002f
:103efc00d6b321001643780006036a006103630001
:103f0c0006003200e10362001600200002003200bd
:103f1c0026d988000100370066d98800d6b3210065
:103f2c001643780006036a00620363000600320041
:103f3c00e2036200160020000200320036d988002d
:103f4c000100370076d988006103620002003a0054
:103f5c000a00fc003c3ba9006202620002003a002d
:103f6c000a00fc003c5ba900054078003dfbb70053
:103f7c002900370024d880000402e80024d88800e7
:103f8c00e5d58000850f520023003a00441f200025
:103f9c00e4d28800be1af8000201f9000808880073
:103fac008460a8009460a8001400200094db8800b2
:103fbc00c8db880044d380004822de006f02620018
:103fcc00e50f520001003a00e5fe07007067a800fb
:103fdc0004712200d4d58800cc02a900343bef0038
:103fec00363bef00463bef00483bef00c402a90014
:103ffc00cc62a9008000eb000040eb00c705070075
:10400c0023f407004e27ef007667a9000200370063
:10401c0000c8b3001e0507004f05be004f04be00cc
:10402c000080fa00000006003600f800809fbe00f9
:10403c00829fbe00849fbe00869fbe00889fbe00ec
:10404c008a1f78008460a900c5db800017dc800023
:10405c00f6db800004dc8000e08f52009f00320011
:10406c000683430004024300c9a2de00f41fb20021
:10407c00f4db8800148320001442780000832000b5
:10408c0010446200844f540003003a00b440800096
:10409c000402e90002003700a44080000402e90099
:1040ac008502520015088800994180006148b900ca
:1040bc00e2d48000f3d480001af107008102d10011
:1040cc000082d30004024200458320000502420016
:1040dc00c46188008904e80099418800e48f540089
:1040ec0001003a003228ef00e04f540044003a003f
:1040fc009760a9000000000000000000c402ab00a3
:10410c00feff3200f7d7800026d7800084c88000dd
:10411c0095c8800005003700e00f520001003a00fe
:10412c00060278000402e9008502e800870f5200bd
:10413c00f9ff3a0084c8880095c8880024d780000d
:10414c00848f52001d0035008482520095c888006f
:10415c00a5618000b4d680000482ea00040242000b
:10416c000482420046832000860f52000300310077
:10417c0006d880000603430006024200b7618000a7
:10418c000003eb0009003700941a7800878f520067
:10419c0001003a00458320000482e800870f52009a
:1041ac0001003a00448320000603e800d61aec0014
:1041bc00800f5300f4ff3900a5618800e4d680001d
:1041cc000402e8000402420080d5800091d58000f2
:1041dc0061034000e083480006a3b90004d58000c9
:1041ec0015002000842add0005b2b90024418800a6
:1041fc00a4002000a40888008760a8009760a8008d
:10420c00b4dc80000402e800b4dc8800c5dc80006b
:10421c00850f52000d003900963bef0084d68000cc
:10422c00c522de00e3826200e18f520001003a00f9
:10423c00cd82a8004722de0063026200e10f52002b
:10424c000f003a00c482a8000d003700ea0f52009c
:10425c000b003a0084d68000c522de00e3826200a7
:10426c00e18f520001003a00cd82a9004722de0006
:10427c0063026200e10f520001003a00c482a900ff
:10428c000483200014427800e04f520009003a00e9
:10429c008c1bf8009a1bf900901bf8009c1bf90072
:1042ac00801bf800aa1bf90015dc8000c4aade00f4
:1042bc0065dd88000482fb00c422de00858242009a
:1042cc006f026200a6b9210066807a000400de004d
:1042dc006140600040fe0700d800370006834300b1
:1042ec0004034300cab3de00f63fb200f6db8800dd
:1042fc000608800074382100840f53000c003e0027
:10430c0056dc8000f4d58000e00f5300050032002d
:10431c000402e900060352001608880055dc8800e8
:10432c00030037000402e900070252001408880059
:10433c00e4d280000402e800e4d28800e20f5200cc
:10434c0004003a00cd62a800c8e2a900623aef006e
:10435c00b1003700ea0f52000e003a007667a90050
:10436c0004102800743a88000040eb00e1040700b8
:10437c0042af210012417800e1c0b3000040eb00d5
:10438c00450307004e27ef007667a90068f3070086
:10439c00a1003700eb0f520030003a00d4d380005c
:1043ac00e00f52001a0032001f0037007667a90098
:1043bc007a3a880008407800f5fa0700783a8800c5
:1043cc007667a9007ef00700630060000080e800bb
:1043dc00a8f20700000000000804e800f40f5400e5
:1043ec00fcff3a0014d380000402e80014d38800c8
:1043fc00e70f520003003a00e4db8000e00f5200ac
:10440c00140032008460a800e9d288000200370052
:10441c000a102800a9002000d8d38000e00f540017
:10442c00e2ff32007c0037001400200044dc8800de
:10443c0087a0a80014d380000402e80014d38800dd
:10444c00e70f520074003a00e4db8000e00f5200ea
:10445c0071003a00a40520006e003700a5d580003d
:10446c006a834200860f520002003a00a40020002a
:10447c0068003700f6052000860f520066003200f7
:10448c00461f2000860f5200630032000603e8002e
:10449c00860f520036003a00d4d38000e00f520051
:1044ac002a0032002f003700a0dc8000e00f500003
:1044bc0057003a007667a900793a8800b4fa0700e9
:1044cc003ff0070063006000b4d58000040040009a
:1044dc00d5d58000e08f52000900340006ff2f0074
:1044ec000683b90006824200d4d588004240a90058
:1044fc0003003c00c422a900c402a900cc62a9009c
:10450c004e27ef007667a9005af20700c4d5800049
:10451c00880f520007003c000402e800c4d5880054
:10452c00450b2000850f520002003a00c403200006
:10453c00b4d588000002eb00000000000402e80083
:10454c00f40f5200fcff3a0002003700091028005b
:10455c00380b2000d4d38000e00f5200d2ff320081
:10456c002b0037001400200044dc880023003700a7
:10457c00d7db8000e08f530022003200860f520000
:10458c0020003400361f200005034300840f530025
:10459c001c00350045d48000e08f5200170032001b
:1045ac00b5d4800006fa2000868f520003003a0032
:1045bc00610262001800320010003700067d2000f6
:1045cc00868f52000300320006322000868f520084
:1045dc0004003a0063026200e10f52000e003a0040
:1045ec000600370006192000868f520003003a009f
:1045fc0055202000850f520007003a0087a0a80024
:10460c0005003700451fb000850f520002003a002c
:10461c00441f2000e4d28800d4d58000e00f520063
:10462c00060034000402e900d4d5880003003a00e7
:10463c00c422a900c402a900cc62a9004f057800cd
:10464c004f04be004f03be004f02be004f01be0020
:10465c004f00be003600f900004006000203400087
:10466c00e08348000c003700910188009002ba00ea
:10467c001082ba0085497800c82ade00954198005e
:10468c00a44198004822de00b4419800e481410026
:10469c0062004000e0804800860f5000878f580071
:1046ac00f1ff390000000600889fbe008a9fbe0003
:1046bc008c1f78000002be004008de00000378006a
:1046cc00900188000000eb00800078000404780062
:1046dc00fb0f20000a40200088037800880440006b
:1046ec001906ba009984ba00e10f460003003a009b
:1046fc00f90fb2008b8f5400010032001100200022
:10470c000080e8008a0f5000f3ff3a00e08f500061
:10471c000c00320020042400003b88009601880025
:10472c00040abb000700fc0050052000303b880049
:10473c00a00a2000303b880061e7a80000000000c0
:10474c00000000000282e900e13f2000828040006e
:10475c0002815100150024009601880004044100d8
:10476c008401780000042000d304780058057800f8
:10477c00890bbb008a9bbb000000e900faff3a00e2
:10478c00053b88000700fc0050052000303b8800ea
:10479c00a00a2000303b880061e7a8000000000060
:1047ac00000000000408b000810f5200eaff3a003c
:1047bc004f0678004f05be004f04be0000000600f7
:1047cc00889fbe008a9fbe008c9fbe008e1f780003
:1047dc000005be00820678000306780006c02f0094
:1047ec00000363008b027800060278000404be000c
:1047fc00b0f38000c1f38000880f5000898f5800ff
:10480c001d003200e00f5000e08f5800040035000e
:10481c007c3eec00c3e82100c2282200a2ff070066
:10482c00e00f5400e08f5c00110035007a3eec0084
:10483c00990188000803be000002eb00c228220088
:10484c00c1e82100002020001607ba009681ba00aa
:10485c00840242000eb17a0083b07a000402e800b0
:10486c0062034300e0834b00800f5200f6ff3a00d6
:10487c00b8f38800c9f38800fa3fb2000a05d100ea
:10488c000002eb00c7282200c6e821001100370007
:10489c00fa1fb2008a024500058043001c419000bb
:1048ac004811dd009c4178008380fb000108410029
:1048bc0085024300bc409000c808dd002c409000ed
:1048cc000080fb00808a4000640242000a05e80078
:1048dc00640646008d0f5200edff39004f0778003b
:1048ec004f06be004f05be004f04be000000060080
:1048fc00889fbe008a9fbe008c9fbe008e1f7800d2
:10490c000005be0002067800030778000004eb00e7
:10491c000d402000100037008a047800f93fb200e7
:10492c00898456000802560089844400848f540000
:10493c0001003600840478008801470009017800e2
:10494c000a00be009eff07000902d10004054500c5
:10495c00e0854d00090444008c0f5400eeff390033
:10496c004f0778004f06be004f05be004f04be0037
:10497c0000000600040020000482fb00050020005b
:10498c00c022dd00040020000600250006024200c3
:10499c00e0824a00840f5000858f580002003100dd
:1049ac000000420081804a00e6bf2a000700200078
:1049bc0062034300e0834b00040020000482fb00f0
:1049cc0005002000c022dd00040020000602420089
:1049dc0087824a00840f5000858f580001003100f7
:1049ec00c3ff070000000600f40f200006002000a3
:1049fc000403630007002000c033dd000600200024
:104a0c000500250005034300e0834b00060343002b
:104a1c0087834b0062035300e0835b00970188009f
:104a2c009602ba001683ba0007002000c033dd00de
:104a3c000600200005034300e0834b0007026200e0
:104a4c0084027800060278000400be000000060014
:104a5c00889fbe008a9fbe00f00f2000010020003e
:104a6c00040020000002620005002000c022dd00ce
:104a7c00040020000600250006024200e0824a00e5
:104a8c000401420085814a0062015100e081590015
:104a9c006033b8000f003700950188009400ba000d
:104aac001484ba0080846000c808de00610db80070
:104abc0009054500e0854d000a0343008b834b003c
:104acc008000640001034300e0834b00620242005b
:104adc00e0824a00820f5200838f5a00eeff3900a9
:104aec000782fb0084027800060278000400be00f6
:104afc004f05be004f04be0000000600ea874700c9
:104b0c00889fbe008a9fbe008c9fbe008e1f7800bf
:104b1c00060020000683fb0007002000c033dd00e8
:104b2c0006002000020025000300200006044100be
:104b3c00878449006022b800370037000200420029
:104b4c0083804a000000430081804b009101880063
:104b5c000c4020000d0020000006460081864e000f
:104b6c00dcb79f00edb79f00fe0f2000f0b79f0051
:104b7c0081bf9f005fb69700efb69700d6b79f0036
:104b8c00e7b79f000403be001002ba009082ba007f
:104b9c00e10f42000c003a00f50fb2008e8f52006c
:104bac0009003a0062004000e08048008c0f500081
:104bbc008d8f5800f4ff3a000602be005fb39700d9
:104bcc00efb39700100037000602be007fb59700c8
:104bdc008fbd97005fb39700efb3970020042400bc
:104bec00003b88000a0dbb000700fc0050052000ac
:104bfc00303b8800a00a2000303b880061e7a80009
:104c0c000000000000000000004020000100200017
:104c1c000402400085824800880f5200898f5a0098
:104c2c00c6ff39004f0778004f06be004f05be0087
:104c3c004f04be00af00b10000000600889fbe000c
:104c4c00f70f20000400200007026200050020007e
:104c5c00c022dd00040020000600250006024200f0
:104c6c00e0824a00950188001403ba001482ba004d
:104c7c00e10f430004003a00f40fb200870f52001a
:104c8c000e003a000e00370005202000850f53005f
:104c9c000a003a00e44f520008003a006cff07008b
:104cac000004be0050ff0700140020000500200087
:104cbc00800f5400818f5c00020032008fff0700d0
:104ccc006022b8000400be004f04be0000000600c5
:104cdc00f2874700889fbe008a9fbe008c9fbe0053
:104cec008e1f78005aff07000004be003eff07002d
:104cfc00800f5400818f5c00020032007fff0700a0
:104d0c0095003700080025000900200004c024008d
:104d1c0004045400e0845c0006002000070020001e
:104d2c00f20f2000030020000600610001002000ab
:104d3c00c000dd0000002000080440008984480009
:104d4c00000020000200600001002000c000dd0017
:104d5c00000020000002540081825c00b4b79f0068
:104d6c00c5b79f006022b80002077800d0b79f003b
:104d7c00e1b79f0096b79f00a7b79f00710037005f
:104d8c0002c02400030020000000250000004100a8
:104d9c00e08049000000420081804a005fb3970028
:104dac00efb397000000430081804b009fb3970046
:104dbc000703670007002000c033dd000600200059
:104dcc000003430081834b000201420083814a00af
:104ddc005fb69700efb697000201460083814e0044
:104dec00830078000000eb0009402000f4b79f001e
:104dfc0085bf9f000606be00070378000205be00b3
:104e0c00960188008c0340001704ba009783ba00ff
:104e1c00910188008a0240009501ba009582ba007f
:104e2c00830f540008003a00858f530006003a00a7
:104e3c000080e800890f5000f1ff3a007fb2970024
:104e4c008fba97003b0037007fb297008fba97005c
:104e5c000c03be0020042400003b88009101880054
:104e6c000a0dbb000700fc0050052000303b8800f9
:104e7c00a00a2000303b880061e7a8000000000079
:104e8c000000000008402000090020000c04440031
:104e9c008d844c000c0155008d815d001b0024009d
:104eac001e003700910188001002ba009082ba00ef
:104ebc0002064000838648009d018800040ebb005a
:104ecc00058ebb000a05e90062004000e080480046
:104edc00e00f5500f3ff3a000602be007fb39700c7
:104eec008fbb97000b3b88000700fc00500520008f
:104efc00303b8800a00a2000303b880061e7a80006
:104f0c0000000000000000000608b0000780b000a0
:104f1c00880f5300898f5b00060032000600be002c
:104f2c000a042000f6b79f0087bf9f000403be0051
:104f3c00dcff37000640200007002000040243007d
:104f4c0085824b003fb09700cfb09700800f520086
:104f5c00818f5a008aff35004f0778004f06be003c
:104f6c004f05be004f04be002f01b100000006002b
:104f7c00cce2a9000064a0000080fb004013880074
:104f8c006822ef0060a2ab00feff3a0044138000e1
:104f9c0060a2ab00feff3a0040138000cce2a800f8
:104fac0000000600cce2a9000080fb004013880042
:104fbc008180fb004113880060a2ab00feff3a0029
:104fcc004413800060a2ab00feff3a004413800043
:104fdc00cce2a80000000600889fbe008a1f780063
:104fec0080447800010478000205780091c1b30078
:104ffc00b0c0b300ebff0700cce2a9000964a0002d
:10500c008984fb0049138800051380000502b20057
:10501c00fdff3a00441380000a027800e00f5500af
:10502c000c0032000613800062036300fdff3a009f
:10503c00461388000a05e90060a2ab00f7ff3a00ae
:10504c004613800006f47a000402e9008502e800a9
:10505c00f2ff370005044400e00f52000600320056
:10506c0060a2ab00feff3a0045138000055c78009f
:10507c000402e900f8ff3700cce2a8004f057800e5
:10508c004f04be000000060001407800820078004a
:10509c0003017800d0ff370001407800824078008f
:1050ac00c0ff3700881f78000144780092c1b3001c
:1050bc00b1c0b300f8ff070008407800acff070050
:1050cc004f04780000000600cce2a9000080fb0031
:1050dc004013880060a2ab00feff3a00441380002e
:1050ec0002027800e00f51000b0032006022ab008e
:1050fc00feff3a00314378008682fb00451388009e
:10510c000201e90060a2ab00f6ff3a0045138000f3
:10511c000402e900f3ff3700e00f520005003200f3
:10512c0060a2ab00feff3a00451380000402e900c8
:10513c00f9ff3700cce2a80000000600cce2a90081
:10514c0054002000441388000102e8008002eb00a8
:10515c00e88f50001200340090427800451388000c
:10516c009042900045138800a0429000451388009f
:10517c00b042900045138800c0429000451388004f
:10518c00d042900045138800e042900045138800ff
:10519c00f042900045138800e88050008500200004
:1051ac0005004000e08f50000a0032006022ab0086
:1051bc00feff3a00b0427800451388008100e900f8
:1051cc0060a2ab00f7ff3a00451380000402e9002f
:1051dc00f4ff3700e00f52000500320060a2ab0074
:1051ec00feff3a00451380000402e900f9ff370086
:1051fc00cce2a80000000600cce2a900540020007c
:10520c004413880010427800441388001042900028
:10521c0044138800440020000402e900040032001a
:10522c0060a2ab00feff3a0045138000faff370086
:10523c00cce2a80000000600014078008200780053
:10524c0003017800a0ff37000041eb00824078009a
:10525c0091ff370043002000e2e5210061c0b3005c
:10526c0089ff3700420020008000780060c0b30046
:10527c0095ff3700cce2a90064002000441388009d
:10528c0010427800441388001042900044138800a8
:10529c002042900044138800304290004413880050
:1052ac00640020000402e9000400320060a2ab009c
:1052bc00feff3a0045138000faff3700cce2a8004d
:1052cc0000000600430020000101780061c0b3001b
:1052dc00d9ff3700889fbe000044780081447800d5
:1052ec000281fb00d4e421006441790054e32100e5
:1052fc001441710051c3b3000840780066ff0700e9
:10530c00894078000840780066ff07004f04be0013
:10531c0000000600889fbe008a1f780000447800b9
:10532c0081447800024578008381fb00d4e421009d
:10533c0064c1790054e321001441710051c3b300de
:10534c000840780054ff07000a4178008940780033
:10535c000840780050ff07004f0578004f04be004e
:10536c0000000600889fbe008a9fbe0000447800a3
:10537c000ae0210019c0b3005a4178008940780036
:10538c000840780044ff07008944e800e5cf54004a
:10539c00f9ff3a006ae0210079c0b300abc2b30058
:1053ac005a41780089407800084078003aff07009d
:1053bc008944e8008bcf5400f9ff3a00fae321004e
:1053cc008044eb00894178005a417800a1c2b300b7
:1053dc0008407800cfff07008944e800e8cf54006c
:1053ec00f8ff3a00aae22100b9c2b3006bc3b300c4
:1053fc005a417800894078000840780026ff070061
:10540c008944e8008bcf5400f9ff3a0072e3210085
:10541c001241780071c3b300084078001eff0700ea
:10542c007ae421008044eb00894178005a417800ed
:10543c0081c3b30008407800b6ff07008944e80038
:10544c00e5cf5400f8ff3a008ae3210099c3b3007a
:10545c00dbc3b3005a4178008940780008407800db
:10546c000dff07008944e8008bcf5400f9ff3a0088
:10547c00e2e3210012417800e1c3b3000840780058
:10548c0005ff07004f05be004f04be0000000600dc
:10549c00cce2a9000080fb004013880060a2ab00a6
:1054ac00feff3a0044138000cce2a8000000060086
:1054bc0001407800f6ff3700881f78000044780020
:1054cc0001417800e1c0b30008407800f2fe07000b
:1054dc00c2c0b30021c0b30008407800eefe070044
:1054ec0021c0b30008407800eefe07006c4060005d
:1054fc00fbff3a0061c2b30008407800e9fe0700e8
:10550c008042780067c262000440780062feb700f7
:10551c004328de006100600063feb70081c2b30067
:10552c0008407800dffe070064feb70091c2b300ac
:10553c0008407800dbfe070065feb70063debf00a5
:10554c000100320030c0b3004f04780000000600a8
:10555c00889fbe000044780001cbb300084078005f
:10556c00d3ff0700d2c1b300c1c1b300084078001b
:10557c00c9fe07008044eb0022c0b30082407800d3
:10558c0008407800c4fe070021c0b3000840780032
:10559c00c4fe070062406000fbff3a0031c2b3005a
:1055ac0008407800bffe07006f40600066feb70041
:1055bc0064405000e44f5000030036008944e8007a
:1055cc00eacf5400ecff3a00d2c3b300c1c1b30020
:1055dc0008407800b0fe070012c1b30021c0b30030
:1055ec0008407800acfe070021c0b30008407800ea
:1055fc00acfe070071406000fbff3a00e1c1b30054
:10560c0008407800acff070080447800a1c5b300c7
:10561c0008407800a8ff07008944700061c9b300f6
:10562c0008407800a4ff070080c4740001c8b300d0
:10563c00084078009eff0700e0cf54002a003a0093
:10564c0031c2b3000840780096fe07008042780013
:10565c006fc262000440780066feb7004428de008a
:10566c006100600067feb70041c2b30008407800db
:10567c008cfe07007f40600068feb70051c2b3008b
:10568c000840780087fe0700804278006fc26200f5
:10569c000440780069feb7007f8062004400de00a1
:1056ac006afeb700b1c1b300084078007dfe070068
:1056bc006bfeb700c1c1b3000840780079fe07004b
:1056cc006cfeb70074e6210014427800e04f5200e3
:1056dc0004003a00a4e6210014427800e04f520086
:1056ec000100320029c0b300094078004f04be000d
:1056fc0000000600881f78000044780008407800fd
:10570c00d1fe07000840780016ff0700084078001b
:10571c008fff07004f04780000000600889fbe0032
:10572c0000447800e384600054e5210064c17c00ef
:10573c0041c2b3000840780057fe070094e52100f1
:10574c0064c17c00d1c2b3000840780052fe07004f
:10575c004f04be0000000600000005000002eb0034
:10576c00c5cc21004223dd0006834200000beb0078
:10577c0036137800740342004233dd000683420086
:10578c00000beb00361378000402e800f40f520013
:10579c00f4ff3a00000006003600f800809fbe00bf
:1057ac00829fbe00849fbe00869fbe003400f8001e
:1057bc0000002000a0018800d4eb8000e00f520014
:1057cc0003003a0014002000d4eb8800e3ff07002c
:1057dc00e4e6210014427800e14f52000b003a003d
:1057ec000862ab0007003a00783ded00c4eb800086
:1057fc00e00f520005003a00044078006efeb7003e
:10580c0002003700a4002000c4eb8800e4e621006d
:10581c0014427800e34f520004003200e4e6210009
:10582c0014427800e74f520023003a00703eec001f
:10583c0085f3800044062000848f52000800340059
:10584c00703eef00c4e88000d5e8800061024200a1
:10585c00e0824a00c4e88800d5e888000642a80027
:10586c000862ab0003003200a4f38000e00f52008a
:10587c0011003200703eef00e4e621001442780083
:10588c00e34f520002003a0044c0b300010037005d
:10589c0084c0b300044078006efeb700a4f380000f
:1058ac00e00f520003003200743eef000622a80005
:1058bc00010037000602a8008780a9003400f90017
:1058cc004f03be004f02be004f01be004f00be0092
:1058dc003600f90000400600801f7800849fbe004f
:1058ec00869fbe003400f80000002000a001880054
:1058fc000200fa008620a90004402000401080001d
:10590c0000026200e00f5200270032000942a90099
:10591c00e4e62100144278000482fb004222dd0000
:10592c00c5cc210004824200160020000700200094
:10593c00140a430054924b00761df800701df900b8
:10594c00741df8006e1df900e4e621001442780085
:10595c000482fb000500200064025200e0825a0021
:10596c00e80f5200e08f5a000f003e000460010067
:10597c000800370007003700060037000a00370020
:10598c00060037000500370004003700030037001d
:10599c000200370034c0b3000100370074c0b300fc
:1059ac00044078006efeb700e4e621001442780053
:1059bc000482fb000500200062025200e0825a00c3
:1059cc00ea0f5200e08f5a0061003e0004600100b3
:1059dc005d0037005e00370008003700110037000b
:1059ec00480037005a0037001e00370025003700ea
:1059fc002e0037003000370048003700c4d6210095
:105a0c00144278000482fb00040242001410880047
:105a1c0074eb8000e00f52001000320054c0b30051
:105a2c004300370004002800451080000502620086
:105a3c00e00f520018003a0084eb800034437800e9
:105a4c008682fb001510880084eb88006e3ded000b
:105a5c0074eb8000e00f52003d003a0064c0b300cc
:105a6c0033003700c4d62100144278000482fb00b6
:105a7c00040242000400a0001410880094c0b3007b
:105a8c002b0037000400280045108000050262003e
:105a9c00e00f5200030032000642a80072bdef0076
:105aac002200370004108000f4bf9f000662a8009b
