:020000040000fa
:080000000002040000000000f2
:020000040000fa
:100400000fc021000e7f22000e01880000000000b6
:100410000c000700a0862100010020001100070049
:10042000000020000000e000020032000000020096
:1004300000000000a4020200000000000040da00fa
:100440000000fe004440a900400120000000e00040
:100450000300320000002000a00188004440a800f2
:100460000000060091018800800078000000eb0089
:1004700015003700e280400032a0b4009101ba00bc
:10048000e280400032a0b4009102ba00e280400055
:1004900032a0b4000002eb00472bde00f507b200eb
:1004a000602ce10004003a000059eb008301e900f0
:1004b000fdff3e00040037006128e100010032002a
:1004c0000082eb00040007001101ba000200e00006
:1004d000e8ff3a00000006003159ba008301e90044
:1004e0000c0032002159ba008301e90008003200f3
:1004f0000400e00003003a00e280400032a0b400b3
:10050000f5ff370011d9ba008301e900faff3a007c
:100510008100e800e180400032a0b4000000060045
:020000040000fa
:0497fc000000fe006b
:020000040000fa
:10980000f8874700889fbe008a9fbe008c9fbe00dd
:109810008e1f7800020020000281fb000300200060
:10982000c011dd0002002000000025000000410002
:10983000e0804900910188009001ba001081ba00cf
:1098400000202000808f510002003a00e44f5100b8
:10985000010032000000fe00f30f20000000200095
:109860000300600001002000c000dd0000002000b7
:109870000200250002024000e082480000002000b3
:109880000300600001002000c000dd000000200097
:1098900002c0240002004000e0804800800f520017
:1098a000818f5a000300310084b79f0095b79f0055
:1098b0000200370080b79f0091b79f006044b80056
:1098c00000002000f0b79f000100250081bf9f002d
:1098d0006101b800b2b79f00c3b79f008280fb0050
:1098e000000020000fb9970002004000e08048000f
:1098f000d0b79f00e1b79f004d0037005fb09700e1
:10990000efb0970008054000898548008a0178007b
:10991000080178004fb79700405ede000d00200080
:10992000404bde0007002000a6b79f009c01880086
:109930009300ba009382ba00960188001200ba0020
:109940001282ba00808f500009003a00848f5200c2
:1099500007003a000e87e8008381e8000281e800f2
:1099600000402000800f57002d003200efff37002d
:1099700020042400003b8800afb0970091018800cc
:10998000080cbb000700fc0050052000303b88009d
:10999000a00a2000303b880061e7a800000000001a
:1099a000000000000006eb001e0024000d40200017
:1099b0000c037800070420006132b9000a0042005d
:1099c0008b804a00910188009001ba001081ba0092
:1099d0000802420089824a0095018800030abb0000
:1099e000028abb000683e8008703e900f2ff3a0021
:1099f0000e3b88000700fc0050052000303b88002b
:109a0000a00a2000303b880061e7a80000000000a9
:109a1000000000000c08b0008d0f5600e4ff3a0073
:109a20000040200001002000080440008984480014
:109a30000fb197009fb19700820f5400838f5c0095
:109a4000aeff3900efe997000380fb000100200022
:109a5000c000dd00000020000fb9970002004000a8
:109a6000e0804800e0af9f00f1af9f006033b80096
:109a7000000020006105b8008a80fb000000200083
:109a80000200250002064000e08648002e04240063
:109a9000200037000602460087824e0095018800ac
:109aa0000401be000b047800094020001200ba0037
:109ab0009280ba00e10f400008003a00e18f4000b8
:109ac00006003a000884e80062014100e081490094
:109ad000890f54000b003200f4ff37000e3b880062
:109ae000040abb000700fc0050052000303b880042
:109af000a00a2000303b880061e7a80000000000b9
:109b0000000000000040200001002000060340008b
:109b1000878348006fa99700ffa99700820f530021
:109b2000838f5b00dbff39000000fe004f077800e9
:109b30004f06be004f05be004f04be008f01b100ae
:049b4000000006001b
:020000040000fa
:020000040040ba
:080000000100000007000000f0
:020000040000fa
:020000040001f9
:0457f0003fff000077
:020000040000fa
:020000040001f9
:0457f400c07400007d
:020000040000fa
:020000040001f9
:0457f8007e7a0000b5
:020000040000fa
:020000040001f9
:0457fc00763f0000f4
:020000040000fa
:100008002a0300002a0300002a0300002a03000034
:100018002a0300002a0300002a0300002a03000024
:100028002a0300002a0300002a03000068030000d6
:100038002a0300002a0300002a0300002e03000000
:100048000a0500002a030000bc0300002a03000080
:100058002a0300002a0300002a0300002a030000e4
:100068002a0300002a0300002a0300002a030000d4
:100078007c0b00002a0300002a0300002a0300006a
:100088002a0300002a0300002a030000d206000009
:100098002a030000fc0b00002a0300002a030000ca
:1000a8002a0300002a0300002a0300002a03000094
:1000b8002a0300002a0300002a0300002a03000084
:1000c8002a0300002a0300002a0300002a03000074
:1000d8002a0300002a0300002a0300002a03000064
:1000e8002a0300002a0300002a0300002a03000054
:1000f8002a0300002a0300002a0300002a03000044
:100108002a0300002a0300002a0300002a03000033
:100118002a0300002a0300002a0300002a03000023
:100128002a0300002a0300002a0300002a03000013
:100138002a0300002a0300002a0300002a03000003
:100148002a0300002a0300002a0300002a030000f3
:100158002a0300002a0300002a0300002a030000e3
:100168002a0300002a0300002a0300002a030000d3
:100178002a0300002a0300002a0300002a030000c3
:100188002a0300002a0300002a0300002a030000b3
:100198002a0300002a0300002a0300002a030000a3
:1001a8002a0300002a0300002a0300002a03000093
:1001b8002a0300002a0300002a0300002a03000083
:1001c8002a0300002a0300002a0300002a03000073
:1001d8002a0300002a0300002a0300002a03000063
:1001e8002a0300002a0300002a0300002a03000053
:0801f8002a0300002a030000a5
:020000040000fa
:100208002a0300002a0300002a0300002a03000032
:100218002a0300002a0300002a0300002a03000022
:100228002a0300002a0300002a03000068030000d4
:100238002a0300002a0300002a0300002e030000fe
:100248000a0500002a030000bc0300002a0300007e
:100258002a0300002a0300002a0300002a030000e2
:100268002a0300002a0300002a0300002a030000d2
:100278007c0b00002a0300002a0300002a03000068
:100288002a0300002a0300002a030000d206000007
:100298002a030000fc0b00002a0300002a030000c8
:1002a8002a0300002a0300002a0300002a03000092
:1002b8002a0300002a0300002a0300002a03000082
:1002c8002a0300002a0300002a0300002a03000072
:1002d8002a0300002a0300002a0300002a03000062
:1002e8002a0300002a0300002a0300002a03000052
:1002f8002a0300002a0300002a0300002a03000042
:100308002a0300002a0300002a0300002a03000031
:100318002a0300002a0300002a0300002a03000021
:100328002a0300002a0300002a0300002a03000011
:100338002a0300002a0300002a0300002a03000001
:100348002a0300002a0300002a0300002a030000f1
:100358002a0300002a0300002a0300002a030000e1
:100368002a0300002a0300002a0300002a030000d1
:100378002a0300002a0300002a0300002a030000c1
:100388002a0300002a0300002a0300002a030000b1
:100398002a0300002a0300002a0300002a030000a1
:1003a8002a0300002a0300002a0300002a03000091
:1003b8002a0300002a0300002a0300002a03000081
:1003c8002a0300002a0300002a0300002a03000071
:1003d8002a0300002a0300002a0300002a03000061
:1003e8002a0300002a0300002a0300002a03000051
:0803f8002a0300002a030000a3
:020000040000fa
:1005200004030000070200000601000005000000af
:10053000080f0000090e00000a0d00000b0c00005f
:08054000ffff0000ffff0000b7
:020000040000fa
:10054800889fbe00000020006104b8008881fb007d
:100558000200200000002a0000004100e08049005d
:1005680002202000030020003e090700250607009e
:10057800e00f5000e08f58000400320000ceb300b6
:100588004260b700004c02000000000089017800ba
:100598000420210007292800061e210045102a00f2
:1005a80063c17b008280fb004308de00000040003e
:1005b80080717b00678060004900dd00050a40000b
:1005c8008301e8000482e800f08f5100f4ff3a004c
:1005d8001080210002cab30011c02100024878002f
:1005e8000004b000810f5000fcff3a000004eb004b
:1005f800e91821001901be00080078000c0b07005b
:10060800809cbe000804e800e40f5400f9ff3a009b
:10061800250a07000a0b07006a0a0700870a07006d
:10062800d5090700e7090700f80907000a0a0700c3
:100638001a0b070013e1a8001fe1a8004027ef00ec
:1006480040a7a8000140fe00feff37000000fe00a2
:1006580000400600809fbe00821f7800f28d800057
:100668009280fb00201c2100e08078004135880042
:1006780040128000cca2a900e08d8000b000780074
:1006880041128800e08d8800d08d80000000e000d5
:10069800030032000000e900d08d88000600370012
:1006a8000200e800f08d880011e1a90094e0a9009b
:1006b80005e1a8009460a80084e0a9004f01780033
:1006c8004f00be0000400600809fbe00829fbe0013
:1006d800f08d80003081fb00211c21006101790030
:1006e80042358800f11e210001006000f08d88006d
:1006f80043128000cca2a900e08d8000b0007800f1
:1007080041128800f121210001016000e28d88007a
:100718008460a900a18d80007e804000f003b200b3
:100728000e003a007e804000f1bf21008100600089
:100738007f00610042c2b300e80f500001003200a0
:1007480042c0b300a2409800a8d1bf00b0409800b2
:100758000040e800a8f1b700e48040008318780062
:10076800a18d88004f01be004f00be00004006006a
:10077800cca2a8008540a900004006000200fa00ab
:10078800af51e200130032000040eb00670707009a
:1007980090c1b300d6f1b700af51ab0002003200f0
:1007a800b0c1b300d6f1b700d771ef00c08d80009b
:1007b8001100200074070700a1002000601d21001f
:1007c8006b080700afd1bf00aef1b700af71ef0003
:1007d8000c0037008f80e90070c1b30034070700b0
:1007e800eff897000180fb000048a30005003200e5
:1007f800cd42a90010c0b3004c070700cd42a800a5
:100808008c71ef000080fa00000006000200fa0078
:100818008f80e90070c1b3002b070700eff897003d
:100828000180fb000048a30001003200c422a90097
:100838000080fa0000000600a08d8000b28d8000c4
:1008480082005000820f500002003100004020005a
:1008580080804000908d8000e10f5000030032003e
:10086800f00f2000808f500004003c001000200092
:10087800908d88000280e8001044a000af11ab0002
:1008880009003200b691ec001004a000af51ab0093
:1008980002003200b691ec001014a000afd1bf00e6
:1008a800aef1b700af71ef00d502a800b611ec00a9
:1008b800110220003a080700d502a900b08d800077
:1008c8000104200080804000b18d88001004b00031
:1008d8001102200037080700b08d80000004b00026
:1008e800b08d880001c02100810f500002003a003d
:1008f80000802100b08d8800b231ed0000000600b4
:10090800c482a900c542a90033c0b30042c6b300df
:100918008040eb00014078005707070033c0b30060
:1009280012c6b3008040eb0001407800a907070019
:1009380061e2a9004027ef0040a7a9000040fe009f
:10094800feff3700881f780000047800c482a900e1
:10095800c542a90033c0b30042c6b3008040eb00d3
:10096800014078004407070033c0b30012c6b30043
:100978008040eb00014078009607070061e2a9007b
:100988000000eb00040037000040fe004027ef00a5
:1009980040a7a8000000e800880f5000faff3a00be
:1009a8000100370061e2a8006142e200fdff3d005e
:1009b80040012000000000000000e900fdff3a00af
:1009c8008a51ed008af1b70008003a0040c0b30030
:1009d8008af1b700a351e20001003200c482a800e6
:1009e800a251e20001003200c542a8001000200018
:1009f800308e880040062000508e8800503e20002f
:100a0800408e88004f047800000006003600f80089
:100a1800809fbe00829fbe00849fbe00869fbe004e
:100a2800881f78008500a900418e8000401f2000a3
:100a3800808f500002003a00bb060700ba0037005a
:100a4800603e2000808f50000f003a00f88c800034
:100a5800e009070088417800004178008040eb00f9
:100a680010c0b30004070700f88c8000e4090700f1
:100a780088417800004178008040eb0010c0b30046
:100a880054070700a8003700703e2000808f5000f0
:100a980015003a000040eb00a4060700c18d800055
:100aa800120020000040eb00cd060700c18d800039
:100ab8002200200010c0b300c90607000040eb0068
:100ac8009d060700c18d8000120020000040eb0049
:100ad800d6060700c18d80002200200010c0b30098
:100ae800d206070090003700838d80000300e000e5
:100af80071003a00803e2000808f50006e003a005e
:100b0800cd42a900c422a900a18d8000b08d80002b
:100b180000815000808f5000020039008200780068
:100b2800020037000040200080004100f01f200034
:100b3800808f500018003400ca31ef000040eb00ed
:100b48007a0607000040eb007b060700c08d800096
:100b58008000eb008c060700c08d80008000eb0051
:100b680094060700cd42a800c422a80010c0b30014
:100b78008cf1b70090012000908d8800380020008b
:100b88002dff0700b211e200250032000804e90039
:100b9800fbff3a0022003700af51e2002300320089
:100ba800ca31ef000040eb006006070010c1b30037
:100bb800d6f1b700afd1bf008080fb000128a300a9
:100bc8000200320030c1b300d6f1b700d771ef0090
:100bd80010c0b3008cf1b700c08d80000118a300cd
:100be80006003200d671a800110020006606070032
:100bf800cd42a800a10020000400370021002000f9
:100c080061060700cd42a80021002000601d2100d8
:100c180057070700afd1bf00aef1b700af71ef00c3
:100c280010002000808d88003f003700518e800022
:100c380030062000808f500014003400ca31ef00c5
:100c48000040eb0039060700c08d8000210020001d
:100c58004d060700cd42a80000c1b300d6f1b70089
:100c68008b51e2000200320000c9b300d6f1b70090
:100c7800d771ef0010c0b3008cf1b700210020003d
:100c8800601d21003a070700e5ff3700703e20008d
:100c9800408e88000100e800508e8800b0182100be
:100ca80021c0b30090cf10001f003a00a951e20004
:100cb8001d003a0017003700a21a210012417800df
:100cc8000204e000070032000300e00005003a00db
:100cd800803e2000808f5000020034000000e900b0
:100ce80010003700a03e2000808f50000e00340016
:100cf800cd42a900b031ef000204e0000300320049
:100d08000240e900aaf1b70005003a00a951e20043
:100d180003003a00100020000aff07000200370015
:100d2800703e2000408e88008c51e20001003a009d
:100d3800c831ec00408c80000000e0000400320064
:100d48000000e900408c880001003a00ecfe070032
:100d5800308c80000000e000090032000000e9004b
:100d6800308c880006003a0040c6b300aaf1b700ec
:100d780040062000508e8800503e2000408e88009b
:100d88004f0478004f03be004f02be004f01be0063
:100d98004f00be003600f90000400600809fbe00ec
:100da800821f78008760a900008d80000000e000a5
:100db800020032000000e900008d8800c611e20040
:100dc80006003a00a351e20001003200c482a800e4
:100dd800a251e20001003200c542a800921a210087
:100de800124178000204e0000d003200308e8000cd
:100df800e40f50000a003a00301a210011c0b30075
:100e080090cf100001003e00c482a900201a2100e2
:100e180011c0b30090cf10000e003e000a0037004a
:100e2800aa51e20004003200308e8000f40f500016
:100e380008003a0003003700308e8000e40f5000ad
:100e480004003a00c482a900a011e20001003a009f
:100e5800c542a900c631ec00318e8000800c20000c
:100e6800808f5000050032000204e00004003200c8
:100e7800308e8000f30f500001003400c631ef00bf
:100e88004f0178004f00be00004006008001eb00d3
:100e9800841d21000200370061f279008301e80017
:100ea800828f5100fcff35000004e0000200320090
:100eb80060c0b3000100370020c0b300aff1b70035
:100ec800000006000400fa00889fbe008a1f780010
:100ed800811321009140780000c8b30080c16000f0
:100ee800d1898000e8898000f6898000921321006a
:100ef8001241780010c5b300804f510054003200f1
:100f08000a003e006e405000804f51001f00320022
:100f18006d404000804f510028003200e0c2b3000d
:100f2800804f5100d2003a004e00370030c5b30060
:100f3800804f51004600320070404000804f510001
:100f4800cb003a0050082000800f5400c8003a0037
:100f58000200200003002000030078008281fb00cb
:100f6800020020000400250004024100e08249003c
:100f78000402420085824a00b4bf9f00c5bf9f009b
:100f880042002000ea8057000a003700500820007d
:100f9800800f5400b6003a007000200011002000b5
:100fa800b0bf9f00c1bf9f0042002000ea805700e9
:100fb8000040eb00b5ff0700af00370050082000e5
:100fc800800f5400aa003a006108b800c000dd0094
:100fd80000002000028a800002024000e0824800ef
:100fe8000681e900e10f4200e08f4a0008003a005c
:100ff80000ceb3004260b700231421000400be00f5
:101008006f020700a60307000000fe0096003700e5
:1010180028042000184478000884fb004544de00ba
:1010280000ceb3004260b7008500d1000480d30031
:1010380023142100cf0207004544dd0042c0bf0051
:101048007f4060000840700042e0b700860037002b
:1010580050082000800f540085003a000000fe0070
:1010680085003700f08f50004d00320005003e002b
:10107800ec8f500008003200ee8f50007c003a00e0
:1010880024003700f48f50004c003200fe8f5000cf
:1010980077003a00680037000304e0000e003200d1
:1010a800a2d1bf000080fb004300dd00321a2100fe
:1010b800124178000281fb00020141000200400059
:1010c8000000e800cf80de00b0bf9f00c1bf9f00d6
:1010d80012002000b5ff370040d1bf0003003a00de
:1010e800a0002000408c88005f0037008080fb0053
:1010f8000108a3005e003200668060000080d10015
:10110800a3f1b700788060004380de00a2f1b70049
:10111800550037000304e000120032000800e00028
:1011280003003200e10f54000b003a0008003700ba
:101138002808070001002000b0bf9f00c1bf9f0022
:1011480022002000ea8057000840780099ff370005
:101158002b0807003b00370022002000ea805700d8
:10116800210037000800e00003003200e10f5400be
:101178003f003a0003003700008a80001208070089
:1011880037003700008a80001a080700a0002000f6
:10119800308c880008007800aff1b70036003700bf
:1011a8000304e000020032000408070025003700ad
:1011b800008a8000fe0707002b0037000304e000c8
:1011c8000b003200e0182100e10f540004003e003b
:1011d800c340dd00808040000601780074ff3700be
:1011e800060178008000780010c0b30071ff370056
:1011f800e10f54001e003e0008004400004478003f
:10120800091421004200dd00e11821000105400019
:101218001900be00009dbe003901be0008407800dc
:10122800ff0707000844e80080142100808f54005d
:10123800f7ff3a000c0037000304e0000600320014
:10124800f08c800001002000b0bf9f00c1bf9f004c
:101258002200200055ff3700018a8000f18c8800a9
:10126800a0002000308c880010c0b30001003700b7
:1012780050c0b300aff1b7004f0578004f04be006f
:101288000080fa0000000600889fbe008a9fbe000a
:101298008c9fbe008e1f7800a951e2009e003a0084
:1012a800c402a800b1c0bf00f1c8b300014060008b
:1012b8000064a000b1e0b700318e8000308e80005d
:1012c800808f5000fdff3200318e8000308e80000c
:1012d800808f5000fdff320041e2a800c8a2a9009b
:1012e800b1c0bf00f1c8b300014060000054a000c5
:1012f800b1e0b7008001eb00042021000729280095
:10130800061e210045102a0063c17b008280fb0075
:101318004308de000000400080717b0067806000a9
:101328004900dd00050a40008301e8000482e80066
:10133800f08f5100f4ff3a00268d80000b8e80005c
:101348008000eb0001017800130020000500370041
:101358000118dd0000806500010032000201e8008c
:101368008100e800868f5000f9ff39008603780075
:101378008000eb00130020000118dd00800f5100f1
:101388004a0034008100e800e58f5000faff3a0077
:101398008004eb0009b8b90080017800ef0f500015
:1013a8001e003c008002eb001e0020000d292800d2
:1013b8000c1e21004a102a00110009008682d8005c
:1013c8000170dd00008065000e00320061c17e0002
:1013d8008280fb004308de000000400080717e0030
:1013e8000820210003824100678060004900dd0079
:1013f8000a00400000327c008301e800f08f5100b1
:10140800030032008502e800f08f5200eaff3a003c
:101418008904e800f08f5400deff3a0041c2b300af
:101428002080210001487800308021000048eb002e
:1014380010c0b300a8f1b70040802100a08d88003b
:1014480000802100b08d880000202100e08d8800f8
:10145800001e2100f08d880020002000d08d88001b
:10146800338d8000703e2000808f510011003e00b7
:1014780004c1bf00f1ccb300014060000044a000eb
:1014880004e1b70010c1bf00014060000044a000a3
:1014980010e1b70042062000110009008281d8003f
:1014a8000001780000e224000e0037008003780075
:1014b800b7ff370004c1bf00f1ccb30001406000a2
:1014c80004e1b70010c1bf000140600010e1b7009f
:1014d800823e2000110009008281d80000017800b6
:1014e80000e82300110009000280d800110009005b
:1014f8000780d8000000e9000021ef0010088800ec
:101508000621ef006008880011e1a80094e0a80017
:1015180010c0b300a9f1b7004f0778004f06be000e
:101528004f05be004f04be0000000600a951e200ae
:10153800070032009460a90005e1a900a971ef0035
:10154800c8a2a80041e2a900cd02a800c402a900cf
:10155800000006005118210091407800cdd1bf004d
:1015680080cf5000040032000004e0000200320086
:101578000104e00052003a0084f1b7000040e8009e
:1015880085f1b700ccd1bf000080fb000008a300a4
:1015980028003200ced1bf00e34f50001d003200ba
:1015a80005003e00e14f500008003200e24f5000b5
:1015b8001e003a0015003700e44f500006003200c4
:1015c800e54f500019003a0014003700818e800062
:1015d800318d88003e003700828e8000228d880081
:1015e80050c0b300aff1b7008000eb00130020003b
:1015f8000118dd00800f5100370032008100e8003b
:10160800e58f500039003200f9ff37001eff070050
:1016180004003700c5ff070002003700838e8000f2
:10162800038e880010c0b3002900370050c0b300f3
:10163800270037000018a3002c003200618d8000bd
:101648000100e0000e003a0001007800821321003a
:10165800e11c2100617178000000e800e80f5000eb
:10166800fcff3a003851e200020035003e11e2006a
:1016780001003a0013fe3700608d8800e9ff37004b
:101688008013210000814000e01c2100631d21001f
:10169800305978008100e800830f5000fcff3a00c1
:1016a800618d8800e8805000e0132100908f1000c1
:1016b800dcff3e0003fe0700ac31ef00000006002f
:1016c80084d1bf00000ce10006003a00aed1bf0093
:1016d800aff1b7000000060003007800aff1b700d3
:1016e8000000060020c0b300aff1b70000000600fc
:1016f8003600f800809fbe00829fbe00849fbe0017
:10170800869fbe00881f78000200fa005a0307006f
:10171800004478008680a90001c7b30070c0b300f8
:10172800410307000884fb000868a3001e0032007c
:101738008f80e90090c0b3005d030700ee006400ed
:1017480000182100e1007800cd42a900c01c21004a
:101758008d040700b031ef00ccd1bf008080fb00c2
:1017680063806000030032008b71ef0079ff07008f
:1017780008003700648060000400320020c0b30015
:101788008b51e20001003a0010c0b3008bf1b700a2
:10179800ac31ef0040c6b300aaf1b700803e20008c
:1017a800408e88008500a8000858a3000800320071
:1017b800908d80000000e000020034001efc07004d
:1017c800030037000000e00001003a00ebfb0700cf
:1017d8000080fa004f0478004f03be004f02be009d
:1017e8004f01be004f00be003600f9000040060061
:1017f8003600f800809fbe00829fbe00849fbe0016
:10180800869fbe00881f78002203070000447800e6
:1018180087a0a90001c7b30070c0b3000c0307007c
:101828000858a30003003200b211e20001003a0098
:10183800f6fb07004f0478004f03be004f02be00be
:101848004f01be004f00be003600f9000040060000
:101858000002be0002034000e08348000c0037008d
:10186800950188001400ba009480ba008049780075
:101878004800de0090419800a1419800c808de00a9
:10188800b1419800e481410062024200e0824a00ce
:10189800860f5200878f5a00f1ff390000000600ba
:1018a800889fbe008a9fbe008c1f78000002be0081
:1018b80002067800830578004008de0000057800fd
:1018c80090018800040378000001eb00820378008f
:1018d80084017800f90f2000082020001600ba00c3
:1018e8009680ba00e10f400003003a00f10fb20001
:1018f800898f500001003200120020008703e800a1
:101908000683e800888f5300f4ff3a000200e000e5
:101918000c00320020042400003b88009a01880053
:10192800040abb000700fc0050052000303b88007b
:10193800a00a2000303b880061e7a80000000000f2
:10194800000000000003eb0002042000190024003e
:10195800084020009a0188008c0343008b02430052
:101968000002eb00b7007800350078008109bb0061
:101978008099bb000402e800820f5200f9ff3a0088
:10198800093b88000700fc0050052000303b880018
:10199800a00a2000303b880061e7a8000000000092
:1019a800000000000608b000880f5300e9ff3a0065
:1019b8004f0678004f05be004f04be000000060029
:1019c800889fbe008a9fbe008c9fbe008e1f780035
:1019d8000005be00020778008306780000c02f00cb
:1019e8000a0060008b017800000178000204be0044
:1019f800808f8000918f8000880f5000898f580059
:101a08001d003200e00f5000e08f58000400350040
:101a18000230ec000380200002c02000a0ff070075
:101a2800e00f5400e08f5c00110035000030ec003e
:101a3800990188000802be008001eb000cc020005c
:101a480007802000062020009400ba001481ba0004
:101a58000380410001307e0002b07b008301e80072
:101a680062024200e0824a00868f5100f6ff3a0087
:101a7800888f8800998f88000a007800f03fb200ac
:101a88000000d1000d0278008002eb0007c02000a2
:101a9800068020001100370000017800f21fb20014
:101aa80082014100144090004800dd009480fb0052
:101ab8000100400080b17b00b4409000c808dd0000
:101ac800244090000080fb008080400081317b0032
:101ad800e48242000200e800640242008e8f520055
:101ae800edff39004f0778004f06be004f05be00d6
:101af8004f04be0000000600889fbe008a9fbe00fb
:101b08008c9fbe000005be000206be008004eb00ec
:101b1800120037008a007800f13fb2000040200030
:101b28000100500000004000000478000900560041
:101b3800880f5000010031000004780089814600b8
:101b4800080178000a00be009dff07000800d100c8
:101b580000054500e0854d00888444008c8f5400c2
:101b6800ecff39004f06be004f05be004f04be0013
:101b780000000600881f78000003be0002047800f9
:101b8800000020000080fb0001002000c000dd00f4
:101b9800000020000200250002004000e08048000c
:101ba800800f5300818f5b00020031000603400064
:101bb8008783480000002000f00fb20001002000d9
:101bc800c000dd0000002000e4bf2a00040240003d
:101bd800e082480062024200e0824a00840f53001b
:101be800858f5b0003003100080178000600be0005
:101bf800c1ff07004f04780000000600889fbe0060
:101c08008a9fbe00000020000080fb000100200029
:101c1800c000dd0000002000020025000201400095
:101c2800e0814800020041008380490062055000bd
:101c3800e08558000203be006044b8000e0037007b
:101c4800970188001601ba001682ba000280fb00cc
:101c580000004400e0804c004811de000201400012
:101c6800e08148000482fb0004044100e08449004c
:101c780062034300e0834b008a0f53008b8f5b00a5
:101c8800efff39000980fb00800178000801780027
:101c98000200be004f05be004f04be000000060053
:101ca800f40f20000200200004016100030020005e
:101cb800c011dd00020020000000250000004100e6
:101cc800e080490000004000818048006200500028
:101cd800e0805800910188001001ba001080ba0015
:101ce80001002000c000dd000000200002014000cb
:101cf800e081480003026200840278000202780052
:101d08000400be0000000600889fbe008a9fbe0037
:101d18008c9fbe008e1f7800000020000081fb0011
:101d280003002000c011dd0002002000040025008f
:101d3800050020000206420083864a006011b800b0
:101d4800f00fb20001002000c000dd0000002000fc
:101d58000005420081854a002e0424002100370036
:101d68000203450083834d00970188000602be00e8
:101d780008202000f90f20001400ba009480ba004f
:101d8800e10f400009003a00f10fb200898f5000be
:101d980006003a000804e90062024200e0824a00b4
:101da8000800e0000b003200f3ff37000e3b88000c
:101db800060bbb000700fc0050052000303b8800e4
:101dc800a00a2000303b880061e7a800000000005e
:101dd8000000000000402000010020000201400037
:101de800838148008c0f51008d8f5900dcff39002a
:101df8004f0778004f06be004f05be004f04be00d7
:101e080000000600889fbe00f40f2000000020009c
:101e18000400600001002000c000dd000000200078
:101e28000200250002014000e0814800930188007b
:101e38001200ba009280ba0000017800e10f400059
:101e480005003a00f10fb2006011b800848f50000d
:101e5800100032000d00370000202000800f5100d4
:101e68000a003a00e4cf500008003a0063ff070078
:101e78000004be008aff07001200200003002000b3
:101e8800800f5400818f5c00020032009eff070023
:101e98006011b8000200be004f04be00000006003a
:101ea800f8874700889fbe008a9fbe008c9fbe00af
:101eb8008e1f780051ff07000004be0078ff07005e
:101ec800800f5400818f5c00020032008eff0700f3
:101ed8008d00370008002000f20f20000202640085
:101ee80005002000c022dd00040020000c002500b1
:101ef8000d0020000402460085824e000a002000e2
:101f08000b0020000a007800020165000300200091
:101f1800c011dd000200200006c0240007002000d8
:101f28000201430083814b000202520083825a005f
:101f3800e4af9f00f5af9f006011b80082b79f0023
:101f480093b79f00bab79f00cbb79f00f00fb200be
:101f580001002000c000dd00000020000000430058
:101f680081804b00d0b79f00e1b79f00f80fb20007
:101f780009002000c044dd000800200008044600d5
:101f880089844e00f8b79f0089bf9f00570037002b
:101f98000fb097009fb097005fb19700efb197001f
:101fa80000034100818349007fb097008fb89700f4
:101fb80006054000878548008a01780006017800f8
:101fc8004fb79700405ede000d002000403cde0069
:101fd80009002000a8b79f009c0188009300ba0060
:101fe8009382ba00980188001200ba001282ba00df
:101ff800808f500009003a00848f520007003a0091
:102008000e87e8008381e8000281e8000040200094
:10201800800f57002d003200efff37002004240006
:10202800003b8800afb0970091018800060bbb0009
:102038000700fc0050052000303b8800a00a200063
:10204800303b880061e7a8000000000000000000a5
:102058008006eb001e002400094020000d067800d1
:10206800080420006162b9000a0042008b804a001f
:10207800910188009001ba001081ba00060242005e
:1020880087824a0095018800030abb00028abb00c8
:102098000c86e8000804e900f2ff3a000e3b8800cd
:1020a8000700fc0050052000303b8800a00a2000f3
:1020b800303b880061e7a800000000000000000035
:1020c8000d08b000898f5600e4ff3a000040200058
:1020d800010020000fb197009fb197000201400056
:1020e8008381480082b79f0093b79f000fb0970085
:1020f8009fb097006fa99700ffa99700820f500023
:10210800838f5800a2ff35004f0778004f06be00a6
:102118004f05be004f04be008f01b100000006004d
:1021280000417800cd62a9001140780068e2b7004c
:102138001140900068e2b7002140900068e2b700c3
:102148003140900068e2b7004140900068e2b70073
:102158005140900068e2b700e6804000e641510037
:102168000042eb0084cf51000c00320060c2bf0077
:102178000018a300fdff3a003140780068e2b7007c
:102188008341e90060c2bf000058a300f5ff3a0090
:10219800401380000241e900f2ff370082407800d6
:1021a8000041eb0082cf50000600320060c2bf0041
:1021b8000058a300fdff3a00401380008140e90069
:1021c800f8ff3700cd62a800000006000041780043
:1021d800c502a9001140780068e2b70011409000dc
:1021e80068e2b7002140900068e2b70031409000f3
:1021f80068e2b7004140900068e2b70051409000a3
:1022080068e2b700e6804000e64151000042eb007a
:1022180084cf51000c00320060c2bf000018a30038
:10222800fdff3a003140780068e2b7008341e900d9
:1022380060c2bf000058a300f5ff3a0040138000b9
:102248000241e900f2ff3700824078000041eb00cc
:1022580082cf50000600320060c2bf000058a300c1
:10226800fdff3a00401380008140e900f8ff370085
:10227800c502a80000000600889fbe00020478007e
:10228800cd62a9000142e8000080fb0040138800ed
:10229800014378000041eb0017c0b3008244780086
:1022a800894f53001800320060c2bf000018a30015
:1022b800fdff3a003880fb00401388000643e90020
:1022c80060c2bf0001c2b30081426000f4ff3a005f
:1022d8008440e9000704e000050032004013800054
:1022e800004178000142780085437800ecff370010
:1022f800401380008059780001427800e8ff3700d9
:10230800014278008043eb000404e0000c00320036
:1023180060c2bf000058a300fdff3a008440e900f6
:102328000704e000030032004013800000417800f9
:10233800f3ff37004013800080597800f0ff370022
:10234800cd62a8000280fb004f04be00000006001a
:10235800889fbe0002047800c502a9000142e80077
:102368000080fb0040138800014378000041eb0027
:1023780017c0b30082447800894f53001800320018
:1023880060c2bf000018a300fdff3a003880fb00c0
:10239800401388000643e90060c2bf0001c2b300d1
:1023a80081426000f4ff3a008440e9000704e0003d
:1023b8000500320040138000004178000142780097
:1023c80085437800ecff370040138000805978007f
:1023d80001427800e8ff3700014278008043eb00b3
:1023e8000404e0000c00320060c2bf000058a300e3
:1023f800fdff3a008440e9000704e00003003200d2
:102408004013800000417800f3ff3700401380003c
:1024180080597800f0ff3700c502a8000280fb0051
:102428004f04be00000006000200fa00e1ff9f0012
:102438000054a000430021000f81e90011c0b3003f
:102448008dff07000080fb000080fa0000000600f6
:102458000200fa00e1ff9f000054a0005300210091
:102468000f81e90011c0b300b9ff07000080fb002d
:102478000080fa00000006006300210072002100bd
:1024880011c0b30000c0eb007bff07000080fb0019
:1024980000000600830021009200210011c0b30053
:1024a80000c0eb00aaff07000080fb000000060048
:1024b80081017800a200210011c0b3006eff07005f
:1024c8000080fb000000060081017800b2002100b6
:1024d80011c0b3009eff07000080fb00000006004b
:1024e800c300210064ff07000080fb000000060015
:1024f800c302210096ff07000080fb0000000600d1
:1025080082017800c20421005bff07000080fb0005
:102518000000060082017800c20621008cff070037
:102528000080fb000000060000000600ee404000ae
:102538000040eb00bcff3700ee4040000040eb00dd
:10254800c3ff370080017800024078008041b30063
:102558000100e00003003a008049780070c8b30029
:1025680005003700804978006f8060004300dd0077
:1025780071c8b300014070009041980070ceb3005c
:10258800a0419800000006000600fa00010178004a
:102598008000780066805700eaff070066815700d0
:1025a80031c0b30000c3b300cdff07000080fa00bc
:1025b800000006000600fa0001017800800078009b
:1025c80066805700dfff07006681570031c0b300ff
:1025d80000c3b300c6ff07000080fa000000060031
:1025e8000600fa00881f78000044780068805700c9
:1025f800d4ff07006a404400e14f540004003e0045
:102608000054a0006881570031c0b30003003700b0
:102618000054a0006881570011c0b300b0ff070044
:102628004f0478000080fa00000006000600fa0057
:10263800881f78000044780068805700c1ff0700b1
:102648006a404400e14f540004003e000054a000da
:102658006881570031c0b300030037000054a00060
:102668006881570011c0b300a1ff07004f0478002c
:102678000080fa00000006000200fa00889fbe00f1
:102688008a1f78000044780001407800824478006e
:10269800034578008840d00080c04000ecc040006e
:1026a8000040eb0060ff07000804e000450032002e
:1026b8008040eb0010c0b3005bff070071c0b3009f
:1026c80020c0b30058ff070011c0b30030c0b300ea
:1026d80055ff07008040eb0040c0b30052ff0700e1
:1026e8008940780050c0b3004fff07008a40d000ef
:1026f800e8c0400060c0b3004bff070001c7b3004b
:1027080070c0b30048ff070031ccb300c0c0b300ad
:1027180045ff070041ccb300d0c0b30042ff07001b
:1027280051ccb300e0c0b3003fff070061ccb30059
:10273800f0c0b3003cff0700a1c0b30010c1b30054
:1027480039ff070021c0b30020c1b30036ff0700de
:102758008040eb0030c1b30033ff07008040eb003e
:1027680040c1b30030ff07008040eb0050c1b30008
:102778002dff07008040eb0060c1b3002aff07006f
:102788008040eb00c0c1b30027ff07008040eb008a
:10279800d0c1b30024ff070067845700e8815700c1
:1027a8000801780011c0b30010ceb300b2fe0700d4
:1027b800e88157000801780011c0b30020ceb300ab
:1027c800adfe07004f0578004f04be000080fa00f8
:1027d800000006000200fa00889fbe008a1f7800e9
:1027e800004478000140780082447800034578006e
:1027f8008840d00080c04000ecc040000040eb00a2
:1028080013ff07000804e000450032008040eb0099
:1028180010c0b3000eff070071c0b30020c0b300a2
:102828000bff070011c0b30030c0b30008ff07005a
:102838008040eb0040c0b30005ff070089407800e6
:1028480050c0b30002ff07008a40d000e8c0400033
:1028580060c0b300fefe070001c7b30070c0b3003c
:10286800fbfe070031ccb300c0c0b300f8fe070080
:1028780041ccb300d0c0b300f5fe070051ccb30083
:10288800e0c0b300f2fe070061ccb300f0c0b300b3
:10289800effe0700a1c0b30010c1b300ecfe0700b3
:1028a80021c0b30020c1b300e9fe07008040eb005f
:1028b80030c1b300e6fe07008040eb0040c1b30022
:1028c800e3fe07008040eb0050c1b300e0fe0700c4
:1028d8008040eb0060c1b300ddfe07008040eb00e4
:1028e800c0c1b300dafe07008040eb00d0c1b300de
:1028f800d7fe070067845700e88157000801780071
:1029080011c0b30010ceb30091fe0700e881570054
:102918000801780011c0b30020ceb3008cfe070078
:102928004f0578004f04be000080fa000000060042
:102938000200fa008f81e9000f01e90011c0b3001d
:1029480020ceb3004cfe07000080fa00000006000d
:102958000200fa008f81e9000f01e90011c0b300fd
:1029680020ceb3007afe07000080fa0000000600bf
:102978000001780000cab300d9fe370000017800d2
:1029880000cab300dafe37000001780010c6b300b1
:10299800dbfe37000001780010c6b300ddfe37000b
:1029a80081017800c2082100800078000340780087
:1029b800dbfd370081017800d20a21008000780011
:1029c8000340780001fe370000017800010078001c
:1029d800e10c2100d2fd3700a2898000b389800074
:1029e80093018800000040006102b9000201420022
:1029f80083814a001202ba001280ba008408780063
:102a08000080fb000000060080017800a689800095
:102a1800b789800030002400003b880097018800b7
:102a28008180fb000110b100038041006102b90000
:102a38000603420087834a00020bbb00018bbb00e0
:102a48000700fc0050052000303b8800a00a200049
:102a5800303b880061e7a80000000000000000008b
:102a680000000600881f7800a0898800b1898800c6
:102a78008289880093898800c011210001132100f0
:102a88000058eb00810f5000fdff3a000004eb00f6
:102a980011003700010f210008007800ceff070061
:102aa800e14f4000120032000004e000090032004b
:102ab8000080fb000000e90012c0b300c111210032
:102ac80002f0780000004000410f2100828780005a
:102ad80002b078000804e8006141b90080898000ec
:102ae80091898000800f5100818f5900e9ff3900da
:102af800080078004f047800000006000101780003
:102b08008080fb00c0112100614078000004e000d3
:102b180002003a00820078000300370081804000fc
:102b2800400f2100e1007800010078000000060055
:102b38000400fa00889fbe008a9fbe008c9fbe00da
:102b480080467800010678000084fb00c21121004d
:102b5800684079000004e0000500320008004400e5
:102b6800410f2100608078008c0f50005100320026
:102b780008004400410f21000cb0780010c0b300d9
:102b8800007479008004eb000e003700210f21004b
:102b98000900780090ff0700e14f40000f00320065
:102ba8008080fb000800e800808f500004003a0095
:102bb8000001eb008040eb000900780092ff07005d
:102bc8008904e800614db9008089800091898000fe
:102bd800800f5500818f5d00ecff390080898000ef
:102be80091898000800f5500818f5d002d003a008b
:102bf80070805700012a2800030009003158780026
:102c08004000b1000004eb000a003700080044004f
:102c1800cf80de00a2898000b389800000004100d7
:102c280081804900f08157004200200064fb0700c2
:102c38000804e8006141b90080898000918980001a
:102c4800800f5100818f5900f0ff3900f081570043
:102c58000001eb000080eb008080eb0058fb0700d0
:102c68008004eb00180020004a0f2100b011210059
:102c780060407c000004e000050032001a01780082
:102c880088407800090078005fff07008904e800a1
:102c98000804e8000a85e800f50f54000500320032
:102ca800f2ff37008d40e8000c0178000900780039
:102cb80055ff07004f06be004f05be004f04be007b
:102cc8000080fa0000000600889fbe008a1f780076
:102cd800014578000204be008900780094ff0700cf
:102ce800880078000a40780091ff07004f057800b7
:102cf8004f04be0000000600889fbe008142780095
:102d08000204be00401bde00070020000082fb001a
:102d1800c0112100644078000004e00002003a007d
:102d2800060078000300370084004200400f2100ad
:102d38006100780001002000c001dd0002002000d1
:102d48008580fb00c0112100614078000004e0008c
:102d580002003a0008007800030037008180400034
:102d6800400f21006100780000004100e080490028
:102d78004f04be000000060005e1a90005a1a90056
:102d880004c1a90004c1bf00f1ccb3000140600038
:102d980004e1b7000441a9000421a9000021ef00c3
:102da800700c200010088800a5c0bf000044a100d6
:102db8000046b300a5e0b7008460a9009460a800ad
:102dc8000000060011e1a90011a1a90010c1a90085
:102dd80010c1bf00f1ccb3000140600010e1b700a2
:102de8001021a9000621ef00700c2000600888005f
:102df800a7c0bf000044a1000046b300a7e0b70089
:102e080084e0a90094e0a8000000060013e1a900ee
:102e180013a1a90012c1a90012c1bf00f1ccb300cf
:102e28000140600012e1b7001221a9000a21ef0059
:102e38000064200070088800a8c0bf0081cfb300dc
:102e4800014060003040b300a8e0b7008500a90049
:102e58009500a800000006001fe1a9001fa1a90015
:102e68001ec1a9001ec1bf00f1ccb3000140600023
:102e78000044a0001ee1b7001e21a9001421ef00a4
:102e880000712200d0088800b1c0bf00f1c8b300ab
:102e9800014060000054a000b1e0b7008760a900bd
:102ea8009760a800000006002ca3ef00c8a2a900a4
:102eb800cca2a900d5c6bf0001ceb3000140600076
:102ec8007040b300d5e6b700d4c6bf00014060002b
:102ed8000034a000d4e6b700a8c6bf0001406000d7
:102ee8000024a000a8e6b700acc6bf0001406000ff
:102ef8001041b300ace6b700d0c6bf000140600087
:102f0800a040b300d0e6b700c3c6bf0001406000d0
:102f1800b040b300c3e6b70081c6bf0001406000ff
:102f2800f040b30081e6b700c962a900cd62a800ed
:102f3800c942a900cd42a90082c6bf000140600075
:102f48002041b30082e6b700c102a900c502a8006b
:102f5800c022a900c422a900c902a900cd02a80064
:102f6800c002a900c402a900d0e2a900d4e2a900c5
:102f7800d102a900d502a900c082a900c482a90073
:102f8800c142a900c542a900c922a900cd22a900b1
:102f9800d0c2a900d4c2a900d122a900d522a90073
:102fa800c982a900cd82a900c0e2a900c4e2a90093
:102fb800c8c2a900ccc2a900c8e2a900cce2a900f5
:102fc8000000060041a2a9004382a9004362a900ab
:102fd8004342a8004322a9004302a90042e2a900f3
:102fe80042c2a90042a2a80042c2bf0031ceb3002b
:102ff800014060008041b30042e2b70030c0b30036
:103008004262b70045e2a90040c2bf00014060002b
:103018000024a00040e2b70041e2a900a9c0bf0017
:1030280081cfb300014060006040b300a9e0b70061
:103038008540a9009540a8000000060061a2a900eb
:103048006382a9006362a9006342a9006322a90000
:103058006302a80062e2a90062c2a90062a2a800f5
:1030680062c2bf0031ceb300014060004041b300ee
:1030780062e2b70030c0b3006262b70065e2a9003f
:103088006402a80061e2a8008220a800aec0bf00c8
:1030980081cfb300014060003040b300aee0b7001c
:1030a8008680a9009680a8008240a800b2c0bf0010
:1030b800f1c8b300014060000043b300b2e0b700bc
:0c30c80087a0a90097a0a8000000060047
:020000040000fa
:1030d40004100000ec00000000000000f0100000ec
:1030e40048000000000000008011000046000000bd
:1030f400020000000a0002000000000000000000be
:10310400000400000000fc008764000000000000d0
:1031140000e022001f126000c85c000003002c00c5
:1031240001000100020010002700000064000000fc
:103134000000000000000000000018000018020059
:10314400000000000012e00011ffff00041f020055
:103154001f000000c61100001a000000000000005b
:1031640038110000480000000000000000180000b2
:103174000004000000000000001200002000000015
:1031840000000000e011000010000000000000003a
:10319400f01100000400000002000000ffffff0027
:1031a400ff00000000080000040800000000000008
:0431b4000000000017
:020000040000fa
:1031b800800078000040eb005dfe37008000eb00e7
:1031c8000040eb004dfe37008000780010c0b300cf
:1031d80057fe37004106200010c0b30047fe070025
:1031e800d1072000810f500001003600010078004f
:1031f800000006008000780020c0b3004cfe3700b5
:103208001106200020c0b3003cfe0700d1072000b3
:10321800810f500001003600010078000000060010
:103228000040d000e440400063404000a6fe370064
:1032380000404000e440400063404000aefe3700dc
:1032480071e7a80070e7a80070c7a80070a7a800d9
:103258007007a8007387a8007367a8007347a800c1
:103268007327a8007307a8007287a8007267a800d0
:103278007247a8007227a8007207a8007547a8001f
:103288007527a8007507a80074e7a8007427a80088
:103298007647a8007627a800000006004fa7a900d7
:1032a8004f87a8004fc7bf0001cfb300014060009f
:1032b8000004a0004fe7b7004fe7a8000000060091
:00000001FF
