:020000040000fa
:080000000002040000000000f2
:020000040000fa
:100400000fc021000e7f22000e01880000000000b6
:100410000c000700e07f2100010020001100070010
:10042000000020000000e000020032000000020096
:100430000000000094020200000000000040da000a
:100440000000fe004440a900400020000000e00041
:100450000300320000002000a00188004440a800f2
:100460000000060091018800800078000000eb0089
:1004700015003700e280400032a0b4009101ba00bc
:10048000e280400032a0b4009102ba00e280400055
:1004900032a0b4000002eb00472bde00f507b200eb
:1004a000602ce10004003a000059eb008301e900f0
:1004b000fdff3e00040037006128e100010032002a
:1004c0000082eb00040007001101ba000200e00006
:1004d000e8ff3a00000006003159ba008301e90044
:1004e0000c0032002159ba008301e90008003200f3
:1004f0000400e00003003a00e280400032a0b400b3
:10050000f5ff370011d9ba008301e900faff3a007c
:100510008100e800e180400032a0b4000000060045
:020000040000fa
:0497fc000000fe006b
:020000040000fa
:10980000f8874700889fbe008a9fbe008c9fbe00dd
:109810008e1f7800020020000281fb000300200060
:10982000c011dd0002002000000025000000410002
:10983000e0804900910188009001ba001081ba00cf
:1098400000202000808f510002003a00e44f5100b8
:10985000010032000000fe00f30f20000000200095
:109860000300600001002000c000dd0000002000b7
:109870000200250002024000e082480000002000b3
:109880000300600001002000c000dd000000200097
:1098900002c0240002004000e0804800800f520017
:1098a000818f5a000300310084b79f0095b79f0055
:1098b0000200370080b79f0091b79f006044b80056
:1098c00000002000f0b79f000100250081bf9f002d
:1098d0006101b800b2b79f00c3b79f008280fb0050
:1098e000000020000fb9970002004000e08048000f
:1098f000d0b79f00e1b79f004d0037005fb09700e1
:10990000efb0970008054000898548008a0178007b
:10991000080178004fb79700405ede000d00200080
:10992000404bde0007002000a6b79f009c01880086
:109930009300ba009382ba00960188001200ba0020
:109940001282ba00808f500009003a00848f5200c2
:1099500007003a000e87e8008381e8000281e800f2
:1099600000402000800f57002d003200efff37002d
:1099700020042400003b8800afb0970091018800cc
:10998000080cbb000700fc0050052000303b88009d
:10999000a00a2000303b880061e7a800000000001a
:1099a000000000000006eb001e0024000d40200017
:1099b0000c037800070420006132b9000a0042005d
:1099c0008b804a00910188009001ba001081ba0092
:1099d0000802420089824a0095018800030abb0000
:1099e000028abb000683e8008703e900f2ff3a0021
:1099f0000e3b88000700fc0050052000303b88002b
:109a0000a00a2000303b880061e7a80000000000a9
:109a1000000000000c08b0008d0f5600e4ff3a0073
:109a20000040200001002000080440008984480014
:109a30000fb197009fb19700820f5400838f5c0095
:109a4000aeff3900efe997000380fb000100200022
:109a5000c000dd00000020000fb9970002004000a8
:109a6000e0804800e0af9f00f1af9f006033b80096
:109a7000000020006105b8008a80fb000000200083
:109a80000200250002064000e08648002e04240063
:109a9000200037000602460087824e0095018800ac
:109aa0000401be000b047800094020001200ba0037
:109ab0009280ba00e10f400008003a00e18f4000b8
:109ac00006003a000884e80062014100e081490094
:109ad000890f54000b003200f4ff37000e3b880062
:109ae000040abb000700fc0050052000303b880042
:109af000a00a2000303b880061e7a80000000000b9
:109b0000000000000040200001002000060340008b
:109b1000878348006fa99700ffa99700820f530021
:109b2000838f5b00dbff39000000fe004f077800e9
:109b30004f06be004f05be004f04be008f01b100ae
:049b4000000006001b
:020000040000fa
:020000040040ba
:08000000010000001c000000db
:020000040000fa
:020000040001f9
:0457f0003fff000077
:020000040000fa
:020000040001f9
:0457f400c07400007d
:020000040000fa
:020000040001f9
:0457f8007e7a0000b5
:020000040000fa
:020000040001f9
:0457fc00763f0000f4
:020000040000fa
:1000080008030000080300000803000008030000bc
:1000180008030000080300000803000008030000ac
:100028000803000008030000080300003403000070
:100038000803000008030000080300000c03000088
:10004800b004000008030000780300000803000063
:10005800080300000803000008030000080300006c
:10006800080300000803000008030000080300005c
:10007800000b00000803000008030000080300004c
:1000880008030000080300000803000078060000c9
:1000980008030000800b00000803000008030000ac
:1000a800080300000803000008030000080300001c
:1000b800080300000803000008030000080300000c
:1000c80008030000080300000803000008030000fc
:1000d80008030000080300000803000008030000ec
:1000e80008030000080300000803000008030000dc
:1000f80008030000080300000803000008030000cc
:1001080008030000080300000803000008030000bb
:1001180008030000080300000803000008030000ab
:10012800080300000803000008030000080300009b
:10013800080300000803000008030000080300008b
:10014800080300000803000008030000080300007b
:10015800080300000803000008030000080300006b
:10016800080300000803000008030000080300005b
:10017800080300000803000008030000080300004b
:10018800080300000803000008030000080300003b
:10019800080300000803000008030000080300002b
:1001a800080300000803000008030000080300001b
:1001b800080300000803000008030000080300000b
:1001c80008030000080300000803000008030000fb
:1001d80008030000080300000803000008030000eb
:1001e80008030000080300000803000008030000db
:0801f8000803000008030000e9
:020000040000fa
:1002080008030000080300000803000008030000ba
:1002180008030000080300000803000008030000aa
:10022800080300000803000008030000340300006e
:100238000803000008030000080300000c03000086
:10024800b004000008030000780300000803000061
:10025800080300000803000008030000080300006a
:10026800080300000803000008030000080300005a
:10027800000b00000803000008030000080300004a
:1002880008030000080300000803000078060000c7
:1002980008030000800b00000803000008030000aa
:1002a800080300000803000008030000080300001a
:1002b800080300000803000008030000080300000a
:1002c80008030000080300000803000008030000fa
:1002d80008030000080300000803000008030000ea
:1002e80008030000080300000803000008030000da
:1002f80008030000080300000803000008030000ca
:1003080008030000080300000803000008030000b9
:1003180008030000080300000803000008030000a9
:100328000803000008030000080300000803000099
:100338000803000008030000080300000803000089
:100348000803000008030000080300000803000079
:100358000803000008030000080300000803000069
:100368000803000008030000080300000803000059
:100378000803000008030000080300000803000049
:100388000803000008030000080300000803000039
:100398000803000008030000080300000803000029
:1003a8000803000008030000080300000803000019
:1003b8000803000008030000080300000803000009
:1003c80008030000080300000803000008030000f9
:1003d80008030000080300000803000008030000e9
:1003e80008030000080300000803000008030000d9
:0803f8000803000008030000e7
:020000040000fa
:08052000ffff0000ffff0000d7
:020000040000fa
:10052800889fbe00000020006104b8008881fb009d
:100538000200200000002a0000004100e08049007d
:10054800022020000300200008090700ef0507002b
:10055800e00f5000e08f58000400320000ceb300d6
:100568004260b700004c020000000000090078005b
:10057800021e210041102a00011978000000e8003d
:100588000120b000e80f5000fbff3a001080210066
:1005980002cab30011c02100024878000004b0006c
:1005a800810f5000fcff3a000004eb00e91821001d
:1005b8001901be0008007800e10a0700809cbe000f
:1005c8000804e800e40f5400f9ff3a00ac090700fa
:1005d800df0a0700450a0700620a0700f709070053
:1005e800090a07001a0a07002c0a0700ef0a070081
:1005f80013e1a8001fe1a8004027ef0040a7a800ca
:100608000140fe00feff37000000fe00004006002b
:10061800809fbe0040128000cd02a900d08d8000ce
:10062800b000780041128800d08d8800c08d80000d
:100638000000e000030032000000e900c08d8800df
:100648000400370011e1a90094e0a90005e1a80021
:100658009460a80084e0a9004f00be000040060096
:10066800809fbe00829fbe0043128000cd02a90079
:10067800d08d8000b000780041128800f11e210062
:1006880001016000d28d88008460a900918d8000ee
:100698007e804000f003b2000e003a007e804000e9
:1006a800f1bf2100810060006f00610042c2b30009
:1006b800e80f50000100320042c0b300a240980089
:1006c800a6d1bf00b04098000040e800a6f1b700ee
:1006d800e480400083187800918d88004f01be00a7
:1006e8004f00be0000400600cd02a8008540a900ca
:1006f800004006000200fa00ad51e200130032008b
:100708000040eb004b07070090c1b300cef1b700e3
:10071800ad51ab0002003200b0c1b300cef1b7005a
:10072800cf71ef00b08d800011002000580707003e
:10073800a1002000e01c21004f080700add1bf0038
:10074800acf1b700ad71ef000c0037008f80e90005
:1007580070c1b30018070700eff897000180fb008d
:100768000048a30005003200d422a90010c0b3003d
:1007780030070700d422a8008c71ef000080fa002f
:10078800000006000200fa008f80e90070c1b30083
:100798000f070700eff897000180fb000048a3004f
:1007a80001003200c522a9000080fa0000000600fe
:1007b800908d8000a28d800082005000820f500032
:1007c800020031000040200080804000808d8000c1
:1007d800e10f500003003200f00f2000808f50001e
:1007e80004003c0010002000808d88000280e80092
:1007f8001044a000ad11ab0009003200b491ec0028
:100808001004a000ad51ab0002003200b491ec001e
:100818001014a000add1bf00acf1b700ad71ef006e
:10082800c4e2a800b411ec00110220001e08070061
:10083800c4e2a900a08d800001042000808040004f
:10084800a18d88001004b000110220001b080700c9
:10085800a08d80000004b000a08d880001c0210098
:10086800810f500002003a0000802100a08d88000e
:10087800b031ed0000000600cc82a90033c0b300ff
:1008880042c6b3008040eb00014078003c070700f7
:1008980033c0b30012c6b3008040eb0001407800bb
:1008a8008e07070061e2a9004027ef0040a7a900d2
:1008b8000040fe00feff3700881f78000004780023
:1008c800cc82a90033c0b30042c6b3008040eb001d
:1008d800014078002a07070033c0b30012c6b300ee
:1008e8008040eb00014078007c07070061e2a90026
:1008f8000000eb00040037000040fe004027ef0036
:1009080040a7a8000000e800880f5000faff3a004e
:1009180061e2a8008a51ed008af1b7004240a900bf
:1009280005003c0040c0b3008af1b700a051e200c6
:1009380001003200cc82a80010002000f08d880051
:1009480040062000108e8800503e2000008e88004f
:100958004f047800000006003600f800809fbe00b3
:10096800829fbe00849fbe00869fbe00881f7800bd
:100978008500a900018e8000401f2000808f500054
:1009880002003a00aa060700ba003700603e2000bd
:10099800808f50000f003a00f88c8000d1090700c2
:1009a80088417800004178008040eb0010c0b30017
:1009b800f3060700f88c8000d50907008841780005
:1009c800004178008040eb0010c0b30043070700e7
:1009d800a8003700703e2000808f500015003a00b4
:1009e8000040eb0093060700b18d80001200200044
:1009f8000040eb00bc060700b18d800022002000fb
:100a080010c0b300b80607000040eb008c060700d2
:100a1800b18d8000120020000040eb00c5060700e1
:100a2800b18d80002200200010c0b300c10607006d
:100a380090003700738d80000300e00071003a00d9
:100a4800803e2000808f50006e003a00d422a9001a
:100a5800c522a900918d8000a08d800000815000e2
:100a6800808f5000020039008200780002003700b1
:100a78000040200080004100f01f2000808f5000bf
:100a880018003400c231ef000040eb00690607008f
:100a98000040eb006a060700b08d80008000eb0084
:100aa8007b060700b08d80008000eb0083060700fe
:100ab800d422a800c522a80010c0b3008cf1b7004a
:100ac80090012000808d88003800200038ff070042
:100ad800b011e200250032000804e900fbff3a00eb
:100ae80022003700ad51e20023003200c231ef008e
:100af8000040eb004f06070010c1b300cef1b7006d
:100b0800add1bf008080fb000128a30002003200a5
:100b180030c1b300cef1b700cf71ef0010c0b30001
:100b28008cf1b700b08d80000118a30006003200d8
:100b3800ce71a8001100200055060700d422a80095
:100b4800a100200004003700210020005006070003
:100b5800d422a80021002000e01c2100460707003d
:100b6800add1bf00acf1b700ad71ef0010002000af
:100b7800708d88003f003700118e800030062000fd
:100b8800808f500014003400c231ef000040eb00a9
:100b980028060700b08d8000210020003c060700d1
:100ba800d422a80000c1b300cef1b7008b51e200f7
:100bb8000200320000c9b300cef1b700cf71ef00d8
:100bc80010c0b3008cf1b70021002000e01c210008
:100bd80029070700e5ff3700703e2000008e8800d7
:100be8000100e800108e8800b018210021c0b30071
:100bf80090cf10001f003a00a751e2001d003a00f4
:100c080017003700821a2100124178000204e00020
:100c1800070032000300e00005003a00803e200093
:100c2800808f5000020034000000e90010003700f7
:100c3800a03e2000808f50000e003400d422a9006e
:100c4800ae31ef000204e000030032000240e90088
:100c5800a8f1b70005003a00a751e20003003a00e6
:100c68001000200014ff070002003700703e20002b
:100c7800008e88008c51e20001003a00c031ec007f
:100c8800408c80000000e000040032000000e90011
:100c9800408c880001003a00f7fe0700308c800085
:100ca8000000e000090032000000e900308c8800f4
:100cb80006003a0040c6b300a8f1b700400620007d
:100cc800108e8800503e2000008e88004f04780067
:100cd8004f03be004f02be004f01be004f00be00d2
:100ce8003600f90000400600809fbe00821f780091
:100cf8008760a900be11e20003003a00a051e2009b
:100d080001003200cc82a800721a2100124178003a
:100d18000204e00008003200f08d8000e40f50006b
:100d280005003a00001a210011c0b30090cf10004e
:100d38000b003e0009003700a851e2000400320011
:100d4800f08d8000f40f500005003a0003003700d2
:100d5800f08d8000e40f500001003a00cc82a90019
:100d6800be31ec00f18d8000800c2000808f500097
:100d7800050032000204e00004003200f08d80001b
:100d8800f30f500001003400be31ef004f0178002e
:100d98004f00be00004006008001eb00041d21004a
:100da8000200370061f279008301e800828f510068
:100db800fcff35000004e0000200320060c0b30010
:100dc8000100370020c0b300adf1b70000000600f5
:100dd8000400fa00889fbe008a1f78008113210052
:100de8009140780000c8b30080c16000d1898000bc
:100df800e8898000f689800092132100124178006a
:100e080010c5b300804f5100540032000a003e0064
:100e18006e405000804f51001f0032006d4040006e
:100e2800804f510028003200e0c2b300804f5100cb
:100e3800ca003a004e00370030c5b300804f510059
:100e48004600320070404000804f5100c3003a0015
:100e580040082000800f5400c0003a000200200023
:100e680003002000030078008281fb0002002000bc
:100e78000400250004024100e08249000402420007
:100e880085824a00b4bf9f00c5bf9f004200200072
:100e9800ea8057000a00370040082000800f5400fd
:100ea800ae003a00c001200011002000b0bf9f0032
:100eb800c1bf9f0042002000ea8057000040eb00bd
:100ec800b5ff0700a700370040082000800f540036
:100ed800a2003a006108b800c000dd000000200050
:100ee800028a800002024000e08248000681e90090
:100ef800e10f4200e08f4a0008003a0000ceb3003c
:100f08004260b700231421000400be006e020700ef
:100f1800a50307000000fe008e003700280420000b
:100f2800184478000884fb004544de0000ceb30076
:100f38004260b7008500d1000480d300231421004b
:100f4800ce0207004544dd0042c0bf007f4060007c
:100f58000840700042e0b7007e00370040082000db
:100f6800800f54007d003a000000fe007d0037002d
:100f7800f08f50004500320005003e00ec8f500015
:100f880008003200ee8f500074003a001c00370051
:100f9800f48f500044003200fe8f50006f003a007a
:100fa800600037000304e00009003200a0d1bf0050
:100fb8000080fb00000040000000e800cf80de0059
:100fc800b0bf9f00c1bf9f0012002000baff3700ca
:100fd80040d1bf0003003a00a0002000408c8800e8
:100fe8005c0037000080fb000008a3005b003200b3
:100ff800660060000080d100a0f1b70055003700fe
:101008000304e000120032000800e0000300320090
:10101800e10f54000b003a000800370031080700c0
:1010280001002000b0bf9f00c1bf9f002200200028
:10103800ea80570008407800a1ff3700340807000d
:101048003b00370022002000ea80570021003700cb
:101058000800e00003003200e10f54003f003a00ae
:1010680003003700008a80001b080700370037009c
:10107800008a800023080700a0002000308c880028
:1010880008007800adf1b700360037000304e0002f
:10109800020032000d08070025003700008a800092
:1010a800070807002b0037000304e0000b0032009c
:1010b800e0182100e10f540004003e00c340dd00a9
:1010c80080804000060178007cff37000601780028
:1010d8008000780010c0b30079ff3700e10f54009a
:1010e8001e003e0008004400004478000914210056
:1010f8004200dd00e1182100010540001900be0092
:10110800009dbe003901be000840780008080700ad
:101118000844e80080142100808f5400f7ff3a004b
:101128000c0037000304e00006003200f08c800059
:1011380001002000b0bf9f00c1bf9f002200200017
:101148005dff3700018a8000f18c8800a000200034
:10115800308c880010c0b3000100370050c0b300c5
:10116800adf1b7004f0578004f04be000080fa00cb
:1011780000000600889fbe008a1f7800a751e20081
:10118800aa003a0042c0bf000080fb00c500de0094
:1011980000ceb3004260b7000000eb00420620001a
:1011a800c502a900c502a800c502a800c502a8007a
:1011b800c502a800c502a800c502a800c502a8006b
:1011c800c502a800c502a8000000e800820f500070
:1011d800f3ff3a0040062000c502a900c502a80096
:1011e8000000e900fcff3a00c502a900c508dd00bf
:1011f80042c0bf007f4060000140700042e0b7007d
:10120800b1c0bf00f1c8b300014060000064a00095
:10121800b1e0b700f18d8000f08d8000808f500024
:10122800fdff3200f18d8000f08d8000808f50002e
:10123800fdff320041e2a800c902a900b1c0bf0009
:10124800f1c8b300014060000054a000b1e0b7004d
:101258008000eb00021e210040102a0000197800cf
:101268008100e8000020b000e88f5000fbff3a0042
:10127800158d8000bcd1bf008084fb008000eb008e
:10128800010178000500370001c8de000008a3004e
:10129800010032000201e8008100e800858f50005b
:1012a800f9ff3900850378008000eb001300200067
:1012b8000118dd00800f5100410034008100e80072
:1012c800e48f5000faff3a000003eb000a1e2100e9
:1012d80006b8b90080007800e70f500016003c00ff
:1012e8008001eb0048102a00000040000a0240007c
:1012f80001017800110009008581d8000101fd0075
:1013080002c8de000008a300050032004910dd0015
:10131800081a40008100e800e88f500003003200fe
:101328008301e800e88f5100f1ff3a000603e80066
:10133800e80f5300e6ff3a0041c2b30020802100c5
:1013480001487800308021000048eb0010c0b3004d
:10135800a6f1b70040802100908d88000080210010
:10136800a08d8800001e2100d08d8800200020005c
:10137800c08d8800238d8000703e2000808f510032
:1013880011003e0004c1bf00f1ccb3000140600071
:101398000044a00004e1b70010c1bf000140600094
:1013a8000044a00010e1b700420620001100090027
:1013b8008281d8000001780000e224000e00370086
:1013c80080037800c0ff370004c1bf00f1ccb30030
:1013d8000140600004e1b70010c1bf000140600097
:1013e80010e1b700823e2000110009008281d80078
:1013f8000001780000e82300110009000280d800ed
:10140800110009000780d8000000e9000021ef0062
:10141800100888000621ef006008880011e1a80084
:1014280094e0a80010c0b300a7f1b7004f057800fa
:101438004f04be0000000600a751e200060032007b
:101448009460a90005e1a900a771ef00c902a800ee
:1014580041e2a900c502a8000000060051182100b9
:1014680091407800c5d1bf0080cf50000400320001
:101478000004e000020032000104e00052003a00db
:1014880084f1b7000040e80085f1b700c4d1bf007f
:101498000080fb000008a30028003200c6d1bf006e
:1014a800e34f50001d00320005003e00e14f5000a0
:1014b80008003200e24f50001e003a0015003700c5
:1014c800e44f500006003200e54f500019003a0082
:1014d80014003700418e8000218d88003e003700bf
:1014e800428e8000128d880050c0b300adf1b70065
:1014f8008000eb00130020000118dd00800f510070
:10150800370032008100e800e48f500039003200d3
:10151800f9ff370017ff070004003700c6ff070070
:1015280002003700c8d1bf00bcf1b70010c0b3003b
:101538002900370050c0b300270037000018a30067
:101548002c003200518d80000100e0000e003a00ae
:101558000100780082132100611c2100617178006c
:101568000000e800e80f5000fcff3a003851e200a4
:10157800020035003e11e20001003a0014fe370077
:10158800508d8800e9ff370080132100008140005a
:10159800601c2100e31c2100305978008100e8001c
:1015a800830f5000fcff3a00518d8800e8805000fe
:1015b800e0132100908f1000dcff3e0004fe0700be
:1015c800aa31ef000000060084d1bf00000ce10042
:1015d80006003a00acd1bf00adf1b700000006002c
:1015e80003007800adf1b7000000060020c0b3008a
:1015f800adf1b700000006003600f800809fbe007d
:10160800829fbe00849fbe00869fbe00881f780010
:101618000200fa005a030700004478008680a900f7
:1016280001c7b30070c0b300410307000884fb0082
:101638000868a3001e0032008f80e90090c0b30044
:101648005d030700ee00640000182100e100780047
:10165800d422a900401c21008d040700ae31ef0000
:10166800c4d1bf008080fb006380600003003200ab
:101678008b71ef0079ff0700080037006480600075
:101688000400320020c0b3008b51e20001003a0090
:1016980010c0b3008bf1b700aa31ef0040c6b30009
:1016a800a8f1b700803e2000008e88008500a800c1
:1016b8000858a30008003200808d80000000e00078
:1016c800020034003afc0700030037000000e00085
:1016d80001003a0007fc07000080fa004f04780078
:1016e8004f03be004f02be004f01be004f00be00b8
:1016f8003600f900004006003600f800809fbe0062
:10170800829fbe00849fbe00869fbe00881f78000f
:10171800220307000044780087a0a90001c7b3008e
:1017280070c0b3000c0307000858a3000300320080
:10173800b011e20001003a0012fc07004f047800e3
:101748004f03be004f02be004f01be004f00be0057
:101758003600f900004006000002be000203400007
:10176800e08348000c003700950188001400ba0097
:101778009480ba00804978004800de0090419800c3
:10178800a1419800c808de00b1419800e4814100f9
:1017980062024200e0824a00860f5200878f5a0098
:1017a800f1ff390000000600889fbe008a9fbe0036
:1017b8008c1f78000002be000206780083057800be
:1017c8004008de00000578009001880004037800d6
:1017d8000001eb008203780084017800f90f2000f3
:1017e800082020001600ba009680ba00e10f4000d9
:1017f80003003a00f10fb200898f50000100320057
:10180800120020008703e8000683e800888f530051
:10181800f4ff3a000200e0000c003200200424002b
:10182800003b88009a018800040abb000700fc00fe
:1018380050052000303b8800a00a2000303b88007b
:1018480061e7a80000000000000000000003eb00b2
:101858000204200019002400084020009a01880092
:101868008c0343008b0243000002eb00b7007800b2
:10187800350078008109bb008099bb000402e800ac
:10188800820f5200f9ff3a00093b88000700fc006c
:1018980050052000303b8800a00a2000303b88001b
:1018a80061e7a80000000000000000000608b00082
:1018b800880f5300e9ff3a004f0678004f05be0035
:1018c8004f04be0000000600889fbe008a9fbe002d
:1018d8008c9fbe008e1f78000005be0002077800ae
:1018e8008306780000c02f000a0060008b01780092
:1018f800000178000204be00c08e8000d18e8000f6
:10190800880f5000898f58001d003200e00f5000ea
:10191800e08f5800040035000230ec0003802000fe
:1019280002c02000a0ff0700e00f5400e08f5c0019
:10193800110035000030ec00990188000802be0053
:101948008001eb000cc0200007802000062020004a
:101958009400ba001481ba000380410001307e006f
:1019680002b07b008301e80062024200e0824a0084
:10197800868f5100f6ff3a00c88e8800d98e8800fd
:101988000a007800f03fb2000000d1000d02780094
:101998008002eb0007c020000680200011003700fd
:1019a80000017800f21fb20082014100144090004b
:1019b8004800dd009480fb000100400080b17b00fe
:1019c800b4409000c808dd00244090000080fb006f
:1019d8008080400081317b00e48242000200e80000
:1019e800640242008e8f5200edff39004f077800e5
:1019f8004f06be004f05be004f04be0000000600a3
:101a0800889fbe008a9fbe008c9fbe000005be0056
:101a18000206be008004eb00120037008a0078003e
:101a2800f13fb200004020000100500000004000db
:101a38000004780009005600880f500001003100aa
:101a48000004780089814600080178000a00be0079
:101a58009dff07000800d10000054500e0854d0006
:101a6800888444008c8f5400ecff39004f06be0078
:101a78004f05be004f04be0000000600881f780016
:101a88000003be0002047800000020000080fb0074
:101a980001002000c000dd00000020000200250039
:101aa80002004000e0804800800f5300818f5b00f7
:101ab8000200310006034000878348000000200030
:101ac800f00fb20001002000c000dd00000020007f
:101ad800e4bf2a0004024000e0824800620242009b
:101ae800e0824a00840f5300858f5b0003003100b9
:101af800080178000600be00c1ff07004f04780007
:101b080000000600889fbe008a9fbe0000002000db
:101b18000080fb0001002000c000dd000000200064
:101b28000200250002014000e08148000200410057
:101b38008380490062055000e08558000203be001a
:101b48006044b8000e003700970188001601ba00fb
:101b58001682ba000280fb0000004400e0804c00be
:101b68004811de0002014000e08148000482fb00c9
:101b780004044100e084490062034300e0834b0011
:101b88008a0f53008b8f5b00efff39000980fb0041
:101b980080017800080178000200be004f05be00f1
:101ba8004f04be0000000600f40f200002002000d1
:101bb8000401610003002000c011dd0002002000c4
:101bc8000000250000004100e080490000004000be
:101bd8008180480062005000e08058009101880030
:101be8001001ba001080ba0001002000c000dd001a
:101bf8000000200002014000e0814800030262006a
:101c080084027800020278000400be00000006008a
:101c1800889fbe008a9fbe008c9fbe008e1f7800e2
:101c2800000020000081fb0003002000c011dd003f
:101c380002002000040025000500200002064200e2
:101c480083864a006011b800f00fb200010020003e
:101c5800c000dd00000020000005420081854a0028
:101c68002e042400210037000203450083834d0021
:101c7800970188000602be0008202000f90f200006
:101c88001400ba009480ba00e10f400009003a003d
:101c9800f10fb200898f500006003a000804e900ed
:101ca80062024200e0824a000800e0000b003200b5
:101cb800f3ff37000e3b8800060bbb000700fc0053
:101cc80050052000303b8800a00a2000303b8800e7
:101cd80061e7a800000000000000000000402000ac
:101ce8000100200002014000838148008c0f510050
:101cf8008d8f5900dcff39004f0778004f06be0072
:101d08004f05be004f04be0000000600889fbe00bd
:101d1800f40f2000000020000400600001002000f3
:101d2800c000dd0000002000020025000201400084
:101d3800e0814800930188001200ba009280ba003e
:101d480000017800e10f400005003a00f10fb200f1
:101d58006011b800848f5000100032000d00370069
:101d680000202000800f51000a003a00e4cf500004
:101d780008003a0063ff07000004be008aff07005e
:101d88001200200003002000800f5400818f5c00a7
:101d9800020032009eff07006011b8000200be007a
:101da8004f04be0000000600f8874700889fbe0069
:101db8008a9fbe008c9fbe008e1f780051ff0700cf
:101dc8000004be0078ff0700800f5400818f5c007c
:101dd800020032008eff07008d0037000800200047
:101de800f20f20000202640005002000c022dd007e
:101df800040020000c0025000d002000040246000d
:101e080085824e000a0020000b0020000a0078009e
:101e18000201650003002000c011dd00020020005f
:101e280006c02400070020000201430083814b0004
:101e38000202520083825a00e4af9f00f5af9f0070
:101e48006011b80082b79f0093b79f00bab79f0090
:101e5800cbb79f00f00fb20001002000c000dd00ea
:101e6800000020000000430081804b00d0b79f0095
:101e7800e1b79f00f80fb20009002000c044dd0060
:101e8800080020000804460089844e00f8b79f0027
:101e980089bf9f00570037000fb097009fb0970089
:101ea8005fb19700efb197000003410081834900bb
:101eb8007fb097008fb897000605400087854800d7
:101ec8008a017800060178004fb79700405ede006f
:101ed8000d002000403cde0009002000a8b79f004c
:101ee8009c0188009300ba009382ba009801880088
:101ef8001200ba001282ba00808f500009003a001e
:101f0800848f520007003a000e87e8008381e800ba
:101f18000281e80000402000800f57002d003200a9
:101f2800efff370020042400003b8800afb0970083
:101f380091018800060bbb000700fc00500520003b
:101f4800303b8800a00a2000303b880061e7a800e9
:101f580000000000000000008006eb001e002400c6
:101f6800094020000d067800080420006162b900cd
:101f78000a0042008b804a00910188009001ba0053
:101f88001081ba000602420087824a009501880043
:101f9800030abb00028abb000c86e8000804e900bb
:101fa800f2ff3a000e3b88000700fc0050052000b5
:101fb800303b8800a00a2000303b880061e7a80079
:101fc80000000000000000000d08b000898f5600d6
:101fd800e4ff3a0000402000010020000fb1970004
:101fe8009fb19700020140008381480082b79f009b
:101ff80093b79f000fb097009fb097006fa9970005
:10200800ffa99700820f5000838f5800a2ff350068
:102018004f0778004f06be004f05be004f04be00b4
:102028008f01b1000000060000417800d442a900e9
:102038001140780068e2b7001140900068e2b700ec
:102048002140900068e2b7003140900068e2b70094
:102058004140900068e2b7005140900068e2b70044
:10206800e6804000e64151000042eb0084cf510079
:102078000c00320060c2bf000018a300fdff3a0048
:102088003140780068e2b7008341e90060c2bf00d0
:102098000058a300f5ff3a00401380000241e90010
:1020a800f2ff3700824078000041eb0082cf5000f9
:1020b8000600320060c2bf000058a300fdff3a00ce
:1020c800401380008140e900f8ff3700d442a8009f
:1020d8000000060000417800c482a9001140780081
:1020e80068e2b7001140900068e2b7002140900014
:1020f80068e2b7003140900068e2b70041409000c4
:1021080068e2b7005140900068e2b700e6804000fe
:10211800e64151000042eb0084cf51000c00320030
:1021280060c2bf000018a300fdff3a0031407800ec
:1021380068e2b7008341e90060c2bf000058a3000d
:10214800f5ff3a00401380000241e900f2ff370032
:10215800824078000041eb0082cf50000600320038
:1021680060c2bf000058a300fdff3a004013800082
:102178008140e900f8ff3700c482a800000006008b
:10218800889fbe0002047800d442a9000142e800fa
:102198000080fb0040138800014378000041eb00f9
:1021a80017c0b30082447800894f530018003200ea
:1021b80060c2bf000018a300fdff3a003880fb0092
:1021c800401388000643e90060c2bf0001c2b300a3
:1021d80081426000f4ff3a008440e9000704e0000f
:1021e8000500320040138000004178000142780069
:1021f80085437800ecff3700401380008059780051
:1022080001427800e8ff3700014278008043eb0084
:102218000404e0000c00320060c2bf000058a300b4
:10222800fdff3a008440e9000704e00003003200a3
:102238004013800000417800f3ff3700401380000e
:1022480080597800f0ff3700d442a8000280fb00d4
:102258004f04be0000000600889fbe0002047800fc
:10226800c482a9000142e8000080fb0040138800f6
:10227800014378000041eb0017c0b30082447800a6
:10228800894f53001800320060c2bf000018a30035
:10229800fdff3a003880fb00401388000643e90040
:1022a80060c2bf0001c2b30081426000f4ff3a007f
:1022b8008440e9000704e000050032004013800074
:1022c800004178000142780085437800ecff370030
:1022d800401380008059780001427800e8ff3700f9
:1022e800014278008043eb000404e0000c00320057
:1022f80060c2bf000058a300fdff3a008440e90017
:102308000704e00003003200401380000041780019
:10231800f3ff37004013800080597800f0ff370042
:10232800c482a8000280fb004f04be000000060023
:102338000200fa00e1ff9f000054a00043002100c2
:102348000f81e90011c0b3008dff07000080fb007a
:102358000080fa00000006000200fa00e1ff9f007a
:102368000054a000530021000f81e90011c0b30000
:10237800b9ff07000080fb000080fa00000006009b
:10238800630021007200210011c0b30000c0eb00ff
:102398007bff07000080fb0000000600830021008f
:1023a8009200210011c0b30000c0eb00aaff070093
:1023b8000080fb000000060081017800a2002100d7
:1023c80011c0b3006eff07000080fb00000006008c
:1023d80081017800b200210011c0b3009eff070000
:1023e8000080fb0000000600c300210064ff070016
:1023f8000080fb0000000600c302210096ff0700d2
:102408000080fb000000060082017800c204210061
:102418005bff07000080fb000000060082017800d7
:10242800c20621008cff07000080fb0000000600a8
:1024380000000600ee4040000040eb00bcff370003
:10244800ee4040000040eb00c3ff370080017800f9
:10245800024078008041b3000100e00003003a0028
:102468008049780070c8b3000500370080497800bb
:102478006f8060004300dd0071c8b3000140700048
:102488009041980070ceb300a0419800000006006b
:102498000600fa0001017800800078006680570085
:1024a800eaff07006681570031c0b30000c3b300dc
:1024b800cdff07000080fa00000006000600fa00c1
:1024c800010178008000780066805700dfff070070
:1024d8006681570031c0b30000c3b300c6ff0700d0
:1024e8000080fa00000006000600fa00881f780045
:1024f8000044780068805700d4ff07006a40440011
:10250800e14f540004003e000054a00068815700c9
:1025180031c0b300030037000054a00068815700a1
:1025280011c0b300b0ff07004f0478000080fa0024
:10253800000006000600fa00881f780000447800b2
:1025480068805700c1ff07006a404400e14f54000b
:1025580004003e000054a0006881570031c0b30059
:10256800030037000054a0006881570011c0b30071
:10257800a1ff07004f0478000080fa000000060061
:102588000200fa00889fbe008a1f78000044780085
:102598000140780082447800034578008840d000e4
:1025a80080c04000ecc040000040eb0060ff070026
:1025b8000804e000450032008040eb0010c0b30082
:1025c8005bff070071c0b30020c0b30058ff0700cd
:1025d80011c0b30030c0b30055ff07008040eb00c6
:1025e80040c0b30052ff07008940780050c0b300d4
:1025f8004fff07008a40d000e8c0400060c0b30029
:102608004bff070001c7b30070c0b30048ff0700c5
:1026180031ccb300c0c0b30045ff070041ccb300c4
:10262800d0c0b30042ff070051ccb300e0c0b300f4
:102638003fff070061ccb300f0c0b3003cff0700c8
:10264800a1c0b30010c1b30039ff070021c0b30017
:1026580020c1b30036ff07008040eb0030c1b30053
:1026680033ff07008040eb0040c1b30030ff070094
:102678008040eb0050c1b3002dff07008040eb0005
:1026880060c1b3002aff07008040eb00c0c1b3005f
:1026980027ff07008040eb00d0c1b30024ff0700ec
:1026a80067845700e88157000801780011c0b3001b
:1026b80010ceb300b2fe0700e88157000801780089
:1026c80011c0b30020ceb300adfe07004f0578005f
:1026d8004f04be000080fa00000006000200fa0065
:1026e800889fbe008a1f7800004478000140780067
:1026f80082447800034578008840d00080c04000bc
:10270800ecc040000040eb0013ff07000804e000a5
:10271800450032008040eb0010c0b3000eff0700f8
:1027280071c0b30020c0b3000bff070011c0b30095
:1027380030c0b30008ff07008040eb0040c0b30082
:1027480005ff07008940780050c0b30002ff07006a
:102758008a40d000e8c0400060c0b300fefe070019
:1027680001c7b30070c0b300fbfe070031ccb30053
:10277800c0c0b300f8fe070041ccb300d0c0b3001e
:10278800f5fe070051ccb300e0c0b300f2fe07002d
:1027980061ccb300f0c0b300effe0700a1c0b300e6
:1027a80010c1b300ecfe070021c0b30020c1b30084
:1027b800e9fe07008040eb0030c1b300e6fe0700e9
:1027c8008040eb0040c1b300e3fe07008040eb000f
:1027d80050c1b300e0fe07008040eb0060c1b300c9
:1027e800ddfe07008040eb00c0c1b300dafe070041
:1027f8008040eb00d0c1b300d7fe070067845700c4
:10280800e88157000801780011c0b30010ceb3006a
:1028180091fe0700e88157000801780011c0b30055
:1028280020ceb3008cfe07004f0578004f04be0091
:102838000080fa00000006000200fa008f81e9001b
:102848000f01e90011c0b30020ceb3004cfe070011
:102858000080fa00000006000200fa008f81e900fb
:102868000f01e90011c0b30020ceb3007afe0700c3
:102878000080fa00000006000001780000cab300da
:10288800d9fe37000001780000cab300dafe37002d
:102898000001780010c6b300dbfe370000017800a5
:1028a80010c6b300ddfe370081017800c2082100a0
:1028b8008000780003407800dbfd37008101780054
:1028c800d20a2100800078000340780001fe37001a
:1028d8000001780001007800e10c2100d2fd3700ea
:1028e800a2898000b389800093018800000040001d
:1028f8006102b9000201420083814a001202ba0053
:102908001280ba00840878000080fb0000000600ee
:1029180080017800a6898000b789800030002400f3
:10292800003b8800970188008180fb000110b100fe
:10293800038041006102b9000603420087834a0010
:10294800020bbb00018bbb000700fc0050052000f8
:10295800303b8800a00a2000303b880061e7a800cf
:10296800000000000000000000000600881f78003a
:10297800a0898800b18988008289880093898800a5
:10298800c0112100011321000058eb00810f5000f5
:10299800fdff3a000004eb0011003700010f210091
:1029a80008007800ceff0700e14f40001200320017
:1029b8000004e000090032000080fb000000e9008c
:1029c80012c0b300c111210002f0780000004000dd
:1029d800410f21008287800002b078000804e800d7
:1029e8006141b9008089800091898000800f510081
:1029f800818f5900e9ff3900080078004f047800fa
:102a080000000600010178008080fb00c011210051
:102a1800614078000004e00002003a00820078007b
:102a28000300370081804000400f2100e10078005a
:102a380001007800000006000400fa00889fbe002c
:102a48008a9fbe008c9fbe008046780001067800f1
:102a58000084fb00c2112100684079000004e000f6
:102a68000500320008004400410f21006080780012
:102a78008c0f50005100320008004400410f210023
:102a88000cb0780010c0b300007479008004eb002b
:102a98000e003700210f21000900780090ff070081
:102aa800e14f40000f0032008080fb000800e80082
:102ab800808f500004003a000001eb008040eb00da
:102ac8000900780092ff07008904e800614db90009
:102ad8008089800091898000800f5500818f5d007a
:102ae800ecff39008089800091898000800f5500b3
:102af800818f5d002d003a00708057000129280061
:102b080003000900315878004000b1000004eb00d0
:102b18000a00370008004400cf80de00a289800048
:102b2800b38980000000410081804900f08157008e
:102b38004200200064fb07000804e8006141b90076
:102b48008089800091898000800f5100818f590011
:102b5800f0ff3900f08157000001eb000080eb0026
:102b68008080eb0058fb07008004eb001800200071
:102b78004a0f2100b011210060407c000004e000f1
:102b8800050032001a0178008840780009007800b2
:102b98005fff07008904e8000804e8000a85e800e8
:102ba800f50f540005003200f2ff37008d40e800b1
:102bb8000c0178000900780055ff07004f06be0099
:102bc8004f05be004f04be000080fa00000006005a
:102bd800889fbe008a1f7800014578000204be0065
:102be8008900780094ff0700880078000a40780080
:102bf80091ff07004f0578004f04be000000060053
:102c0800889fbe00814278000204be00401bde009f
:102c1800070020000082fb00c011210064407800fa
:102c28000004e00002003a000600780003003700c4
:102c380084004200400f210061007800010020005c
:102c4800c001dd00020020008580fb00c0112100ca
:102c5800614078000004e00002003a0008007800b3
:102c68000300370081804000400f21006100780098
:102c780000004100e08049004f04be00000006004b
:102c88002ca3ef00c902a900cd02a900c7c6bf0046
:102c980001ceb300014060007040b300c7e6b70042
:102ca800c6c6bf00014060000034a000c6e6b700f9
:102cb800a8c6bf00014060005040b300a8e6b700b6
:102cc800acc6bf0001406000b040b300ace6b7003e
:102cd800cac6bf0001406000a040b300cae6b70002
:102ce800d3c6bf0001406000b040b300d3e6b700d0
:102cf80081c6bf0001406000c040b30081e6b70054
:102d0800d042a900d442a800d022a900d422a90008
:102d180082c6bf00014060003040b30082e6b700c1
:102d2800c082a900c482a800c122a900c522a900a6
:102d3800c102a900c502a800c142a900c542a90054
:102d4800c0e2a900c4e2a900c882a900cc82a900f7
:102d5800c922a900cd22a900d0c2a900d4c2a900c5
:102d6800d0e2a900d4e2a900d102a900d502a900a5
:102d7800d122a900d522a900c9c2a900cdc2a900a3
:102d8800c9e2a900cde2a900c802a900cc02a900a5
:102d9800c822a900cc22a900c842a900cc42a90097
:102da800d002a900d402a900d082a900d482a90027
:102db800d0a2a900d4a2a9000000060005e1a9003c
:102dc80005a1a90004c1a90004c1bf00f1ccb3004a
:102dd8000140600004e1b7000441a9000421a900f2
:102de8000021ef00700c200010088800a5c0bf006b
:102df8000044a1000046b300a5e0b7008460a90024
:102e08009460a8000000060011e1a90011a1a90022
:102e180010c1a90010c1bf00f1ccb300014060008f
:102e280010e1b7001021a9000621ef00700c200066
:102e380060088800a7c0bf000044a1000046b30096
:102e4800a7e0b70084e0a90094e0a800000006000d
:102e580013e1a90013a1a90012c1a90012c1bf0062
:102e6800f1ccb3000140600012e1b7001221a900c3
:102e78000a21ef000064200070088800a8c0bf0085
:102e880081cfb300014060003040b300a8e0b70034
:102e98008500a9009500a800000006001fe1a90010
:102ea8001fa1a9001ec1a9001ec1bf00f1ccb3001b
:102eb800014060000044a0001ee1b7001e21a900e7
:102ec8001421ef0000712200d0088800b1c0bf00b3
:102ed800f1c8b300014060000054a000b1e0b700a1
:102ee8008760a9009760a8000000060041a2a90019
:102ef8004382a9004362a9004342a8004322a900d3
:102f08004302a80042e2a90042c2a90042a2a800c6
:102f180042c2bf0031ceb300014060008041b3001f
:102f280042e2b70030c0b3004262b70045e2a900f0
:102f380040c2bf00014060000024a00040e2b7008a
:102f480041e2a900a9c0bf0081cfb30001406000e1
:102f58006040b300a9e0b7008540a9009540a800eb
:102f68000000060061a2a9006382a9006362a900ab
:102f78006342a9006322a9006302a80062e2a900d3
:102f880062c2a90062a2a80062c2bf0031ceb3002b
:102f9800014060008041b30062e2b70030c0b30076
:102fa8006262b70065e2a9006402a80061e2a800b5
:102fb8008220a800aec0bf0081cfb30001406000ee
:102fc8003040b300aee0b7008680a9009680a80024
:102fd8008240a800b2c0bf00f1c8b3000140600041
:102fe8000043b300b2e0b70087a0a90097a0a800eb
:042ff80000000600cf
:020000040000fa
:102ffc0004100000ec00000000000000f0100000c5
:10300c004800000000000000801100003e0000009d
:10301c00020000000a000200000000000000000096
:10302c00000400000000fc008764000000000000a9
:10303c0000e022001f126000c85c000003000100c9
:10304c0000020000102700000064000000000000d7
:10305c000000000000000000180018000000000034
:10306c0000e01100ff000000be1100001a0000007b
:10307c0000000000381100004800000000000000b3
:10308c00001800000004000000000000e011000027
:10309c001000000000000000d81100000400000027
:1030ac0002000000ffffff00ff000000000800000e
:0c30bc00040800000000000000000000fc
:020000040000fa
:1030c800800078000040eb005bfe37008000eb00da
:1030d8000040eb004bfe37008000780010c0b300c2
:1030e80055fe37004106200010c0b30045fe07001a
:1030f800d1072000810f5000010036000100780040
:10310800000006008000780020c0b3004afe3700a7
:103118001106200020c0b3003afe0700d1072000a6
:10312800810f500001003600010078000000060001
:103138000040d000e440400063404000a4fe370057
:1031480000404000e440400063404000acfe3700cf
:1031580071e7a80070e7a80070c7a80070a7a800ca
:103168007007a8007387a8007367a8007347a800b2
:103178007327a8007307a8007287a8007267a800c1
:103188007247a8007227a8007207a8007547a80010
:103198007527a8007507a80074e7a8007427a80079
:1031a8007647a8007627a800000006004fa7a900c8
:1031b8004f87a8004fc7bf0001cfb3000140600090
:1031c8000004a0004fe7b7004fe7a8000000060082
:00000001FF
